{
	"contracts/KFShares.sol": {
		"KFShares": {
			"abi": [
				{
					"inputs": [],
					"stateMutability": "nonpayable",
					"type": "constructor"
				},
				{
					"inputs": [],
					"name": "AccessControlBadConfirmation",
					"type": "error"
				},
				{
					"inputs": [
						{
							"internalType": "address",
							"name": "account",
							"type": "address"
						},
						{
							"internalType": "bytes32",
							"name": "neededRole",
							"type": "bytes32"
						}
					],
					"name": "AccessControlUnauthorizedAccount",
					"type": "error"
				},
				{
					"inputs": [
						{
							"internalType": "address",
							"name": "target",
							"type": "address"
						}
					],
					"name": "AddressEmptyCode",
					"type": "error"
				},
				{
					"inputs": [
						{
							"internalType": "address",
							"name": "implementation",
							"type": "address"
						}
					],
					"name": "ERC1967InvalidImplementation",
					"type": "error"
				},
				{
					"inputs": [],
					"name": "ERC1967NonPayable",
					"type": "error"
				},
				{
					"inputs": [
						{
							"internalType": "address",
							"name": "spender",
							"type": "address"
						},
						{
							"internalType": "uint256",
							"name": "allowance",
							"type": "uint256"
						},
						{
							"internalType": "uint256",
							"name": "needed",
							"type": "uint256"
						}
					],
					"name": "ERC20InsufficientAllowance",
					"type": "error"
				},
				{
					"inputs": [
						{
							"internalType": "address",
							"name": "sender",
							"type": "address"
						},
						{
							"internalType": "uint256",
							"name": "balance",
							"type": "uint256"
						},
						{
							"internalType": "uint256",
							"name": "needed",
							"type": "uint256"
						}
					],
					"name": "ERC20InsufficientBalance",
					"type": "error"
				},
				{
					"inputs": [
						{
							"internalType": "address",
							"name": "approver",
							"type": "address"
						}
					],
					"name": "ERC20InvalidApprover",
					"type": "error"
				},
				{
					"inputs": [
						{
							"internalType": "address",
							"name": "receiver",
							"type": "address"
						}
					],
					"name": "ERC20InvalidReceiver",
					"type": "error"
				},
				{
					"inputs": [
						{
							"internalType": "address",
							"name": "sender",
							"type": "address"
						}
					],
					"name": "ERC20InvalidSender",
					"type": "error"
				},
				{
					"inputs": [
						{
							"internalType": "address",
							"name": "spender",
							"type": "address"
						}
					],
					"name": "ERC20InvalidSpender",
					"type": "error"
				},
				{
					"inputs": [],
					"name": "FailedCall",
					"type": "error"
				},
				{
					"inputs": [],
					"name": "InvalidInitialization",
					"type": "error"
				},
				{
					"inputs": [],
					"name": "NotInitializing",
					"type": "error"
				},
				{
					"inputs": [],
					"name": "UUPSUnauthorizedCallContext",
					"type": "error"
				},
				{
					"inputs": [
						{
							"internalType": "bytes32",
							"name": "slot",
							"type": "bytes32"
						}
					],
					"name": "UUPSUnsupportedProxiableUUID",
					"type": "error"
				},
				{
					"anonymous": false,
					"inputs": [
						{
							"indexed": true,
							"internalType": "address",
							"name": "owner",
							"type": "address"
						},
						{
							"indexed": true,
							"internalType": "address",
							"name": "spender",
							"type": "address"
						},
						{
							"indexed": false,
							"internalType": "uint256",
							"name": "value",
							"type": "uint256"
						}
					],
					"name": "Approval",
					"type": "event"
				},
				{
					"anonymous": false,
					"inputs": [
						{
							"indexed": false,
							"internalType": "uint64",
							"name": "version",
							"type": "uint64"
						}
					],
					"name": "Initialized",
					"type": "event"
				},
				{
					"anonymous": false,
					"inputs": [
						{
							"indexed": true,
							"internalType": "bytes32",
							"name": "role",
							"type": "bytes32"
						},
						{
							"indexed": true,
							"internalType": "bytes32",
							"name": "previousAdminRole",
							"type": "bytes32"
						},
						{
							"indexed": true,
							"internalType": "bytes32",
							"name": "newAdminRole",
							"type": "bytes32"
						}
					],
					"name": "RoleAdminChanged",
					"type": "event"
				},
				{
					"anonymous": false,
					"inputs": [
						{
							"indexed": true,
							"internalType": "bytes32",
							"name": "role",
							"type": "bytes32"
						},
						{
							"indexed": true,
							"internalType": "address",
							"name": "account",
							"type": "address"
						},
						{
							"indexed": true,
							"internalType": "address",
							"name": "sender",
							"type": "address"
						}
					],
					"name": "RoleGranted",
					"type": "event"
				},
				{
					"anonymous": false,
					"inputs": [
						{
							"indexed": true,
							"internalType": "bytes32",
							"name": "role",
							"type": "bytes32"
						},
						{
							"indexed": true,
							"internalType": "address",
							"name": "account",
							"type": "address"
						},
						{
							"indexed": true,
							"internalType": "address",
							"name": "sender",
							"type": "address"
						}
					],
					"name": "RoleRevoked",
					"type": "event"
				},
				{
					"anonymous": false,
					"inputs": [
						{
							"indexed": true,
							"internalType": "address",
							"name": "from",
							"type": "address"
						},
						{
							"indexed": true,
							"internalType": "address",
							"name": "to",
							"type": "address"
						},
						{
							"indexed": false,
							"internalType": "uint256",
							"name": "value",
							"type": "uint256"
						}
					],
					"name": "Transfer",
					"type": "event"
				},
				{
					"anonymous": false,
					"inputs": [
						{
							"indexed": true,
							"internalType": "address",
							"name": "implementation",
							"type": "address"
						}
					],
					"name": "Upgraded",
					"type": "event"
				},
				{
					"inputs": [],
					"name": "DEFAULT_ADMIN_ROLE",
					"outputs": [
						{
							"internalType": "bytes32",
							"name": "",
							"type": "bytes32"
						}
					],
					"stateMutability": "view",
					"type": "function"
				},
				{
					"inputs": [],
					"name": "PROXY_ROLE",
					"outputs": [
						{
							"internalType": "bytes32",
							"name": "",
							"type": "bytes32"
						}
					],
					"stateMutability": "view",
					"type": "function"
				},
				{
					"inputs": [],
					"name": "UPGRADER_ROLE",
					"outputs": [
						{
							"internalType": "bytes32",
							"name": "",
							"type": "bytes32"
						}
					],
					"stateMutability": "view",
					"type": "function"
				},
				{
					"inputs": [],
					"name": "UPGRADE_INTERFACE_VERSION",
					"outputs": [
						{
							"internalType": "string",
							"name": "",
							"type": "string"
						}
					],
					"stateMutability": "view",
					"type": "function"
				},
				{
					"inputs": [],
					"name": "aksToken",
					"outputs": [
						{
							"internalType": "contract IAKSStablecoin",
							"name": "",
							"type": "address"
						}
					],
					"stateMutability": "view",
					"type": "function"
				},
				{
					"inputs": [
						{
							"internalType": "address",
							"name": "owner",
							"type": "address"
						},
						{
							"internalType": "address",
							"name": "spender",
							"type": "address"
						}
					],
					"name": "allowance",
					"outputs": [
						{
							"internalType": "uint256",
							"name": "",
							"type": "uint256"
						}
					],
					"stateMutability": "view",
					"type": "function"
				},
				{
					"inputs": [
						{
							"internalType": "address",
							"name": "spender",
							"type": "address"
						},
						{
							"internalType": "uint256",
							"name": "value",
							"type": "uint256"
						}
					],
					"name": "approve",
					"outputs": [
						{
							"internalType": "bool",
							"name": "",
							"type": "bool"
						}
					],
					"stateMutability": "nonpayable",
					"type": "function"
				},
				{
					"inputs": [
						{
							"internalType": "address",
							"name": "account",
							"type": "address"
						}
					],
					"name": "balanceOf",
					"outputs": [
						{
							"internalType": "uint256",
							"name": "",
							"type": "uint256"
						}
					],
					"stateMutability": "view",
					"type": "function"
				},
				{
					"inputs": [],
					"name": "basePricePerShare",
					"outputs": [
						{
							"internalType": "uint256",
							"name": "",
							"type": "uint256"
						}
					],
					"stateMutability": "view",
					"type": "function"
				},
				{
					"inputs": [
						{
							"internalType": "uint256",
							"name": "amount",
							"type": "uint256"
						}
					],
					"name": "burn",
					"outputs": [],
					"stateMutability": "nonpayable",
					"type": "function"
				},
				{
					"inputs": [],
					"name": "decimals",
					"outputs": [
						{
							"internalType": "uint8",
							"name": "",
							"type": "uint8"
						}
					],
					"stateMutability": "view",
					"type": "function"
				},
				{
					"inputs": [
						{
							"internalType": "address",
							"name": "account",
							"type": "address"
						},
						{
							"internalType": "uint256",
							"name": "amount",
							"type": "uint256"
						}
					],
					"name": "forceBurn",
					"outputs": [],
					"stateMutability": "nonpayable",
					"type": "function"
				},
				{
					"inputs": [
						{
							"internalType": "uint256",
							"name": "shares",
							"type": "uint256"
						}
					],
					"name": "getCurrentPrice",
					"outputs": [
						{
							"internalType": "uint256",
							"name": "",
							"type": "uint256"
						}
					],
					"stateMutability": "view",
					"type": "function"
				},
				{
					"inputs": [
						{
							"internalType": "bytes32",
							"name": "role",
							"type": "bytes32"
						}
					],
					"name": "getRoleAdmin",
					"outputs": [
						{
							"internalType": "bytes32",
							"name": "",
							"type": "bytes32"
						}
					],
					"stateMutability": "view",
					"type": "function"
				},
				{
					"inputs": [
						{
							"internalType": "bytes32",
							"name": "role",
							"type": "bytes32"
						},
						{
							"internalType": "address",
							"name": "account",
							"type": "address"
						}
					],
					"name": "grantRole",
					"outputs": [],
					"stateMutability": "nonpayable",
					"type": "function"
				},
				{
					"inputs": [
						{
							"internalType": "bytes32",
							"name": "role",
							"type": "bytes32"
						},
						{
							"internalType": "address",
							"name": "account",
							"type": "address"
						}
					],
					"name": "hasRole",
					"outputs": [
						{
							"internalType": "bool",
							"name": "",
							"type": "bool"
						}
					],
					"stateMutability": "view",
					"type": "function"
				},
				{
					"inputs": [
						{
							"internalType": "string",
							"name": "name",
							"type": "string"
						},
						{
							"internalType": "string",
							"name": "symbol",
							"type": "string"
						},
						{
							"internalType": "uint256",
							"name": "totalShares",
							"type": "uint256"
						},
						{
							"internalType": "address",
							"name": "admin",
							"type": "address"
						},
						{
							"internalType": "address",
							"name": "_aksToken",
							"type": "address"
						},
						{
							"internalType": "address",
							"name": "_tokensBridge",
							"type": "address"
						},
						{
							"internalType": "address",
							"name": "proxy",
							"type": "address"
						}
					],
					"name": "initialize",
					"outputs": [],
					"stateMutability": "nonpayable",
					"type": "function"
				},
				{
					"inputs": [
						{
							"internalType": "address",
							"name": "account",
							"type": "address"
						},
						{
							"internalType": "uint256",
							"name": "amount",
							"type": "uint256"
						}
					],
					"name": "lockShares",
					"outputs": [],
					"stateMutability": "nonpayable",
					"type": "function"
				},
				{
					"inputs": [
						{
							"internalType": "address",
							"name": "",
							"type": "address"
						}
					],
					"name": "lockedShares",
					"outputs": [
						{
							"internalType": "uint256",
							"name": "",
							"type": "uint256"
						}
					],
					"stateMutability": "view",
					"type": "function"
				},
				{
					"inputs": [
						{
							"internalType": "address",
							"name": "to",
							"type": "address"
						},
						{
							"internalType": "uint256",
							"name": "amount",
							"type": "uint256"
						}
					],
					"name": "mint",
					"outputs": [],
					"stateMutability": "nonpayable",
					"type": "function"
				},
				{
					"inputs": [],
					"name": "name",
					"outputs": [
						{
							"internalType": "string",
							"name": "",
							"type": "string"
						}
					],
					"stateMutability": "view",
					"type": "function"
				},
				{
					"inputs": [],
					"name": "proxiableUUID",
					"outputs": [
						{
							"internalType": "bytes32",
							"name": "",
							"type": "bytes32"
						}
					],
					"stateMutability": "view",
					"type": "function"
				},
				{
					"inputs": [
						{
							"internalType": "bytes32",
							"name": "role",
							"type": "bytes32"
						},
						{
							"internalType": "address",
							"name": "callerConfirmation",
							"type": "address"
						}
					],
					"name": "renounceRole",
					"outputs": [],
					"stateMutability": "nonpayable",
					"type": "function"
				},
				{
					"inputs": [
						{
							"internalType": "bytes32",
							"name": "role",
							"type": "bytes32"
						},
						{
							"internalType": "address",
							"name": "account",
							"type": "address"
						}
					],
					"name": "revokeRole",
					"outputs": [],
					"stateMutability": "nonpayable",
					"type": "function"
				},
				{
					"inputs": [
						{
							"internalType": "address",
							"name": "account",
							"type": "address"
						},
						{
							"internalType": "bool",
							"name": "status",
							"type": "bool"
						}
					],
					"name": "setWhitelisted",
					"outputs": [],
					"stateMutability": "nonpayable",
					"type": "function"
				},
				{
					"inputs": [
						{
							"internalType": "bytes4",
							"name": "interfaceId",
							"type": "bytes4"
						}
					],
					"name": "supportsInterface",
					"outputs": [
						{
							"internalType": "bool",
							"name": "",
							"type": "bool"
						}
					],
					"stateMutability": "view",
					"type": "function"
				},
				{
					"inputs": [],
					"name": "symbol",
					"outputs": [
						{
							"internalType": "string",
							"name": "",
							"type": "string"
						}
					],
					"stateMutability": "view",
					"type": "function"
				},
				{
					"inputs": [],
					"name": "tokensBridge",
					"outputs": [
						{
							"internalType": "contract ITokensBridge",
							"name": "",
							"type": "address"
						}
					],
					"stateMutability": "view",
					"type": "function"
				},
				{
					"inputs": [],
					"name": "totalSupply",
					"outputs": [
						{
							"internalType": "uint256",
							"name": "",
							"type": "uint256"
						}
					],
					"stateMutability": "view",
					"type": "function"
				},
				{
					"inputs": [
						{
							"internalType": "address",
							"name": "to",
							"type": "address"
						},
						{
							"internalType": "uint256",
							"name": "amount",
							"type": "uint256"
						}
					],
					"name": "transfer",
					"outputs": [
						{
							"internalType": "bool",
							"name": "",
							"type": "bool"
						}
					],
					"stateMutability": "nonpayable",
					"type": "function"
				},
				{
					"inputs": [
						{
							"internalType": "uint64",
							"name": "destinationChainSelector",
							"type": "uint64"
						},
						{
							"internalType": "address",
							"name": "receiver",
							"type": "address"
						},
						{
							"internalType": "uint256",
							"name": "amount",
							"type": "uint256"
						}
					],
					"name": "transferCrossChain",
					"outputs": [],
					"stateMutability": "payable",
					"type": "function"
				},
				{
					"inputs": [
						{
							"internalType": "address",
							"name": "from",
							"type": "address"
						},
						{
							"internalType": "address",
							"name": "to",
							"type": "address"
						},
						{
							"internalType": "uint256",
							"name": "amount",
							"type": "uint256"
						}
					],
					"name": "transferFrom",
					"outputs": [
						{
							"internalType": "bool",
							"name": "",
							"type": "bool"
						}
					],
					"stateMutability": "nonpayable",
					"type": "function"
				},
				{
					"inputs": [
						{
							"internalType": "address",
							"name": "account",
							"type": "address"
						}
					],
					"name": "unlockShares",
					"outputs": [],
					"stateMutability": "nonpayable",
					"type": "function"
				},
				{
					"inputs": [
						{
							"internalType": "uint256",
							"name": "newBasePrice",
							"type": "uint256"
						}
					],
					"name": "updatePricingModel",
					"outputs": [],
					"stateMutability": "nonpayable",
					"type": "function"
				},
				{
					"inputs": [
						{
							"internalType": "address",
							"name": "newImplementation",
							"type": "address"
						},
						{
							"internalType": "bytes",
							"name": "data",
							"type": "bytes"
						}
					],
					"name": "upgradeToAndCall",
					"outputs": [],
					"stateMutability": "payable",
					"type": "function"
				},
				{
					"inputs": [
						{
							"internalType": "address",
							"name": "",
							"type": "address"
						}
					],
					"name": "whitelisted",
					"outputs": [
						{
							"internalType": "bool",
							"name": "",
							"type": "bool"
						}
					],
					"stateMutability": "view",
					"type": "function"
				}
			],
			"devdoc": {
				"errors": {
					"AccessControlBadConfirmation()": [
						{
							"details": "The caller of a function is not the expected one. NOTE: Don't confuse with {AccessControlUnauthorizedAccount}."
						}
					],
					"AccessControlUnauthorizedAccount(address,bytes32)": [
						{
							"details": "The `account` is missing a role."
						}
					],
					"AddressEmptyCode(address)": [
						{
							"details": "There's no code at `target` (it is not a contract)."
						}
					],
					"ERC1967InvalidImplementation(address)": [
						{
							"details": "The `implementation` of the proxy is invalid."
						}
					],
					"ERC1967NonPayable()": [
						{
							"details": "An upgrade function sees `msg.value > 0` that may be lost."
						}
					],
					"ERC20InsufficientAllowance(address,uint256,uint256)": [
						{
							"details": "Indicates a failure with the `spender`’s `allowance`. Used in transfers.",
							"params": {
								"allowance": "Amount of tokens a `spender` is allowed to operate with.",
								"needed": "Minimum amount required to perform a transfer.",
								"spender": "Address that may be allowed to operate on tokens without being their owner."
							}
						}
					],
					"ERC20InsufficientBalance(address,uint256,uint256)": [
						{
							"details": "Indicates an error related to the current `balance` of a `sender`. Used in transfers.",
							"params": {
								"balance": "Current balance for the interacting account.",
								"needed": "Minimum amount required to perform a transfer.",
								"sender": "Address whose tokens are being transferred."
							}
						}
					],
					"ERC20InvalidApprover(address)": [
						{
							"details": "Indicates a failure with the `approver` of a token to be approved. Used in approvals.",
							"params": {
								"approver": "Address initiating an approval operation."
							}
						}
					],
					"ERC20InvalidReceiver(address)": [
						{
							"details": "Indicates a failure with the token `receiver`. Used in transfers.",
							"params": {
								"receiver": "Address to which tokens are being transferred."
							}
						}
					],
					"ERC20InvalidSender(address)": [
						{
							"details": "Indicates a failure with the token `sender`. Used in transfers.",
							"params": {
								"sender": "Address whose tokens are being transferred."
							}
						}
					],
					"ERC20InvalidSpender(address)": [
						{
							"details": "Indicates a failure with the `spender` to be approved. Used in approvals.",
							"params": {
								"spender": "Address that may be allowed to operate on tokens without being their owner."
							}
						}
					],
					"FailedCall()": [
						{
							"details": "A call to an address target failed. The target may have reverted."
						}
					],
					"InvalidInitialization()": [
						{
							"details": "The contract is already initialized."
						}
					],
					"NotInitializing()": [
						{
							"details": "The contract is not initializing."
						}
					],
					"UUPSUnauthorizedCallContext()": [
						{
							"details": "The call is from an unauthorized context."
						}
					],
					"UUPSUnsupportedProxiableUUID(bytes32)": [
						{
							"details": "The storage `slot` is unsupported as a UUID."
						}
					]
				},
				"events": {
					"Approval(address,address,uint256)": {
						"details": "Emitted when the allowance of a `spender` for an `owner` is set by a call to {approve}. `value` is the new allowance."
					},
					"Initialized(uint64)": {
						"details": "Triggered when the contract has been initialized or reinitialized."
					},
					"RoleAdminChanged(bytes32,bytes32,bytes32)": {
						"details": "Emitted when `newAdminRole` is set as ``role``'s admin role, replacing `previousAdminRole` `DEFAULT_ADMIN_ROLE` is the starting admin for all roles, despite {RoleAdminChanged} not being emitted to signal this."
					},
					"RoleGranted(bytes32,address,address)": {
						"details": "Emitted when `account` is granted `role`. `sender` is the account that originated the contract call. This account bears the admin role (for the granted role). Expected in cases where the role was granted using the internal {AccessControl-_grantRole}."
					},
					"RoleRevoked(bytes32,address,address)": {
						"details": "Emitted when `account` is revoked `role`. `sender` is the account that originated the contract call:   - if using `revokeRole`, it is the admin role bearer   - if using `renounceRole`, it is the role bearer (i.e. `account`)"
					},
					"Transfer(address,address,uint256)": {
						"details": "Emitted when `value` tokens are moved from one account (`from`) to another (`to`). Note that `value` may be zero."
					},
					"Upgraded(address)": {
						"details": "Emitted when the implementation is upgraded."
					}
				},
				"kind": "dev",
				"methods": {
					"allowance(address,address)": {
						"details": "See {IERC20-allowance}."
					},
					"approve(address,uint256)": {
						"details": "See {IERC20-approve}. NOTE: If `value` is the maximum `uint256`, the allowance is not updated on `transferFrom`. This is semantically equivalent to an infinite approval. Requirements: - `spender` cannot be the zero address."
					},
					"balanceOf(address)": {
						"details": "See {IERC20-balanceOf}."
					},
					"constructor": {
						"custom:oz-upgrades-unsafe-allow": "constructor"
					},
					"decimals()": {
						"details": "Returns the number of decimals used to get its user representation. For example, if `decimals` equals `2`, a balance of `505` tokens should be displayed to a user as `5.05` (`505 / 10 ** 2`). Tokens usually opt for a value of 18, imitating the relationship between Ether and Wei. This is the default value returned by this function, unless it's overridden. NOTE: This information is only used for _display_ purposes: it in no way affects any of the arithmetic of the contract, including {IERC20-balanceOf} and {IERC20-transfer}."
					},
					"getRoleAdmin(bytes32)": {
						"details": "Returns the admin role that controls `role`. See {grantRole} and {revokeRole}. To change a role's admin, use {_setRoleAdmin}."
					},
					"grantRole(bytes32,address)": {
						"details": "Grants `role` to `account`. If `account` had not been already granted `role`, emits a {RoleGranted} event. Requirements: - the caller must have ``role``'s admin role. May emit a {RoleGranted} event."
					},
					"hasRole(bytes32,address)": {
						"details": "Returns `true` if `account` has been granted `role`."
					},
					"name()": {
						"details": "Returns the name of the token."
					},
					"proxiableUUID()": {
						"details": "Implementation of the ERC-1822 {proxiableUUID} function. This returns the storage slot used by the implementation. It is used to validate the implementation's compatibility when performing an upgrade. IMPORTANT: A proxy pointing at a proxiable contract should not be considered proxiable itself, because this risks bricking a proxy that upgrades to it, by delegating to itself until out of gas. Thus it is critical that this function revert if invoked through a proxy. This is guaranteed by the `notDelegated` modifier."
					},
					"renounceRole(bytes32,address)": {
						"details": "Revokes `role` from the calling account. Roles are often managed via {grantRole} and {revokeRole}: this function's purpose is to provide a mechanism for accounts to lose their privileges if they are compromised (such as when a trusted device is misplaced). If the calling account had been revoked `role`, emits a {RoleRevoked} event. Requirements: - the caller must be `callerConfirmation`. May emit a {RoleRevoked} event."
					},
					"revokeRole(bytes32,address)": {
						"details": "Revokes `role` from `account`. If `account` had been granted `role`, emits a {RoleRevoked} event. Requirements: - the caller must have ``role``'s admin role. May emit a {RoleRevoked} event."
					},
					"supportsInterface(bytes4)": {
						"details": "See {IERC165-supportsInterface}."
					},
					"symbol()": {
						"details": "Returns the symbol of the token, usually a shorter version of the name."
					},
					"totalSupply()": {
						"details": "See {IERC20-totalSupply}."
					},
					"upgradeToAndCall(address,bytes)": {
						"custom:oz-upgrades-unsafe-allow-reachable": "delegatecall",
						"details": "Upgrade the implementation of the proxy to `newImplementation`, and subsequently execute the function call encoded in `data`. Calls {_authorizeUpgrade}. Emits an {Upgraded} event."
					}
				},
				"version": 1
			},
			"evm": {
				"assembly": "    /* \"contracts/KFShares.sol\":445:4318  contract KFShares is Initializable, ERC20Upgradeable, AccessControlUpgradeable, UUPSUpgradeable {... */\n  mstore(0x40, 0xa0)\n    /* \"@openzeppelin/contracts-upgradeable/proxy/utils/UUPSUpgradeable.sol\":1171:1175  this */\n  address\n    /* \"@openzeppelin/contracts-upgradeable/proxy/utils/UUPSUpgradeable.sol\":1128:1176  address private immutable __self = address(this) */\n  0xffffffffffffffffffffffffffffffffffffffff\n  and\n  0x80\n  swap1\n  0xffffffffffffffffffffffffffffffffffffffff\n  and\n  dup2\n  mstore\n  pop\n    /* \"contracts/KFShares.sol\":978:1033  constructor() {... */\n  callvalue\n  dup1\n  iszero\n  tag_1\n  jumpi\n  revert(0x00, 0x00)\ntag_1:\n  pop\n    /* \"contracts/KFShares.sol\":1003:1025  _disableInitializers() */\n  tag_4\n    /* \"contracts/KFShares.sol\":1003:1023  _disableInitializers */\n  shl(0x20, tag_5)\n    /* \"contracts/KFShares.sol\":1003:1025  _disableInitializers() */\n  0x20\n  shr\n  jump\t// in\ntag_4:\n    /* \"contracts/KFShares.sol\":445:4318  contract KFShares is Initializable, ERC20Upgradeable, AccessControlUpgradeable, UUPSUpgradeable {... */\n  jump(tag_6)\n    /* \"@openzeppelin/contracts-upgradeable/proxy/utils/Initializable.sol\":7709:8131  function _disableInitializers() internal virtual {... */\ntag_5:\n    /* \"@openzeppelin/contracts-upgradeable/proxy/utils/Initializable.sol\":7824:7854  InitializableStorage storage $ */\n  0x00\n    /* \"@openzeppelin/contracts-upgradeable/proxy/utils/Initializable.sol\":7857:7883  _getInitializableStorage() */\n  tag_8\n    /* \"@openzeppelin/contracts-upgradeable/proxy/utils/Initializable.sol\":7857:7881  _getInitializableStorage */\n  shl(0x20, tag_9)\n    /* \"@openzeppelin/contracts-upgradeable/proxy/utils/Initializable.sol\":7857:7883  _getInitializableStorage() */\n  0x20\n  shr\n  jump\t// in\ntag_8:\n    /* \"@openzeppelin/contracts-upgradeable/proxy/utils/Initializable.sol\":7824:7883  InitializableStorage storage $ = _getInitializableStorage() */\n  swap1\n  pop\n    /* \"@openzeppelin/contracts-upgradeable/proxy/utils/Initializable.sol\":7898:7899  $ */\n  dup1\n    /* \"@openzeppelin/contracts-upgradeable/proxy/utils/Initializable.sol\":7898:7913  $._initializing */\n  0x00\n  add\n  0x08\n  swap1\n  sload\n  swap1\n  0x0100\n  exp\n  swap1\n  div\n  0xff\n  and\n    /* \"@openzeppelin/contracts-upgradeable/proxy/utils/Initializable.sol\":7894:7970  if ($._initializing) {... */\n  iszero\n  tag_10\n  jumpi\n    /* \"@openzeppelin/contracts-upgradeable/proxy/utils/Initializable.sol\":7936:7959  InvalidInitialization() */\n  mload(0x40)\n  0xf92ee8a900000000000000000000000000000000000000000000000000000000\n  dup2\n  mstore\n  0x04\n  add\n  mload(0x40)\n  dup1\n  swap2\n  sub\n  swap1\n  revert\n    /* \"@openzeppelin/contracts-upgradeable/proxy/utils/Initializable.sol\":7894:7970  if ($._initializing) {... */\ntag_10:\n    /* \"@openzeppelin/contracts-upgradeable/proxy/utils/Initializable.sol\":8001:8017  type(uint64).max */\n  0xffffffffffffffff\n    /* \"@openzeppelin/contracts-upgradeable/proxy/utils/Initializable.sol\":7983:8017  $._initialized != type(uint64).max */\n  dup1\n  and\n    /* \"@openzeppelin/contracts-upgradeable/proxy/utils/Initializable.sol\":7983:7984  $ */\n  dup2\n    /* \"@openzeppelin/contracts-upgradeable/proxy/utils/Initializable.sol\":7983:7997  $._initialized */\n  0x00\n  add\n  0x00\n  swap1\n  sload\n  swap1\n  0x0100\n  exp\n  swap1\n  div\n  0xffffffffffffffff\n  and\n    /* \"@openzeppelin/contracts-upgradeable/proxy/utils/Initializable.sol\":7983:8017  $._initialized != type(uint64).max */\n  0xffffffffffffffff\n  and\n  eq\n    /* \"@openzeppelin/contracts-upgradeable/proxy/utils/Initializable.sol\":7979:8125  if ($._initialized != type(uint64).max) {... */\n  tag_11\n  jumpi\n    /* \"@openzeppelin/contracts-upgradeable/proxy/utils/Initializable.sol\":8050:8066  type(uint64).max */\n  0xffffffffffffffff\n    /* \"@openzeppelin/contracts-upgradeable/proxy/utils/Initializable.sol\":8033:8034  $ */\n  dup2\n    /* \"@openzeppelin/contracts-upgradeable/proxy/utils/Initializable.sol\":8033:8047  $._initialized */\n  0x00\n  add\n  0x00\n    /* \"@openzeppelin/contracts-upgradeable/proxy/utils/Initializable.sol\":8033:8066  $._initialized = type(uint64).max */\n  0x0100\n  exp\n  dup2\n  sload\n  dup2\n  0xffffffffffffffff\n  mul\n  not\n  and\n  swap1\n  dup4\n  0xffffffffffffffff\n  and\n  mul\n  or\n  swap1\n  sstore\n  pop\n    /* \"@openzeppelin/contracts-upgradeable/proxy/utils/Initializable.sol\":8085:8114  Initialized(type(uint64).max) */\n  0xc7f505b2f371ae2175ee4913f4499e1f2633a7b5936321eed1cdaeb6115181d2\n    /* \"@openzeppelin/contracts-upgradeable/proxy/utils/Initializable.sol\":8097:8113  type(uint64).max */\n  0xffffffffffffffff\n    /* \"@openzeppelin/contracts-upgradeable/proxy/utils/Initializable.sol\":8085:8114  Initialized(type(uint64).max) */\n  mload(0x40)\n  tag_12\n  swap2\n  swap1\n  tag_13\n  jump\t// in\ntag_12:\n  mload(0x40)\n  dup1\n  swap2\n  sub\n  swap1\n  log1\n    /* \"@openzeppelin/contracts-upgradeable/proxy/utils/Initializable.sol\":7979:8125  if ($._initialized != type(uint64).max) {... */\ntag_11:\n    /* \"@openzeppelin/contracts-upgradeable/proxy/utils/Initializable.sol\":7758:8131  {... */\n  pop\n    /* \"@openzeppelin/contracts-upgradeable/proxy/utils/Initializable.sol\":7709:8131  function _disableInitializers() internal virtual {... */\n  jump\t// out\n    /* \"@openzeppelin/contracts-upgradeable/proxy/utils/Initializable.sol\":9071:9276  function _getInitializableStorage() private pure returns (InitializableStorage storage $) {... */\ntag_9:\n    /* \"@openzeppelin/contracts-upgradeable/proxy/utils/Initializable.sol\":9129:9159  InitializableStorage storage $ */\n  0x00\n    /* \"@openzeppelin/contracts-upgradeable/proxy/utils/Initializable.sol\":9171:9183  bytes32 slot */\n  0x00\n    /* \"@openzeppelin/contracts-upgradeable/proxy/utils/Initializable.sol\":9186:9213  _initializableStorageSlot() */\n  tag_15\n    /* \"@openzeppelin/contracts-upgradeable/proxy/utils/Initializable.sol\":9186:9211  _initializableStorageSlot */\n  shl(0x20, tag_16)\n    /* \"@openzeppelin/contracts-upgradeable/proxy/utils/Initializable.sol\":9186:9213  _initializableStorageSlot() */\n  0x20\n  shr\n  jump\t// in\ntag_15:\n    /* \"@openzeppelin/contracts-upgradeable/proxy/utils/Initializable.sol\":9171:9213  bytes32 slot = _initializableStorageSlot() */\n  swap1\n  pop\n    /* \"@openzeppelin/contracts-upgradeable/proxy/utils/Initializable.sol\":9256:9260  slot */\n  dup1\n    /* \"@openzeppelin/contracts-upgradeable/proxy/utils/Initializable.sol\":9246:9260  $.slot := slot */\n  swap2\n  pop\n    /* \"@openzeppelin/contracts-upgradeable/proxy/utils/Initializable.sol\":9232:9270  {... */\n  pop\n    /* \"@openzeppelin/contracts-upgradeable/proxy/utils/Initializable.sol\":9071:9276  function _getInitializableStorage() private pure returns (InitializableStorage storage $) {... */\n  swap1\n  jump\t// out\n    /* \"@openzeppelin/contracts-upgradeable/proxy/utils/Initializable.sol\":8819:8941  function _initializableStorageSlot() internal pure virtual returns (bytes32) {... */\ntag_16:\n    /* \"@openzeppelin/contracts-upgradeable/proxy/utils/Initializable.sol\":8887:8894  bytes32 */\n  0x00\n    /* \"@openzeppelin/contracts-upgradeable/proxy/utils/Initializable.sol\":3147:3213  0xf0c57e16840df040f15088dc2f81fe391c3923bec73e23a9662efc9c229c6a00 */\n  0xf0c57e16840df040f15088dc2f81fe391c3923bec73e23a9662efc9c229c6a00\n    /* \"@openzeppelin/contracts-upgradeable/proxy/utils/Initializable.sol\":8913:8934  INITIALIZABLE_STORAGE */\n  0x00\n  shl\n    /* \"@openzeppelin/contracts-upgradeable/proxy/utils/Initializable.sol\":8906:8934  return INITIALIZABLE_STORAGE */\n  swap1\n  pop\n    /* \"@openzeppelin/contracts-upgradeable/proxy/utils/Initializable.sol\":8819:8941  function _initializableStorageSlot() internal pure virtual returns (bytes32) {... */\n  swap1\n  jump\t// out\n    /* \"#utility.yul\":7:108   */\ntag_18:\n    /* \"#utility.yul\":43:50   */\n  0x00\n    /* \"#utility.yul\":83:101   */\n  0xffffffffffffffff\n    /* \"#utility.yul\":76:81   */\n  dup3\n    /* \"#utility.yul\":72:102   */\n  and\n    /* \"#utility.yul\":61:102   */\n  swap1\n  pop\n    /* \"#utility.yul\":7:108   */\n  swap2\n  swap1\n  pop\n  jump\t// out\n    /* \"#utility.yul\":114:229   */\ntag_19:\n    /* \"#utility.yul\":199:222   */\n  tag_23\n    /* \"#utility.yul\":216:221   */\n  dup2\n    /* \"#utility.yul\":199:222   */\n  tag_18\n  jump\t// in\ntag_23:\n    /* \"#utility.yul\":194:197   */\n  dup3\n    /* \"#utility.yul\":187:223   */\n  mstore\n    /* \"#utility.yul\":114:229   */\n  pop\n  pop\n  jump\t// out\n    /* \"#utility.yul\":235:453   */\ntag_13:\n    /* \"#utility.yul\":326:330   */\n  0x00\n    /* \"#utility.yul\":364:366   */\n  0x20\n    /* \"#utility.yul\":353:362   */\n  dup3\n    /* \"#utility.yul\":349:367   */\n  add\n    /* \"#utility.yul\":341:367   */\n  swap1\n  pop\n    /* \"#utility.yul\":377:446   */\n  tag_25\n    /* \"#utility.yul\":443:444   */\n  0x00\n    /* \"#utility.yul\":432:441   */\n  dup4\n    /* \"#utility.yul\":428:445   */\n  add\n    /* \"#utility.yul\":419:425   */\n  dup5\n    /* \"#utility.yul\":377:446   */\n  tag_19\n  jump\t// in\ntag_25:\n    /* \"#utility.yul\":235:453   */\n  swap3\n  swap2\n  pop\n  pop\n  jump\t// out\n    /* \"contracts/KFShares.sol\":445:4318  contract KFShares is Initializable, ERC20Upgradeable, AccessControlUpgradeable, UUPSUpgradeable {... */\ntag_6:\n  mload(0x80)\n  codecopy(0x00, dataOffset(sub_0), dataSize(sub_0))\n  0x00\n  assignImmutable(\"0x903cf98c709a9afd0d51d5fd348ba936789b2b73452753a58f859a0a579afd\")\n  return(0x00, dataSize(sub_0))\nstop\n\nsub_0: assembly {\n        /* \"contracts/KFShares.sol\":445:4318  contract KFShares is Initializable, ERC20Upgradeable, AccessControlUpgradeable, UUPSUpgradeable {... */\n      mstore(0x40, 0x80)\n      jumpi(tag_1, lt(calldatasize, 0x04))\n      shr(0xe0, calldataload(0x00))\n      dup1\n      0x91d14854\n      gt\n      tag_38\n      jumpi\n      dup1\n      0xd547741f\n      gt\n      tag_39\n      jumpi\n      dup1\n      0xe2d6f634\n      gt\n      tag_40\n      jumpi\n      dup1\n      0xe2d6f634\n      eq\n      tag_33\n      jumpi\n      dup1\n      0xe336ac44\n      eq\n      tag_34\n      jumpi\n      dup1\n      0xe48bf15b\n      eq\n      tag_35\n      jumpi\n      dup1\n      0xf7154b3c\n      eq\n      tag_36\n      jumpi\n      dup1\n      0xf72c0d8b\n      eq\n      tag_37\n      jumpi\n      jump(tag_1)\n    tag_40:\n      dup1\n      0xd547741f\n      eq\n      tag_29\n      jumpi\n      dup1\n      0xd936547e\n      eq\n      tag_30\n      jumpi\n      dup1\n      0xdd62ed3e\n      eq\n      tag_31\n      jumpi\n      dup1\n      0xdea7f112\n      eq\n      tag_32\n      jumpi\n      jump(tag_1)\n    tag_39:\n      dup1\n      0xa217fddf\n      gt\n      tag_41\n      jumpi\n      dup1\n      0xa217fddf\n      eq\n      tag_24\n      jumpi\n      dup1\n      0xa9059cbb\n      eq\n      tag_25\n      jumpi\n      dup1\n      0xad3cb1cc\n      eq\n      tag_26\n      jumpi\n      dup1\n      0xc255f8c8\n      eq\n      tag_27\n      jumpi\n      dup1\n      0xc55d0f56\n      eq\n      tag_28\n      jumpi\n      jump(tag_1)\n    tag_41:\n      dup1\n      0x91d14854\n      eq\n      tag_20\n      jumpi\n      dup1\n      0x9281aa0b\n      eq\n      tag_21\n      jumpi\n      dup1\n      0x95d89b41\n      eq\n      tag_22\n      jumpi\n      dup1\n      0xa14d707c\n      eq\n      tag_23\n      jumpi\n      jump(tag_1)\n    tag_38:\n      dup1\n      0x36568abe\n      gt\n      tag_42\n      jumpi\n      dup1\n      0x4f1ef286\n      gt\n      tag_43\n      jumpi\n      dup1\n      0x4f1ef286\n      eq\n      tag_15\n      jumpi\n      dup1\n      0x52d1902d\n      eq\n      tag_16\n      jumpi\n      dup1\n      0x70a08231\n      eq\n      tag_17\n      jumpi\n      dup1\n      0x8d898e34\n      eq\n      tag_18\n      jumpi\n      dup1\n      0x9081e644\n      eq\n      tag_19\n      jumpi\n      jump(tag_1)\n    tag_43:\n      dup1\n      0x36568abe\n      eq\n      tag_11\n      jumpi\n      dup1\n      0x3efb0be3\n      eq\n      tag_12\n      jumpi\n      dup1\n      0x40c10f19\n      eq\n      tag_13\n      jumpi\n      dup1\n      0x42966c68\n      eq\n      tag_14\n      jumpi\n      jump(tag_1)\n    tag_42:\n      dup1\n      0x18160ddd\n      gt\n      tag_44\n      jumpi\n      dup1\n      0x18160ddd\n      eq\n      tag_6\n      jumpi\n      dup1\n      0x23b872dd\n      eq\n      tag_7\n      jumpi\n      dup1\n      0x248a9ca3\n      eq\n      tag_8\n      jumpi\n      dup1\n      0x2f2ff15d\n      eq\n      tag_9\n      jumpi\n      dup1\n      0x313ce567\n      eq\n      tag_10\n      jumpi\n      jump(tag_1)\n    tag_44:\n      dup1\n      0x01ffc9a7\n      eq\n      tag_2\n      jumpi\n      dup1\n      0x05fbf448\n      eq\n      tag_3\n      jumpi\n      dup1\n      0x06fdde03\n      eq\n      tag_4\n      jumpi\n      dup1\n      0x095ea7b3\n      eq\n      tag_5\n      jumpi\n    tag_1:\n      revert(0x00, 0x00)\n        /* \"@openzeppelin/contracts-upgradeable/access/AccessControlUpgradeable.sol\":3443:3645  function supportsInterface(bytes4 interfaceId) public view virtual override returns (bool) {... */\n    tag_2:\n      callvalue\n      dup1\n      iszero\n      tag_45\n      jumpi\n      revert(0x00, 0x00)\n    tag_45:\n      pop\n      tag_46\n      0x04\n      dup1\n      calldatasize\n      sub\n      dup2\n      add\n      swap1\n      tag_47\n      swap2\n      swap1\n      tag_48\n      jump\t// in\n    tag_47:\n      tag_49\n      jump\t// in\n    tag_46:\n      mload(0x40)\n      tag_50\n      swap2\n      swap1\n      tag_51\n      jump\t// in\n    tag_50:\n      mload(0x40)\n      dup1\n      swap2\n      sub\n      swap1\n      return\n        /* \"contracts/KFShares.sol\":2187:2320  function lockShares(address account, uint256 amount) external onlyRole(PROXY_ROLE) {... */\n    tag_3:\n      callvalue\n      dup1\n      iszero\n      tag_52\n      jumpi\n      revert(0x00, 0x00)\n    tag_52:\n      pop\n      tag_53\n      0x04\n      dup1\n      calldatasize\n      sub\n      dup2\n      add\n      swap1\n      tag_54\n      swap2\n      swap1\n      tag_55\n      jump\t// in\n    tag_54:\n      tag_56\n      jump\t// in\n    tag_53:\n      stop\n        /* \"@openzeppelin/contracts-upgradeable/token/ERC20/ERC20Upgradeable.sol\":2697:2841  function name() public view virtual returns (string memory) {... */\n    tag_4:\n      callvalue\n      dup1\n      iszero\n      tag_57\n      jumpi\n      revert(0x00, 0x00)\n    tag_57:\n      pop\n      tag_58\n      tag_59\n      jump\t// in\n    tag_58:\n      mload(0x40)\n      tag_60\n      swap2\n      swap1\n      tag_61\n      jump\t// in\n    tag_60:\n      mload(0x40)\n      dup1\n      swap2\n      sub\n      swap1\n      return\n        /* \"@openzeppelin/contracts-upgradeable/token/ERC20/ERC20Upgradeable.sol\":5191:5377  function approve(address spender, uint256 value) public virtual returns (bool) {... */\n    tag_5:\n      callvalue\n      dup1\n      iszero\n      tag_62\n      jumpi\n      revert(0x00, 0x00)\n    tag_62:\n      pop\n      tag_63\n      0x04\n      dup1\n      calldatasize\n      sub\n      dup2\n      add\n      swap1\n      tag_64\n      swap2\n      swap1\n      tag_55\n      jump\t// in\n    tag_64:\n      tag_65\n      jump\t// in\n    tag_63:\n      mload(0x40)\n      tag_66\n      swap2\n      swap1\n      tag_51\n      jump\t// in\n    tag_66:\n      mload(0x40)\n      dup1\n      swap2\n      sub\n      swap1\n      return\n        /* \"@openzeppelin/contracts-upgradeable/token/ERC20/ERC20Upgradeable.sol\":3877:4029  function totalSupply() public view virtual returns (uint256) {... */\n    tag_6:\n      callvalue\n      dup1\n      iszero\n      tag_67\n      jumpi\n      revert(0x00, 0x00)\n    tag_67:\n      pop\n      tag_68\n      tag_69\n      jump\t// in\n    tag_68:\n      mload(0x40)\n      tag_70\n      swap2\n      swap1\n      tag_71\n      jump\t// in\n    tag_70:\n      mload(0x40)\n      dup1\n      swap2\n      sub\n      swap1\n      return\n        /* \"contracts/KFShares.sol\":3077:3388  function transferFrom(address from, address to, uint256 amount) public override returns (bool) {... */\n    tag_7:\n      callvalue\n      dup1\n      iszero\n      tag_72\n      jumpi\n      revert(0x00, 0x00)\n    tag_72:\n      pop\n      tag_73\n      0x04\n      dup1\n      calldatasize\n      sub\n      dup2\n      add\n      swap1\n      tag_74\n      swap2\n      swap1\n      tag_75\n      jump\t// in\n    tag_74:\n      tag_76\n      jump\t// in\n    tag_73:\n      mload(0x40)\n      tag_77\n      swap2\n      swap1\n      tag_51\n      jump\t// in\n    tag_77:\n      mload(0x40)\n      dup1\n      swap2\n      sub\n      swap1\n      return\n        /* \"@openzeppelin/contracts-upgradeable/access/AccessControlUpgradeable.sol\":4759:4950  function getRoleAdmin(bytes32 role) public view virtual returns (bytes32) {... */\n    tag_8:\n      callvalue\n      dup1\n      iszero\n      tag_78\n      jumpi\n      revert(0x00, 0x00)\n    tag_78:\n      pop\n      tag_79\n      0x04\n      dup1\n      calldatasize\n      sub\n      dup2\n      add\n      swap1\n      tag_80\n      swap2\n      swap1\n      tag_81\n      jump\t// in\n    tag_80:\n      tag_82\n      jump\t// in\n    tag_79:\n      mload(0x40)\n      tag_83\n      swap2\n      swap1\n      tag_84\n      jump\t// in\n    tag_83:\n      mload(0x40)\n      dup1\n      swap2\n      sub\n      swap1\n      return\n        /* \"@openzeppelin/contracts-upgradeable/access/AccessControlUpgradeable.sol\":5246:5382  function grantRole(bytes32 role, address account) public virtual onlyRole(getRoleAdmin(role)) {... */\n    tag_9:\n      callvalue\n      dup1\n      iszero\n      tag_85\n      jumpi\n      revert(0x00, 0x00)\n    tag_85:\n      pop\n      tag_86\n      0x04\n      dup1\n      calldatasize\n      sub\n      dup2\n      add\n      swap1\n      tag_87\n      swap2\n      swap1\n      tag_88\n      jump\t// in\n    tag_87:\n      tag_89\n      jump\t// in\n    tag_86:\n      stop\n        /* \"@openzeppelin/contracts-upgradeable/token/ERC20/ERC20Upgradeable.sol\":3735:3817  function decimals() public view virtual returns (uint8) {... */\n    tag_10:\n      callvalue\n      dup1\n      iszero\n      tag_90\n      jumpi\n      revert(0x00, 0x00)\n    tag_90:\n      pop\n      tag_91\n      tag_92\n      jump\t// in\n    tag_91:\n      mload(0x40)\n      tag_93\n      swap2\n      swap1\n      tag_94\n      jump\t// in\n    tag_93:\n      mload(0x40)\n      dup1\n      swap2\n      sub\n      swap1\n      return\n        /* \"@openzeppelin/contracts-upgradeable/access/AccessControlUpgradeable.sol\":6348:6593  function renounceRole(bytes32 role, address callerConfirmation) public virtual {... */\n    tag_11:\n      callvalue\n      dup1\n      iszero\n      tag_95\n      jumpi\n      revert(0x00, 0x00)\n    tag_95:\n      pop\n      tag_96\n      0x04\n      dup1\n      calldatasize\n      sub\n      dup2\n      add\n      swap1\n      tag_97\n      swap2\n      swap1\n      tag_88\n      jump\t// in\n    tag_97:\n      tag_98\n      jump\t// in\n    tag_96:\n      stop\n        /* \"contracts/KFShares.sol\":690:720  IAKSStablecoin public aksToken */\n    tag_12:\n      callvalue\n      dup1\n      iszero\n      tag_99\n      jumpi\n      revert(0x00, 0x00)\n    tag_99:\n      pop\n      tag_100\n      tag_101\n      jump\t// in\n    tag_100:\n      mload(0x40)\n      tag_102\n      swap2\n      swap1\n      tag_103\n      jump\t// in\n    tag_102:\n      mload(0x40)\n      dup1\n      swap2\n      sub\n      swap1\n      return\n        /* \"contracts/KFShares.sol\":1828:1936  function mint(address to, uint256 amount) external onlyRole(PROXY_ROLE) {... */\n    tag_13:\n      callvalue\n      dup1\n      iszero\n      tag_104\n      jumpi\n      revert(0x00, 0x00)\n    tag_104:\n      pop\n      tag_105\n      0x04\n      dup1\n      calldatasize\n      sub\n      dup2\n      add\n      swap1\n      tag_106\n      swap2\n      swap1\n      tag_55\n      jump\t// in\n    tag_106:\n      tag_107\n      jump\t// in\n    tag_105:\n      stop\n        /* \"contracts/KFShares.sol\":1944:2048  function burn(uint256 amount) external onlyRole(PROXY_ROLE) {... */\n    tag_14:\n      callvalue\n      dup1\n      iszero\n      tag_108\n      jumpi\n      revert(0x00, 0x00)\n    tag_108:\n      pop\n      tag_109\n      0x04\n      dup1\n      calldatasize\n      sub\n      dup2\n      add\n      swap1\n      tag_110\n      swap2\n      swap1\n      tag_111\n      jump\t// in\n    tag_110:\n      tag_112\n      jump\t// in\n    tag_109:\n      stop\n        /* \"@openzeppelin/contracts-upgradeable/proxy/utils/UUPSUpgradeable.sol\":4161:4375  function upgradeToAndCall(address newImplementation, bytes memory data) public payable virtual onlyProxy {... */\n    tag_15:\n      tag_113\n      0x04\n      dup1\n      calldatasize\n      sub\n      dup2\n      add\n      swap1\n      tag_114\n      swap2\n      swap1\n      tag_115\n      jump\t// in\n    tag_114:\n      tag_116\n      jump\t// in\n    tag_113:\n      stop\n        /* \"@openzeppelin/contracts-upgradeable/proxy/utils/UUPSUpgradeable.sol\":3708:3842  function proxiableUUID() external view virtual notDelegated returns (bytes32) {... */\n    tag_16:\n      callvalue\n      dup1\n      iszero\n      tag_117\n      jumpi\n      revert(0x00, 0x00)\n    tag_117:\n      pop\n      tag_118\n      tag_119\n      jump\t// in\n    tag_118:\n      mload(0x40)\n      tag_120\n      swap2\n      swap1\n      tag_84\n      jump\t// in\n    tag_120:\n      mload(0x40)\n      dup1\n      swap2\n      sub\n      swap1\n      return\n        /* \"@openzeppelin/contracts-upgradeable/token/ERC20/ERC20Upgradeable.sol\":4087:4258  function balanceOf(address account) public view virtual returns (uint256) {... */\n    tag_17:\n      callvalue\n      dup1\n      iszero\n      tag_121\n      jumpi\n      revert(0x00, 0x00)\n    tag_121:\n      pop\n      tag_122\n      0x04\n      dup1\n      calldatasize\n      sub\n      dup2\n      add\n      swap1\n      tag_123\n      swap2\n      swap1\n      tag_124\n      jump\t// in\n    tag_123:\n      tag_125\n      jump\t// in\n    tag_122:\n      mload(0x40)\n      tag_126\n      swap2\n      swap1\n      tag_71\n      jump\t// in\n    tag_126:\n      mload(0x40)\n      dup1\n      swap2\n      sub\n      swap1\n      return\n        /* \"contracts/KFShares.sol\":2449:2580  function updatePricingModel(uint256 newBasePrice) external onlyRole(PROXY_ROLE) {... */\n    tag_18:\n      callvalue\n      dup1\n      iszero\n      tag_127\n      jumpi\n      revert(0x00, 0x00)\n    tag_127:\n      pop\n      tag_128\n      0x04\n      dup1\n      calldatasize\n      sub\n      dup2\n      add\n      swap1\n      tag_129\n      swap2\n      swap1\n      tag_111\n      jump\t// in\n    tag_129:\n      tag_130\n      jump\t// in\n    tag_128:\n      stop\n        /* \"contracts/KFShares.sol\":727:760  ITokensBridge public tokensBridge */\n    tag_19:\n      callvalue\n      dup1\n      iszero\n      tag_131\n      jumpi\n      revert(0x00, 0x00)\n    tag_131:\n      pop\n      tag_132\n      tag_133\n      jump\t// in\n    tag_132:\n      mload(0x40)\n      tag_134\n      swap2\n      swap1\n      tag_135\n      jump\t// in\n    tag_134:\n      mload(0x40)\n      dup1\n      swap2\n      sub\n      swap1\n      return\n        /* \"@openzeppelin/contracts-upgradeable/access/AccessControlUpgradeable.sol\":3732:3939  function hasRole(bytes32 role, address account) public view virtual returns (bool) {... */\n    tag_20:\n      callvalue\n      dup1\n      iszero\n      tag_136\n      jumpi\n      revert(0x00, 0x00)\n    tag_136:\n      pop\n      tag_137\n      0x04\n      dup1\n      calldatasize\n      sub\n      dup2\n      add\n      swap1\n      tag_138\n      swap2\n      swap1\n      tag_88\n      jump\t// in\n    tag_138:\n      tag_139\n      jump\t// in\n    tag_137:\n      mload(0x40)\n      tag_140\n      swap2\n      swap1\n      tag_51\n      jump\t// in\n    tag_140:\n      mload(0x40)\n      dup1\n      swap2\n      sub\n      swap1\n      return\n        /* \"contracts/KFShares.sol\":4034:4174  function setWhitelisted(address account, bool status) external onlyRole(DEFAULT_ADMIN_ROLE) {... */\n    tag_21:\n      callvalue\n      dup1\n      iszero\n      tag_141\n      jumpi\n      revert(0x00, 0x00)\n    tag_141:\n      pop\n      tag_142\n      0x04\n      dup1\n      calldatasize\n      sub\n      dup2\n      add\n      swap1\n      tag_143\n      swap2\n      swap1\n      tag_144\n      jump\t// in\n    tag_143:\n      tag_145\n      jump\t// in\n    tag_142:\n      stop\n        /* \"@openzeppelin/contracts-upgradeable/token/ERC20/ERC20Upgradeable.sol\":2954:3102  function symbol() public view virtual returns (string memory) {... */\n    tag_22:\n      callvalue\n      dup1\n      iszero\n      tag_146\n      jumpi\n      revert(0x00, 0x00)\n    tag_146:\n      pop\n      tag_147\n      tag_148\n      jump\t// in\n    tag_147:\n      mload(0x40)\n      tag_149\n      swap2\n      swap1\n      tag_61\n      jump\t// in\n    tag_149:\n      mload(0x40)\n      dup1\n      swap2\n      sub\n      swap1\n      return\n        /* \"contracts/KFShares.sol\":3459:3997  function transferCrossChain(... */\n    tag_23:\n      tag_150\n      0x04\n      dup1\n      calldatasize\n      sub\n      dup2\n      add\n      swap1\n      tag_151\n      swap2\n      swap1\n      tag_152\n      jump\t// in\n    tag_151:\n      tag_153\n      jump\t// in\n    tag_150:\n      stop\n        /* \"@openzeppelin/contracts-upgradeable/access/AccessControlUpgradeable.sol\":2317:2366  bytes32 public constant DEFAULT_ADMIN_ROLE = 0x00 */\n    tag_24:\n      callvalue\n      dup1\n      iszero\n      tag_154\n      jumpi\n      revert(0x00, 0x00)\n    tag_154:\n      pop\n      tag_155\n      tag_156\n      jump\t// in\n    tag_155:\n      mload(0x40)\n      tag_157\n      swap2\n      swap1\n      tag_84\n      jump\t// in\n    tag_157:\n      mload(0x40)\n      dup1\n      swap2\n      sub\n      swap1\n      return\n        /* \"contracts/KFShares.sol\":2774:3069  function transfer(address to, uint256 amount) public override returns (bool) {... */\n    tag_25:\n      callvalue\n      dup1\n      iszero\n      tag_158\n      jumpi\n      revert(0x00, 0x00)\n    tag_158:\n      pop\n      tag_159\n      0x04\n      dup1\n      calldatasize\n      sub\n      dup2\n      add\n      swap1\n      tag_160\n      swap2\n      swap1\n      tag_55\n      jump\t// in\n    tag_160:\n      tag_161\n      jump\t// in\n    tag_159:\n      mload(0x40)\n      tag_162\n      swap2\n      swap1\n      tag_51\n      jump\t// in\n    tag_162:\n      mload(0x40)\n      dup1\n      swap2\n      sub\n      swap1\n      return\n        /* \"@openzeppelin/contracts-upgradeable/proxy/utils/UUPSUpgradeable.sol\":1819:1877  string public constant UPGRADE_INTERFACE_VERSION = \"5.0.0\" */\n    tag_26:\n      callvalue\n      dup1\n      iszero\n      tag_163\n      jumpi\n      revert(0x00, 0x00)\n    tag_163:\n      pop\n      tag_164\n      tag_165\n      jump\t// in\n    tag_164:\n      mload(0x40)\n      tag_166\n      swap2\n      swap1\n      tag_61\n      jump\t// in\n    tag_166:\n      mload(0x40)\n      dup1\n      swap2\n      sub\n      swap1\n      return\n        /* \"contracts/KFShares.sol\":2328:2441  function unlockShares(address account) external onlyRole(PROXY_ROLE) {... */\n    tag_27:\n      callvalue\n      dup1\n      iszero\n      tag_167\n      jumpi\n      revert(0x00, 0x00)\n    tag_167:\n      pop\n      tag_168\n      0x04\n      dup1\n      calldatasize\n      sub\n      dup2\n      add\n      swap1\n      tag_169\n      swap2\n      swap1\n      tag_124\n      jump\t// in\n    tag_169:\n      tag_170\n      jump\t// in\n    tag_168:\n      stop\n        /* \"contracts/KFShares.sol\":2588:2713  function getCurrentPrice(uint256 shares) external view returns (uint256) {... */\n    tag_28:\n      callvalue\n      dup1\n      iszero\n      tag_171\n      jumpi\n      revert(0x00, 0x00)\n    tag_171:\n      pop\n      tag_172\n      0x04\n      dup1\n      calldatasize\n      sub\n      dup2\n      add\n      swap1\n      tag_173\n      swap2\n      swap1\n      tag_111\n      jump\t// in\n    tag_173:\n      tag_174\n      jump\t// in\n    tag_172:\n      mload(0x40)\n      tag_175\n      swap2\n      swap1\n      tag_71\n      jump\t// in\n    tag_175:\n      mload(0x40)\n      dup1\n      swap2\n      sub\n      swap1\n      return\n        /* \"@openzeppelin/contracts-upgradeable/access/AccessControlUpgradeable.sol\":5662:5800  function revokeRole(bytes32 role, address account) public virtual onlyRole(getRoleAdmin(role)) {... */\n    tag_29:\n      callvalue\n      dup1\n      iszero\n      tag_176\n      jumpi\n      revert(0x00, 0x00)\n    tag_176:\n      pop\n      tag_177\n      0x04\n      dup1\n      calldatasize\n      sub\n      dup2\n      add\n      swap1\n      tag_178\n      swap2\n      swap1\n      tag_88\n      jump\t// in\n    tag_178:\n      tag_179\n      jump\t// in\n    tag_177:\n      stop\n        /* \"contracts/KFShares.sol\":872:915  mapping(address => bool) public whitelisted */\n    tag_30:\n      callvalue\n      dup1\n      iszero\n      tag_180\n      jumpi\n      revert(0x00, 0x00)\n    tag_180:\n      pop\n      tag_181\n      0x04\n      dup1\n      calldatasize\n      sub\n      dup2\n      add\n      swap1\n      tag_182\n      swap2\n      swap1\n      tag_124\n      jump\t// in\n    tag_182:\n      tag_183\n      jump\t// in\n    tag_181:\n      mload(0x40)\n      tag_184\n      swap2\n      swap1\n      tag_51\n      jump\t// in\n    tag_184:\n      mload(0x40)\n      dup1\n      swap2\n      sub\n      swap1\n      return\n        /* \"@openzeppelin/contracts-upgradeable/token/ERC20/ERC20Upgradeable.sol\":4689:4884  function allowance(address owner, address spender) public view virtual returns (uint256) {... */\n    tag_31:\n      callvalue\n      dup1\n      iszero\n      tag_185\n      jumpi\n      revert(0x00, 0x00)\n    tag_185:\n      pop\n      tag_186\n      0x04\n      dup1\n      calldatasize\n      sub\n      dup2\n      add\n      swap1\n      tag_187\n      swap2\n      swap1\n      tag_188\n      jump\t// in\n    tag_187:\n      tag_189\n      jump\t// in\n    tag_186:\n      mload(0x40)\n      tag_190\n      swap2\n      swap1\n      tag_71\n      jump\t// in\n    tag_190:\n      mload(0x40)\n      dup1\n      swap2\n      sub\n      swap1\n      return\n        /* \"contracts/KFShares.sol\":1041:1788  function initialize(... */\n    tag_32:\n      callvalue\n      dup1\n      iszero\n      tag_191\n      jumpi\n      revert(0x00, 0x00)\n    tag_191:\n      pop\n      tag_192\n      0x04\n      dup1\n      calldatasize\n      sub\n      dup2\n      add\n      swap1\n      tag_193\n      swap2\n      swap1\n      tag_194\n      jump\t// in\n    tag_193:\n      tag_195\n      jump\t// in\n    tag_192:\n      stop\n        /* \"contracts/KFShares.sol\":2056:2179  function forceBurn(address account, uint256 amount) external onlyRole(PROXY_ROLE) {... */\n    tag_33:\n      callvalue\n      dup1\n      iszero\n      tag_196\n      jumpi\n      revert(0x00, 0x00)\n    tag_196:\n      pop\n      tag_197\n      0x04\n      dup1\n      calldatasize\n      sub\n      dup2\n      add\n      swap1\n      tag_198\n      swap2\n      swap1\n      tag_55\n      jump\t// in\n    tag_198:\n      tag_199\n      jump\t// in\n    tag_197:\n      stop\n        /* \"contracts/KFShares.sol\":818:865  mapping(address => uint256) public lockedShares */\n    tag_34:\n      callvalue\n      dup1\n      iszero\n      tag_200\n      jumpi\n      revert(0x00, 0x00)\n    tag_200:\n      pop\n      tag_201\n      0x04\n      dup1\n      calldatasize\n      sub\n      dup2\n      add\n      swap1\n      tag_202\n      swap2\n      swap1\n      tag_124\n      jump\t// in\n    tag_202:\n      tag_203\n      jump\t// in\n    tag_201:\n      mload(0x40)\n      tag_204\n      swap2\n      swap1\n      tag_71\n      jump\t// in\n    tag_204:\n      mload(0x40)\n      dup1\n      swap2\n      sub\n      swap1\n      return\n        /* \"contracts/KFShares.sol\":621:681  bytes32 public constant PROXY_ROLE = keccak256(\"PROXY_ROLE\") */\n    tag_35:\n      callvalue\n      dup1\n      iszero\n      tag_205\n      jumpi\n      revert(0x00, 0x00)\n    tag_205:\n      pop\n      tag_206\n      tag_207\n      jump\t// in\n    tag_206:\n      mload(0x40)\n      tag_208\n      swap2\n      swap1\n      tag_84\n      jump\t// in\n    tag_208:\n      mload(0x40)\n      dup1\n      swap2\n      sub\n      swap1\n      return\n        /* \"contracts/KFShares.sol\":769:801  uint256 public basePricePerShare */\n    tag_36:\n      callvalue\n      dup1\n      iszero\n      tag_209\n      jumpi\n      revert(0x00, 0x00)\n    tag_209:\n      pop\n      tag_210\n      tag_211\n      jump\t// in\n    tag_210:\n      mload(0x40)\n      tag_212\n      swap2\n      swap1\n      tag_71\n      jump\t// in\n    tag_212:\n      mload(0x40)\n      dup1\n      swap2\n      sub\n      swap1\n      return\n        /* \"contracts/KFShares.sol\":548:614  bytes32 public constant UPGRADER_ROLE = keccak256(\"UPGRADER_ROLE\") */\n    tag_37:\n      callvalue\n      dup1\n      iszero\n      tag_213\n      jumpi\n      revert(0x00, 0x00)\n    tag_213:\n      pop\n      tag_214\n      tag_215\n      jump\t// in\n    tag_214:\n      mload(0x40)\n      tag_216\n      swap2\n      swap1\n      tag_84\n      jump\t// in\n    tag_216:\n      mload(0x40)\n      dup1\n      swap2\n      sub\n      swap1\n      return\n        /* \"@openzeppelin/contracts-upgradeable/access/AccessControlUpgradeable.sol\":3443:3645  function supportsInterface(bytes4 interfaceId) public view virtual override returns (bool) {... */\n    tag_49:\n        /* \"@openzeppelin/contracts-upgradeable/access/AccessControlUpgradeable.sol\":3528:3532  bool */\n      0x00\n        /* \"@openzeppelin/contracts-upgradeable/access/AccessControlUpgradeable.sol\":3566:3598  type(IAccessControl).interfaceId */\n      0x7965db0b00000000000000000000000000000000000000000000000000000000\n        /* \"@openzeppelin/contracts-upgradeable/access/AccessControlUpgradeable.sol\":3551:3598  interfaceId == type(IAccessControl).interfaceId */\n      not(0xffffffffffffffffffffffffffffffffffffffffffffffffffffffff)\n      and\n        /* \"@openzeppelin/contracts-upgradeable/access/AccessControlUpgradeable.sol\":3551:3562  interfaceId */\n      dup3\n        /* \"@openzeppelin/contracts-upgradeable/access/AccessControlUpgradeable.sol\":3551:3598  interfaceId == type(IAccessControl).interfaceId */\n      not(0xffffffffffffffffffffffffffffffffffffffffffffffffffffffff)\n      and\n      eq\n        /* \"@openzeppelin/contracts-upgradeable/access/AccessControlUpgradeable.sol\":3551:3638  interfaceId == type(IAccessControl).interfaceId || super.supportsInterface(interfaceId) */\n      dup1\n      tag_218\n      jumpi\n      pop\n        /* \"@openzeppelin/contracts-upgradeable/access/AccessControlUpgradeable.sol\":3602:3638  super.supportsInterface(interfaceId) */\n      tag_219\n        /* \"@openzeppelin/contracts-upgradeable/access/AccessControlUpgradeable.sol\":3626:3637  interfaceId */\n      dup3\n        /* \"@openzeppelin/contracts-upgradeable/access/AccessControlUpgradeable.sol\":3602:3625  super.supportsInterface */\n      tag_220\n        /* \"@openzeppelin/contracts-upgradeable/access/AccessControlUpgradeable.sol\":3602:3638  super.supportsInterface(interfaceId) */\n      jump\t// in\n    tag_219:\n        /* \"@openzeppelin/contracts-upgradeable/access/AccessControlUpgradeable.sol\":3551:3638  interfaceId == type(IAccessControl).interfaceId || super.supportsInterface(interfaceId) */\n    tag_218:\n        /* \"@openzeppelin/contracts-upgradeable/access/AccessControlUpgradeable.sol\":3544:3638  return interfaceId == type(IAccessControl).interfaceId || super.supportsInterface(interfaceId) */\n      swap1\n      pop\n        /* \"@openzeppelin/contracts-upgradeable/access/AccessControlUpgradeable.sol\":3443:3645  function supportsInterface(bytes4 interfaceId) public view virtual override returns (bool) {... */\n      swap2\n      swap1\n      pop\n      jump\t// out\n        /* \"contracts/KFShares.sol\":2187:2320  function lockShares(address account, uint256 amount) external onlyRole(PROXY_ROLE) {... */\n    tag_56:\n        /* \"contracts/KFShares.sol\":658:681  keccak256(\"PROXY_ROLE\") */\n      0x77d72916e966418e6dc58a19999ae9934bef3f749f1547cde0a86e809f19c89b\n        /* \"@openzeppelin/contracts-upgradeable/access/AccessControlUpgradeable.sol\":3191:3207  _checkRole(role) */\n      tag_222\n        /* \"@openzeppelin/contracts-upgradeable/access/AccessControlUpgradeable.sol\":3202:3206  role */\n      dup2\n        /* \"@openzeppelin/contracts-upgradeable/access/AccessControlUpgradeable.sol\":3191:3201  _checkRole */\n      tag_223\n        /* \"@openzeppelin/contracts-upgradeable/access/AccessControlUpgradeable.sol\":3191:3207  _checkRole(role) */\n      jump\t// in\n    tag_222:\n        /* \"contracts/KFShares.sol\":2306:2312  amount */\n      dup2\n        /* \"contracts/KFShares.sol\":2281:2293  lockedShares */\n      0x03\n        /* \"contracts/KFShares.sol\":2281:2302  lockedShares[account] */\n      0x00\n        /* \"contracts/KFShares.sol\":2294:2301  account */\n      dup6\n        /* \"contracts/KFShares.sol\":2281:2302  lockedShares[account] */\n      0xffffffffffffffffffffffffffffffffffffffff\n      and\n      0xffffffffffffffffffffffffffffffffffffffff\n      and\n      dup2\n      mstore\n      0x20\n      add\n      swap1\n      dup2\n      mstore\n      0x20\n      add\n      0x00\n      keccak256\n      0x00\n        /* \"contracts/KFShares.sol\":2281:2312  lockedShares[account] += amount */\n      dup3\n      dup3\n      sload\n      tag_225\n      swap2\n      swap1\n      tag_226\n      jump\t// in\n    tag_225:\n      swap3\n      pop\n      pop\n      dup2\n      swap1\n      sstore\n      pop\n        /* \"contracts/KFShares.sol\":2187:2320  function lockShares(address account, uint256 amount) external onlyRole(PROXY_ROLE) {... */\n      pop\n      pop\n      pop\n      jump\t// out\n        /* \"@openzeppelin/contracts-upgradeable/token/ERC20/ERC20Upgradeable.sol\":2697:2841  function name() public view virtual returns (string memory) {... */\n    tag_59:\n        /* \"@openzeppelin/contracts-upgradeable/token/ERC20/ERC20Upgradeable.sol\":2742:2755  string memory */\n      0x60\n        /* \"@openzeppelin/contracts-upgradeable/token/ERC20/ERC20Upgradeable.sol\":2767:2789  ERC20Storage storage $ */\n      0x00\n        /* \"@openzeppelin/contracts-upgradeable/token/ERC20/ERC20Upgradeable.sol\":2792:2810  _getERC20Storage() */\n      tag_228\n        /* \"@openzeppelin/contracts-upgradeable/token/ERC20/ERC20Upgradeable.sol\":2792:2808  _getERC20Storage */\n      tag_229\n        /* \"@openzeppelin/contracts-upgradeable/token/ERC20/ERC20Upgradeable.sol\":2792:2810  _getERC20Storage() */\n      jump\t// in\n    tag_228:\n        /* \"@openzeppelin/contracts-upgradeable/token/ERC20/ERC20Upgradeable.sol\":2767:2810  ERC20Storage storage $ = _getERC20Storage() */\n      swap1\n      pop\n        /* \"@openzeppelin/contracts-upgradeable/token/ERC20/ERC20Upgradeable.sol\":2827:2828  $ */\n      dup1\n        /* \"@openzeppelin/contracts-upgradeable/token/ERC20/ERC20Upgradeable.sol\":2827:2834  $._name */\n      0x03\n      add\n        /* \"@openzeppelin/contracts-upgradeable/token/ERC20/ERC20Upgradeable.sol\":2820:2834  return $._name */\n      dup1\n      sload\n      tag_230\n      swap1\n      tag_231\n      jump\t// in\n    tag_230:\n      dup1\n      0x1f\n      add\n      0x20\n      dup1\n      swap2\n      div\n      mul\n      0x20\n      add\n      mload(0x40)\n      swap1\n      dup2\n      add\n      0x40\n      mstore\n      dup1\n      swap3\n      swap2\n      swap1\n      dup2\n      dup2\n      mstore\n      0x20\n      add\n      dup3\n      dup1\n      sload\n      tag_232\n      swap1\n      tag_231\n      jump\t// in\n    tag_232:\n      dup1\n      iszero\n      tag_233\n      jumpi\n      dup1\n      0x1f\n      lt\n      tag_234\n      jumpi\n      0x0100\n      dup1\n      dup4\n      sload\n      div\n      mul\n      dup4\n      mstore\n      swap2\n      0x20\n      add\n      swap2\n      jump(tag_233)\n    tag_234:\n      dup3\n      add\n      swap2\n      swap1\n      0x00\n      mstore\n      keccak256(0x00, 0x20)\n      swap1\n    tag_235:\n      dup2\n      sload\n      dup2\n      mstore\n      swap1\n      0x01\n      add\n      swap1\n      0x20\n      add\n      dup1\n      dup4\n      gt\n      tag_235\n      jumpi\n      dup3\n      swap1\n      sub\n      0x1f\n      and\n      dup3\n      add\n      swap2\n    tag_233:\n      pop\n      pop\n      pop\n      pop\n      pop\n      swap2\n      pop\n      pop\n        /* \"@openzeppelin/contracts-upgradeable/token/ERC20/ERC20Upgradeable.sol\":2697:2841  function name() public view virtual returns (string memory) {... */\n      swap1\n      jump\t// out\n        /* \"@openzeppelin/contracts-upgradeable/token/ERC20/ERC20Upgradeable.sol\":5191:5377  function approve(address spender, uint256 value) public virtual returns (bool) {... */\n    tag_65:\n        /* \"@openzeppelin/contracts-upgradeable/token/ERC20/ERC20Upgradeable.sol\":5264:5268  bool */\n      0x00\n        /* \"@openzeppelin/contracts-upgradeable/token/ERC20/ERC20Upgradeable.sol\":5280:5293  address owner */\n      0x00\n        /* \"@openzeppelin/contracts-upgradeable/token/ERC20/ERC20Upgradeable.sol\":5296:5308  _msgSender() */\n      tag_237\n        /* \"@openzeppelin/contracts-upgradeable/token/ERC20/ERC20Upgradeable.sol\":5296:5306  _msgSender */\n      tag_238\n        /* \"@openzeppelin/contracts-upgradeable/token/ERC20/ERC20Upgradeable.sol\":5296:5308  _msgSender() */\n      jump\t// in\n    tag_237:\n        /* \"@openzeppelin/contracts-upgradeable/token/ERC20/ERC20Upgradeable.sol\":5280:5308  address owner = _msgSender() */\n      swap1\n      pop\n        /* \"@openzeppelin/contracts-upgradeable/token/ERC20/ERC20Upgradeable.sol\":5318:5349  _approve(owner, spender, value) */\n      tag_239\n        /* \"@openzeppelin/contracts-upgradeable/token/ERC20/ERC20Upgradeable.sol\":5327:5332  owner */\n      dup2\n        /* \"@openzeppelin/contracts-upgradeable/token/ERC20/ERC20Upgradeable.sol\":5334:5341  spender */\n      dup6\n        /* \"@openzeppelin/contracts-upgradeable/token/ERC20/ERC20Upgradeable.sol\":5343:5348  value */\n      dup6\n        /* \"@openzeppelin/contracts-upgradeable/token/ERC20/ERC20Upgradeable.sol\":5318:5326  _approve */\n      tag_240\n        /* \"@openzeppelin/contracts-upgradeable/token/ERC20/ERC20Upgradeable.sol\":5318:5349  _approve(owner, spender, value) */\n      jump\t// in\n    tag_239:\n        /* \"@openzeppelin/contracts-upgradeable/token/ERC20/ERC20Upgradeable.sol\":5366:5370  true */\n      0x01\n        /* \"@openzeppelin/contracts-upgradeable/token/ERC20/ERC20Upgradeable.sol\":5359:5370  return true */\n      swap2\n      pop\n      pop\n        /* \"@openzeppelin/contracts-upgradeable/token/ERC20/ERC20Upgradeable.sol\":5191:5377  function approve(address spender, uint256 value) public virtual returns (bool) {... */\n      swap3\n      swap2\n      pop\n      pop\n      jump\t// out\n        /* \"@openzeppelin/contracts-upgradeable/token/ERC20/ERC20Upgradeable.sol\":3877:4029  function totalSupply() public view virtual returns (uint256) {... */\n    tag_69:\n        /* \"@openzeppelin/contracts-upgradeable/token/ERC20/ERC20Upgradeable.sol\":3929:3936  uint256 */\n      0x00\n        /* \"@openzeppelin/contracts-upgradeable/token/ERC20/ERC20Upgradeable.sol\":3948:3970  ERC20Storage storage $ */\n      0x00\n        /* \"@openzeppelin/contracts-upgradeable/token/ERC20/ERC20Upgradeable.sol\":3973:3991  _getERC20Storage() */\n      tag_242\n        /* \"@openzeppelin/contracts-upgradeable/token/ERC20/ERC20Upgradeable.sol\":3973:3989  _getERC20Storage */\n      tag_229\n        /* \"@openzeppelin/contracts-upgradeable/token/ERC20/ERC20Upgradeable.sol\":3973:3991  _getERC20Storage() */\n      jump\t// in\n    tag_242:\n        /* \"@openzeppelin/contracts-upgradeable/token/ERC20/ERC20Upgradeable.sol\":3948:3991  ERC20Storage storage $ = _getERC20Storage() */\n      swap1\n      pop\n        /* \"@openzeppelin/contracts-upgradeable/token/ERC20/ERC20Upgradeable.sol\":4008:4009  $ */\n      dup1\n        /* \"@openzeppelin/contracts-upgradeable/token/ERC20/ERC20Upgradeable.sol\":4008:4022  $._totalSupply */\n      0x02\n      add\n      sload\n        /* \"@openzeppelin/contracts-upgradeable/token/ERC20/ERC20Upgradeable.sol\":4001:4022  return $._totalSupply */\n      swap2\n      pop\n      pop\n        /* \"@openzeppelin/contracts-upgradeable/token/ERC20/ERC20Upgradeable.sol\":3877:4029  function totalSupply() public view virtual returns (uint256) {... */\n      swap1\n      jump\t// out\n        /* \"contracts/KFShares.sol\":3077:3388  function transferFrom(address from, address to, uint256 amount) public override returns (bool) {... */\n    tag_76:\n        /* \"contracts/KFShares.sol\":3166:3170  bool */\n      0x00\n        /* \"contracts/KFShares.sol\":3191:3202  whitelisted */\n      0x04\n        /* \"contracts/KFShares.sol\":3191:3206  whitelisted[to] */\n      0x00\n        /* \"contracts/KFShares.sol\":3203:3205  to */\n      dup5\n        /* \"contracts/KFShares.sol\":3191:3206  whitelisted[to] */\n      0xffffffffffffffffffffffffffffffffffffffff\n      and\n      0xffffffffffffffffffffffffffffffffffffffff\n      and\n      dup2\n      mstore\n      0x20\n      add\n      swap1\n      dup2\n      mstore\n      0x20\n      add\n      0x00\n      keccak256\n      0x00\n      swap1\n      sload\n      swap1\n      0x0100\n      exp\n      swap1\n      div\n      0xff\n      and\n        /* \"contracts/KFShares.sol\":3183:3235  require(whitelisted[to], \"Receiver not whitelisted\") */\n      tag_244\n      jumpi\n      mload(0x40)\n      0x08c379a000000000000000000000000000000000000000000000000000000000\n      dup2\n      mstore\n      0x04\n      add\n      tag_245\n      swap1\n      tag_246\n      jump\t// in\n    tag_245:\n      mload(0x40)\n      dup1\n      swap2\n      sub\n      swap1\n      revert\n    tag_244:\n        /* \"contracts/KFShares.sol\":3294:3300  amount */\n      dup2\n        /* \"contracts/KFShares.sol\":3272:3284  lockedShares */\n      0x03\n        /* \"contracts/KFShares.sol\":3272:3290  lockedShares[from] */\n      0x00\n        /* \"contracts/KFShares.sol\":3285:3289  from */\n      dup7\n        /* \"contracts/KFShares.sol\":3272:3290  lockedShares[from] */\n      0xffffffffffffffffffffffffffffffffffffffff\n      and\n      0xffffffffffffffffffffffffffffffffffffffff\n      and\n      dup2\n      mstore\n      0x20\n      add\n      swap1\n      dup2\n      mstore\n      0x20\n      add\n      0x00\n      keccak256\n      sload\n        /* \"contracts/KFShares.sol\":3254:3269  balanceOf(from) */\n      tag_247\n        /* \"contracts/KFShares.sol\":3264:3268  from */\n      dup7\n        /* \"contracts/KFShares.sol\":3254:3263  balanceOf */\n      tag_125\n        /* \"contracts/KFShares.sol\":3254:3269  balanceOf(from) */\n      jump\t// in\n    tag_247:\n        /* \"contracts/KFShares.sol\":3254:3290  balanceOf(from) - lockedShares[from] */\n      tag_248\n      swap2\n      swap1\n      tag_249\n      jump\t// in\n    tag_248:\n        /* \"contracts/KFShares.sol\":3254:3300  balanceOf(from) - lockedShares[from] >= amount */\n      lt\n      iszero\n        /* \"contracts/KFShares.sol\":3246:3326  require(balanceOf(from) - lockedShares[from] >= amount, \"Insufficient unlocked\") */\n      tag_250\n      jumpi\n      mload(0x40)\n      0x08c379a000000000000000000000000000000000000000000000000000000000\n      dup2\n      mstore\n      0x04\n      add\n      tag_251\n      swap1\n      tag_252\n      jump\t// in\n    tag_251:\n      mload(0x40)\n      dup1\n      swap2\n      sub\n      swap1\n      revert\n    tag_250:\n        /* \"contracts/KFShares.sol\":3344:3380  super.transferFrom(from, to, amount) */\n      tag_253\n        /* \"contracts/KFShares.sol\":3363:3367  from */\n      dup5\n        /* \"contracts/KFShares.sol\":3369:3371  to */\n      dup5\n        /* \"contracts/KFShares.sol\":3373:3379  amount */\n      dup5\n        /* \"contracts/KFShares.sol\":3344:3362  super.transferFrom */\n      tag_254\n        /* \"contracts/KFShares.sol\":3344:3380  super.transferFrom(from, to, amount) */\n      jump\t// in\n    tag_253:\n        /* \"contracts/KFShares.sol\":3337:3380  return super.transferFrom(from, to, amount) */\n      swap1\n      pop\n        /* \"contracts/KFShares.sol\":3077:3388  function transferFrom(address from, address to, uint256 amount) public override returns (bool) {... */\n      swap4\n      swap3\n      pop\n      pop\n      pop\n      jump\t// out\n        /* \"@openzeppelin/contracts-upgradeable/access/AccessControlUpgradeable.sol\":4759:4950  function getRoleAdmin(bytes32 role) public view virtual returns (bytes32) {... */\n    tag_82:\n        /* \"@openzeppelin/contracts-upgradeable/access/AccessControlUpgradeable.sol\":4824:4831  bytes32 */\n      0x00\n        /* \"@openzeppelin/contracts-upgradeable/access/AccessControlUpgradeable.sol\":4843:4873  AccessControlStorage storage $ */\n      0x00\n        /* \"@openzeppelin/contracts-upgradeable/access/AccessControlUpgradeable.sol\":4876:4902  _getAccessControlStorage() */\n      tag_256\n        /* \"@openzeppelin/contracts-upgradeable/access/AccessControlUpgradeable.sol\":4876:4900  _getAccessControlStorage */\n      tag_257\n        /* \"@openzeppelin/contracts-upgradeable/access/AccessControlUpgradeable.sol\":4876:4902  _getAccessControlStorage() */\n      jump\t// in\n    tag_256:\n        /* \"@openzeppelin/contracts-upgradeable/access/AccessControlUpgradeable.sol\":4843:4902  AccessControlStorage storage $ = _getAccessControlStorage() */\n      swap1\n      pop\n        /* \"@openzeppelin/contracts-upgradeable/access/AccessControlUpgradeable.sol\":4919:4920  $ */\n      dup1\n        /* \"@openzeppelin/contracts-upgradeable/access/AccessControlUpgradeable.sol\":4919:4927  $._roles */\n      0x00\n      add\n        /* \"@openzeppelin/contracts-upgradeable/access/AccessControlUpgradeable.sol\":4919:4933  $._roles[role] */\n      0x00\n        /* \"@openzeppelin/contracts-upgradeable/access/AccessControlUpgradeable.sol\":4928:4932  role */\n      dup5\n        /* \"@openzeppelin/contracts-upgradeable/access/AccessControlUpgradeable.sol\":4919:4933  $._roles[role] */\n      dup2\n      mstore\n      0x20\n      add\n      swap1\n      dup2\n      mstore\n      0x20\n      add\n      0x00\n      keccak256\n        /* \"@openzeppelin/contracts-upgradeable/access/AccessControlUpgradeable.sol\":4919:4943  $._roles[role].adminRole */\n      0x01\n      add\n      sload\n        /* \"@openzeppelin/contracts-upgradeable/access/AccessControlUpgradeable.sol\":4912:4943  return $._roles[role].adminRole */\n      swap2\n      pop\n      pop\n        /* \"@openzeppelin/contracts-upgradeable/access/AccessControlUpgradeable.sol\":4759:4950  function getRoleAdmin(bytes32 role) public view virtual returns (bytes32) {... */\n      swap2\n      swap1\n      pop\n      jump\t// out\n        /* \"@openzeppelin/contracts-upgradeable/access/AccessControlUpgradeable.sol\":5246:5382  function grantRole(bytes32 role, address account) public virtual onlyRole(getRoleAdmin(role)) {... */\n    tag_89:\n        /* \"@openzeppelin/contracts-upgradeable/access/AccessControlUpgradeable.sol\":5320:5338  getRoleAdmin(role) */\n      tag_258\n        /* \"@openzeppelin/contracts-upgradeable/access/AccessControlUpgradeable.sol\":5333:5337  role */\n      dup3\n        /* \"@openzeppelin/contracts-upgradeable/access/AccessControlUpgradeable.sol\":5320:5332  getRoleAdmin */\n      tag_82\n        /* \"@openzeppelin/contracts-upgradeable/access/AccessControlUpgradeable.sol\":5320:5338  getRoleAdmin(role) */\n      jump\t// in\n    tag_258:\n        /* \"@openzeppelin/contracts-upgradeable/access/AccessControlUpgradeable.sol\":3191:3207  _checkRole(role) */\n      tag_260\n        /* \"@openzeppelin/contracts-upgradeable/access/AccessControlUpgradeable.sol\":3202:3206  role */\n      dup2\n        /* \"@openzeppelin/contracts-upgradeable/access/AccessControlUpgradeable.sol\":3191:3201  _checkRole */\n      tag_223\n        /* \"@openzeppelin/contracts-upgradeable/access/AccessControlUpgradeable.sol\":3191:3207  _checkRole(role) */\n      jump\t// in\n    tag_260:\n        /* \"@openzeppelin/contracts-upgradeable/access/AccessControlUpgradeable.sol\":5350:5375  _grantRole(role, account) */\n      tag_262\n        /* \"@openzeppelin/contracts-upgradeable/access/AccessControlUpgradeable.sol\":5361:5365  role */\n      dup4\n        /* \"@openzeppelin/contracts-upgradeable/access/AccessControlUpgradeable.sol\":5367:5374  account */\n      dup4\n        /* \"@openzeppelin/contracts-upgradeable/access/AccessControlUpgradeable.sol\":5350:5360  _grantRole */\n      tag_263\n        /* \"@openzeppelin/contracts-upgradeable/access/AccessControlUpgradeable.sol\":5350:5375  _grantRole(role, account) */\n      jump\t// in\n    tag_262:\n      pop\n        /* \"@openzeppelin/contracts-upgradeable/access/AccessControlUpgradeable.sol\":5246:5382  function grantRole(bytes32 role, address account) public virtual onlyRole(getRoleAdmin(role)) {... */\n      pop\n      pop\n      pop\n      jump\t// out\n        /* \"@openzeppelin/contracts-upgradeable/token/ERC20/ERC20Upgradeable.sol\":3735:3817  function decimals() public view virtual returns (uint8) {... */\n    tag_92:\n        /* \"@openzeppelin/contracts-upgradeable/token/ERC20/ERC20Upgradeable.sol\":3784:3789  uint8 */\n      0x00\n        /* \"@openzeppelin/contracts-upgradeable/token/ERC20/ERC20Upgradeable.sol\":3808:3810  18 */\n      0x12\n        /* \"@openzeppelin/contracts-upgradeable/token/ERC20/ERC20Upgradeable.sol\":3801:3810  return 18 */\n      swap1\n      pop\n        /* \"@openzeppelin/contracts-upgradeable/token/ERC20/ERC20Upgradeable.sol\":3735:3817  function decimals() public view virtual returns (uint8) {... */\n      swap1\n      jump\t// out\n        /* \"@openzeppelin/contracts-upgradeable/access/AccessControlUpgradeable.sol\":6348:6593  function renounceRole(bytes32 role, address callerConfirmation) public virtual {... */\n    tag_98:\n        /* \"@openzeppelin/contracts-upgradeable/access/AccessControlUpgradeable.sol\":6463:6475  _msgSender() */\n      tag_266\n        /* \"@openzeppelin/contracts-upgradeable/access/AccessControlUpgradeable.sol\":6463:6473  _msgSender */\n      tag_238\n        /* \"@openzeppelin/contracts-upgradeable/access/AccessControlUpgradeable.sol\":6463:6475  _msgSender() */\n      jump\t// in\n    tag_266:\n        /* \"@openzeppelin/contracts-upgradeable/access/AccessControlUpgradeable.sol\":6441:6475  callerConfirmation != _msgSender() */\n      0xffffffffffffffffffffffffffffffffffffffff\n      and\n        /* \"@openzeppelin/contracts-upgradeable/access/AccessControlUpgradeable.sol\":6441:6459  callerConfirmation */\n      dup2\n        /* \"@openzeppelin/contracts-upgradeable/access/AccessControlUpgradeable.sol\":6441:6475  callerConfirmation != _msgSender() */\n      0xffffffffffffffffffffffffffffffffffffffff\n      and\n      eq\n        /* \"@openzeppelin/contracts-upgradeable/access/AccessControlUpgradeable.sol\":6437:6539  if (callerConfirmation != _msgSender()) {... */\n      tag_267\n      jumpi\n        /* \"@openzeppelin/contracts-upgradeable/access/AccessControlUpgradeable.sol\":6498:6528  AccessControlBadConfirmation() */\n      mload(0x40)\n      0x6697b23200000000000000000000000000000000000000000000000000000000\n      dup2\n      mstore\n      0x04\n      add\n      mload(0x40)\n      dup1\n      swap2\n      sub\n      swap1\n      revert\n        /* \"@openzeppelin/contracts-upgradeable/access/AccessControlUpgradeable.sol\":6437:6539  if (callerConfirmation != _msgSender()) {... */\n    tag_267:\n        /* \"@openzeppelin/contracts-upgradeable/access/AccessControlUpgradeable.sol\":6549:6586  _revokeRole(role, callerConfirmation) */\n      tag_268\n        /* \"@openzeppelin/contracts-upgradeable/access/AccessControlUpgradeable.sol\":6561:6565  role */\n      dup3\n        /* \"@openzeppelin/contracts-upgradeable/access/AccessControlUpgradeable.sol\":6567:6585  callerConfirmation */\n      dup3\n        /* \"@openzeppelin/contracts-upgradeable/access/AccessControlUpgradeable.sol\":6549:6560  _revokeRole */\n      tag_269\n        /* \"@openzeppelin/contracts-upgradeable/access/AccessControlUpgradeable.sol\":6549:6586  _revokeRole(role, callerConfirmation) */\n      jump\t// in\n    tag_268:\n      pop\n        /* \"@openzeppelin/contracts-upgradeable/access/AccessControlUpgradeable.sol\":6348:6593  function renounceRole(bytes32 role, address callerConfirmation) public virtual {... */\n      pop\n      pop\n      jump\t// out\n        /* \"contracts/KFShares.sol\":690:720  IAKSStablecoin public aksToken */\n    tag_101:\n      0x00\n      0x00\n      swap1\n      sload\n      swap1\n      0x0100\n      exp\n      swap1\n      div\n      0xffffffffffffffffffffffffffffffffffffffff\n      and\n      dup2\n      jump\t// out\n        /* \"contracts/KFShares.sol\":1828:1936  function mint(address to, uint256 amount) external onlyRole(PROXY_ROLE) {... */\n    tag_107:\n        /* \"contracts/KFShares.sol\":658:681  keccak256(\"PROXY_ROLE\") */\n      0x77d72916e966418e6dc58a19999ae9934bef3f749f1547cde0a86e809f19c89b\n        /* \"@openzeppelin/contracts-upgradeable/access/AccessControlUpgradeable.sol\":3191:3207  _checkRole(role) */\n      tag_271\n        /* \"@openzeppelin/contracts-upgradeable/access/AccessControlUpgradeable.sol\":3202:3206  role */\n      dup2\n        /* \"@openzeppelin/contracts-upgradeable/access/AccessControlUpgradeable.sol\":3191:3201  _checkRole */\n      tag_223\n        /* \"@openzeppelin/contracts-upgradeable/access/AccessControlUpgradeable.sol\":3191:3207  _checkRole(role) */\n      jump\t// in\n    tag_271:\n        /* \"contracts/KFShares.sol\":1911:1928  _mint(to, amount) */\n      tag_273\n        /* \"contracts/KFShares.sol\":1917:1919  to */\n      dup4\n        /* \"contracts/KFShares.sol\":1921:1927  amount */\n      dup4\n        /* \"contracts/KFShares.sol\":1911:1916  _mint */\n      tag_274\n        /* \"contracts/KFShares.sol\":1911:1928  _mint(to, amount) */\n      jump\t// in\n    tag_273:\n        /* \"contracts/KFShares.sol\":1828:1936  function mint(address to, uint256 amount) external onlyRole(PROXY_ROLE) {... */\n      pop\n      pop\n      pop\n      jump\t// out\n        /* \"contracts/KFShares.sol\":1944:2048  function burn(uint256 amount) external onlyRole(PROXY_ROLE) {... */\n    tag_112:\n        /* \"contracts/KFShares.sol\":658:681  keccak256(\"PROXY_ROLE\") */\n      0x77d72916e966418e6dc58a19999ae9934bef3f749f1547cde0a86e809f19c89b\n        /* \"@openzeppelin/contracts-upgradeable/access/AccessControlUpgradeable.sol\":3191:3207  _checkRole(role) */\n      tag_276\n        /* \"@openzeppelin/contracts-upgradeable/access/AccessControlUpgradeable.sol\":3202:3206  role */\n      dup2\n        /* \"@openzeppelin/contracts-upgradeable/access/AccessControlUpgradeable.sol\":3191:3201  _checkRole */\n      tag_223\n        /* \"@openzeppelin/contracts-upgradeable/access/AccessControlUpgradeable.sol\":3191:3207  _checkRole(role) */\n      jump\t// in\n    tag_276:\n        /* \"contracts/KFShares.sol\":2015:2040  _burn(msg.sender, amount) */\n      tag_278\n        /* \"contracts/KFShares.sol\":2021:2031  msg.sender */\n      caller\n        /* \"contracts/KFShares.sol\":2033:2039  amount */\n      dup4\n        /* \"contracts/KFShares.sol\":2015:2020  _burn */\n      tag_279\n        /* \"contracts/KFShares.sol\":2015:2040  _burn(msg.sender, amount) */\n      jump\t// in\n    tag_278:\n        /* \"contracts/KFShares.sol\":1944:2048  function burn(uint256 amount) external onlyRole(PROXY_ROLE) {... */\n      pop\n      pop\n      jump\t// out\n        /* \"@openzeppelin/contracts-upgradeable/proxy/utils/UUPSUpgradeable.sol\":4161:4375  function upgradeToAndCall(address newImplementation, bytes memory data) public payable virtual onlyProxy {... */\n    tag_116:\n        /* \"@openzeppelin/contracts-upgradeable/proxy/utils/UUPSUpgradeable.sol\":2655:2668  _checkProxy() */\n      tag_281\n        /* \"@openzeppelin/contracts-upgradeable/proxy/utils/UUPSUpgradeable.sol\":2655:2666  _checkProxy */\n      tag_282\n        /* \"@openzeppelin/contracts-upgradeable/proxy/utils/UUPSUpgradeable.sol\":2655:2668  _checkProxy() */\n      jump\t// in\n    tag_281:\n        /* \"@openzeppelin/contracts-upgradeable/proxy/utils/UUPSUpgradeable.sol\":4276:4312  _authorizeUpgrade(newImplementation) */\n      tag_284\n        /* \"@openzeppelin/contracts-upgradeable/proxy/utils/UUPSUpgradeable.sol\":4294:4311  newImplementation */\n      dup3\n        /* \"@openzeppelin/contracts-upgradeable/proxy/utils/UUPSUpgradeable.sol\":4276:4293  _authorizeUpgrade */\n      tag_285\n        /* \"@openzeppelin/contracts-upgradeable/proxy/utils/UUPSUpgradeable.sol\":4276:4312  _authorizeUpgrade(newImplementation) */\n      jump\t// in\n    tag_284:\n        /* \"@openzeppelin/contracts-upgradeable/proxy/utils/UUPSUpgradeable.sol\":4322:4368  _upgradeToAndCallUUPS(newImplementation, data) */\n      tag_286\n        /* \"@openzeppelin/contracts-upgradeable/proxy/utils/UUPSUpgradeable.sol\":4344:4361  newImplementation */\n      dup3\n        /* \"@openzeppelin/contracts-upgradeable/proxy/utils/UUPSUpgradeable.sol\":4363:4367  data */\n      dup3\n        /* \"@openzeppelin/contracts-upgradeable/proxy/utils/UUPSUpgradeable.sol\":4322:4343  _upgradeToAndCallUUPS */\n      tag_287\n        /* \"@openzeppelin/contracts-upgradeable/proxy/utils/UUPSUpgradeable.sol\":4322:4368  _upgradeToAndCallUUPS(newImplementation, data) */\n      jump\t// in\n    tag_286:\n        /* \"@openzeppelin/contracts-upgradeable/proxy/utils/UUPSUpgradeable.sol\":4161:4375  function upgradeToAndCall(address newImplementation, bytes memory data) public payable virtual onlyProxy {... */\n      pop\n      pop\n      jump\t// out\n        /* \"@openzeppelin/contracts-upgradeable/proxy/utils/UUPSUpgradeable.sol\":3708:3842  function proxiableUUID() external view virtual notDelegated returns (bytes32) {... */\n    tag_119:\n        /* \"@openzeppelin/contracts-upgradeable/proxy/utils/UUPSUpgradeable.sol\":3777:3784  bytes32 */\n      0x00\n        /* \"@openzeppelin/contracts-upgradeable/proxy/utils/UUPSUpgradeable.sol\":2926:2946  _checkNotDelegated() */\n      tag_289\n        /* \"@openzeppelin/contracts-upgradeable/proxy/utils/UUPSUpgradeable.sol\":2926:2944  _checkNotDelegated */\n      tag_290\n        /* \"@openzeppelin/contracts-upgradeable/proxy/utils/UUPSUpgradeable.sol\":2926:2946  _checkNotDelegated() */\n      jump\t// in\n    tag_289:\n        /* \"@openzeppelin/contracts/proxy/ERC1967/ERC1967Utils.sol\":811:877  0x360894a13ba1a3210667c828492db98dca3e2076cc3735a920a3ca505d382bbc */\n      0x360894a13ba1a3210667c828492db98dca3e2076cc3735a920a3ca505d382bbc\n        /* \"@openzeppelin/contracts-upgradeable/proxy/utils/UUPSUpgradeable.sol\":3803:3835  ERC1967Utils.IMPLEMENTATION_SLOT */\n      0x00\n      shl\n        /* \"@openzeppelin/contracts-upgradeable/proxy/utils/UUPSUpgradeable.sol\":3796:3835  return ERC1967Utils.IMPLEMENTATION_SLOT */\n      swap1\n      pop\n        /* \"@openzeppelin/contracts-upgradeable/proxy/utils/UUPSUpgradeable.sol\":3708:3842  function proxiableUUID() external view virtual notDelegated returns (bytes32) {... */\n      swap1\n      jump\t// out\n        /* \"@openzeppelin/contracts-upgradeable/token/ERC20/ERC20Upgradeable.sol\":4087:4258  function balanceOf(address account) public view virtual returns (uint256) {... */\n    tag_125:\n        /* \"@openzeppelin/contracts-upgradeable/token/ERC20/ERC20Upgradeable.sol\":4152:4159  uint256 */\n      0x00\n        /* \"@openzeppelin/contracts-upgradeable/token/ERC20/ERC20Upgradeable.sol\":4171:4193  ERC20Storage storage $ */\n      0x00\n        /* \"@openzeppelin/contracts-upgradeable/token/ERC20/ERC20Upgradeable.sol\":4196:4214  _getERC20Storage() */\n      tag_293\n        /* \"@openzeppelin/contracts-upgradeable/token/ERC20/ERC20Upgradeable.sol\":4196:4212  _getERC20Storage */\n      tag_229\n        /* \"@openzeppelin/contracts-upgradeable/token/ERC20/ERC20Upgradeable.sol\":4196:4214  _getERC20Storage() */\n      jump\t// in\n    tag_293:\n        /* \"@openzeppelin/contracts-upgradeable/token/ERC20/ERC20Upgradeable.sol\":4171:4214  ERC20Storage storage $ = _getERC20Storage() */\n      swap1\n      pop\n        /* \"@openzeppelin/contracts-upgradeable/token/ERC20/ERC20Upgradeable.sol\":4231:4232  $ */\n      dup1\n        /* \"@openzeppelin/contracts-upgradeable/token/ERC20/ERC20Upgradeable.sol\":4231:4242  $._balances */\n      0x00\n      add\n        /* \"@openzeppelin/contracts-upgradeable/token/ERC20/ERC20Upgradeable.sol\":4231:4251  $._balances[account] */\n      0x00\n        /* \"@openzeppelin/contracts-upgradeable/token/ERC20/ERC20Upgradeable.sol\":4243:4250  account */\n      dup5\n        /* \"@openzeppelin/contracts-upgradeable/token/ERC20/ERC20Upgradeable.sol\":4231:4251  $._balances[account] */\n      0xffffffffffffffffffffffffffffffffffffffff\n      and\n      0xffffffffffffffffffffffffffffffffffffffff\n      and\n      dup2\n      mstore\n      0x20\n      add\n      swap1\n      dup2\n      mstore\n      0x20\n      add\n      0x00\n      keccak256\n      sload\n        /* \"@openzeppelin/contracts-upgradeable/token/ERC20/ERC20Upgradeable.sol\":4224:4251  return $._balances[account] */\n      swap2\n      pop\n      pop\n        /* \"@openzeppelin/contracts-upgradeable/token/ERC20/ERC20Upgradeable.sol\":4087:4258  function balanceOf(address account) public view virtual returns (uint256) {... */\n      swap2\n      swap1\n      pop\n      jump\t// out\n        /* \"contracts/KFShares.sol\":2449:2580  function updatePricingModel(uint256 newBasePrice) external onlyRole(PROXY_ROLE) {... */\n    tag_130:\n        /* \"contracts/KFShares.sol\":658:681  keccak256(\"PROXY_ROLE\") */\n      0x77d72916e966418e6dc58a19999ae9934bef3f749f1547cde0a86e809f19c89b\n        /* \"@openzeppelin/contracts-upgradeable/access/AccessControlUpgradeable.sol\":3191:3207  _checkRole(role) */\n      tag_295\n        /* \"@openzeppelin/contracts-upgradeable/access/AccessControlUpgradeable.sol\":3202:3206  role */\n      dup2\n        /* \"@openzeppelin/contracts-upgradeable/access/AccessControlUpgradeable.sol\":3191:3201  _checkRole */\n      tag_223\n        /* \"@openzeppelin/contracts-upgradeable/access/AccessControlUpgradeable.sol\":3191:3207  _checkRole(role) */\n      jump\t// in\n    tag_295:\n        /* \"contracts/KFShares.sol\":2560:2572  newBasePrice */\n      dup2\n        /* \"contracts/KFShares.sol\":2540:2557  basePricePerShare */\n      0x02\n        /* \"contracts/KFShares.sol\":2540:2572  basePricePerShare = newBasePrice */\n      dup2\n      swap1\n      sstore\n      pop\n        /* \"contracts/KFShares.sol\":2449:2580  function updatePricingModel(uint256 newBasePrice) external onlyRole(PROXY_ROLE) {... */\n      pop\n      pop\n      jump\t// out\n        /* \"contracts/KFShares.sol\":727:760  ITokensBridge public tokensBridge */\n    tag_133:\n      0x01\n      0x00\n      swap1\n      sload\n      swap1\n      0x0100\n      exp\n      swap1\n      div\n      0xffffffffffffffffffffffffffffffffffffffff\n      and\n      dup2\n      jump\t// out\n        /* \"@openzeppelin/contracts-upgradeable/access/AccessControlUpgradeable.sol\":3732:3939  function hasRole(bytes32 role, address account) public view virtual returns (bool) {... */\n    tag_139:\n        /* \"@openzeppelin/contracts-upgradeable/access/AccessControlUpgradeable.sol\":3809:3813  bool */\n      0x00\n        /* \"@openzeppelin/contracts-upgradeable/access/AccessControlUpgradeable.sol\":3825:3855  AccessControlStorage storage $ */\n      0x00\n        /* \"@openzeppelin/contracts-upgradeable/access/AccessControlUpgradeable.sol\":3858:3884  _getAccessControlStorage() */\n      tag_298\n        /* \"@openzeppelin/contracts-upgradeable/access/AccessControlUpgradeable.sol\":3858:3882  _getAccessControlStorage */\n      tag_257\n        /* \"@openzeppelin/contracts-upgradeable/access/AccessControlUpgradeable.sol\":3858:3884  _getAccessControlStorage() */\n      jump\t// in\n    tag_298:\n        /* \"@openzeppelin/contracts-upgradeable/access/AccessControlUpgradeable.sol\":3825:3884  AccessControlStorage storage $ = _getAccessControlStorage() */\n      swap1\n      pop\n        /* \"@openzeppelin/contracts-upgradeable/access/AccessControlUpgradeable.sol\":3901:3902  $ */\n      dup1\n        /* \"@openzeppelin/contracts-upgradeable/access/AccessControlUpgradeable.sol\":3901:3909  $._roles */\n      0x00\n      add\n        /* \"@openzeppelin/contracts-upgradeable/access/AccessControlUpgradeable.sol\":3901:3915  $._roles[role] */\n      0x00\n        /* \"@openzeppelin/contracts-upgradeable/access/AccessControlUpgradeable.sol\":3910:3914  role */\n      dup6\n        /* \"@openzeppelin/contracts-upgradeable/access/AccessControlUpgradeable.sol\":3901:3915  $._roles[role] */\n      dup2\n      mstore\n      0x20\n      add\n      swap1\n      dup2\n      mstore\n      0x20\n      add\n      0x00\n      keccak256\n        /* \"@openzeppelin/contracts-upgradeable/access/AccessControlUpgradeable.sol\":3901:3923  $._roles[role].hasRole */\n      0x00\n      add\n        /* \"@openzeppelin/contracts-upgradeable/access/AccessControlUpgradeable.sol\":3901:3932  $._roles[role].hasRole[account] */\n      0x00\n        /* \"@openzeppelin/contracts-upgradeable/access/AccessControlUpgradeable.sol\":3924:3931  account */\n      dup5\n        /* \"@openzeppelin/contracts-upgradeable/access/AccessControlUpgradeable.sol\":3901:3932  $._roles[role].hasRole[account] */\n      0xffffffffffffffffffffffffffffffffffffffff\n      and\n      0xffffffffffffffffffffffffffffffffffffffff\n      and\n      dup2\n      mstore\n      0x20\n      add\n      swap1\n      dup2\n      mstore\n      0x20\n      add\n      0x00\n      keccak256\n      0x00\n      swap1\n      sload\n      swap1\n      0x0100\n      exp\n      swap1\n      div\n      0xff\n      and\n        /* \"@openzeppelin/contracts-upgradeable/access/AccessControlUpgradeable.sol\":3894:3932  return $._roles[role].hasRole[account] */\n      swap2\n      pop\n      pop\n        /* \"@openzeppelin/contracts-upgradeable/access/AccessControlUpgradeable.sol\":3732:3939  function hasRole(bytes32 role, address account) public view virtual returns (bool) {... */\n      swap3\n      swap2\n      pop\n      pop\n      jump\t// out\n        /* \"contracts/KFShares.sol\":4034:4174  function setWhitelisted(address account, bool status) external onlyRole(DEFAULT_ADMIN_ROLE) {... */\n    tag_145:\n        /* \"@openzeppelin/contracts-upgradeable/access/AccessControlUpgradeable.sol\":2362:2366  0x00 */\n      0x00\n        /* \"contracts/KFShares.sol\":4106:4124  DEFAULT_ADMIN_ROLE */\n      0x00\n      shl\n        /* \"@openzeppelin/contracts-upgradeable/access/AccessControlUpgradeable.sol\":3191:3207  _checkRole(role) */\n      tag_300\n        /* \"@openzeppelin/contracts-upgradeable/access/AccessControlUpgradeable.sol\":3202:3206  role */\n      dup2\n        /* \"@openzeppelin/contracts-upgradeable/access/AccessControlUpgradeable.sol\":3191:3201  _checkRole */\n      tag_223\n        /* \"@openzeppelin/contracts-upgradeable/access/AccessControlUpgradeable.sol\":3191:3207  _checkRole(role) */\n      jump\t// in\n    tag_300:\n        /* \"contracts/KFShares.sol\":4160:4166  status */\n      dup2\n        /* \"contracts/KFShares.sol\":4137:4148  whitelisted */\n      0x04\n        /* \"contracts/KFShares.sol\":4137:4157  whitelisted[account] */\n      0x00\n        /* \"contracts/KFShares.sol\":4149:4156  account */\n      dup6\n        /* \"contracts/KFShares.sol\":4137:4157  whitelisted[account] */\n      0xffffffffffffffffffffffffffffffffffffffff\n      and\n      0xffffffffffffffffffffffffffffffffffffffff\n      and\n      dup2\n      mstore\n      0x20\n      add\n      swap1\n      dup2\n      mstore\n      0x20\n      add\n      0x00\n      keccak256\n      0x00\n        /* \"contracts/KFShares.sol\":4137:4166  whitelisted[account] = status */\n      0x0100\n      exp\n      dup2\n      sload\n      dup2\n      0xff\n      mul\n      not\n      and\n      swap1\n      dup4\n      iszero\n      iszero\n      mul\n      or\n      swap1\n      sstore\n      pop\n        /* \"contracts/KFShares.sol\":4034:4174  function setWhitelisted(address account, bool status) external onlyRole(DEFAULT_ADMIN_ROLE) {... */\n      pop\n      pop\n      pop\n      jump\t// out\n        /* \"@openzeppelin/contracts-upgradeable/token/ERC20/ERC20Upgradeable.sol\":2954:3102  function symbol() public view virtual returns (string memory) {... */\n    tag_148:\n        /* \"@openzeppelin/contracts-upgradeable/token/ERC20/ERC20Upgradeable.sol\":3001:3014  string memory */\n      0x60\n        /* \"@openzeppelin/contracts-upgradeable/token/ERC20/ERC20Upgradeable.sol\":3026:3048  ERC20Storage storage $ */\n      0x00\n        /* \"@openzeppelin/contracts-upgradeable/token/ERC20/ERC20Upgradeable.sol\":3051:3069  _getERC20Storage() */\n      tag_303\n        /* \"@openzeppelin/contracts-upgradeable/token/ERC20/ERC20Upgradeable.sol\":3051:3067  _getERC20Storage */\n      tag_229\n        /* \"@openzeppelin/contracts-upgradeable/token/ERC20/ERC20Upgradeable.sol\":3051:3069  _getERC20Storage() */\n      jump\t// in\n    tag_303:\n        /* \"@openzeppelin/contracts-upgradeable/token/ERC20/ERC20Upgradeable.sol\":3026:3069  ERC20Storage storage $ = _getERC20Storage() */\n      swap1\n      pop\n        /* \"@openzeppelin/contracts-upgradeable/token/ERC20/ERC20Upgradeable.sol\":3086:3087  $ */\n      dup1\n        /* \"@openzeppelin/contracts-upgradeable/token/ERC20/ERC20Upgradeable.sol\":3086:3095  $._symbol */\n      0x04\n      add\n        /* \"@openzeppelin/contracts-upgradeable/token/ERC20/ERC20Upgradeable.sol\":3079:3095  return $._symbol */\n      dup1\n      sload\n      tag_304\n      swap1\n      tag_231\n      jump\t// in\n    tag_304:\n      dup1\n      0x1f\n      add\n      0x20\n      dup1\n      swap2\n      div\n      mul\n      0x20\n      add\n      mload(0x40)\n      swap1\n      dup2\n      add\n      0x40\n      mstore\n      dup1\n      swap3\n      swap2\n      swap1\n      dup2\n      dup2\n      mstore\n      0x20\n      add\n      dup3\n      dup1\n      sload\n      tag_305\n      swap1\n      tag_231\n      jump\t// in\n    tag_305:\n      dup1\n      iszero\n      tag_306\n      jumpi\n      dup1\n      0x1f\n      lt\n      tag_307\n      jumpi\n      0x0100\n      dup1\n      dup4\n      sload\n      div\n      mul\n      dup4\n      mstore\n      swap2\n      0x20\n      add\n      swap2\n      jump(tag_306)\n    tag_307:\n      dup3\n      add\n      swap2\n      swap1\n      0x00\n      mstore\n      keccak256(0x00, 0x20)\n      swap1\n    tag_308:\n      dup2\n      sload\n      dup2\n      mstore\n      swap1\n      0x01\n      add\n      swap1\n      0x20\n      add\n      dup1\n      dup4\n      gt\n      tag_308\n      jumpi\n      dup3\n      swap1\n      sub\n      0x1f\n      and\n      dup3\n      add\n      swap2\n    tag_306:\n      pop\n      pop\n      pop\n      pop\n      pop\n      swap2\n      pop\n      pop\n        /* \"@openzeppelin/contracts-upgradeable/token/ERC20/ERC20Upgradeable.sol\":2954:3102  function symbol() public view virtual returns (string memory) {... */\n      swap1\n      jump\t// out\n        /* \"contracts/KFShares.sol\":3459:3997  function transferCrossChain(... */\n    tag_153:\n        /* \"contracts/KFShares.sol\":3624:3635  whitelisted */\n      0x04\n        /* \"contracts/KFShares.sol\":3624:3645  whitelisted[receiver] */\n      0x00\n        /* \"contracts/KFShares.sol\":3636:3644  receiver */\n      dup4\n        /* \"contracts/KFShares.sol\":3624:3645  whitelisted[receiver] */\n      0xffffffffffffffffffffffffffffffffffffffff\n      and\n      0xffffffffffffffffffffffffffffffffffffffff\n      and\n      dup2\n      mstore\n      0x20\n      add\n      swap1\n      dup2\n      mstore\n      0x20\n      add\n      0x00\n      keccak256\n      0x00\n      swap1\n      sload\n      swap1\n      0x0100\n      exp\n      swap1\n      div\n      0xff\n      and\n        /* \"contracts/KFShares.sol\":3616:3686  require(whitelisted[receiver], \"Cross-chain receiver not whitelisted\") */\n      tag_310\n      jumpi\n      mload(0x40)\n      0x08c379a000000000000000000000000000000000000000000000000000000000\n      dup2\n      mstore\n      0x04\n      add\n      tag_311\n      swap1\n      tag_312\n      jump\t// in\n    tag_311:\n      mload(0x40)\n      dup1\n      swap2\n      sub\n      swap1\n      revert\n    tag_310:\n        /* \"contracts/KFShares.sol\":3757:3763  amount */\n      dup1\n        /* \"contracts/KFShares.sol\":3729:3741  lockedShares */\n      0x03\n        /* \"contracts/KFShares.sol\":3729:3753  lockedShares[msg.sender] */\n      0x00\n        /* \"contracts/KFShares.sol\":3742:3752  msg.sender */\n      caller\n        /* \"contracts/KFShares.sol\":3729:3753  lockedShares[msg.sender] */\n      0xffffffffffffffffffffffffffffffffffffffff\n      and\n      0xffffffffffffffffffffffffffffffffffffffff\n      and\n      dup2\n      mstore\n      0x20\n      add\n      swap1\n      dup2\n      mstore\n      0x20\n      add\n      0x00\n      keccak256\n      sload\n        /* \"contracts/KFShares.sol\":3705:3726  balanceOf(msg.sender) */\n      tag_313\n        /* \"contracts/KFShares.sol\":3715:3725  msg.sender */\n      caller\n        /* \"contracts/KFShares.sol\":3705:3714  balanceOf */\n      tag_125\n        /* \"contracts/KFShares.sol\":3705:3726  balanceOf(msg.sender) */\n      jump\t// in\n    tag_313:\n        /* \"contracts/KFShares.sol\":3705:3753  balanceOf(msg.sender) - lockedShares[msg.sender] */\n      tag_314\n      swap2\n      swap1\n      tag_249\n      jump\t// in\n    tag_314:\n        /* \"contracts/KFShares.sol\":3705:3763  balanceOf(msg.sender) - lockedShares[msg.sender] >= amount */\n      lt\n      iszero\n        /* \"contracts/KFShares.sol\":3697:3789  require(balanceOf(msg.sender) - lockedShares[msg.sender] >= amount, \"Insufficient unlocked\") */\n      tag_315\n      jumpi\n      mload(0x40)\n      0x08c379a000000000000000000000000000000000000000000000000000000000\n      dup2\n      mstore\n      0x04\n      add\n      tag_316\n      swap1\n      tag_252\n      jump\t// in\n    tag_316:\n      mload(0x40)\n      dup1\n      swap2\n      sub\n      swap1\n      revert\n    tag_315:\n        /* \"contracts/KFShares.sol\":3802:3846  _transfer(msg.sender, address(this), amount) */\n      tag_317\n        /* \"contracts/KFShares.sol\":3812:3822  msg.sender */\n      caller\n        /* \"contracts/KFShares.sol\":3832:3836  this */\n      address\n        /* \"contracts/KFShares.sol\":3839:3845  amount */\n      dup4\n        /* \"contracts/KFShares.sol\":3802:3811  _transfer */\n      tag_318\n        /* \"contracts/KFShares.sol\":3802:3846  _transfer(msg.sender, address(this), amount) */\n      jump\t// in\n    tag_317:\n        /* \"contracts/KFShares.sol\":3888:3894  amount */\n      dup1\n        /* \"contracts/KFShares.sol\":3857:3869  lockedShares */\n      0x03\n        /* \"contracts/KFShares.sol\":3857:3884  lockedShares[address(this)] */\n      0x00\n        /* \"contracts/KFShares.sol\":3878:3882  this */\n      address\n        /* \"contracts/KFShares.sol\":3857:3884  lockedShares[address(this)] */\n      0xffffffffffffffffffffffffffffffffffffffff\n      and\n      0xffffffffffffffffffffffffffffffffffffffff\n      and\n      dup2\n      mstore\n      0x20\n      add\n      swap1\n      dup2\n      mstore\n      0x20\n      add\n      0x00\n      keccak256\n      0x00\n        /* \"contracts/KFShares.sol\":3857:3894  lockedShares[address(this)] += amount */\n      dup3\n      dup3\n      sload\n      tag_319\n      swap2\n      swap1\n      tag_226\n      jump\t// in\n    tag_319:\n      swap3\n      pop\n      pop\n      dup2\n      swap1\n      sstore\n      pop\n        /* \"contracts/KFShares.sol\":3907:3919  tokensBridge */\n      0x01\n      0x00\n      swap1\n      sload\n      swap1\n      0x0100\n      exp\n      swap1\n      div\n      0xffffffffffffffffffffffffffffffffffffffff\n      and\n        /* \"contracts/KFShares.sol\":3907:3927  tokensBridge.sendKFS */\n      0xffffffffffffffffffffffffffffffffffffffff\n      and\n      0x01ee5b22\n        /* \"contracts/KFShares.sol\":3935:3944  msg.value */\n      callvalue\n        /* \"contracts/KFShares.sol\":3946:3970  destinationChainSelector */\n      dup6\n        /* \"contracts/KFShares.sol\":3972:3980  receiver */\n      dup6\n        /* \"contracts/KFShares.sol\":3982:3988  amount */\n      dup6\n        /* \"contracts/KFShares.sol\":3907:3989  tokensBridge.sendKFS{value: msg.value}(destinationChainSelector, receiver, amount) */\n      mload(0x40)\n      dup6\n      0xffffffff\n      and\n      0xe0\n      shl\n      dup2\n      mstore\n      0x04\n      add\n      tag_320\n      swap4\n      swap3\n      swap2\n      swap1\n      tag_321\n      jump\t// in\n    tag_320:\n      0x00\n      mload(0x40)\n      dup1\n      dup4\n      sub\n      dup2\n      dup6\n      dup9\n      dup1\n      extcodesize\n      iszero\n      dup1\n      iszero\n      tag_322\n      jumpi\n      revert(0x00, 0x00)\n    tag_322:\n      pop\n      gas\n      call\n      iszero\n      dup1\n      iszero\n      tag_324\n      jumpi\n      returndatacopy(0x00, 0x00, returndatasize)\n      revert(0x00, returndatasize)\n    tag_324:\n      pop\n      pop\n      pop\n      pop\n      pop\n        /* \"contracts/KFShares.sol\":3459:3997  function transferCrossChain(... */\n      pop\n      pop\n      pop\n      jump\t// out\n        /* \"@openzeppelin/contracts-upgradeable/access/AccessControlUpgradeable.sol\":2317:2366  bytes32 public constant DEFAULT_ADMIN_ROLE = 0x00 */\n    tag_156:\n        /* \"@openzeppelin/contracts-upgradeable/access/AccessControlUpgradeable.sol\":2362:2366  0x00 */\n      0x00\n        /* \"@openzeppelin/contracts-upgradeable/access/AccessControlUpgradeable.sol\":2317:2366  bytes32 public constant DEFAULT_ADMIN_ROLE = 0x00 */\n      0x00\n      shl\n      dup2\n      jump\t// out\n        /* \"contracts/KFShares.sol\":2774:3069  function transfer(address to, uint256 amount) public override returns (bool) {... */\n    tag_161:\n        /* \"contracts/KFShares.sol\":2845:2849  bool */\n      0x00\n        /* \"contracts/KFShares.sol\":2870:2881  whitelisted */\n      0x04\n        /* \"contracts/KFShares.sol\":2870:2885  whitelisted[to] */\n      0x00\n        /* \"contracts/KFShares.sol\":2882:2884  to */\n      dup5\n        /* \"contracts/KFShares.sol\":2870:2885  whitelisted[to] */\n      0xffffffffffffffffffffffffffffffffffffffff\n      and\n      0xffffffffffffffffffffffffffffffffffffffff\n      and\n      dup2\n      mstore\n      0x20\n      add\n      swap1\n      dup2\n      mstore\n      0x20\n      add\n      0x00\n      keccak256\n      0x00\n      swap1\n      sload\n      swap1\n      0x0100\n      exp\n      swap1\n      div\n      0xff\n      and\n        /* \"contracts/KFShares.sol\":2862:2914  require(whitelisted[to], \"Receiver not whitelisted\") */\n      tag_326\n      jumpi\n      mload(0x40)\n      0x08c379a000000000000000000000000000000000000000000000000000000000\n      dup2\n      mstore\n      0x04\n      add\n      tag_327\n      swap1\n      tag_246\n      jump\t// in\n    tag_327:\n      mload(0x40)\n      dup1\n      swap2\n      sub\n      swap1\n      revert\n    tag_326:\n        /* \"contracts/KFShares.sol\":2985:2991  amount */\n      dup2\n        /* \"contracts/KFShares.sol\":2957:2969  lockedShares */\n      0x03\n        /* \"contracts/KFShares.sol\":2957:2981  lockedShares[msg.sender] */\n      0x00\n        /* \"contracts/KFShares.sol\":2970:2980  msg.sender */\n      caller\n        /* \"contracts/KFShares.sol\":2957:2981  lockedShares[msg.sender] */\n      0xffffffffffffffffffffffffffffffffffffffff\n      and\n      0xffffffffffffffffffffffffffffffffffffffff\n      and\n      dup2\n      mstore\n      0x20\n      add\n      swap1\n      dup2\n      mstore\n      0x20\n      add\n      0x00\n      keccak256\n      sload\n        /* \"contracts/KFShares.sol\":2933:2954  balanceOf(msg.sender) */\n      tag_328\n        /* \"contracts/KFShares.sol\":2943:2953  msg.sender */\n      caller\n        /* \"contracts/KFShares.sol\":2933:2942  balanceOf */\n      tag_125\n        /* \"contracts/KFShares.sol\":2933:2954  balanceOf(msg.sender) */\n      jump\t// in\n    tag_328:\n        /* \"contracts/KFShares.sol\":2933:2981  balanceOf(msg.sender) - lockedShares[msg.sender] */\n      tag_329\n      swap2\n      swap1\n      tag_249\n      jump\t// in\n    tag_329:\n        /* \"contracts/KFShares.sol\":2933:2991  balanceOf(msg.sender) - lockedShares[msg.sender] >= amount */\n      lt\n      iszero\n        /* \"contracts/KFShares.sol\":2925:3017  require(balanceOf(msg.sender) - lockedShares[msg.sender] >= amount, \"Insufficient unlocked\") */\n      tag_330\n      jumpi\n      mload(0x40)\n      0x08c379a000000000000000000000000000000000000000000000000000000000\n      dup2\n      mstore\n      0x04\n      add\n      tag_331\n      swap1\n      tag_252\n      jump\t// in\n    tag_331:\n      mload(0x40)\n      dup1\n      swap2\n      sub\n      swap1\n      revert\n    tag_330:\n        /* \"contracts/KFShares.sol\":3035:3061  super.transfer(to, amount) */\n      tag_332\n        /* \"contracts/KFShares.sol\":3050:3052  to */\n      dup4\n        /* \"contracts/KFShares.sol\":3054:3060  amount */\n      dup4\n        /* \"contracts/KFShares.sol\":3035:3049  super.transfer */\n      tag_333\n        /* \"contracts/KFShares.sol\":3035:3061  super.transfer(to, amount) */\n      jump\t// in\n    tag_332:\n        /* \"contracts/KFShares.sol\":3028:3061  return super.transfer(to, amount) */\n      swap1\n      pop\n        /* \"contracts/KFShares.sol\":2774:3069  function transfer(address to, uint256 amount) public override returns (bool) {... */\n      swap3\n      swap2\n      pop\n      pop\n      jump\t// out\n        /* \"@openzeppelin/contracts-upgradeable/proxy/utils/UUPSUpgradeable.sol\":1819:1877  string public constant UPGRADE_INTERFACE_VERSION = \"5.0.0\" */\n    tag_165:\n      mload(0x40)\n      dup1\n      0x40\n      add\n      0x40\n      mstore\n      dup1\n      0x05\n      dup2\n      mstore\n      0x20\n      add\n      0x352e302e30000000000000000000000000000000000000000000000000000000\n      dup2\n      mstore\n      pop\n      dup2\n      jump\t// out\n        /* \"contracts/KFShares.sol\":2328:2441  function unlockShares(address account) external onlyRole(PROXY_ROLE) {... */\n    tag_170:\n        /* \"contracts/KFShares.sol\":658:681  keccak256(\"PROXY_ROLE\") */\n      0x77d72916e966418e6dc58a19999ae9934bef3f749f1547cde0a86e809f19c89b\n        /* \"@openzeppelin/contracts-upgradeable/access/AccessControlUpgradeable.sol\":3191:3207  _checkRole(role) */\n      tag_335\n        /* \"@openzeppelin/contracts-upgradeable/access/AccessControlUpgradeable.sol\":3202:3206  role */\n      dup2\n        /* \"@openzeppelin/contracts-upgradeable/access/AccessControlUpgradeable.sol\":3191:3201  _checkRole */\n      tag_223\n        /* \"@openzeppelin/contracts-upgradeable/access/AccessControlUpgradeable.sol\":3191:3207  _checkRole(role) */\n      jump\t// in\n    tag_335:\n        /* \"contracts/KFShares.sol\":2432:2433  0 */\n      0x00\n        /* \"contracts/KFShares.sol\":2408:2420  lockedShares */\n      0x03\n        /* \"contracts/KFShares.sol\":2408:2429  lockedShares[account] */\n      0x00\n        /* \"contracts/KFShares.sol\":2421:2428  account */\n      dup5\n        /* \"contracts/KFShares.sol\":2408:2429  lockedShares[account] */\n      0xffffffffffffffffffffffffffffffffffffffff\n      and\n      0xffffffffffffffffffffffffffffffffffffffff\n      and\n      dup2\n      mstore\n      0x20\n      add\n      swap1\n      dup2\n      mstore\n      0x20\n      add\n      0x00\n      keccak256\n        /* \"contracts/KFShares.sol\":2408:2433  lockedShares[account] = 0 */\n      dup2\n      swap1\n      sstore\n      pop\n        /* \"contracts/KFShares.sol\":2328:2441  function unlockShares(address account) external onlyRole(PROXY_ROLE) {... */\n      pop\n      pop\n      jump\t// out\n        /* \"contracts/KFShares.sol\":2588:2713  function getCurrentPrice(uint256 shares) external view returns (uint256) {... */\n    tag_174:\n        /* \"contracts/KFShares.sol\":2652:2659  uint256 */\n      0x00\n        /* \"contracts/KFShares.sol\":2688:2705  basePricePerShare */\n      sload(0x02)\n        /* \"contracts/KFShares.sol\":2679:2685  shares */\n      dup3\n        /* \"contracts/KFShares.sol\":2679:2705  shares * basePricePerShare */\n      tag_338\n      swap2\n      swap1\n      tag_339\n      jump\t// in\n    tag_338:\n        /* \"contracts/KFShares.sol\":2672:2705  return shares * basePricePerShare */\n      swap1\n      pop\n        /* \"contracts/KFShares.sol\":2588:2713  function getCurrentPrice(uint256 shares) external view returns (uint256) {... */\n      swap2\n      swap1\n      pop\n      jump\t// out\n        /* \"@openzeppelin/contracts-upgradeable/access/AccessControlUpgradeable.sol\":5662:5800  function revokeRole(bytes32 role, address account) public virtual onlyRole(getRoleAdmin(role)) {... */\n    tag_179:\n        /* \"@openzeppelin/contracts-upgradeable/access/AccessControlUpgradeable.sol\":5737:5755  getRoleAdmin(role) */\n      tag_340\n        /* \"@openzeppelin/contracts-upgradeable/access/AccessControlUpgradeable.sol\":5750:5754  role */\n      dup3\n        /* \"@openzeppelin/contracts-upgradeable/access/AccessControlUpgradeable.sol\":5737:5749  getRoleAdmin */\n      tag_82\n        /* \"@openzeppelin/contracts-upgradeable/access/AccessControlUpgradeable.sol\":5737:5755  getRoleAdmin(role) */\n      jump\t// in\n    tag_340:\n        /* \"@openzeppelin/contracts-upgradeable/access/AccessControlUpgradeable.sol\":3191:3207  _checkRole(role) */\n      tag_342\n        /* \"@openzeppelin/contracts-upgradeable/access/AccessControlUpgradeable.sol\":3202:3206  role */\n      dup2\n        /* \"@openzeppelin/contracts-upgradeable/access/AccessControlUpgradeable.sol\":3191:3201  _checkRole */\n      tag_223\n        /* \"@openzeppelin/contracts-upgradeable/access/AccessControlUpgradeable.sol\":3191:3207  _checkRole(role) */\n      jump\t// in\n    tag_342:\n        /* \"@openzeppelin/contracts-upgradeable/access/AccessControlUpgradeable.sol\":5767:5793  _revokeRole(role, account) */\n      tag_344\n        /* \"@openzeppelin/contracts-upgradeable/access/AccessControlUpgradeable.sol\":5779:5783  role */\n      dup4\n        /* \"@openzeppelin/contracts-upgradeable/access/AccessControlUpgradeable.sol\":5785:5792  account */\n      dup4\n        /* \"@openzeppelin/contracts-upgradeable/access/AccessControlUpgradeable.sol\":5767:5778  _revokeRole */\n      tag_269\n        /* \"@openzeppelin/contracts-upgradeable/access/AccessControlUpgradeable.sol\":5767:5793  _revokeRole(role, account) */\n      jump\t// in\n    tag_344:\n      pop\n        /* \"@openzeppelin/contracts-upgradeable/access/AccessControlUpgradeable.sol\":5662:5800  function revokeRole(bytes32 role, address account) public virtual onlyRole(getRoleAdmin(role)) {... */\n      pop\n      pop\n      pop\n      jump\t// out\n        /* \"contracts/KFShares.sol\":872:915  mapping(address => bool) public whitelisted */\n    tag_183:\n      mstore(0x20, 0x04)\n      dup1\n      0x00\n      mstore\n      keccak256(0x00, 0x40)\n      0x00\n      swap2\n      pop\n      sload\n      swap1\n      0x0100\n      exp\n      swap1\n      div\n      0xff\n      and\n      dup2\n      jump\t// out\n        /* \"@openzeppelin/contracts-upgradeable/token/ERC20/ERC20Upgradeable.sol\":4689:4884  function allowance(address owner, address spender) public view virtual returns (uint256) {... */\n    tag_189:\n        /* \"@openzeppelin/contracts-upgradeable/token/ERC20/ERC20Upgradeable.sol\":4769:4776  uint256 */\n      0x00\n        /* \"@openzeppelin/contracts-upgradeable/token/ERC20/ERC20Upgradeable.sol\":4788:4810  ERC20Storage storage $ */\n      0x00\n        /* \"@openzeppelin/contracts-upgradeable/token/ERC20/ERC20Upgradeable.sol\":4813:4831  _getERC20Storage() */\n      tag_346\n        /* \"@openzeppelin/contracts-upgradeable/token/ERC20/ERC20Upgradeable.sol\":4813:4829  _getERC20Storage */\n      tag_229\n        /* \"@openzeppelin/contracts-upgradeable/token/ERC20/ERC20Upgradeable.sol\":4813:4831  _getERC20Storage() */\n      jump\t// in\n    tag_346:\n        /* \"@openzeppelin/contracts-upgradeable/token/ERC20/ERC20Upgradeable.sol\":4788:4831  ERC20Storage storage $ = _getERC20Storage() */\n      swap1\n      pop\n        /* \"@openzeppelin/contracts-upgradeable/token/ERC20/ERC20Upgradeable.sol\":4848:4849  $ */\n      dup1\n        /* \"@openzeppelin/contracts-upgradeable/token/ERC20/ERC20Upgradeable.sol\":4848:4861  $._allowances */\n      0x01\n      add\n        /* \"@openzeppelin/contracts-upgradeable/token/ERC20/ERC20Upgradeable.sol\":4848:4868  $._allowances[owner] */\n      0x00\n        /* \"@openzeppelin/contracts-upgradeable/token/ERC20/ERC20Upgradeable.sol\":4862:4867  owner */\n      dup6\n        /* \"@openzeppelin/contracts-upgradeable/token/ERC20/ERC20Upgradeable.sol\":4848:4868  $._allowances[owner] */\n      0xffffffffffffffffffffffffffffffffffffffff\n      and\n      0xffffffffffffffffffffffffffffffffffffffff\n      and\n      dup2\n      mstore\n      0x20\n      add\n      swap1\n      dup2\n      mstore\n      0x20\n      add\n      0x00\n      keccak256\n        /* \"@openzeppelin/contracts-upgradeable/token/ERC20/ERC20Upgradeable.sol\":4848:4877  $._allowances[owner][spender] */\n      0x00\n        /* \"@openzeppelin/contracts-upgradeable/token/ERC20/ERC20Upgradeable.sol\":4869:4876  spender */\n      dup5\n        /* \"@openzeppelin/contracts-upgradeable/token/ERC20/ERC20Upgradeable.sol\":4848:4877  $._allowances[owner][spender] */\n      0xffffffffffffffffffffffffffffffffffffffff\n      and\n      0xffffffffffffffffffffffffffffffffffffffff\n      and\n      dup2\n      mstore\n      0x20\n      add\n      swap1\n      dup2\n      mstore\n      0x20\n      add\n      0x00\n      keccak256\n      sload\n        /* \"@openzeppelin/contracts-upgradeable/token/ERC20/ERC20Upgradeable.sol\":4841:4877  return $._allowances[owner][spender] */\n      swap2\n      pop\n      pop\n        /* \"@openzeppelin/contracts-upgradeable/token/ERC20/ERC20Upgradeable.sol\":4689:4884  function allowance(address owner, address spender) public view virtual returns (uint256) {... */\n      swap3\n      swap2\n      pop\n      pop\n      jump\t// out\n        /* \"contracts/KFShares.sol\":1041:1788  function initialize(... */\n    tag_195:\n        /* \"@openzeppelin/contracts-upgradeable/proxy/utils/Initializable.sol\":4158:4188  InitializableStorage storage $ */\n      0x00\n        /* \"@openzeppelin/contracts-upgradeable/proxy/utils/Initializable.sol\":4191:4217  _getInitializableStorage() */\n      tag_348\n        /* \"@openzeppelin/contracts-upgradeable/proxy/utils/Initializable.sol\":4191:4215  _getInitializableStorage */\n      tag_349\n        /* \"@openzeppelin/contracts-upgradeable/proxy/utils/Initializable.sol\":4191:4217  _getInitializableStorage() */\n      jump\t// in\n    tag_348:\n        /* \"@openzeppelin/contracts-upgradeable/proxy/utils/Initializable.sol\":4158:4217  InitializableStorage storage $ = _getInitializableStorage() */\n      swap1\n      pop\n        /* \"@openzeppelin/contracts-upgradeable/proxy/utils/Initializable.sol\":4279:4298  bool isTopLevelCall */\n      0x00\n        /* \"@openzeppelin/contracts-upgradeable/proxy/utils/Initializable.sol\":4302:4303  $ */\n      dup2\n        /* \"@openzeppelin/contracts-upgradeable/proxy/utils/Initializable.sol\":4302:4317  $._initializing */\n      0x00\n      add\n      0x08\n      swap1\n      sload\n      swap1\n      0x0100\n      exp\n      swap1\n      div\n      0xff\n      and\n        /* \"@openzeppelin/contracts-upgradeable/proxy/utils/Initializable.sol\":4301:4317  !$._initializing */\n      iszero\n        /* \"@openzeppelin/contracts-upgradeable/proxy/utils/Initializable.sol\":4279:4317  bool isTopLevelCall = !$._initializing */\n      swap1\n      pop\n        /* \"@openzeppelin/contracts-upgradeable/proxy/utils/Initializable.sol\":4327:4345  uint64 initialized */\n      0x00\n        /* \"@openzeppelin/contracts-upgradeable/proxy/utils/Initializable.sol\":4348:4349  $ */\n      dup3\n        /* \"@openzeppelin/contracts-upgradeable/proxy/utils/Initializable.sol\":4348:4362  $._initialized */\n      0x00\n      add\n      0x00\n      swap1\n      sload\n      swap1\n      0x0100\n      exp\n      swap1\n      div\n      0xffffffffffffffff\n      and\n        /* \"@openzeppelin/contracts-upgradeable/proxy/utils/Initializable.sol\":4327:4362  uint64 initialized = $._initialized */\n      swap1\n      pop\n        /* \"@openzeppelin/contracts-upgradeable/proxy/utils/Initializable.sol\":4704:4721  bool initialSetup */\n      0x00\n        /* \"@openzeppelin/contracts-upgradeable/proxy/utils/Initializable.sol\":4739:4740  0 */\n      0x00\n        /* \"@openzeppelin/contracts-upgradeable/proxy/utils/Initializable.sol\":4724:4735  initialized */\n      dup3\n        /* \"@openzeppelin/contracts-upgradeable/proxy/utils/Initializable.sol\":4724:4740  initialized == 0 */\n      0xffffffffffffffff\n      and\n      eq\n        /* \"@openzeppelin/contracts-upgradeable/proxy/utils/Initializable.sol\":4724:4758  initialized == 0 && isTopLevelCall */\n      dup1\n      iszero\n      tag_350\n      jumpi\n      pop\n        /* \"@openzeppelin/contracts-upgradeable/proxy/utils/Initializable.sol\":4744:4758  isTopLevelCall */\n      dup3\n        /* \"@openzeppelin/contracts-upgradeable/proxy/utils/Initializable.sol\":4724:4758  initialized == 0 && isTopLevelCall */\n    tag_350:\n        /* \"@openzeppelin/contracts-upgradeable/proxy/utils/Initializable.sol\":4704:4758  bool initialSetup = initialized == 0 && isTopLevelCall */\n      swap1\n      pop\n        /* \"@openzeppelin/contracts-upgradeable/proxy/utils/Initializable.sol\":4768:4785  bool construction */\n      0x00\n        /* \"@openzeppelin/contracts-upgradeable/proxy/utils/Initializable.sol\":4803:4804  1 */\n      0x01\n        /* \"@openzeppelin/contracts-upgradeable/proxy/utils/Initializable.sol\":4788:4799  initialized */\n      dup4\n        /* \"@openzeppelin/contracts-upgradeable/proxy/utils/Initializable.sol\":4788:4804  initialized == 1 */\n      0xffffffffffffffff\n      and\n      eq\n        /* \"@openzeppelin/contracts-upgradeable/proxy/utils/Initializable.sol\":4788:4838  initialized == 1 && address(this).code.length == 0 */\n      dup1\n      iszero\n      tag_351\n      jumpi\n      pop\n        /* \"@openzeppelin/contracts-upgradeable/proxy/utils/Initializable.sol\":4837:4838  0 */\n      0x00\n        /* \"@openzeppelin/contracts-upgradeable/proxy/utils/Initializable.sol\":4816:4820  this */\n      address\n        /* \"@openzeppelin/contracts-upgradeable/proxy/utils/Initializable.sol\":4808:4833  address(this).code.length */\n      0xffffffffffffffffffffffffffffffffffffffff\n      and\n      extcodesize\n        /* \"@openzeppelin/contracts-upgradeable/proxy/utils/Initializable.sol\":4808:4838  address(this).code.length == 0 */\n      eq\n        /* \"@openzeppelin/contracts-upgradeable/proxy/utils/Initializable.sol\":4788:4838  initialized == 1 && address(this).code.length == 0 */\n    tag_351:\n        /* \"@openzeppelin/contracts-upgradeable/proxy/utils/Initializable.sol\":4768:4838  bool construction = initialized == 1 && address(this).code.length == 0 */\n      swap1\n      pop\n        /* \"@openzeppelin/contracts-upgradeable/proxy/utils/Initializable.sol\":4854:4866  initialSetup */\n      dup2\n        /* \"@openzeppelin/contracts-upgradeable/proxy/utils/Initializable.sol\":4853:4866  !initialSetup */\n      iszero\n        /* \"@openzeppelin/contracts-upgradeable/proxy/utils/Initializable.sol\":4853:4883  !initialSetup && !construction */\n      dup1\n      iszero\n      tag_352\n      jumpi\n      pop\n        /* \"@openzeppelin/contracts-upgradeable/proxy/utils/Initializable.sol\":4871:4883  construction */\n      dup1\n        /* \"@openzeppelin/contracts-upgradeable/proxy/utils/Initializable.sol\":4870:4883  !construction */\n      iszero\n        /* \"@openzeppelin/contracts-upgradeable/proxy/utils/Initializable.sol\":4853:4883  !initialSetup && !construction */\n    tag_352:\n        /* \"@openzeppelin/contracts-upgradeable/proxy/utils/Initializable.sol\":4849:4940  if (!initialSetup && !construction) {... */\n      iszero\n      tag_353\n      jumpi\n        /* \"@openzeppelin/contracts-upgradeable/proxy/utils/Initializable.sol\":4906:4929  InvalidInitialization() */\n      mload(0x40)\n      0xf92ee8a900000000000000000000000000000000000000000000000000000000\n      dup2\n      mstore\n      0x04\n      add\n      mload(0x40)\n      dup1\n      swap2\n      sub\n      swap1\n      revert\n        /* \"@openzeppelin/contracts-upgradeable/proxy/utils/Initializable.sol\":4849:4940  if (!initialSetup && !construction) {... */\n    tag_353:\n        /* \"@openzeppelin/contracts-upgradeable/proxy/utils/Initializable.sol\":4966:4967  1 */\n      0x01\n        /* \"@openzeppelin/contracts-upgradeable/proxy/utils/Initializable.sol\":4949:4950  $ */\n      dup6\n        /* \"@openzeppelin/contracts-upgradeable/proxy/utils/Initializable.sol\":4949:4963  $._initialized */\n      0x00\n      add\n      0x00\n        /* \"@openzeppelin/contracts-upgradeable/proxy/utils/Initializable.sol\":4949:4967  $._initialized = 1 */\n      0x0100\n      exp\n      dup2\n      sload\n      dup2\n      0xffffffffffffffff\n      mul\n      not\n      and\n      swap1\n      dup4\n      0xffffffffffffffff\n      and\n      mul\n      or\n      swap1\n      sstore\n      pop\n        /* \"@openzeppelin/contracts-upgradeable/proxy/utils/Initializable.sol\":4981:4995  isTopLevelCall */\n      dup4\n        /* \"@openzeppelin/contracts-upgradeable/proxy/utils/Initializable.sol\":4977:5044  if (isTopLevelCall) {... */\n      iszero\n      tag_354\n      jumpi\n        /* \"@openzeppelin/contracts-upgradeable/proxy/utils/Initializable.sol\":5029:5033  true */\n      0x01\n        /* \"@openzeppelin/contracts-upgradeable/proxy/utils/Initializable.sol\":5011:5012  $ */\n      dup6\n        /* \"@openzeppelin/contracts-upgradeable/proxy/utils/Initializable.sol\":5011:5026  $._initializing */\n      0x00\n      add\n      0x08\n        /* \"@openzeppelin/contracts-upgradeable/proxy/utils/Initializable.sol\":5011:5033  $._initializing = true */\n      0x0100\n      exp\n      dup2\n      sload\n      dup2\n      0xff\n      mul\n      not\n      and\n      swap1\n      dup4\n      iszero\n      iszero\n      mul\n      or\n      swap1\n      sstore\n      pop\n        /* \"@openzeppelin/contracts-upgradeable/proxy/utils/Initializable.sol\":4977:5044  if (isTopLevelCall) {... */\n    tag_354:\n        /* \"contracts/KFShares.sol\":1320:1321  0 */\n      0x00\n        /* \"contracts/KFShares.sol\":1306:1317  totalShares */\n      dup11\n        /* \"contracts/KFShares.sol\":1306:1321  totalShares > 0 */\n      gt\n        /* \"contracts/KFShares.sol\":1298:1364  require(totalShares > 0, \"Total shares must be greater than zero\") */\n      tag_356\n      jumpi\n      mload(0x40)\n      0x08c379a000000000000000000000000000000000000000000000000000000000\n      dup2\n      mstore\n      0x04\n      add\n      tag_357\n      swap1\n      tag_358\n      jump\t// in\n    tag_357:\n      mload(0x40)\n      dup1\n      swap2\n      sub\n      swap1\n      revert\n    tag_356:\n        /* \"contracts/KFShares.sol\":1377:1403  __ERC20_init(name, symbol) */\n      tag_359\n        /* \"contracts/KFShares.sol\":1390:1394  name */\n      dup13\n        /* \"contracts/KFShares.sol\":1396:1402  symbol */\n      dup13\n        /* \"contracts/KFShares.sol\":1377:1389  __ERC20_init */\n      tag_360\n        /* \"contracts/KFShares.sol\":1377:1403  __ERC20_init(name, symbol) */\n      jump\t// in\n    tag_359:\n        /* \"contracts/KFShares.sol\":1414:1436  __AccessControl_init() */\n      tag_361\n        /* \"contracts/KFShares.sol\":1414:1434  __AccessControl_init */\n      tag_362\n        /* \"contracts/KFShares.sol\":1414:1436  __AccessControl_init() */\n      jump\t// in\n    tag_361:\n        /* \"contracts/KFShares.sol\":1447:1471  __UUPSUpgradeable_init() */\n      tag_363\n        /* \"contracts/KFShares.sol\":1447:1469  __UUPSUpgradeable_init */\n      tag_364\n        /* \"contracts/KFShares.sol\":1447:1471  __UUPSUpgradeable_init() */\n      jump\t// in\n    tag_363:\n        /* \"contracts/KFShares.sol\":1510:1519  _aksToken */\n      dup8\n        /* \"contracts/KFShares.sol\":1484:1492  aksToken */\n      0x00\n      0x00\n        /* \"contracts/KFShares.sol\":1484:1520  aksToken = IAKSStablecoin(_aksToken) */\n      0x0100\n      exp\n      dup2\n      sload\n      dup2\n      0xffffffffffffffffffffffffffffffffffffffff\n      mul\n      not\n      and\n      swap1\n      dup4\n      0xffffffffffffffffffffffffffffffffffffffff\n      and\n      mul\n      or\n      swap1\n      sstore\n      pop\n        /* \"contracts/KFShares.sol\":1560:1573  _tokensBridge */\n      dup7\n        /* \"contracts/KFShares.sol\":1531:1543  tokensBridge */\n      0x01\n      0x00\n        /* \"contracts/KFShares.sol\":1531:1574  tokensBridge = ITokensBridge(_tokensBridge) */\n      0x0100\n      exp\n      dup2\n      sload\n      dup2\n      0xffffffffffffffffffffffffffffffffffffffff\n      mul\n      not\n      and\n      swap1\n      dup4\n      0xffffffffffffffffffffffffffffffffffffffff\n      and\n      mul\n      or\n      swap1\n      sstore\n      pop\n        /* \"contracts/KFShares.sol\":1605:1609  1e18 */\n      0x0de0b6b3a7640000\n        /* \"contracts/KFShares.sol\":1585:1602  basePricePerShare */\n      0x02\n        /* \"contracts/KFShares.sol\":1585:1609  basePricePerShare = 1e18 */\n      dup2\n      swap1\n      sstore\n      pop\n        /* \"contracts/KFShares.sol\":1622:1659  _grantRole(DEFAULT_ADMIN_ROLE, admin) */\n      tag_365\n        /* \"@openzeppelin/contracts-upgradeable/access/AccessControlUpgradeable.sol\":2362:2366  0x00 */\n      0x00\n        /* \"contracts/KFShares.sol\":1633:1651  DEFAULT_ADMIN_ROLE */\n      0x00\n      shl\n        /* \"contracts/KFShares.sol\":1653:1658  admin */\n      dup11\n        /* \"contracts/KFShares.sol\":1622:1632  _grantRole */\n      tag_263\n        /* \"contracts/KFShares.sol\":1622:1659  _grantRole(DEFAULT_ADMIN_ROLE, admin) */\n      jump\t// in\n    tag_365:\n      pop\n        /* \"contracts/KFShares.sol\":1670:1699  _grantRole(PROXY_ROLE, proxy) */\n      tag_366\n        /* \"contracts/KFShares.sol\":658:681  keccak256(\"PROXY_ROLE\") */\n      0x77d72916e966418e6dc58a19999ae9934bef3f749f1547cde0a86e809f19c89b\n        /* \"contracts/KFShares.sol\":1693:1698  proxy */\n      dup8\n        /* \"contracts/KFShares.sol\":1670:1680  _grantRole */\n      tag_263\n        /* \"contracts/KFShares.sol\":1670:1699  _grantRole(PROXY_ROLE, proxy) */\n      jump\t// in\n    tag_366:\n      pop\n        /* \"contracts/KFShares.sol\":1710:1742  _grantRole(UPGRADER_ROLE, admin) */\n      tag_367\n        /* \"contracts/KFShares.sol\":588:614  keccak256(\"UPGRADER_ROLE\") */\n      0x189ab7a9244df0848122154315af71fe140f3db0fe014031783b0946b8c9d2e3\n        /* \"contracts/KFShares.sol\":1736:1741  admin */\n      dup11\n        /* \"contracts/KFShares.sol\":1710:1720  _grantRole */\n      tag_263\n        /* \"contracts/KFShares.sol\":1710:1742  _grantRole(UPGRADER_ROLE, admin) */\n      jump\t// in\n    tag_367:\n      pop\n        /* \"contracts/KFShares.sol\":1755:1780  _mint(proxy, totalShares) */\n      tag_368\n        /* \"contracts/KFShares.sol\":1761:1766  proxy */\n      dup7\n        /* \"contracts/KFShares.sol\":1768:1779  totalShares */\n      dup12\n        /* \"contracts/KFShares.sol\":1755:1760  _mint */\n      tag_274\n        /* \"contracts/KFShares.sol\":1755:1780  _mint(proxy, totalShares) */\n      jump\t// in\n    tag_368:\n        /* \"@openzeppelin/contracts-upgradeable/proxy/utils/Initializable.sol\":5068:5082  isTopLevelCall */\n      dup4\n        /* \"@openzeppelin/contracts-upgradeable/proxy/utils/Initializable.sol\":5064:5165  if (isTopLevelCall) {... */\n      iszero\n      tag_369\n      jumpi\n        /* \"@openzeppelin/contracts-upgradeable/proxy/utils/Initializable.sol\":5116:5121  false */\n      0x00\n        /* \"@openzeppelin/contracts-upgradeable/proxy/utils/Initializable.sol\":5098:5099  $ */\n      dup6\n        /* \"@openzeppelin/contracts-upgradeable/proxy/utils/Initializable.sol\":5098:5113  $._initializing */\n      0x00\n      add\n      0x08\n        /* \"@openzeppelin/contracts-upgradeable/proxy/utils/Initializable.sol\":5098:5121  $._initializing = false */\n      0x0100\n      exp\n      dup2\n      sload\n      dup2\n      0xff\n      mul\n      not\n      and\n      swap1\n      dup4\n      iszero\n      iszero\n      mul\n      or\n      swap1\n      sstore\n      pop\n        /* \"@openzeppelin/contracts-upgradeable/proxy/utils/Initializable.sol\":5140:5154  Initialized(1) */\n      0xc7f505b2f371ae2175ee4913f4499e1f2633a7b5936321eed1cdaeb6115181d2\n        /* \"@openzeppelin/contracts-upgradeable/proxy/utils/Initializable.sol\":5152:5153  1 */\n      0x01\n        /* \"@openzeppelin/contracts-upgradeable/proxy/utils/Initializable.sol\":5140:5154  Initialized(1) */\n      mload(0x40)\n      tag_370\n      swap2\n      swap1\n      tag_371\n      jump\t// in\n    tag_370:\n      mload(0x40)\n      dup1\n      swap2\n      sub\n      swap1\n      log1\n        /* \"@openzeppelin/contracts-upgradeable/proxy/utils/Initializable.sol\":5064:5165  if (isTopLevelCall) {... */\n    tag_369:\n        /* \"@openzeppelin/contracts-upgradeable/proxy/utils/Initializable.sol\":4092:5171  {... */\n      pop\n      pop\n      pop\n      pop\n      pop\n        /* \"contracts/KFShares.sol\":1041:1788  function initialize(... */\n      pop\n      pop\n      pop\n      pop\n      pop\n      pop\n      pop\n      jump\t// out\n        /* \"contracts/KFShares.sol\":2056:2179  function forceBurn(address account, uint256 amount) external onlyRole(PROXY_ROLE) {... */\n    tag_199:\n        /* \"contracts/KFShares.sol\":658:681  keccak256(\"PROXY_ROLE\") */\n      0x77d72916e966418e6dc58a19999ae9934bef3f749f1547cde0a86e809f19c89b\n        /* \"@openzeppelin/contracts-upgradeable/access/AccessControlUpgradeable.sol\":3191:3207  _checkRole(role) */\n      tag_373\n        /* \"@openzeppelin/contracts-upgradeable/access/AccessControlUpgradeable.sol\":3202:3206  role */\n      dup2\n        /* \"@openzeppelin/contracts-upgradeable/access/AccessControlUpgradeable.sol\":3191:3201  _checkRole */\n      tag_223\n        /* \"@openzeppelin/contracts-upgradeable/access/AccessControlUpgradeable.sol\":3191:3207  _checkRole(role) */\n      jump\t// in\n    tag_373:\n        /* \"contracts/KFShares.sol\":2149:2171  _burn(account, amount) */\n      tag_375\n        /* \"contracts/KFShares.sol\":2155:2162  account */\n      dup4\n        /* \"contracts/KFShares.sol\":2164:2170  amount */\n      dup4\n        /* \"contracts/KFShares.sol\":2149:2154  _burn */\n      tag_279\n        /* \"contracts/KFShares.sol\":2149:2171  _burn(account, amount) */\n      jump\t// in\n    tag_375:\n        /* \"contracts/KFShares.sol\":2056:2179  function forceBurn(address account, uint256 amount) external onlyRole(PROXY_ROLE) {... */\n      pop\n      pop\n      pop\n      jump\t// out\n        /* \"contracts/KFShares.sol\":818:865  mapping(address => uint256) public lockedShares */\n    tag_203:\n      mstore(0x20, 0x03)\n      dup1\n      0x00\n      mstore\n      keccak256(0x00, 0x40)\n      0x00\n      swap2\n      pop\n      swap1\n      pop\n      sload\n      dup2\n      jump\t// out\n        /* \"contracts/KFShares.sol\":621:681  bytes32 public constant PROXY_ROLE = keccak256(\"PROXY_ROLE\") */\n    tag_207:\n        /* \"contracts/KFShares.sol\":658:681  keccak256(\"PROXY_ROLE\") */\n      0x77d72916e966418e6dc58a19999ae9934bef3f749f1547cde0a86e809f19c89b\n        /* \"contracts/KFShares.sol\":621:681  bytes32 public constant PROXY_ROLE = keccak256(\"PROXY_ROLE\") */\n      dup2\n      jump\t// out\n        /* \"contracts/KFShares.sol\":769:801  uint256 public basePricePerShare */\n    tag_211:\n      sload(0x02)\n      dup2\n      jump\t// out\n        /* \"contracts/KFShares.sol\":548:614  bytes32 public constant UPGRADER_ROLE = keccak256(\"UPGRADER_ROLE\") */\n    tag_215:\n        /* \"contracts/KFShares.sol\":588:614  keccak256(\"UPGRADER_ROLE\") */\n      0x189ab7a9244df0848122154315af71fe140f3db0fe014031783b0946b8c9d2e3\n        /* \"contracts/KFShares.sol\":548:614  bytes32 public constant UPGRADER_ROLE = keccak256(\"UPGRADER_ROLE\") */\n      dup2\n      jump\t// out\n        /* \"@openzeppelin/contracts-upgradeable/utils/introspection/ERC165Upgradeable.sol\":1035:1181  function supportsInterface(bytes4 interfaceId) public view virtual returns (bool) {... */\n    tag_220:\n        /* \"@openzeppelin/contracts-upgradeable/utils/introspection/ERC165Upgradeable.sol\":1111:1115  bool */\n      0x00\n        /* \"@openzeppelin/contracts-upgradeable/utils/introspection/ERC165Upgradeable.sol\":1149:1174  type(IERC165).interfaceId */\n      0x01ffc9a700000000000000000000000000000000000000000000000000000000\n        /* \"@openzeppelin/contracts-upgradeable/utils/introspection/ERC165Upgradeable.sol\":1134:1174  interfaceId == type(IERC165).interfaceId */\n      not(0xffffffffffffffffffffffffffffffffffffffffffffffffffffffff)\n      and\n        /* \"@openzeppelin/contracts-upgradeable/utils/introspection/ERC165Upgradeable.sol\":1134:1145  interfaceId */\n      dup3\n        /* \"@openzeppelin/contracts-upgradeable/utils/introspection/ERC165Upgradeable.sol\":1134:1174  interfaceId == type(IERC165).interfaceId */\n      not(0xffffffffffffffffffffffffffffffffffffffffffffffffffffffff)\n      and\n      eq\n        /* \"@openzeppelin/contracts-upgradeable/utils/introspection/ERC165Upgradeable.sol\":1127:1174  return interfaceId == type(IERC165).interfaceId */\n      swap1\n      pop\n        /* \"@openzeppelin/contracts-upgradeable/utils/introspection/ERC165Upgradeable.sol\":1035:1181  function supportsInterface(bytes4 interfaceId) public view virtual returns (bool) {... */\n      swap2\n      swap1\n      pop\n      jump\t// out\n        /* \"@openzeppelin/contracts-upgradeable/access/AccessControlUpgradeable.sol\":4148:4251  function _checkRole(bytes32 role) internal view virtual {... */\n    tag_223:\n        /* \"@openzeppelin/contracts-upgradeable/access/AccessControlUpgradeable.sol\":4214:4244  _checkRole(role, _msgSender()) */\n      tag_378\n        /* \"@openzeppelin/contracts-upgradeable/access/AccessControlUpgradeable.sol\":4225:4229  role */\n      dup2\n        /* \"@openzeppelin/contracts-upgradeable/access/AccessControlUpgradeable.sol\":4231:4243  _msgSender() */\n      tag_379\n        /* \"@openzeppelin/contracts-upgradeable/access/AccessControlUpgradeable.sol\":4231:4241  _msgSender */\n      tag_238\n        /* \"@openzeppelin/contracts-upgradeable/access/AccessControlUpgradeable.sol\":4231:4243  _msgSender() */\n      jump\t// in\n    tag_379:\n        /* \"@openzeppelin/contracts-upgradeable/access/AccessControlUpgradeable.sol\":4214:4224  _checkRole */\n      tag_380\n        /* \"@openzeppelin/contracts-upgradeable/access/AccessControlUpgradeable.sol\":4214:4244  _checkRole(role, _msgSender()) */\n      jump\t// in\n    tag_378:\n        /* \"@openzeppelin/contracts-upgradeable/access/AccessControlUpgradeable.sol\":4148:4251  function _checkRole(bytes32 role) internal view virtual {... */\n      pop\n      jump\t// out\n        /* \"@openzeppelin/contracts-upgradeable/token/ERC20/ERC20Upgradeable.sol\":1947:2100  function _getERC20Storage() private pure returns (ERC20Storage storage $) {... */\n    tag_229:\n        /* \"@openzeppelin/contracts-upgradeable/token/ERC20/ERC20Upgradeable.sol\":1997:2019  ERC20Storage storage $ */\n      0x00\n        /* \"@openzeppelin/contracts-upgradeable/token/ERC20/ERC20Upgradeable.sol\":2064:2084  ERC20StorageLocation */\n      0x52c63247e1f47db19d5ce0460030c497f067ca4cebf71ba98eeadabe20bace00\n        /* \"@openzeppelin/contracts-upgradeable/token/ERC20/ERC20Upgradeable.sol\":2054:2084  $.slot := ERC20StorageLocation */\n      swap1\n      pop\n        /* \"@openzeppelin/contracts-upgradeable/token/ERC20/ERC20Upgradeable.sol\":1947:2100  function _getERC20Storage() private pure returns (ERC20Storage storage $) {... */\n      swap1\n      jump\t// out\n        /* \"@openzeppelin/contracts-upgradeable/utils/ContextUpgradeable.sol\":887:983  function _msgSender() internal view virtual returns (address) {... */\n    tag_238:\n        /* \"@openzeppelin/contracts-upgradeable/utils/ContextUpgradeable.sol\":940:947  address */\n      0x00\n        /* \"@openzeppelin/contracts-upgradeable/utils/ContextUpgradeable.sol\":966:976  msg.sender */\n      caller\n        /* \"@openzeppelin/contracts-upgradeable/utils/ContextUpgradeable.sol\":959:976  return msg.sender */\n      swap1\n      pop\n        /* \"@openzeppelin/contracts-upgradeable/utils/ContextUpgradeable.sol\":887:983  function _msgSender() internal view virtual returns (address) {... */\n      swap1\n      jump\t// out\n        /* \"@openzeppelin/contracts-upgradeable/token/ERC20/ERC20Upgradeable.sol\":9982:10110  function _approve(address owner, address spender, uint256 value) internal {... */\n    tag_240:\n        /* \"@openzeppelin/contracts-upgradeable/token/ERC20/ERC20Upgradeable.sol\":10066:10103  _approve(owner, spender, value, true) */\n      tag_384\n        /* \"@openzeppelin/contracts-upgradeable/token/ERC20/ERC20Upgradeable.sol\":10075:10080  owner */\n      dup4\n        /* \"@openzeppelin/contracts-upgradeable/token/ERC20/ERC20Upgradeable.sol\":10082:10089  spender */\n      dup4\n        /* \"@openzeppelin/contracts-upgradeable/token/ERC20/ERC20Upgradeable.sol\":10091:10096  value */\n      dup4\n        /* \"@openzeppelin/contracts-upgradeable/token/ERC20/ERC20Upgradeable.sol\":10098:10102  true */\n      0x01\n        /* \"@openzeppelin/contracts-upgradeable/token/ERC20/ERC20Upgradeable.sol\":10066:10074  _approve */\n      tag_385\n        /* \"@openzeppelin/contracts-upgradeable/token/ERC20/ERC20Upgradeable.sol\":10066:10103  _approve(owner, spender, value, true) */\n      jump\t// in\n    tag_384:\n        /* \"@openzeppelin/contracts-upgradeable/token/ERC20/ERC20Upgradeable.sol\":9982:10110  function _approve(address owner, address spender, uint256 value) internal {... */\n      pop\n      pop\n      pop\n      jump\t// out\n        /* \"@openzeppelin/contracts-upgradeable/token/ERC20/ERC20Upgradeable.sol\":5969:6213  function transferFrom(address from, address to, uint256 value) public virtual returns (bool) {... */\n    tag_254:\n        /* \"@openzeppelin/contracts-upgradeable/token/ERC20/ERC20Upgradeable.sol\":6056:6060  bool */\n      0x00\n        /* \"@openzeppelin/contracts-upgradeable/token/ERC20/ERC20Upgradeable.sol\":6072:6087  address spender */\n      0x00\n        /* \"@openzeppelin/contracts-upgradeable/token/ERC20/ERC20Upgradeable.sol\":6090:6102  _msgSender() */\n      tag_387\n        /* \"@openzeppelin/contracts-upgradeable/token/ERC20/ERC20Upgradeable.sol\":6090:6100  _msgSender */\n      tag_238\n        /* \"@openzeppelin/contracts-upgradeable/token/ERC20/ERC20Upgradeable.sol\":6090:6102  _msgSender() */\n      jump\t// in\n    tag_387:\n        /* \"@openzeppelin/contracts-upgradeable/token/ERC20/ERC20Upgradeable.sol\":6072:6102  address spender = _msgSender() */\n      swap1\n      pop\n        /* \"@openzeppelin/contracts-upgradeable/token/ERC20/ERC20Upgradeable.sol\":6112:6149  _spendAllowance(from, spender, value) */\n      tag_388\n        /* \"@openzeppelin/contracts-upgradeable/token/ERC20/ERC20Upgradeable.sol\":6128:6132  from */\n      dup6\n        /* \"@openzeppelin/contracts-upgradeable/token/ERC20/ERC20Upgradeable.sol\":6134:6141  spender */\n      dup3\n        /* \"@openzeppelin/contracts-upgradeable/token/ERC20/ERC20Upgradeable.sol\":6143:6148  value */\n      dup6\n        /* \"@openzeppelin/contracts-upgradeable/token/ERC20/ERC20Upgradeable.sol\":6112:6127  _spendAllowance */\n      tag_389\n        /* \"@openzeppelin/contracts-upgradeable/token/ERC20/ERC20Upgradeable.sol\":6112:6149  _spendAllowance(from, spender, value) */\n      jump\t// in\n    tag_388:\n        /* \"@openzeppelin/contracts-upgradeable/token/ERC20/ERC20Upgradeable.sol\":6159:6185  _transfer(from, to, value) */\n      tag_390\n        /* \"@openzeppelin/contracts-upgradeable/token/ERC20/ERC20Upgradeable.sol\":6169:6173  from */\n      dup6\n        /* \"@openzeppelin/contracts-upgradeable/token/ERC20/ERC20Upgradeable.sol\":6175:6177  to */\n      dup6\n        /* \"@openzeppelin/contracts-upgradeable/token/ERC20/ERC20Upgradeable.sol\":6179:6184  value */\n      dup6\n        /* \"@openzeppelin/contracts-upgradeable/token/ERC20/ERC20Upgradeable.sol\":6159:6168  _transfer */\n      tag_318\n        /* \"@openzeppelin/contracts-upgradeable/token/ERC20/ERC20Upgradeable.sol\":6159:6185  _transfer(from, to, value) */\n      jump\t// in\n    tag_390:\n        /* \"@openzeppelin/contracts-upgradeable/token/ERC20/ERC20Upgradeable.sol\":6202:6206  true */\n      0x01\n        /* \"@openzeppelin/contracts-upgradeable/token/ERC20/ERC20Upgradeable.sol\":6195:6206  return true */\n      swap2\n      pop\n      pop\n        /* \"@openzeppelin/contracts-upgradeable/token/ERC20/ERC20Upgradeable.sol\":5969:6213  function transferFrom(address from, address to, uint256 value) public virtual returns (bool) {... */\n      swap4\n      swap3\n      pop\n      pop\n      pop\n      jump\t// out\n        /* \"@openzeppelin/contracts-upgradeable/access/AccessControlUpgradeable.sol\":2787:2964  function _getAccessControlStorage() private pure returns (AccessControlStorage storage $) {... */\n    tag_257:\n        /* \"@openzeppelin/contracts-upgradeable/access/AccessControlUpgradeable.sol\":2845:2875  AccessControlStorage storage $ */\n      0x00\n        /* \"@openzeppelin/contracts-upgradeable/access/AccessControlUpgradeable.sol\":2920:2948  AccessControlStorageLocation */\n      0x02dd7bc7dec4dceedda775e58dd541e08a116c6c53815c0bd028192f7b626800\n        /* \"@openzeppelin/contracts-upgradeable/access/AccessControlUpgradeable.sol\":2910:2948  $.slot := AccessControlStorageLocation */\n      swap1\n      pop\n        /* \"@openzeppelin/contracts-upgradeable/access/AccessControlUpgradeable.sol\":2787:2964  function _getAccessControlStorage() private pure returns (AccessControlStorage storage $) {... */\n      swap1\n      jump\t// out\n        /* \"@openzeppelin/contracts-upgradeable/access/AccessControlUpgradeable.sol\":7270:7657  function _grantRole(bytes32 role, address account) internal virtual returns (bool) {... */\n    tag_263:\n        /* \"@openzeppelin/contracts-upgradeable/access/AccessControlUpgradeable.sol\":7347:7351  bool */\n      0x00\n        /* \"@openzeppelin/contracts-upgradeable/access/AccessControlUpgradeable.sol\":7363:7393  AccessControlStorage storage $ */\n      0x00\n        /* \"@openzeppelin/contracts-upgradeable/access/AccessControlUpgradeable.sol\":7396:7422  _getAccessControlStorage() */\n      tag_393\n        /* \"@openzeppelin/contracts-upgradeable/access/AccessControlUpgradeable.sol\":7396:7420  _getAccessControlStorage */\n      tag_257\n        /* \"@openzeppelin/contracts-upgradeable/access/AccessControlUpgradeable.sol\":7396:7422  _getAccessControlStorage() */\n      jump\t// in\n    tag_393:\n        /* \"@openzeppelin/contracts-upgradeable/access/AccessControlUpgradeable.sol\":7363:7422  AccessControlStorage storage $ = _getAccessControlStorage() */\n      swap1\n      pop\n        /* \"@openzeppelin/contracts-upgradeable/access/AccessControlUpgradeable.sol\":7437:7459  hasRole(role, account) */\n      tag_394\n        /* \"@openzeppelin/contracts-upgradeable/access/AccessControlUpgradeable.sol\":7445:7449  role */\n      dup5\n        /* \"@openzeppelin/contracts-upgradeable/access/AccessControlUpgradeable.sol\":7451:7458  account */\n      dup5\n        /* \"@openzeppelin/contracts-upgradeable/access/AccessControlUpgradeable.sol\":7437:7444  hasRole */\n      tag_139\n        /* \"@openzeppelin/contracts-upgradeable/access/AccessControlUpgradeable.sol\":7437:7459  hasRole(role, account) */\n      jump\t// in\n    tag_394:\n        /* \"@openzeppelin/contracts-upgradeable/access/AccessControlUpgradeable.sol\":7432:7651  if (!hasRole(role, account)) {... */\n      tag_395\n      jumpi\n        /* \"@openzeppelin/contracts-upgradeable/access/AccessControlUpgradeable.sol\":7509:7513  true */\n      0x01\n        /* \"@openzeppelin/contracts-upgradeable/access/AccessControlUpgradeable.sol\":7475:7476  $ */\n      dup2\n        /* \"@openzeppelin/contracts-upgradeable/access/AccessControlUpgradeable.sol\":7475:7483  $._roles */\n      0x00\n      add\n        /* \"@openzeppelin/contracts-upgradeable/access/AccessControlUpgradeable.sol\":7475:7489  $._roles[role] */\n      0x00\n        /* \"@openzeppelin/contracts-upgradeable/access/AccessControlUpgradeable.sol\":7484:7488  role */\n      dup7\n        /* \"@openzeppelin/contracts-upgradeable/access/AccessControlUpgradeable.sol\":7475:7489  $._roles[role] */\n      dup2\n      mstore\n      0x20\n      add\n      swap1\n      dup2\n      mstore\n      0x20\n      add\n      0x00\n      keccak256\n        /* \"@openzeppelin/contracts-upgradeable/access/AccessControlUpgradeable.sol\":7475:7497  $._roles[role].hasRole */\n      0x00\n      add\n        /* \"@openzeppelin/contracts-upgradeable/access/AccessControlUpgradeable.sol\":7475:7506  $._roles[role].hasRole[account] */\n      0x00\n        /* \"@openzeppelin/contracts-upgradeable/access/AccessControlUpgradeable.sol\":7498:7505  account */\n      dup6\n        /* \"@openzeppelin/contracts-upgradeable/access/AccessControlUpgradeable.sol\":7475:7506  $._roles[role].hasRole[account] */\n      0xffffffffffffffffffffffffffffffffffffffff\n      and\n      0xffffffffffffffffffffffffffffffffffffffff\n      and\n      dup2\n      mstore\n      0x20\n      add\n      swap1\n      dup2\n      mstore\n      0x20\n      add\n      0x00\n      keccak256\n      0x00\n        /* \"@openzeppelin/contracts-upgradeable/access/AccessControlUpgradeable.sol\":7475:7513  $._roles[role].hasRole[account] = true */\n      0x0100\n      exp\n      dup2\n      sload\n      dup2\n      0xff\n      mul\n      not\n      and\n      swap1\n      dup4\n      iszero\n      iszero\n      mul\n      or\n      swap1\n      sstore\n      pop\n        /* \"@openzeppelin/contracts-upgradeable/access/AccessControlUpgradeable.sol\":7559:7571  _msgSender() */\n      tag_396\n        /* \"@openzeppelin/contracts-upgradeable/access/AccessControlUpgradeable.sol\":7559:7569  _msgSender */\n      tag_238\n        /* \"@openzeppelin/contracts-upgradeable/access/AccessControlUpgradeable.sol\":7559:7571  _msgSender() */\n      jump\t// in\n    tag_396:\n        /* \"@openzeppelin/contracts-upgradeable/access/AccessControlUpgradeable.sol\":7532:7572  RoleGranted(role, account, _msgSender()) */\n      0xffffffffffffffffffffffffffffffffffffffff\n      and\n        /* \"@openzeppelin/contracts-upgradeable/access/AccessControlUpgradeable.sol\":7550:7557  account */\n      dup4\n        /* \"@openzeppelin/contracts-upgradeable/access/AccessControlUpgradeable.sol\":7532:7572  RoleGranted(role, account, _msgSender()) */\n      0xffffffffffffffffffffffffffffffffffffffff\n      and\n        /* \"@openzeppelin/contracts-upgradeable/access/AccessControlUpgradeable.sol\":7544:7548  role */\n      dup6\n        /* \"@openzeppelin/contracts-upgradeable/access/AccessControlUpgradeable.sol\":7532:7572  RoleGranted(role, account, _msgSender()) */\n      0x2f8788117e7eff1d82e926ec794901d17c78024a50270940304540a733656f0d\n      mload(0x40)\n      mload(0x40)\n      dup1\n      swap2\n      sub\n      swap1\n      log4\n        /* \"@openzeppelin/contracts-upgradeable/access/AccessControlUpgradeable.sol\":7593:7597  true */\n      0x01\n        /* \"@openzeppelin/contracts-upgradeable/access/AccessControlUpgradeable.sol\":7586:7597  return true */\n      swap2\n      pop\n      pop\n      jump(tag_392)\n        /* \"@openzeppelin/contracts-upgradeable/access/AccessControlUpgradeable.sol\":7432:7651  if (!hasRole(role, account)) {... */\n    tag_395:\n        /* \"@openzeppelin/contracts-upgradeable/access/AccessControlUpgradeable.sol\":7635:7640  false */\n      0x00\n        /* \"@openzeppelin/contracts-upgradeable/access/AccessControlUpgradeable.sol\":7628:7640  return false */\n      swap2\n      pop\n      pop\n        /* \"@openzeppelin/contracts-upgradeable/access/AccessControlUpgradeable.sol\":7270:7657  function _grantRole(bytes32 role, address account) internal virtual returns (bool) {... */\n    tag_392:\n      swap3\n      swap2\n      pop\n      pop\n      jump\t// out\n        /* \"@openzeppelin/contracts-upgradeable/access/AccessControlUpgradeable.sol\":7894:8282  function _revokeRole(bytes32 role, address account) internal virtual returns (bool) {... */\n    tag_269:\n        /* \"@openzeppelin/contracts-upgradeable/access/AccessControlUpgradeable.sol\":7972:7976  bool */\n      0x00\n        /* \"@openzeppelin/contracts-upgradeable/access/AccessControlUpgradeable.sol\":7988:8018  AccessControlStorage storage $ */\n      0x00\n        /* \"@openzeppelin/contracts-upgradeable/access/AccessControlUpgradeable.sol\":8021:8047  _getAccessControlStorage() */\n      tag_399\n        /* \"@openzeppelin/contracts-upgradeable/access/AccessControlUpgradeable.sol\":8021:8045  _getAccessControlStorage */\n      tag_257\n        /* \"@openzeppelin/contracts-upgradeable/access/AccessControlUpgradeable.sol\":8021:8047  _getAccessControlStorage() */\n      jump\t// in\n    tag_399:\n        /* \"@openzeppelin/contracts-upgradeable/access/AccessControlUpgradeable.sol\":7988:8047  AccessControlStorage storage $ = _getAccessControlStorage() */\n      swap1\n      pop\n        /* \"@openzeppelin/contracts-upgradeable/access/AccessControlUpgradeable.sol\":8061:8083  hasRole(role, account) */\n      tag_400\n        /* \"@openzeppelin/contracts-upgradeable/access/AccessControlUpgradeable.sol\":8069:8073  role */\n      dup5\n        /* \"@openzeppelin/contracts-upgradeable/access/AccessControlUpgradeable.sol\":8075:8082  account */\n      dup5\n        /* \"@openzeppelin/contracts-upgradeable/access/AccessControlUpgradeable.sol\":8061:8068  hasRole */\n      tag_139\n        /* \"@openzeppelin/contracts-upgradeable/access/AccessControlUpgradeable.sol\":8061:8083  hasRole(role, account) */\n      jump\t// in\n    tag_400:\n        /* \"@openzeppelin/contracts-upgradeable/access/AccessControlUpgradeable.sol\":8057:8276  if (hasRole(role, account)) {... */\n      iszero\n      tag_401\n      jumpi\n        /* \"@openzeppelin/contracts-upgradeable/access/AccessControlUpgradeable.sol\":8133:8138  false */\n      0x00\n        /* \"@openzeppelin/contracts-upgradeable/access/AccessControlUpgradeable.sol\":8099:8100  $ */\n      dup2\n        /* \"@openzeppelin/contracts-upgradeable/access/AccessControlUpgradeable.sol\":8099:8107  $._roles */\n      0x00\n      add\n        /* \"@openzeppelin/contracts-upgradeable/access/AccessControlUpgradeable.sol\":8099:8113  $._roles[role] */\n      0x00\n        /* \"@openzeppelin/contracts-upgradeable/access/AccessControlUpgradeable.sol\":8108:8112  role */\n      dup7\n        /* \"@openzeppelin/contracts-upgradeable/access/AccessControlUpgradeable.sol\":8099:8113  $._roles[role] */\n      dup2\n      mstore\n      0x20\n      add\n      swap1\n      dup2\n      mstore\n      0x20\n      add\n      0x00\n      keccak256\n        /* \"@openzeppelin/contracts-upgradeable/access/AccessControlUpgradeable.sol\":8099:8121  $._roles[role].hasRole */\n      0x00\n      add\n        /* \"@openzeppelin/contracts-upgradeable/access/AccessControlUpgradeable.sol\":8099:8130  $._roles[role].hasRole[account] */\n      0x00\n        /* \"@openzeppelin/contracts-upgradeable/access/AccessControlUpgradeable.sol\":8122:8129  account */\n      dup6\n        /* \"@openzeppelin/contracts-upgradeable/access/AccessControlUpgradeable.sol\":8099:8130  $._roles[role].hasRole[account] */\n      0xffffffffffffffffffffffffffffffffffffffff\n      and\n      0xffffffffffffffffffffffffffffffffffffffff\n      and\n      dup2\n      mstore\n      0x20\n      add\n      swap1\n      dup2\n      mstore\n      0x20\n      add\n      0x00\n      keccak256\n      0x00\n        /* \"@openzeppelin/contracts-upgradeable/access/AccessControlUpgradeable.sol\":8099:8138  $._roles[role].hasRole[account] = false */\n      0x0100\n      exp\n      dup2\n      sload\n      dup2\n      0xff\n      mul\n      not\n      and\n      swap1\n      dup4\n      iszero\n      iszero\n      mul\n      or\n      swap1\n      sstore\n      pop\n        /* \"@openzeppelin/contracts-upgradeable/access/AccessControlUpgradeable.sol\":8184:8196  _msgSender() */\n      tag_402\n        /* \"@openzeppelin/contracts-upgradeable/access/AccessControlUpgradeable.sol\":8184:8194  _msgSender */\n      tag_238\n        /* \"@openzeppelin/contracts-upgradeable/access/AccessControlUpgradeable.sol\":8184:8196  _msgSender() */\n      jump\t// in\n    tag_402:\n        /* \"@openzeppelin/contracts-upgradeable/access/AccessControlUpgradeable.sol\":8157:8197  RoleRevoked(role, account, _msgSender()) */\n      0xffffffffffffffffffffffffffffffffffffffff\n      and\n        /* \"@openzeppelin/contracts-upgradeable/access/AccessControlUpgradeable.sol\":8175:8182  account */\n      dup4\n        /* \"@openzeppelin/contracts-upgradeable/access/AccessControlUpgradeable.sol\":8157:8197  RoleRevoked(role, account, _msgSender()) */\n      0xffffffffffffffffffffffffffffffffffffffff\n      and\n        /* \"@openzeppelin/contracts-upgradeable/access/AccessControlUpgradeable.sol\":8169:8173  role */\n      dup6\n        /* \"@openzeppelin/contracts-upgradeable/access/AccessControlUpgradeable.sol\":8157:8197  RoleRevoked(role, account, _msgSender()) */\n      0xf6391f5c32d9c69d2a47ea670b442974b53935d1edc7fd64eb21e047a839171b\n      mload(0x40)\n      mload(0x40)\n      dup1\n      swap2\n      sub\n      swap1\n      log4\n        /* \"@openzeppelin/contracts-upgradeable/access/AccessControlUpgradeable.sol\":8218:8222  true */\n      0x01\n        /* \"@openzeppelin/contracts-upgradeable/access/AccessControlUpgradeable.sol\":8211:8222  return true */\n      swap2\n      pop\n      pop\n      jump(tag_398)\n        /* \"@openzeppelin/contracts-upgradeable/access/AccessControlUpgradeable.sol\":8057:8276  if (hasRole(role, account)) {... */\n    tag_401:\n        /* \"@openzeppelin/contracts-upgradeable/access/AccessControlUpgradeable.sol\":8260:8265  false */\n      0x00\n        /* \"@openzeppelin/contracts-upgradeable/access/AccessControlUpgradeable.sol\":8253:8265  return false */\n      swap2\n      pop\n      pop\n        /* \"@openzeppelin/contracts-upgradeable/access/AccessControlUpgradeable.sol\":7894:8282  function _revokeRole(bytes32 role, address account) internal virtual returns (bool) {... */\n    tag_398:\n      swap3\n      swap2\n      pop\n      pop\n      jump\t// out\n        /* \"@openzeppelin/contracts-upgradeable/token/ERC20/ERC20Upgradeable.sol\":8714:8922  function _mint(address account, uint256 value) internal {... */\n    tag_274:\n        /* \"@openzeppelin/contracts-upgradeable/token/ERC20/ERC20Upgradeable.sol\":8803:8804  0 */\n      0x00\n        /* \"@openzeppelin/contracts-upgradeable/token/ERC20/ERC20Upgradeable.sol\":8784:8805  account == address(0) */\n      0xffffffffffffffffffffffffffffffffffffffff\n      and\n        /* \"@openzeppelin/contracts-upgradeable/token/ERC20/ERC20Upgradeable.sol\":8784:8791  account */\n      dup3\n        /* \"@openzeppelin/contracts-upgradeable/token/ERC20/ERC20Upgradeable.sol\":8784:8805  account == address(0) */\n      0xffffffffffffffffffffffffffffffffffffffff\n      and\n      sub\n        /* \"@openzeppelin/contracts-upgradeable/token/ERC20/ERC20Upgradeable.sol\":8780:8871  if (account == address(0)) {... */\n      tag_405\n      jumpi\n        /* \"@openzeppelin/contracts-upgradeable/token/ERC20/ERC20Upgradeable.sol\":8857:8858  0 */\n      0x00\n        /* \"@openzeppelin/contracts-upgradeable/token/ERC20/ERC20Upgradeable.sol\":8828:8860  ERC20InvalidReceiver(address(0)) */\n      mload(0x40)\n      0xec442f0500000000000000000000000000000000000000000000000000000000\n      dup2\n      mstore\n      0x04\n      add\n      tag_406\n      swap2\n      swap1\n      tag_407\n      jump\t// in\n    tag_406:\n      mload(0x40)\n      dup1\n      swap2\n      sub\n      swap1\n      revert\n        /* \"@openzeppelin/contracts-upgradeable/token/ERC20/ERC20Upgradeable.sol\":8780:8871  if (account == address(0)) {... */\n    tag_405:\n        /* \"@openzeppelin/contracts-upgradeable/token/ERC20/ERC20Upgradeable.sol\":8880:8915  _update(address(0), account, value) */\n      tag_408\n        /* \"@openzeppelin/contracts-upgradeable/token/ERC20/ERC20Upgradeable.sol\":8896:8897  0 */\n      0x00\n        /* \"@openzeppelin/contracts-upgradeable/token/ERC20/ERC20Upgradeable.sol\":8900:8907  account */\n      dup4\n        /* \"@openzeppelin/contracts-upgradeable/token/ERC20/ERC20Upgradeable.sol\":8909:8914  value */\n      dup4\n        /* \"@openzeppelin/contracts-upgradeable/token/ERC20/ERC20Upgradeable.sol\":8880:8887  _update */\n      tag_409\n        /* \"@openzeppelin/contracts-upgradeable/token/ERC20/ERC20Upgradeable.sol\":8880:8915  _update(address(0), account, value) */\n      jump\t// in\n    tag_408:\n        /* \"@openzeppelin/contracts-upgradeable/token/ERC20/ERC20Upgradeable.sol\":8714:8922  function _mint(address account, uint256 value) internal {... */\n      pop\n      pop\n      jump\t// out\n        /* \"@openzeppelin/contracts-upgradeable/token/ERC20/ERC20Upgradeable.sol\":9240:9446  function _burn(address account, uint256 value) internal {... */\n    tag_279:\n        /* \"@openzeppelin/contracts-upgradeable/token/ERC20/ERC20Upgradeable.sol\":9329:9330  0 */\n      0x00\n        /* \"@openzeppelin/contracts-upgradeable/token/ERC20/ERC20Upgradeable.sol\":9310:9331  account == address(0) */\n      0xffffffffffffffffffffffffffffffffffffffff\n      and\n        /* \"@openzeppelin/contracts-upgradeable/token/ERC20/ERC20Upgradeable.sol\":9310:9317  account */\n      dup3\n        /* \"@openzeppelin/contracts-upgradeable/token/ERC20/ERC20Upgradeable.sol\":9310:9331  account == address(0) */\n      0xffffffffffffffffffffffffffffffffffffffff\n      and\n      sub\n        /* \"@openzeppelin/contracts-upgradeable/token/ERC20/ERC20Upgradeable.sol\":9306:9395  if (account == address(0)) {... */\n      tag_411\n      jumpi\n        /* \"@openzeppelin/contracts-upgradeable/token/ERC20/ERC20Upgradeable.sol\":9381:9382  0 */\n      0x00\n        /* \"@openzeppelin/contracts-upgradeable/token/ERC20/ERC20Upgradeable.sol\":9354:9384  ERC20InvalidSender(address(0)) */\n      mload(0x40)\n      0x96c6fd1e00000000000000000000000000000000000000000000000000000000\n      dup2\n      mstore\n      0x04\n      add\n      tag_412\n      swap2\n      swap1\n      tag_407\n      jump\t// in\n    tag_412:\n      mload(0x40)\n      dup1\n      swap2\n      sub\n      swap1\n      revert\n        /* \"@openzeppelin/contracts-upgradeable/token/ERC20/ERC20Upgradeable.sol\":9306:9395  if (account == address(0)) {... */\n    tag_411:\n        /* \"@openzeppelin/contracts-upgradeable/token/ERC20/ERC20Upgradeable.sol\":9404:9439  _update(account, address(0), value) */\n      tag_413\n        /* \"@openzeppelin/contracts-upgradeable/token/ERC20/ERC20Upgradeable.sol\":9412:9419  account */\n      dup3\n        /* \"@openzeppelin/contracts-upgradeable/token/ERC20/ERC20Upgradeable.sol\":9429:9430  0 */\n      0x00\n        /* \"@openzeppelin/contracts-upgradeable/token/ERC20/ERC20Upgradeable.sol\":9433:9438  value */\n      dup4\n        /* \"@openzeppelin/contracts-upgradeable/token/ERC20/ERC20Upgradeable.sol\":9404:9411  _update */\n      tag_409\n        /* \"@openzeppelin/contracts-upgradeable/token/ERC20/ERC20Upgradeable.sol\":9404:9439  _update(account, address(0), value) */\n      jump\t// in\n    tag_413:\n        /* \"@openzeppelin/contracts-upgradeable/token/ERC20/ERC20Upgradeable.sol\":9240:9446  function _burn(address account, uint256 value) internal {... */\n      pop\n      pop\n      jump\t// out\n        /* \"@openzeppelin/contracts-upgradeable/proxy/utils/UUPSUpgradeable.sol\":4578:4890  function _checkProxy() internal view virtual {... */\n    tag_282:\n        /* \"@openzeppelin/contracts-upgradeable/proxy/utils/UUPSUpgradeable.sol\":4667:4673  __self */\n      immutable(\"0x903cf98c709a9afd0d51d5fd348ba936789b2b73452753a58f859a0a579afd\")\n        /* \"@openzeppelin/contracts-upgradeable/proxy/utils/UUPSUpgradeable.sol\":4650:4673  address(this) == __self */\n      0xffffffffffffffffffffffffffffffffffffffff\n      and\n        /* \"@openzeppelin/contracts-upgradeable/proxy/utils/UUPSUpgradeable.sol\":4658:4662  this */\n      address\n        /* \"@openzeppelin/contracts-upgradeable/proxy/utils/UUPSUpgradeable.sol\":4650:4673  address(this) == __self */\n      0xffffffffffffffffffffffffffffffffffffffff\n      and\n      eq\n        /* \"@openzeppelin/contracts-upgradeable/proxy/utils/UUPSUpgradeable.sol\":4650:4770  address(this) == __self || // Must be called through delegatecall... */\n      dup1\n      tag_415\n      jumpi\n      pop\n        /* \"@openzeppelin/contracts-upgradeable/proxy/utils/UUPSUpgradeable.sol\":4764:4770  __self */\n      immutable(\"0x903cf98c709a9afd0d51d5fd348ba936789b2b73452753a58f859a0a579afd\")\n        /* \"@openzeppelin/contracts-upgradeable/proxy/utils/UUPSUpgradeable.sol\":4728:4770  ERC1967Utils.getImplementation() != __self */\n      0xffffffffffffffffffffffffffffffffffffffff\n      and\n        /* \"@openzeppelin/contracts-upgradeable/proxy/utils/UUPSUpgradeable.sol\":4728:4760  ERC1967Utils.getImplementation() */\n      tag_416\n        /* \"@openzeppelin/contracts-upgradeable/proxy/utils/UUPSUpgradeable.sol\":4728:4758  ERC1967Utils.getImplementation */\n      tag_417\n        /* \"@openzeppelin/contracts-upgradeable/proxy/utils/UUPSUpgradeable.sol\":4728:4760  ERC1967Utils.getImplementation() */\n      jump\t// in\n    tag_416:\n        /* \"@openzeppelin/contracts-upgradeable/proxy/utils/UUPSUpgradeable.sol\":4728:4770  ERC1967Utils.getImplementation() != __self */\n      0xffffffffffffffffffffffffffffffffffffffff\n      and\n      eq\n      iszero\n        /* \"@openzeppelin/contracts-upgradeable/proxy/utils/UUPSUpgradeable.sol\":4650:4770  address(this) == __self || // Must be called through delegatecall... */\n    tag_415:\n        /* \"@openzeppelin/contracts-upgradeable/proxy/utils/UUPSUpgradeable.sol\":4633:4884  if (... */\n      iszero\n      tag_418\n      jumpi\n        /* \"@openzeppelin/contracts-upgradeable/proxy/utils/UUPSUpgradeable.sol\":4844:4873  UUPSUnauthorizedCallContext() */\n      mload(0x40)\n      0xe07c8dba00000000000000000000000000000000000000000000000000000000\n      dup2\n      mstore\n      0x04\n      add\n      mload(0x40)\n      dup1\n      swap2\n      sub\n      swap1\n      revert\n        /* \"@openzeppelin/contracts-upgradeable/proxy/utils/UUPSUpgradeable.sol\":4633:4884  if (... */\n    tag_418:\n        /* \"@openzeppelin/contracts-upgradeable/proxy/utils/UUPSUpgradeable.sol\":4578:4890  function _checkProxy() internal view virtual {... */\n      jump\t// out\n        /* \"contracts/KFShares.sol\":4217:4315  function _authorizeUpgrade(address newImplementation) internal override onlyRole(UPGRADER_ROLE) {} */\n    tag_285:\n        /* \"contracts/KFShares.sol\":588:614  keccak256(\"UPGRADER_ROLE\") */\n      0x189ab7a9244df0848122154315af71fe140f3db0fe014031783b0946b8c9d2e3\n        /* \"@openzeppelin/contracts-upgradeable/access/AccessControlUpgradeable.sol\":3191:3207  _checkRole(role) */\n      tag_420\n        /* \"@openzeppelin/contracts-upgradeable/access/AccessControlUpgradeable.sol\":3202:3206  role */\n      dup2\n        /* \"@openzeppelin/contracts-upgradeable/access/AccessControlUpgradeable.sol\":3191:3201  _checkRole */\n      tag_223\n        /* \"@openzeppelin/contracts-upgradeable/access/AccessControlUpgradeable.sol\":3191:3207  _checkRole(role) */\n      jump\t// in\n    tag_420:\n        /* \"contracts/KFShares.sol\":4217:4315  function _authorizeUpgrade(address newImplementation) internal override onlyRole(UPGRADER_ROLE) {} */\n      pop\n      pop\n      jump\t// out\n        /* \"@openzeppelin/contracts-upgradeable/proxy/utils/UUPSUpgradeable.sol\":6032:6570  function _upgradeToAndCallUUPS(address newImplementation, bytes memory data) private {... */\n    tag_287:\n        /* \"@openzeppelin/contracts-upgradeable/proxy/utils/UUPSUpgradeable.sol\":6149:6166  newImplementation */\n      dup2\n        /* \"@openzeppelin/contracts-upgradeable/proxy/utils/UUPSUpgradeable.sol\":6131:6181  IERC1822Proxiable(newImplementation).proxiableUUID */\n      0xffffffffffffffffffffffffffffffffffffffff\n      and\n      0x52d1902d\n        /* \"@openzeppelin/contracts-upgradeable/proxy/utils/UUPSUpgradeable.sol\":6131:6183  IERC1822Proxiable(newImplementation).proxiableUUID() */\n      mload(0x40)\n      dup2\n      0xffffffff\n      and\n      0xe0\n      shl\n      dup2\n      mstore\n      0x04\n      add\n      0x20\n      mload(0x40)\n      dup1\n      dup4\n      sub\n      dup2\n      dup7\n      gas\n      staticcall\n      swap3\n      pop\n      pop\n      pop\n      dup1\n      iszero\n      tag_423\n      jumpi\n      pop\n      mload(0x40)\n      returndatasize\n      not(0x1f)\n      0x1f\n      dup3\n      add\n      and\n      dup3\n      add\n      dup1\n      0x40\n      mstore\n      pop\n      dup2\n      add\n      swap1\n      tag_424\n      swap2\n      swap1\n      tag_425\n      jump\t// in\n    tag_424:\n      0x01\n    tag_423:\n        /* \"@openzeppelin/contracts-upgradeable/proxy/utils/UUPSUpgradeable.sol\":6127:6564  try IERC1822Proxiable(newImplementation).proxiableUUID() returns (bytes32 slot) {... */\n      tag_426\n      jumpi\n        /* \"@openzeppelin/contracts-upgradeable/proxy/utils/UUPSUpgradeable.sol\":6535:6552  newImplementation */\n      dup2\n        /* \"@openzeppelin/contracts-upgradeable/proxy/utils/UUPSUpgradeable.sol\":6493:6553  ERC1967Utils.ERC1967InvalidImplementation(newImplementation) */\n      mload(0x40)\n      0x4c9c8ce300000000000000000000000000000000000000000000000000000000\n      dup2\n      mstore\n      0x04\n      add\n      tag_430\n      swap2\n      swap1\n      tag_407\n      jump\t// in\n    tag_430:\n      mload(0x40)\n      dup1\n      swap2\n      sub\n      swap1\n      revert\n        /* \"@openzeppelin/contracts-upgradeable/proxy/utils/UUPSUpgradeable.sol\":6127:6564  try IERC1822Proxiable(newImplementation).proxiableUUID() returns (bytes32 slot) {... */\n    tag_426:\n        /* \"@openzeppelin/contracts/proxy/ERC1967/ERC1967Utils.sol\":811:877  0x360894a13ba1a3210667c828492db98dca3e2076cc3735a920a3ca505d382bbc */\n      0x360894a13ba1a3210667c828492db98dca3e2076cc3735a920a3ca505d382bbc\n        /* \"@openzeppelin/contracts-upgradeable/proxy/utils/UUPSUpgradeable.sol\":6233:6265  ERC1967Utils.IMPLEMENTATION_SLOT */\n      0x00\n      shl\n        /* \"@openzeppelin/contracts-upgradeable/proxy/utils/UUPSUpgradeable.sol\":6225:6229  slot */\n      dup2\n        /* \"@openzeppelin/contracts-upgradeable/proxy/utils/UUPSUpgradeable.sol\":6225:6265  slot != ERC1967Utils.IMPLEMENTATION_SLOT */\n      eq\n        /* \"@openzeppelin/contracts-upgradeable/proxy/utils/UUPSUpgradeable.sol\":6221:6341  if (slot != ERC1967Utils.IMPLEMENTATION_SLOT) {... */\n      tag_432\n      jumpi\n        /* \"@openzeppelin/contracts-upgradeable/proxy/utils/UUPSUpgradeable.sol\":6321:6325  slot */\n      dup1\n        /* \"@openzeppelin/contracts-upgradeable/proxy/utils/UUPSUpgradeable.sol\":6292:6326  UUPSUnsupportedProxiableUUID(slot) */\n      mload(0x40)\n      0xaa1d49a400000000000000000000000000000000000000000000000000000000\n      dup2\n      mstore\n      0x04\n      add\n      tag_433\n      swap2\n      swap1\n      tag_84\n      jump\t// in\n    tag_433:\n      mload(0x40)\n      dup1\n      swap2\n      sub\n      swap1\n      revert\n        /* \"@openzeppelin/contracts-upgradeable/proxy/utils/UUPSUpgradeable.sol\":6221:6341  if (slot != ERC1967Utils.IMPLEMENTATION_SLOT) {... */\n    tag_432:\n        /* \"@openzeppelin/contracts-upgradeable/proxy/utils/UUPSUpgradeable.sol\":6354:6408  ERC1967Utils.upgradeToAndCall(newImplementation, data) */\n      tag_434\n        /* \"@openzeppelin/contracts-upgradeable/proxy/utils/UUPSUpgradeable.sol\":6384:6401  newImplementation */\n      dup4\n        /* \"@openzeppelin/contracts-upgradeable/proxy/utils/UUPSUpgradeable.sol\":6403:6407  data */\n      dup4\n        /* \"@openzeppelin/contracts-upgradeable/proxy/utils/UUPSUpgradeable.sol\":6354:6383  ERC1967Utils.upgradeToAndCall */\n      tag_435\n        /* \"@openzeppelin/contracts-upgradeable/proxy/utils/UUPSUpgradeable.sol\":6354:6408  ERC1967Utils.upgradeToAndCall(newImplementation, data) */\n      jump\t// in\n    tag_434:\n        /* \"@openzeppelin/contracts-upgradeable/proxy/utils/UUPSUpgradeable.sol\":6184:6419  returns (bytes32 slot) {... */\n      pop\n        /* \"@openzeppelin/contracts-upgradeable/proxy/utils/UUPSUpgradeable.sol\":6032:6570  function _upgradeToAndCallUUPS(address newImplementation, bytes memory data) private {... */\n      pop\n      pop\n      jump\t// out\n        /* \"@openzeppelin/contracts-upgradeable/proxy/utils/UUPSUpgradeable.sol\":5007:5220  function _checkNotDelegated() internal view virtual {... */\n    tag_290:\n        /* \"@openzeppelin/contracts-upgradeable/proxy/utils/UUPSUpgradeable.sol\":5090:5096  __self */\n      immutable(\"0x903cf98c709a9afd0d51d5fd348ba936789b2b73452753a58f859a0a579afd\")\n        /* \"@openzeppelin/contracts-upgradeable/proxy/utils/UUPSUpgradeable.sol\":5073:5096  address(this) != __self */\n      0xffffffffffffffffffffffffffffffffffffffff\n      and\n        /* \"@openzeppelin/contracts-upgradeable/proxy/utils/UUPSUpgradeable.sol\":5081:5085  this */\n      address\n        /* \"@openzeppelin/contracts-upgradeable/proxy/utils/UUPSUpgradeable.sol\":5073:5096  address(this) != __self */\n      0xffffffffffffffffffffffffffffffffffffffff\n      and\n      eq\n        /* \"@openzeppelin/contracts-upgradeable/proxy/utils/UUPSUpgradeable.sol\":5069:5214  if (address(this) != __self) {... */\n      tag_437\n      jumpi\n        /* \"@openzeppelin/contracts-upgradeable/proxy/utils/UUPSUpgradeable.sol\":5174:5203  UUPSUnauthorizedCallContext() */\n      mload(0x40)\n      0xe07c8dba00000000000000000000000000000000000000000000000000000000\n      dup2\n      mstore\n      0x04\n      add\n      mload(0x40)\n      dup1\n      swap2\n      sub\n      swap1\n      revert\n        /* \"@openzeppelin/contracts-upgradeable/proxy/utils/UUPSUpgradeable.sol\":5069:5214  if (address(this) != __self) {... */\n    tag_437:\n        /* \"@openzeppelin/contracts-upgradeable/proxy/utils/UUPSUpgradeable.sol\":5007:5220  function _checkNotDelegated() internal view virtual {... */\n      jump\t// out\n        /* \"@openzeppelin/contracts-upgradeable/token/ERC20/ERC20Upgradeable.sol\":6586:6886  function _transfer(address from, address to, uint256 value) internal {... */\n    tag_318:\n        /* \"@openzeppelin/contracts-upgradeable/token/ERC20/ERC20Upgradeable.sol\":6685:6686  0 */\n      0x00\n        /* \"@openzeppelin/contracts-upgradeable/token/ERC20/ERC20Upgradeable.sol\":6669:6687  from == address(0) */\n      0xffffffffffffffffffffffffffffffffffffffff\n      and\n        /* \"@openzeppelin/contracts-upgradeable/token/ERC20/ERC20Upgradeable.sol\":6669:6673  from */\n      dup4\n        /* \"@openzeppelin/contracts-upgradeable/token/ERC20/ERC20Upgradeable.sol\":6669:6687  from == address(0) */\n      0xffffffffffffffffffffffffffffffffffffffff\n      and\n      sub\n        /* \"@openzeppelin/contracts-upgradeable/token/ERC20/ERC20Upgradeable.sol\":6665:6751  if (from == address(0)) {... */\n      tag_439\n      jumpi\n        /* \"@openzeppelin/contracts-upgradeable/token/ERC20/ERC20Upgradeable.sol\":6737:6738  0 */\n      0x00\n        /* \"@openzeppelin/contracts-upgradeable/token/ERC20/ERC20Upgradeable.sol\":6710:6740  ERC20InvalidSender(address(0)) */\n      mload(0x40)\n      0x96c6fd1e00000000000000000000000000000000000000000000000000000000\n      dup2\n      mstore\n      0x04\n      add\n      tag_440\n      swap2\n      swap1\n      tag_407\n      jump\t// in\n    tag_440:\n      mload(0x40)\n      dup1\n      swap2\n      sub\n      swap1\n      revert\n        /* \"@openzeppelin/contracts-upgradeable/token/ERC20/ERC20Upgradeable.sol\":6665:6751  if (from == address(0)) {... */\n    tag_439:\n        /* \"@openzeppelin/contracts-upgradeable/token/ERC20/ERC20Upgradeable.sol\":6778:6779  0 */\n      0x00\n        /* \"@openzeppelin/contracts-upgradeable/token/ERC20/ERC20Upgradeable.sol\":6764:6780  to == address(0) */\n      0xffffffffffffffffffffffffffffffffffffffff\n      and\n        /* \"@openzeppelin/contracts-upgradeable/token/ERC20/ERC20Upgradeable.sol\":6764:6766  to */\n      dup3\n        /* \"@openzeppelin/contracts-upgradeable/token/ERC20/ERC20Upgradeable.sol\":6764:6780  to == address(0) */\n      0xffffffffffffffffffffffffffffffffffffffff\n      and\n      sub\n        /* \"@openzeppelin/contracts-upgradeable/token/ERC20/ERC20Upgradeable.sol\":6760:6846  if (to == address(0)) {... */\n      tag_441\n      jumpi\n        /* \"@openzeppelin/contracts-upgradeable/token/ERC20/ERC20Upgradeable.sol\":6832:6833  0 */\n      0x00\n        /* \"@openzeppelin/contracts-upgradeable/token/ERC20/ERC20Upgradeable.sol\":6803:6835  ERC20InvalidReceiver(address(0)) */\n      mload(0x40)\n      0xec442f0500000000000000000000000000000000000000000000000000000000\n      dup2\n      mstore\n      0x04\n      add\n      tag_442\n      swap2\n      swap1\n      tag_407\n      jump\t// in\n    tag_442:\n      mload(0x40)\n      dup1\n      swap2\n      sub\n      swap1\n      revert\n        /* \"@openzeppelin/contracts-upgradeable/token/ERC20/ERC20Upgradeable.sol\":6760:6846  if (to == address(0)) {... */\n    tag_441:\n        /* \"@openzeppelin/contracts-upgradeable/token/ERC20/ERC20Upgradeable.sol\":6855:6879  _update(from, to, value) */\n      tag_443\n        /* \"@openzeppelin/contracts-upgradeable/token/ERC20/ERC20Upgradeable.sol\":6863:6867  from */\n      dup4\n        /* \"@openzeppelin/contracts-upgradeable/token/ERC20/ERC20Upgradeable.sol\":6869:6871  to */\n      dup4\n        /* \"@openzeppelin/contracts-upgradeable/token/ERC20/ERC20Upgradeable.sol\":6873:6878  value */\n      dup4\n        /* \"@openzeppelin/contracts-upgradeable/token/ERC20/ERC20Upgradeable.sol\":6855:6862  _update */\n      tag_409\n        /* \"@openzeppelin/contracts-upgradeable/token/ERC20/ERC20Upgradeable.sol\":6855:6879  _update(from, to, value) */\n      jump\t// in\n    tag_443:\n        /* \"@openzeppelin/contracts-upgradeable/token/ERC20/ERC20Upgradeable.sol\":6586:6886  function _transfer(address from, address to, uint256 value) internal {... */\n      pop\n      pop\n      pop\n      jump\t// out\n        /* \"@openzeppelin/contracts-upgradeable/token/ERC20/ERC20Upgradeable.sol\":4453:4631  function transfer(address to, uint256 value) public virtual returns (bool) {... */\n    tag_333:\n        /* \"@openzeppelin/contracts-upgradeable/token/ERC20/ERC20Upgradeable.sol\":4522:4526  bool */\n      0x00\n        /* \"@openzeppelin/contracts-upgradeable/token/ERC20/ERC20Upgradeable.sol\":4538:4551  address owner */\n      0x00\n        /* \"@openzeppelin/contracts-upgradeable/token/ERC20/ERC20Upgradeable.sol\":4554:4566  _msgSender() */\n      tag_445\n        /* \"@openzeppelin/contracts-upgradeable/token/ERC20/ERC20Upgradeable.sol\":4554:4564  _msgSender */\n      tag_238\n        /* \"@openzeppelin/contracts-upgradeable/token/ERC20/ERC20Upgradeable.sol\":4554:4566  _msgSender() */\n      jump\t// in\n    tag_445:\n        /* \"@openzeppelin/contracts-upgradeable/token/ERC20/ERC20Upgradeable.sol\":4538:4566  address owner = _msgSender() */\n      swap1\n      pop\n        /* \"@openzeppelin/contracts-upgradeable/token/ERC20/ERC20Upgradeable.sol\":4576:4603  _transfer(owner, to, value) */\n      tag_446\n        /* \"@openzeppelin/contracts-upgradeable/token/ERC20/ERC20Upgradeable.sol\":4586:4591  owner */\n      dup2\n        /* \"@openzeppelin/contracts-upgradeable/token/ERC20/ERC20Upgradeable.sol\":4593:4595  to */\n      dup6\n        /* \"@openzeppelin/contracts-upgradeable/token/ERC20/ERC20Upgradeable.sol\":4597:4602  value */\n      dup6\n        /* \"@openzeppelin/contracts-upgradeable/token/ERC20/ERC20Upgradeable.sol\":4576:4585  _transfer */\n      tag_318\n        /* \"@openzeppelin/contracts-upgradeable/token/ERC20/ERC20Upgradeable.sol\":4576:4603  _transfer(owner, to, value) */\n      jump\t// in\n    tag_446:\n        /* \"@openzeppelin/contracts-upgradeable/token/ERC20/ERC20Upgradeable.sol\":4620:4624  true */\n      0x01\n        /* \"@openzeppelin/contracts-upgradeable/token/ERC20/ERC20Upgradeable.sol\":4613:4624  return true */\n      swap2\n      pop\n      pop\n        /* \"@openzeppelin/contracts-upgradeable/token/ERC20/ERC20Upgradeable.sol\":4453:4631  function transfer(address to, uint256 value) public virtual returns (bool) {... */\n      swap3\n      swap2\n      pop\n      pop\n      jump\t// out\n        /* \"@openzeppelin/contracts-upgradeable/proxy/utils/Initializable.sol\":9071:9276  function _getInitializableStorage() private pure returns (InitializableStorage storage $) {... */\n    tag_349:\n        /* \"@openzeppelin/contracts-upgradeable/proxy/utils/Initializable.sol\":9129:9159  InitializableStorage storage $ */\n      0x00\n        /* \"@openzeppelin/contracts-upgradeable/proxy/utils/Initializable.sol\":9171:9183  bytes32 slot */\n      0x00\n        /* \"@openzeppelin/contracts-upgradeable/proxy/utils/Initializable.sol\":9186:9213  _initializableStorageSlot() */\n      tag_448\n        /* \"@openzeppelin/contracts-upgradeable/proxy/utils/Initializable.sol\":9186:9211  _initializableStorageSlot */\n      tag_449\n        /* \"@openzeppelin/contracts-upgradeable/proxy/utils/Initializable.sol\":9186:9213  _initializableStorageSlot() */\n      jump\t// in\n    tag_448:\n        /* \"@openzeppelin/contracts-upgradeable/proxy/utils/Initializable.sol\":9171:9213  bytes32 slot = _initializableStorageSlot() */\n      swap1\n      pop\n        /* \"@openzeppelin/contracts-upgradeable/proxy/utils/Initializable.sol\":9256:9260  slot */\n      dup1\n        /* \"@openzeppelin/contracts-upgradeable/proxy/utils/Initializable.sol\":9246:9260  $.slot := slot */\n      swap2\n      pop\n        /* \"@openzeppelin/contracts-upgradeable/proxy/utils/Initializable.sol\":9232:9270  {... */\n      pop\n        /* \"@openzeppelin/contracts-upgradeable/proxy/utils/Initializable.sol\":9071:9276  function _getInitializableStorage() private pure returns (InitializableStorage storage $) {... */\n      swap1\n      jump\t// out\n        /* \"@openzeppelin/contracts-upgradeable/token/ERC20/ERC20Upgradeable.sol\":2263:2410  function __ERC20_init(string memory name_, string memory symbol_) internal onlyInitializing {... */\n    tag_360:\n        /* \"@openzeppelin/contracts-upgradeable/proxy/utils/Initializable.sol\":6929:6949  _checkInitializing() */\n      tag_451\n        /* \"@openzeppelin/contracts-upgradeable/proxy/utils/Initializable.sol\":6929:6947  _checkInitializing */\n      tag_452\n        /* \"@openzeppelin/contracts-upgradeable/proxy/utils/Initializable.sol\":6929:6949  _checkInitializing() */\n      jump\t// in\n    tag_451:\n        /* \"@openzeppelin/contracts-upgradeable/token/ERC20/ERC20Upgradeable.sol\":2365:2403  __ERC20_init_unchained(name_, symbol_) */\n      tag_454\n        /* \"@openzeppelin/contracts-upgradeable/token/ERC20/ERC20Upgradeable.sol\":2388:2393  name_ */\n      dup3\n        /* \"@openzeppelin/contracts-upgradeable/token/ERC20/ERC20Upgradeable.sol\":2395:2402  symbol_ */\n      dup3\n        /* \"@openzeppelin/contracts-upgradeable/token/ERC20/ERC20Upgradeable.sol\":2365:2387  __ERC20_init_unchained */\n      tag_455\n        /* \"@openzeppelin/contracts-upgradeable/token/ERC20/ERC20Upgradeable.sol\":2365:2403  __ERC20_init_unchained(name_, symbol_) */\n      jump\t// in\n    tag_454:\n        /* \"@openzeppelin/contracts-upgradeable/token/ERC20/ERC20Upgradeable.sol\":2263:2410  function __ERC20_init(string memory name_, string memory symbol_) internal onlyInitializing {... */\n      pop\n      pop\n      jump\t// out\n        /* \"@openzeppelin/contracts-upgradeable/access/AccessControlUpgradeable.sol\":3231:3296  function __AccessControl_init() internal onlyInitializing {... */\n    tag_362:\n        /* \"@openzeppelin/contracts-upgradeable/proxy/utils/Initializable.sol\":6929:6949  _checkInitializing() */\n      tag_457\n        /* \"@openzeppelin/contracts-upgradeable/proxy/utils/Initializable.sol\":6929:6947  _checkInitializing */\n      tag_452\n        /* \"@openzeppelin/contracts-upgradeable/proxy/utils/Initializable.sol\":6929:6949  _checkInitializing() */\n      jump\t// in\n    tag_457:\n        /* \"@openzeppelin/contracts-upgradeable/access/AccessControlUpgradeable.sol\":3231:3296  function __AccessControl_init() internal onlyInitializing {... */\n      jump\t// out\n        /* \"@openzeppelin/contracts-upgradeable/proxy/utils/UUPSUpgradeable.sol\":2970:3037  function __UUPSUpgradeable_init() internal onlyInitializing {... */\n    tag_364:\n        /* \"@openzeppelin/contracts-upgradeable/proxy/utils/Initializable.sol\":6929:6949  _checkInitializing() */\n      tag_460\n        /* \"@openzeppelin/contracts-upgradeable/proxy/utils/Initializable.sol\":6929:6947  _checkInitializing */\n      tag_452\n        /* \"@openzeppelin/contracts-upgradeable/proxy/utils/Initializable.sol\":6929:6949  _checkInitializing() */\n      jump\t// in\n    tag_460:\n        /* \"@openzeppelin/contracts-upgradeable/proxy/utils/UUPSUpgradeable.sol\":2970:3037  function __UUPSUpgradeable_init() internal onlyInitializing {... */\n      jump\t// out\n        /* \"@openzeppelin/contracts-upgradeable/access/AccessControlUpgradeable.sol\":4381:4578  function _checkRole(bytes32 role, address account) internal view virtual {... */\n    tag_380:\n        /* \"@openzeppelin/contracts-upgradeable/access/AccessControlUpgradeable.sol\":4469:4491  hasRole(role, account) */\n      tag_463\n        /* \"@openzeppelin/contracts-upgradeable/access/AccessControlUpgradeable.sol\":4477:4481  role */\n      dup3\n        /* \"@openzeppelin/contracts-upgradeable/access/AccessControlUpgradeable.sol\":4483:4490  account */\n      dup3\n        /* \"@openzeppelin/contracts-upgradeable/access/AccessControlUpgradeable.sol\":4469:4476  hasRole */\n      tag_139\n        /* \"@openzeppelin/contracts-upgradeable/access/AccessControlUpgradeable.sol\":4469:4491  hasRole(role, account) */\n      jump\t// in\n    tag_463:\n        /* \"@openzeppelin/contracts-upgradeable/access/AccessControlUpgradeable.sol\":4464:4572  if (!hasRole(role, account)) {... */\n      tag_464\n      jumpi\n        /* \"@openzeppelin/contracts-upgradeable/access/AccessControlUpgradeable.sol\":4547:4554  account */\n      dup1\n        /* \"@openzeppelin/contracts-upgradeable/access/AccessControlUpgradeable.sol\":4556:4560  role */\n      dup3\n        /* \"@openzeppelin/contracts-upgradeable/access/AccessControlUpgradeable.sol\":4514:4561  AccessControlUnauthorizedAccount(account, role) */\n      mload(0x40)\n      0xe2517d3f00000000000000000000000000000000000000000000000000000000\n      dup2\n      mstore\n      0x04\n      add\n      tag_465\n      swap3\n      swap2\n      swap1\n      tag_466\n      jump\t// in\n    tag_465:\n      mload(0x40)\n      dup1\n      swap2\n      sub\n      swap1\n      revert\n        /* \"@openzeppelin/contracts-upgradeable/access/AccessControlUpgradeable.sol\":4464:4572  if (!hasRole(role, account)) {... */\n    tag_464:\n        /* \"@openzeppelin/contracts-upgradeable/access/AccessControlUpgradeable.sol\":4381:4578  function _checkRole(bytes32 role, address account) internal view virtual {... */\n      pop\n      pop\n      jump\t// out\n        /* \"@openzeppelin/contracts-upgradeable/token/ERC20/ERC20Upgradeable.sol\":10957:11444  function _approve(address owner, address spender, uint256 value, bool emitEvent) internal virtual {... */\n    tag_385:\n        /* \"@openzeppelin/contracts-upgradeable/token/ERC20/ERC20Upgradeable.sol\":11065:11087  ERC20Storage storage $ */\n      0x00\n        /* \"@openzeppelin/contracts-upgradeable/token/ERC20/ERC20Upgradeable.sol\":11090:11108  _getERC20Storage() */\n      tag_468\n        /* \"@openzeppelin/contracts-upgradeable/token/ERC20/ERC20Upgradeable.sol\":11090:11106  _getERC20Storage */\n      tag_229\n        /* \"@openzeppelin/contracts-upgradeable/token/ERC20/ERC20Upgradeable.sol\":11090:11108  _getERC20Storage() */\n      jump\t// in\n    tag_468:\n        /* \"@openzeppelin/contracts-upgradeable/token/ERC20/ERC20Upgradeable.sol\":11065:11108  ERC20Storage storage $ = _getERC20Storage() */\n      swap1\n      pop\n        /* \"@openzeppelin/contracts-upgradeable/token/ERC20/ERC20Upgradeable.sol\":11139:11140  0 */\n      0x00\n        /* \"@openzeppelin/contracts-upgradeable/token/ERC20/ERC20Upgradeable.sol\":11122:11141  owner == address(0) */\n      0xffffffffffffffffffffffffffffffffffffffff\n      and\n        /* \"@openzeppelin/contracts-upgradeable/token/ERC20/ERC20Upgradeable.sol\":11122:11127  owner */\n      dup6\n        /* \"@openzeppelin/contracts-upgradeable/token/ERC20/ERC20Upgradeable.sol\":11122:11141  owner == address(0) */\n      0xffffffffffffffffffffffffffffffffffffffff\n      and\n      sub\n        /* \"@openzeppelin/contracts-upgradeable/token/ERC20/ERC20Upgradeable.sol\":11118:11207  if (owner == address(0)) {... */\n      tag_469\n      jumpi\n        /* \"@openzeppelin/contracts-upgradeable/token/ERC20/ERC20Upgradeable.sol\":11193:11194  0 */\n      0x00\n        /* \"@openzeppelin/contracts-upgradeable/token/ERC20/ERC20Upgradeable.sol\":11164:11196  ERC20InvalidApprover(address(0)) */\n      mload(0x40)\n      0xe602df0500000000000000000000000000000000000000000000000000000000\n      dup2\n      mstore\n      0x04\n      add\n      tag_470\n      swap2\n      swap1\n      tag_407\n      jump\t// in\n    tag_470:\n      mload(0x40)\n      dup1\n      swap2\n      sub\n      swap1\n      revert\n        /* \"@openzeppelin/contracts-upgradeable/token/ERC20/ERC20Upgradeable.sol\":11118:11207  if (owner == address(0)) {... */\n    tag_469:\n        /* \"@openzeppelin/contracts-upgradeable/token/ERC20/ERC20Upgradeable.sol\":11239:11240  0 */\n      0x00\n        /* \"@openzeppelin/contracts-upgradeable/token/ERC20/ERC20Upgradeable.sol\":11220:11241  spender == address(0) */\n      0xffffffffffffffffffffffffffffffffffffffff\n      and\n        /* \"@openzeppelin/contracts-upgradeable/token/ERC20/ERC20Upgradeable.sol\":11220:11227  spender */\n      dup5\n        /* \"@openzeppelin/contracts-upgradeable/token/ERC20/ERC20Upgradeable.sol\":11220:11241  spender == address(0) */\n      0xffffffffffffffffffffffffffffffffffffffff\n      and\n      sub\n        /* \"@openzeppelin/contracts-upgradeable/token/ERC20/ERC20Upgradeable.sol\":11216:11306  if (spender == address(0)) {... */\n      tag_471\n      jumpi\n        /* \"@openzeppelin/contracts-upgradeable/token/ERC20/ERC20Upgradeable.sol\":11292:11293  0 */\n      0x00\n        /* \"@openzeppelin/contracts-upgradeable/token/ERC20/ERC20Upgradeable.sol\":11264:11295  ERC20InvalidSpender(address(0)) */\n      mload(0x40)\n      0x94280d6200000000000000000000000000000000000000000000000000000000\n      dup2\n      mstore\n      0x04\n      add\n      tag_472\n      swap2\n      swap1\n      tag_407\n      jump\t// in\n    tag_472:\n      mload(0x40)\n      dup1\n      swap2\n      sub\n      swap1\n      revert\n        /* \"@openzeppelin/contracts-upgradeable/token/ERC20/ERC20Upgradeable.sol\":11216:11306  if (spender == address(0)) {... */\n    tag_471:\n        /* \"@openzeppelin/contracts-upgradeable/token/ERC20/ERC20Upgradeable.sol\":11347:11352  value */\n      dup3\n        /* \"@openzeppelin/contracts-upgradeable/token/ERC20/ERC20Upgradeable.sol\":11315:11316  $ */\n      dup2\n        /* \"@openzeppelin/contracts-upgradeable/token/ERC20/ERC20Upgradeable.sol\":11315:11328  $._allowances */\n      0x01\n      add\n        /* \"@openzeppelin/contracts-upgradeable/token/ERC20/ERC20Upgradeable.sol\":11315:11335  $._allowances[owner] */\n      0x00\n        /* \"@openzeppelin/contracts-upgradeable/token/ERC20/ERC20Upgradeable.sol\":11329:11334  owner */\n      dup8\n        /* \"@openzeppelin/contracts-upgradeable/token/ERC20/ERC20Upgradeable.sol\":11315:11335  $._allowances[owner] */\n      0xffffffffffffffffffffffffffffffffffffffff\n      and\n      0xffffffffffffffffffffffffffffffffffffffff\n      and\n      dup2\n      mstore\n      0x20\n      add\n      swap1\n      dup2\n      mstore\n      0x20\n      add\n      0x00\n      keccak256\n        /* \"@openzeppelin/contracts-upgradeable/token/ERC20/ERC20Upgradeable.sol\":11315:11344  $._allowances[owner][spender] */\n      0x00\n        /* \"@openzeppelin/contracts-upgradeable/token/ERC20/ERC20Upgradeable.sol\":11336:11343  spender */\n      dup7\n        /* \"@openzeppelin/contracts-upgradeable/token/ERC20/ERC20Upgradeable.sol\":11315:11344  $._allowances[owner][spender] */\n      0xffffffffffffffffffffffffffffffffffffffff\n      and\n      0xffffffffffffffffffffffffffffffffffffffff\n      and\n      dup2\n      mstore\n      0x20\n      add\n      swap1\n      dup2\n      mstore\n      0x20\n      add\n      0x00\n      keccak256\n        /* \"@openzeppelin/contracts-upgradeable/token/ERC20/ERC20Upgradeable.sol\":11315:11352  $._allowances[owner][spender] = value */\n      dup2\n      swap1\n      sstore\n      pop\n        /* \"@openzeppelin/contracts-upgradeable/token/ERC20/ERC20Upgradeable.sol\":11366:11375  emitEvent */\n      dup2\n        /* \"@openzeppelin/contracts-upgradeable/token/ERC20/ERC20Upgradeable.sol\":11362:11438  if (emitEvent) {... */\n      iszero\n      tag_473\n      jumpi\n        /* \"@openzeppelin/contracts-upgradeable/token/ERC20/ERC20Upgradeable.sol\":11412:11419  spender */\n      dup4\n        /* \"@openzeppelin/contracts-upgradeable/token/ERC20/ERC20Upgradeable.sol\":11396:11427  Approval(owner, spender, value) */\n      0xffffffffffffffffffffffffffffffffffffffff\n      and\n        /* \"@openzeppelin/contracts-upgradeable/token/ERC20/ERC20Upgradeable.sol\":11405:11410  owner */\n      dup6\n        /* \"@openzeppelin/contracts-upgradeable/token/ERC20/ERC20Upgradeable.sol\":11396:11427  Approval(owner, spender, value) */\n      0xffffffffffffffffffffffffffffffffffffffff\n      and\n      0x8c5be1e5ebec7d5bd14f71427d1e84f3dd0314c0f7b2291e5b200ac8c7c3b925\n        /* \"@openzeppelin/contracts-upgradeable/token/ERC20/ERC20Upgradeable.sol\":11421:11426  value */\n      dup6\n        /* \"@openzeppelin/contracts-upgradeable/token/ERC20/ERC20Upgradeable.sol\":11396:11427  Approval(owner, spender, value) */\n      mload(0x40)\n      tag_474\n      swap2\n      swap1\n      tag_71\n      jump\t// in\n    tag_474:\n      mload(0x40)\n      dup1\n      swap2\n      sub\n      swap1\n      log3\n        /* \"@openzeppelin/contracts-upgradeable/token/ERC20/ERC20Upgradeable.sol\":11362:11438  if (emitEvent) {... */\n    tag_473:\n        /* \"@openzeppelin/contracts-upgradeable/token/ERC20/ERC20Upgradeable.sol\":11055:11444  {... */\n      pop\n        /* \"@openzeppelin/contracts-upgradeable/token/ERC20/ERC20Upgradeable.sol\":10957:11444  function _approve(address owner, address spender, uint256 value, bool emitEvent) internal virtual {... */\n      pop\n      pop\n      pop\n      pop\n      jump\t// out\n        /* \"@openzeppelin/contracts-upgradeable/token/ERC20/ERC20Upgradeable.sol\":11726:12202  function _spendAllowance(address owner, address spender, uint256 value) internal virtual {... */\n    tag_389:\n        /* \"@openzeppelin/contracts-upgradeable/token/ERC20/ERC20Upgradeable.sol\":11825:11849  uint256 currentAllowance */\n      0x00\n        /* \"@openzeppelin/contracts-upgradeable/token/ERC20/ERC20Upgradeable.sol\":11852:11877  allowance(owner, spender) */\n      tag_476\n        /* \"@openzeppelin/contracts-upgradeable/token/ERC20/ERC20Upgradeable.sol\":11862:11867  owner */\n      dup5\n        /* \"@openzeppelin/contracts-upgradeable/token/ERC20/ERC20Upgradeable.sol\":11869:11876  spender */\n      dup5\n        /* \"@openzeppelin/contracts-upgradeable/token/ERC20/ERC20Upgradeable.sol\":11852:11861  allowance */\n      tag_189\n        /* \"@openzeppelin/contracts-upgradeable/token/ERC20/ERC20Upgradeable.sol\":11852:11877  allowance(owner, spender) */\n      jump\t// in\n    tag_476:\n        /* \"@openzeppelin/contracts-upgradeable/token/ERC20/ERC20Upgradeable.sol\":11825:11877  uint256 currentAllowance = allowance(owner, spender) */\n      swap1\n      pop\n        /* \"@openzeppelin/contracts-upgradeable/token/ERC20/ERC20Upgradeable.sol\":11910:11927  type(uint256).max */\n      0xffffffffffffffffffffffffffffffffffffffffffffffffffffffffffffffff\n        /* \"@openzeppelin/contracts-upgradeable/token/ERC20/ERC20Upgradeable.sol\":11891:11907  currentAllowance */\n      dup2\n        /* \"@openzeppelin/contracts-upgradeable/token/ERC20/ERC20Upgradeable.sol\":11891:11927  currentAllowance < type(uint256).max */\n      lt\n        /* \"@openzeppelin/contracts-upgradeable/token/ERC20/ERC20Upgradeable.sol\":11887:12196  if (currentAllowance < type(uint256).max) {... */\n      iszero\n      tag_477\n      jumpi\n        /* \"@openzeppelin/contracts-upgradeable/token/ERC20/ERC20Upgradeable.sol\":11966:11971  value */\n      dup2\n        /* \"@openzeppelin/contracts-upgradeable/token/ERC20/ERC20Upgradeable.sol\":11947:11963  currentAllowance */\n      dup2\n        /* \"@openzeppelin/contracts-upgradeable/token/ERC20/ERC20Upgradeable.sol\":11947:11971  currentAllowance < value */\n      lt\n        /* \"@openzeppelin/contracts-upgradeable/token/ERC20/ERC20Upgradeable.sol\":11943:12073  if (currentAllowance < value) {... */\n      iszero\n      tag_478\n      jumpi\n        /* \"@openzeppelin/contracts-upgradeable/token/ERC20/ERC20Upgradeable.sol\":12025:12032  spender */\n      dup3\n        /* \"@openzeppelin/contracts-upgradeable/token/ERC20/ERC20Upgradeable.sol\":12034:12050  currentAllowance */\n      dup2\n        /* \"@openzeppelin/contracts-upgradeable/token/ERC20/ERC20Upgradeable.sol\":12052:12057  value */\n      dup4\n        /* \"@openzeppelin/contracts-upgradeable/token/ERC20/ERC20Upgradeable.sol\":11998:12058  ERC20InsufficientAllowance(spender, currentAllowance, value) */\n      mload(0x40)\n      0xfb8f41b200000000000000000000000000000000000000000000000000000000\n      dup2\n      mstore\n      0x04\n      add\n      tag_479\n      swap4\n      swap3\n      swap2\n      swap1\n      tag_480\n      jump\t// in\n    tag_479:\n      mload(0x40)\n      dup1\n      swap2\n      sub\n      swap1\n      revert\n        /* \"@openzeppelin/contracts-upgradeable/token/ERC20/ERC20Upgradeable.sol\":11943:12073  if (currentAllowance < value) {... */\n    tag_478:\n        /* \"@openzeppelin/contracts-upgradeable/token/ERC20/ERC20Upgradeable.sol\":12114:12171  _approve(owner, spender, currentAllowance - value, false) */\n      tag_481\n        /* \"@openzeppelin/contracts-upgradeable/token/ERC20/ERC20Upgradeable.sol\":12123:12128  owner */\n      dup5\n        /* \"@openzeppelin/contracts-upgradeable/token/ERC20/ERC20Upgradeable.sol\":12130:12137  spender */\n      dup5\n        /* \"@openzeppelin/contracts-upgradeable/token/ERC20/ERC20Upgradeable.sol\":12158:12163  value */\n      dup5\n        /* \"@openzeppelin/contracts-upgradeable/token/ERC20/ERC20Upgradeable.sol\":12139:12155  currentAllowance */\n      dup5\n        /* \"@openzeppelin/contracts-upgradeable/token/ERC20/ERC20Upgradeable.sol\":12139:12163  currentAllowance - value */\n      sub\n        /* \"@openzeppelin/contracts-upgradeable/token/ERC20/ERC20Upgradeable.sol\":12165:12170  false */\n      0x00\n        /* \"@openzeppelin/contracts-upgradeable/token/ERC20/ERC20Upgradeable.sol\":12114:12122  _approve */\n      tag_385\n        /* \"@openzeppelin/contracts-upgradeable/token/ERC20/ERC20Upgradeable.sol\":12114:12171  _approve(owner, spender, currentAllowance - value, false) */\n      jump\t// in\n    tag_481:\n        /* \"@openzeppelin/contracts-upgradeable/token/ERC20/ERC20Upgradeable.sol\":11887:12196  if (currentAllowance < type(uint256).max) {... */\n    tag_477:\n        /* \"@openzeppelin/contracts-upgradeable/token/ERC20/ERC20Upgradeable.sol\":11815:12202  {... */\n      pop\n        /* \"@openzeppelin/contracts-upgradeable/token/ERC20/ERC20Upgradeable.sol\":11726:12202  function _spendAllowance(address owner, address spender, uint256 value) internal virtual {... */\n      pop\n      pop\n      pop\n      jump\t// out\n        /* \"@openzeppelin/contracts-upgradeable/token/ERC20/ERC20Upgradeable.sol\":7201:8371  function _update(address from, address to, uint256 value) internal virtual {... */\n    tag_409:\n        /* \"@openzeppelin/contracts-upgradeable/token/ERC20/ERC20Upgradeable.sol\":7286:7308  ERC20Storage storage $ */\n      0x00\n        /* \"@openzeppelin/contracts-upgradeable/token/ERC20/ERC20Upgradeable.sol\":7311:7329  _getERC20Storage() */\n      tag_483\n        /* \"@openzeppelin/contracts-upgradeable/token/ERC20/ERC20Upgradeable.sol\":7311:7327  _getERC20Storage */\n      tag_229\n        /* \"@openzeppelin/contracts-upgradeable/token/ERC20/ERC20Upgradeable.sol\":7311:7329  _getERC20Storage() */\n      jump\t// in\n    tag_483:\n        /* \"@openzeppelin/contracts-upgradeable/token/ERC20/ERC20Upgradeable.sol\":7286:7329  ERC20Storage storage $ = _getERC20Storage() */\n      swap1\n      pop\n        /* \"@openzeppelin/contracts-upgradeable/token/ERC20/ERC20Upgradeable.sol\":7359:7360  0 */\n      0x00\n        /* \"@openzeppelin/contracts-upgradeable/token/ERC20/ERC20Upgradeable.sol\":7343:7361  from == address(0) */\n      0xffffffffffffffffffffffffffffffffffffffff\n      and\n        /* \"@openzeppelin/contracts-upgradeable/token/ERC20/ERC20Upgradeable.sol\":7343:7347  from */\n      dup5\n        /* \"@openzeppelin/contracts-upgradeable/token/ERC20/ERC20Upgradeable.sol\":7343:7361  from == address(0) */\n      0xffffffffffffffffffffffffffffffffffffffff\n      and\n      sub\n        /* \"@openzeppelin/contracts-upgradeable/token/ERC20/ERC20Upgradeable.sol\":7339:7885  if (from == address(0)) {... */\n      tag_484\n      jumpi\n        /* \"@openzeppelin/contracts-upgradeable/token/ERC20/ERC20Upgradeable.sol\":7497:7502  value */\n      dup2\n        /* \"@openzeppelin/contracts-upgradeable/token/ERC20/ERC20Upgradeable.sol\":7479:7480  $ */\n      dup2\n        /* \"@openzeppelin/contracts-upgradeable/token/ERC20/ERC20Upgradeable.sol\":7479:7493  $._totalSupply */\n      0x02\n      add\n      0x00\n        /* \"@openzeppelin/contracts-upgradeable/token/ERC20/ERC20Upgradeable.sol\":7479:7502  $._totalSupply += value */\n      dup3\n      dup3\n      sload\n      tag_485\n      swap2\n      swap1\n      tag_226\n      jump\t// in\n    tag_485:\n      swap3\n      pop\n      pop\n      dup2\n      swap1\n      sstore\n      pop\n        /* \"@openzeppelin/contracts-upgradeable/token/ERC20/ERC20Upgradeable.sol\":7339:7885  if (from == address(0)) {... */\n      jump(tag_486)\n    tag_484:\n        /* \"@openzeppelin/contracts-upgradeable/token/ERC20/ERC20Upgradeable.sol\":7533:7552  uint256 fromBalance */\n      0x00\n        /* \"@openzeppelin/contracts-upgradeable/token/ERC20/ERC20Upgradeable.sol\":7555:7556  $ */\n      dup2\n        /* \"@openzeppelin/contracts-upgradeable/token/ERC20/ERC20Upgradeable.sol\":7555:7566  $._balances */\n      0x00\n      add\n        /* \"@openzeppelin/contracts-upgradeable/token/ERC20/ERC20Upgradeable.sol\":7555:7572  $._balances[from] */\n      0x00\n        /* \"@openzeppelin/contracts-upgradeable/token/ERC20/ERC20Upgradeable.sol\":7567:7571  from */\n      dup7\n        /* \"@openzeppelin/contracts-upgradeable/token/ERC20/ERC20Upgradeable.sol\":7555:7572  $._balances[from] */\n      0xffffffffffffffffffffffffffffffffffffffff\n      and\n      0xffffffffffffffffffffffffffffffffffffffff\n      and\n      dup2\n      mstore\n      0x20\n      add\n      swap1\n      dup2\n      mstore\n      0x20\n      add\n      0x00\n      keccak256\n      sload\n        /* \"@openzeppelin/contracts-upgradeable/token/ERC20/ERC20Upgradeable.sol\":7533:7572  uint256 fromBalance = $._balances[from] */\n      swap1\n      pop\n        /* \"@openzeppelin/contracts-upgradeable/token/ERC20/ERC20Upgradeable.sol\":7604:7609  value */\n      dup3\n        /* \"@openzeppelin/contracts-upgradeable/token/ERC20/ERC20Upgradeable.sol\":7590:7601  fromBalance */\n      dup2\n        /* \"@openzeppelin/contracts-upgradeable/token/ERC20/ERC20Upgradeable.sol\":7590:7609  fromBalance < value */\n      lt\n        /* \"@openzeppelin/contracts-upgradeable/token/ERC20/ERC20Upgradeable.sol\":7586:7701  if (fromBalance < value) {... */\n      iszero\n      tag_487\n      jumpi\n        /* \"@openzeppelin/contracts-upgradeable/token/ERC20/ERC20Upgradeable.sol\":7661:7665  from */\n      dup5\n        /* \"@openzeppelin/contracts-upgradeable/token/ERC20/ERC20Upgradeable.sol\":7667:7678  fromBalance */\n      dup2\n        /* \"@openzeppelin/contracts-upgradeable/token/ERC20/ERC20Upgradeable.sol\":7680:7685  value */\n      dup5\n        /* \"@openzeppelin/contracts-upgradeable/token/ERC20/ERC20Upgradeable.sol\":7636:7686  ERC20InsufficientBalance(from, fromBalance, value) */\n      mload(0x40)\n      0xe450d38c00000000000000000000000000000000000000000000000000000000\n      dup2\n      mstore\n      0x04\n      add\n      tag_488\n      swap4\n      swap3\n      swap2\n      swap1\n      tag_480\n      jump\t// in\n    tag_488:\n      mload(0x40)\n      dup1\n      swap2\n      sub\n      swap1\n      revert\n        /* \"@openzeppelin/contracts-upgradeable/token/ERC20/ERC20Upgradeable.sol\":7586:7701  if (fromBalance < value) {... */\n    tag_487:\n        /* \"@openzeppelin/contracts-upgradeable/token/ERC20/ERC20Upgradeable.sol\":7855:7860  value */\n      dup3\n        /* \"@openzeppelin/contracts-upgradeable/token/ERC20/ERC20Upgradeable.sol\":7841:7852  fromBalance */\n      dup2\n        /* \"@openzeppelin/contracts-upgradeable/token/ERC20/ERC20Upgradeable.sol\":7841:7860  fromBalance - value */\n      sub\n        /* \"@openzeppelin/contracts-upgradeable/token/ERC20/ERC20Upgradeable.sol\":7821:7822  $ */\n      dup3\n        /* \"@openzeppelin/contracts-upgradeable/token/ERC20/ERC20Upgradeable.sol\":7821:7832  $._balances */\n      0x00\n      add\n        /* \"@openzeppelin/contracts-upgradeable/token/ERC20/ERC20Upgradeable.sol\":7821:7838  $._balances[from] */\n      0x00\n        /* \"@openzeppelin/contracts-upgradeable/token/ERC20/ERC20Upgradeable.sol\":7833:7837  from */\n      dup8\n        /* \"@openzeppelin/contracts-upgradeable/token/ERC20/ERC20Upgradeable.sol\":7821:7838  $._balances[from] */\n      0xffffffffffffffffffffffffffffffffffffffff\n      and\n      0xffffffffffffffffffffffffffffffffffffffff\n      and\n      dup2\n      mstore\n      0x20\n      add\n      swap1\n      dup2\n      mstore\n      0x20\n      add\n      0x00\n      keccak256\n        /* \"@openzeppelin/contracts-upgradeable/token/ERC20/ERC20Upgradeable.sol\":7821:7860  $._balances[from] = fromBalance - value */\n      dup2\n      swap1\n      sstore\n      pop\n        /* \"@openzeppelin/contracts-upgradeable/token/ERC20/ERC20Upgradeable.sol\":7519:7885  {... */\n      pop\n        /* \"@openzeppelin/contracts-upgradeable/token/ERC20/ERC20Upgradeable.sol\":7339:7885  if (from == address(0)) {... */\n    tag_486:\n        /* \"@openzeppelin/contracts-upgradeable/token/ERC20/ERC20Upgradeable.sol\":7913:7914  0 */\n      0x00\n        /* \"@openzeppelin/contracts-upgradeable/token/ERC20/ERC20Upgradeable.sol\":7899:7915  to == address(0) */\n      0xffffffffffffffffffffffffffffffffffffffff\n      and\n        /* \"@openzeppelin/contracts-upgradeable/token/ERC20/ERC20Upgradeable.sol\":7899:7901  to */\n      dup4\n        /* \"@openzeppelin/contracts-upgradeable/token/ERC20/ERC20Upgradeable.sol\":7899:7915  to == address(0) */\n      0xffffffffffffffffffffffffffffffffffffffff\n      and\n      sub\n        /* \"@openzeppelin/contracts-upgradeable/token/ERC20/ERC20Upgradeable.sol\":7895:8324  if (to == address(0)) {... */\n      tag_489\n      jumpi\n        /* \"@openzeppelin/contracts-upgradeable/token/ERC20/ERC20Upgradeable.sol\":8080:8085  value */\n      dup2\n        /* \"@openzeppelin/contracts-upgradeable/token/ERC20/ERC20Upgradeable.sol\":8062:8063  $ */\n      dup2\n        /* \"@openzeppelin/contracts-upgradeable/token/ERC20/ERC20Upgradeable.sol\":8062:8076  $._totalSupply */\n      0x02\n      add\n      0x00\n        /* \"@openzeppelin/contracts-upgradeable/token/ERC20/ERC20Upgradeable.sol\":8062:8085  $._totalSupply -= value */\n      dup3\n      dup3\n      sload\n      sub\n      swap3\n      pop\n      pop\n      dup2\n      swap1\n      sstore\n      pop\n        /* \"@openzeppelin/contracts-upgradeable/token/ERC20/ERC20Upgradeable.sol\":7895:8324  if (to == address(0)) {... */\n      jump(tag_490)\n    tag_489:\n        /* \"@openzeppelin/contracts-upgradeable/token/ERC20/ERC20Upgradeable.sol\":8294:8299  value */\n      dup2\n        /* \"@openzeppelin/contracts-upgradeable/token/ERC20/ERC20Upgradeable.sol\":8275:8276  $ */\n      dup2\n        /* \"@openzeppelin/contracts-upgradeable/token/ERC20/ERC20Upgradeable.sol\":8275:8286  $._balances */\n      0x00\n      add\n        /* \"@openzeppelin/contracts-upgradeable/token/ERC20/ERC20Upgradeable.sol\":8275:8290  $._balances[to] */\n      0x00\n        /* \"@openzeppelin/contracts-upgradeable/token/ERC20/ERC20Upgradeable.sol\":8287:8289  to */\n      dup6\n        /* \"@openzeppelin/contracts-upgradeable/token/ERC20/ERC20Upgradeable.sol\":8275:8290  $._balances[to] */\n      0xffffffffffffffffffffffffffffffffffffffff\n      and\n      0xffffffffffffffffffffffffffffffffffffffff\n      and\n      dup2\n      mstore\n      0x20\n      add\n      swap1\n      dup2\n      mstore\n      0x20\n      add\n      0x00\n      keccak256\n      0x00\n        /* \"@openzeppelin/contracts-upgradeable/token/ERC20/ERC20Upgradeable.sol\":8275:8299  $._balances[to] += value */\n      dup3\n      dup3\n      sload\n      add\n      swap3\n      pop\n      pop\n      dup2\n      swap1\n      sstore\n      pop\n        /* \"@openzeppelin/contracts-upgradeable/token/ERC20/ERC20Upgradeable.sol\":7895:8324  if (to == address(0)) {... */\n    tag_490:\n        /* \"@openzeppelin/contracts-upgradeable/token/ERC20/ERC20Upgradeable.sol\":8354:8356  to */\n      dup3\n        /* \"@openzeppelin/contracts-upgradeable/token/ERC20/ERC20Upgradeable.sol\":8339:8364  Transfer(from, to, value) */\n      0xffffffffffffffffffffffffffffffffffffffff\n      and\n        /* \"@openzeppelin/contracts-upgradeable/token/ERC20/ERC20Upgradeable.sol\":8348:8352  from */\n      dup5\n        /* \"@openzeppelin/contracts-upgradeable/token/ERC20/ERC20Upgradeable.sol\":8339:8364  Transfer(from, to, value) */\n      0xffffffffffffffffffffffffffffffffffffffff\n      and\n      0xddf252ad1be2c89b69c2b068fc378daa952ba7f163c4a11628f55a4df523b3ef\n        /* \"@openzeppelin/contracts-upgradeable/token/ERC20/ERC20Upgradeable.sol\":8358:8363  value */\n      dup5\n        /* \"@openzeppelin/contracts-upgradeable/token/ERC20/ERC20Upgradeable.sol\":8339:8364  Transfer(from, to, value) */\n      mload(0x40)\n      tag_491\n      swap2\n      swap1\n      tag_71\n      jump\t// in\n    tag_491:\n      mload(0x40)\n      dup1\n      swap2\n      sub\n      swap1\n      log3\n        /* \"@openzeppelin/contracts-upgradeable/token/ERC20/ERC20Upgradeable.sol\":7276:8371  {... */\n      pop\n        /* \"@openzeppelin/contracts-upgradeable/token/ERC20/ERC20Upgradeable.sol\":7201:8371  function _update(address from, address to, uint256 value) internal virtual {... */\n      pop\n      pop\n      pop\n      jump\t// out\n        /* \"@openzeppelin/contracts/proxy/ERC1967/ERC1967Utils.sol\":1441:1579  function getImplementation() internal view returns (address) {... */\n    tag_417:\n        /* \"@openzeppelin/contracts/proxy/ERC1967/ERC1967Utils.sol\":1493:1500  address */\n      0x00\n        /* \"@openzeppelin/contracts/proxy/ERC1967/ERC1967Utils.sol\":1519:1566  StorageSlot.getAddressSlot(IMPLEMENTATION_SLOT) */\n      tag_493\n        /* \"@openzeppelin/contracts/proxy/ERC1967/ERC1967Utils.sol\":811:877  0x360894a13ba1a3210667c828492db98dca3e2076cc3735a920a3ca505d382bbc */\n      0x360894a13ba1a3210667c828492db98dca3e2076cc3735a920a3ca505d382bbc\n        /* \"@openzeppelin/contracts/proxy/ERC1967/ERC1967Utils.sol\":1546:1565  IMPLEMENTATION_SLOT */\n      0x00\n      shl\n        /* \"@openzeppelin/contracts/proxy/ERC1967/ERC1967Utils.sol\":1519:1545  StorageSlot.getAddressSlot */\n      tag_494\n        /* \"@openzeppelin/contracts/proxy/ERC1967/ERC1967Utils.sol\":1519:1566  StorageSlot.getAddressSlot(IMPLEMENTATION_SLOT) */\n      jump\t// in\n    tag_493:\n        /* \"@openzeppelin/contracts/proxy/ERC1967/ERC1967Utils.sol\":1519:1572  StorageSlot.getAddressSlot(IMPLEMENTATION_SLOT).value */\n      0x00\n      add\n      0x00\n      swap1\n      sload\n      swap1\n      0x0100\n      exp\n      swap1\n      div\n      0xffffffffffffffffffffffffffffffffffffffff\n      and\n        /* \"@openzeppelin/contracts/proxy/ERC1967/ERC1967Utils.sol\":1512:1572  return StorageSlot.getAddressSlot(IMPLEMENTATION_SLOT).value */\n      swap1\n      pop\n        /* \"@openzeppelin/contracts/proxy/ERC1967/ERC1967Utils.sol\":1441:1579  function getImplementation() internal view returns (address) {... */\n      swap1\n      jump\t// out\n        /* \"@openzeppelin/contracts/proxy/ERC1967/ERC1967Utils.sol\":2264:2608  function upgradeToAndCall(address newImplementation, bytes memory data) internal {... */\n    tag_435:\n        /* \"@openzeppelin/contracts/proxy/ERC1967/ERC1967Utils.sol\":2355:2392  _setImplementation(newImplementation) */\n      tag_496\n        /* \"@openzeppelin/contracts/proxy/ERC1967/ERC1967Utils.sol\":2374:2391  newImplementation */\n      dup3\n        /* \"@openzeppelin/contracts/proxy/ERC1967/ERC1967Utils.sol\":2355:2373  _setImplementation */\n      tag_497\n        /* \"@openzeppelin/contracts/proxy/ERC1967/ERC1967Utils.sol\":2355:2392  _setImplementation(newImplementation) */\n      jump\t// in\n    tag_496:\n        /* \"@openzeppelin/contracts/proxy/ERC1967/ERC1967Utils.sol\":2425:2442  newImplementation */\n      dup2\n        /* \"@openzeppelin/contracts/proxy/ERC1967/ERC1967Utils.sol\":2407:2443  IERC1967.Upgraded(newImplementation) */\n      0xffffffffffffffffffffffffffffffffffffffff\n      and\n      0xbc7cd75a20ee27fd9adebab32041f755214dbc6bffa90cc0225b39da2e5c2d3b\n      mload(0x40)\n      mload(0x40)\n      dup1\n      swap2\n      sub\n      swap1\n      log2\n        /* \"@openzeppelin/contracts/proxy/ERC1967/ERC1967Utils.sol\":2472:2473  0 */\n      0x00\n        /* \"@openzeppelin/contracts/proxy/ERC1967/ERC1967Utils.sol\":2458:2462  data */\n      dup2\n        /* \"@openzeppelin/contracts/proxy/ERC1967/ERC1967Utils.sol\":2458:2469  data.length */\n      mload\n        /* \"@openzeppelin/contracts/proxy/ERC1967/ERC1967Utils.sol\":2458:2473  data.length > 0 */\n      gt\n        /* \"@openzeppelin/contracts/proxy/ERC1967/ERC1967Utils.sol\":2454:2602  if (data.length > 0) {... */\n      iszero\n      tag_498\n      jumpi\n        /* \"@openzeppelin/contracts/proxy/ERC1967/ERC1967Utils.sol\":2489:2542  Address.functionDelegateCall(newImplementation, data) */\n      tag_499\n        /* \"@openzeppelin/contracts/proxy/ERC1967/ERC1967Utils.sol\":2518:2535  newImplementation */\n      dup3\n        /* \"@openzeppelin/contracts/proxy/ERC1967/ERC1967Utils.sol\":2537:2541  data */\n      dup3\n        /* \"@openzeppelin/contracts/proxy/ERC1967/ERC1967Utils.sol\":2489:2517  Address.functionDelegateCall */\n      tag_500\n        /* \"@openzeppelin/contracts/proxy/ERC1967/ERC1967Utils.sol\":2489:2542  Address.functionDelegateCall(newImplementation, data) */\n      jump\t// in\n    tag_499:\n      pop\n        /* \"@openzeppelin/contracts/proxy/ERC1967/ERC1967Utils.sol\":2454:2602  if (data.length > 0) {... */\n      jump(tag_501)\n    tag_498:\n        /* \"@openzeppelin/contracts/proxy/ERC1967/ERC1967Utils.sol\":2573:2591  _checkNonPayable() */\n      tag_502\n        /* \"@openzeppelin/contracts/proxy/ERC1967/ERC1967Utils.sol\":2573:2589  _checkNonPayable */\n      tag_503\n        /* \"@openzeppelin/contracts/proxy/ERC1967/ERC1967Utils.sol\":2573:2591  _checkNonPayable() */\n      jump\t// in\n    tag_502:\n        /* \"@openzeppelin/contracts/proxy/ERC1967/ERC1967Utils.sol\":2454:2602  if (data.length > 0) {... */\n    tag_501:\n        /* \"@openzeppelin/contracts/proxy/ERC1967/ERC1967Utils.sol\":2264:2608  function upgradeToAndCall(address newImplementation, bytes memory data) internal {... */\n      pop\n      pop\n      jump\t// out\n        /* \"@openzeppelin/contracts-upgradeable/proxy/utils/Initializable.sol\":8819:8941  function _initializableStorageSlot() internal pure virtual returns (bytes32) {... */\n    tag_449:\n        /* \"@openzeppelin/contracts-upgradeable/proxy/utils/Initializable.sol\":8887:8894  bytes32 */\n      0x00\n        /* \"@openzeppelin/contracts-upgradeable/proxy/utils/Initializable.sol\":3147:3213  0xf0c57e16840df040f15088dc2f81fe391c3923bec73e23a9662efc9c229c6a00 */\n      0xf0c57e16840df040f15088dc2f81fe391c3923bec73e23a9662efc9c229c6a00\n        /* \"@openzeppelin/contracts-upgradeable/proxy/utils/Initializable.sol\":8913:8934  INITIALIZABLE_STORAGE */\n      0x00\n      shl\n        /* \"@openzeppelin/contracts-upgradeable/proxy/utils/Initializable.sol\":8906:8934  return INITIALIZABLE_STORAGE */\n      swap1\n      pop\n        /* \"@openzeppelin/contracts-upgradeable/proxy/utils/Initializable.sol\":8819:8941  function _initializableStorageSlot() internal pure virtual returns (bytes32) {... */\n      swap1\n      jump\t// out\n        /* \"@openzeppelin/contracts-upgradeable/proxy/utils/Initializable.sol\":7082:7223  function _checkInitializing() internal view virtual {... */\n    tag_452:\n        /* \"@openzeppelin/contracts-upgradeable/proxy/utils/Initializable.sol\":7149:7166  _isInitializing() */\n      tag_506\n        /* \"@openzeppelin/contracts-upgradeable/proxy/utils/Initializable.sol\":7149:7164  _isInitializing */\n      tag_507\n        /* \"@openzeppelin/contracts-upgradeable/proxy/utils/Initializable.sol\":7149:7166  _isInitializing() */\n      jump\t// in\n    tag_506:\n        /* \"@openzeppelin/contracts-upgradeable/proxy/utils/Initializable.sol\":7144:7217  if (!_isInitializing()) {... */\n      tag_508\n      jumpi\n        /* \"@openzeppelin/contracts-upgradeable/proxy/utils/Initializable.sol\":7189:7206  NotInitializing() */\n      mload(0x40)\n      0xd7e6bcf800000000000000000000000000000000000000000000000000000000\n      dup2\n      mstore\n      0x04\n      add\n      mload(0x40)\n      dup1\n      swap2\n      sub\n      swap1\n      revert\n        /* \"@openzeppelin/contracts-upgradeable/proxy/utils/Initializable.sol\":7144:7217  if (!_isInitializing()) {... */\n    tag_508:\n        /* \"@openzeppelin/contracts-upgradeable/proxy/utils/Initializable.sol\":7082:7223  function _checkInitializing() internal view virtual {... */\n      jump\t// out\n        /* \"@openzeppelin/contracts-upgradeable/token/ERC20/ERC20Upgradeable.sol\":2416:2632  function __ERC20_init_unchained(string memory name_, string memory symbol_) internal onlyInitializing {... */\n    tag_455:\n        /* \"@openzeppelin/contracts-upgradeable/proxy/utils/Initializable.sol\":6929:6949  _checkInitializing() */\n      tag_510\n        /* \"@openzeppelin/contracts-upgradeable/proxy/utils/Initializable.sol\":6929:6947  _checkInitializing */\n      tag_452\n        /* \"@openzeppelin/contracts-upgradeable/proxy/utils/Initializable.sol\":6929:6949  _checkInitializing() */\n      jump\t// in\n    tag_510:\n        /* \"@openzeppelin/contracts-upgradeable/token/ERC20/ERC20Upgradeable.sol\":2528:2550  ERC20Storage storage $ */\n      0x00\n        /* \"@openzeppelin/contracts-upgradeable/token/ERC20/ERC20Upgradeable.sol\":2553:2571  _getERC20Storage() */\n      tag_512\n        /* \"@openzeppelin/contracts-upgradeable/token/ERC20/ERC20Upgradeable.sol\":2553:2569  _getERC20Storage */\n      tag_229\n        /* \"@openzeppelin/contracts-upgradeable/token/ERC20/ERC20Upgradeable.sol\":2553:2571  _getERC20Storage() */\n      jump\t// in\n    tag_512:\n        /* \"@openzeppelin/contracts-upgradeable/token/ERC20/ERC20Upgradeable.sol\":2528:2571  ERC20Storage storage $ = _getERC20Storage() */\n      swap1\n      pop\n        /* \"@openzeppelin/contracts-upgradeable/token/ERC20/ERC20Upgradeable.sol\":2591:2596  name_ */\n      dup3\n        /* \"@openzeppelin/contracts-upgradeable/token/ERC20/ERC20Upgradeable.sol\":2581:2582  $ */\n      dup2\n        /* \"@openzeppelin/contracts-upgradeable/token/ERC20/ERC20Upgradeable.sol\":2581:2588  $._name */\n      0x03\n      add\n        /* \"@openzeppelin/contracts-upgradeable/token/ERC20/ERC20Upgradeable.sol\":2581:2596  $._name = name_ */\n      swap1\n      dup2\n      tag_513\n      swap2\n      swap1\n      tag_514\n      jump\t// in\n    tag_513:\n      pop\n        /* \"@openzeppelin/contracts-upgradeable/token/ERC20/ERC20Upgradeable.sol\":2618:2625  symbol_ */\n      dup2\n        /* \"@openzeppelin/contracts-upgradeable/token/ERC20/ERC20Upgradeable.sol\":2606:2607  $ */\n      dup2\n        /* \"@openzeppelin/contracts-upgradeable/token/ERC20/ERC20Upgradeable.sol\":2606:2615  $._symbol */\n      0x04\n      add\n        /* \"@openzeppelin/contracts-upgradeable/token/ERC20/ERC20Upgradeable.sol\":2606:2625  $._symbol = symbol_ */\n      swap1\n      dup2\n      tag_515\n      swap2\n      swap1\n      tag_514\n      jump\t// in\n    tag_515:\n      pop\n        /* \"@openzeppelin/contracts-upgradeable/token/ERC20/ERC20Upgradeable.sol\":2518:2632  {... */\n      pop\n        /* \"@openzeppelin/contracts-upgradeable/token/ERC20/ERC20Upgradeable.sol\":2416:2632  function __ERC20_init_unchained(string memory name_, string memory symbol_) internal onlyInitializing {... */\n      pop\n      pop\n      jump\t// out\n        /* \"@openzeppelin/contracts/utils/StorageSlot.sol\":1899:2062  function getAddressSlot(bytes32 slot) internal pure returns (AddressSlot storage r) {... */\n    tag_494:\n        /* \"@openzeppelin/contracts/utils/StorageSlot.sol\":1960:1981  AddressSlot storage r */\n      0x00\n        /* \"@openzeppelin/contracts/utils/StorageSlot.sol\":2042:2046  slot */\n      dup2\n        /* \"@openzeppelin/contracts/utils/StorageSlot.sol\":2032:2046  r.slot := slot */\n      swap1\n      pop\n        /* \"@openzeppelin/contracts/utils/StorageSlot.sol\":1899:2062  function getAddressSlot(bytes32 slot) internal pure returns (AddressSlot storage r) {... */\n      swap2\n      swap1\n      pop\n      jump\t// out\n        /* \"@openzeppelin/contracts/proxy/ERC1967/ERC1967Utils.sol\":1671:1952  function _setImplementation(address newImplementation) private {... */\n    tag_497:\n        /* \"@openzeppelin/contracts/proxy/ERC1967/ERC1967Utils.sol\":1781:1782  0 */\n      0x00\n        /* \"@openzeppelin/contracts/proxy/ERC1967/ERC1967Utils.sol\":1748:1765  newImplementation */\n      dup2\n        /* \"@openzeppelin/contracts/proxy/ERC1967/ERC1967Utils.sol\":1748:1777  newImplementation.code.length */\n      0xffffffffffffffffffffffffffffffffffffffff\n      and\n      extcodesize\n        /* \"@openzeppelin/contracts/proxy/ERC1967/ERC1967Utils.sol\":1748:1782  newImplementation.code.length == 0 */\n      sub\n        /* \"@openzeppelin/contracts/proxy/ERC1967/ERC1967Utils.sol\":1744:1863  if (newImplementation.code.length == 0) {... */\n      tag_518\n      jumpi\n        /* \"@openzeppelin/contracts/proxy/ERC1967/ERC1967Utils.sol\":1834:1851  newImplementation */\n      dup1\n        /* \"@openzeppelin/contracts/proxy/ERC1967/ERC1967Utils.sol\":1805:1852  ERC1967InvalidImplementation(newImplementation) */\n      mload(0x40)\n      0x4c9c8ce300000000000000000000000000000000000000000000000000000000\n      dup2\n      mstore\n      0x04\n      add\n      tag_519\n      swap2\n      swap1\n      tag_407\n      jump\t// in\n    tag_519:\n      mload(0x40)\n      dup1\n      swap2\n      sub\n      swap1\n      revert\n        /* \"@openzeppelin/contracts/proxy/ERC1967/ERC1967Utils.sol\":1744:1863  if (newImplementation.code.length == 0) {... */\n    tag_518:\n        /* \"@openzeppelin/contracts/proxy/ERC1967/ERC1967Utils.sol\":1928:1945  newImplementation */\n      dup1\n        /* \"@openzeppelin/contracts/proxy/ERC1967/ERC1967Utils.sol\":1872:1919  StorageSlot.getAddressSlot(IMPLEMENTATION_SLOT) */\n      tag_520\n        /* \"@openzeppelin/contracts/proxy/ERC1967/ERC1967Utils.sol\":811:877  0x360894a13ba1a3210667c828492db98dca3e2076cc3735a920a3ca505d382bbc */\n      0x360894a13ba1a3210667c828492db98dca3e2076cc3735a920a3ca505d382bbc\n        /* \"@openzeppelin/contracts/proxy/ERC1967/ERC1967Utils.sol\":1899:1918  IMPLEMENTATION_SLOT */\n      0x00\n      shl\n        /* \"@openzeppelin/contracts/proxy/ERC1967/ERC1967Utils.sol\":1872:1898  StorageSlot.getAddressSlot */\n      tag_494\n        /* \"@openzeppelin/contracts/proxy/ERC1967/ERC1967Utils.sol\":1872:1919  StorageSlot.getAddressSlot(IMPLEMENTATION_SLOT) */\n      jump\t// in\n    tag_520:\n        /* \"@openzeppelin/contracts/proxy/ERC1967/ERC1967Utils.sol\":1872:1925  StorageSlot.getAddressSlot(IMPLEMENTATION_SLOT).value */\n      0x00\n      add\n      0x00\n        /* \"@openzeppelin/contracts/proxy/ERC1967/ERC1967Utils.sol\":1872:1945  StorageSlot.getAddressSlot(IMPLEMENTATION_SLOT).value = newImplementation */\n      0x0100\n      exp\n      dup2\n      sload\n      dup2\n      0xffffffffffffffffffffffffffffffffffffffff\n      mul\n      not\n      and\n      swap1\n      dup4\n      0xffffffffffffffffffffffffffffffffffffffff\n      and\n      mul\n      or\n      swap1\n      sstore\n      pop\n        /* \"@openzeppelin/contracts/proxy/ERC1967/ERC1967Utils.sol\":1671:1952  function _setImplementation(address newImplementation) private {... */\n      pop\n      jump\t// out\n        /* \"@openzeppelin/contracts/utils/Address.sol\":3916:4169  function functionDelegateCall(address target, bytes memory data) internal returns (bytes memory) {... */\n    tag_500:\n        /* \"@openzeppelin/contracts/utils/Address.sol\":3999:4011  bytes memory */\n      0x60\n        /* \"@openzeppelin/contracts/utils/Address.sol\":4024:4036  bool success */\n      0x00\n        /* \"@openzeppelin/contracts/utils/Address.sol\":4038:4061  bytes memory returndata */\n      0x00\n        /* \"@openzeppelin/contracts/utils/Address.sol\":4065:4071  target */\n      dup5\n        /* \"@openzeppelin/contracts/utils/Address.sol\":4065:4084  target.delegatecall */\n      0xffffffffffffffffffffffffffffffffffffffff\n      and\n        /* \"@openzeppelin/contracts/utils/Address.sol\":4085:4089  data */\n      dup5\n        /* \"@openzeppelin/contracts/utils/Address.sol\":4065:4090  target.delegatecall(data) */\n      mload(0x40)\n      tag_522\n      swap2\n      swap1\n      tag_523\n      jump\t// in\n    tag_522:\n      0x00\n      mload(0x40)\n      dup1\n      dup4\n      sub\n      dup2\n      dup6\n      gas\n      delegatecall\n      swap2\n      pop\n      pop\n      returndatasize\n      dup1\n      0x00\n      dup2\n      eq\n      tag_526\n      jumpi\n      mload(0x40)\n      swap2\n      pop\n      and(add(returndatasize, 0x3f), not(0x1f))\n      dup3\n      add\n      0x40\n      mstore\n      returndatasize\n      dup3\n      mstore\n      returndatasize\n      0x00\n      0x20\n      dup5\n      add\n      returndatacopy\n      jump(tag_525)\n    tag_526:\n      0x60\n      swap2\n      pop\n    tag_525:\n      pop\n        /* \"@openzeppelin/contracts/utils/Address.sol\":4023:4090  (bool success, bytes memory returndata) = target.delegatecall(data) */\n      swap2\n      pop\n      swap2\n      pop\n        /* \"@openzeppelin/contracts/utils/Address.sol\":4107:4162  verifyCallResultFromTarget(target, success, returndata) */\n      tag_527\n        /* \"@openzeppelin/contracts/utils/Address.sol\":4134:4140  target */\n      dup6\n        /* \"@openzeppelin/contracts/utils/Address.sol\":4142:4149  success */\n      dup4\n        /* \"@openzeppelin/contracts/utils/Address.sol\":4151:4161  returndata */\n      dup4\n        /* \"@openzeppelin/contracts/utils/Address.sol\":4107:4133  verifyCallResultFromTarget */\n      tag_528\n        /* \"@openzeppelin/contracts/utils/Address.sol\":4107:4162  verifyCallResultFromTarget(target, success, returndata) */\n      jump\t// in\n    tag_527:\n        /* \"@openzeppelin/contracts/utils/Address.sol\":4100:4162  return verifyCallResultFromTarget(target, success, returndata) */\n      swap3\n      pop\n      pop\n      pop\n        /* \"@openzeppelin/contracts/utils/Address.sol\":3916:4169  function functionDelegateCall(address target, bytes memory data) internal returns (bytes memory) {... */\n      swap3\n      swap2\n      pop\n      pop\n      jump\t// out\n        /* \"@openzeppelin/contracts/proxy/ERC1967/ERC1967Utils.sol\":6113:6235  function _checkNonPayable() private {... */\n    tag_503:\n        /* \"@openzeppelin/contracts/proxy/ERC1967/ERC1967Utils.sol\":6175:6176  0 */\n      0x00\n        /* \"@openzeppelin/contracts/proxy/ERC1967/ERC1967Utils.sol\":6163:6172  msg.value */\n      callvalue\n        /* \"@openzeppelin/contracts/proxy/ERC1967/ERC1967Utils.sol\":6163:6176  msg.value > 0 */\n      gt\n        /* \"@openzeppelin/contracts/proxy/ERC1967/ERC1967Utils.sol\":6159:6229  if (msg.value > 0) {... */\n      iszero\n      tag_530\n      jumpi\n        /* \"@openzeppelin/contracts/proxy/ERC1967/ERC1967Utils.sol\":6199:6218  ERC1967NonPayable() */\n      mload(0x40)\n      0xb398979f00000000000000000000000000000000000000000000000000000000\n      dup2\n      mstore\n      0x04\n      add\n      mload(0x40)\n      dup1\n      swap2\n      sub\n      swap1\n      revert\n        /* \"@openzeppelin/contracts/proxy/ERC1967/ERC1967Utils.sol\":6159:6229  if (msg.value > 0) {... */\n    tag_530:\n        /* \"@openzeppelin/contracts/proxy/ERC1967/ERC1967Utils.sol\":6113:6235  function _checkNonPayable() private {... */\n      jump\t// out\n        /* \"@openzeppelin/contracts-upgradeable/proxy/utils/Initializable.sol\":8485:8605  function _isInitializing() internal view returns (bool) {... */\n    tag_507:\n        /* \"@openzeppelin/contracts-upgradeable/proxy/utils/Initializable.sol\":8535:8539  bool */\n      0x00\n        /* \"@openzeppelin/contracts-upgradeable/proxy/utils/Initializable.sol\":8558:8584  _getInitializableStorage() */\n      tag_532\n        /* \"@openzeppelin/contracts-upgradeable/proxy/utils/Initializable.sol\":8558:8582  _getInitializableStorage */\n      tag_349\n        /* \"@openzeppelin/contracts-upgradeable/proxy/utils/Initializable.sol\":8558:8584  _getInitializableStorage() */\n      jump\t// in\n    tag_532:\n        /* \"@openzeppelin/contracts-upgradeable/proxy/utils/Initializable.sol\":8558:8598  _getInitializableStorage()._initializing */\n      0x00\n      add\n      0x08\n      swap1\n      sload\n      swap1\n      0x0100\n      exp\n      swap1\n      div\n      0xff\n      and\n        /* \"@openzeppelin/contracts-upgradeable/proxy/utils/Initializable.sol\":8551:8598  return _getInitializableStorage()._initializing */\n      swap1\n      pop\n        /* \"@openzeppelin/contracts-upgradeable/proxy/utils/Initializable.sol\":8485:8605  function _isInitializing() internal view returns (bool) {... */\n      swap1\n      jump\t// out\n        /* \"@openzeppelin/contracts/utils/Address.sol\":4437:5019  function verifyCallResultFromTarget(... */\n    tag_528:\n        /* \"@openzeppelin/contracts/utils/Address.sol\":4581:4593  bytes memory */\n      0x60\n        /* \"@openzeppelin/contracts/utils/Address.sol\":4610:4617  success */\n      dup3\n        /* \"@openzeppelin/contracts/utils/Address.sol\":4605:5013  if (!success) {... */\n      tag_534\n      jumpi\n        /* \"@openzeppelin/contracts/utils/Address.sol\":4633:4652  _revert(returndata) */\n      tag_535\n        /* \"@openzeppelin/contracts/utils/Address.sol\":4641:4651  returndata */\n      dup3\n        /* \"@openzeppelin/contracts/utils/Address.sol\":4633:4640  _revert */\n      tag_536\n        /* \"@openzeppelin/contracts/utils/Address.sol\":4633:4652  _revert(returndata) */\n      jump\t// in\n    tag_535:\n        /* \"@openzeppelin/contracts/utils/Address.sol\":4605:5013  if (!success) {... */\n      jump(tag_537)\n    tag_534:\n        /* \"@openzeppelin/contracts/utils/Address.sol\":4878:4879  0 */\n      0x00\n        /* \"@openzeppelin/contracts/utils/Address.sol\":4857:4867  returndata */\n      dup3\n        /* \"@openzeppelin/contracts/utils/Address.sol\":4857:4874  returndata.length */\n      mload\n        /* \"@openzeppelin/contracts/utils/Address.sol\":4857:4879  returndata.length == 0 */\n      eq\n        /* \"@openzeppelin/contracts/utils/Address.sol\":4857:4906  returndata.length == 0 && target.code.length == 0 */\n      dup1\n      iszero\n      tag_538\n      jumpi\n      pop\n        /* \"@openzeppelin/contracts/utils/Address.sol\":4905:4906  0 */\n      0x00\n        /* \"@openzeppelin/contracts/utils/Address.sol\":4883:4889  target */\n      dup5\n        /* \"@openzeppelin/contracts/utils/Address.sol\":4883:4901  target.code.length */\n      0xffffffffffffffffffffffffffffffffffffffff\n      and\n      extcodesize\n        /* \"@openzeppelin/contracts/utils/Address.sol\":4883:4906  target.code.length == 0 */\n      eq\n        /* \"@openzeppelin/contracts/utils/Address.sol\":4857:4906  returndata.length == 0 && target.code.length == 0 */\n    tag_538:\n        /* \"@openzeppelin/contracts/utils/Address.sol\":4853:4972  if (returndata.length == 0 && target.code.length == 0) {... */\n      iszero\n      tag_539\n      jumpi\n        /* \"@openzeppelin/contracts/utils/Address.sol\":4950:4956  target */\n      dup4\n        /* \"@openzeppelin/contracts/utils/Address.sol\":4933:4957  AddressEmptyCode(target) */\n      mload(0x40)\n      0x9996b31500000000000000000000000000000000000000000000000000000000\n      dup2\n      mstore\n      0x04\n      add\n      tag_540\n      swap2\n      swap1\n      tag_407\n      jump\t// in\n    tag_540:\n      mload(0x40)\n      dup1\n      swap2\n      sub\n      swap1\n      revert\n        /* \"@openzeppelin/contracts/utils/Address.sol\":4853:4972  if (returndata.length == 0 && target.code.length == 0) {... */\n    tag_539:\n        /* \"@openzeppelin/contracts/utils/Address.sol\":4992:5002  returndata */\n      dup2\n        /* \"@openzeppelin/contracts/utils/Address.sol\":4985:5002  return returndata */\n      swap1\n      pop\n      jump(tag_533)\n        /* \"@openzeppelin/contracts/utils/Address.sol\":4605:5013  if (!success) {... */\n    tag_537:\n        /* \"@openzeppelin/contracts/utils/Address.sol\":4437:5019  function verifyCallResultFromTarget(... */\n    tag_533:\n      swap4\n      swap3\n      pop\n      pop\n      pop\n      jump\t// out\n        /* \"@openzeppelin/contracts/utils/Address.sol\":5559:6046  function _revert(bytes memory returndata) private pure {... */\n    tag_536:\n        /* \"@openzeppelin/contracts/utils/Address.sol\":5710:5711  0 */\n      0x00\n        /* \"@openzeppelin/contracts/utils/Address.sol\":5690:5700  returndata */\n      dup2\n        /* \"@openzeppelin/contracts/utils/Address.sol\":5690:5707  returndata.length */\n      mload\n        /* \"@openzeppelin/contracts/utils/Address.sol\":5690:5711  returndata.length > 0 */\n      gt\n        /* \"@openzeppelin/contracts/utils/Address.sol\":5686:6040  if (returndata.length > 0) {... */\n      iszero\n      tag_542\n      jumpi\n        /* \"@openzeppelin/contracts/utils/Address.sol\":5887:5897  returndata */\n      dup1\n        /* \"@openzeppelin/contracts/utils/Address.sol\":5881:5898  mload(returndata) */\n      mload\n        /* \"@openzeppelin/contracts/utils/Address.sol\":5943:5958  returndata_size */\n      dup1\n        /* \"@openzeppelin/contracts/utils/Address.sol\":5930:5940  returndata */\n      dup3\n        /* \"@openzeppelin/contracts/utils/Address.sol\":5926:5928  32 */\n      0x20\n        /* \"@openzeppelin/contracts/utils/Address.sol\":5922:5941  add(32, returndata) */\n      add\n        /* \"@openzeppelin/contracts/utils/Address.sol\":5915:5959  revert(add(32, returndata), returndata_size) */\n      revert\n        /* \"@openzeppelin/contracts/utils/Address.sol\":5686:6040  if (returndata.length > 0) {... */\n    tag_542:\n        /* \"@openzeppelin/contracts/utils/Address.sol\":6010:6029  Errors.FailedCall() */\n      mload(0x40)\n      0xd6bda27500000000000000000000000000000000000000000000000000000000\n      dup2\n      mstore\n      0x04\n      add\n      mload(0x40)\n      dup1\n      swap2\n      sub\n      swap1\n      revert\n        /* \"#utility.yul\":7:82   */\n    tag_544:\n        /* \"#utility.yul\":40:46   */\n      0x00\n        /* \"#utility.yul\":73:75   */\n      0x40\n        /* \"#utility.yul\":67:76   */\n      mload\n        /* \"#utility.yul\":57:76   */\n      swap1\n      pop\n        /* \"#utility.yul\":7:82   */\n      swap1\n      jump\t// out\n        /* \"#utility.yul\":88:205   */\n    tag_545:\n        /* \"#utility.yul\":197:198   */\n      0x00\n        /* \"#utility.yul\":194:195   */\n      0x00\n        /* \"#utility.yul\":187:199   */\n      revert\n        /* \"#utility.yul\":211:328   */\n    tag_546:\n        /* \"#utility.yul\":320:321   */\n      0x00\n        /* \"#utility.yul\":317:318   */\n      0x00\n        /* \"#utility.yul\":310:322   */\n      revert\n        /* \"#utility.yul\":334:483   */\n    tag_547:\n        /* \"#utility.yul\":370:377   */\n      0x00\n        /* \"#utility.yul\":410:476   */\n      0xffffffff00000000000000000000000000000000000000000000000000000000\n        /* \"#utility.yul\":403:408   */\n      dup3\n        /* \"#utility.yul\":399:477   */\n      and\n        /* \"#utility.yul\":388:477   */\n      swap1\n      pop\n        /* \"#utility.yul\":334:483   */\n      swap2\n      swap1\n      pop\n      jump\t// out\n        /* \"#utility.yul\":489:609   */\n    tag_548:\n        /* \"#utility.yul\":561:584   */\n      tag_634\n        /* \"#utility.yul\":578:583   */\n      dup2\n        /* \"#utility.yul\":561:584   */\n      tag_547\n      jump\t// in\n    tag_634:\n        /* \"#utility.yul\":554:559   */\n      dup2\n        /* \"#utility.yul\":551:585   */\n      eq\n        /* \"#utility.yul\":541:603   */\n      tag_635\n      jumpi\n        /* \"#utility.yul\":599:600   */\n      0x00\n        /* \"#utility.yul\":596:597   */\n      0x00\n        /* \"#utility.yul\":589:601   */\n      revert\n        /* \"#utility.yul\":541:603   */\n    tag_635:\n        /* \"#utility.yul\":489:609   */\n      pop\n      jump\t// out\n        /* \"#utility.yul\":615:752   */\n    tag_549:\n        /* \"#utility.yul\":660:665   */\n      0x00\n        /* \"#utility.yul\":698:704   */\n      dup2\n        /* \"#utility.yul\":685:705   */\n      calldataload\n        /* \"#utility.yul\":676:705   */\n      swap1\n      pop\n        /* \"#utility.yul\":714:746   */\n      tag_637\n        /* \"#utility.yul\":740:745   */\n      dup2\n        /* \"#utility.yul\":714:746   */\n      tag_548\n      jump\t// in\n    tag_637:\n        /* \"#utility.yul\":615:752   */\n      swap3\n      swap2\n      pop\n      pop\n      jump\t// out\n        /* \"#utility.yul\":758:1085   */\n    tag_48:\n        /* \"#utility.yul\":816:822   */\n      0x00\n        /* \"#utility.yul\":865:867   */\n      0x20\n        /* \"#utility.yul\":853:862   */\n      dup3\n        /* \"#utility.yul\":844:851   */\n      dup5\n        /* \"#utility.yul\":840:863   */\n      sub\n        /* \"#utility.yul\":836:868   */\n      slt\n        /* \"#utility.yul\":833:952   */\n      iszero\n      tag_639\n      jumpi\n        /* \"#utility.yul\":871:950   */\n      tag_640\n      tag_545\n      jump\t// in\n    tag_640:\n        /* \"#utility.yul\":833:952   */\n    tag_639:\n        /* \"#utility.yul\":991:992   */\n      0x00\n        /* \"#utility.yul\":1016:1068   */\n      tag_641\n        /* \"#utility.yul\":1060:1067   */\n      dup5\n        /* \"#utility.yul\":1051:1057   */\n      dup3\n        /* \"#utility.yul\":1040:1049   */\n      dup6\n        /* \"#utility.yul\":1036:1058   */\n      add\n        /* \"#utility.yul\":1016:1068   */\n      tag_549\n      jump\t// in\n    tag_641:\n        /* \"#utility.yul\":1006:1068   */\n      swap2\n      pop\n        /* \"#utility.yul\":962:1078   */\n      pop\n        /* \"#utility.yul\":758:1085   */\n      swap3\n      swap2\n      pop\n      pop\n      jump\t// out\n        /* \"#utility.yul\":1091:1181   */\n    tag_550:\n        /* \"#utility.yul\":1125:1132   */\n      0x00\n        /* \"#utility.yul\":1168:1173   */\n      dup2\n        /* \"#utility.yul\":1161:1174   */\n      iszero\n        /* \"#utility.yul\":1154:1175   */\n      iszero\n        /* \"#utility.yul\":1143:1175   */\n      swap1\n      pop\n        /* \"#utility.yul\":1091:1181   */\n      swap2\n      swap1\n      pop\n      jump\t// out\n        /* \"#utility.yul\":1187:1296   */\n    tag_551:\n        /* \"#utility.yul\":1268:1289   */\n      tag_644\n        /* \"#utility.yul\":1283:1288   */\n      dup2\n        /* \"#utility.yul\":1268:1289   */\n      tag_550\n      jump\t// in\n    tag_644:\n        /* \"#utility.yul\":1263:1266   */\n      dup3\n        /* \"#utility.yul\":1256:1290   */\n      mstore\n        /* \"#utility.yul\":1187:1296   */\n      pop\n      pop\n      jump\t// out\n        /* \"#utility.yul\":1302:1512   */\n    tag_51:\n        /* \"#utility.yul\":1389:1393   */\n      0x00\n        /* \"#utility.yul\":1427:1429   */\n      0x20\n        /* \"#utility.yul\":1416:1425   */\n      dup3\n        /* \"#utility.yul\":1412:1430   */\n      add\n        /* \"#utility.yul\":1404:1430   */\n      swap1\n      pop\n        /* \"#utility.yul\":1440:1505   */\n      tag_646\n        /* \"#utility.yul\":1502:1503   */\n      0x00\n        /* \"#utility.yul\":1491:1500   */\n      dup4\n        /* \"#utility.yul\":1487:1504   */\n      add\n        /* \"#utility.yul\":1478:1484   */\n      dup5\n        /* \"#utility.yul\":1440:1505   */\n      tag_551\n      jump\t// in\n    tag_646:\n        /* \"#utility.yul\":1302:1512   */\n      swap3\n      swap2\n      pop\n      pop\n      jump\t// out\n        /* \"#utility.yul\":1518:1644   */\n    tag_552:\n        /* \"#utility.yul\":1555:1562   */\n      0x00\n        /* \"#utility.yul\":1595:1637   */\n      0xffffffffffffffffffffffffffffffffffffffff\n        /* \"#utility.yul\":1588:1593   */\n      dup3\n        /* \"#utility.yul\":1584:1638   */\n      and\n        /* \"#utility.yul\":1573:1638   */\n      swap1\n      pop\n        /* \"#utility.yul\":1518:1644   */\n      swap2\n      swap1\n      pop\n      jump\t// out\n        /* \"#utility.yul\":1650:1746   */\n    tag_553:\n        /* \"#utility.yul\":1687:1694   */\n      0x00\n        /* \"#utility.yul\":1716:1740   */\n      tag_649\n        /* \"#utility.yul\":1734:1739   */\n      dup3\n        /* \"#utility.yul\":1716:1740   */\n      tag_552\n      jump\t// in\n    tag_649:\n        /* \"#utility.yul\":1705:1740   */\n      swap1\n      pop\n        /* \"#utility.yul\":1650:1746   */\n      swap2\n      swap1\n      pop\n      jump\t// out\n        /* \"#utility.yul\":1752:1874   */\n    tag_554:\n        /* \"#utility.yul\":1825:1849   */\n      tag_651\n        /* \"#utility.yul\":1843:1848   */\n      dup2\n        /* \"#utility.yul\":1825:1849   */\n      tag_553\n      jump\t// in\n    tag_651:\n        /* \"#utility.yul\":1818:1823   */\n      dup2\n        /* \"#utility.yul\":1815:1850   */\n      eq\n        /* \"#utility.yul\":1805:1868   */\n      tag_652\n      jumpi\n        /* \"#utility.yul\":1864:1865   */\n      0x00\n        /* \"#utility.yul\":1861:1862   */\n      0x00\n        /* \"#utility.yul\":1854:1866   */\n      revert\n        /* \"#utility.yul\":1805:1868   */\n    tag_652:\n        /* \"#utility.yul\":1752:1874   */\n      pop\n      jump\t// out\n        /* \"#utility.yul\":1880:2019   */\n    tag_555:\n        /* \"#utility.yul\":1926:1931   */\n      0x00\n        /* \"#utility.yul\":1964:1970   */\n      dup2\n        /* \"#utility.yul\":1951:1971   */\n      calldataload\n        /* \"#utility.yul\":1942:1971   */\n      swap1\n      pop\n        /* \"#utility.yul\":1980:2013   */\n      tag_654\n        /* \"#utility.yul\":2007:2012   */\n      dup2\n        /* \"#utility.yul\":1980:2013   */\n      tag_554\n      jump\t// in\n    tag_654:\n        /* \"#utility.yul\":1880:2019   */\n      swap3\n      swap2\n      pop\n      pop\n      jump\t// out\n        /* \"#utility.yul\":2025:2102   */\n    tag_556:\n        /* \"#utility.yul\":2062:2069   */\n      0x00\n        /* \"#utility.yul\":2091:2096   */\n      dup2\n        /* \"#utility.yul\":2080:2096   */\n      swap1\n      pop\n        /* \"#utility.yul\":2025:2102   */\n      swap2\n      swap1\n      pop\n      jump\t// out\n        /* \"#utility.yul\":2108:2230   */\n    tag_557:\n        /* \"#utility.yul\":2181:2205   */\n      tag_657\n        /* \"#utility.yul\":2199:2204   */\n      dup2\n        /* \"#utility.yul\":2181:2205   */\n      tag_556\n      jump\t// in\n    tag_657:\n        /* \"#utility.yul\":2174:2179   */\n      dup2\n        /* \"#utility.yul\":2171:2206   */\n      eq\n        /* \"#utility.yul\":2161:2224   */\n      tag_658\n      jumpi\n        /* \"#utility.yul\":2220:2221   */\n      0x00\n        /* \"#utility.yul\":2217:2218   */\n      0x00\n        /* \"#utility.yul\":2210:2222   */\n      revert\n        /* \"#utility.yul\":2161:2224   */\n    tag_658:\n        /* \"#utility.yul\":2108:2230   */\n      pop\n      jump\t// out\n        /* \"#utility.yul\":2236:2375   */\n    tag_558:\n        /* \"#utility.yul\":2282:2287   */\n      0x00\n        /* \"#utility.yul\":2320:2326   */\n      dup2\n        /* \"#utility.yul\":2307:2327   */\n      calldataload\n        /* \"#utility.yul\":2298:2327   */\n      swap1\n      pop\n        /* \"#utility.yul\":2336:2369   */\n      tag_660\n        /* \"#utility.yul\":2363:2368   */\n      dup2\n        /* \"#utility.yul\":2336:2369   */\n      tag_557\n      jump\t// in\n    tag_660:\n        /* \"#utility.yul\":2236:2375   */\n      swap3\n      swap2\n      pop\n      pop\n      jump\t// out\n        /* \"#utility.yul\":2381:2855   */\n    tag_55:\n        /* \"#utility.yul\":2449:2455   */\n      0x00\n        /* \"#utility.yul\":2457:2463   */\n      0x00\n        /* \"#utility.yul\":2506:2508   */\n      0x40\n        /* \"#utility.yul\":2494:2503   */\n      dup4\n        /* \"#utility.yul\":2485:2492   */\n      dup6\n        /* \"#utility.yul\":2481:2504   */\n      sub\n        /* \"#utility.yul\":2477:2509   */\n      slt\n        /* \"#utility.yul\":2474:2593   */\n      iszero\n      tag_662\n      jumpi\n        /* \"#utility.yul\":2512:2591   */\n      tag_663\n      tag_545\n      jump\t// in\n    tag_663:\n        /* \"#utility.yul\":2474:2593   */\n    tag_662:\n        /* \"#utility.yul\":2632:2633   */\n      0x00\n        /* \"#utility.yul\":2657:2710   */\n      tag_664\n        /* \"#utility.yul\":2702:2709   */\n      dup6\n        /* \"#utility.yul\":2693:2699   */\n      dup3\n        /* \"#utility.yul\":2682:2691   */\n      dup7\n        /* \"#utility.yul\":2678:2700   */\n      add\n        /* \"#utility.yul\":2657:2710   */\n      tag_555\n      jump\t// in\n    tag_664:\n        /* \"#utility.yul\":2647:2710   */\n      swap3\n      pop\n        /* \"#utility.yul\":2603:2720   */\n      pop\n        /* \"#utility.yul\":2759:2761   */\n      0x20\n        /* \"#utility.yul\":2785:2838   */\n      tag_665\n        /* \"#utility.yul\":2830:2837   */\n      dup6\n        /* \"#utility.yul\":2821:2827   */\n      dup3\n        /* \"#utility.yul\":2810:2819   */\n      dup7\n        /* \"#utility.yul\":2806:2828   */\n      add\n        /* \"#utility.yul\":2785:2838   */\n      tag_558\n      jump\t// in\n    tag_665:\n        /* \"#utility.yul\":2775:2838   */\n      swap2\n      pop\n        /* \"#utility.yul\":2730:2848   */\n      pop\n        /* \"#utility.yul\":2381:2855   */\n      swap3\n      pop\n      swap3\n      swap1\n      pop\n      jump\t// out\n        /* \"#utility.yul\":2861:2960   */\n    tag_559:\n        /* \"#utility.yul\":2913:2919   */\n      0x00\n        /* \"#utility.yul\":2947:2952   */\n      dup2\n        /* \"#utility.yul\":2941:2953   */\n      mload\n        /* \"#utility.yul\":2931:2953   */\n      swap1\n      pop\n        /* \"#utility.yul\":2861:2960   */\n      swap2\n      swap1\n      pop\n      jump\t// out\n        /* \"#utility.yul\":2966:3135   */\n    tag_560:\n        /* \"#utility.yul\":3050:3061   */\n      0x00\n        /* \"#utility.yul\":3084:3090   */\n      dup3\n        /* \"#utility.yul\":3079:3082   */\n      dup3\n        /* \"#utility.yul\":3072:3091   */\n      mstore\n        /* \"#utility.yul\":3124:3128   */\n      0x20\n        /* \"#utility.yul\":3119:3122   */\n      dup3\n        /* \"#utility.yul\":3115:3129   */\n      add\n        /* \"#utility.yul\":3100:3129   */\n      swap1\n      pop\n        /* \"#utility.yul\":2966:3135   */\n      swap3\n      swap2\n      pop\n      pop\n      jump\t// out\n        /* \"#utility.yul\":3141:3280   */\n    tag_561:\n        /* \"#utility.yul\":3230:3236   */\n      dup3\n        /* \"#utility.yul\":3225:3228   */\n      dup2\n        /* \"#utility.yul\":3220:3223   */\n      dup4\n        /* \"#utility.yul\":3214:3237   */\n      mcopy\n        /* \"#utility.yul\":3271:3272   */\n      0x00\n        /* \"#utility.yul\":3262:3268   */\n      dup4\n        /* \"#utility.yul\":3257:3260   */\n      dup4\n        /* \"#utility.yul\":3253:3269   */\n      add\n        /* \"#utility.yul\":3246:3273   */\n      mstore\n        /* \"#utility.yul\":3141:3280   */\n      pop\n      pop\n      pop\n      jump\t// out\n        /* \"#utility.yul\":3286:3388   */\n    tag_562:\n        /* \"#utility.yul\":3327:3333   */\n      0x00\n        /* \"#utility.yul\":3378:3380   */\n      0x1f\n        /* \"#utility.yul\":3374:3381   */\n      not\n        /* \"#utility.yul\":3369:3371   */\n      0x1f\n        /* \"#utility.yul\":3362:3367   */\n      dup4\n        /* \"#utility.yul\":3358:3372   */\n      add\n        /* \"#utility.yul\":3354:3382   */\n      and\n        /* \"#utility.yul\":3344:3382   */\n      swap1\n      pop\n        /* \"#utility.yul\":3286:3388   */\n      swap2\n      swap1\n      pop\n      jump\t// out\n        /* \"#utility.yul\":3394:3771   */\n    tag_563:\n        /* \"#utility.yul\":3482:3485   */\n      0x00\n        /* \"#utility.yul\":3510:3549   */\n      tag_671\n        /* \"#utility.yul\":3543:3548   */\n      dup3\n        /* \"#utility.yul\":3510:3549   */\n      tag_559\n      jump\t// in\n    tag_671:\n        /* \"#utility.yul\":3565:3636   */\n      tag_672\n        /* \"#utility.yul\":3629:3635   */\n      dup2\n        /* \"#utility.yul\":3624:3627   */\n      dup6\n        /* \"#utility.yul\":3565:3636   */\n      tag_560\n      jump\t// in\n    tag_672:\n        /* \"#utility.yul\":3558:3636   */\n      swap4\n      pop\n        /* \"#utility.yul\":3645:3710   */\n      tag_673\n        /* \"#utility.yul\":3703:3709   */\n      dup2\n        /* \"#utility.yul\":3698:3701   */\n      dup6\n        /* \"#utility.yul\":3691:3695   */\n      0x20\n        /* \"#utility.yul\":3684:3689   */\n      dup7\n        /* \"#utility.yul\":3680:3696   */\n      add\n        /* \"#utility.yul\":3645:3710   */\n      tag_561\n      jump\t// in\n    tag_673:\n        /* \"#utility.yul\":3735:3764   */\n      tag_674\n        /* \"#utility.yul\":3757:3763   */\n      dup2\n        /* \"#utility.yul\":3735:3764   */\n      tag_562\n      jump\t// in\n    tag_674:\n        /* \"#utility.yul\":3730:3733   */\n      dup5\n        /* \"#utility.yul\":3726:3765   */\n      add\n        /* \"#utility.yul\":3719:3765   */\n      swap2\n      pop\n        /* \"#utility.yul\":3486:3771   */\n      pop\n        /* \"#utility.yul\":3394:3771   */\n      swap3\n      swap2\n      pop\n      pop\n      jump\t// out\n        /* \"#utility.yul\":3777:4090   */\n    tag_61:\n        /* \"#utility.yul\":3890:3894   */\n      0x00\n        /* \"#utility.yul\":3928:3930   */\n      0x20\n        /* \"#utility.yul\":3917:3926   */\n      dup3\n        /* \"#utility.yul\":3913:3931   */\n      add\n        /* \"#utility.yul\":3905:3931   */\n      swap1\n      pop\n        /* \"#utility.yul\":3977:3986   */\n      dup2\n        /* \"#utility.yul\":3971:3975   */\n      dup2\n        /* \"#utility.yul\":3967:3987   */\n      sub\n        /* \"#utility.yul\":3963:3964   */\n      0x00\n        /* \"#utility.yul\":3952:3961   */\n      dup4\n        /* \"#utility.yul\":3948:3965   */\n      add\n        /* \"#utility.yul\":3941:3988   */\n      mstore\n        /* \"#utility.yul\":4005:4083   */\n      tag_676\n        /* \"#utility.yul\":4078:4082   */\n      dup2\n        /* \"#utility.yul\":4069:4075   */\n      dup5\n        /* \"#utility.yul\":4005:4083   */\n      tag_563\n      jump\t// in\n    tag_676:\n        /* \"#utility.yul\":3997:4083   */\n      swap1\n      pop\n        /* \"#utility.yul\":3777:4090   */\n      swap3\n      swap2\n      pop\n      pop\n      jump\t// out\n        /* \"#utility.yul\":4096:4214   */\n    tag_564:\n        /* \"#utility.yul\":4183:4207   */\n      tag_678\n        /* \"#utility.yul\":4201:4206   */\n      dup2\n        /* \"#utility.yul\":4183:4207   */\n      tag_556\n      jump\t// in\n    tag_678:\n        /* \"#utility.yul\":4178:4181   */\n      dup3\n        /* \"#utility.yul\":4171:4208   */\n      mstore\n        /* \"#utility.yul\":4096:4214   */\n      pop\n      pop\n      jump\t// out\n        /* \"#utility.yul\":4220:4442   */\n    tag_71:\n        /* \"#utility.yul\":4313:4317   */\n      0x00\n        /* \"#utility.yul\":4351:4353   */\n      0x20\n        /* \"#utility.yul\":4340:4349   */\n      dup3\n        /* \"#utility.yul\":4336:4354   */\n      add\n        /* \"#utility.yul\":4328:4354   */\n      swap1\n      pop\n        /* \"#utility.yul\":4364:4435   */\n      tag_680\n        /* \"#utility.yul\":4432:4433   */\n      0x00\n        /* \"#utility.yul\":4421:4430   */\n      dup4\n        /* \"#utility.yul\":4417:4434   */\n      add\n        /* \"#utility.yul\":4408:4414   */\n      dup5\n        /* \"#utility.yul\":4364:4435   */\n      tag_564\n      jump\t// in\n    tag_680:\n        /* \"#utility.yul\":4220:4442   */\n      swap3\n      swap2\n      pop\n      pop\n      jump\t// out\n        /* \"#utility.yul\":4448:5067   */\n    tag_75:\n        /* \"#utility.yul\":4525:4531   */\n      0x00\n        /* \"#utility.yul\":4533:4539   */\n      0x00\n        /* \"#utility.yul\":4541:4547   */\n      0x00\n        /* \"#utility.yul\":4590:4592   */\n      0x60\n        /* \"#utility.yul\":4578:4587   */\n      dup5\n        /* \"#utility.yul\":4569:4576   */\n      dup7\n        /* \"#utility.yul\":4565:4588   */\n      sub\n        /* \"#utility.yul\":4561:4593   */\n      slt\n        /* \"#utility.yul\":4558:4677   */\n      iszero\n      tag_682\n      jumpi\n        /* \"#utility.yul\":4596:4675   */\n      tag_683\n      tag_545\n      jump\t// in\n    tag_683:\n        /* \"#utility.yul\":4558:4677   */\n    tag_682:\n        /* \"#utility.yul\":4716:4717   */\n      0x00\n        /* \"#utility.yul\":4741:4794   */\n      tag_684\n        /* \"#utility.yul\":4786:4793   */\n      dup7\n        /* \"#utility.yul\":4777:4783   */\n      dup3\n        /* \"#utility.yul\":4766:4775   */\n      dup8\n        /* \"#utility.yul\":4762:4784   */\n      add\n        /* \"#utility.yul\":4741:4794   */\n      tag_555\n      jump\t// in\n    tag_684:\n        /* \"#utility.yul\":4731:4794   */\n      swap4\n      pop\n        /* \"#utility.yul\":4687:4804   */\n      pop\n        /* \"#utility.yul\":4843:4845   */\n      0x20\n        /* \"#utility.yul\":4869:4922   */\n      tag_685\n        /* \"#utility.yul\":4914:4921   */\n      dup7\n        /* \"#utility.yul\":4905:4911   */\n      dup3\n        /* \"#utility.yul\":4894:4903   */\n      dup8\n        /* \"#utility.yul\":4890:4912   */\n      add\n        /* \"#utility.yul\":4869:4922   */\n      tag_555\n      jump\t// in\n    tag_685:\n        /* \"#utility.yul\":4859:4922   */\n      swap3\n      pop\n        /* \"#utility.yul\":4814:4932   */\n      pop\n        /* \"#utility.yul\":4971:4973   */\n      0x40\n        /* \"#utility.yul\":4997:5050   */\n      tag_686\n        /* \"#utility.yul\":5042:5049   */\n      dup7\n        /* \"#utility.yul\":5033:5039   */\n      dup3\n        /* \"#utility.yul\":5022:5031   */\n      dup8\n        /* \"#utility.yul\":5018:5040   */\n      add\n        /* \"#utility.yul\":4997:5050   */\n      tag_558\n      jump\t// in\n    tag_686:\n        /* \"#utility.yul\":4987:5050   */\n      swap2\n      pop\n        /* \"#utility.yul\":4942:5060   */\n      pop\n        /* \"#utility.yul\":4448:5067   */\n      swap3\n      pop\n      swap3\n      pop\n      swap3\n      jump\t// out\n        /* \"#utility.yul\":5073:5150   */\n    tag_565:\n        /* \"#utility.yul\":5110:5117   */\n      0x00\n        /* \"#utility.yul\":5139:5144   */\n      dup2\n        /* \"#utility.yul\":5128:5144   */\n      swap1\n      pop\n        /* \"#utility.yul\":5073:5150   */\n      swap2\n      swap1\n      pop\n      jump\t// out\n        /* \"#utility.yul\":5156:5278   */\n    tag_566:\n        /* \"#utility.yul\":5229:5253   */\n      tag_689\n        /* \"#utility.yul\":5247:5252   */\n      dup2\n        /* \"#utility.yul\":5229:5253   */\n      tag_565\n      jump\t// in\n    tag_689:\n        /* \"#utility.yul\":5222:5227   */\n      dup2\n        /* \"#utility.yul\":5219:5254   */\n      eq\n        /* \"#utility.yul\":5209:5272   */\n      tag_690\n      jumpi\n        /* \"#utility.yul\":5268:5269   */\n      0x00\n        /* \"#utility.yul\":5265:5266   */\n      0x00\n        /* \"#utility.yul\":5258:5270   */\n      revert\n        /* \"#utility.yul\":5209:5272   */\n    tag_690:\n        /* \"#utility.yul\":5156:5278   */\n      pop\n      jump\t// out\n        /* \"#utility.yul\":5284:5423   */\n    tag_567:\n        /* \"#utility.yul\":5330:5335   */\n      0x00\n        /* \"#utility.yul\":5368:5374   */\n      dup2\n        /* \"#utility.yul\":5355:5375   */\n      calldataload\n        /* \"#utility.yul\":5346:5375   */\n      swap1\n      pop\n        /* \"#utility.yul\":5384:5417   */\n      tag_692\n        /* \"#utility.yul\":5411:5416   */\n      dup2\n        /* \"#utility.yul\":5384:5417   */\n      tag_566\n      jump\t// in\n    tag_692:\n        /* \"#utility.yul\":5284:5423   */\n      swap3\n      swap2\n      pop\n      pop\n      jump\t// out\n        /* \"#utility.yul\":5429:5758   */\n    tag_81:\n        /* \"#utility.yul\":5488:5494   */\n      0x00\n        /* \"#utility.yul\":5537:5539   */\n      0x20\n        /* \"#utility.yul\":5525:5534   */\n      dup3\n        /* \"#utility.yul\":5516:5523   */\n      dup5\n        /* \"#utility.yul\":5512:5535   */\n      sub\n        /* \"#utility.yul\":5508:5540   */\n      slt\n        /* \"#utility.yul\":5505:5624   */\n      iszero\n      tag_694\n      jumpi\n        /* \"#utility.yul\":5543:5622   */\n      tag_695\n      tag_545\n      jump\t// in\n    tag_695:\n        /* \"#utility.yul\":5505:5624   */\n    tag_694:\n        /* \"#utility.yul\":5663:5664   */\n      0x00\n        /* \"#utility.yul\":5688:5741   */\n      tag_696\n        /* \"#utility.yul\":5733:5740   */\n      dup5\n        /* \"#utility.yul\":5724:5730   */\n      dup3\n        /* \"#utility.yul\":5713:5722   */\n      dup6\n        /* \"#utility.yul\":5709:5731   */\n      add\n        /* \"#utility.yul\":5688:5741   */\n      tag_567\n      jump\t// in\n    tag_696:\n        /* \"#utility.yul\":5678:5741   */\n      swap2\n      pop\n        /* \"#utility.yul\":5634:5751   */\n      pop\n        /* \"#utility.yul\":5429:5758   */\n      swap3\n      swap2\n      pop\n      pop\n      jump\t// out\n        /* \"#utility.yul\":5764:5882   */\n    tag_568:\n        /* \"#utility.yul\":5851:5875   */\n      tag_698\n        /* \"#utility.yul\":5869:5874   */\n      dup2\n        /* \"#utility.yul\":5851:5875   */\n      tag_565\n      jump\t// in\n    tag_698:\n        /* \"#utility.yul\":5846:5849   */\n      dup3\n        /* \"#utility.yul\":5839:5876   */\n      mstore\n        /* \"#utility.yul\":5764:5882   */\n      pop\n      pop\n      jump\t// out\n        /* \"#utility.yul\":5888:6110   */\n    tag_84:\n        /* \"#utility.yul\":5981:5985   */\n      0x00\n        /* \"#utility.yul\":6019:6021   */\n      0x20\n        /* \"#utility.yul\":6008:6017   */\n      dup3\n        /* \"#utility.yul\":6004:6022   */\n      add\n        /* \"#utility.yul\":5996:6022   */\n      swap1\n      pop\n        /* \"#utility.yul\":6032:6103   */\n      tag_700\n        /* \"#utility.yul\":6100:6101   */\n      0x00\n        /* \"#utility.yul\":6089:6098   */\n      dup4\n        /* \"#utility.yul\":6085:6102   */\n      add\n        /* \"#utility.yul\":6076:6082   */\n      dup5\n        /* \"#utility.yul\":6032:6103   */\n      tag_568\n      jump\t// in\n    tag_700:\n        /* \"#utility.yul\":5888:6110   */\n      swap3\n      swap2\n      pop\n      pop\n      jump\t// out\n        /* \"#utility.yul\":6116:6590   */\n    tag_88:\n        /* \"#utility.yul\":6184:6190   */\n      0x00\n        /* \"#utility.yul\":6192:6198   */\n      0x00\n        /* \"#utility.yul\":6241:6243   */\n      0x40\n        /* \"#utility.yul\":6229:6238   */\n      dup4\n        /* \"#utility.yul\":6220:6227   */\n      dup6\n        /* \"#utility.yul\":6216:6239   */\n      sub\n        /* \"#utility.yul\":6212:6244   */\n      slt\n        /* \"#utility.yul\":6209:6328   */\n      iszero\n      tag_702\n      jumpi\n        /* \"#utility.yul\":6247:6326   */\n      tag_703\n      tag_545\n      jump\t// in\n    tag_703:\n        /* \"#utility.yul\":6209:6328   */\n    tag_702:\n        /* \"#utility.yul\":6367:6368   */\n      0x00\n        /* \"#utility.yul\":6392:6445   */\n      tag_704\n        /* \"#utility.yul\":6437:6444   */\n      dup6\n        /* \"#utility.yul\":6428:6434   */\n      dup3\n        /* \"#utility.yul\":6417:6426   */\n      dup7\n        /* \"#utility.yul\":6413:6435   */\n      add\n        /* \"#utility.yul\":6392:6445   */\n      tag_567\n      jump\t// in\n    tag_704:\n        /* \"#utility.yul\":6382:6445   */\n      swap3\n      pop\n        /* \"#utility.yul\":6338:6455   */\n      pop\n        /* \"#utility.yul\":6494:6496   */\n      0x20\n        /* \"#utility.yul\":6520:6573   */\n      tag_705\n        /* \"#utility.yul\":6565:6572   */\n      dup6\n        /* \"#utility.yul\":6556:6562   */\n      dup3\n        /* \"#utility.yul\":6545:6554   */\n      dup7\n        /* \"#utility.yul\":6541:6563   */\n      add\n        /* \"#utility.yul\":6520:6573   */\n      tag_555\n      jump\t// in\n    tag_705:\n        /* \"#utility.yul\":6510:6573   */\n      swap2\n      pop\n        /* \"#utility.yul\":6465:6583   */\n      pop\n        /* \"#utility.yul\":6116:6590   */\n      swap3\n      pop\n      swap3\n      swap1\n      pop\n      jump\t// out\n        /* \"#utility.yul\":6596:6682   */\n    tag_569:\n        /* \"#utility.yul\":6631:6638   */\n      0x00\n        /* \"#utility.yul\":6671:6675   */\n      0xff\n        /* \"#utility.yul\":6664:6669   */\n      dup3\n        /* \"#utility.yul\":6660:6676   */\n      and\n        /* \"#utility.yul\":6649:6676   */\n      swap1\n      pop\n        /* \"#utility.yul\":6596:6682   */\n      swap2\n      swap1\n      pop\n      jump\t// out\n        /* \"#utility.yul\":6688:6800   */\n    tag_570:\n        /* \"#utility.yul\":6771:6793   */\n      tag_708\n        /* \"#utility.yul\":6787:6792   */\n      dup2\n        /* \"#utility.yul\":6771:6793   */\n      tag_569\n      jump\t// in\n    tag_708:\n        /* \"#utility.yul\":6766:6769   */\n      dup3\n        /* \"#utility.yul\":6759:6794   */\n      mstore\n        /* \"#utility.yul\":6688:6800   */\n      pop\n      pop\n      jump\t// out\n        /* \"#utility.yul\":6806:7020   */\n    tag_94:\n        /* \"#utility.yul\":6895:6899   */\n      0x00\n        /* \"#utility.yul\":6933:6935   */\n      0x20\n        /* \"#utility.yul\":6922:6931   */\n      dup3\n        /* \"#utility.yul\":6918:6936   */\n      add\n        /* \"#utility.yul\":6910:6936   */\n      swap1\n      pop\n        /* \"#utility.yul\":6946:7013   */\n      tag_710\n        /* \"#utility.yul\":7010:7011   */\n      0x00\n        /* \"#utility.yul\":6999:7008   */\n      dup4\n        /* \"#utility.yul\":6995:7012   */\n      add\n        /* \"#utility.yul\":6986:6992   */\n      dup5\n        /* \"#utility.yul\":6946:7013   */\n      tag_570\n      jump\t// in\n    tag_710:\n        /* \"#utility.yul\":6806:7020   */\n      swap3\n      swap2\n      pop\n      pop\n      jump\t// out\n        /* \"#utility.yul\":7026:7086   */\n    tag_571:\n        /* \"#utility.yul\":7054:7057   */\n      0x00\n        /* \"#utility.yul\":7075:7080   */\n      dup2\n        /* \"#utility.yul\":7068:7080   */\n      swap1\n      pop\n        /* \"#utility.yul\":7026:7086   */\n      swap2\n      swap1\n      pop\n      jump\t// out\n        /* \"#utility.yul\":7092:7234   */\n    tag_572:\n        /* \"#utility.yul\":7142:7151   */\n      0x00\n        /* \"#utility.yul\":7175:7228   */\n      tag_713\n        /* \"#utility.yul\":7193:7227   */\n      tag_714\n        /* \"#utility.yul\":7202:7226   */\n      tag_715\n        /* \"#utility.yul\":7220:7225   */\n      dup5\n        /* \"#utility.yul\":7202:7226   */\n      tag_552\n      jump\t// in\n    tag_715:\n        /* \"#utility.yul\":7193:7227   */\n      tag_571\n      jump\t// in\n    tag_714:\n        /* \"#utility.yul\":7175:7228   */\n      tag_552\n      jump\t// in\n    tag_713:\n        /* \"#utility.yul\":7162:7228   */\n      swap1\n      pop\n        /* \"#utility.yul\":7092:7234   */\n      swap2\n      swap1\n      pop\n      jump\t// out\n        /* \"#utility.yul\":7240:7366   */\n    tag_573:\n        /* \"#utility.yul\":7290:7299   */\n      0x00\n        /* \"#utility.yul\":7323:7360   */\n      tag_717\n        /* \"#utility.yul\":7354:7359   */\n      dup3\n        /* \"#utility.yul\":7323:7360   */\n      tag_572\n      jump\t// in\n    tag_717:\n        /* \"#utility.yul\":7310:7360   */\n      swap1\n      pop\n        /* \"#utility.yul\":7240:7366   */\n      swap2\n      swap1\n      pop\n      jump\t// out\n        /* \"#utility.yul\":7372:7521   */\n    tag_574:\n        /* \"#utility.yul\":7445:7454   */\n      0x00\n        /* \"#utility.yul\":7478:7515   */\n      tag_719\n        /* \"#utility.yul\":7509:7514   */\n      dup3\n        /* \"#utility.yul\":7478:7515   */\n      tag_573\n      jump\t// in\n    tag_719:\n        /* \"#utility.yul\":7465:7515   */\n      swap1\n      pop\n        /* \"#utility.yul\":7372:7521   */\n      swap2\n      swap1\n      pop\n      jump\t// out\n        /* \"#utility.yul\":7527:7704   */\n    tag_575:\n        /* \"#utility.yul\":7637:7697   */\n      tag_721\n        /* \"#utility.yul\":7691:7696   */\n      dup2\n        /* \"#utility.yul\":7637:7697   */\n      tag_574\n      jump\t// in\n    tag_721:\n        /* \"#utility.yul\":7632:7635   */\n      dup3\n        /* \"#utility.yul\":7625:7698   */\n      mstore\n        /* \"#utility.yul\":7527:7704   */\n      pop\n      pop\n      jump\t// out\n        /* \"#utility.yul\":7710:7978   */\n    tag_103:\n        /* \"#utility.yul\":7826:7830   */\n      0x00\n        /* \"#utility.yul\":7864:7866   */\n      0x20\n        /* \"#utility.yul\":7853:7862   */\n      dup3\n        /* \"#utility.yul\":7849:7867   */\n      add\n        /* \"#utility.yul\":7841:7867   */\n      swap1\n      pop\n        /* \"#utility.yul\":7877:7971   */\n      tag_723\n        /* \"#utility.yul\":7968:7969   */\n      0x00\n        /* \"#utility.yul\":7957:7966   */\n      dup4\n        /* \"#utility.yul\":7953:7970   */\n      add\n        /* \"#utility.yul\":7944:7950   */\n      dup5\n        /* \"#utility.yul\":7877:7971   */\n      tag_575\n      jump\t// in\n    tag_723:\n        /* \"#utility.yul\":7710:7978   */\n      swap3\n      swap2\n      pop\n      pop\n      jump\t// out\n        /* \"#utility.yul\":7984:8313   */\n    tag_111:\n        /* \"#utility.yul\":8043:8049   */\n      0x00\n        /* \"#utility.yul\":8092:8094   */\n      0x20\n        /* \"#utility.yul\":8080:8089   */\n      dup3\n        /* \"#utility.yul\":8071:8078   */\n      dup5\n        /* \"#utility.yul\":8067:8090   */\n      sub\n        /* \"#utility.yul\":8063:8095   */\n      slt\n        /* \"#utility.yul\":8060:8179   */\n      iszero\n      tag_725\n      jumpi\n        /* \"#utility.yul\":8098:8177   */\n      tag_726\n      tag_545\n      jump\t// in\n    tag_726:\n        /* \"#utility.yul\":8060:8179   */\n    tag_725:\n        /* \"#utility.yul\":8218:8219   */\n      0x00\n        /* \"#utility.yul\":8243:8296   */\n      tag_727\n        /* \"#utility.yul\":8288:8295   */\n      dup5\n        /* \"#utility.yul\":8279:8285   */\n      dup3\n        /* \"#utility.yul\":8268:8277   */\n      dup6\n        /* \"#utility.yul\":8264:8286   */\n      add\n        /* \"#utility.yul\":8243:8296   */\n      tag_558\n      jump\t// in\n    tag_727:\n        /* \"#utility.yul\":8233:8296   */\n      swap2\n      pop\n        /* \"#utility.yul\":8189:8306   */\n      pop\n        /* \"#utility.yul\":7984:8313   */\n      swap3\n      swap2\n      pop\n      pop\n      jump\t// out\n        /* \"#utility.yul\":8319:8436   */\n    tag_576:\n        /* \"#utility.yul\":8428:8429   */\n      0x00\n        /* \"#utility.yul\":8425:8426   */\n      0x00\n        /* \"#utility.yul\":8418:8430   */\n      revert\n        /* \"#utility.yul\":8442:8559   */\n    tag_577:\n        /* \"#utility.yul\":8551:8552   */\n      0x00\n        /* \"#utility.yul\":8548:8549   */\n      0x00\n        /* \"#utility.yul\":8541:8553   */\n      revert\n        /* \"#utility.yul\":8565:8745   */\n    tag_578:\n        /* \"#utility.yul\":8613:8690   */\n      0x4e487b7100000000000000000000000000000000000000000000000000000000\n        /* \"#utility.yul\":8610:8611   */\n      0x00\n        /* \"#utility.yul\":8603:8691   */\n      mstore\n        /* \"#utility.yul\":8710:8714   */\n      0x41\n        /* \"#utility.yul\":8707:8708   */\n      0x04\n        /* \"#utility.yul\":8700:8715   */\n      mstore\n        /* \"#utility.yul\":8734:8738   */\n      0x24\n        /* \"#utility.yul\":8731:8732   */\n      0x00\n        /* \"#utility.yul\":8724:8739   */\n      revert\n        /* \"#utility.yul\":8751:9032   */\n    tag_579:\n        /* \"#utility.yul\":8834:8861   */\n      tag_732\n        /* \"#utility.yul\":8856:8860   */\n      dup3\n        /* \"#utility.yul\":8834:8861   */\n      tag_562\n      jump\t// in\n    tag_732:\n        /* \"#utility.yul\":8826:8832   */\n      dup2\n        /* \"#utility.yul\":8822:8862   */\n      add\n        /* \"#utility.yul\":8964:8970   */\n      dup2\n        /* \"#utility.yul\":8952:8962   */\n      dup2\n        /* \"#utility.yul\":8949:8971   */\n      lt\n        /* \"#utility.yul\":8928:8946   */\n      0xffffffffffffffff\n        /* \"#utility.yul\":8916:8926   */\n      dup3\n        /* \"#utility.yul\":8913:8947   */\n      gt\n        /* \"#utility.yul\":8910:8972   */\n      or\n        /* \"#utility.yul\":8907:8995   */\n      iszero\n      tag_733\n      jumpi\n        /* \"#utility.yul\":8975:8993   */\n      tag_734\n      tag_578\n      jump\t// in\n    tag_734:\n        /* \"#utility.yul\":8907:8995   */\n    tag_733:\n        /* \"#utility.yul\":9015:9025   */\n      dup1\n        /* \"#utility.yul\":9011:9013   */\n      0x40\n        /* \"#utility.yul\":9004:9026   */\n      mstore\n        /* \"#utility.yul\":8794:9032   */\n      pop\n        /* \"#utility.yul\":8751:9032   */\n      pop\n      pop\n      jump\t// out\n        /* \"#utility.yul\":9038:9167   */\n    tag_580:\n        /* \"#utility.yul\":9072:9078   */\n      0x00\n        /* \"#utility.yul\":9099:9119   */\n      tag_736\n      tag_544\n      jump\t// in\n    tag_736:\n        /* \"#utility.yul\":9089:9119   */\n      swap1\n      pop\n        /* \"#utility.yul\":9128:9161   */\n      tag_737\n        /* \"#utility.yul\":9156:9160   */\n      dup3\n        /* \"#utility.yul\":9148:9154   */\n      dup3\n        /* \"#utility.yul\":9128:9161   */\n      tag_579\n      jump\t// in\n    tag_737:\n        /* \"#utility.yul\":9038:9167   */\n      swap2\n      swap1\n      pop\n      jump\t// out\n        /* \"#utility.yul\":9173:9480   */\n    tag_581:\n        /* \"#utility.yul\":9234:9238   */\n      0x00\n        /* \"#utility.yul\":9324:9342   */\n      0xffffffffffffffff\n        /* \"#utility.yul\":9316:9322   */\n      dup3\n        /* \"#utility.yul\":9313:9343   */\n      gt\n        /* \"#utility.yul\":9310:9366   */\n      iszero\n      tag_739\n      jumpi\n        /* \"#utility.yul\":9346:9364   */\n      tag_740\n      tag_578\n      jump\t// in\n    tag_740:\n        /* \"#utility.yul\":9310:9366   */\n    tag_739:\n        /* \"#utility.yul\":9384:9413   */\n      tag_741\n        /* \"#utility.yul\":9406:9412   */\n      dup3\n        /* \"#utility.yul\":9384:9413   */\n      tag_562\n      jump\t// in\n    tag_741:\n        /* \"#utility.yul\":9376:9413   */\n      swap1\n      pop\n        /* \"#utility.yul\":9468:9472   */\n      0x20\n        /* \"#utility.yul\":9462:9466   */\n      dup2\n        /* \"#utility.yul\":9458:9473   */\n      add\n        /* \"#utility.yul\":9450:9473   */\n      swap1\n      pop\n        /* \"#utility.yul\":9173:9480   */\n      swap2\n      swap1\n      pop\n      jump\t// out\n        /* \"#utility.yul\":9486:9634   */\n    tag_582:\n        /* \"#utility.yul\":9584:9590   */\n      dup3\n        /* \"#utility.yul\":9579:9582   */\n      dup2\n        /* \"#utility.yul\":9574:9577   */\n      dup4\n        /* \"#utility.yul\":9561:9591   */\n      calldatacopy\n        /* \"#utility.yul\":9625:9626   */\n      0x00\n        /* \"#utility.yul\":9616:9622   */\n      dup4\n        /* \"#utility.yul\":9611:9614   */\n      dup4\n        /* \"#utility.yul\":9607:9623   */\n      add\n        /* \"#utility.yul\":9600:9627   */\n      mstore\n        /* \"#utility.yul\":9486:9634   */\n      pop\n      pop\n      pop\n      jump\t// out\n        /* \"#utility.yul\":9640:10063   */\n    tag_583:\n        /* \"#utility.yul\":9717:9722   */\n      0x00\n        /* \"#utility.yul\":9742:9807   */\n      tag_744\n        /* \"#utility.yul\":9758:9806   */\n      tag_745\n        /* \"#utility.yul\":9799:9805   */\n      dup5\n        /* \"#utility.yul\":9758:9806   */\n      tag_581\n      jump\t// in\n    tag_745:\n        /* \"#utility.yul\":9742:9807   */\n      tag_580\n      jump\t// in\n    tag_744:\n        /* \"#utility.yul\":9733:9807   */\n      swap1\n      pop\n        /* \"#utility.yul\":9830:9836   */\n      dup3\n        /* \"#utility.yul\":9823:9828   */\n      dup2\n        /* \"#utility.yul\":9816:9837   */\n      mstore\n        /* \"#utility.yul\":9868:9872   */\n      0x20\n        /* \"#utility.yul\":9861:9866   */\n      dup2\n        /* \"#utility.yul\":9857:9873   */\n      add\n        /* \"#utility.yul\":9906:9909   */\n      dup5\n        /* \"#utility.yul\":9897:9903   */\n      dup5\n        /* \"#utility.yul\":9892:9895   */\n      dup5\n        /* \"#utility.yul\":9888:9904   */\n      add\n        /* \"#utility.yul\":9885:9910   */\n      gt\n        /* \"#utility.yul\":9882:9994   */\n      iszero\n      tag_746\n      jumpi\n        /* \"#utility.yul\":9913:9992   */\n      tag_747\n      tag_577\n      jump\t// in\n    tag_747:\n        /* \"#utility.yul\":9882:9994   */\n    tag_746:\n        /* \"#utility.yul\":10003:10057   */\n      tag_748\n        /* \"#utility.yul\":10050:10056   */\n      dup5\n        /* \"#utility.yul\":10045:10048   */\n      dup3\n        /* \"#utility.yul\":10040:10043   */\n      dup6\n        /* \"#utility.yul\":10003:10057   */\n      tag_582\n      jump\t// in\n    tag_748:\n        /* \"#utility.yul\":9723:10063   */\n      pop\n        /* \"#utility.yul\":9640:10063   */\n      swap4\n      swap3\n      pop\n      pop\n      pop\n      jump\t// out\n        /* \"#utility.yul\":10082:10420   */\n    tag_584:\n        /* \"#utility.yul\":10137:10142   */\n      0x00\n        /* \"#utility.yul\":10186:10189   */\n      dup3\n        /* \"#utility.yul\":10179:10183   */\n      0x1f\n        /* \"#utility.yul\":10171:10177   */\n      dup4\n        /* \"#utility.yul\":10167:10184   */\n      add\n        /* \"#utility.yul\":10163:10190   */\n      slt\n        /* \"#utility.yul\":10153:10275   */\n      tag_750\n      jumpi\n        /* \"#utility.yul\":10194:10273   */\n      tag_751\n      tag_576\n      jump\t// in\n    tag_751:\n        /* \"#utility.yul\":10153:10275   */\n    tag_750:\n        /* \"#utility.yul\":10311:10317   */\n      dup2\n        /* \"#utility.yul\":10298:10318   */\n      calldataload\n        /* \"#utility.yul\":10336:10414   */\n      tag_752\n        /* \"#utility.yul\":10410:10413   */\n      dup5\n        /* \"#utility.yul\":10402:10408   */\n      dup3\n        /* \"#utility.yul\":10395:10399   */\n      0x20\n        /* \"#utility.yul\":10387:10393   */\n      dup7\n        /* \"#utility.yul\":10383:10400   */\n      add\n        /* \"#utility.yul\":10336:10414   */\n      tag_583\n      jump\t// in\n    tag_752:\n        /* \"#utility.yul\":10327:10414   */\n      swap2\n      pop\n        /* \"#utility.yul\":10143:10420   */\n      pop\n        /* \"#utility.yul\":10082:10420   */\n      swap3\n      swap2\n      pop\n      pop\n      jump\t// out\n        /* \"#utility.yul\":10426:11078   */\n    tag_115:\n        /* \"#utility.yul\":10503:10509   */\n      0x00\n        /* \"#utility.yul\":10511:10517   */\n      0x00\n        /* \"#utility.yul\":10560:10562   */\n      0x40\n        /* \"#utility.yul\":10548:10557   */\n      dup4\n        /* \"#utility.yul\":10539:10546   */\n      dup6\n        /* \"#utility.yul\":10535:10558   */\n      sub\n        /* \"#utility.yul\":10531:10563   */\n      slt\n        /* \"#utility.yul\":10528:10647   */\n      iszero\n      tag_754\n      jumpi\n        /* \"#utility.yul\":10566:10645   */\n      tag_755\n      tag_545\n      jump\t// in\n    tag_755:\n        /* \"#utility.yul\":10528:10647   */\n    tag_754:\n        /* \"#utility.yul\":10686:10687   */\n      0x00\n        /* \"#utility.yul\":10711:10764   */\n      tag_756\n        /* \"#utility.yul\":10756:10763   */\n      dup6\n        /* \"#utility.yul\":10747:10753   */\n      dup3\n        /* \"#utility.yul\":10736:10745   */\n      dup7\n        /* \"#utility.yul\":10732:10754   */\n      add\n        /* \"#utility.yul\":10711:10764   */\n      tag_555\n      jump\t// in\n    tag_756:\n        /* \"#utility.yul\":10701:10764   */\n      swap3\n      pop\n        /* \"#utility.yul\":10657:10774   */\n      pop\n        /* \"#utility.yul\":10841:10843   */\n      0x20\n        /* \"#utility.yul\":10830:10839   */\n      dup4\n        /* \"#utility.yul\":10826:10844   */\n      add\n        /* \"#utility.yul\":10813:10845   */\n      calldataload\n        /* \"#utility.yul\":10872:10890   */\n      0xffffffffffffffff\n        /* \"#utility.yul\":10864:10870   */\n      dup2\n        /* \"#utility.yul\":10861:10891   */\n      gt\n        /* \"#utility.yul\":10858:10975   */\n      iszero\n      tag_757\n      jumpi\n        /* \"#utility.yul\":10894:10973   */\n      tag_758\n      tag_546\n      jump\t// in\n    tag_758:\n        /* \"#utility.yul\":10858:10975   */\n    tag_757:\n        /* \"#utility.yul\":10999:11061   */\n      tag_759\n        /* \"#utility.yul\":11053:11060   */\n      dup6\n        /* \"#utility.yul\":11044:11050   */\n      dup3\n        /* \"#utility.yul\":11033:11042   */\n      dup7\n        /* \"#utility.yul\":11029:11051   */\n      add\n        /* \"#utility.yul\":10999:11061   */\n      tag_584\n      jump\t// in\n    tag_759:\n        /* \"#utility.yul\":10989:11061   */\n      swap2\n      pop\n        /* \"#utility.yul\":10784:11071   */\n      pop\n        /* \"#utility.yul\":10426:11078   */\n      swap3\n      pop\n      swap3\n      swap1\n      pop\n      jump\t// out\n        /* \"#utility.yul\":11084:11413   */\n    tag_124:\n        /* \"#utility.yul\":11143:11149   */\n      0x00\n        /* \"#utility.yul\":11192:11194   */\n      0x20\n        /* \"#utility.yul\":11180:11189   */\n      dup3\n        /* \"#utility.yul\":11171:11178   */\n      dup5\n        /* \"#utility.yul\":11167:11190   */\n      sub\n        /* \"#utility.yul\":11163:11195   */\n      slt\n        /* \"#utility.yul\":11160:11279   */\n      iszero\n      tag_761\n      jumpi\n        /* \"#utility.yul\":11198:11277   */\n      tag_762\n      tag_545\n      jump\t// in\n    tag_762:\n        /* \"#utility.yul\":11160:11279   */\n    tag_761:\n        /* \"#utility.yul\":11318:11319   */\n      0x00\n        /* \"#utility.yul\":11343:11396   */\n      tag_763\n        /* \"#utility.yul\":11388:11395   */\n      dup5\n        /* \"#utility.yul\":11379:11385   */\n      dup3\n        /* \"#utility.yul\":11368:11377   */\n      dup6\n        /* \"#utility.yul\":11364:11386   */\n      add\n        /* \"#utility.yul\":11343:11396   */\n      tag_555\n      jump\t// in\n    tag_763:\n        /* \"#utility.yul\":11333:11396   */\n      swap2\n      pop\n        /* \"#utility.yul\":11289:11406   */\n      pop\n        /* \"#utility.yul\":11084:11413   */\n      swap3\n      swap2\n      pop\n      pop\n      jump\t// out\n        /* \"#utility.yul\":11419:11567   */\n    tag_585:\n        /* \"#utility.yul\":11491:11500   */\n      0x00\n        /* \"#utility.yul\":11524:11561   */\n      tag_765\n        /* \"#utility.yul\":11555:11560   */\n      dup3\n        /* \"#utility.yul\":11524:11561   */\n      tag_573\n      jump\t// in\n    tag_765:\n        /* \"#utility.yul\":11511:11561   */\n      swap1\n      pop\n        /* \"#utility.yul\":11419:11567   */\n      swap2\n      swap1\n      pop\n      jump\t// out\n        /* \"#utility.yul\":11573:11748   */\n    tag_586:\n        /* \"#utility.yul\":11682:11741   */\n      tag_767\n        /* \"#utility.yul\":11735:11740   */\n      dup2\n        /* \"#utility.yul\":11682:11741   */\n      tag_585\n      jump\t// in\n    tag_767:\n        /* \"#utility.yul\":11677:11680   */\n      dup3\n        /* \"#utility.yul\":11670:11742   */\n      mstore\n        /* \"#utility.yul\":11573:11748   */\n      pop\n      pop\n      jump\t// out\n        /* \"#utility.yul\":11754:12020   */\n    tag_135:\n        /* \"#utility.yul\":11869:11873   */\n      0x00\n        /* \"#utility.yul\":11907:11909   */\n      0x20\n        /* \"#utility.yul\":11896:11905   */\n      dup3\n        /* \"#utility.yul\":11892:11910   */\n      add\n        /* \"#utility.yul\":11884:11910   */\n      swap1\n      pop\n        /* \"#utility.yul\":11920:12013   */\n      tag_769\n        /* \"#utility.yul\":12010:12011   */\n      0x00\n        /* \"#utility.yul\":11999:12008   */\n      dup4\n        /* \"#utility.yul\":11995:12012   */\n      add\n        /* \"#utility.yul\":11986:11992   */\n      dup5\n        /* \"#utility.yul\":11920:12013   */\n      tag_586\n      jump\t// in\n    tag_769:\n        /* \"#utility.yul\":11754:12020   */\n      swap3\n      swap2\n      pop\n      pop\n      jump\t// out\n        /* \"#utility.yul\":12026:12142   */\n    tag_587:\n        /* \"#utility.yul\":12096:12117   */\n      tag_771\n        /* \"#utility.yul\":12111:12116   */\n      dup2\n        /* \"#utility.yul\":12096:12117   */\n      tag_550\n      jump\t// in\n    tag_771:\n        /* \"#utility.yul\":12089:12094   */\n      dup2\n        /* \"#utility.yul\":12086:12118   */\n      eq\n        /* \"#utility.yul\":12076:12136   */\n      tag_772\n      jumpi\n        /* \"#utility.yul\":12132:12133   */\n      0x00\n        /* \"#utility.yul\":12129:12130   */\n      0x00\n        /* \"#utility.yul\":12122:12134   */\n      revert\n        /* \"#utility.yul\":12076:12136   */\n    tag_772:\n        /* \"#utility.yul\":12026:12142   */\n      pop\n      jump\t// out\n        /* \"#utility.yul\":12148:12281   */\n    tag_588:\n        /* \"#utility.yul\":12191:12196   */\n      0x00\n        /* \"#utility.yul\":12229:12235   */\n      dup2\n        /* \"#utility.yul\":12216:12236   */\n      calldataload\n        /* \"#utility.yul\":12207:12236   */\n      swap1\n      pop\n        /* \"#utility.yul\":12245:12275   */\n      tag_774\n        /* \"#utility.yul\":12269:12274   */\n      dup2\n        /* \"#utility.yul\":12245:12275   */\n      tag_587\n      jump\t// in\n    tag_774:\n        /* \"#utility.yul\":12148:12281   */\n      swap3\n      swap2\n      pop\n      pop\n      jump\t// out\n        /* \"#utility.yul\":12287:12755   */\n    tag_144:\n        /* \"#utility.yul\":12352:12358   */\n      0x00\n        /* \"#utility.yul\":12360:12366   */\n      0x00\n        /* \"#utility.yul\":12409:12411   */\n      0x40\n        /* \"#utility.yul\":12397:12406   */\n      dup4\n        /* \"#utility.yul\":12388:12395   */\n      dup6\n        /* \"#utility.yul\":12384:12407   */\n      sub\n        /* \"#utility.yul\":12380:12412   */\n      slt\n        /* \"#utility.yul\":12377:12496   */\n      iszero\n      tag_776\n      jumpi\n        /* \"#utility.yul\":12415:12494   */\n      tag_777\n      tag_545\n      jump\t// in\n    tag_777:\n        /* \"#utility.yul\":12377:12496   */\n    tag_776:\n        /* \"#utility.yul\":12535:12536   */\n      0x00\n        /* \"#utility.yul\":12560:12613   */\n      tag_778\n        /* \"#utility.yul\":12605:12612   */\n      dup6\n        /* \"#utility.yul\":12596:12602   */\n      dup3\n        /* \"#utility.yul\":12585:12594   */\n      dup7\n        /* \"#utility.yul\":12581:12603   */\n      add\n        /* \"#utility.yul\":12560:12613   */\n      tag_555\n      jump\t// in\n    tag_778:\n        /* \"#utility.yul\":12550:12613   */\n      swap3\n      pop\n        /* \"#utility.yul\":12506:12623   */\n      pop\n        /* \"#utility.yul\":12662:12664   */\n      0x20\n        /* \"#utility.yul\":12688:12738   */\n      tag_779\n        /* \"#utility.yul\":12730:12737   */\n      dup6\n        /* \"#utility.yul\":12721:12727   */\n      dup3\n        /* \"#utility.yul\":12710:12719   */\n      dup7\n        /* \"#utility.yul\":12706:12728   */\n      add\n        /* \"#utility.yul\":12688:12738   */\n      tag_588\n      jump\t// in\n    tag_779:\n        /* \"#utility.yul\":12678:12738   */\n      swap2\n      pop\n        /* \"#utility.yul\":12633:12748   */\n      pop\n        /* \"#utility.yul\":12287:12755   */\n      swap3\n      pop\n      swap3\n      swap1\n      pop\n      jump\t// out\n        /* \"#utility.yul\":12761:12862   */\n    tag_589:\n        /* \"#utility.yul\":12797:12804   */\n      0x00\n        /* \"#utility.yul\":12837:12855   */\n      0xffffffffffffffff\n        /* \"#utility.yul\":12830:12835   */\n      dup3\n        /* \"#utility.yul\":12826:12856   */\n      and\n        /* \"#utility.yul\":12815:12856   */\n      swap1\n      pop\n        /* \"#utility.yul\":12761:12862   */\n      swap2\n      swap1\n      pop\n      jump\t// out\n        /* \"#utility.yul\":12868:12988   */\n    tag_590:\n        /* \"#utility.yul\":12940:12963   */\n      tag_782\n        /* \"#utility.yul\":12957:12962   */\n      dup2\n        /* \"#utility.yul\":12940:12963   */\n      tag_589\n      jump\t// in\n    tag_782:\n        /* \"#utility.yul\":12933:12938   */\n      dup2\n        /* \"#utility.yul\":12930:12964   */\n      eq\n        /* \"#utility.yul\":12920:12982   */\n      tag_783\n      jumpi\n        /* \"#utility.yul\":12978:12979   */\n      0x00\n        /* \"#utility.yul\":12975:12976   */\n      0x00\n        /* \"#utility.yul\":12968:12980   */\n      revert\n        /* \"#utility.yul\":12920:12982   */\n    tag_783:\n        /* \"#utility.yul\":12868:12988   */\n      pop\n      jump\t// out\n        /* \"#utility.yul\":12994:13131   */\n    tag_591:\n        /* \"#utility.yul\":13039:13044   */\n      0x00\n        /* \"#utility.yul\":13077:13083   */\n      dup2\n        /* \"#utility.yul\":13064:13084   */\n      calldataload\n        /* \"#utility.yul\":13055:13084   */\n      swap1\n      pop\n        /* \"#utility.yul\":13093:13125   */\n      tag_785\n        /* \"#utility.yul\":13119:13124   */\n      dup2\n        /* \"#utility.yul\":13093:13125   */\n      tag_590\n      jump\t// in\n    tag_785:\n        /* \"#utility.yul\":12994:13131   */\n      swap3\n      swap2\n      pop\n      pop\n      jump\t// out\n        /* \"#utility.yul\":13137:13754   */\n    tag_152:\n        /* \"#utility.yul\":13213:13219   */\n      0x00\n        /* \"#utility.yul\":13221:13227   */\n      0x00\n        /* \"#utility.yul\":13229:13235   */\n      0x00\n        /* \"#utility.yul\":13278:13280   */\n      0x60\n        /* \"#utility.yul\":13266:13275   */\n      dup5\n        /* \"#utility.yul\":13257:13264   */\n      dup7\n        /* \"#utility.yul\":13253:13276   */\n      sub\n        /* \"#utility.yul\":13249:13281   */\n      slt\n        /* \"#utility.yul\":13246:13365   */\n      iszero\n      tag_787\n      jumpi\n        /* \"#utility.yul\":13284:13363   */\n      tag_788\n      tag_545\n      jump\t// in\n    tag_788:\n        /* \"#utility.yul\":13246:13365   */\n    tag_787:\n        /* \"#utility.yul\":13404:13405   */\n      0x00\n        /* \"#utility.yul\":13429:13481   */\n      tag_789\n        /* \"#utility.yul\":13473:13480   */\n      dup7\n        /* \"#utility.yul\":13464:13470   */\n      dup3\n        /* \"#utility.yul\":13453:13462   */\n      dup8\n        /* \"#utility.yul\":13449:13471   */\n      add\n        /* \"#utility.yul\":13429:13481   */\n      tag_591\n      jump\t// in\n    tag_789:\n        /* \"#utility.yul\":13419:13481   */\n      swap4\n      pop\n        /* \"#utility.yul\":13375:13491   */\n      pop\n        /* \"#utility.yul\":13530:13532   */\n      0x20\n        /* \"#utility.yul\":13556:13609   */\n      tag_790\n        /* \"#utility.yul\":13601:13608   */\n      dup7\n        /* \"#utility.yul\":13592:13598   */\n      dup3\n        /* \"#utility.yul\":13581:13590   */\n      dup8\n        /* \"#utility.yul\":13577:13599   */\n      add\n        /* \"#utility.yul\":13556:13609   */\n      tag_555\n      jump\t// in\n    tag_790:\n        /* \"#utility.yul\":13546:13609   */\n      swap3\n      pop\n        /* \"#utility.yul\":13501:13619   */\n      pop\n        /* \"#utility.yul\":13658:13660   */\n      0x40\n        /* \"#utility.yul\":13684:13737   */\n      tag_791\n        /* \"#utility.yul\":13729:13736   */\n      dup7\n        /* \"#utility.yul\":13720:13726   */\n      dup3\n        /* \"#utility.yul\":13709:13718   */\n      dup8\n        /* \"#utility.yul\":13705:13727   */\n      add\n        /* \"#utility.yul\":13684:13737   */\n      tag_558\n      jump\t// in\n    tag_791:\n        /* \"#utility.yul\":13674:13737   */\n      swap2\n      pop\n        /* \"#utility.yul\":13629:13747   */\n      pop\n        /* \"#utility.yul\":13137:13754   */\n      swap3\n      pop\n      swap3\n      pop\n      swap3\n      jump\t// out\n        /* \"#utility.yul\":13760:14234   */\n    tag_188:\n        /* \"#utility.yul\":13828:13834   */\n      0x00\n        /* \"#utility.yul\":13836:13842   */\n      0x00\n        /* \"#utility.yul\":13885:13887   */\n      0x40\n        /* \"#utility.yul\":13873:13882   */\n      dup4\n        /* \"#utility.yul\":13864:13871   */\n      dup6\n        /* \"#utility.yul\":13860:13883   */\n      sub\n        /* \"#utility.yul\":13856:13888   */\n      slt\n        /* \"#utility.yul\":13853:13972   */\n      iszero\n      tag_793\n      jumpi\n        /* \"#utility.yul\":13891:13970   */\n      tag_794\n      tag_545\n      jump\t// in\n    tag_794:\n        /* \"#utility.yul\":13853:13972   */\n    tag_793:\n        /* \"#utility.yul\":14011:14012   */\n      0x00\n        /* \"#utility.yul\":14036:14089   */\n      tag_795\n        /* \"#utility.yul\":14081:14088   */\n      dup6\n        /* \"#utility.yul\":14072:14078   */\n      dup3\n        /* \"#utility.yul\":14061:14070   */\n      dup7\n        /* \"#utility.yul\":14057:14079   */\n      add\n        /* \"#utility.yul\":14036:14089   */\n      tag_555\n      jump\t// in\n    tag_795:\n        /* \"#utility.yul\":14026:14089   */\n      swap3\n      pop\n        /* \"#utility.yul\":13982:14099   */\n      pop\n        /* \"#utility.yul\":14138:14140   */\n      0x20\n        /* \"#utility.yul\":14164:14217   */\n      tag_796\n        /* \"#utility.yul\":14209:14216   */\n      dup6\n        /* \"#utility.yul\":14200:14206   */\n      dup3\n        /* \"#utility.yul\":14189:14198   */\n      dup7\n        /* \"#utility.yul\":14185:14207   */\n      add\n        /* \"#utility.yul\":14164:14217   */\n      tag_555\n      jump\t// in\n    tag_796:\n        /* \"#utility.yul\":14154:14217   */\n      swap2\n      pop\n        /* \"#utility.yul\":14109:14227   */\n      pop\n        /* \"#utility.yul\":13760:14234   */\n      swap3\n      pop\n      swap3\n      swap1\n      pop\n      jump\t// out\n        /* \"#utility.yul\":14240:14548   */\n    tag_592:\n        /* \"#utility.yul\":14302:14306   */\n      0x00\n        /* \"#utility.yul\":14392:14410   */\n      0xffffffffffffffff\n        /* \"#utility.yul\":14384:14390   */\n      dup3\n        /* \"#utility.yul\":14381:14411   */\n      gt\n        /* \"#utility.yul\":14378:14434   */\n      iszero\n      tag_798\n      jumpi\n        /* \"#utility.yul\":14414:14432   */\n      tag_799\n      tag_578\n      jump\t// in\n    tag_799:\n        /* \"#utility.yul\":14378:14434   */\n    tag_798:\n        /* \"#utility.yul\":14452:14481   */\n      tag_800\n        /* \"#utility.yul\":14474:14480   */\n      dup3\n        /* \"#utility.yul\":14452:14481   */\n      tag_562\n      jump\t// in\n    tag_800:\n        /* \"#utility.yul\":14444:14481   */\n      swap1\n      pop\n        /* \"#utility.yul\":14536:14540   */\n      0x20\n        /* \"#utility.yul\":14530:14534   */\n      dup2\n        /* \"#utility.yul\":14526:14541   */\n      add\n        /* \"#utility.yul\":14518:14541   */\n      swap1\n      pop\n        /* \"#utility.yul\":14240:14548   */\n      swap2\n      swap1\n      pop\n      jump\t// out\n        /* \"#utility.yul\":14554:14979   */\n    tag_593:\n        /* \"#utility.yul\":14632:14637   */\n      0x00\n        /* \"#utility.yul\":14657:14723   */\n      tag_802\n        /* \"#utility.yul\":14673:14722   */\n      tag_803\n        /* \"#utility.yul\":14715:14721   */\n      dup5\n        /* \"#utility.yul\":14673:14722   */\n      tag_592\n      jump\t// in\n    tag_803:\n        /* \"#utility.yul\":14657:14723   */\n      tag_580\n      jump\t// in\n    tag_802:\n        /* \"#utility.yul\":14648:14723   */\n      swap1\n      pop\n        /* \"#utility.yul\":14746:14752   */\n      dup3\n        /* \"#utility.yul\":14739:14744   */\n      dup2\n        /* \"#utility.yul\":14732:14753   */\n      mstore\n        /* \"#utility.yul\":14784:14788   */\n      0x20\n        /* \"#utility.yul\":14777:14782   */\n      dup2\n        /* \"#utility.yul\":14773:14789   */\n      add\n        /* \"#utility.yul\":14822:14825   */\n      dup5\n        /* \"#utility.yul\":14813:14819   */\n      dup5\n        /* \"#utility.yul\":14808:14811   */\n      dup5\n        /* \"#utility.yul\":14804:14820   */\n      add\n        /* \"#utility.yul\":14801:14826   */\n      gt\n        /* \"#utility.yul\":14798:14910   */\n      iszero\n      tag_804\n      jumpi\n        /* \"#utility.yul\":14829:14908   */\n      tag_805\n      tag_577\n      jump\t// in\n    tag_805:\n        /* \"#utility.yul\":14798:14910   */\n    tag_804:\n        /* \"#utility.yul\":14919:14973   */\n      tag_806\n        /* \"#utility.yul\":14966:14972   */\n      dup5\n        /* \"#utility.yul\":14961:14964   */\n      dup3\n        /* \"#utility.yul\":14956:14959   */\n      dup6\n        /* \"#utility.yul\":14919:14973   */\n      tag_582\n      jump\t// in\n    tag_806:\n        /* \"#utility.yul\":14638:14979   */\n      pop\n        /* \"#utility.yul\":14554:14979   */\n      swap4\n      swap3\n      pop\n      pop\n      pop\n      jump\t// out\n        /* \"#utility.yul\":14999:15339   */\n    tag_594:\n        /* \"#utility.yul\":15055:15060   */\n      0x00\n        /* \"#utility.yul\":15104:15107   */\n      dup3\n        /* \"#utility.yul\":15097:15101   */\n      0x1f\n        /* \"#utility.yul\":15089:15095   */\n      dup4\n        /* \"#utility.yul\":15085:15102   */\n      add\n        /* \"#utility.yul\":15081:15108   */\n      slt\n        /* \"#utility.yul\":15071:15193   */\n      tag_808\n      jumpi\n        /* \"#utility.yul\":15112:15191   */\n      tag_809\n      tag_576\n      jump\t// in\n    tag_809:\n        /* \"#utility.yul\":15071:15193   */\n    tag_808:\n        /* \"#utility.yul\":15229:15235   */\n      dup2\n        /* \"#utility.yul\":15216:15236   */\n      calldataload\n        /* \"#utility.yul\":15254:15333   */\n      tag_810\n        /* \"#utility.yul\":15329:15332   */\n      dup5\n        /* \"#utility.yul\":15321:15327   */\n      dup3\n        /* \"#utility.yul\":15314:15318   */\n      0x20\n        /* \"#utility.yul\":15306:15312   */\n      dup7\n        /* \"#utility.yul\":15302:15319   */\n      add\n        /* \"#utility.yul\":15254:15333   */\n      tag_593\n      jump\t// in\n    tag_810:\n        /* \"#utility.yul\":15245:15333   */\n      swap2\n      pop\n        /* \"#utility.yul\":15061:15339   */\n      pop\n        /* \"#utility.yul\":14999:15339   */\n      swap3\n      swap2\n      pop\n      pop\n      jump\t// out\n        /* \"#utility.yul\":15345:16908   */\n    tag_194:\n        /* \"#utility.yul\":15478:15484   */\n      0x00\n        /* \"#utility.yul\":15486:15492   */\n      0x00\n        /* \"#utility.yul\":15494:15500   */\n      0x00\n        /* \"#utility.yul\":15502:15508   */\n      0x00\n        /* \"#utility.yul\":15510:15516   */\n      0x00\n        /* \"#utility.yul\":15518:15524   */\n      0x00\n        /* \"#utility.yul\":15526:15532   */\n      0x00\n        /* \"#utility.yul\":15575:15578   */\n      0xe0\n        /* \"#utility.yul\":15563:15572   */\n      dup9\n        /* \"#utility.yul\":15554:15561   */\n      dup11\n        /* \"#utility.yul\":15550:15573   */\n      sub\n        /* \"#utility.yul\":15546:15579   */\n      slt\n        /* \"#utility.yul\":15543:15663   */\n      iszero\n      tag_812\n      jumpi\n        /* \"#utility.yul\":15582:15661   */\n      tag_813\n      tag_545\n      jump\t// in\n    tag_813:\n        /* \"#utility.yul\":15543:15663   */\n    tag_812:\n        /* \"#utility.yul\":15730:15731   */\n      0x00\n        /* \"#utility.yul\":15719:15728   */\n      dup9\n        /* \"#utility.yul\":15715:15732   */\n      add\n        /* \"#utility.yul\":15702:15733   */\n      calldataload\n        /* \"#utility.yul\":15760:15778   */\n      0xffffffffffffffff\n        /* \"#utility.yul\":15752:15758   */\n      dup2\n        /* \"#utility.yul\":15749:15779   */\n      gt\n        /* \"#utility.yul\":15746:15863   */\n      iszero\n      tag_814\n      jumpi\n        /* \"#utility.yul\":15782:15861   */\n      tag_815\n      tag_546\n      jump\t// in\n    tag_815:\n        /* \"#utility.yul\":15746:15863   */\n    tag_814:\n        /* \"#utility.yul\":15887:15950   */\n      tag_816\n        /* \"#utility.yul\":15942:15949   */\n      dup11\n        /* \"#utility.yul\":15933:15939   */\n      dup3\n        /* \"#utility.yul\":15922:15931   */\n      dup12\n        /* \"#utility.yul\":15918:15940   */\n      add\n        /* \"#utility.yul\":15887:15950   */\n      tag_594\n      jump\t// in\n    tag_816:\n        /* \"#utility.yul\":15877:15950   */\n      swap8\n      pop\n        /* \"#utility.yul\":15673:15960   */\n      pop\n        /* \"#utility.yul\":16027:16029   */\n      0x20\n        /* \"#utility.yul\":16016:16025   */\n      dup9\n        /* \"#utility.yul\":16012:16030   */\n      add\n        /* \"#utility.yul\":15999:16031   */\n      calldataload\n        /* \"#utility.yul\":16058:16076   */\n      0xffffffffffffffff\n        /* \"#utility.yul\":16050:16056   */\n      dup2\n        /* \"#utility.yul\":16047:16077   */\n      gt\n        /* \"#utility.yul\":16044:16161   */\n      iszero\n      tag_817\n      jumpi\n        /* \"#utility.yul\":16080:16159   */\n      tag_818\n      tag_546\n      jump\t// in\n    tag_818:\n        /* \"#utility.yul\":16044:16161   */\n    tag_817:\n        /* \"#utility.yul\":16185:16248   */\n      tag_819\n        /* \"#utility.yul\":16240:16247   */\n      dup11\n        /* \"#utility.yul\":16231:16237   */\n      dup3\n        /* \"#utility.yul\":16220:16229   */\n      dup12\n        /* \"#utility.yul\":16216:16238   */\n      add\n        /* \"#utility.yul\":16185:16248   */\n      tag_594\n      jump\t// in\n    tag_819:\n        /* \"#utility.yul\":16175:16248   */\n      swap7\n      pop\n        /* \"#utility.yul\":15970:16258   */\n      pop\n        /* \"#utility.yul\":16297:16299   */\n      0x40\n        /* \"#utility.yul\":16323:16376   */\n      tag_820\n        /* \"#utility.yul\":16368:16375   */\n      dup11\n        /* \"#utility.yul\":16359:16365   */\n      dup3\n        /* \"#utility.yul\":16348:16357   */\n      dup12\n        /* \"#utility.yul\":16344:16366   */\n      add\n        /* \"#utility.yul\":16323:16376   */\n      tag_558\n      jump\t// in\n    tag_820:\n        /* \"#utility.yul\":16313:16376   */\n      swap6\n      pop\n        /* \"#utility.yul\":16268:16386   */\n      pop\n        /* \"#utility.yul\":16425:16427   */\n      0x60\n        /* \"#utility.yul\":16451:16504   */\n      tag_821\n        /* \"#utility.yul\":16496:16503   */\n      dup11\n        /* \"#utility.yul\":16487:16493   */\n      dup3\n        /* \"#utility.yul\":16476:16485   */\n      dup12\n        /* \"#utility.yul\":16472:16494   */\n      add\n        /* \"#utility.yul\":16451:16504   */\n      tag_555\n      jump\t// in\n    tag_821:\n        /* \"#utility.yul\":16441:16504   */\n      swap5\n      pop\n        /* \"#utility.yul\":16396:16514   */\n      pop\n        /* \"#utility.yul\":16553:16556   */\n      0x80\n        /* \"#utility.yul\":16580:16633   */\n      tag_822\n        /* \"#utility.yul\":16625:16632   */\n      dup11\n        /* \"#utility.yul\":16616:16622   */\n      dup3\n        /* \"#utility.yul\":16605:16614   */\n      dup12\n        /* \"#utility.yul\":16601:16623   */\n      add\n        /* \"#utility.yul\":16580:16633   */\n      tag_555\n      jump\t// in\n    tag_822:\n        /* \"#utility.yul\":16570:16633   */\n      swap4\n      pop\n        /* \"#utility.yul\":16524:16643   */\n      pop\n        /* \"#utility.yul\":16682:16685   */\n      0xa0\n        /* \"#utility.yul\":16709:16762   */\n      tag_823\n        /* \"#utility.yul\":16754:16761   */\n      dup11\n        /* \"#utility.yul\":16745:16751   */\n      dup3\n        /* \"#utility.yul\":16734:16743   */\n      dup12\n        /* \"#utility.yul\":16730:16752   */\n      add\n        /* \"#utility.yul\":16709:16762   */\n      tag_555\n      jump\t// in\n    tag_823:\n        /* \"#utility.yul\":16699:16762   */\n      swap3\n      pop\n        /* \"#utility.yul\":16653:16772   */\n      pop\n        /* \"#utility.yul\":16811:16814   */\n      0xc0\n        /* \"#utility.yul\":16838:16891   */\n      tag_824\n        /* \"#utility.yul\":16883:16890   */\n      dup11\n        /* \"#utility.yul\":16874:16880   */\n      dup3\n        /* \"#utility.yul\":16863:16872   */\n      dup12\n        /* \"#utility.yul\":16859:16881   */\n      add\n        /* \"#utility.yul\":16838:16891   */\n      tag_555\n      jump\t// in\n    tag_824:\n        /* \"#utility.yul\":16828:16891   */\n      swap2\n      pop\n        /* \"#utility.yul\":16782:16901   */\n      pop\n        /* \"#utility.yul\":15345:16908   */\n      swap3\n      swap6\n      swap9\n      swap2\n      swap5\n      swap8\n      pop\n      swap3\n      swap6\n      pop\n      jump\t// out\n        /* \"#utility.yul\":16914:17094   */\n    tag_595:\n        /* \"#utility.yul\":16962:17039   */\n      0x4e487b7100000000000000000000000000000000000000000000000000000000\n        /* \"#utility.yul\":16959:16960   */\n      0x00\n        /* \"#utility.yul\":16952:17040   */\n      mstore\n        /* \"#utility.yul\":17059:17063   */\n      0x11\n        /* \"#utility.yul\":17056:17057   */\n      0x04\n        /* \"#utility.yul\":17049:17064   */\n      mstore\n        /* \"#utility.yul\":17083:17087   */\n      0x24\n        /* \"#utility.yul\":17080:17081   */\n      0x00\n        /* \"#utility.yul\":17073:17088   */\n      revert\n        /* \"#utility.yul\":17100:17291   */\n    tag_226:\n        /* \"#utility.yul\":17140:17143   */\n      0x00\n        /* \"#utility.yul\":17159:17179   */\n      tag_827\n        /* \"#utility.yul\":17177:17178   */\n      dup3\n        /* \"#utility.yul\":17159:17179   */\n      tag_556\n      jump\t// in\n    tag_827:\n        /* \"#utility.yul\":17154:17179   */\n      swap2\n      pop\n        /* \"#utility.yul\":17193:17213   */\n      tag_828\n        /* \"#utility.yul\":17211:17212   */\n      dup4\n        /* \"#utility.yul\":17193:17213   */\n      tag_556\n      jump\t// in\n    tag_828:\n        /* \"#utility.yul\":17188:17213   */\n      swap3\n      pop\n        /* \"#utility.yul\":17236:17237   */\n      dup3\n        /* \"#utility.yul\":17233:17234   */\n      dup3\n        /* \"#utility.yul\":17229:17238   */\n      add\n        /* \"#utility.yul\":17222:17238   */\n      swap1\n      pop\n        /* \"#utility.yul\":17257:17260   */\n      dup1\n        /* \"#utility.yul\":17254:17255   */\n      dup3\n        /* \"#utility.yul\":17251:17261   */\n      gt\n        /* \"#utility.yul\":17248:17284   */\n      iszero\n      tag_829\n      jumpi\n        /* \"#utility.yul\":17264:17282   */\n      tag_830\n      tag_595\n      jump\t// in\n    tag_830:\n        /* \"#utility.yul\":17248:17284   */\n    tag_829:\n        /* \"#utility.yul\":17100:17291   */\n      swap3\n      swap2\n      pop\n      pop\n      jump\t// out\n        /* \"#utility.yul\":17297:17477   */\n    tag_596:\n        /* \"#utility.yul\":17345:17422   */\n      0x4e487b7100000000000000000000000000000000000000000000000000000000\n        /* \"#utility.yul\":17342:17343   */\n      0x00\n        /* \"#utility.yul\":17335:17423   */\n      mstore\n        /* \"#utility.yul\":17442:17446   */\n      0x22\n        /* \"#utility.yul\":17439:17440   */\n      0x04\n        /* \"#utility.yul\":17432:17447   */\n      mstore\n        /* \"#utility.yul\":17466:17470   */\n      0x24\n        /* \"#utility.yul\":17463:17464   */\n      0x00\n        /* \"#utility.yul\":17456:17471   */\n      revert\n        /* \"#utility.yul\":17483:17803   */\n    tag_231:\n        /* \"#utility.yul\":17527:17533   */\n      0x00\n        /* \"#utility.yul\":17564:17565   */\n      0x02\n        /* \"#utility.yul\":17558:17562   */\n      dup3\n        /* \"#utility.yul\":17554:17566   */\n      div\n        /* \"#utility.yul\":17544:17566   */\n      swap1\n      pop\n        /* \"#utility.yul\":17611:17612   */\n      0x01\n        /* \"#utility.yul\":17605:17609   */\n      dup3\n        /* \"#utility.yul\":17601:17613   */\n      and\n        /* \"#utility.yul\":17632:17650   */\n      dup1\n        /* \"#utility.yul\":17622:17703   */\n      tag_833\n      jumpi\n        /* \"#utility.yul\":17688:17692   */\n      0x7f\n        /* \"#utility.yul\":17680:17686   */\n      dup3\n        /* \"#utility.yul\":17676:17693   */\n      and\n        /* \"#utility.yul\":17666:17693   */\n      swap2\n      pop\n        /* \"#utility.yul\":17622:17703   */\n    tag_833:\n        /* \"#utility.yul\":17750:17752   */\n      0x20\n        /* \"#utility.yul\":17742:17748   */\n      dup3\n        /* \"#utility.yul\":17739:17753   */\n      lt\n        /* \"#utility.yul\":17719:17737   */\n      dup2\n        /* \"#utility.yul\":17716:17754   */\n      sub\n        /* \"#utility.yul\":17713:17797   */\n      tag_834\n      jumpi\n        /* \"#utility.yul\":17769:17787   */\n      tag_835\n      tag_596\n      jump\t// in\n    tag_835:\n        /* \"#utility.yul\":17713:17797   */\n    tag_834:\n        /* \"#utility.yul\":17534:17803   */\n      pop\n        /* \"#utility.yul\":17483:17803   */\n      swap2\n      swap1\n      pop\n      jump\t// out\n        /* \"#utility.yul\":17809:17983   */\n    tag_597:\n        /* \"#utility.yul\":17949:17975   */\n      0x5265636569766572206e6f742077686974656c69737465640000000000000000\n        /* \"#utility.yul\":17945:17946   */\n      0x00\n        /* \"#utility.yul\":17937:17943   */\n      dup3\n        /* \"#utility.yul\":17933:17947   */\n      add\n        /* \"#utility.yul\":17926:17976   */\n      mstore\n        /* \"#utility.yul\":17809:17983   */\n      pop\n      jump\t// out\n        /* \"#utility.yul\":17989:18355   */\n    tag_598:\n        /* \"#utility.yul\":18131:18134   */\n      0x00\n        /* \"#utility.yul\":18152:18219   */\n      tag_838\n        /* \"#utility.yul\":18216:18218   */\n      0x18\n        /* \"#utility.yul\":18211:18214   */\n      dup4\n        /* \"#utility.yul\":18152:18219   */\n      tag_560\n      jump\t// in\n    tag_838:\n        /* \"#utility.yul\":18145:18219   */\n      swap2\n      pop\n        /* \"#utility.yul\":18228:18321   */\n      tag_839\n        /* \"#utility.yul\":18317:18320   */\n      dup3\n        /* \"#utility.yul\":18228:18321   */\n      tag_597\n      jump\t// in\n    tag_839:\n        /* \"#utility.yul\":18346:18348   */\n      0x20\n        /* \"#utility.yul\":18341:18344   */\n      dup3\n        /* \"#utility.yul\":18337:18349   */\n      add\n        /* \"#utility.yul\":18330:18349   */\n      swap1\n      pop\n        /* \"#utility.yul\":17989:18355   */\n      swap2\n      swap1\n      pop\n      jump\t// out\n        /* \"#utility.yul\":18361:18780   */\n    tag_246:\n        /* \"#utility.yul\":18527:18531   */\n      0x00\n        /* \"#utility.yul\":18565:18567   */\n      0x20\n        /* \"#utility.yul\":18554:18563   */\n      dup3\n        /* \"#utility.yul\":18550:18568   */\n      add\n        /* \"#utility.yul\":18542:18568   */\n      swap1\n      pop\n        /* \"#utility.yul\":18614:18623   */\n      dup2\n        /* \"#utility.yul\":18608:18612   */\n      dup2\n        /* \"#utility.yul\":18604:18624   */\n      sub\n        /* \"#utility.yul\":18600:18601   */\n      0x00\n        /* \"#utility.yul\":18589:18598   */\n      dup4\n        /* \"#utility.yul\":18585:18602   */\n      add\n        /* \"#utility.yul\":18578:18625   */\n      mstore\n        /* \"#utility.yul\":18642:18773   */\n      tag_841\n        /* \"#utility.yul\":18768:18772   */\n      dup2\n        /* \"#utility.yul\":18642:18773   */\n      tag_598\n      jump\t// in\n    tag_841:\n        /* \"#utility.yul\":18634:18773   */\n      swap1\n      pop\n        /* \"#utility.yul\":18361:18780   */\n      swap2\n      swap1\n      pop\n      jump\t// out\n        /* \"#utility.yul\":18786:18980   */\n    tag_249:\n        /* \"#utility.yul\":18826:18830   */\n      0x00\n        /* \"#utility.yul\":18846:18866   */\n      tag_843\n        /* \"#utility.yul\":18864:18865   */\n      dup3\n        /* \"#utility.yul\":18846:18866   */\n      tag_556\n      jump\t// in\n    tag_843:\n        /* \"#utility.yul\":18841:18866   */\n      swap2\n      pop\n        /* \"#utility.yul\":18880:18900   */\n      tag_844\n        /* \"#utility.yul\":18898:18899   */\n      dup4\n        /* \"#utility.yul\":18880:18900   */\n      tag_556\n      jump\t// in\n    tag_844:\n        /* \"#utility.yul\":18875:18900   */\n      swap3\n      pop\n        /* \"#utility.yul\":18924:18925   */\n      dup3\n        /* \"#utility.yul\":18921:18922   */\n      dup3\n        /* \"#utility.yul\":18917:18926   */\n      sub\n        /* \"#utility.yul\":18909:18926   */\n      swap1\n      pop\n        /* \"#utility.yul\":18948:18949   */\n      dup2\n        /* \"#utility.yul\":18942:18946   */\n      dup2\n        /* \"#utility.yul\":18939:18950   */\n      gt\n        /* \"#utility.yul\":18936:18973   */\n      iszero\n      tag_845\n      jumpi\n        /* \"#utility.yul\":18953:18971   */\n      tag_846\n      tag_595\n      jump\t// in\n    tag_846:\n        /* \"#utility.yul\":18936:18973   */\n    tag_845:\n        /* \"#utility.yul\":18786:18980   */\n      swap3\n      swap2\n      pop\n      pop\n      jump\t// out\n        /* \"#utility.yul\":18986:19157   */\n    tag_599:\n        /* \"#utility.yul\":19126:19149   */\n      0x496e73756666696369656e7420756e6c6f636b65640000000000000000000000\n        /* \"#utility.yul\":19122:19123   */\n      0x00\n        /* \"#utility.yul\":19114:19120   */\n      dup3\n        /* \"#utility.yul\":19110:19124   */\n      add\n        /* \"#utility.yul\":19103:19150   */\n      mstore\n        /* \"#utility.yul\":18986:19157   */\n      pop\n      jump\t// out\n        /* \"#utility.yul\":19163:19529   */\n    tag_600:\n        /* \"#utility.yul\":19305:19308   */\n      0x00\n        /* \"#utility.yul\":19326:19393   */\n      tag_849\n        /* \"#utility.yul\":19390:19392   */\n      0x15\n        /* \"#utility.yul\":19385:19388   */\n      dup4\n        /* \"#utility.yul\":19326:19393   */\n      tag_560\n      jump\t// in\n    tag_849:\n        /* \"#utility.yul\":19319:19393   */\n      swap2\n      pop\n        /* \"#utility.yul\":19402:19495   */\n      tag_850\n        /* \"#utility.yul\":19491:19494   */\n      dup3\n        /* \"#utility.yul\":19402:19495   */\n      tag_599\n      jump\t// in\n    tag_850:\n        /* \"#utility.yul\":19520:19522   */\n      0x20\n        /* \"#utility.yul\":19515:19518   */\n      dup3\n        /* \"#utility.yul\":19511:19523   */\n      add\n        /* \"#utility.yul\":19504:19523   */\n      swap1\n      pop\n        /* \"#utility.yul\":19163:19529   */\n      swap2\n      swap1\n      pop\n      jump\t// out\n        /* \"#utility.yul\":19535:19954   */\n    tag_252:\n        /* \"#utility.yul\":19701:19705   */\n      0x00\n        /* \"#utility.yul\":19739:19741   */\n      0x20\n        /* \"#utility.yul\":19728:19737   */\n      dup3\n        /* \"#utility.yul\":19724:19742   */\n      add\n        /* \"#utility.yul\":19716:19742   */\n      swap1\n      pop\n        /* \"#utility.yul\":19788:19797   */\n      dup2\n        /* \"#utility.yul\":19782:19786   */\n      dup2\n        /* \"#utility.yul\":19778:19798   */\n      sub\n        /* \"#utility.yul\":19774:19775   */\n      0x00\n        /* \"#utility.yul\":19763:19772   */\n      dup4\n        /* \"#utility.yul\":19759:19776   */\n      add\n        /* \"#utility.yul\":19752:19799   */\n      mstore\n        /* \"#utility.yul\":19816:19947   */\n      tag_852\n        /* \"#utility.yul\":19942:19946   */\n      dup2\n        /* \"#utility.yul\":19816:19947   */\n      tag_600\n      jump\t// in\n    tag_852:\n        /* \"#utility.yul\":19808:19947   */\n      swap1\n      pop\n        /* \"#utility.yul\":19535:19954   */\n      swap2\n      swap1\n      pop\n      jump\t// out\n        /* \"#utility.yul\":19960:20183   */\n    tag_601:\n        /* \"#utility.yul\":20100:20134   */\n      0x43726f73732d636861696e207265636569766572206e6f742077686974656c69\n        /* \"#utility.yul\":20096:20097   */\n      0x00\n        /* \"#utility.yul\":20088:20094   */\n      dup3\n        /* \"#utility.yul\":20084:20098   */\n      add\n        /* \"#utility.yul\":20077:20135   */\n      mstore\n        /* \"#utility.yul\":20169:20175   */\n      0x7374656400000000000000000000000000000000000000000000000000000000\n        /* \"#utility.yul\":20164:20166   */\n      0x20\n        /* \"#utility.yul\":20156:20162   */\n      dup3\n        /* \"#utility.yul\":20152:20167   */\n      add\n        /* \"#utility.yul\":20145:20176   */\n      mstore\n        /* \"#utility.yul\":19960:20183   */\n      pop\n      jump\t// out\n        /* \"#utility.yul\":20189:20555   */\n    tag_602:\n        /* \"#utility.yul\":20331:20334   */\n      0x00\n        /* \"#utility.yul\":20352:20419   */\n      tag_855\n        /* \"#utility.yul\":20416:20418   */\n      0x24\n        /* \"#utility.yul\":20411:20414   */\n      dup4\n        /* \"#utility.yul\":20352:20419   */\n      tag_560\n      jump\t// in\n    tag_855:\n        /* \"#utility.yul\":20345:20419   */\n      swap2\n      pop\n        /* \"#utility.yul\":20428:20521   */\n      tag_856\n        /* \"#utility.yul\":20517:20520   */\n      dup3\n        /* \"#utility.yul\":20428:20521   */\n      tag_601\n      jump\t// in\n    tag_856:\n        /* \"#utility.yul\":20546:20548   */\n      0x40\n        /* \"#utility.yul\":20541:20544   */\n      dup3\n        /* \"#utility.yul\":20537:20549   */\n      add\n        /* \"#utility.yul\":20530:20549   */\n      swap1\n      pop\n        /* \"#utility.yul\":20189:20555   */\n      swap2\n      swap1\n      pop\n      jump\t// out\n        /* \"#utility.yul\":20561:20980   */\n    tag_312:\n        /* \"#utility.yul\":20727:20731   */\n      0x00\n        /* \"#utility.yul\":20765:20767   */\n      0x20\n        /* \"#utility.yul\":20754:20763   */\n      dup3\n        /* \"#utility.yul\":20750:20768   */\n      add\n        /* \"#utility.yul\":20742:20768   */\n      swap1\n      pop\n        /* \"#utility.yul\":20814:20823   */\n      dup2\n        /* \"#utility.yul\":20808:20812   */\n      dup2\n        /* \"#utility.yul\":20804:20824   */\n      sub\n        /* \"#utility.yul\":20800:20801   */\n      0x00\n        /* \"#utility.yul\":20789:20798   */\n      dup4\n        /* \"#utility.yul\":20785:20802   */\n      add\n        /* \"#utility.yul\":20778:20825   */\n      mstore\n        /* \"#utility.yul\":20842:20973   */\n      tag_858\n        /* \"#utility.yul\":20968:20972   */\n      dup2\n        /* \"#utility.yul\":20842:20973   */\n      tag_602\n      jump\t// in\n    tag_858:\n        /* \"#utility.yul\":20834:20973   */\n      swap1\n      pop\n        /* \"#utility.yul\":20561:20980   */\n      swap2\n      swap1\n      pop\n      jump\t// out\n        /* \"#utility.yul\":20986:21101   */\n    tag_603:\n        /* \"#utility.yul\":21071:21094   */\n      tag_860\n        /* \"#utility.yul\":21088:21093   */\n      dup2\n        /* \"#utility.yul\":21071:21094   */\n      tag_589\n      jump\t// in\n    tag_860:\n        /* \"#utility.yul\":21066:21069   */\n      dup3\n        /* \"#utility.yul\":21059:21095   */\n      mstore\n        /* \"#utility.yul\":20986:21101   */\n      pop\n      pop\n      jump\t// out\n        /* \"#utility.yul\":21107:21225   */\n    tag_604:\n        /* \"#utility.yul\":21194:21218   */\n      tag_862\n        /* \"#utility.yul\":21212:21217   */\n      dup2\n        /* \"#utility.yul\":21194:21218   */\n      tag_553\n      jump\t// in\n    tag_862:\n        /* \"#utility.yul\":21189:21192   */\n      dup3\n        /* \"#utility.yul\":21182:21219   */\n      mstore\n        /* \"#utility.yul\":21107:21225   */\n      pop\n      pop\n      jump\t// out\n        /* \"#utility.yul\":21231:21669   */\n    tag_321:\n        /* \"#utility.yul\":21378:21382   */\n      0x00\n        /* \"#utility.yul\":21416:21418   */\n      0x60\n        /* \"#utility.yul\":21405:21414   */\n      dup3\n        /* \"#utility.yul\":21401:21419   */\n      add\n        /* \"#utility.yul\":21393:21419   */\n      swap1\n      pop\n        /* \"#utility.yul\":21429:21498   */\n      tag_864\n        /* \"#utility.yul\":21495:21496   */\n      0x00\n        /* \"#utility.yul\":21484:21493   */\n      dup4\n        /* \"#utility.yul\":21480:21497   */\n      add\n        /* \"#utility.yul\":21471:21477   */\n      dup7\n        /* \"#utility.yul\":21429:21498   */\n      tag_603\n      jump\t// in\n    tag_864:\n        /* \"#utility.yul\":21508:21580   */\n      tag_865\n        /* \"#utility.yul\":21576:21578   */\n      0x20\n        /* \"#utility.yul\":21565:21574   */\n      dup4\n        /* \"#utility.yul\":21561:21579   */\n      add\n        /* \"#utility.yul\":21552:21558   */\n      dup6\n        /* \"#utility.yul\":21508:21580   */\n      tag_604\n      jump\t// in\n    tag_865:\n        /* \"#utility.yul\":21590:21662   */\n      tag_866\n        /* \"#utility.yul\":21658:21660   */\n      0x40\n        /* \"#utility.yul\":21647:21656   */\n      dup4\n        /* \"#utility.yul\":21643:21661   */\n      add\n        /* \"#utility.yul\":21634:21640   */\n      dup5\n        /* \"#utility.yul\":21590:21662   */\n      tag_564\n      jump\t// in\n    tag_866:\n        /* \"#utility.yul\":21231:21669   */\n      swap5\n      swap4\n      pop\n      pop\n      pop\n      pop\n      jump\t// out\n        /* \"#utility.yul\":21675:22085   */\n    tag_339:\n        /* \"#utility.yul\":21715:21722   */\n      0x00\n        /* \"#utility.yul\":21738:21758   */\n      tag_868\n        /* \"#utility.yul\":21756:21757   */\n      dup3\n        /* \"#utility.yul\":21738:21758   */\n      tag_556\n      jump\t// in\n    tag_868:\n        /* \"#utility.yul\":21733:21758   */\n      swap2\n      pop\n        /* \"#utility.yul\":21772:21792   */\n      tag_869\n        /* \"#utility.yul\":21790:21791   */\n      dup4\n        /* \"#utility.yul\":21772:21792   */\n      tag_556\n      jump\t// in\n    tag_869:\n        /* \"#utility.yul\":21767:21792   */\n      swap3\n      pop\n        /* \"#utility.yul\":21827:21828   */\n      dup3\n        /* \"#utility.yul\":21824:21825   */\n      dup3\n        /* \"#utility.yul\":21820:21829   */\n      mul\n        /* \"#utility.yul\":21849:21879   */\n      tag_870\n        /* \"#utility.yul\":21867:21878   */\n      dup2\n        /* \"#utility.yul\":21849:21879   */\n      tag_556\n      jump\t// in\n    tag_870:\n        /* \"#utility.yul\":21838:21879   */\n      swap2\n      pop\n        /* \"#utility.yul\":22028:22029   */\n      dup3\n        /* \"#utility.yul\":22019:22026   */\n      dup3\n        /* \"#utility.yul\":22015:22030   */\n      div\n        /* \"#utility.yul\":22012:22013   */\n      dup5\n        /* \"#utility.yul\":22009:22031   */\n      eq\n        /* \"#utility.yul\":21989:21990   */\n      dup4\n        /* \"#utility.yul\":21982:21991   */\n      iszero\n        /* \"#utility.yul\":21962:22045   */\n      or\n        /* \"#utility.yul\":21939:22078   */\n      tag_871\n      jumpi\n        /* \"#utility.yul\":22058:22076   */\n      tag_872\n      tag_595\n      jump\t// in\n    tag_872:\n        /* \"#utility.yul\":21939:22078   */\n    tag_871:\n        /* \"#utility.yul\":21723:22085   */\n      pop\n        /* \"#utility.yul\":21675:22085   */\n      swap3\n      swap2\n      pop\n      pop\n      jump\t// out\n        /* \"#utility.yul\":22091:22316   */\n    tag_605:\n        /* \"#utility.yul\":22231:22265   */\n      0x546f74616c20736861726573206d757374206265206772656174657220746861\n        /* \"#utility.yul\":22227:22228   */\n      0x00\n        /* \"#utility.yul\":22219:22225   */\n      dup3\n        /* \"#utility.yul\":22215:22229   */\n      add\n        /* \"#utility.yul\":22208:22266   */\n      mstore\n        /* \"#utility.yul\":22300:22308   */\n      0x6e207a65726f0000000000000000000000000000000000000000000000000000\n        /* \"#utility.yul\":22295:22297   */\n      0x20\n        /* \"#utility.yul\":22287:22293   */\n      dup3\n        /* \"#utility.yul\":22283:22298   */\n      add\n        /* \"#utility.yul\":22276:22309   */\n      mstore\n        /* \"#utility.yul\":22091:22316   */\n      pop\n      jump\t// out\n        /* \"#utility.yul\":22322:22688   */\n    tag_606:\n        /* \"#utility.yul\":22464:22467   */\n      0x00\n        /* \"#utility.yul\":22485:22552   */\n      tag_875\n        /* \"#utility.yul\":22549:22551   */\n      0x26\n        /* \"#utility.yul\":22544:22547   */\n      dup4\n        /* \"#utility.yul\":22485:22552   */\n      tag_560\n      jump\t// in\n    tag_875:\n        /* \"#utility.yul\":22478:22552   */\n      swap2\n      pop\n        /* \"#utility.yul\":22561:22654   */\n      tag_876\n        /* \"#utility.yul\":22650:22653   */\n      dup3\n        /* \"#utility.yul\":22561:22654   */\n      tag_605\n      jump\t// in\n    tag_876:\n        /* \"#utility.yul\":22679:22681   */\n      0x40\n        /* \"#utility.yul\":22674:22677   */\n      dup3\n        /* \"#utility.yul\":22670:22682   */\n      add\n        /* \"#utility.yul\":22663:22682   */\n      swap1\n      pop\n        /* \"#utility.yul\":22322:22688   */\n      swap2\n      swap1\n      pop\n      jump\t// out\n        /* \"#utility.yul\":22694:23113   */\n    tag_358:\n        /* \"#utility.yul\":22860:22864   */\n      0x00\n        /* \"#utility.yul\":22898:22900   */\n      0x20\n        /* \"#utility.yul\":22887:22896   */\n      dup3\n        /* \"#utility.yul\":22883:22901   */\n      add\n        /* \"#utility.yul\":22875:22901   */\n      swap1\n      pop\n        /* \"#utility.yul\":22947:22956   */\n      dup2\n        /* \"#utility.yul\":22941:22945   */\n      dup2\n        /* \"#utility.yul\":22937:22957   */\n      sub\n        /* \"#utility.yul\":22933:22934   */\n      0x00\n        /* \"#utility.yul\":22922:22931   */\n      dup4\n        /* \"#utility.yul\":22918:22935   */\n      add\n        /* \"#utility.yul\":22911:22958   */\n      mstore\n        /* \"#utility.yul\":22975:23106   */\n      tag_878\n        /* \"#utility.yul\":23101:23105   */\n      dup2\n        /* \"#utility.yul\":22975:23106   */\n      tag_606\n      jump\t// in\n    tag_878:\n        /* \"#utility.yul\":22967:23106   */\n      swap1\n      pop\n        /* \"#utility.yul\":22694:23113   */\n      swap2\n      swap1\n      pop\n      jump\t// out\n        /* \"#utility.yul\":23119:23204   */\n    tag_607:\n        /* \"#utility.yul\":23164:23171   */\n      0x00\n        /* \"#utility.yul\":23193:23198   */\n      dup2\n        /* \"#utility.yul\":23182:23198   */\n      swap1\n      pop\n        /* \"#utility.yul\":23119:23204   */\n      swap2\n      swap1\n      pop\n      jump\t// out\n        /* \"#utility.yul\":23210:23366   */\n    tag_608:\n        /* \"#utility.yul\":23267:23276   */\n      0x00\n        /* \"#utility.yul\":23300:23360   */\n      tag_881\n        /* \"#utility.yul\":23317:23359   */\n      tag_882\n        /* \"#utility.yul\":23326:23358   */\n      tag_883\n        /* \"#utility.yul\":23352:23357   */\n      dup5\n        /* \"#utility.yul\":23326:23358   */\n      tag_607\n      jump\t// in\n    tag_883:\n        /* \"#utility.yul\":23317:23359   */\n      tag_571\n      jump\t// in\n    tag_882:\n        /* \"#utility.yul\":23300:23360   */\n      tag_589\n      jump\t// in\n    tag_881:\n        /* \"#utility.yul\":23287:23360   */\n      swap1\n      pop\n        /* \"#utility.yul\":23210:23366   */\n      swap2\n      swap1\n      pop\n      jump\t// out\n        /* \"#utility.yul\":23372:23517   */\n    tag_609:\n        /* \"#utility.yul\":23466:23510   */\n      tag_885\n        /* \"#utility.yul\":23504:23509   */\n      dup2\n        /* \"#utility.yul\":23466:23510   */\n      tag_608\n      jump\t// in\n    tag_885:\n        /* \"#utility.yul\":23461:23464   */\n      dup3\n        /* \"#utility.yul\":23454:23511   */\n      mstore\n        /* \"#utility.yul\":23372:23517   */\n      pop\n      pop\n      jump\t// out\n        /* \"#utility.yul\":23523:23759   */\n    tag_371:\n        /* \"#utility.yul\":23623:23627   */\n      0x00\n        /* \"#utility.yul\":23661:23663   */\n      0x20\n        /* \"#utility.yul\":23650:23659   */\n      dup3\n        /* \"#utility.yul\":23646:23664   */\n      add\n        /* \"#utility.yul\":23638:23664   */\n      swap1\n      pop\n        /* \"#utility.yul\":23674:23752   */\n      tag_887\n        /* \"#utility.yul\":23749:23750   */\n      0x00\n        /* \"#utility.yul\":23738:23747   */\n      dup4\n        /* \"#utility.yul\":23734:23751   */\n      add\n        /* \"#utility.yul\":23725:23731   */\n      dup5\n        /* \"#utility.yul\":23674:23752   */\n      tag_609\n      jump\t// in\n    tag_887:\n        /* \"#utility.yul\":23523:23759   */\n      swap3\n      swap2\n      pop\n      pop\n      jump\t// out\n        /* \"#utility.yul\":23765:23987   */\n    tag_407:\n        /* \"#utility.yul\":23858:23862   */\n      0x00\n        /* \"#utility.yul\":23896:23898   */\n      0x20\n        /* \"#utility.yul\":23885:23894   */\n      dup3\n        /* \"#utility.yul\":23881:23899   */\n      add\n        /* \"#utility.yul\":23873:23899   */\n      swap1\n      pop\n        /* \"#utility.yul\":23909:23980   */\n      tag_889\n        /* \"#utility.yul\":23977:23978   */\n      0x00\n        /* \"#utility.yul\":23966:23975   */\n      dup4\n        /* \"#utility.yul\":23962:23979   */\n      add\n        /* \"#utility.yul\":23953:23959   */\n      dup5\n        /* \"#utility.yul\":23909:23980   */\n      tag_604\n      jump\t// in\n    tag_889:\n        /* \"#utility.yul\":23765:23987   */\n      swap3\n      swap2\n      pop\n      pop\n      jump\t// out\n        /* \"#utility.yul\":23993:24136   */\n    tag_610:\n        /* \"#utility.yul\":24050:24055   */\n      0x00\n        /* \"#utility.yul\":24081:24087   */\n      dup2\n        /* \"#utility.yul\":24075:24088   */\n      mload\n        /* \"#utility.yul\":24066:24088   */\n      swap1\n      pop\n        /* \"#utility.yul\":24097:24130   */\n      tag_891\n        /* \"#utility.yul\":24124:24129   */\n      dup2\n        /* \"#utility.yul\":24097:24130   */\n      tag_566\n      jump\t// in\n    tag_891:\n        /* \"#utility.yul\":23993:24136   */\n      swap3\n      swap2\n      pop\n      pop\n      jump\t// out\n        /* \"#utility.yul\":24142:24493   */\n    tag_425:\n        /* \"#utility.yul\":24212:24218   */\n      0x00\n        /* \"#utility.yul\":24261:24263   */\n      0x20\n        /* \"#utility.yul\":24249:24258   */\n      dup3\n        /* \"#utility.yul\":24240:24247   */\n      dup5\n        /* \"#utility.yul\":24236:24259   */\n      sub\n        /* \"#utility.yul\":24232:24264   */\n      slt\n        /* \"#utility.yul\":24229:24348   */\n      iszero\n      tag_893\n      jumpi\n        /* \"#utility.yul\":24267:24346   */\n      tag_894\n      tag_545\n      jump\t// in\n    tag_894:\n        /* \"#utility.yul\":24229:24348   */\n    tag_893:\n        /* \"#utility.yul\":24387:24388   */\n      0x00\n        /* \"#utility.yul\":24412:24476   */\n      tag_895\n        /* \"#utility.yul\":24468:24475   */\n      dup5\n        /* \"#utility.yul\":24459:24465   */\n      dup3\n        /* \"#utility.yul\":24448:24457   */\n      dup6\n        /* \"#utility.yul\":24444:24466   */\n      add\n        /* \"#utility.yul\":24412:24476   */\n      tag_610\n      jump\t// in\n    tag_895:\n        /* \"#utility.yul\":24402:24476   */\n      swap2\n      pop\n        /* \"#utility.yul\":24358:24486   */\n      pop\n        /* \"#utility.yul\":24142:24493   */\n      swap3\n      swap2\n      pop\n      pop\n      jump\t// out\n        /* \"#utility.yul\":24499:24831   */\n    tag_466:\n        /* \"#utility.yul\":24620:24624   */\n      0x00\n        /* \"#utility.yul\":24658:24660   */\n      0x40\n        /* \"#utility.yul\":24647:24656   */\n      dup3\n        /* \"#utility.yul\":24643:24661   */\n      add\n        /* \"#utility.yul\":24635:24661   */\n      swap1\n      pop\n        /* \"#utility.yul\":24671:24742   */\n      tag_897\n        /* \"#utility.yul\":24739:24740   */\n      0x00\n        /* \"#utility.yul\":24728:24737   */\n      dup4\n        /* \"#utility.yul\":24724:24741   */\n      add\n        /* \"#utility.yul\":24715:24721   */\n      dup6\n        /* \"#utility.yul\":24671:24742   */\n      tag_604\n      jump\t// in\n    tag_897:\n        /* \"#utility.yul\":24752:24824   */\n      tag_898\n        /* \"#utility.yul\":24820:24822   */\n      0x20\n        /* \"#utility.yul\":24809:24818   */\n      dup4\n        /* \"#utility.yul\":24805:24823   */\n      add\n        /* \"#utility.yul\":24796:24802   */\n      dup5\n        /* \"#utility.yul\":24752:24824   */\n      tag_568\n      jump\t// in\n    tag_898:\n        /* \"#utility.yul\":24499:24831   */\n      swap4\n      swap3\n      pop\n      pop\n      pop\n      jump\t// out\n        /* \"#utility.yul\":24837:25279   */\n    tag_480:\n        /* \"#utility.yul\":24986:24990   */\n      0x00\n        /* \"#utility.yul\":25024:25026   */\n      0x60\n        /* \"#utility.yul\":25013:25022   */\n      dup3\n        /* \"#utility.yul\":25009:25027   */\n      add\n        /* \"#utility.yul\":25001:25027   */\n      swap1\n      pop\n        /* \"#utility.yul\":25037:25108   */\n      tag_900\n        /* \"#utility.yul\":25105:25106   */\n      0x00\n        /* \"#utility.yul\":25094:25103   */\n      dup4\n        /* \"#utility.yul\":25090:25107   */\n      add\n        /* \"#utility.yul\":25081:25087   */\n      dup7\n        /* \"#utility.yul\":25037:25108   */\n      tag_604\n      jump\t// in\n    tag_900:\n        /* \"#utility.yul\":25118:25190   */\n      tag_901\n        /* \"#utility.yul\":25186:25188   */\n      0x20\n        /* \"#utility.yul\":25175:25184   */\n      dup4\n        /* \"#utility.yul\":25171:25189   */\n      add\n        /* \"#utility.yul\":25162:25168   */\n      dup6\n        /* \"#utility.yul\":25118:25190   */\n      tag_564\n      jump\t// in\n    tag_901:\n        /* \"#utility.yul\":25200:25272   */\n      tag_902\n        /* \"#utility.yul\":25268:25270   */\n      0x40\n        /* \"#utility.yul\":25257:25266   */\n      dup4\n        /* \"#utility.yul\":25253:25271   */\n      add\n        /* \"#utility.yul\":25244:25250   */\n      dup5\n        /* \"#utility.yul\":25200:25272   */\n      tag_564\n      jump\t// in\n    tag_902:\n        /* \"#utility.yul\":24837:25279   */\n      swap5\n      swap4\n      pop\n      pop\n      pop\n      pop\n      jump\t// out\n        /* \"#utility.yul\":25285:25426   */\n    tag_611:\n        /* \"#utility.yul\":25334:25338   */\n      0x00\n        /* \"#utility.yul\":25357:25360   */\n      dup2\n        /* \"#utility.yul\":25349:25360   */\n      swap1\n      pop\n        /* \"#utility.yul\":25380:25383   */\n      dup2\n        /* \"#utility.yul\":25377:25378   */\n      0x00\n        /* \"#utility.yul\":25370:25384   */\n      mstore\n        /* \"#utility.yul\":25414:25418   */\n      0x20\n        /* \"#utility.yul\":25411:25412   */\n      0x00\n        /* \"#utility.yul\":25401:25419   */\n      keccak256\n        /* \"#utility.yul\":25393:25419   */\n      swap1\n      pop\n        /* \"#utility.yul\":25285:25426   */\n      swap2\n      swap1\n      pop\n      jump\t// out\n        /* \"#utility.yul\":25432:25525   */\n    tag_612:\n        /* \"#utility.yul\":25469:25475   */\n      0x00\n        /* \"#utility.yul\":25516:25518   */\n      0x20\n        /* \"#utility.yul\":25511:25513   */\n      0x1f\n        /* \"#utility.yul\":25504:25509   */\n      dup4\n        /* \"#utility.yul\":25500:25514   */\n      add\n        /* \"#utility.yul\":25496:25519   */\n      div\n        /* \"#utility.yul\":25486:25519   */\n      swap1\n      pop\n        /* \"#utility.yul\":25432:25525   */\n      swap2\n      swap1\n      pop\n      jump\t// out\n        /* \"#utility.yul\":25531:25638   */\n    tag_613:\n        /* \"#utility.yul\":25575:25583   */\n      0x00\n        /* \"#utility.yul\":25625:25630   */\n      dup3\n        /* \"#utility.yul\":25619:25623   */\n      dup3\n        /* \"#utility.yul\":25615:25631   */\n      shl\n        /* \"#utility.yul\":25594:25631   */\n      swap1\n      pop\n        /* \"#utility.yul\":25531:25638   */\n      swap3\n      swap2\n      pop\n      pop\n      jump\t// out\n        /* \"#utility.yul\":25644:26037   */\n    tag_614:\n        /* \"#utility.yul\":25713:25719   */\n      0x00\n        /* \"#utility.yul\":25763:25764   */\n      0x08\n        /* \"#utility.yul\":25751:25761   */\n      dup4\n        /* \"#utility.yul\":25747:25765   */\n      mul\n        /* \"#utility.yul\":25786:25883   */\n      tag_907\n        /* \"#utility.yul\":25816:25882   */\n      0xffffffffffffffffffffffffffffffffffffffffffffffffffffffffffffffff\n        /* \"#utility.yul\":25805:25814   */\n      dup3\n        /* \"#utility.yul\":25786:25883   */\n      tag_613\n      jump\t// in\n    tag_907:\n        /* \"#utility.yul\":25904:25943   */\n      tag_908\n        /* \"#utility.yul\":25934:25942   */\n      dup7\n        /* \"#utility.yul\":25923:25932   */\n      dup4\n        /* \"#utility.yul\":25904:25943   */\n      tag_613\n      jump\t// in\n    tag_908:\n        /* \"#utility.yul\":25892:25943   */\n      swap6\n      pop\n        /* \"#utility.yul\":25976:25980   */\n      dup1\n        /* \"#utility.yul\":25972:25981   */\n      not\n        /* \"#utility.yul\":25965:25970   */\n      dup5\n        /* \"#utility.yul\":25961:25982   */\n      and\n        /* \"#utility.yul\":25952:25982   */\n      swap4\n      pop\n        /* \"#utility.yul\":26025:26029   */\n      dup1\n        /* \"#utility.yul\":26015:26023   */\n      dup7\n        /* \"#utility.yul\":26011:26030   */\n      and\n        /* \"#utility.yul\":26004:26009   */\n      dup5\n        /* \"#utility.yul\":26001:26031   */\n      or\n        /* \"#utility.yul\":25991:26031   */\n      swap3\n      pop\n        /* \"#utility.yul\":25720:26037   */\n      pop\n      pop\n        /* \"#utility.yul\":25644:26037   */\n      swap4\n      swap3\n      pop\n      pop\n      pop\n      jump\t// out\n        /* \"#utility.yul\":26043:26185   */\n    tag_615:\n        /* \"#utility.yul\":26093:26102   */\n      0x00\n        /* \"#utility.yul\":26126:26179   */\n      tag_910\n        /* \"#utility.yul\":26144:26178   */\n      tag_911\n        /* \"#utility.yul\":26153:26177   */\n      tag_912\n        /* \"#utility.yul\":26171:26176   */\n      dup5\n        /* \"#utility.yul\":26153:26177   */\n      tag_556\n      jump\t// in\n    tag_912:\n        /* \"#utility.yul\":26144:26178   */\n      tag_571\n      jump\t// in\n    tag_911:\n        /* \"#utility.yul\":26126:26179   */\n      tag_556\n      jump\t// in\n    tag_910:\n        /* \"#utility.yul\":26113:26179   */\n      swap1\n      pop\n        /* \"#utility.yul\":26043:26185   */\n      swap2\n      swap1\n      pop\n      jump\t// out\n        /* \"#utility.yul\":26191:26266   */\n    tag_616:\n        /* \"#utility.yul\":26234:26237   */\n      0x00\n        /* \"#utility.yul\":26255:26260   */\n      dup2\n        /* \"#utility.yul\":26248:26260   */\n      swap1\n      pop\n        /* \"#utility.yul\":26191:26266   */\n      swap2\n      swap1\n      pop\n      jump\t// out\n        /* \"#utility.yul\":26272:26541   */\n    tag_617:\n        /* \"#utility.yul\":26382:26421   */\n      tag_915\n        /* \"#utility.yul\":26413:26420   */\n      dup4\n        /* \"#utility.yul\":26382:26421   */\n      tag_615\n      jump\t// in\n    tag_915:\n        /* \"#utility.yul\":26443:26534   */\n      tag_916\n        /* \"#utility.yul\":26492:26533   */\n      tag_917\n        /* \"#utility.yul\":26516:26532   */\n      dup3\n        /* \"#utility.yul\":26492:26533   */\n      tag_616\n      jump\t// in\n    tag_917:\n        /* \"#utility.yul\":26484:26490   */\n      dup5\n        /* \"#utility.yul\":26477:26481   */\n      dup5\n        /* \"#utility.yul\":26471:26482   */\n      sload\n        /* \"#utility.yul\":26443:26534   */\n      tag_614\n      jump\t// in\n    tag_916:\n        /* \"#utility.yul\":26437:26441   */\n      dup3\n        /* \"#utility.yul\":26430:26535   */\n      sstore\n        /* \"#utility.yul\":26348:26541   */\n      pop\n        /* \"#utility.yul\":26272:26541   */\n      pop\n      pop\n      pop\n      jump\t// out\n        /* \"#utility.yul\":26547:26620   */\n    tag_618:\n        /* \"#utility.yul\":26592:26595   */\n      0x00\n        /* \"#utility.yul\":26613:26614   */\n      0x00\n        /* \"#utility.yul\":26606:26614   */\n      swap1\n      pop\n        /* \"#utility.yul\":26547:26620   */\n      swap1\n      jump\t// out\n        /* \"#utility.yul\":26626:26815   */\n    tag_619:\n        /* \"#utility.yul\":26703:26735   */\n      tag_920\n      tag_618\n      jump\t// in\n    tag_920:\n        /* \"#utility.yul\":26744:26809   */\n      tag_921\n        /* \"#utility.yul\":26802:26808   */\n      dup2\n        /* \"#utility.yul\":26794:26800   */\n      dup5\n        /* \"#utility.yul\":26788:26792   */\n      dup5\n        /* \"#utility.yul\":26744:26809   */\n      tag_617\n      jump\t// in\n    tag_921:\n        /* \"#utility.yul\":26679:26815   */\n      pop\n        /* \"#utility.yul\":26626:26815   */\n      pop\n      pop\n      jump\t// out\n        /* \"#utility.yul\":26821:27007   */\n    tag_620:\n        /* \"#utility.yul\":26881:27001   */\n    tag_923:\n        /* \"#utility.yul\":26898:26901   */\n      dup2\n        /* \"#utility.yul\":26891:26896   */\n      dup2\n        /* \"#utility.yul\":26888:26902   */\n      lt\n        /* \"#utility.yul\":26881:27001   */\n      iszero\n      tag_925\n      jumpi\n        /* \"#utility.yul\":26952:26991   */\n      tag_926\n        /* \"#utility.yul\":26989:26990   */\n      0x00\n        /* \"#utility.yul\":26982:26987   */\n      dup3\n        /* \"#utility.yul\":26952:26991   */\n      tag_619\n      jump\t// in\n    tag_926:\n        /* \"#utility.yul\":26925:26926   */\n      0x01\n        /* \"#utility.yul\":26918:26923   */\n      dup2\n        /* \"#utility.yul\":26914:26927   */\n      add\n        /* \"#utility.yul\":26905:26927   */\n      swap1\n      pop\n        /* \"#utility.yul\":26881:27001   */\n      jump(tag_923)\n    tag_925:\n        /* \"#utility.yul\":26821:27007   */\n      pop\n      pop\n      jump\t// out\n        /* \"#utility.yul\":27013:27556   */\n    tag_621:\n        /* \"#utility.yul\":27114:27116   */\n      0x1f\n        /* \"#utility.yul\":27109:27112   */\n      dup3\n        /* \"#utility.yul\":27106:27117   */\n      gt\n        /* \"#utility.yul\":27103:27549   */\n      iszero\n      tag_928\n      jumpi\n        /* \"#utility.yul\":27148:27186   */\n      tag_929\n        /* \"#utility.yul\":27180:27185   */\n      dup2\n        /* \"#utility.yul\":27148:27186   */\n      tag_611\n      jump\t// in\n    tag_929:\n        /* \"#utility.yul\":27232:27261   */\n      tag_930\n        /* \"#utility.yul\":27250:27260   */\n      dup5\n        /* \"#utility.yul\":27232:27261   */\n      tag_612\n      jump\t// in\n    tag_930:\n        /* \"#utility.yul\":27222:27230   */\n      dup2\n        /* \"#utility.yul\":27218:27262   */\n      add\n        /* \"#utility.yul\":27415:27417   */\n      0x20\n        /* \"#utility.yul\":27403:27413   */\n      dup6\n        /* \"#utility.yul\":27400:27418   */\n      lt\n        /* \"#utility.yul\":27397:27446   */\n      iszero\n      tag_931\n      jumpi\n        /* \"#utility.yul\":27436:27444   */\n      dup2\n        /* \"#utility.yul\":27421:27444   */\n      swap1\n      pop\n        /* \"#utility.yul\":27397:27446   */\n    tag_931:\n        /* \"#utility.yul\":27459:27539   */\n      tag_932\n        /* \"#utility.yul\":27515:27537   */\n      tag_933\n        /* \"#utility.yul\":27533:27536   */\n      dup6\n        /* \"#utility.yul\":27515:27537   */\n      tag_612\n      jump\t// in\n    tag_933:\n        /* \"#utility.yul\":27505:27513   */\n      dup4\n        /* \"#utility.yul\":27501:27538   */\n      add\n        /* \"#utility.yul\":27488:27499   */\n      dup3\n        /* \"#utility.yul\":27459:27539   */\n      tag_620\n      jump\t// in\n    tag_932:\n        /* \"#utility.yul\":27118:27549   */\n      pop\n      pop\n        /* \"#utility.yul\":27103:27549   */\n    tag_928:\n        /* \"#utility.yul\":27013:27556   */\n      pop\n      pop\n      pop\n      jump\t// out\n        /* \"#utility.yul\":27562:27679   */\n    tag_622:\n        /* \"#utility.yul\":27616:27624   */\n      0x00\n        /* \"#utility.yul\":27666:27671   */\n      dup3\n        /* \"#utility.yul\":27660:27664   */\n      dup3\n        /* \"#utility.yul\":27656:27672   */\n      shr\n        /* \"#utility.yul\":27635:27672   */\n      swap1\n      pop\n        /* \"#utility.yul\":27562:27679   */\n      swap3\n      swap2\n      pop\n      pop\n      jump\t// out\n        /* \"#utility.yul\":27685:27854   */\n    tag_623:\n        /* \"#utility.yul\":27729:27735   */\n      0x00\n        /* \"#utility.yul\":27762:27813   */\n      tag_936\n        /* \"#utility.yul\":27810:27811   */\n      0x00\n        /* \"#utility.yul\":27806:27812   */\n      not\n        /* \"#utility.yul\":27798:27803   */\n      dup5\n        /* \"#utility.yul\":27795:27796   */\n      0x08\n        /* \"#utility.yul\":27791:27804   */\n      mul\n        /* \"#utility.yul\":27762:27813   */\n      tag_622\n      jump\t// in\n    tag_936:\n        /* \"#utility.yul\":27758:27814   */\n      not\n        /* \"#utility.yul\":27843:27847   */\n      dup1\n        /* \"#utility.yul\":27837:27841   */\n      dup4\n        /* \"#utility.yul\":27833:27848   */\n      and\n        /* \"#utility.yul\":27823:27848   */\n      swap2\n      pop\n        /* \"#utility.yul\":27736:27854   */\n      pop\n        /* \"#utility.yul\":27685:27854   */\n      swap3\n      swap2\n      pop\n      pop\n      jump\t// out\n        /* \"#utility.yul\":27859:28154   */\n    tag_624:\n        /* \"#utility.yul\":27935:27939   */\n      0x00\n        /* \"#utility.yul\":28081:28110   */\n      tag_938\n        /* \"#utility.yul\":28106:28109   */\n      dup4\n        /* \"#utility.yul\":28100:28104   */\n      dup4\n        /* \"#utility.yul\":28081:28110   */\n      tag_623\n      jump\t// in\n    tag_938:\n        /* \"#utility.yul\":28073:28110   */\n      swap2\n      pop\n        /* \"#utility.yul\":28143:28146   */\n      dup3\n        /* \"#utility.yul\":28140:28141   */\n      0x02\n        /* \"#utility.yul\":28136:28147   */\n      mul\n        /* \"#utility.yul\":28130:28134   */\n      dup3\n        /* \"#utility.yul\":28127:28148   */\n      or\n        /* \"#utility.yul\":28119:28148   */\n      swap1\n      pop\n        /* \"#utility.yul\":27859:28154   */\n      swap3\n      swap2\n      pop\n      pop\n      jump\t// out\n        /* \"#utility.yul\":28159:29554   */\n    tag_514:\n        /* \"#utility.yul\":28276:28313   */\n      tag_940\n        /* \"#utility.yul\":28309:28312   */\n      dup3\n        /* \"#utility.yul\":28276:28313   */\n      tag_559\n      jump\t// in\n    tag_940:\n        /* \"#utility.yul\":28378:28396   */\n      0xffffffffffffffff\n        /* \"#utility.yul\":28370:28376   */\n      dup2\n        /* \"#utility.yul\":28367:28397   */\n      gt\n        /* \"#utility.yul\":28364:28420   */\n      iszero\n      tag_941\n      jumpi\n        /* \"#utility.yul\":28400:28418   */\n      tag_942\n      tag_578\n      jump\t// in\n    tag_942:\n        /* \"#utility.yul\":28364:28420   */\n    tag_941:\n        /* \"#utility.yul\":28444:28482   */\n      tag_943\n        /* \"#utility.yul\":28476:28480   */\n      dup3\n        /* \"#utility.yul\":28470:28481   */\n      sload\n        /* \"#utility.yul\":28444:28482   */\n      tag_231\n      jump\t// in\n    tag_943:\n        /* \"#utility.yul\":28529:28596   */\n      tag_944\n        /* \"#utility.yul\":28589:28595   */\n      dup3\n        /* \"#utility.yul\":28581:28587   */\n      dup3\n        /* \"#utility.yul\":28575:28579   */\n      dup6\n        /* \"#utility.yul\":28529:28596   */\n      tag_621\n      jump\t// in\n    tag_944:\n        /* \"#utility.yul\":28623:28624   */\n      0x00\n        /* \"#utility.yul\":28647:28651   */\n      0x20\n        /* \"#utility.yul\":28634:28651   */\n      swap1\n      pop\n        /* \"#utility.yul\":28679:28681   */\n      0x1f\n        /* \"#utility.yul\":28671:28677   */\n      dup4\n        /* \"#utility.yul\":28668:28682   */\n      gt\n        /* \"#utility.yul\":28696:28697   */\n      0x01\n        /* \"#utility.yul\":28691:29309   */\n      dup2\n      eq\n      tag_946\n      jumpi\n        /* \"#utility.yul\":29353:29354   */\n      0x00\n        /* \"#utility.yul\":29370:29376   */\n      dup5\n        /* \"#utility.yul\":29367:29444   */\n      iszero\n      tag_947\n      jumpi\n        /* \"#utility.yul\":29419:29428   */\n      dup3\n        /* \"#utility.yul\":29414:29417   */\n      dup8\n        /* \"#utility.yul\":29410:29429   */\n      add\n        /* \"#utility.yul\":29404:29430   */\n      mload\n        /* \"#utility.yul\":29395:29430   */\n      swap1\n      pop\n        /* \"#utility.yul\":29367:29444   */\n    tag_947:\n        /* \"#utility.yul\":29470:29537   */\n      tag_948\n        /* \"#utility.yul\":29530:29536   */\n      dup6\n        /* \"#utility.yul\":29523:29528   */\n      dup3\n        /* \"#utility.yul\":29470:29537   */\n      tag_624\n      jump\t// in\n    tag_948:\n        /* \"#utility.yul\":29464:29468   */\n      dup7\n        /* \"#utility.yul\":29457:29538   */\n      sstore\n        /* \"#utility.yul\":29326:29548   */\n      pop\n        /* \"#utility.yul\":28661:29548   */\n      jump(tag_945)\n        /* \"#utility.yul\":28691:29309   */\n    tag_946:\n        /* \"#utility.yul\":28743:28747   */\n      0x1f\n        /* \"#utility.yul\":28739:28748   */\n      not\n        /* \"#utility.yul\":28731:28737   */\n      dup5\n        /* \"#utility.yul\":28727:28749   */\n      and\n        /* \"#utility.yul\":28777:28814   */\n      tag_949\n        /* \"#utility.yul\":28809:28813   */\n      dup7\n        /* \"#utility.yul\":28777:28814   */\n      tag_611\n      jump\t// in\n    tag_949:\n        /* \"#utility.yul\":28836:28837   */\n      0x00\n        /* \"#utility.yul\":28850:29058   */\n    tag_950:\n        /* \"#utility.yul\":28864:28871   */\n      dup3\n        /* \"#utility.yul\":28861:28862   */\n      dup2\n        /* \"#utility.yul\":28858:28872   */\n      lt\n        /* \"#utility.yul\":28850:29058   */\n      iszero\n      tag_952\n      jumpi\n        /* \"#utility.yul\":28943:28952   */\n      dup5\n        /* \"#utility.yul\":28938:28941   */\n      dup10\n        /* \"#utility.yul\":28934:28953   */\n      add\n        /* \"#utility.yul\":28928:28954   */\n      mload\n        /* \"#utility.yul\":28920:28926   */\n      dup3\n        /* \"#utility.yul\":28913:28955   */\n      sstore\n        /* \"#utility.yul\":28994:28995   */\n      0x01\n        /* \"#utility.yul\":28986:28992   */\n      dup3\n        /* \"#utility.yul\":28982:28996   */\n      add\n        /* \"#utility.yul\":28972:28996   */\n      swap2\n      pop\n        /* \"#utility.yul\":29041:29043   */\n      0x20\n        /* \"#utility.yul\":29030:29039   */\n      dup6\n        /* \"#utility.yul\":29026:29044   */\n      add\n        /* \"#utility.yul\":29013:29044   */\n      swap5\n      pop\n        /* \"#utility.yul\":28887:28891   */\n      0x20\n        /* \"#utility.yul\":28884:28885   */\n      dup2\n        /* \"#utility.yul\":28880:28892   */\n      add\n        /* \"#utility.yul\":28875:28892   */\n      swap1\n      pop\n        /* \"#utility.yul\":28850:29058   */\n      jump(tag_950)\n    tag_952:\n        /* \"#utility.yul\":29086:29092   */\n      dup7\n        /* \"#utility.yul\":29077:29084   */\n      dup4\n        /* \"#utility.yul\":29074:29093   */\n      lt\n        /* \"#utility.yul\":29071:29250   */\n      iszero\n      tag_953\n      jumpi\n        /* \"#utility.yul\":29144:29153   */\n      dup5\n        /* \"#utility.yul\":29139:29142   */\n      dup10\n        /* \"#utility.yul\":29135:29154   */\n      add\n        /* \"#utility.yul\":29129:29155   */\n      mload\n        /* \"#utility.yul\":29187:29235   */\n      tag_954\n        /* \"#utility.yul\":29229:29233   */\n      0x1f\n        /* \"#utility.yul\":29221:29227   */\n      dup10\n        /* \"#utility.yul\":29217:29234   */\n      and\n        /* \"#utility.yul\":29206:29215   */\n      dup3\n        /* \"#utility.yul\":29187:29235   */\n      tag_623\n      jump\t// in\n    tag_954:\n        /* \"#utility.yul\":29179:29185   */\n      dup4\n        /* \"#utility.yul\":29172:29236   */\n      sstore\n        /* \"#utility.yul\":29094:29250   */\n      pop\n        /* \"#utility.yul\":29071:29250   */\n    tag_953:\n        /* \"#utility.yul\":29296:29297   */\n      0x01\n        /* \"#utility.yul\":29292:29293   */\n      0x02\n        /* \"#utility.yul\":29284:29290   */\n      dup9\n        /* \"#utility.yul\":29280:29294   */\n      mul\n        /* \"#utility.yul\":29276:29298   */\n      add\n        /* \"#utility.yul\":29270:29274   */\n      dup9\n        /* \"#utility.yul\":29263:29299   */\n      sstore\n        /* \"#utility.yul\":28698:29309   */\n      pop\n      pop\n      pop\n        /* \"#utility.yul\":28661:29548   */\n    tag_945:\n      pop\n        /* \"#utility.yul\":28251:29554   */\n      pop\n      pop\n      pop\n        /* \"#utility.yul\":28159:29554   */\n      pop\n      pop\n      jump\t// out\n        /* \"#utility.yul\":29560:29658   */\n    tag_625:\n        /* \"#utility.yul\":29611:29617   */\n      0x00\n        /* \"#utility.yul\":29645:29650   */\n      dup2\n        /* \"#utility.yul\":29639:29651   */\n      mload\n        /* \"#utility.yul\":29629:29651   */\n      swap1\n      pop\n        /* \"#utility.yul\":29560:29658   */\n      swap2\n      swap1\n      pop\n      jump\t// out\n        /* \"#utility.yul\":29664:29811   */\n    tag_626:\n        /* \"#utility.yul\":29765:29776   */\n      0x00\n        /* \"#utility.yul\":29802:29805   */\n      dup2\n        /* \"#utility.yul\":29787:29805   */\n      swap1\n      pop\n        /* \"#utility.yul\":29664:29811   */\n      swap3\n      swap2\n      pop\n      pop\n      jump\t// out\n        /* \"#utility.yul\":29817:30203   */\n    tag_627:\n        /* \"#utility.yul\":29921:29924   */\n      0x00\n        /* \"#utility.yul\":29949:29987   */\n      tag_958\n        /* \"#utility.yul\":29981:29986   */\n      dup3\n        /* \"#utility.yul\":29949:29987   */\n      tag_625\n      jump\t// in\n    tag_958:\n        /* \"#utility.yul\":30003:30091   */\n      tag_959\n        /* \"#utility.yul\":30084:30090   */\n      dup2\n        /* \"#utility.yul\":30079:30082   */\n      dup6\n        /* \"#utility.yul\":30003:30091   */\n      tag_626\n      jump\t// in\n    tag_959:\n        /* \"#utility.yul\":29996:30091   */\n      swap4\n      pop\n        /* \"#utility.yul\":30100:30165   */\n      tag_960\n        /* \"#utility.yul\":30158:30164   */\n      dup2\n        /* \"#utility.yul\":30153:30156   */\n      dup6\n        /* \"#utility.yul\":30146:30150   */\n      0x20\n        /* \"#utility.yul\":30139:30144   */\n      dup7\n        /* \"#utility.yul\":30135:30151   */\n      add\n        /* \"#utility.yul\":30100:30165   */\n      tag_561\n      jump\t// in\n    tag_960:\n        /* \"#utility.yul\":30190:30196   */\n      dup1\n        /* \"#utility.yul\":30185:30188   */\n      dup5\n        /* \"#utility.yul\":30181:30197   */\n      add\n        /* \"#utility.yul\":30174:30197   */\n      swap2\n      pop\n        /* \"#utility.yul\":29925:30203   */\n      pop\n        /* \"#utility.yul\":29817:30203   */\n      swap3\n      swap2\n      pop\n      pop\n      jump\t// out\n        /* \"#utility.yul\":30209:30480   */\n    tag_523:\n        /* \"#utility.yul\":30339:30342   */\n      0x00\n        /* \"#utility.yul\":30361:30454   */\n      tag_962\n        /* \"#utility.yul\":30450:30453   */\n      dup3\n        /* \"#utility.yul\":30441:30447   */\n      dup5\n        /* \"#utility.yul\":30361:30454   */\n      tag_627\n      jump\t// in\n    tag_962:\n        /* \"#utility.yul\":30354:30454   */\n      swap2\n      pop\n        /* \"#utility.yul\":30471:30474   */\n      dup2\n        /* \"#utility.yul\":30464:30474   */\n      swap1\n      pop\n        /* \"#utility.yul\":30209:30480   */\n      swap3\n      swap2\n      pop\n      pop\n      jump\t// out\n\n    auxdata: 0xa26469706673582212200975fa70692f3ebea0e374cad6627675a6d8a550b62d5ee68fbf475b5a296a6364736f6c634300081e0033\n}\n",
				"bytecode": {
					"linkReferences": {},
					"object": "60a06040523073ffffffffffffffffffffffffffffffffffffffff1660809073ffffffffffffffffffffffffffffffffffffffff16815250348015610042575f5ffd5b5061005161005660201b60201c565b6101d1565b5f61006561015460201b60201c565b9050805f0160089054906101000a900460ff16156100af576040517ff92ee8a900000000000000000000000000000000000000000000000000000000815260040160405180910390fd5b67ffffffffffffffff8016815f015f9054906101000a900467ffffffffffffffff1667ffffffffffffffff16146101515767ffffffffffffffff815f015f6101000a81548167ffffffffffffffff021916908367ffffffffffffffff1602179055507fc7f505b2f371ae2175ee4913f4499e1f2633a7b5936321eed1cdaeb6115181d267ffffffffffffffff60405161014891906101b8565b60405180910390a15b50565b5f5f61016461016d60201b60201c565b90508091505090565b5f7ff0c57e16840df040f15088dc2f81fe391c3923bec73e23a9662efc9c229c6a005f1b905090565b5f67ffffffffffffffff82169050919050565b6101b281610196565b82525050565b5f6020820190506101cb5f8301846101a9565b92915050565b6080516138af6101f75f395f8181611ba801528181611bfd0152611dda01526138af5ff3fe60806040526004361061020e575f3560e01c806391d1485411610117578063d547741f1161009f578063e2d6f6341161006e578063e2d6f634146107ac578063e336ac44146107d4578063e48bf15b14610810578063f7154b3c1461083a578063f72c0d8b146108645761020e565b8063d547741f146106e4578063d936547e1461070c578063dd62ed3e14610748578063dea7f112146107845761020e565b8063a217fddf116100e6578063a217fddf146105f0578063a9059cbb1461061a578063ad3cb1cc14610656578063c255f8c814610680578063c55d0f56146106a85761020e565b806391d14854146105465780639281aa0b1461058257806395d89b41146105aa578063a14d707c146105d45761020e565b806336568abe1161019a5780634f1ef286116101695780634f1ef2861461047257806352d1902d1461048e57806370a08231146104b85780638d898e34146104f45780639081e6441461051c5761020e565b806336568abe146103d05780633efb0be3146103f857806340c10f191461042257806342966c681461044a5761020e565b806318160ddd116101e157806318160ddd146102dc57806323b872dd14610306578063248a9ca3146103425780632f2ff15d1461037e578063313ce567146103a65761020e565b806301ffc9a71461021257806305fbf4481461024e57806306fdde0314610276578063095ea7b3146102a0575b5f5ffd5b34801561021d575f5ffd5b50610238600480360381019061023391906128eb565b61088e565b6040516102459190612930565b60405180910390f35b348015610259575f5ffd5b50610274600480360381019061026f91906129d6565b610907565b005b348015610281575f5ffd5b5061028a610989565b6040516102979190612a84565b60405180910390f35b3480156102ab575f5ffd5b506102c660048036038101906102c191906129d6565b610a27565b6040516102d39190612930565b60405180910390f35b3480156102e7575f5ffd5b506102f0610a49565b6040516102fd9190612ab3565b60405180910390f35b348015610311575f5ffd5b5061032c60048036038101906103279190612acc565b610a60565b6040516103399190612930565b60405180910390f35b34801561034d575f5ffd5b5061036860048036038101906103639190612b4f565b610b91565b6040516103759190612b89565b60405180910390f35b348015610389575f5ffd5b506103a4600480360381019061039f9190612ba2565b610bbb565b005b3480156103b1575f5ffd5b506103ba610bdd565b6040516103c79190612bfb565b60405180910390f35b3480156103db575f5ffd5b506103f660048036038101906103f19190612ba2565b610be5565b005b348015610403575f5ffd5b5061040c610c60565b6040516104199190612c6f565b60405180910390f35b34801561042d575f5ffd5b50610448600480360381019061044391906129d6565b610c84565b005b348015610455575f5ffd5b50610470600480360381019061046b9190612c88565b610cbd565b005b61048c60048036038101906104879190612ddf565b610cf5565b005b348015610499575f5ffd5b506104a2610d14565b6040516104af9190612b89565b60405180910390f35b3480156104c3575f5ffd5b506104de60048036038101906104d99190612e39565b610d45565b6040516104eb9190612ab3565b60405180910390f35b3480156104ff575f5ffd5b5061051a60048036038101906105159190612c88565b610d98565b005b348015610527575f5ffd5b50610530610dcd565b60405161053d9190612e84565b60405180910390f35b348015610551575f5ffd5b5061056c60048036038101906105679190612ba2565b610df2565b6040516105799190612930565b60405180910390f35b34801561058d575f5ffd5b506105a860048036038101906105a39190612ec7565b610e63565b005b3480156105b5575f5ffd5b506105be610ec8565b6040516105cb9190612a84565b60405180910390f35b6105ee60048036038101906105e99190612f42565b610f66565b005b3480156105fb575f5ffd5b50610604611172565b6040516106119190612b89565b60405180910390f35b348015610625575f5ffd5b50610640600480360381019061063b91906129d6565b611178565b60405161064d9190612930565b60405180910390f35b348015610661575f5ffd5b5061066a6112a7565b6040516106779190612a84565b60405180910390f35b34801561068b575f5ffd5b506106a660048036038101906106a19190612e39565b6112e0565b005b3480156106b3575f5ffd5b506106ce60048036038101906106c99190612c88565b611350565b6040516106db9190612ab3565b60405180910390f35b3480156106ef575f5ffd5b5061070a60048036038101906107059190612ba2565b611366565b005b348015610717575f5ffd5b50610732600480360381019061072d9190612e39565b611388565b60405161073f9190612930565b60405180910390f35b348015610753575f5ffd5b5061076e60048036038101906107699190612f92565b6113a5565b60405161077b9190612ab3565b60405180910390f35b34801561078f575f5ffd5b506107aa60048036038101906107a5919061306e565b611435565b005b3480156107b7575f5ffd5b506107d260048036038101906107cd91906129d6565b61170a565b005b3480156107df575f5ffd5b506107fa60048036038101906107f59190612e39565b611743565b6040516108079190612ab3565b60405180910390f35b34801561081b575f5ffd5b50610824611758565b6040516108319190612b89565b60405180910390f35b348015610845575f5ffd5b5061084e61177c565b60405161085b9190612ab3565b60405180910390f35b34801561086f575f5ffd5b50610878611782565b6040516108859190612b89565b60405180910390f35b5f7f7965db0b000000000000000000000000000000000000000000000000000000007bffffffffffffffffffffffffffffffffffffffffffffffffffffffff1916827bffffffffffffffffffffffffffffffffffffffffffffffffffffffff1916148061090057506108ff826117a6565b5b9050919050565b7f77d72916e966418e6dc58a19999ae9934bef3f749f1547cde0a86e809f19c89b6109318161180f565b8160035f8573ffffffffffffffffffffffffffffffffffffffff1673ffffffffffffffffffffffffffffffffffffffff1681526020019081526020015f205f82825461097d9190613170565b92505081905550505050565b60605f610994611823565b90508060030180546109a5906131d0565b80601f01602080910402602001604051908101604052809291908181526020018280546109d1906131d0565b8015610a1c5780601f106109f357610100808354040283529160200191610a1c565b820191905f5260205f20905b8154815290600101906020018083116109ff57829003601f168201915b505050505091505090565b5f5f610a3161184a565b9050610a3e818585611851565b600191505092915050565b5f5f610a53611823565b9050806002015491505090565b5f60045f8473ffffffffffffffffffffffffffffffffffffffff1673ffffffffffffffffffffffffffffffffffffffff1681526020019081526020015f205f9054906101000a900460ff16610aea576040517f08c379a0000000000000000000000000000000000000000000000000000000008152600401610ae19061324a565b60405180910390fd5b8160035f8673ffffffffffffffffffffffffffffffffffffffff1673ffffffffffffffffffffffffffffffffffffffff1681526020019081526020015f2054610b3286610d45565b610b3c9190613268565b1015610b7d576040517f08c379a0000000000000000000000000000000000000000000000000000000008152600401610b74906132e5565b60405180910390fd5b610b88848484611863565b90509392505050565b5f5f610b9b611891565b9050805f015f8481526020019081526020015f2060010154915050919050565b610bc482610b91565b610bcd8161180f565b610bd783836118b8565b50505050565b5f6012905090565b610bed61184a565b73ffffffffffffffffffffffffffffffffffffffff168173ffffffffffffffffffffffffffffffffffffffff1614610c51576040517f6697b23200000000000000000000000000000000000000000000000000000000815260040160405180910390fd5b610c5b82826119b0565b505050565b5f5f9054906101000a900473ffffffffffffffffffffffffffffffffffffffff1681565b7f77d72916e966418e6dc58a19999ae9934bef3f749f1547cde0a86e809f19c89b610cae8161180f565b610cb88383611aa8565b505050565b7f77d72916e966418e6dc58a19999ae9934bef3f749f1547cde0a86e809f19c89b610ce78161180f565b610cf13383611b27565b5050565b610cfd611ba6565b610d0682611c8c565b610d108282611cba565b5050565b5f610d1d611dd8565b7f360894a13ba1a3210667c828492db98dca3e2076cc3735a920a3ca505d382bbc5f1b905090565b5f5f610d4f611823565b9050805f015f8473ffffffffffffffffffffffffffffffffffffffff1673ffffffffffffffffffffffffffffffffffffffff1681526020019081526020015f2054915050919050565b7f77d72916e966418e6dc58a19999ae9934bef3f749f1547cde0a86e809f19c89b610dc28161180f565b816002819055505050565b60015f9054906101000a900473ffffffffffffffffffffffffffffffffffffffff1681565b5f5f610dfc611891565b9050805f015f8581526020019081526020015f205f015f8473ffffffffffffffffffffffffffffffffffffffff1673ffffffffffffffffffffffffffffffffffffffff1681526020019081526020015f205f9054906101000a900460ff1691505092915050565b5f5f1b610e6f8161180f565b8160045f8573ffffffffffffffffffffffffffffffffffffffff1673ffffffffffffffffffffffffffffffffffffffff1681526020019081526020015f205f6101000a81548160ff021916908315150217905550505050565b60605f610ed3611823565b9050806004018054610ee4906131d0565b80601f0160208091040260200160405190810160405280929190818152602001828054610f10906131d0565b8015610f5b5780601f10610f3257610100808354040283529160200191610f5b565b820191905f5260205f20905b815481529060010190602001808311610f3e57829003601f168201915b505050505091505090565b60045f8373ffffffffffffffffffffffffffffffffffffffff1673ffffffffffffffffffffffffffffffffffffffff1681526020019081526020015f205f9054906101000a900460ff16610fef576040517f08c379a0000000000000000000000000000000000000000000000000000000008152600401610fe690613373565b60405180910390fd5b8060035f3373ffffffffffffffffffffffffffffffffffffffff1673ffffffffffffffffffffffffffffffffffffffff1681526020019081526020015f205461103733610d45565b6110419190613268565b1015611082576040517f08c379a0000000000000000000000000000000000000000000000000000000008152600401611079906132e5565b60405180910390fd5b61108d333083611e5f565b8060035f3073ffffffffffffffffffffffffffffffffffffffff1673ffffffffffffffffffffffffffffffffffffffff1681526020019081526020015f205f8282546110d99190613170565b9250508190555060015f9054906101000a900473ffffffffffffffffffffffffffffffffffffffff1673ffffffffffffffffffffffffffffffffffffffff166301ee5b22348585856040518563ffffffff1660e01b815260040161113f939291906133af565b5f604051808303818588803b158015611156575f5ffd5b505af1158015611168573d5f5f3e3d5ffd5b5050505050505050565b5f5f1b81565b5f60045f8473ffffffffffffffffffffffffffffffffffffffff1673ffffffffffffffffffffffffffffffffffffffff1681526020019081526020015f205f9054906101000a900460ff16611202576040517f08c379a00000000000000000000000000000000000000000000000000000000081526004016111f99061324a565b60405180910390fd5b8160035f3373ffffffffffffffffffffffffffffffffffffffff1673ffffffffffffffffffffffffffffffffffffffff1681526020019081526020015f205461124a33610d45565b6112549190613268565b1015611295576040517f08c379a000000000000000000000000000000000000000000000000000000000815260040161128c906132e5565b60405180910390fd5b61129f8383611f4f565b905092915050565b6040518060400160405280600581526020017f352e302e3000000000000000000000000000000000000000000000000000000081525081565b7f77d72916e966418e6dc58a19999ae9934bef3f749f1547cde0a86e809f19c89b61130a8161180f565b5f60035f8473ffffffffffffffffffffffffffffffffffffffff1673ffffffffffffffffffffffffffffffffffffffff1681526020019081526020015f20819055505050565b5f6002548261135f91906133e4565b9050919050565b61136f82610b91565b6113788161180f565b61138283836119b0565b50505050565b6004602052805f5260405f205f915054906101000a900460ff1681565b5f5f6113af611823565b9050806001015f8573ffffffffffffffffffffffffffffffffffffffff1673ffffffffffffffffffffffffffffffffffffffff1681526020019081526020015f205f8473ffffffffffffffffffffffffffffffffffffffff1673ffffffffffffffffffffffffffffffffffffffff1681526020019081526020015f205491505092915050565b5f61143e611f71565b90505f815f0160089054906101000a900460ff161590505f825f015f9054906101000a900467ffffffffffffffff1690505f5f8267ffffffffffffffff161480156114865750825b90505f60018367ffffffffffffffff161480156114b957505f3073ffffffffffffffffffffffffffffffffffffffff163b145b9050811580156114c7575080155b156114fe576040517ff92ee8a900000000000000000000000000000000000000000000000000000000815260040160405180910390fd5b6001855f015f6101000a81548167ffffffffffffffff021916908367ffffffffffffffff160217905550831561154b576001855f0160086101000a81548160ff0219169083151502179055505b5f8a1161158d576040517f08c379a000000000000000000000000000000000000000000000000000000000815260040161158490613495565b60405180910390fd5b6115978c8c611f84565b61159f611f9a565b6115a7611fa4565b875f5f6101000a81548173ffffffffffffffffffffffffffffffffffffffff021916908373ffffffffffffffffffffffffffffffffffffffff1602179055508660015f6101000a81548173ffffffffffffffffffffffffffffffffffffffff021916908373ffffffffffffffffffffffffffffffffffffffff160217905550670de0b6b3a76400006002819055506116415f5f1b8a6118b8565b5061166c7f77d72916e966418e6dc58a19999ae9934bef3f749f1547cde0a86e809f19c89b876118b8565b506116977f189ab7a9244df0848122154315af71fe140f3db0fe014031783b0946b8c9d2e38a6118b8565b506116a2868b611aa8565b83156116fc575f855f0160086101000a81548160ff0219169083151502179055507fc7f505b2f371ae2175ee4913f4499e1f2633a7b5936321eed1cdaeb6115181d260016040516116f391906134ec565b60405180910390a15b505050505050505050505050565b7f77d72916e966418e6dc58a19999ae9934bef3f749f1547cde0a86e809f19c89b6117348161180f565b61173e8383611b27565b505050565b6003602052805f5260405f205f915090505481565b7f77d72916e966418e6dc58a19999ae9934bef3f749f1547cde0a86e809f19c89b81565b60025481565b7f189ab7a9244df0848122154315af71fe140f3db0fe014031783b0946b8c9d2e381565b5f7f01ffc9a7000000000000000000000000000000000000000000000000000000007bffffffffffffffffffffffffffffffffffffffffffffffffffffffff1916827bffffffffffffffffffffffffffffffffffffffffffffffffffffffff1916149050919050565b6118208161181b61184a565b611fae565b50565b5f7f52c63247e1f47db19d5ce0460030c497f067ca4cebf71ba98eeadabe20bace00905090565b5f33905090565b61185e8383836001611fff565b505050565b5f5f61186d61184a565b905061187a8582856121dc565b611885858585611e5f565b60019150509392505050565b5f7f02dd7bc7dec4dceedda775e58dd541e08a116c6c53815c0bd028192f7b626800905090565b5f5f6118c2611891565b90506118ce8484610df2565b6119a5576001815f015f8681526020019081526020015f205f015f8573ffffffffffffffffffffffffffffffffffffffff1673ffffffffffffffffffffffffffffffffffffffff1681526020019081526020015f205f6101000a81548160ff02191690831515021790555061194161184a565b73ffffffffffffffffffffffffffffffffffffffff168373ffffffffffffffffffffffffffffffffffffffff16857f2f8788117e7eff1d82e926ec794901d17c78024a50270940304540a733656f0d60405160405180910390a460019150506119aa565b5f9150505b92915050565b5f5f6119ba611891565b90506119c68484610df2565b15611a9d575f815f015f8681526020019081526020015f205f015f8573ffffffffffffffffffffffffffffffffffffffff1673ffffffffffffffffffffffffffffffffffffffff1681526020019081526020015f205f6101000a81548160ff021916908315150217905550611a3961184a565b73ffffffffffffffffffffffffffffffffffffffff168373ffffffffffffffffffffffffffffffffffffffff16857ff6391f5c32d9c69d2a47ea670b442974b53935d1edc7fd64eb21e047a839171b60405160405180910390a46001915050611aa2565b5f9150505b92915050565b5f73ffffffffffffffffffffffffffffffffffffffff168273ffffffffffffffffffffffffffffffffffffffff1603611b18575f6040517fec442f05000000000000000000000000000000000000000000000000000000008152600401611b0f9190613505565b60405180910390fd5b611b235f838361226f565b5050565b5f73ffffffffffffffffffffffffffffffffffffffff168273ffffffffffffffffffffffffffffffffffffffff1603611b97575f6040517f96c6fd1e000000000000000000000000000000000000000000000000000000008152600401611b8e9190613505565b60405180910390fd5b611ba2825f8361226f565b5050565b7f000000000000000000000000000000000000000000000000000000000000000073ffffffffffffffffffffffffffffffffffffffff163073ffffffffffffffffffffffffffffffffffffffff161480611c5357507f000000000000000000000000000000000000000000000000000000000000000073ffffffffffffffffffffffffffffffffffffffff16611c3a61249e565b73ffffffffffffffffffffffffffffffffffffffff1614155b15611c8a576040517fe07c8dba00000000000000000000000000000000000000000000000000000000815260040160405180910390fd5b565b7f189ab7a9244df0848122154315af71fe140f3db0fe014031783b0946b8c9d2e3611cb68161180f565b5050565b8173ffffffffffffffffffffffffffffffffffffffff166352d1902d6040518163ffffffff1660e01b8152600401602060405180830381865afa925050508015611d2257506040513d601f19601f82011682018060405250810190611d1f9190613532565b60015b611d6357816040517f4c9c8ce3000000000000000000000000000000000000000000000000000000008152600401611d5a9190613505565b60405180910390fd5b7f360894a13ba1a3210667c828492db98dca3e2076cc3735a920a3ca505d382bbc5f1b8114611dc957806040517faa1d49a4000000000000000000000000000000000000000000000000000000008152600401611dc09190612b89565b60405180910390fd5b611dd383836124f1565b505050565b7f000000000000000000000000000000000000000000000000000000000000000073ffffffffffffffffffffffffffffffffffffffff163073ffffffffffffffffffffffffffffffffffffffff1614611e5d576040517fe07c8dba00000000000000000000000000000000000000000000000000000000815260040160405180910390fd5b565b5f73ffffffffffffffffffffffffffffffffffffffff168373ffffffffffffffffffffffffffffffffffffffff1603611ecf575f6040517f96c6fd1e000000000000000000000000000000000000000000000000000000008152600401611ec69190613505565b60405180910390fd5b5f73ffffffffffffffffffffffffffffffffffffffff168273ffffffffffffffffffffffffffffffffffffffff1603611f3f575f6040517fec442f05000000000000000000000000000000000000000000000000000000008152600401611f369190613505565b60405180910390fd5b611f4a83838361226f565b505050565b5f5f611f5961184a565b9050611f66818585611e5f565b600191505092915050565b5f5f611f7b612563565b90508091505090565b611f8c61258c565b611f9682826125cc565b5050565b611fa261258c565b565b611fac61258c565b565b611fb88282610df2565b611ffb5780826040517fe2517d3f000000000000000000000000000000000000000000000000000000008152600401611ff292919061355d565b60405180910390fd5b5050565b5f612008611823565b90505f73ffffffffffffffffffffffffffffffffffffffff168573ffffffffffffffffffffffffffffffffffffffff160361207a575f6040517fe602df050000000000000000000000000000000000000000000000000000000081526004016120719190613505565b60405180910390fd5b5f73ffffffffffffffffffffffffffffffffffffffff168473ffffffffffffffffffffffffffffffffffffffff16036120ea575f6040517f94280d620000000000000000000000000000000000000000000000000000000081526004016120e19190613505565b60405180910390fd5b82816001015f8773ffffffffffffffffffffffffffffffffffffffff1673ffffffffffffffffffffffffffffffffffffffff1681526020019081526020015f205f8673ffffffffffffffffffffffffffffffffffffffff1673ffffffffffffffffffffffffffffffffffffffff1681526020019081526020015f208190555081156121d5578373ffffffffffffffffffffffffffffffffffffffff168573ffffffffffffffffffffffffffffffffffffffff167f8c5be1e5ebec7d5bd14f71427d1e84f3dd0314c0f7b2291e5b200ac8c7c3b925856040516121cc9190612ab3565b60405180910390a35b5050505050565b5f6121e784846113a5565b90507fffffffffffffffffffffffffffffffffffffffffffffffffffffffffffffffff811015612269578181101561225a578281836040517ffb8f41b200000000000000000000000000000000000000000000000000000000815260040161225193929190613584565b60405180910390fd5b61226884848484035f611fff565b5b50505050565b5f612278611823565b90505f73ffffffffffffffffffffffffffffffffffffffff168473ffffffffffffffffffffffffffffffffffffffff16036122cc5781816002015f8282546122c09190613170565b9250508190555061239e565b5f815f015f8673ffffffffffffffffffffffffffffffffffffffff1673ffffffffffffffffffffffffffffffffffffffff1681526020019081526020015f2054905082811015612357578481846040517fe450d38c00000000000000000000000000000000000000000000000000000000815260040161234e93929190613584565b60405180910390fd5b828103825f015f8773ffffffffffffffffffffffffffffffffffffffff1673ffffffffffffffffffffffffffffffffffffffff1681526020019081526020015f2081905550505b5f73ffffffffffffffffffffffffffffffffffffffff168373ffffffffffffffffffffffffffffffffffffffff16036123e75781816002015f8282540392505081905550612433565b81815f015f8573ffffffffffffffffffffffffffffffffffffffff1673ffffffffffffffffffffffffffffffffffffffff1681526020019081526020015f205f82825401925050819055505b8273ffffffffffffffffffffffffffffffffffffffff168473ffffffffffffffffffffffffffffffffffffffff167fddf252ad1be2c89b69c2b068fc378daa952ba7f163c4a11628f55a4df523b3ef846040516124909190612ab3565b60405180910390a350505050565b5f6124ca7f360894a13ba1a3210667c828492db98dca3e2076cc3735a920a3ca505d382bbc5f1b612608565b5f015f9054906101000a900473ffffffffffffffffffffffffffffffffffffffff16905090565b6124fa82612611565b8173ffffffffffffffffffffffffffffffffffffffff167fbc7cd75a20ee27fd9adebab32041f755214dbc6bffa90cc0225b39da2e5c2d3b60405160405180910390a25f815111156125565761255082826126da565b5061255f565b61255e61275a565b5b5050565b5f7ff0c57e16840df040f15088dc2f81fe391c3923bec73e23a9662efc9c229c6a005f1b905090565b612594612796565b6125ca576040517fd7e6bcf800000000000000000000000000000000000000000000000000000000815260040160405180910390fd5b565b6125d461258c565b5f6125dd611823565b9050828160030190816125f09190613750565b50818160040190816126029190613750565b50505050565b5f819050919050565b5f8173ffffffffffffffffffffffffffffffffffffffff163b0361266c57806040517f4c9c8ce30000000000000000000000000000000000000000000000000000000081526004016126639190613505565b60405180910390fd5b806126987f360894a13ba1a3210667c828492db98dca3e2076cc3735a920a3ca505d382bbc5f1b612608565b5f015f6101000a81548173ffffffffffffffffffffffffffffffffffffffff021916908373ffffffffffffffffffffffffffffffffffffffff16021790555050565b60605f5f8473ffffffffffffffffffffffffffffffffffffffff16846040516127039190613863565b5f60405180830381855af49150503d805f811461273b576040519150601f19603f3d011682016040523d82523d5f602084013e612740565b606091505b50915091506127508583836127b4565b9250505092915050565b5f341115612794576040517fb398979f00000000000000000000000000000000000000000000000000000000815260040160405180910390fd5b565b5f61279f611f71565b5f0160089054906101000a900460ff16905090565b6060826127c9576127c482612841565b612839565b5f82511480156127ef57505f8473ffffffffffffffffffffffffffffffffffffffff163b145b1561283157836040517f9996b3150000000000000000000000000000000000000000000000000000000081526004016128289190613505565b60405180910390fd5b81905061283a565b5b9392505050565b5f815111156128535780518082602001fd5b6040517fd6bda27500000000000000000000000000000000000000000000000000000000815260040160405180910390fd5b5f604051905090565b5f5ffd5b5f5ffd5b5f7fffffffff0000000000000000000000000000000000000000000000000000000082169050919050565b6128ca81612896565b81146128d4575f5ffd5b50565b5f813590506128e5816128c1565b92915050565b5f60208284031215612900576128ff61288e565b5b5f61290d848285016128d7565b91505092915050565b5f8115159050919050565b61292a81612916565b82525050565b5f6020820190506129435f830184612921565b92915050565b5f73ffffffffffffffffffffffffffffffffffffffff82169050919050565b5f61297282612949565b9050919050565b61298281612968565b811461298c575f5ffd5b50565b5f8135905061299d81612979565b92915050565b5f819050919050565b6129b5816129a3565b81146129bf575f5ffd5b50565b5f813590506129d0816129ac565b92915050565b5f5f604083850312156129ec576129eb61288e565b5b5f6129f98582860161298f565b9250506020612a0a858286016129c2565b9150509250929050565b5f81519050919050565b5f82825260208201905092915050565b8281835e5f83830152505050565b5f601f19601f8301169050919050565b5f612a5682612a14565b612a608185612a1e565b9350612a70818560208601612a2e565b612a7981612a3c565b840191505092915050565b5f6020820190508181035f830152612a9c8184612a4c565b905092915050565b612aad816129a3565b82525050565b5f602082019050612ac65f830184612aa4565b92915050565b5f5f5f60608486031215612ae357612ae261288e565b5b5f612af08682870161298f565b9350506020612b018682870161298f565b9250506040612b12868287016129c2565b9150509250925092565b5f819050919050565b612b2e81612b1c565b8114612b38575f5ffd5b50565b5f81359050612b4981612b25565b92915050565b5f60208284031215612b6457612b6361288e565b5b5f612b7184828501612b3b565b91505092915050565b612b8381612b1c565b82525050565b5f602082019050612b9c5f830184612b7a565b92915050565b5f5f60408385031215612bb857612bb761288e565b5b5f612bc585828601612b3b565b9250506020612bd68582860161298f565b9150509250929050565b5f60ff82169050919050565b612bf581612be0565b82525050565b5f602082019050612c0e5f830184612bec565b92915050565b5f819050919050565b5f612c37612c32612c2d84612949565b612c14565b612949565b9050919050565b5f612c4882612c1d565b9050919050565b5f612c5982612c3e565b9050919050565b612c6981612c4f565b82525050565b5f602082019050612c825f830184612c60565b92915050565b5f60208284031215612c9d57612c9c61288e565b5b5f612caa848285016129c2565b91505092915050565b5f5ffd5b5f5ffd5b7f4e487b71000000000000000000000000000000000000000000000000000000005f52604160045260245ffd5b612cf182612a3c565b810181811067ffffffffffffffff82111715612d1057612d0f612cbb565b5b80604052505050565b5f612d22612885565b9050612d2e8282612ce8565b919050565b5f67ffffffffffffffff821115612d4d57612d4c612cbb565b5b612d5682612a3c565b9050602081019050919050565b828183375f83830152505050565b5f612d83612d7e84612d33565b612d19565b905082815260208101848484011115612d9f57612d9e612cb7565b5b612daa848285612d63565b509392505050565b5f82601f830112612dc657612dc5612cb3565b5b8135612dd6848260208601612d71565b91505092915050565b5f5f60408385031215612df557612df461288e565b5b5f612e028582860161298f565b925050602083013567ffffffffffffffff811115612e2357612e22612892565b5b612e2f85828601612db2565b9150509250929050565b5f60208284031215612e4e57612e4d61288e565b5b5f612e5b8482850161298f565b91505092915050565b5f612e6e82612c3e565b9050919050565b612e7e81612e64565b82525050565b5f602082019050612e975f830184612e75565b92915050565b612ea681612916565b8114612eb0575f5ffd5b50565b5f81359050612ec181612e9d565b92915050565b5f5f60408385031215612edd57612edc61288e565b5b5f612eea8582860161298f565b9250506020612efb85828601612eb3565b9150509250929050565b5f67ffffffffffffffff82169050919050565b612f2181612f05565b8114612f2b575f5ffd5b50565b5f81359050612f3c81612f18565b92915050565b5f5f5f60608486031215612f5957612f5861288e565b5b5f612f6686828701612f2e565b9350506020612f778682870161298f565b9250506040612f88868287016129c2565b9150509250925092565b5f5f60408385031215612fa857612fa761288e565b5b5f612fb58582860161298f565b9250506020612fc68582860161298f565b9150509250929050565b5f67ffffffffffffffff821115612fea57612fe9612cbb565b5b612ff382612a3c565b9050602081019050919050565b5f61301261300d84612fd0565b612d19565b90508281526020810184848401111561302e5761302d612cb7565b5b613039848285612d63565b509392505050565b5f82601f83011261305557613054612cb3565b5b8135613065848260208601613000565b91505092915050565b5f5f5f5f5f5f5f60e0888a0312156130895761308861288e565b5b5f88013567ffffffffffffffff8111156130a6576130a5612892565b5b6130b28a828b01613041565b975050602088013567ffffffffffffffff8111156130d3576130d2612892565b5b6130df8a828b01613041565b96505060406130f08a828b016129c2565b95505060606131018a828b0161298f565b94505060806131128a828b0161298f565b93505060a06131238a828b0161298f565b92505060c06131348a828b0161298f565b91505092959891949750929550565b7f4e487b71000000000000000000000000000000000000000000000000000000005f52601160045260245ffd5b5f61317a826129a3565b9150613185836129a3565b925082820190508082111561319d5761319c613143565b5b92915050565b7f4e487b71000000000000000000000000000000000000000000000000000000005f52602260045260245ffd5b5f60028204905060018216806131e757607f821691505b6020821081036131fa576131f96131a3565b5b50919050565b7f5265636569766572206e6f742077686974656c697374656400000000000000005f82015250565b5f613234601883612a1e565b915061323f82613200565b602082019050919050565b5f6020820190508181035f83015261326181613228565b9050919050565b5f613272826129a3565b915061327d836129a3565b925082820390508181111561329557613294613143565b5b92915050565b7f496e73756666696369656e7420756e6c6f636b656400000000000000000000005f82015250565b5f6132cf601583612a1e565b91506132da8261329b565b602082019050919050565b5f6020820190508181035f8301526132fc816132c3565b9050919050565b7f43726f73732d636861696e207265636569766572206e6f742077686974656c695f8201527f7374656400000000000000000000000000000000000000000000000000000000602082015250565b5f61335d602483612a1e565b915061336882613303565b604082019050919050565b5f6020820190508181035f83015261338a81613351565b9050919050565b61339a81612f05565b82525050565b6133a981612968565b82525050565b5f6060820190506133c25f830186613391565b6133cf60208301856133a0565b6133dc6040830184612aa4565b949350505050565b5f6133ee826129a3565b91506133f9836129a3565b9250828202613407816129a3565b9150828204841483151761341e5761341d613143565b5b5092915050565b7f546f74616c20736861726573206d7573742062652067726561746572207468615f8201527f6e207a65726f0000000000000000000000000000000000000000000000000000602082015250565b5f61347f602683612a1e565b915061348a82613425565b604082019050919050565b5f6020820190508181035f8301526134ac81613473565b9050919050565b5f819050919050565b5f6134d66134d16134cc846134b3565b612c14565b612f05565b9050919050565b6134e6816134bc565b82525050565b5f6020820190506134ff5f8301846134dd565b92915050565b5f6020820190506135185f8301846133a0565b92915050565b5f8151905061352c81612b25565b92915050565b5f602082840312156135475761354661288e565b5b5f6135548482850161351e565b91505092915050565b5f6040820190506135705f8301856133a0565b61357d6020830184612b7a565b9392505050565b5f6060820190506135975f8301866133a0565b6135a46020830185612aa4565b6135b16040830184612aa4565b949350505050565b5f819050815f5260205f209050919050565b5f6020601f8301049050919050565b5f82821b905092915050565b5f600883026136157fffffffffffffffffffffffffffffffffffffffffffffffffffffffffffffffff826135da565b61361f86836135da565b95508019841693508086168417925050509392505050565b5f61365161364c613647846129a3565b612c14565b6129a3565b9050919050565b5f819050919050565b61366a83613637565b61367e61367682613658565b8484546135e6565b825550505050565b5f5f905090565b613695613686565b6136a0818484613661565b505050565b5b818110156136c3576136b85f8261368d565b6001810190506136a6565b5050565b601f821115613708576136d9816135b9565b6136e2846135cb565b810160208510156136f1578190505b6137056136fd856135cb565b8301826136a5565b50505b505050565b5f82821c905092915050565b5f6137285f198460080261370d565b1980831691505092915050565b5f6137408383613719565b9150826002028217905092915050565b61375982612a14565b67ffffffffffffffff81111561377257613771612cbb565b5b61377c82546131d0565b6137878282856136c7565b5f60209050601f8311600181146137b8575f84156137a6578287015190505b6137b08582613735565b865550613817565b601f1984166137c6866135b9565b5f5b828110156137ed578489015182556001820191506020850194506020810190506137c8565b8683101561380a5784890151613806601f891682613719565b8355505b6001600288020188555050505b505050505050565b5f81519050919050565b5f81905092915050565b5f61383d8261381f565b6138478185613829565b9350613857818560208601612a2e565b80840191505092915050565b5f61386e8284613833565b91508190509291505056fea26469706673582212200975fa70692f3ebea0e374cad6627675a6d8a550b62d5ee68fbf475b5a296a6364736f6c634300081e0033",
					"opcodes": "PUSH1 0xA0 PUSH1 0x40 MSTORE ADDRESS PUSH20 0xFFFFFFFFFFFFFFFFFFFFFFFFFFFFFFFFFFFFFFFF AND PUSH1 0x80 SWAP1 PUSH20 0xFFFFFFFFFFFFFFFFFFFFFFFFFFFFFFFFFFFFFFFF AND DUP2 MSTORE POP CALLVALUE DUP1 ISZERO PUSH2 0x42 JUMPI PUSH0 PUSH0 REVERT JUMPDEST POP PUSH2 0x51 PUSH2 0x56 PUSH1 0x20 SHL PUSH1 0x20 SHR JUMP JUMPDEST PUSH2 0x1D1 JUMP JUMPDEST PUSH0 PUSH2 0x65 PUSH2 0x154 PUSH1 0x20 SHL PUSH1 0x20 SHR JUMP JUMPDEST SWAP1 POP DUP1 PUSH0 ADD PUSH1 0x8 SWAP1 SLOAD SWAP1 PUSH2 0x100 EXP SWAP1 DIV PUSH1 0xFF AND ISZERO PUSH2 0xAF JUMPI PUSH1 0x40 MLOAD PUSH32 0xF92EE8A900000000000000000000000000000000000000000000000000000000 DUP2 MSTORE PUSH1 0x4 ADD PUSH1 0x40 MLOAD DUP1 SWAP2 SUB SWAP1 REVERT JUMPDEST PUSH8 0xFFFFFFFFFFFFFFFF DUP1 AND DUP2 PUSH0 ADD PUSH0 SWAP1 SLOAD SWAP1 PUSH2 0x100 EXP SWAP1 DIV PUSH8 0xFFFFFFFFFFFFFFFF AND PUSH8 0xFFFFFFFFFFFFFFFF AND EQ PUSH2 0x151 JUMPI PUSH8 0xFFFFFFFFFFFFFFFF DUP2 PUSH0 ADD PUSH0 PUSH2 0x100 EXP DUP2 SLOAD DUP2 PUSH8 0xFFFFFFFFFFFFFFFF MUL NOT AND SWAP1 DUP4 PUSH8 0xFFFFFFFFFFFFFFFF AND MUL OR SWAP1 SSTORE POP PUSH32 0xC7F505B2F371AE2175EE4913F4499E1F2633A7B5936321EED1CDAEB6115181D2 PUSH8 0xFFFFFFFFFFFFFFFF PUSH1 0x40 MLOAD PUSH2 0x148 SWAP2 SWAP1 PUSH2 0x1B8 JUMP JUMPDEST PUSH1 0x40 MLOAD DUP1 SWAP2 SUB SWAP1 LOG1 JUMPDEST POP JUMP JUMPDEST PUSH0 PUSH0 PUSH2 0x164 PUSH2 0x16D PUSH1 0x20 SHL PUSH1 0x20 SHR JUMP JUMPDEST SWAP1 POP DUP1 SWAP2 POP POP SWAP1 JUMP JUMPDEST PUSH0 PUSH32 0xF0C57E16840DF040F15088DC2F81FE391C3923BEC73E23A9662EFC9C229C6A00 PUSH0 SHL SWAP1 POP SWAP1 JUMP JUMPDEST PUSH0 PUSH8 0xFFFFFFFFFFFFFFFF DUP3 AND SWAP1 POP SWAP2 SWAP1 POP JUMP JUMPDEST PUSH2 0x1B2 DUP2 PUSH2 0x196 JUMP JUMPDEST DUP3 MSTORE POP POP JUMP JUMPDEST PUSH0 PUSH1 0x20 DUP3 ADD SWAP1 POP PUSH2 0x1CB PUSH0 DUP4 ADD DUP5 PUSH2 0x1A9 JUMP JUMPDEST SWAP3 SWAP2 POP POP JUMP JUMPDEST PUSH1 0x80 MLOAD PUSH2 0x38AF PUSH2 0x1F7 PUSH0 CODECOPY PUSH0 DUP2 DUP2 PUSH2 0x1BA8 ADD MSTORE DUP2 DUP2 PUSH2 0x1BFD ADD MSTORE PUSH2 0x1DDA ADD MSTORE PUSH2 0x38AF PUSH0 RETURN INVALID PUSH1 0x80 PUSH1 0x40 MSTORE PUSH1 0x4 CALLDATASIZE LT PUSH2 0x20E JUMPI PUSH0 CALLDATALOAD PUSH1 0xE0 SHR DUP1 PUSH4 0x91D14854 GT PUSH2 0x117 JUMPI DUP1 PUSH4 0xD547741F GT PUSH2 0x9F JUMPI DUP1 PUSH4 0xE2D6F634 GT PUSH2 0x6E JUMPI DUP1 PUSH4 0xE2D6F634 EQ PUSH2 0x7AC JUMPI DUP1 PUSH4 0xE336AC44 EQ PUSH2 0x7D4 JUMPI DUP1 PUSH4 0xE48BF15B EQ PUSH2 0x810 JUMPI DUP1 PUSH4 0xF7154B3C EQ PUSH2 0x83A JUMPI DUP1 PUSH4 0xF72C0D8B EQ PUSH2 0x864 JUMPI PUSH2 0x20E JUMP JUMPDEST DUP1 PUSH4 0xD547741F EQ PUSH2 0x6E4 JUMPI DUP1 PUSH4 0xD936547E EQ PUSH2 0x70C JUMPI DUP1 PUSH4 0xDD62ED3E EQ PUSH2 0x748 JUMPI DUP1 PUSH4 0xDEA7F112 EQ PUSH2 0x784 JUMPI PUSH2 0x20E JUMP JUMPDEST DUP1 PUSH4 0xA217FDDF GT PUSH2 0xE6 JUMPI DUP1 PUSH4 0xA217FDDF EQ PUSH2 0x5F0 JUMPI DUP1 PUSH4 0xA9059CBB EQ PUSH2 0x61A JUMPI DUP1 PUSH4 0xAD3CB1CC EQ PUSH2 0x656 JUMPI DUP1 PUSH4 0xC255F8C8 EQ PUSH2 0x680 JUMPI DUP1 PUSH4 0xC55D0F56 EQ PUSH2 0x6A8 JUMPI PUSH2 0x20E JUMP JUMPDEST DUP1 PUSH4 0x91D14854 EQ PUSH2 0x546 JUMPI DUP1 PUSH4 0x9281AA0B EQ PUSH2 0x582 JUMPI DUP1 PUSH4 0x95D89B41 EQ PUSH2 0x5AA JUMPI DUP1 PUSH4 0xA14D707C EQ PUSH2 0x5D4 JUMPI PUSH2 0x20E JUMP JUMPDEST DUP1 PUSH4 0x36568ABE GT PUSH2 0x19A JUMPI DUP1 PUSH4 0x4F1EF286 GT PUSH2 0x169 JUMPI DUP1 PUSH4 0x4F1EF286 EQ PUSH2 0x472 JUMPI DUP1 PUSH4 0x52D1902D EQ PUSH2 0x48E JUMPI DUP1 PUSH4 0x70A08231 EQ PUSH2 0x4B8 JUMPI DUP1 PUSH4 0x8D898E34 EQ PUSH2 0x4F4 JUMPI DUP1 PUSH4 0x9081E644 EQ PUSH2 0x51C JUMPI PUSH2 0x20E JUMP JUMPDEST DUP1 PUSH4 0x36568ABE EQ PUSH2 0x3D0 JUMPI DUP1 PUSH4 0x3EFB0BE3 EQ PUSH2 0x3F8 JUMPI DUP1 PUSH4 0x40C10F19 EQ PUSH2 0x422 JUMPI DUP1 PUSH4 0x42966C68 EQ PUSH2 0x44A JUMPI PUSH2 0x20E JUMP JUMPDEST DUP1 PUSH4 0x18160DDD GT PUSH2 0x1E1 JUMPI DUP1 PUSH4 0x18160DDD EQ PUSH2 0x2DC JUMPI DUP1 PUSH4 0x23B872DD EQ PUSH2 0x306 JUMPI DUP1 PUSH4 0x248A9CA3 EQ PUSH2 0x342 JUMPI DUP1 PUSH4 0x2F2FF15D EQ PUSH2 0x37E JUMPI DUP1 PUSH4 0x313CE567 EQ PUSH2 0x3A6 JUMPI PUSH2 0x20E JUMP JUMPDEST DUP1 PUSH4 0x1FFC9A7 EQ PUSH2 0x212 JUMPI DUP1 PUSH4 0x5FBF448 EQ PUSH2 0x24E JUMPI DUP1 PUSH4 0x6FDDE03 EQ PUSH2 0x276 JUMPI DUP1 PUSH4 0x95EA7B3 EQ PUSH2 0x2A0 JUMPI JUMPDEST PUSH0 PUSH0 REVERT JUMPDEST CALLVALUE DUP1 ISZERO PUSH2 0x21D JUMPI PUSH0 PUSH0 REVERT JUMPDEST POP PUSH2 0x238 PUSH1 0x4 DUP1 CALLDATASIZE SUB DUP2 ADD SWAP1 PUSH2 0x233 SWAP2 SWAP1 PUSH2 0x28EB JUMP JUMPDEST PUSH2 0x88E JUMP JUMPDEST PUSH1 0x40 MLOAD PUSH2 0x245 SWAP2 SWAP1 PUSH2 0x2930 JUMP JUMPDEST PUSH1 0x40 MLOAD DUP1 SWAP2 SUB SWAP1 RETURN JUMPDEST CALLVALUE DUP1 ISZERO PUSH2 0x259 JUMPI PUSH0 PUSH0 REVERT JUMPDEST POP PUSH2 0x274 PUSH1 0x4 DUP1 CALLDATASIZE SUB DUP2 ADD SWAP1 PUSH2 0x26F SWAP2 SWAP1 PUSH2 0x29D6 JUMP JUMPDEST PUSH2 0x907 JUMP JUMPDEST STOP JUMPDEST CALLVALUE DUP1 ISZERO PUSH2 0x281 JUMPI PUSH0 PUSH0 REVERT JUMPDEST POP PUSH2 0x28A PUSH2 0x989 JUMP JUMPDEST PUSH1 0x40 MLOAD PUSH2 0x297 SWAP2 SWAP1 PUSH2 0x2A84 JUMP JUMPDEST PUSH1 0x40 MLOAD DUP1 SWAP2 SUB SWAP1 RETURN JUMPDEST CALLVALUE DUP1 ISZERO PUSH2 0x2AB JUMPI PUSH0 PUSH0 REVERT JUMPDEST POP PUSH2 0x2C6 PUSH1 0x4 DUP1 CALLDATASIZE SUB DUP2 ADD SWAP1 PUSH2 0x2C1 SWAP2 SWAP1 PUSH2 0x29D6 JUMP JUMPDEST PUSH2 0xA27 JUMP JUMPDEST PUSH1 0x40 MLOAD PUSH2 0x2D3 SWAP2 SWAP1 PUSH2 0x2930 JUMP JUMPDEST PUSH1 0x40 MLOAD DUP1 SWAP2 SUB SWAP1 RETURN JUMPDEST CALLVALUE DUP1 ISZERO PUSH2 0x2E7 JUMPI PUSH0 PUSH0 REVERT JUMPDEST POP PUSH2 0x2F0 PUSH2 0xA49 JUMP JUMPDEST PUSH1 0x40 MLOAD PUSH2 0x2FD SWAP2 SWAP1 PUSH2 0x2AB3 JUMP JUMPDEST PUSH1 0x40 MLOAD DUP1 SWAP2 SUB SWAP1 RETURN JUMPDEST CALLVALUE DUP1 ISZERO PUSH2 0x311 JUMPI PUSH0 PUSH0 REVERT JUMPDEST POP PUSH2 0x32C PUSH1 0x4 DUP1 CALLDATASIZE SUB DUP2 ADD SWAP1 PUSH2 0x327 SWAP2 SWAP1 PUSH2 0x2ACC JUMP JUMPDEST PUSH2 0xA60 JUMP JUMPDEST PUSH1 0x40 MLOAD PUSH2 0x339 SWAP2 SWAP1 PUSH2 0x2930 JUMP JUMPDEST PUSH1 0x40 MLOAD DUP1 SWAP2 SUB SWAP1 RETURN JUMPDEST CALLVALUE DUP1 ISZERO PUSH2 0x34D JUMPI PUSH0 PUSH0 REVERT JUMPDEST POP PUSH2 0x368 PUSH1 0x4 DUP1 CALLDATASIZE SUB DUP2 ADD SWAP1 PUSH2 0x363 SWAP2 SWAP1 PUSH2 0x2B4F JUMP JUMPDEST PUSH2 0xB91 JUMP JUMPDEST PUSH1 0x40 MLOAD PUSH2 0x375 SWAP2 SWAP1 PUSH2 0x2B89 JUMP JUMPDEST PUSH1 0x40 MLOAD DUP1 SWAP2 SUB SWAP1 RETURN JUMPDEST CALLVALUE DUP1 ISZERO PUSH2 0x389 JUMPI PUSH0 PUSH0 REVERT JUMPDEST POP PUSH2 0x3A4 PUSH1 0x4 DUP1 CALLDATASIZE SUB DUP2 ADD SWAP1 PUSH2 0x39F SWAP2 SWAP1 PUSH2 0x2BA2 JUMP JUMPDEST PUSH2 0xBBB JUMP JUMPDEST STOP JUMPDEST CALLVALUE DUP1 ISZERO PUSH2 0x3B1 JUMPI PUSH0 PUSH0 REVERT JUMPDEST POP PUSH2 0x3BA PUSH2 0xBDD JUMP JUMPDEST PUSH1 0x40 MLOAD PUSH2 0x3C7 SWAP2 SWAP1 PUSH2 0x2BFB JUMP JUMPDEST PUSH1 0x40 MLOAD DUP1 SWAP2 SUB SWAP1 RETURN JUMPDEST CALLVALUE DUP1 ISZERO PUSH2 0x3DB JUMPI PUSH0 PUSH0 REVERT JUMPDEST POP PUSH2 0x3F6 PUSH1 0x4 DUP1 CALLDATASIZE SUB DUP2 ADD SWAP1 PUSH2 0x3F1 SWAP2 SWAP1 PUSH2 0x2BA2 JUMP JUMPDEST PUSH2 0xBE5 JUMP JUMPDEST STOP JUMPDEST CALLVALUE DUP1 ISZERO PUSH2 0x403 JUMPI PUSH0 PUSH0 REVERT JUMPDEST POP PUSH2 0x40C PUSH2 0xC60 JUMP JUMPDEST PUSH1 0x40 MLOAD PUSH2 0x419 SWAP2 SWAP1 PUSH2 0x2C6F JUMP JUMPDEST PUSH1 0x40 MLOAD DUP1 SWAP2 SUB SWAP1 RETURN JUMPDEST CALLVALUE DUP1 ISZERO PUSH2 0x42D JUMPI PUSH0 PUSH0 REVERT JUMPDEST POP PUSH2 0x448 PUSH1 0x4 DUP1 CALLDATASIZE SUB DUP2 ADD SWAP1 PUSH2 0x443 SWAP2 SWAP1 PUSH2 0x29D6 JUMP JUMPDEST PUSH2 0xC84 JUMP JUMPDEST STOP JUMPDEST CALLVALUE DUP1 ISZERO PUSH2 0x455 JUMPI PUSH0 PUSH0 REVERT JUMPDEST POP PUSH2 0x470 PUSH1 0x4 DUP1 CALLDATASIZE SUB DUP2 ADD SWAP1 PUSH2 0x46B SWAP2 SWAP1 PUSH2 0x2C88 JUMP JUMPDEST PUSH2 0xCBD JUMP JUMPDEST STOP JUMPDEST PUSH2 0x48C PUSH1 0x4 DUP1 CALLDATASIZE SUB DUP2 ADD SWAP1 PUSH2 0x487 SWAP2 SWAP1 PUSH2 0x2DDF JUMP JUMPDEST PUSH2 0xCF5 JUMP JUMPDEST STOP JUMPDEST CALLVALUE DUP1 ISZERO PUSH2 0x499 JUMPI PUSH0 PUSH0 REVERT JUMPDEST POP PUSH2 0x4A2 PUSH2 0xD14 JUMP JUMPDEST PUSH1 0x40 MLOAD PUSH2 0x4AF SWAP2 SWAP1 PUSH2 0x2B89 JUMP JUMPDEST PUSH1 0x40 MLOAD DUP1 SWAP2 SUB SWAP1 RETURN JUMPDEST CALLVALUE DUP1 ISZERO PUSH2 0x4C3 JUMPI PUSH0 PUSH0 REVERT JUMPDEST POP PUSH2 0x4DE PUSH1 0x4 DUP1 CALLDATASIZE SUB DUP2 ADD SWAP1 PUSH2 0x4D9 SWAP2 SWAP1 PUSH2 0x2E39 JUMP JUMPDEST PUSH2 0xD45 JUMP JUMPDEST PUSH1 0x40 MLOAD PUSH2 0x4EB SWAP2 SWAP1 PUSH2 0x2AB3 JUMP JUMPDEST PUSH1 0x40 MLOAD DUP1 SWAP2 SUB SWAP1 RETURN JUMPDEST CALLVALUE DUP1 ISZERO PUSH2 0x4FF JUMPI PUSH0 PUSH0 REVERT JUMPDEST POP PUSH2 0x51A PUSH1 0x4 DUP1 CALLDATASIZE SUB DUP2 ADD SWAP1 PUSH2 0x515 SWAP2 SWAP1 PUSH2 0x2C88 JUMP JUMPDEST PUSH2 0xD98 JUMP JUMPDEST STOP JUMPDEST CALLVALUE DUP1 ISZERO PUSH2 0x527 JUMPI PUSH0 PUSH0 REVERT JUMPDEST POP PUSH2 0x530 PUSH2 0xDCD JUMP JUMPDEST PUSH1 0x40 MLOAD PUSH2 0x53D SWAP2 SWAP1 PUSH2 0x2E84 JUMP JUMPDEST PUSH1 0x40 MLOAD DUP1 SWAP2 SUB SWAP1 RETURN JUMPDEST CALLVALUE DUP1 ISZERO PUSH2 0x551 JUMPI PUSH0 PUSH0 REVERT JUMPDEST POP PUSH2 0x56C PUSH1 0x4 DUP1 CALLDATASIZE SUB DUP2 ADD SWAP1 PUSH2 0x567 SWAP2 SWAP1 PUSH2 0x2BA2 JUMP JUMPDEST PUSH2 0xDF2 JUMP JUMPDEST PUSH1 0x40 MLOAD PUSH2 0x579 SWAP2 SWAP1 PUSH2 0x2930 JUMP JUMPDEST PUSH1 0x40 MLOAD DUP1 SWAP2 SUB SWAP1 RETURN JUMPDEST CALLVALUE DUP1 ISZERO PUSH2 0x58D JUMPI PUSH0 PUSH0 REVERT JUMPDEST POP PUSH2 0x5A8 PUSH1 0x4 DUP1 CALLDATASIZE SUB DUP2 ADD SWAP1 PUSH2 0x5A3 SWAP2 SWAP1 PUSH2 0x2EC7 JUMP JUMPDEST PUSH2 0xE63 JUMP JUMPDEST STOP JUMPDEST CALLVALUE DUP1 ISZERO PUSH2 0x5B5 JUMPI PUSH0 PUSH0 REVERT JUMPDEST POP PUSH2 0x5BE PUSH2 0xEC8 JUMP JUMPDEST PUSH1 0x40 MLOAD PUSH2 0x5CB SWAP2 SWAP1 PUSH2 0x2A84 JUMP JUMPDEST PUSH1 0x40 MLOAD DUP1 SWAP2 SUB SWAP1 RETURN JUMPDEST PUSH2 0x5EE PUSH1 0x4 DUP1 CALLDATASIZE SUB DUP2 ADD SWAP1 PUSH2 0x5E9 SWAP2 SWAP1 PUSH2 0x2F42 JUMP JUMPDEST PUSH2 0xF66 JUMP JUMPDEST STOP JUMPDEST CALLVALUE DUP1 ISZERO PUSH2 0x5FB JUMPI PUSH0 PUSH0 REVERT JUMPDEST POP PUSH2 0x604 PUSH2 0x1172 JUMP JUMPDEST PUSH1 0x40 MLOAD PUSH2 0x611 SWAP2 SWAP1 PUSH2 0x2B89 JUMP JUMPDEST PUSH1 0x40 MLOAD DUP1 SWAP2 SUB SWAP1 RETURN JUMPDEST CALLVALUE DUP1 ISZERO PUSH2 0x625 JUMPI PUSH0 PUSH0 REVERT JUMPDEST POP PUSH2 0x640 PUSH1 0x4 DUP1 CALLDATASIZE SUB DUP2 ADD SWAP1 PUSH2 0x63B SWAP2 SWAP1 PUSH2 0x29D6 JUMP JUMPDEST PUSH2 0x1178 JUMP JUMPDEST PUSH1 0x40 MLOAD PUSH2 0x64D SWAP2 SWAP1 PUSH2 0x2930 JUMP JUMPDEST PUSH1 0x40 MLOAD DUP1 SWAP2 SUB SWAP1 RETURN JUMPDEST CALLVALUE DUP1 ISZERO PUSH2 0x661 JUMPI PUSH0 PUSH0 REVERT JUMPDEST POP PUSH2 0x66A PUSH2 0x12A7 JUMP JUMPDEST PUSH1 0x40 MLOAD PUSH2 0x677 SWAP2 SWAP1 PUSH2 0x2A84 JUMP JUMPDEST PUSH1 0x40 MLOAD DUP1 SWAP2 SUB SWAP1 RETURN JUMPDEST CALLVALUE DUP1 ISZERO PUSH2 0x68B JUMPI PUSH0 PUSH0 REVERT JUMPDEST POP PUSH2 0x6A6 PUSH1 0x4 DUP1 CALLDATASIZE SUB DUP2 ADD SWAP1 PUSH2 0x6A1 SWAP2 SWAP1 PUSH2 0x2E39 JUMP JUMPDEST PUSH2 0x12E0 JUMP JUMPDEST STOP JUMPDEST CALLVALUE DUP1 ISZERO PUSH2 0x6B3 JUMPI PUSH0 PUSH0 REVERT JUMPDEST POP PUSH2 0x6CE PUSH1 0x4 DUP1 CALLDATASIZE SUB DUP2 ADD SWAP1 PUSH2 0x6C9 SWAP2 SWAP1 PUSH2 0x2C88 JUMP JUMPDEST PUSH2 0x1350 JUMP JUMPDEST PUSH1 0x40 MLOAD PUSH2 0x6DB SWAP2 SWAP1 PUSH2 0x2AB3 JUMP JUMPDEST PUSH1 0x40 MLOAD DUP1 SWAP2 SUB SWAP1 RETURN JUMPDEST CALLVALUE DUP1 ISZERO PUSH2 0x6EF JUMPI PUSH0 PUSH0 REVERT JUMPDEST POP PUSH2 0x70A PUSH1 0x4 DUP1 CALLDATASIZE SUB DUP2 ADD SWAP1 PUSH2 0x705 SWAP2 SWAP1 PUSH2 0x2BA2 JUMP JUMPDEST PUSH2 0x1366 JUMP JUMPDEST STOP JUMPDEST CALLVALUE DUP1 ISZERO PUSH2 0x717 JUMPI PUSH0 PUSH0 REVERT JUMPDEST POP PUSH2 0x732 PUSH1 0x4 DUP1 CALLDATASIZE SUB DUP2 ADD SWAP1 PUSH2 0x72D SWAP2 SWAP1 PUSH2 0x2E39 JUMP JUMPDEST PUSH2 0x1388 JUMP JUMPDEST PUSH1 0x40 MLOAD PUSH2 0x73F SWAP2 SWAP1 PUSH2 0x2930 JUMP JUMPDEST PUSH1 0x40 MLOAD DUP1 SWAP2 SUB SWAP1 RETURN JUMPDEST CALLVALUE DUP1 ISZERO PUSH2 0x753 JUMPI PUSH0 PUSH0 REVERT JUMPDEST POP PUSH2 0x76E PUSH1 0x4 DUP1 CALLDATASIZE SUB DUP2 ADD SWAP1 PUSH2 0x769 SWAP2 SWAP1 PUSH2 0x2F92 JUMP JUMPDEST PUSH2 0x13A5 JUMP JUMPDEST PUSH1 0x40 MLOAD PUSH2 0x77B SWAP2 SWAP1 PUSH2 0x2AB3 JUMP JUMPDEST PUSH1 0x40 MLOAD DUP1 SWAP2 SUB SWAP1 RETURN JUMPDEST CALLVALUE DUP1 ISZERO PUSH2 0x78F JUMPI PUSH0 PUSH0 REVERT JUMPDEST POP PUSH2 0x7AA PUSH1 0x4 DUP1 CALLDATASIZE SUB DUP2 ADD SWAP1 PUSH2 0x7A5 SWAP2 SWAP1 PUSH2 0x306E JUMP JUMPDEST PUSH2 0x1435 JUMP JUMPDEST STOP JUMPDEST CALLVALUE DUP1 ISZERO PUSH2 0x7B7 JUMPI PUSH0 PUSH0 REVERT JUMPDEST POP PUSH2 0x7D2 PUSH1 0x4 DUP1 CALLDATASIZE SUB DUP2 ADD SWAP1 PUSH2 0x7CD SWAP2 SWAP1 PUSH2 0x29D6 JUMP JUMPDEST PUSH2 0x170A JUMP JUMPDEST STOP JUMPDEST CALLVALUE DUP1 ISZERO PUSH2 0x7DF JUMPI PUSH0 PUSH0 REVERT JUMPDEST POP PUSH2 0x7FA PUSH1 0x4 DUP1 CALLDATASIZE SUB DUP2 ADD SWAP1 PUSH2 0x7F5 SWAP2 SWAP1 PUSH2 0x2E39 JUMP JUMPDEST PUSH2 0x1743 JUMP JUMPDEST PUSH1 0x40 MLOAD PUSH2 0x807 SWAP2 SWAP1 PUSH2 0x2AB3 JUMP JUMPDEST PUSH1 0x40 MLOAD DUP1 SWAP2 SUB SWAP1 RETURN JUMPDEST CALLVALUE DUP1 ISZERO PUSH2 0x81B JUMPI PUSH0 PUSH0 REVERT JUMPDEST POP PUSH2 0x824 PUSH2 0x1758 JUMP JUMPDEST PUSH1 0x40 MLOAD PUSH2 0x831 SWAP2 SWAP1 PUSH2 0x2B89 JUMP JUMPDEST PUSH1 0x40 MLOAD DUP1 SWAP2 SUB SWAP1 RETURN JUMPDEST CALLVALUE DUP1 ISZERO PUSH2 0x845 JUMPI PUSH0 PUSH0 REVERT JUMPDEST POP PUSH2 0x84E PUSH2 0x177C JUMP JUMPDEST PUSH1 0x40 MLOAD PUSH2 0x85B SWAP2 SWAP1 PUSH2 0x2AB3 JUMP JUMPDEST PUSH1 0x40 MLOAD DUP1 SWAP2 SUB SWAP1 RETURN JUMPDEST CALLVALUE DUP1 ISZERO PUSH2 0x86F JUMPI PUSH0 PUSH0 REVERT JUMPDEST POP PUSH2 0x878 PUSH2 0x1782 JUMP JUMPDEST PUSH1 0x40 MLOAD PUSH2 0x885 SWAP2 SWAP1 PUSH2 0x2B89 JUMP JUMPDEST PUSH1 0x40 MLOAD DUP1 SWAP2 SUB SWAP1 RETURN JUMPDEST PUSH0 PUSH32 0x7965DB0B00000000000000000000000000000000000000000000000000000000 PUSH28 0xFFFFFFFFFFFFFFFFFFFFFFFFFFFFFFFFFFFFFFFFFFFFFFFFFFFFFFFF NOT AND DUP3 PUSH28 0xFFFFFFFFFFFFFFFFFFFFFFFFFFFFFFFFFFFFFFFFFFFFFFFFFFFFFFFF NOT AND EQ DUP1 PUSH2 0x900 JUMPI POP PUSH2 0x8FF DUP3 PUSH2 0x17A6 JUMP JUMPDEST JUMPDEST SWAP1 POP SWAP2 SWAP1 POP JUMP JUMPDEST PUSH32 0x77D72916E966418E6DC58A19999AE9934BEF3F749F1547CDE0A86E809F19C89B PUSH2 0x931 DUP2 PUSH2 0x180F JUMP JUMPDEST DUP2 PUSH1 0x3 PUSH0 DUP6 PUSH20 0xFFFFFFFFFFFFFFFFFFFFFFFFFFFFFFFFFFFFFFFF AND PUSH20 0xFFFFFFFFFFFFFFFFFFFFFFFFFFFFFFFFFFFFFFFF AND DUP2 MSTORE PUSH1 0x20 ADD SWAP1 DUP2 MSTORE PUSH1 0x20 ADD PUSH0 KECCAK256 PUSH0 DUP3 DUP3 SLOAD PUSH2 0x97D SWAP2 SWAP1 PUSH2 0x3170 JUMP JUMPDEST SWAP3 POP POP DUP2 SWAP1 SSTORE POP POP POP POP JUMP JUMPDEST PUSH1 0x60 PUSH0 PUSH2 0x994 PUSH2 0x1823 JUMP JUMPDEST SWAP1 POP DUP1 PUSH1 0x3 ADD DUP1 SLOAD PUSH2 0x9A5 SWAP1 PUSH2 0x31D0 JUMP JUMPDEST DUP1 PUSH1 0x1F ADD PUSH1 0x20 DUP1 SWAP2 DIV MUL PUSH1 0x20 ADD PUSH1 0x40 MLOAD SWAP1 DUP2 ADD PUSH1 0x40 MSTORE DUP1 SWAP3 SWAP2 SWAP1 DUP2 DUP2 MSTORE PUSH1 0x20 ADD DUP3 DUP1 SLOAD PUSH2 0x9D1 SWAP1 PUSH2 0x31D0 JUMP JUMPDEST DUP1 ISZERO PUSH2 0xA1C JUMPI DUP1 PUSH1 0x1F LT PUSH2 0x9F3 JUMPI PUSH2 0x100 DUP1 DUP4 SLOAD DIV MUL DUP4 MSTORE SWAP2 PUSH1 0x20 ADD SWAP2 PUSH2 0xA1C JUMP JUMPDEST DUP3 ADD SWAP2 SWAP1 PUSH0 MSTORE PUSH1 0x20 PUSH0 KECCAK256 SWAP1 JUMPDEST DUP2 SLOAD DUP2 MSTORE SWAP1 PUSH1 0x1 ADD SWAP1 PUSH1 0x20 ADD DUP1 DUP4 GT PUSH2 0x9FF JUMPI DUP3 SWAP1 SUB PUSH1 0x1F AND DUP3 ADD SWAP2 JUMPDEST POP POP POP POP POP SWAP2 POP POP SWAP1 JUMP JUMPDEST PUSH0 PUSH0 PUSH2 0xA31 PUSH2 0x184A JUMP JUMPDEST SWAP1 POP PUSH2 0xA3E DUP2 DUP6 DUP6 PUSH2 0x1851 JUMP JUMPDEST PUSH1 0x1 SWAP2 POP POP SWAP3 SWAP2 POP POP JUMP JUMPDEST PUSH0 PUSH0 PUSH2 0xA53 PUSH2 0x1823 JUMP JUMPDEST SWAP1 POP DUP1 PUSH1 0x2 ADD SLOAD SWAP2 POP POP SWAP1 JUMP JUMPDEST PUSH0 PUSH1 0x4 PUSH0 DUP5 PUSH20 0xFFFFFFFFFFFFFFFFFFFFFFFFFFFFFFFFFFFFFFFF AND PUSH20 0xFFFFFFFFFFFFFFFFFFFFFFFFFFFFFFFFFFFFFFFF AND DUP2 MSTORE PUSH1 0x20 ADD SWAP1 DUP2 MSTORE PUSH1 0x20 ADD PUSH0 KECCAK256 PUSH0 SWAP1 SLOAD SWAP1 PUSH2 0x100 EXP SWAP1 DIV PUSH1 0xFF AND PUSH2 0xAEA JUMPI PUSH1 0x40 MLOAD PUSH32 0x8C379A000000000000000000000000000000000000000000000000000000000 DUP2 MSTORE PUSH1 0x4 ADD PUSH2 0xAE1 SWAP1 PUSH2 0x324A JUMP JUMPDEST PUSH1 0x40 MLOAD DUP1 SWAP2 SUB SWAP1 REVERT JUMPDEST DUP2 PUSH1 0x3 PUSH0 DUP7 PUSH20 0xFFFFFFFFFFFFFFFFFFFFFFFFFFFFFFFFFFFFFFFF AND PUSH20 0xFFFFFFFFFFFFFFFFFFFFFFFFFFFFFFFFFFFFFFFF AND DUP2 MSTORE PUSH1 0x20 ADD SWAP1 DUP2 MSTORE PUSH1 0x20 ADD PUSH0 KECCAK256 SLOAD PUSH2 0xB32 DUP7 PUSH2 0xD45 JUMP JUMPDEST PUSH2 0xB3C SWAP2 SWAP1 PUSH2 0x3268 JUMP JUMPDEST LT ISZERO PUSH2 0xB7D JUMPI PUSH1 0x40 MLOAD PUSH32 0x8C379A000000000000000000000000000000000000000000000000000000000 DUP2 MSTORE PUSH1 0x4 ADD PUSH2 0xB74 SWAP1 PUSH2 0x32E5 JUMP JUMPDEST PUSH1 0x40 MLOAD DUP1 SWAP2 SUB SWAP1 REVERT JUMPDEST PUSH2 0xB88 DUP5 DUP5 DUP5 PUSH2 0x1863 JUMP JUMPDEST SWAP1 POP SWAP4 SWAP3 POP POP POP JUMP JUMPDEST PUSH0 PUSH0 PUSH2 0xB9B PUSH2 0x1891 JUMP JUMPDEST SWAP1 POP DUP1 PUSH0 ADD PUSH0 DUP5 DUP2 MSTORE PUSH1 0x20 ADD SWAP1 DUP2 MSTORE PUSH1 0x20 ADD PUSH0 KECCAK256 PUSH1 0x1 ADD SLOAD SWAP2 POP POP SWAP2 SWAP1 POP JUMP JUMPDEST PUSH2 0xBC4 DUP3 PUSH2 0xB91 JUMP JUMPDEST PUSH2 0xBCD DUP2 PUSH2 0x180F JUMP JUMPDEST PUSH2 0xBD7 DUP4 DUP4 PUSH2 0x18B8 JUMP JUMPDEST POP POP POP POP JUMP JUMPDEST PUSH0 PUSH1 0x12 SWAP1 POP SWAP1 JUMP JUMPDEST PUSH2 0xBED PUSH2 0x184A JUMP JUMPDEST PUSH20 0xFFFFFFFFFFFFFFFFFFFFFFFFFFFFFFFFFFFFFFFF AND DUP2 PUSH20 0xFFFFFFFFFFFFFFFFFFFFFFFFFFFFFFFFFFFFFFFF AND EQ PUSH2 0xC51 JUMPI PUSH1 0x40 MLOAD PUSH32 0x6697B23200000000000000000000000000000000000000000000000000000000 DUP2 MSTORE PUSH1 0x4 ADD PUSH1 0x40 MLOAD DUP1 SWAP2 SUB SWAP1 REVERT JUMPDEST PUSH2 0xC5B DUP3 DUP3 PUSH2 0x19B0 JUMP JUMPDEST POP POP POP JUMP JUMPDEST PUSH0 PUSH0 SWAP1 SLOAD SWAP1 PUSH2 0x100 EXP SWAP1 DIV PUSH20 0xFFFFFFFFFFFFFFFFFFFFFFFFFFFFFFFFFFFFFFFF AND DUP2 JUMP JUMPDEST PUSH32 0x77D72916E966418E6DC58A19999AE9934BEF3F749F1547CDE0A86E809F19C89B PUSH2 0xCAE DUP2 PUSH2 0x180F JUMP JUMPDEST PUSH2 0xCB8 DUP4 DUP4 PUSH2 0x1AA8 JUMP JUMPDEST POP POP POP JUMP JUMPDEST PUSH32 0x77D72916E966418E6DC58A19999AE9934BEF3F749F1547CDE0A86E809F19C89B PUSH2 0xCE7 DUP2 PUSH2 0x180F JUMP JUMPDEST PUSH2 0xCF1 CALLER DUP4 PUSH2 0x1B27 JUMP JUMPDEST POP POP JUMP JUMPDEST PUSH2 0xCFD PUSH2 0x1BA6 JUMP JUMPDEST PUSH2 0xD06 DUP3 PUSH2 0x1C8C JUMP JUMPDEST PUSH2 0xD10 DUP3 DUP3 PUSH2 0x1CBA JUMP JUMPDEST POP POP JUMP JUMPDEST PUSH0 PUSH2 0xD1D PUSH2 0x1DD8 JUMP JUMPDEST PUSH32 0x360894A13BA1A3210667C828492DB98DCA3E2076CC3735A920A3CA505D382BBC PUSH0 SHL SWAP1 POP SWAP1 JUMP JUMPDEST PUSH0 PUSH0 PUSH2 0xD4F PUSH2 0x1823 JUMP JUMPDEST SWAP1 POP DUP1 PUSH0 ADD PUSH0 DUP5 PUSH20 0xFFFFFFFFFFFFFFFFFFFFFFFFFFFFFFFFFFFFFFFF AND PUSH20 0xFFFFFFFFFFFFFFFFFFFFFFFFFFFFFFFFFFFFFFFF AND DUP2 MSTORE PUSH1 0x20 ADD SWAP1 DUP2 MSTORE PUSH1 0x20 ADD PUSH0 KECCAK256 SLOAD SWAP2 POP POP SWAP2 SWAP1 POP JUMP JUMPDEST PUSH32 0x77D72916E966418E6DC58A19999AE9934BEF3F749F1547CDE0A86E809F19C89B PUSH2 0xDC2 DUP2 PUSH2 0x180F JUMP JUMPDEST DUP2 PUSH1 0x2 DUP2 SWAP1 SSTORE POP POP POP JUMP JUMPDEST PUSH1 0x1 PUSH0 SWAP1 SLOAD SWAP1 PUSH2 0x100 EXP SWAP1 DIV PUSH20 0xFFFFFFFFFFFFFFFFFFFFFFFFFFFFFFFFFFFFFFFF AND DUP2 JUMP JUMPDEST PUSH0 PUSH0 PUSH2 0xDFC PUSH2 0x1891 JUMP JUMPDEST SWAP1 POP DUP1 PUSH0 ADD PUSH0 DUP6 DUP2 MSTORE PUSH1 0x20 ADD SWAP1 DUP2 MSTORE PUSH1 0x20 ADD PUSH0 KECCAK256 PUSH0 ADD PUSH0 DUP5 PUSH20 0xFFFFFFFFFFFFFFFFFFFFFFFFFFFFFFFFFFFFFFFF AND PUSH20 0xFFFFFFFFFFFFFFFFFFFFFFFFFFFFFFFFFFFFFFFF AND DUP2 MSTORE PUSH1 0x20 ADD SWAP1 DUP2 MSTORE PUSH1 0x20 ADD PUSH0 KECCAK256 PUSH0 SWAP1 SLOAD SWAP1 PUSH2 0x100 EXP SWAP1 DIV PUSH1 0xFF AND SWAP2 POP POP SWAP3 SWAP2 POP POP JUMP JUMPDEST PUSH0 PUSH0 SHL PUSH2 0xE6F DUP2 PUSH2 0x180F JUMP JUMPDEST DUP2 PUSH1 0x4 PUSH0 DUP6 PUSH20 0xFFFFFFFFFFFFFFFFFFFFFFFFFFFFFFFFFFFFFFFF AND PUSH20 0xFFFFFFFFFFFFFFFFFFFFFFFFFFFFFFFFFFFFFFFF AND DUP2 MSTORE PUSH1 0x20 ADD SWAP1 DUP2 MSTORE PUSH1 0x20 ADD PUSH0 KECCAK256 PUSH0 PUSH2 0x100 EXP DUP2 SLOAD DUP2 PUSH1 0xFF MUL NOT AND SWAP1 DUP4 ISZERO ISZERO MUL OR SWAP1 SSTORE POP POP POP POP JUMP JUMPDEST PUSH1 0x60 PUSH0 PUSH2 0xED3 PUSH2 0x1823 JUMP JUMPDEST SWAP1 POP DUP1 PUSH1 0x4 ADD DUP1 SLOAD PUSH2 0xEE4 SWAP1 PUSH2 0x31D0 JUMP JUMPDEST DUP1 PUSH1 0x1F ADD PUSH1 0x20 DUP1 SWAP2 DIV MUL PUSH1 0x20 ADD PUSH1 0x40 MLOAD SWAP1 DUP2 ADD PUSH1 0x40 MSTORE DUP1 SWAP3 SWAP2 SWAP1 DUP2 DUP2 MSTORE PUSH1 0x20 ADD DUP3 DUP1 SLOAD PUSH2 0xF10 SWAP1 PUSH2 0x31D0 JUMP JUMPDEST DUP1 ISZERO PUSH2 0xF5B JUMPI DUP1 PUSH1 0x1F LT PUSH2 0xF32 JUMPI PUSH2 0x100 DUP1 DUP4 SLOAD DIV MUL DUP4 MSTORE SWAP2 PUSH1 0x20 ADD SWAP2 PUSH2 0xF5B JUMP JUMPDEST DUP3 ADD SWAP2 SWAP1 PUSH0 MSTORE PUSH1 0x20 PUSH0 KECCAK256 SWAP1 JUMPDEST DUP2 SLOAD DUP2 MSTORE SWAP1 PUSH1 0x1 ADD SWAP1 PUSH1 0x20 ADD DUP1 DUP4 GT PUSH2 0xF3E JUMPI DUP3 SWAP1 SUB PUSH1 0x1F AND DUP3 ADD SWAP2 JUMPDEST POP POP POP POP POP SWAP2 POP POP SWAP1 JUMP JUMPDEST PUSH1 0x4 PUSH0 DUP4 PUSH20 0xFFFFFFFFFFFFFFFFFFFFFFFFFFFFFFFFFFFFFFFF AND PUSH20 0xFFFFFFFFFFFFFFFFFFFFFFFFFFFFFFFFFFFFFFFF AND DUP2 MSTORE PUSH1 0x20 ADD SWAP1 DUP2 MSTORE PUSH1 0x20 ADD PUSH0 KECCAK256 PUSH0 SWAP1 SLOAD SWAP1 PUSH2 0x100 EXP SWAP1 DIV PUSH1 0xFF AND PUSH2 0xFEF JUMPI PUSH1 0x40 MLOAD PUSH32 0x8C379A000000000000000000000000000000000000000000000000000000000 DUP2 MSTORE PUSH1 0x4 ADD PUSH2 0xFE6 SWAP1 PUSH2 0x3373 JUMP JUMPDEST PUSH1 0x40 MLOAD DUP1 SWAP2 SUB SWAP1 REVERT JUMPDEST DUP1 PUSH1 0x3 PUSH0 CALLER PUSH20 0xFFFFFFFFFFFFFFFFFFFFFFFFFFFFFFFFFFFFFFFF AND PUSH20 0xFFFFFFFFFFFFFFFFFFFFFFFFFFFFFFFFFFFFFFFF AND DUP2 MSTORE PUSH1 0x20 ADD SWAP1 DUP2 MSTORE PUSH1 0x20 ADD PUSH0 KECCAK256 SLOAD PUSH2 0x1037 CALLER PUSH2 0xD45 JUMP JUMPDEST PUSH2 0x1041 SWAP2 SWAP1 PUSH2 0x3268 JUMP JUMPDEST LT ISZERO PUSH2 0x1082 JUMPI PUSH1 0x40 MLOAD PUSH32 0x8C379A000000000000000000000000000000000000000000000000000000000 DUP2 MSTORE PUSH1 0x4 ADD PUSH2 0x1079 SWAP1 PUSH2 0x32E5 JUMP JUMPDEST PUSH1 0x40 MLOAD DUP1 SWAP2 SUB SWAP1 REVERT JUMPDEST PUSH2 0x108D CALLER ADDRESS DUP4 PUSH2 0x1E5F JUMP JUMPDEST DUP1 PUSH1 0x3 PUSH0 ADDRESS PUSH20 0xFFFFFFFFFFFFFFFFFFFFFFFFFFFFFFFFFFFFFFFF AND PUSH20 0xFFFFFFFFFFFFFFFFFFFFFFFFFFFFFFFFFFFFFFFF AND DUP2 MSTORE PUSH1 0x20 ADD SWAP1 DUP2 MSTORE PUSH1 0x20 ADD PUSH0 KECCAK256 PUSH0 DUP3 DUP3 SLOAD PUSH2 0x10D9 SWAP2 SWAP1 PUSH2 0x3170 JUMP JUMPDEST SWAP3 POP POP DUP2 SWAP1 SSTORE POP PUSH1 0x1 PUSH0 SWAP1 SLOAD SWAP1 PUSH2 0x100 EXP SWAP1 DIV PUSH20 0xFFFFFFFFFFFFFFFFFFFFFFFFFFFFFFFFFFFFFFFF AND PUSH20 0xFFFFFFFFFFFFFFFFFFFFFFFFFFFFFFFFFFFFFFFF AND PUSH4 0x1EE5B22 CALLVALUE DUP6 DUP6 DUP6 PUSH1 0x40 MLOAD DUP6 PUSH4 0xFFFFFFFF AND PUSH1 0xE0 SHL DUP2 MSTORE PUSH1 0x4 ADD PUSH2 0x113F SWAP4 SWAP3 SWAP2 SWAP1 PUSH2 0x33AF JUMP JUMPDEST PUSH0 PUSH1 0x40 MLOAD DUP1 DUP4 SUB DUP2 DUP6 DUP9 DUP1 EXTCODESIZE ISZERO DUP1 ISZERO PUSH2 0x1156 JUMPI PUSH0 PUSH0 REVERT JUMPDEST POP GAS CALL ISZERO DUP1 ISZERO PUSH2 0x1168 JUMPI RETURNDATASIZE PUSH0 PUSH0 RETURNDATACOPY RETURNDATASIZE PUSH0 REVERT JUMPDEST POP POP POP POP POP POP POP POP JUMP JUMPDEST PUSH0 PUSH0 SHL DUP2 JUMP JUMPDEST PUSH0 PUSH1 0x4 PUSH0 DUP5 PUSH20 0xFFFFFFFFFFFFFFFFFFFFFFFFFFFFFFFFFFFFFFFF AND PUSH20 0xFFFFFFFFFFFFFFFFFFFFFFFFFFFFFFFFFFFFFFFF AND DUP2 MSTORE PUSH1 0x20 ADD SWAP1 DUP2 MSTORE PUSH1 0x20 ADD PUSH0 KECCAK256 PUSH0 SWAP1 SLOAD SWAP1 PUSH2 0x100 EXP SWAP1 DIV PUSH1 0xFF AND PUSH2 0x1202 JUMPI PUSH1 0x40 MLOAD PUSH32 0x8C379A000000000000000000000000000000000000000000000000000000000 DUP2 MSTORE PUSH1 0x4 ADD PUSH2 0x11F9 SWAP1 PUSH2 0x324A JUMP JUMPDEST PUSH1 0x40 MLOAD DUP1 SWAP2 SUB SWAP1 REVERT JUMPDEST DUP2 PUSH1 0x3 PUSH0 CALLER PUSH20 0xFFFFFFFFFFFFFFFFFFFFFFFFFFFFFFFFFFFFFFFF AND PUSH20 0xFFFFFFFFFFFFFFFFFFFFFFFFFFFFFFFFFFFFFFFF AND DUP2 MSTORE PUSH1 0x20 ADD SWAP1 DUP2 MSTORE PUSH1 0x20 ADD PUSH0 KECCAK256 SLOAD PUSH2 0x124A CALLER PUSH2 0xD45 JUMP JUMPDEST PUSH2 0x1254 SWAP2 SWAP1 PUSH2 0x3268 JUMP JUMPDEST LT ISZERO PUSH2 0x1295 JUMPI PUSH1 0x40 MLOAD PUSH32 0x8C379A000000000000000000000000000000000000000000000000000000000 DUP2 MSTORE PUSH1 0x4 ADD PUSH2 0x128C SWAP1 PUSH2 0x32E5 JUMP JUMPDEST PUSH1 0x40 MLOAD DUP1 SWAP2 SUB SWAP1 REVERT JUMPDEST PUSH2 0x129F DUP4 DUP4 PUSH2 0x1F4F JUMP JUMPDEST SWAP1 POP SWAP3 SWAP2 POP POP JUMP JUMPDEST PUSH1 0x40 MLOAD DUP1 PUSH1 0x40 ADD PUSH1 0x40 MSTORE DUP1 PUSH1 0x5 DUP2 MSTORE PUSH1 0x20 ADD PUSH32 0x352E302E30000000000000000000000000000000000000000000000000000000 DUP2 MSTORE POP DUP2 JUMP JUMPDEST PUSH32 0x77D72916E966418E6DC58A19999AE9934BEF3F749F1547CDE0A86E809F19C89B PUSH2 0x130A DUP2 PUSH2 0x180F JUMP JUMPDEST PUSH0 PUSH1 0x3 PUSH0 DUP5 PUSH20 0xFFFFFFFFFFFFFFFFFFFFFFFFFFFFFFFFFFFFFFFF AND PUSH20 0xFFFFFFFFFFFFFFFFFFFFFFFFFFFFFFFFFFFFFFFF AND DUP2 MSTORE PUSH1 0x20 ADD SWAP1 DUP2 MSTORE PUSH1 0x20 ADD PUSH0 KECCAK256 DUP2 SWAP1 SSTORE POP POP POP JUMP JUMPDEST PUSH0 PUSH1 0x2 SLOAD DUP3 PUSH2 0x135F SWAP2 SWAP1 PUSH2 0x33E4 JUMP JUMPDEST SWAP1 POP SWAP2 SWAP1 POP JUMP JUMPDEST PUSH2 0x136F DUP3 PUSH2 0xB91 JUMP JUMPDEST PUSH2 0x1378 DUP2 PUSH2 0x180F JUMP JUMPDEST PUSH2 0x1382 DUP4 DUP4 PUSH2 0x19B0 JUMP JUMPDEST POP POP POP POP JUMP JUMPDEST PUSH1 0x4 PUSH1 0x20 MSTORE DUP1 PUSH0 MSTORE PUSH1 0x40 PUSH0 KECCAK256 PUSH0 SWAP2 POP SLOAD SWAP1 PUSH2 0x100 EXP SWAP1 DIV PUSH1 0xFF AND DUP2 JUMP JUMPDEST PUSH0 PUSH0 PUSH2 0x13AF PUSH2 0x1823 JUMP JUMPDEST SWAP1 POP DUP1 PUSH1 0x1 ADD PUSH0 DUP6 PUSH20 0xFFFFFFFFFFFFFFFFFFFFFFFFFFFFFFFFFFFFFFFF AND PUSH20 0xFFFFFFFFFFFFFFFFFFFFFFFFFFFFFFFFFFFFFFFF AND DUP2 MSTORE PUSH1 0x20 ADD SWAP1 DUP2 MSTORE PUSH1 0x20 ADD PUSH0 KECCAK256 PUSH0 DUP5 PUSH20 0xFFFFFFFFFFFFFFFFFFFFFFFFFFFFFFFFFFFFFFFF AND PUSH20 0xFFFFFFFFFFFFFFFFFFFFFFFFFFFFFFFFFFFFFFFF AND DUP2 MSTORE PUSH1 0x20 ADD SWAP1 DUP2 MSTORE PUSH1 0x20 ADD PUSH0 KECCAK256 SLOAD SWAP2 POP POP SWAP3 SWAP2 POP POP JUMP JUMPDEST PUSH0 PUSH2 0x143E PUSH2 0x1F71 JUMP JUMPDEST SWAP1 POP PUSH0 DUP2 PUSH0 ADD PUSH1 0x8 SWAP1 SLOAD SWAP1 PUSH2 0x100 EXP SWAP1 DIV PUSH1 0xFF AND ISZERO SWAP1 POP PUSH0 DUP3 PUSH0 ADD PUSH0 SWAP1 SLOAD SWAP1 PUSH2 0x100 EXP SWAP1 DIV PUSH8 0xFFFFFFFFFFFFFFFF AND SWAP1 POP PUSH0 PUSH0 DUP3 PUSH8 0xFFFFFFFFFFFFFFFF AND EQ DUP1 ISZERO PUSH2 0x1486 JUMPI POP DUP3 JUMPDEST SWAP1 POP PUSH0 PUSH1 0x1 DUP4 PUSH8 0xFFFFFFFFFFFFFFFF AND EQ DUP1 ISZERO PUSH2 0x14B9 JUMPI POP PUSH0 ADDRESS PUSH20 0xFFFFFFFFFFFFFFFFFFFFFFFFFFFFFFFFFFFFFFFF AND EXTCODESIZE EQ JUMPDEST SWAP1 POP DUP2 ISZERO DUP1 ISZERO PUSH2 0x14C7 JUMPI POP DUP1 ISZERO JUMPDEST ISZERO PUSH2 0x14FE JUMPI PUSH1 0x40 MLOAD PUSH32 0xF92EE8A900000000000000000000000000000000000000000000000000000000 DUP2 MSTORE PUSH1 0x4 ADD PUSH1 0x40 MLOAD DUP1 SWAP2 SUB SWAP1 REVERT JUMPDEST PUSH1 0x1 DUP6 PUSH0 ADD PUSH0 PUSH2 0x100 EXP DUP2 SLOAD DUP2 PUSH8 0xFFFFFFFFFFFFFFFF MUL NOT AND SWAP1 DUP4 PUSH8 0xFFFFFFFFFFFFFFFF AND MUL OR SWAP1 SSTORE POP DUP4 ISZERO PUSH2 0x154B JUMPI PUSH1 0x1 DUP6 PUSH0 ADD PUSH1 0x8 PUSH2 0x100 EXP DUP2 SLOAD DUP2 PUSH1 0xFF MUL NOT AND SWAP1 DUP4 ISZERO ISZERO MUL OR SWAP1 SSTORE POP JUMPDEST PUSH0 DUP11 GT PUSH2 0x158D JUMPI PUSH1 0x40 MLOAD PUSH32 0x8C379A000000000000000000000000000000000000000000000000000000000 DUP2 MSTORE PUSH1 0x4 ADD PUSH2 0x1584 SWAP1 PUSH2 0x3495 JUMP JUMPDEST PUSH1 0x40 MLOAD DUP1 SWAP2 SUB SWAP1 REVERT JUMPDEST PUSH2 0x1597 DUP13 DUP13 PUSH2 0x1F84 JUMP JUMPDEST PUSH2 0x159F PUSH2 0x1F9A JUMP JUMPDEST PUSH2 0x15A7 PUSH2 0x1FA4 JUMP JUMPDEST DUP8 PUSH0 PUSH0 PUSH2 0x100 EXP DUP2 SLOAD DUP2 PUSH20 0xFFFFFFFFFFFFFFFFFFFFFFFFFFFFFFFFFFFFFFFF MUL NOT AND SWAP1 DUP4 PUSH20 0xFFFFFFFFFFFFFFFFFFFFFFFFFFFFFFFFFFFFFFFF AND MUL OR SWAP1 SSTORE POP DUP7 PUSH1 0x1 PUSH0 PUSH2 0x100 EXP DUP2 SLOAD DUP2 PUSH20 0xFFFFFFFFFFFFFFFFFFFFFFFFFFFFFFFFFFFFFFFF MUL NOT AND SWAP1 DUP4 PUSH20 0xFFFFFFFFFFFFFFFFFFFFFFFFFFFFFFFFFFFFFFFF AND MUL OR SWAP1 SSTORE POP PUSH8 0xDE0B6B3A7640000 PUSH1 0x2 DUP2 SWAP1 SSTORE POP PUSH2 0x1641 PUSH0 PUSH0 SHL DUP11 PUSH2 0x18B8 JUMP JUMPDEST POP PUSH2 0x166C PUSH32 0x77D72916E966418E6DC58A19999AE9934BEF3F749F1547CDE0A86E809F19C89B DUP8 PUSH2 0x18B8 JUMP JUMPDEST POP PUSH2 0x1697 PUSH32 0x189AB7A9244DF0848122154315AF71FE140F3DB0FE014031783B0946B8C9D2E3 DUP11 PUSH2 0x18B8 JUMP JUMPDEST POP PUSH2 0x16A2 DUP7 DUP12 PUSH2 0x1AA8 JUMP JUMPDEST DUP4 ISZERO PUSH2 0x16FC JUMPI PUSH0 DUP6 PUSH0 ADD PUSH1 0x8 PUSH2 0x100 EXP DUP2 SLOAD DUP2 PUSH1 0xFF MUL NOT AND SWAP1 DUP4 ISZERO ISZERO MUL OR SWAP1 SSTORE POP PUSH32 0xC7F505B2F371AE2175EE4913F4499E1F2633A7B5936321EED1CDAEB6115181D2 PUSH1 0x1 PUSH1 0x40 MLOAD PUSH2 0x16F3 SWAP2 SWAP1 PUSH2 0x34EC JUMP JUMPDEST PUSH1 0x40 MLOAD DUP1 SWAP2 SUB SWAP1 LOG1 JUMPDEST POP POP POP POP POP POP POP POP POP POP POP POP JUMP JUMPDEST PUSH32 0x77D72916E966418E6DC58A19999AE9934BEF3F749F1547CDE0A86E809F19C89B PUSH2 0x1734 DUP2 PUSH2 0x180F JUMP JUMPDEST PUSH2 0x173E DUP4 DUP4 PUSH2 0x1B27 JUMP JUMPDEST POP POP POP JUMP JUMPDEST PUSH1 0x3 PUSH1 0x20 MSTORE DUP1 PUSH0 MSTORE PUSH1 0x40 PUSH0 KECCAK256 PUSH0 SWAP2 POP SWAP1 POP SLOAD DUP2 JUMP JUMPDEST PUSH32 0x77D72916E966418E6DC58A19999AE9934BEF3F749F1547CDE0A86E809F19C89B DUP2 JUMP JUMPDEST PUSH1 0x2 SLOAD DUP2 JUMP JUMPDEST PUSH32 0x189AB7A9244DF0848122154315AF71FE140F3DB0FE014031783B0946B8C9D2E3 DUP2 JUMP JUMPDEST PUSH0 PUSH32 0x1FFC9A700000000000000000000000000000000000000000000000000000000 PUSH28 0xFFFFFFFFFFFFFFFFFFFFFFFFFFFFFFFFFFFFFFFFFFFFFFFFFFFFFFFF NOT AND DUP3 PUSH28 0xFFFFFFFFFFFFFFFFFFFFFFFFFFFFFFFFFFFFFFFFFFFFFFFFFFFFFFFF NOT AND EQ SWAP1 POP SWAP2 SWAP1 POP JUMP JUMPDEST PUSH2 0x1820 DUP2 PUSH2 0x181B PUSH2 0x184A JUMP JUMPDEST PUSH2 0x1FAE JUMP JUMPDEST POP JUMP JUMPDEST PUSH0 PUSH32 0x52C63247E1F47DB19D5CE0460030C497F067CA4CEBF71BA98EEADABE20BACE00 SWAP1 POP SWAP1 JUMP JUMPDEST PUSH0 CALLER SWAP1 POP SWAP1 JUMP JUMPDEST PUSH2 0x185E DUP4 DUP4 DUP4 PUSH1 0x1 PUSH2 0x1FFF JUMP JUMPDEST POP POP POP JUMP JUMPDEST PUSH0 PUSH0 PUSH2 0x186D PUSH2 0x184A JUMP JUMPDEST SWAP1 POP PUSH2 0x187A DUP6 DUP3 DUP6 PUSH2 0x21DC JUMP JUMPDEST PUSH2 0x1885 DUP6 DUP6 DUP6 PUSH2 0x1E5F JUMP JUMPDEST PUSH1 0x1 SWAP2 POP POP SWAP4 SWAP3 POP POP POP JUMP JUMPDEST PUSH0 PUSH32 0x2DD7BC7DEC4DCEEDDA775E58DD541E08A116C6C53815C0BD028192F7B626800 SWAP1 POP SWAP1 JUMP JUMPDEST PUSH0 PUSH0 PUSH2 0x18C2 PUSH2 0x1891 JUMP JUMPDEST SWAP1 POP PUSH2 0x18CE DUP5 DUP5 PUSH2 0xDF2 JUMP JUMPDEST PUSH2 0x19A5 JUMPI PUSH1 0x1 DUP2 PUSH0 ADD PUSH0 DUP7 DUP2 MSTORE PUSH1 0x20 ADD SWAP1 DUP2 MSTORE PUSH1 0x20 ADD PUSH0 KECCAK256 PUSH0 ADD PUSH0 DUP6 PUSH20 0xFFFFFFFFFFFFFFFFFFFFFFFFFFFFFFFFFFFFFFFF AND PUSH20 0xFFFFFFFFFFFFFFFFFFFFFFFFFFFFFFFFFFFFFFFF AND DUP2 MSTORE PUSH1 0x20 ADD SWAP1 DUP2 MSTORE PUSH1 0x20 ADD PUSH0 KECCAK256 PUSH0 PUSH2 0x100 EXP DUP2 SLOAD DUP2 PUSH1 0xFF MUL NOT AND SWAP1 DUP4 ISZERO ISZERO MUL OR SWAP1 SSTORE POP PUSH2 0x1941 PUSH2 0x184A JUMP JUMPDEST PUSH20 0xFFFFFFFFFFFFFFFFFFFFFFFFFFFFFFFFFFFFFFFF AND DUP4 PUSH20 0xFFFFFFFFFFFFFFFFFFFFFFFFFFFFFFFFFFFFFFFF AND DUP6 PUSH32 0x2F8788117E7EFF1D82E926EC794901D17C78024A50270940304540A733656F0D PUSH1 0x40 MLOAD PUSH1 0x40 MLOAD DUP1 SWAP2 SUB SWAP1 LOG4 PUSH1 0x1 SWAP2 POP POP PUSH2 0x19AA JUMP JUMPDEST PUSH0 SWAP2 POP POP JUMPDEST SWAP3 SWAP2 POP POP JUMP JUMPDEST PUSH0 PUSH0 PUSH2 0x19BA PUSH2 0x1891 JUMP JUMPDEST SWAP1 POP PUSH2 0x19C6 DUP5 DUP5 PUSH2 0xDF2 JUMP JUMPDEST ISZERO PUSH2 0x1A9D JUMPI PUSH0 DUP2 PUSH0 ADD PUSH0 DUP7 DUP2 MSTORE PUSH1 0x20 ADD SWAP1 DUP2 MSTORE PUSH1 0x20 ADD PUSH0 KECCAK256 PUSH0 ADD PUSH0 DUP6 PUSH20 0xFFFFFFFFFFFFFFFFFFFFFFFFFFFFFFFFFFFFFFFF AND PUSH20 0xFFFFFFFFFFFFFFFFFFFFFFFFFFFFFFFFFFFFFFFF AND DUP2 MSTORE PUSH1 0x20 ADD SWAP1 DUP2 MSTORE PUSH1 0x20 ADD PUSH0 KECCAK256 PUSH0 PUSH2 0x100 EXP DUP2 SLOAD DUP2 PUSH1 0xFF MUL NOT AND SWAP1 DUP4 ISZERO ISZERO MUL OR SWAP1 SSTORE POP PUSH2 0x1A39 PUSH2 0x184A JUMP JUMPDEST PUSH20 0xFFFFFFFFFFFFFFFFFFFFFFFFFFFFFFFFFFFFFFFF AND DUP4 PUSH20 0xFFFFFFFFFFFFFFFFFFFFFFFFFFFFFFFFFFFFFFFF AND DUP6 PUSH32 0xF6391F5C32D9C69D2A47EA670B442974B53935D1EDC7FD64EB21E047A839171B PUSH1 0x40 MLOAD PUSH1 0x40 MLOAD DUP1 SWAP2 SUB SWAP1 LOG4 PUSH1 0x1 SWAP2 POP POP PUSH2 0x1AA2 JUMP JUMPDEST PUSH0 SWAP2 POP POP JUMPDEST SWAP3 SWAP2 POP POP JUMP JUMPDEST PUSH0 PUSH20 0xFFFFFFFFFFFFFFFFFFFFFFFFFFFFFFFFFFFFFFFF AND DUP3 PUSH20 0xFFFFFFFFFFFFFFFFFFFFFFFFFFFFFFFFFFFFFFFF AND SUB PUSH2 0x1B18 JUMPI PUSH0 PUSH1 0x40 MLOAD PUSH32 0xEC442F0500000000000000000000000000000000000000000000000000000000 DUP2 MSTORE PUSH1 0x4 ADD PUSH2 0x1B0F SWAP2 SWAP1 PUSH2 0x3505 JUMP JUMPDEST PUSH1 0x40 MLOAD DUP1 SWAP2 SUB SWAP1 REVERT JUMPDEST PUSH2 0x1B23 PUSH0 DUP4 DUP4 PUSH2 0x226F JUMP JUMPDEST POP POP JUMP JUMPDEST PUSH0 PUSH20 0xFFFFFFFFFFFFFFFFFFFFFFFFFFFFFFFFFFFFFFFF AND DUP3 PUSH20 0xFFFFFFFFFFFFFFFFFFFFFFFFFFFFFFFFFFFFFFFF AND SUB PUSH2 0x1B97 JUMPI PUSH0 PUSH1 0x40 MLOAD PUSH32 0x96C6FD1E00000000000000000000000000000000000000000000000000000000 DUP2 MSTORE PUSH1 0x4 ADD PUSH2 0x1B8E SWAP2 SWAP1 PUSH2 0x3505 JUMP JUMPDEST PUSH1 0x40 MLOAD DUP1 SWAP2 SUB SWAP1 REVERT JUMPDEST PUSH2 0x1BA2 DUP3 PUSH0 DUP4 PUSH2 0x226F JUMP JUMPDEST POP POP JUMP JUMPDEST PUSH32 0x0 PUSH20 0xFFFFFFFFFFFFFFFFFFFFFFFFFFFFFFFFFFFFFFFF AND ADDRESS PUSH20 0xFFFFFFFFFFFFFFFFFFFFFFFFFFFFFFFFFFFFFFFF AND EQ DUP1 PUSH2 0x1C53 JUMPI POP PUSH32 0x0 PUSH20 0xFFFFFFFFFFFFFFFFFFFFFFFFFFFFFFFFFFFFFFFF AND PUSH2 0x1C3A PUSH2 0x249E JUMP JUMPDEST PUSH20 0xFFFFFFFFFFFFFFFFFFFFFFFFFFFFFFFFFFFFFFFF AND EQ ISZERO JUMPDEST ISZERO PUSH2 0x1C8A JUMPI PUSH1 0x40 MLOAD PUSH32 0xE07C8DBA00000000000000000000000000000000000000000000000000000000 DUP2 MSTORE PUSH1 0x4 ADD PUSH1 0x40 MLOAD DUP1 SWAP2 SUB SWAP1 REVERT JUMPDEST JUMP JUMPDEST PUSH32 0x189AB7A9244DF0848122154315AF71FE140F3DB0FE014031783B0946B8C9D2E3 PUSH2 0x1CB6 DUP2 PUSH2 0x180F JUMP JUMPDEST POP POP JUMP JUMPDEST DUP2 PUSH20 0xFFFFFFFFFFFFFFFFFFFFFFFFFFFFFFFFFFFFFFFF AND PUSH4 0x52D1902D PUSH1 0x40 MLOAD DUP2 PUSH4 0xFFFFFFFF AND PUSH1 0xE0 SHL DUP2 MSTORE PUSH1 0x4 ADD PUSH1 0x20 PUSH1 0x40 MLOAD DUP1 DUP4 SUB DUP2 DUP7 GAS STATICCALL SWAP3 POP POP POP DUP1 ISZERO PUSH2 0x1D22 JUMPI POP PUSH1 0x40 MLOAD RETURNDATASIZE PUSH1 0x1F NOT PUSH1 0x1F DUP3 ADD AND DUP3 ADD DUP1 PUSH1 0x40 MSTORE POP DUP2 ADD SWAP1 PUSH2 0x1D1F SWAP2 SWAP1 PUSH2 0x3532 JUMP JUMPDEST PUSH1 0x1 JUMPDEST PUSH2 0x1D63 JUMPI DUP2 PUSH1 0x40 MLOAD PUSH32 0x4C9C8CE300000000000000000000000000000000000000000000000000000000 DUP2 MSTORE PUSH1 0x4 ADD PUSH2 0x1D5A SWAP2 SWAP1 PUSH2 0x3505 JUMP JUMPDEST PUSH1 0x40 MLOAD DUP1 SWAP2 SUB SWAP1 REVERT JUMPDEST PUSH32 0x360894A13BA1A3210667C828492DB98DCA3E2076CC3735A920A3CA505D382BBC PUSH0 SHL DUP2 EQ PUSH2 0x1DC9 JUMPI DUP1 PUSH1 0x40 MLOAD PUSH32 0xAA1D49A400000000000000000000000000000000000000000000000000000000 DUP2 MSTORE PUSH1 0x4 ADD PUSH2 0x1DC0 SWAP2 SWAP1 PUSH2 0x2B89 JUMP JUMPDEST PUSH1 0x40 MLOAD DUP1 SWAP2 SUB SWAP1 REVERT JUMPDEST PUSH2 0x1DD3 DUP4 DUP4 PUSH2 0x24F1 JUMP JUMPDEST POP POP POP JUMP JUMPDEST PUSH32 0x0 PUSH20 0xFFFFFFFFFFFFFFFFFFFFFFFFFFFFFFFFFFFFFFFF AND ADDRESS PUSH20 0xFFFFFFFFFFFFFFFFFFFFFFFFFFFFFFFFFFFFFFFF AND EQ PUSH2 0x1E5D JUMPI PUSH1 0x40 MLOAD PUSH32 0xE07C8DBA00000000000000000000000000000000000000000000000000000000 DUP2 MSTORE PUSH1 0x4 ADD PUSH1 0x40 MLOAD DUP1 SWAP2 SUB SWAP1 REVERT JUMPDEST JUMP JUMPDEST PUSH0 PUSH20 0xFFFFFFFFFFFFFFFFFFFFFFFFFFFFFFFFFFFFFFFF AND DUP4 PUSH20 0xFFFFFFFFFFFFFFFFFFFFFFFFFFFFFFFFFFFFFFFF AND SUB PUSH2 0x1ECF JUMPI PUSH0 PUSH1 0x40 MLOAD PUSH32 0x96C6FD1E00000000000000000000000000000000000000000000000000000000 DUP2 MSTORE PUSH1 0x4 ADD PUSH2 0x1EC6 SWAP2 SWAP1 PUSH2 0x3505 JUMP JUMPDEST PUSH1 0x40 MLOAD DUP1 SWAP2 SUB SWAP1 REVERT JUMPDEST PUSH0 PUSH20 0xFFFFFFFFFFFFFFFFFFFFFFFFFFFFFFFFFFFFFFFF AND DUP3 PUSH20 0xFFFFFFFFFFFFFFFFFFFFFFFFFFFFFFFFFFFFFFFF AND SUB PUSH2 0x1F3F JUMPI PUSH0 PUSH1 0x40 MLOAD PUSH32 0xEC442F0500000000000000000000000000000000000000000000000000000000 DUP2 MSTORE PUSH1 0x4 ADD PUSH2 0x1F36 SWAP2 SWAP1 PUSH2 0x3505 JUMP JUMPDEST PUSH1 0x40 MLOAD DUP1 SWAP2 SUB SWAP1 REVERT JUMPDEST PUSH2 0x1F4A DUP4 DUP4 DUP4 PUSH2 0x226F JUMP JUMPDEST POP POP POP JUMP JUMPDEST PUSH0 PUSH0 PUSH2 0x1F59 PUSH2 0x184A JUMP JUMPDEST SWAP1 POP PUSH2 0x1F66 DUP2 DUP6 DUP6 PUSH2 0x1E5F JUMP JUMPDEST PUSH1 0x1 SWAP2 POP POP SWAP3 SWAP2 POP POP JUMP JUMPDEST PUSH0 PUSH0 PUSH2 0x1F7B PUSH2 0x2563 JUMP JUMPDEST SWAP1 POP DUP1 SWAP2 POP POP SWAP1 JUMP JUMPDEST PUSH2 0x1F8C PUSH2 0x258C JUMP JUMPDEST PUSH2 0x1F96 DUP3 DUP3 PUSH2 0x25CC JUMP JUMPDEST POP POP JUMP JUMPDEST PUSH2 0x1FA2 PUSH2 0x258C JUMP JUMPDEST JUMP JUMPDEST PUSH2 0x1FAC PUSH2 0x258C JUMP JUMPDEST JUMP JUMPDEST PUSH2 0x1FB8 DUP3 DUP3 PUSH2 0xDF2 JUMP JUMPDEST PUSH2 0x1FFB JUMPI DUP1 DUP3 PUSH1 0x40 MLOAD PUSH32 0xE2517D3F00000000000000000000000000000000000000000000000000000000 DUP2 MSTORE PUSH1 0x4 ADD PUSH2 0x1FF2 SWAP3 SWAP2 SWAP1 PUSH2 0x355D JUMP JUMPDEST PUSH1 0x40 MLOAD DUP1 SWAP2 SUB SWAP1 REVERT JUMPDEST POP POP JUMP JUMPDEST PUSH0 PUSH2 0x2008 PUSH2 0x1823 JUMP JUMPDEST SWAP1 POP PUSH0 PUSH20 0xFFFFFFFFFFFFFFFFFFFFFFFFFFFFFFFFFFFFFFFF AND DUP6 PUSH20 0xFFFFFFFFFFFFFFFFFFFFFFFFFFFFFFFFFFFFFFFF AND SUB PUSH2 0x207A JUMPI PUSH0 PUSH1 0x40 MLOAD PUSH32 0xE602DF0500000000000000000000000000000000000000000000000000000000 DUP2 MSTORE PUSH1 0x4 ADD PUSH2 0x2071 SWAP2 SWAP1 PUSH2 0x3505 JUMP JUMPDEST PUSH1 0x40 MLOAD DUP1 SWAP2 SUB SWAP1 REVERT JUMPDEST PUSH0 PUSH20 0xFFFFFFFFFFFFFFFFFFFFFFFFFFFFFFFFFFFFFFFF AND DUP5 PUSH20 0xFFFFFFFFFFFFFFFFFFFFFFFFFFFFFFFFFFFFFFFF AND SUB PUSH2 0x20EA JUMPI PUSH0 PUSH1 0x40 MLOAD PUSH32 0x94280D6200000000000000000000000000000000000000000000000000000000 DUP2 MSTORE PUSH1 0x4 ADD PUSH2 0x20E1 SWAP2 SWAP1 PUSH2 0x3505 JUMP JUMPDEST PUSH1 0x40 MLOAD DUP1 SWAP2 SUB SWAP1 REVERT JUMPDEST DUP3 DUP2 PUSH1 0x1 ADD PUSH0 DUP8 PUSH20 0xFFFFFFFFFFFFFFFFFFFFFFFFFFFFFFFFFFFFFFFF AND PUSH20 0xFFFFFFFFFFFFFFFFFFFFFFFFFFFFFFFFFFFFFFFF AND DUP2 MSTORE PUSH1 0x20 ADD SWAP1 DUP2 MSTORE PUSH1 0x20 ADD PUSH0 KECCAK256 PUSH0 DUP7 PUSH20 0xFFFFFFFFFFFFFFFFFFFFFFFFFFFFFFFFFFFFFFFF AND PUSH20 0xFFFFFFFFFFFFFFFFFFFFFFFFFFFFFFFFFFFFFFFF AND DUP2 MSTORE PUSH1 0x20 ADD SWAP1 DUP2 MSTORE PUSH1 0x20 ADD PUSH0 KECCAK256 DUP2 SWAP1 SSTORE POP DUP2 ISZERO PUSH2 0x21D5 JUMPI DUP4 PUSH20 0xFFFFFFFFFFFFFFFFFFFFFFFFFFFFFFFFFFFFFFFF AND DUP6 PUSH20 0xFFFFFFFFFFFFFFFFFFFFFFFFFFFFFFFFFFFFFFFF AND PUSH32 0x8C5BE1E5EBEC7D5BD14F71427D1E84F3DD0314C0F7B2291E5B200AC8C7C3B925 DUP6 PUSH1 0x40 MLOAD PUSH2 0x21CC SWAP2 SWAP1 PUSH2 0x2AB3 JUMP JUMPDEST PUSH1 0x40 MLOAD DUP1 SWAP2 SUB SWAP1 LOG3 JUMPDEST POP POP POP POP POP JUMP JUMPDEST PUSH0 PUSH2 0x21E7 DUP5 DUP5 PUSH2 0x13A5 JUMP JUMPDEST SWAP1 POP PUSH32 0xFFFFFFFFFFFFFFFFFFFFFFFFFFFFFFFFFFFFFFFFFFFFFFFFFFFFFFFFFFFFFFFF DUP2 LT ISZERO PUSH2 0x2269 JUMPI DUP2 DUP2 LT ISZERO PUSH2 0x225A JUMPI DUP3 DUP2 DUP4 PUSH1 0x40 MLOAD PUSH32 0xFB8F41B200000000000000000000000000000000000000000000000000000000 DUP2 MSTORE PUSH1 0x4 ADD PUSH2 0x2251 SWAP4 SWAP3 SWAP2 SWAP1 PUSH2 0x3584 JUMP JUMPDEST PUSH1 0x40 MLOAD DUP1 SWAP2 SUB SWAP1 REVERT JUMPDEST PUSH2 0x2268 DUP5 DUP5 DUP5 DUP5 SUB PUSH0 PUSH2 0x1FFF JUMP JUMPDEST JUMPDEST POP POP POP POP JUMP JUMPDEST PUSH0 PUSH2 0x2278 PUSH2 0x1823 JUMP JUMPDEST SWAP1 POP PUSH0 PUSH20 0xFFFFFFFFFFFFFFFFFFFFFFFFFFFFFFFFFFFFFFFF AND DUP5 PUSH20 0xFFFFFFFFFFFFFFFFFFFFFFFFFFFFFFFFFFFFFFFF AND SUB PUSH2 0x22CC JUMPI DUP2 DUP2 PUSH1 0x2 ADD PUSH0 DUP3 DUP3 SLOAD PUSH2 0x22C0 SWAP2 SWAP1 PUSH2 0x3170 JUMP JUMPDEST SWAP3 POP POP DUP2 SWAP1 SSTORE POP PUSH2 0x239E JUMP JUMPDEST PUSH0 DUP2 PUSH0 ADD PUSH0 DUP7 PUSH20 0xFFFFFFFFFFFFFFFFFFFFFFFFFFFFFFFFFFFFFFFF AND PUSH20 0xFFFFFFFFFFFFFFFFFFFFFFFFFFFFFFFFFFFFFFFF AND DUP2 MSTORE PUSH1 0x20 ADD SWAP1 DUP2 MSTORE PUSH1 0x20 ADD PUSH0 KECCAK256 SLOAD SWAP1 POP DUP3 DUP2 LT ISZERO PUSH2 0x2357 JUMPI DUP5 DUP2 DUP5 PUSH1 0x40 MLOAD PUSH32 0xE450D38C00000000000000000000000000000000000000000000000000000000 DUP2 MSTORE PUSH1 0x4 ADD PUSH2 0x234E SWAP4 SWAP3 SWAP2 SWAP1 PUSH2 0x3584 JUMP JUMPDEST PUSH1 0x40 MLOAD DUP1 SWAP2 SUB SWAP1 REVERT JUMPDEST DUP3 DUP2 SUB DUP3 PUSH0 ADD PUSH0 DUP8 PUSH20 0xFFFFFFFFFFFFFFFFFFFFFFFFFFFFFFFFFFFFFFFF AND PUSH20 0xFFFFFFFFFFFFFFFFFFFFFFFFFFFFFFFFFFFFFFFF AND DUP2 MSTORE PUSH1 0x20 ADD SWAP1 DUP2 MSTORE PUSH1 0x20 ADD PUSH0 KECCAK256 DUP2 SWAP1 SSTORE POP POP JUMPDEST PUSH0 PUSH20 0xFFFFFFFFFFFFFFFFFFFFFFFFFFFFFFFFFFFFFFFF AND DUP4 PUSH20 0xFFFFFFFFFFFFFFFFFFFFFFFFFFFFFFFFFFFFFFFF AND SUB PUSH2 0x23E7 JUMPI DUP2 DUP2 PUSH1 0x2 ADD PUSH0 DUP3 DUP3 SLOAD SUB SWAP3 POP POP DUP2 SWAP1 SSTORE POP PUSH2 0x2433 JUMP JUMPDEST DUP2 DUP2 PUSH0 ADD PUSH0 DUP6 PUSH20 0xFFFFFFFFFFFFFFFFFFFFFFFFFFFFFFFFFFFFFFFF AND PUSH20 0xFFFFFFFFFFFFFFFFFFFFFFFFFFFFFFFFFFFFFFFF AND DUP2 MSTORE PUSH1 0x20 ADD SWAP1 DUP2 MSTORE PUSH1 0x20 ADD PUSH0 KECCAK256 PUSH0 DUP3 DUP3 SLOAD ADD SWAP3 POP POP DUP2 SWAP1 SSTORE POP JUMPDEST DUP3 PUSH20 0xFFFFFFFFFFFFFFFFFFFFFFFFFFFFFFFFFFFFFFFF AND DUP5 PUSH20 0xFFFFFFFFFFFFFFFFFFFFFFFFFFFFFFFFFFFFFFFF AND PUSH32 0xDDF252AD1BE2C89B69C2B068FC378DAA952BA7F163C4A11628F55A4DF523B3EF DUP5 PUSH1 0x40 MLOAD PUSH2 0x2490 SWAP2 SWAP1 PUSH2 0x2AB3 JUMP JUMPDEST PUSH1 0x40 MLOAD DUP1 SWAP2 SUB SWAP1 LOG3 POP POP POP POP JUMP JUMPDEST PUSH0 PUSH2 0x24CA PUSH32 0x360894A13BA1A3210667C828492DB98DCA3E2076CC3735A920A3CA505D382BBC PUSH0 SHL PUSH2 0x2608 JUMP JUMPDEST PUSH0 ADD PUSH0 SWAP1 SLOAD SWAP1 PUSH2 0x100 EXP SWAP1 DIV PUSH20 0xFFFFFFFFFFFFFFFFFFFFFFFFFFFFFFFFFFFFFFFF AND SWAP1 POP SWAP1 JUMP JUMPDEST PUSH2 0x24FA DUP3 PUSH2 0x2611 JUMP JUMPDEST DUP2 PUSH20 0xFFFFFFFFFFFFFFFFFFFFFFFFFFFFFFFFFFFFFFFF AND PUSH32 0xBC7CD75A20EE27FD9ADEBAB32041F755214DBC6BFFA90CC0225B39DA2E5C2D3B PUSH1 0x40 MLOAD PUSH1 0x40 MLOAD DUP1 SWAP2 SUB SWAP1 LOG2 PUSH0 DUP2 MLOAD GT ISZERO PUSH2 0x2556 JUMPI PUSH2 0x2550 DUP3 DUP3 PUSH2 0x26DA JUMP JUMPDEST POP PUSH2 0x255F JUMP JUMPDEST PUSH2 0x255E PUSH2 0x275A JUMP JUMPDEST JUMPDEST POP POP JUMP JUMPDEST PUSH0 PUSH32 0xF0C57E16840DF040F15088DC2F81FE391C3923BEC73E23A9662EFC9C229C6A00 PUSH0 SHL SWAP1 POP SWAP1 JUMP JUMPDEST PUSH2 0x2594 PUSH2 0x2796 JUMP JUMPDEST PUSH2 0x25CA JUMPI PUSH1 0x40 MLOAD PUSH32 0xD7E6BCF800000000000000000000000000000000000000000000000000000000 DUP2 MSTORE PUSH1 0x4 ADD PUSH1 0x40 MLOAD DUP1 SWAP2 SUB SWAP1 REVERT JUMPDEST JUMP JUMPDEST PUSH2 0x25D4 PUSH2 0x258C JUMP JUMPDEST PUSH0 PUSH2 0x25DD PUSH2 0x1823 JUMP JUMPDEST SWAP1 POP DUP3 DUP2 PUSH1 0x3 ADD SWAP1 DUP2 PUSH2 0x25F0 SWAP2 SWAP1 PUSH2 0x3750 JUMP JUMPDEST POP DUP2 DUP2 PUSH1 0x4 ADD SWAP1 DUP2 PUSH2 0x2602 SWAP2 SWAP1 PUSH2 0x3750 JUMP JUMPDEST POP POP POP POP JUMP JUMPDEST PUSH0 DUP2 SWAP1 POP SWAP2 SWAP1 POP JUMP JUMPDEST PUSH0 DUP2 PUSH20 0xFFFFFFFFFFFFFFFFFFFFFFFFFFFFFFFFFFFFFFFF AND EXTCODESIZE SUB PUSH2 0x266C JUMPI DUP1 PUSH1 0x40 MLOAD PUSH32 0x4C9C8CE300000000000000000000000000000000000000000000000000000000 DUP2 MSTORE PUSH1 0x4 ADD PUSH2 0x2663 SWAP2 SWAP1 PUSH2 0x3505 JUMP JUMPDEST PUSH1 0x40 MLOAD DUP1 SWAP2 SUB SWAP1 REVERT JUMPDEST DUP1 PUSH2 0x2698 PUSH32 0x360894A13BA1A3210667C828492DB98DCA3E2076CC3735A920A3CA505D382BBC PUSH0 SHL PUSH2 0x2608 JUMP JUMPDEST PUSH0 ADD PUSH0 PUSH2 0x100 EXP DUP2 SLOAD DUP2 PUSH20 0xFFFFFFFFFFFFFFFFFFFFFFFFFFFFFFFFFFFFFFFF MUL NOT AND SWAP1 DUP4 PUSH20 0xFFFFFFFFFFFFFFFFFFFFFFFFFFFFFFFFFFFFFFFF AND MUL OR SWAP1 SSTORE POP POP JUMP JUMPDEST PUSH1 0x60 PUSH0 PUSH0 DUP5 PUSH20 0xFFFFFFFFFFFFFFFFFFFFFFFFFFFFFFFFFFFFFFFF AND DUP5 PUSH1 0x40 MLOAD PUSH2 0x2703 SWAP2 SWAP1 PUSH2 0x3863 JUMP JUMPDEST PUSH0 PUSH1 0x40 MLOAD DUP1 DUP4 SUB DUP2 DUP6 GAS DELEGATECALL SWAP2 POP POP RETURNDATASIZE DUP1 PUSH0 DUP2 EQ PUSH2 0x273B JUMPI PUSH1 0x40 MLOAD SWAP2 POP PUSH1 0x1F NOT PUSH1 0x3F RETURNDATASIZE ADD AND DUP3 ADD PUSH1 0x40 MSTORE RETURNDATASIZE DUP3 MSTORE RETURNDATASIZE PUSH0 PUSH1 0x20 DUP5 ADD RETURNDATACOPY PUSH2 0x2740 JUMP JUMPDEST PUSH1 0x60 SWAP2 POP JUMPDEST POP SWAP2 POP SWAP2 POP PUSH2 0x2750 DUP6 DUP4 DUP4 PUSH2 0x27B4 JUMP JUMPDEST SWAP3 POP POP POP SWAP3 SWAP2 POP POP JUMP JUMPDEST PUSH0 CALLVALUE GT ISZERO PUSH2 0x2794 JUMPI PUSH1 0x40 MLOAD PUSH32 0xB398979F00000000000000000000000000000000000000000000000000000000 DUP2 MSTORE PUSH1 0x4 ADD PUSH1 0x40 MLOAD DUP1 SWAP2 SUB SWAP1 REVERT JUMPDEST JUMP JUMPDEST PUSH0 PUSH2 0x279F PUSH2 0x1F71 JUMP JUMPDEST PUSH0 ADD PUSH1 0x8 SWAP1 SLOAD SWAP1 PUSH2 0x100 EXP SWAP1 DIV PUSH1 0xFF AND SWAP1 POP SWAP1 JUMP JUMPDEST PUSH1 0x60 DUP3 PUSH2 0x27C9 JUMPI PUSH2 0x27C4 DUP3 PUSH2 0x2841 JUMP JUMPDEST PUSH2 0x2839 JUMP JUMPDEST PUSH0 DUP3 MLOAD EQ DUP1 ISZERO PUSH2 0x27EF JUMPI POP PUSH0 DUP5 PUSH20 0xFFFFFFFFFFFFFFFFFFFFFFFFFFFFFFFFFFFFFFFF AND EXTCODESIZE EQ JUMPDEST ISZERO PUSH2 0x2831 JUMPI DUP4 PUSH1 0x40 MLOAD PUSH32 0x9996B31500000000000000000000000000000000000000000000000000000000 DUP2 MSTORE PUSH1 0x4 ADD PUSH2 0x2828 SWAP2 SWAP1 PUSH2 0x3505 JUMP JUMPDEST PUSH1 0x40 MLOAD DUP1 SWAP2 SUB SWAP1 REVERT JUMPDEST DUP2 SWAP1 POP PUSH2 0x283A JUMP JUMPDEST JUMPDEST SWAP4 SWAP3 POP POP POP JUMP JUMPDEST PUSH0 DUP2 MLOAD GT ISZERO PUSH2 0x2853 JUMPI DUP1 MLOAD DUP1 DUP3 PUSH1 0x20 ADD REVERT JUMPDEST PUSH1 0x40 MLOAD PUSH32 0xD6BDA27500000000000000000000000000000000000000000000000000000000 DUP2 MSTORE PUSH1 0x4 ADD PUSH1 0x40 MLOAD DUP1 SWAP2 SUB SWAP1 REVERT JUMPDEST PUSH0 PUSH1 0x40 MLOAD SWAP1 POP SWAP1 JUMP JUMPDEST PUSH0 PUSH0 REVERT JUMPDEST PUSH0 PUSH0 REVERT JUMPDEST PUSH0 PUSH32 0xFFFFFFFF00000000000000000000000000000000000000000000000000000000 DUP3 AND SWAP1 POP SWAP2 SWAP1 POP JUMP JUMPDEST PUSH2 0x28CA DUP2 PUSH2 0x2896 JUMP JUMPDEST DUP2 EQ PUSH2 0x28D4 JUMPI PUSH0 PUSH0 REVERT JUMPDEST POP JUMP JUMPDEST PUSH0 DUP2 CALLDATALOAD SWAP1 POP PUSH2 0x28E5 DUP2 PUSH2 0x28C1 JUMP JUMPDEST SWAP3 SWAP2 POP POP JUMP JUMPDEST PUSH0 PUSH1 0x20 DUP3 DUP5 SUB SLT ISZERO PUSH2 0x2900 JUMPI PUSH2 0x28FF PUSH2 0x288E JUMP JUMPDEST JUMPDEST PUSH0 PUSH2 0x290D DUP5 DUP3 DUP6 ADD PUSH2 0x28D7 JUMP JUMPDEST SWAP2 POP POP SWAP3 SWAP2 POP POP JUMP JUMPDEST PUSH0 DUP2 ISZERO ISZERO SWAP1 POP SWAP2 SWAP1 POP JUMP JUMPDEST PUSH2 0x292A DUP2 PUSH2 0x2916 JUMP JUMPDEST DUP3 MSTORE POP POP JUMP JUMPDEST PUSH0 PUSH1 0x20 DUP3 ADD SWAP1 POP PUSH2 0x2943 PUSH0 DUP4 ADD DUP5 PUSH2 0x2921 JUMP JUMPDEST SWAP3 SWAP2 POP POP JUMP JUMPDEST PUSH0 PUSH20 0xFFFFFFFFFFFFFFFFFFFFFFFFFFFFFFFFFFFFFFFF DUP3 AND SWAP1 POP SWAP2 SWAP1 POP JUMP JUMPDEST PUSH0 PUSH2 0x2972 DUP3 PUSH2 0x2949 JUMP JUMPDEST SWAP1 POP SWAP2 SWAP1 POP JUMP JUMPDEST PUSH2 0x2982 DUP2 PUSH2 0x2968 JUMP JUMPDEST DUP2 EQ PUSH2 0x298C JUMPI PUSH0 PUSH0 REVERT JUMPDEST POP JUMP JUMPDEST PUSH0 DUP2 CALLDATALOAD SWAP1 POP PUSH2 0x299D DUP2 PUSH2 0x2979 JUMP JUMPDEST SWAP3 SWAP2 POP POP JUMP JUMPDEST PUSH0 DUP2 SWAP1 POP SWAP2 SWAP1 POP JUMP JUMPDEST PUSH2 0x29B5 DUP2 PUSH2 0x29A3 JUMP JUMPDEST DUP2 EQ PUSH2 0x29BF JUMPI PUSH0 PUSH0 REVERT JUMPDEST POP JUMP JUMPDEST PUSH0 DUP2 CALLDATALOAD SWAP1 POP PUSH2 0x29D0 DUP2 PUSH2 0x29AC JUMP JUMPDEST SWAP3 SWAP2 POP POP JUMP JUMPDEST PUSH0 PUSH0 PUSH1 0x40 DUP4 DUP6 SUB SLT ISZERO PUSH2 0x29EC JUMPI PUSH2 0x29EB PUSH2 0x288E JUMP JUMPDEST JUMPDEST PUSH0 PUSH2 0x29F9 DUP6 DUP3 DUP7 ADD PUSH2 0x298F JUMP JUMPDEST SWAP3 POP POP PUSH1 0x20 PUSH2 0x2A0A DUP6 DUP3 DUP7 ADD PUSH2 0x29C2 JUMP JUMPDEST SWAP2 POP POP SWAP3 POP SWAP3 SWAP1 POP JUMP JUMPDEST PUSH0 DUP2 MLOAD SWAP1 POP SWAP2 SWAP1 POP JUMP JUMPDEST PUSH0 DUP3 DUP3 MSTORE PUSH1 0x20 DUP3 ADD SWAP1 POP SWAP3 SWAP2 POP POP JUMP JUMPDEST DUP3 DUP2 DUP4 MCOPY PUSH0 DUP4 DUP4 ADD MSTORE POP POP POP JUMP JUMPDEST PUSH0 PUSH1 0x1F NOT PUSH1 0x1F DUP4 ADD AND SWAP1 POP SWAP2 SWAP1 POP JUMP JUMPDEST PUSH0 PUSH2 0x2A56 DUP3 PUSH2 0x2A14 JUMP JUMPDEST PUSH2 0x2A60 DUP2 DUP6 PUSH2 0x2A1E JUMP JUMPDEST SWAP4 POP PUSH2 0x2A70 DUP2 DUP6 PUSH1 0x20 DUP7 ADD PUSH2 0x2A2E JUMP JUMPDEST PUSH2 0x2A79 DUP2 PUSH2 0x2A3C JUMP JUMPDEST DUP5 ADD SWAP2 POP POP SWAP3 SWAP2 POP POP JUMP JUMPDEST PUSH0 PUSH1 0x20 DUP3 ADD SWAP1 POP DUP2 DUP2 SUB PUSH0 DUP4 ADD MSTORE PUSH2 0x2A9C DUP2 DUP5 PUSH2 0x2A4C JUMP JUMPDEST SWAP1 POP SWAP3 SWAP2 POP POP JUMP JUMPDEST PUSH2 0x2AAD DUP2 PUSH2 0x29A3 JUMP JUMPDEST DUP3 MSTORE POP POP JUMP JUMPDEST PUSH0 PUSH1 0x20 DUP3 ADD SWAP1 POP PUSH2 0x2AC6 PUSH0 DUP4 ADD DUP5 PUSH2 0x2AA4 JUMP JUMPDEST SWAP3 SWAP2 POP POP JUMP JUMPDEST PUSH0 PUSH0 PUSH0 PUSH1 0x60 DUP5 DUP7 SUB SLT ISZERO PUSH2 0x2AE3 JUMPI PUSH2 0x2AE2 PUSH2 0x288E JUMP JUMPDEST JUMPDEST PUSH0 PUSH2 0x2AF0 DUP7 DUP3 DUP8 ADD PUSH2 0x298F JUMP JUMPDEST SWAP4 POP POP PUSH1 0x20 PUSH2 0x2B01 DUP7 DUP3 DUP8 ADD PUSH2 0x298F JUMP JUMPDEST SWAP3 POP POP PUSH1 0x40 PUSH2 0x2B12 DUP7 DUP3 DUP8 ADD PUSH2 0x29C2 JUMP JUMPDEST SWAP2 POP POP SWAP3 POP SWAP3 POP SWAP3 JUMP JUMPDEST PUSH0 DUP2 SWAP1 POP SWAP2 SWAP1 POP JUMP JUMPDEST PUSH2 0x2B2E DUP2 PUSH2 0x2B1C JUMP JUMPDEST DUP2 EQ PUSH2 0x2B38 JUMPI PUSH0 PUSH0 REVERT JUMPDEST POP JUMP JUMPDEST PUSH0 DUP2 CALLDATALOAD SWAP1 POP PUSH2 0x2B49 DUP2 PUSH2 0x2B25 JUMP JUMPDEST SWAP3 SWAP2 POP POP JUMP JUMPDEST PUSH0 PUSH1 0x20 DUP3 DUP5 SUB SLT ISZERO PUSH2 0x2B64 JUMPI PUSH2 0x2B63 PUSH2 0x288E JUMP JUMPDEST JUMPDEST PUSH0 PUSH2 0x2B71 DUP5 DUP3 DUP6 ADD PUSH2 0x2B3B JUMP JUMPDEST SWAP2 POP POP SWAP3 SWAP2 POP POP JUMP JUMPDEST PUSH2 0x2B83 DUP2 PUSH2 0x2B1C JUMP JUMPDEST DUP3 MSTORE POP POP JUMP JUMPDEST PUSH0 PUSH1 0x20 DUP3 ADD SWAP1 POP PUSH2 0x2B9C PUSH0 DUP4 ADD DUP5 PUSH2 0x2B7A JUMP JUMPDEST SWAP3 SWAP2 POP POP JUMP JUMPDEST PUSH0 PUSH0 PUSH1 0x40 DUP4 DUP6 SUB SLT ISZERO PUSH2 0x2BB8 JUMPI PUSH2 0x2BB7 PUSH2 0x288E JUMP JUMPDEST JUMPDEST PUSH0 PUSH2 0x2BC5 DUP6 DUP3 DUP7 ADD PUSH2 0x2B3B JUMP JUMPDEST SWAP3 POP POP PUSH1 0x20 PUSH2 0x2BD6 DUP6 DUP3 DUP7 ADD PUSH2 0x298F JUMP JUMPDEST SWAP2 POP POP SWAP3 POP SWAP3 SWAP1 POP JUMP JUMPDEST PUSH0 PUSH1 0xFF DUP3 AND SWAP1 POP SWAP2 SWAP1 POP JUMP JUMPDEST PUSH2 0x2BF5 DUP2 PUSH2 0x2BE0 JUMP JUMPDEST DUP3 MSTORE POP POP JUMP JUMPDEST PUSH0 PUSH1 0x20 DUP3 ADD SWAP1 POP PUSH2 0x2C0E PUSH0 DUP4 ADD DUP5 PUSH2 0x2BEC JUMP JUMPDEST SWAP3 SWAP2 POP POP JUMP JUMPDEST PUSH0 DUP2 SWAP1 POP SWAP2 SWAP1 POP JUMP JUMPDEST PUSH0 PUSH2 0x2C37 PUSH2 0x2C32 PUSH2 0x2C2D DUP5 PUSH2 0x2949 JUMP JUMPDEST PUSH2 0x2C14 JUMP JUMPDEST PUSH2 0x2949 JUMP JUMPDEST SWAP1 POP SWAP2 SWAP1 POP JUMP JUMPDEST PUSH0 PUSH2 0x2C48 DUP3 PUSH2 0x2C1D JUMP JUMPDEST SWAP1 POP SWAP2 SWAP1 POP JUMP JUMPDEST PUSH0 PUSH2 0x2C59 DUP3 PUSH2 0x2C3E JUMP JUMPDEST SWAP1 POP SWAP2 SWAP1 POP JUMP JUMPDEST PUSH2 0x2C69 DUP2 PUSH2 0x2C4F JUMP JUMPDEST DUP3 MSTORE POP POP JUMP JUMPDEST PUSH0 PUSH1 0x20 DUP3 ADD SWAP1 POP PUSH2 0x2C82 PUSH0 DUP4 ADD DUP5 PUSH2 0x2C60 JUMP JUMPDEST SWAP3 SWAP2 POP POP JUMP JUMPDEST PUSH0 PUSH1 0x20 DUP3 DUP5 SUB SLT ISZERO PUSH2 0x2C9D JUMPI PUSH2 0x2C9C PUSH2 0x288E JUMP JUMPDEST JUMPDEST PUSH0 PUSH2 0x2CAA DUP5 DUP3 DUP6 ADD PUSH2 0x29C2 JUMP JUMPDEST SWAP2 POP POP SWAP3 SWAP2 POP POP JUMP JUMPDEST PUSH0 PUSH0 REVERT JUMPDEST PUSH0 PUSH0 REVERT JUMPDEST PUSH32 0x4E487B7100000000000000000000000000000000000000000000000000000000 PUSH0 MSTORE PUSH1 0x41 PUSH1 0x4 MSTORE PUSH1 0x24 PUSH0 REVERT JUMPDEST PUSH2 0x2CF1 DUP3 PUSH2 0x2A3C JUMP JUMPDEST DUP2 ADD DUP2 DUP2 LT PUSH8 0xFFFFFFFFFFFFFFFF DUP3 GT OR ISZERO PUSH2 0x2D10 JUMPI PUSH2 0x2D0F PUSH2 0x2CBB JUMP JUMPDEST JUMPDEST DUP1 PUSH1 0x40 MSTORE POP POP POP JUMP JUMPDEST PUSH0 PUSH2 0x2D22 PUSH2 0x2885 JUMP JUMPDEST SWAP1 POP PUSH2 0x2D2E DUP3 DUP3 PUSH2 0x2CE8 JUMP JUMPDEST SWAP2 SWAP1 POP JUMP JUMPDEST PUSH0 PUSH8 0xFFFFFFFFFFFFFFFF DUP3 GT ISZERO PUSH2 0x2D4D JUMPI PUSH2 0x2D4C PUSH2 0x2CBB JUMP JUMPDEST JUMPDEST PUSH2 0x2D56 DUP3 PUSH2 0x2A3C JUMP JUMPDEST SWAP1 POP PUSH1 0x20 DUP2 ADD SWAP1 POP SWAP2 SWAP1 POP JUMP JUMPDEST DUP3 DUP2 DUP4 CALLDATACOPY PUSH0 DUP4 DUP4 ADD MSTORE POP POP POP JUMP JUMPDEST PUSH0 PUSH2 0x2D83 PUSH2 0x2D7E DUP5 PUSH2 0x2D33 JUMP JUMPDEST PUSH2 0x2D19 JUMP JUMPDEST SWAP1 POP DUP3 DUP2 MSTORE PUSH1 0x20 DUP2 ADD DUP5 DUP5 DUP5 ADD GT ISZERO PUSH2 0x2D9F JUMPI PUSH2 0x2D9E PUSH2 0x2CB7 JUMP JUMPDEST JUMPDEST PUSH2 0x2DAA DUP5 DUP3 DUP6 PUSH2 0x2D63 JUMP JUMPDEST POP SWAP4 SWAP3 POP POP POP JUMP JUMPDEST PUSH0 DUP3 PUSH1 0x1F DUP4 ADD SLT PUSH2 0x2DC6 JUMPI PUSH2 0x2DC5 PUSH2 0x2CB3 JUMP JUMPDEST JUMPDEST DUP2 CALLDATALOAD PUSH2 0x2DD6 DUP5 DUP3 PUSH1 0x20 DUP7 ADD PUSH2 0x2D71 JUMP JUMPDEST SWAP2 POP POP SWAP3 SWAP2 POP POP JUMP JUMPDEST PUSH0 PUSH0 PUSH1 0x40 DUP4 DUP6 SUB SLT ISZERO PUSH2 0x2DF5 JUMPI PUSH2 0x2DF4 PUSH2 0x288E JUMP JUMPDEST JUMPDEST PUSH0 PUSH2 0x2E02 DUP6 DUP3 DUP7 ADD PUSH2 0x298F JUMP JUMPDEST SWAP3 POP POP PUSH1 0x20 DUP4 ADD CALLDATALOAD PUSH8 0xFFFFFFFFFFFFFFFF DUP2 GT ISZERO PUSH2 0x2E23 JUMPI PUSH2 0x2E22 PUSH2 0x2892 JUMP JUMPDEST JUMPDEST PUSH2 0x2E2F DUP6 DUP3 DUP7 ADD PUSH2 0x2DB2 JUMP JUMPDEST SWAP2 POP POP SWAP3 POP SWAP3 SWAP1 POP JUMP JUMPDEST PUSH0 PUSH1 0x20 DUP3 DUP5 SUB SLT ISZERO PUSH2 0x2E4E JUMPI PUSH2 0x2E4D PUSH2 0x288E JUMP JUMPDEST JUMPDEST PUSH0 PUSH2 0x2E5B DUP5 DUP3 DUP6 ADD PUSH2 0x298F JUMP JUMPDEST SWAP2 POP POP SWAP3 SWAP2 POP POP JUMP JUMPDEST PUSH0 PUSH2 0x2E6E DUP3 PUSH2 0x2C3E JUMP JUMPDEST SWAP1 POP SWAP2 SWAP1 POP JUMP JUMPDEST PUSH2 0x2E7E DUP2 PUSH2 0x2E64 JUMP JUMPDEST DUP3 MSTORE POP POP JUMP JUMPDEST PUSH0 PUSH1 0x20 DUP3 ADD SWAP1 POP PUSH2 0x2E97 PUSH0 DUP4 ADD DUP5 PUSH2 0x2E75 JUMP JUMPDEST SWAP3 SWAP2 POP POP JUMP JUMPDEST PUSH2 0x2EA6 DUP2 PUSH2 0x2916 JUMP JUMPDEST DUP2 EQ PUSH2 0x2EB0 JUMPI PUSH0 PUSH0 REVERT JUMPDEST POP JUMP JUMPDEST PUSH0 DUP2 CALLDATALOAD SWAP1 POP PUSH2 0x2EC1 DUP2 PUSH2 0x2E9D JUMP JUMPDEST SWAP3 SWAP2 POP POP JUMP JUMPDEST PUSH0 PUSH0 PUSH1 0x40 DUP4 DUP6 SUB SLT ISZERO PUSH2 0x2EDD JUMPI PUSH2 0x2EDC PUSH2 0x288E JUMP JUMPDEST JUMPDEST PUSH0 PUSH2 0x2EEA DUP6 DUP3 DUP7 ADD PUSH2 0x298F JUMP JUMPDEST SWAP3 POP POP PUSH1 0x20 PUSH2 0x2EFB DUP6 DUP3 DUP7 ADD PUSH2 0x2EB3 JUMP JUMPDEST SWAP2 POP POP SWAP3 POP SWAP3 SWAP1 POP JUMP JUMPDEST PUSH0 PUSH8 0xFFFFFFFFFFFFFFFF DUP3 AND SWAP1 POP SWAP2 SWAP1 POP JUMP JUMPDEST PUSH2 0x2F21 DUP2 PUSH2 0x2F05 JUMP JUMPDEST DUP2 EQ PUSH2 0x2F2B JUMPI PUSH0 PUSH0 REVERT JUMPDEST POP JUMP JUMPDEST PUSH0 DUP2 CALLDATALOAD SWAP1 POP PUSH2 0x2F3C DUP2 PUSH2 0x2F18 JUMP JUMPDEST SWAP3 SWAP2 POP POP JUMP JUMPDEST PUSH0 PUSH0 PUSH0 PUSH1 0x60 DUP5 DUP7 SUB SLT ISZERO PUSH2 0x2F59 JUMPI PUSH2 0x2F58 PUSH2 0x288E JUMP JUMPDEST JUMPDEST PUSH0 PUSH2 0x2F66 DUP7 DUP3 DUP8 ADD PUSH2 0x2F2E JUMP JUMPDEST SWAP4 POP POP PUSH1 0x20 PUSH2 0x2F77 DUP7 DUP3 DUP8 ADD PUSH2 0x298F JUMP JUMPDEST SWAP3 POP POP PUSH1 0x40 PUSH2 0x2F88 DUP7 DUP3 DUP8 ADD PUSH2 0x29C2 JUMP JUMPDEST SWAP2 POP POP SWAP3 POP SWAP3 POP SWAP3 JUMP JUMPDEST PUSH0 PUSH0 PUSH1 0x40 DUP4 DUP6 SUB SLT ISZERO PUSH2 0x2FA8 JUMPI PUSH2 0x2FA7 PUSH2 0x288E JUMP JUMPDEST JUMPDEST PUSH0 PUSH2 0x2FB5 DUP6 DUP3 DUP7 ADD PUSH2 0x298F JUMP JUMPDEST SWAP3 POP POP PUSH1 0x20 PUSH2 0x2FC6 DUP6 DUP3 DUP7 ADD PUSH2 0x298F JUMP JUMPDEST SWAP2 POP POP SWAP3 POP SWAP3 SWAP1 POP JUMP JUMPDEST PUSH0 PUSH8 0xFFFFFFFFFFFFFFFF DUP3 GT ISZERO PUSH2 0x2FEA JUMPI PUSH2 0x2FE9 PUSH2 0x2CBB JUMP JUMPDEST JUMPDEST PUSH2 0x2FF3 DUP3 PUSH2 0x2A3C JUMP JUMPDEST SWAP1 POP PUSH1 0x20 DUP2 ADD SWAP1 POP SWAP2 SWAP1 POP JUMP JUMPDEST PUSH0 PUSH2 0x3012 PUSH2 0x300D DUP5 PUSH2 0x2FD0 JUMP JUMPDEST PUSH2 0x2D19 JUMP JUMPDEST SWAP1 POP DUP3 DUP2 MSTORE PUSH1 0x20 DUP2 ADD DUP5 DUP5 DUP5 ADD GT ISZERO PUSH2 0x302E JUMPI PUSH2 0x302D PUSH2 0x2CB7 JUMP JUMPDEST JUMPDEST PUSH2 0x3039 DUP5 DUP3 DUP6 PUSH2 0x2D63 JUMP JUMPDEST POP SWAP4 SWAP3 POP POP POP JUMP JUMPDEST PUSH0 DUP3 PUSH1 0x1F DUP4 ADD SLT PUSH2 0x3055 JUMPI PUSH2 0x3054 PUSH2 0x2CB3 JUMP JUMPDEST JUMPDEST DUP2 CALLDATALOAD PUSH2 0x3065 DUP5 DUP3 PUSH1 0x20 DUP7 ADD PUSH2 0x3000 JUMP JUMPDEST SWAP2 POP POP SWAP3 SWAP2 POP POP JUMP JUMPDEST PUSH0 PUSH0 PUSH0 PUSH0 PUSH0 PUSH0 PUSH0 PUSH1 0xE0 DUP9 DUP11 SUB SLT ISZERO PUSH2 0x3089 JUMPI PUSH2 0x3088 PUSH2 0x288E JUMP JUMPDEST JUMPDEST PUSH0 DUP9 ADD CALLDATALOAD PUSH8 0xFFFFFFFFFFFFFFFF DUP2 GT ISZERO PUSH2 0x30A6 JUMPI PUSH2 0x30A5 PUSH2 0x2892 JUMP JUMPDEST JUMPDEST PUSH2 0x30B2 DUP11 DUP3 DUP12 ADD PUSH2 0x3041 JUMP JUMPDEST SWAP8 POP POP PUSH1 0x20 DUP9 ADD CALLDATALOAD PUSH8 0xFFFFFFFFFFFFFFFF DUP2 GT ISZERO PUSH2 0x30D3 JUMPI PUSH2 0x30D2 PUSH2 0x2892 JUMP JUMPDEST JUMPDEST PUSH2 0x30DF DUP11 DUP3 DUP12 ADD PUSH2 0x3041 JUMP JUMPDEST SWAP7 POP POP PUSH1 0x40 PUSH2 0x30F0 DUP11 DUP3 DUP12 ADD PUSH2 0x29C2 JUMP JUMPDEST SWAP6 POP POP PUSH1 0x60 PUSH2 0x3101 DUP11 DUP3 DUP12 ADD PUSH2 0x298F JUMP JUMPDEST SWAP5 POP POP PUSH1 0x80 PUSH2 0x3112 DUP11 DUP3 DUP12 ADD PUSH2 0x298F JUMP JUMPDEST SWAP4 POP POP PUSH1 0xA0 PUSH2 0x3123 DUP11 DUP3 DUP12 ADD PUSH2 0x298F JUMP JUMPDEST SWAP3 POP POP PUSH1 0xC0 PUSH2 0x3134 DUP11 DUP3 DUP12 ADD PUSH2 0x298F JUMP JUMPDEST SWAP2 POP POP SWAP3 SWAP6 SWAP9 SWAP2 SWAP5 SWAP8 POP SWAP3 SWAP6 POP JUMP JUMPDEST PUSH32 0x4E487B7100000000000000000000000000000000000000000000000000000000 PUSH0 MSTORE PUSH1 0x11 PUSH1 0x4 MSTORE PUSH1 0x24 PUSH0 REVERT JUMPDEST PUSH0 PUSH2 0x317A DUP3 PUSH2 0x29A3 JUMP JUMPDEST SWAP2 POP PUSH2 0x3185 DUP4 PUSH2 0x29A3 JUMP JUMPDEST SWAP3 POP DUP3 DUP3 ADD SWAP1 POP DUP1 DUP3 GT ISZERO PUSH2 0x319D JUMPI PUSH2 0x319C PUSH2 0x3143 JUMP JUMPDEST JUMPDEST SWAP3 SWAP2 POP POP JUMP JUMPDEST PUSH32 0x4E487B7100000000000000000000000000000000000000000000000000000000 PUSH0 MSTORE PUSH1 0x22 PUSH1 0x4 MSTORE PUSH1 0x24 PUSH0 REVERT JUMPDEST PUSH0 PUSH1 0x2 DUP3 DIV SWAP1 POP PUSH1 0x1 DUP3 AND DUP1 PUSH2 0x31E7 JUMPI PUSH1 0x7F DUP3 AND SWAP2 POP JUMPDEST PUSH1 0x20 DUP3 LT DUP2 SUB PUSH2 0x31FA JUMPI PUSH2 0x31F9 PUSH2 0x31A3 JUMP JUMPDEST JUMPDEST POP SWAP2 SWAP1 POP JUMP JUMPDEST PUSH32 0x5265636569766572206E6F742077686974656C69737465640000000000000000 PUSH0 DUP3 ADD MSTORE POP JUMP JUMPDEST PUSH0 PUSH2 0x3234 PUSH1 0x18 DUP4 PUSH2 0x2A1E JUMP JUMPDEST SWAP2 POP PUSH2 0x323F DUP3 PUSH2 0x3200 JUMP JUMPDEST PUSH1 0x20 DUP3 ADD SWAP1 POP SWAP2 SWAP1 POP JUMP JUMPDEST PUSH0 PUSH1 0x20 DUP3 ADD SWAP1 POP DUP2 DUP2 SUB PUSH0 DUP4 ADD MSTORE PUSH2 0x3261 DUP2 PUSH2 0x3228 JUMP JUMPDEST SWAP1 POP SWAP2 SWAP1 POP JUMP JUMPDEST PUSH0 PUSH2 0x3272 DUP3 PUSH2 0x29A3 JUMP JUMPDEST SWAP2 POP PUSH2 0x327D DUP4 PUSH2 0x29A3 JUMP JUMPDEST SWAP3 POP DUP3 DUP3 SUB SWAP1 POP DUP2 DUP2 GT ISZERO PUSH2 0x3295 JUMPI PUSH2 0x3294 PUSH2 0x3143 JUMP JUMPDEST JUMPDEST SWAP3 SWAP2 POP POP JUMP JUMPDEST PUSH32 0x496E73756666696369656E7420756E6C6F636B65640000000000000000000000 PUSH0 DUP3 ADD MSTORE POP JUMP JUMPDEST PUSH0 PUSH2 0x32CF PUSH1 0x15 DUP4 PUSH2 0x2A1E JUMP JUMPDEST SWAP2 POP PUSH2 0x32DA DUP3 PUSH2 0x329B JUMP JUMPDEST PUSH1 0x20 DUP3 ADD SWAP1 POP SWAP2 SWAP1 POP JUMP JUMPDEST PUSH0 PUSH1 0x20 DUP3 ADD SWAP1 POP DUP2 DUP2 SUB PUSH0 DUP4 ADD MSTORE PUSH2 0x32FC DUP2 PUSH2 0x32C3 JUMP JUMPDEST SWAP1 POP SWAP2 SWAP1 POP JUMP JUMPDEST PUSH32 0x43726F73732D636861696E207265636569766572206E6F742077686974656C69 PUSH0 DUP3 ADD MSTORE PUSH32 0x7374656400000000000000000000000000000000000000000000000000000000 PUSH1 0x20 DUP3 ADD MSTORE POP JUMP JUMPDEST PUSH0 PUSH2 0x335D PUSH1 0x24 DUP4 PUSH2 0x2A1E JUMP JUMPDEST SWAP2 POP PUSH2 0x3368 DUP3 PUSH2 0x3303 JUMP JUMPDEST PUSH1 0x40 DUP3 ADD SWAP1 POP SWAP2 SWAP1 POP JUMP JUMPDEST PUSH0 PUSH1 0x20 DUP3 ADD SWAP1 POP DUP2 DUP2 SUB PUSH0 DUP4 ADD MSTORE PUSH2 0x338A DUP2 PUSH2 0x3351 JUMP JUMPDEST SWAP1 POP SWAP2 SWAP1 POP JUMP JUMPDEST PUSH2 0x339A DUP2 PUSH2 0x2F05 JUMP JUMPDEST DUP3 MSTORE POP POP JUMP JUMPDEST PUSH2 0x33A9 DUP2 PUSH2 0x2968 JUMP JUMPDEST DUP3 MSTORE POP POP JUMP JUMPDEST PUSH0 PUSH1 0x60 DUP3 ADD SWAP1 POP PUSH2 0x33C2 PUSH0 DUP4 ADD DUP7 PUSH2 0x3391 JUMP JUMPDEST PUSH2 0x33CF PUSH1 0x20 DUP4 ADD DUP6 PUSH2 0x33A0 JUMP JUMPDEST PUSH2 0x33DC PUSH1 0x40 DUP4 ADD DUP5 PUSH2 0x2AA4 JUMP JUMPDEST SWAP5 SWAP4 POP POP POP POP JUMP JUMPDEST PUSH0 PUSH2 0x33EE DUP3 PUSH2 0x29A3 JUMP JUMPDEST SWAP2 POP PUSH2 0x33F9 DUP4 PUSH2 0x29A3 JUMP JUMPDEST SWAP3 POP DUP3 DUP3 MUL PUSH2 0x3407 DUP2 PUSH2 0x29A3 JUMP JUMPDEST SWAP2 POP DUP3 DUP3 DIV DUP5 EQ DUP4 ISZERO OR PUSH2 0x341E JUMPI PUSH2 0x341D PUSH2 0x3143 JUMP JUMPDEST JUMPDEST POP SWAP3 SWAP2 POP POP JUMP JUMPDEST PUSH32 0x546F74616C20736861726573206D757374206265206772656174657220746861 PUSH0 DUP3 ADD MSTORE PUSH32 0x6E207A65726F0000000000000000000000000000000000000000000000000000 PUSH1 0x20 DUP3 ADD MSTORE POP JUMP JUMPDEST PUSH0 PUSH2 0x347F PUSH1 0x26 DUP4 PUSH2 0x2A1E JUMP JUMPDEST SWAP2 POP PUSH2 0x348A DUP3 PUSH2 0x3425 JUMP JUMPDEST PUSH1 0x40 DUP3 ADD SWAP1 POP SWAP2 SWAP1 POP JUMP JUMPDEST PUSH0 PUSH1 0x20 DUP3 ADD SWAP1 POP DUP2 DUP2 SUB PUSH0 DUP4 ADD MSTORE PUSH2 0x34AC DUP2 PUSH2 0x3473 JUMP JUMPDEST SWAP1 POP SWAP2 SWAP1 POP JUMP JUMPDEST PUSH0 DUP2 SWAP1 POP SWAP2 SWAP1 POP JUMP JUMPDEST PUSH0 PUSH2 0x34D6 PUSH2 0x34D1 PUSH2 0x34CC DUP5 PUSH2 0x34B3 JUMP JUMPDEST PUSH2 0x2C14 JUMP JUMPDEST PUSH2 0x2F05 JUMP JUMPDEST SWAP1 POP SWAP2 SWAP1 POP JUMP JUMPDEST PUSH2 0x34E6 DUP2 PUSH2 0x34BC JUMP JUMPDEST DUP3 MSTORE POP POP JUMP JUMPDEST PUSH0 PUSH1 0x20 DUP3 ADD SWAP1 POP PUSH2 0x34FF PUSH0 DUP4 ADD DUP5 PUSH2 0x34DD JUMP JUMPDEST SWAP3 SWAP2 POP POP JUMP JUMPDEST PUSH0 PUSH1 0x20 DUP3 ADD SWAP1 POP PUSH2 0x3518 PUSH0 DUP4 ADD DUP5 PUSH2 0x33A0 JUMP JUMPDEST SWAP3 SWAP2 POP POP JUMP JUMPDEST PUSH0 DUP2 MLOAD SWAP1 POP PUSH2 0x352C DUP2 PUSH2 0x2B25 JUMP JUMPDEST SWAP3 SWAP2 POP POP JUMP JUMPDEST PUSH0 PUSH1 0x20 DUP3 DUP5 SUB SLT ISZERO PUSH2 0x3547 JUMPI PUSH2 0x3546 PUSH2 0x288E JUMP JUMPDEST JUMPDEST PUSH0 PUSH2 0x3554 DUP5 DUP3 DUP6 ADD PUSH2 0x351E JUMP JUMPDEST SWAP2 POP POP SWAP3 SWAP2 POP POP JUMP JUMPDEST PUSH0 PUSH1 0x40 DUP3 ADD SWAP1 POP PUSH2 0x3570 PUSH0 DUP4 ADD DUP6 PUSH2 0x33A0 JUMP JUMPDEST PUSH2 0x357D PUSH1 0x20 DUP4 ADD DUP5 PUSH2 0x2B7A JUMP JUMPDEST SWAP4 SWAP3 POP POP POP JUMP JUMPDEST PUSH0 PUSH1 0x60 DUP3 ADD SWAP1 POP PUSH2 0x3597 PUSH0 DUP4 ADD DUP7 PUSH2 0x33A0 JUMP JUMPDEST PUSH2 0x35A4 PUSH1 0x20 DUP4 ADD DUP6 PUSH2 0x2AA4 JUMP JUMPDEST PUSH2 0x35B1 PUSH1 0x40 DUP4 ADD DUP5 PUSH2 0x2AA4 JUMP JUMPDEST SWAP5 SWAP4 POP POP POP POP JUMP JUMPDEST PUSH0 DUP2 SWAP1 POP DUP2 PUSH0 MSTORE PUSH1 0x20 PUSH0 KECCAK256 SWAP1 POP SWAP2 SWAP1 POP JUMP JUMPDEST PUSH0 PUSH1 0x20 PUSH1 0x1F DUP4 ADD DIV SWAP1 POP SWAP2 SWAP1 POP JUMP JUMPDEST PUSH0 DUP3 DUP3 SHL SWAP1 POP SWAP3 SWAP2 POP POP JUMP JUMPDEST PUSH0 PUSH1 0x8 DUP4 MUL PUSH2 0x3615 PUSH32 0xFFFFFFFFFFFFFFFFFFFFFFFFFFFFFFFFFFFFFFFFFFFFFFFFFFFFFFFFFFFFFFFF DUP3 PUSH2 0x35DA JUMP JUMPDEST PUSH2 0x361F DUP7 DUP4 PUSH2 0x35DA JUMP JUMPDEST SWAP6 POP DUP1 NOT DUP5 AND SWAP4 POP DUP1 DUP7 AND DUP5 OR SWAP3 POP POP POP SWAP4 SWAP3 POP POP POP JUMP JUMPDEST PUSH0 PUSH2 0x3651 PUSH2 0x364C PUSH2 0x3647 DUP5 PUSH2 0x29A3 JUMP JUMPDEST PUSH2 0x2C14 JUMP JUMPDEST PUSH2 0x29A3 JUMP JUMPDEST SWAP1 POP SWAP2 SWAP1 POP JUMP JUMPDEST PUSH0 DUP2 SWAP1 POP SWAP2 SWAP1 POP JUMP JUMPDEST PUSH2 0x366A DUP4 PUSH2 0x3637 JUMP JUMPDEST PUSH2 0x367E PUSH2 0x3676 DUP3 PUSH2 0x3658 JUMP JUMPDEST DUP5 DUP5 SLOAD PUSH2 0x35E6 JUMP JUMPDEST DUP3 SSTORE POP POP POP POP JUMP JUMPDEST PUSH0 PUSH0 SWAP1 POP SWAP1 JUMP JUMPDEST PUSH2 0x3695 PUSH2 0x3686 JUMP JUMPDEST PUSH2 0x36A0 DUP2 DUP5 DUP5 PUSH2 0x3661 JUMP JUMPDEST POP POP POP JUMP JUMPDEST JUMPDEST DUP2 DUP2 LT ISZERO PUSH2 0x36C3 JUMPI PUSH2 0x36B8 PUSH0 DUP3 PUSH2 0x368D JUMP JUMPDEST PUSH1 0x1 DUP2 ADD SWAP1 POP PUSH2 0x36A6 JUMP JUMPDEST POP POP JUMP JUMPDEST PUSH1 0x1F DUP3 GT ISZERO PUSH2 0x3708 JUMPI PUSH2 0x36D9 DUP2 PUSH2 0x35B9 JUMP JUMPDEST PUSH2 0x36E2 DUP5 PUSH2 0x35CB JUMP JUMPDEST DUP2 ADD PUSH1 0x20 DUP6 LT ISZERO PUSH2 0x36F1 JUMPI DUP2 SWAP1 POP JUMPDEST PUSH2 0x3705 PUSH2 0x36FD DUP6 PUSH2 0x35CB JUMP JUMPDEST DUP4 ADD DUP3 PUSH2 0x36A5 JUMP JUMPDEST POP POP JUMPDEST POP POP POP JUMP JUMPDEST PUSH0 DUP3 DUP3 SHR SWAP1 POP SWAP3 SWAP2 POP POP JUMP JUMPDEST PUSH0 PUSH2 0x3728 PUSH0 NOT DUP5 PUSH1 0x8 MUL PUSH2 0x370D JUMP JUMPDEST NOT DUP1 DUP4 AND SWAP2 POP POP SWAP3 SWAP2 POP POP JUMP JUMPDEST PUSH0 PUSH2 0x3740 DUP4 DUP4 PUSH2 0x3719 JUMP JUMPDEST SWAP2 POP DUP3 PUSH1 0x2 MUL DUP3 OR SWAP1 POP SWAP3 SWAP2 POP POP JUMP JUMPDEST PUSH2 0x3759 DUP3 PUSH2 0x2A14 JUMP JUMPDEST PUSH8 0xFFFFFFFFFFFFFFFF DUP2 GT ISZERO PUSH2 0x3772 JUMPI PUSH2 0x3771 PUSH2 0x2CBB JUMP JUMPDEST JUMPDEST PUSH2 0x377C DUP3 SLOAD PUSH2 0x31D0 JUMP JUMPDEST PUSH2 0x3787 DUP3 DUP3 DUP6 PUSH2 0x36C7 JUMP JUMPDEST PUSH0 PUSH1 0x20 SWAP1 POP PUSH1 0x1F DUP4 GT PUSH1 0x1 DUP2 EQ PUSH2 0x37B8 JUMPI PUSH0 DUP5 ISZERO PUSH2 0x37A6 JUMPI DUP3 DUP8 ADD MLOAD SWAP1 POP JUMPDEST PUSH2 0x37B0 DUP6 DUP3 PUSH2 0x3735 JUMP JUMPDEST DUP7 SSTORE POP PUSH2 0x3817 JUMP JUMPDEST PUSH1 0x1F NOT DUP5 AND PUSH2 0x37C6 DUP7 PUSH2 0x35B9 JUMP JUMPDEST PUSH0 JUMPDEST DUP3 DUP2 LT ISZERO PUSH2 0x37ED JUMPI DUP5 DUP10 ADD MLOAD DUP3 SSTORE PUSH1 0x1 DUP3 ADD SWAP2 POP PUSH1 0x20 DUP6 ADD SWAP5 POP PUSH1 0x20 DUP2 ADD SWAP1 POP PUSH2 0x37C8 JUMP JUMPDEST DUP7 DUP4 LT ISZERO PUSH2 0x380A JUMPI DUP5 DUP10 ADD MLOAD PUSH2 0x3806 PUSH1 0x1F DUP10 AND DUP3 PUSH2 0x3719 JUMP JUMPDEST DUP4 SSTORE POP JUMPDEST PUSH1 0x1 PUSH1 0x2 DUP9 MUL ADD DUP9 SSTORE POP POP POP JUMPDEST POP POP POP POP POP POP JUMP JUMPDEST PUSH0 DUP2 MLOAD SWAP1 POP SWAP2 SWAP1 POP JUMP JUMPDEST PUSH0 DUP2 SWAP1 POP SWAP3 SWAP2 POP POP JUMP JUMPDEST PUSH0 PUSH2 0x383D DUP3 PUSH2 0x381F JUMP JUMPDEST PUSH2 0x3847 DUP2 DUP6 PUSH2 0x3829 JUMP JUMPDEST SWAP4 POP PUSH2 0x3857 DUP2 DUP6 PUSH1 0x20 DUP7 ADD PUSH2 0x2A2E JUMP JUMPDEST DUP1 DUP5 ADD SWAP2 POP POP SWAP3 SWAP2 POP POP JUMP JUMPDEST PUSH0 PUSH2 0x386E DUP3 DUP5 PUSH2 0x3833 JUMP JUMPDEST SWAP2 POP DUP2 SWAP1 POP SWAP3 SWAP2 POP POP JUMP INVALID LOG2 PUSH5 0x6970667358 0x22 SLT KECCAK256 MULMOD PUSH22 0xFA70692F3EBEA0E374CAD6627675A6D8A550B62D5EE6 DUP16 0xBF SELFBALANCE JUMPDEST GAS 0x29 PUSH11 0x6364736F6C634300081E00 CALLER "
				},
				"gasEstimates": {
					"creation": {
						"codeDepositCost": "2902200",
						"executionCost": "infinite",
						"totalCost": "infinite"
					},
					"external": {
						"DEFAULT_ADMIN_ROLE()": "374",
						"PROXY_ROLE()": "413",
						"UPGRADER_ROLE()": "457",
						"UPGRADE_INTERFACE_VERSION()": "infinite",
						"aksToken()": "infinite",
						"allowance(address,address)": "infinite",
						"approve(address,uint256)": "infinite",
						"balanceOf(address)": "2969",
						"basePricePerShare()": "2535",
						"burn(uint256)": "infinite",
						"decimals()": "472",
						"forceBurn(address,uint256)": "infinite",
						"getCurrentPrice(uint256)": "infinite",
						"getRoleAdmin(bytes32)": "infinite",
						"grantRole(bytes32,address)": "infinite",
						"hasRole(bytes32,address)": "3218",
						"initialize(string,string,uint256,address,address,address,address)": "infinite",
						"lockShares(address,uint256)": "infinite",
						"lockedShares(address)": "2868",
						"mint(address,uint256)": "infinite",
						"name()": "infinite",
						"proxiableUUID()": "infinite",
						"renounceRole(bytes32,address)": "infinite",
						"revokeRole(bytes32,address)": "infinite",
						"setWhitelisted(address,bool)": "infinite",
						"supportsInterface(bytes4)": "764",
						"symbol()": "infinite",
						"tokensBridge()": "infinite",
						"totalSupply()": "2530",
						"transfer(address,uint256)": "infinite",
						"transferCrossChain(uint64,address,uint256)": "infinite",
						"transferFrom(address,address,uint256)": "infinite",
						"unlockShares(address)": "infinite",
						"updatePricingModel(uint256)": "25146",
						"upgradeToAndCall(address,bytes)": "infinite",
						"whitelisted(address)": "2900"
					},
					"internal": {
						"_authorizeUpgrade(address)": "infinite"
					}
				},
				"methodIdentifiers": {
					"DEFAULT_ADMIN_ROLE()": "a217fddf",
					"PROXY_ROLE()": "e48bf15b",
					"UPGRADER_ROLE()": "f72c0d8b",
					"UPGRADE_INTERFACE_VERSION()": "ad3cb1cc",
					"aksToken()": "3efb0be3",
					"allowance(address,address)": "dd62ed3e",
					"approve(address,uint256)": "095ea7b3",
					"balanceOf(address)": "70a08231",
					"basePricePerShare()": "f7154b3c",
					"burn(uint256)": "42966c68",
					"decimals()": "313ce567",
					"forceBurn(address,uint256)": "e2d6f634",
					"getCurrentPrice(uint256)": "c55d0f56",
					"getRoleAdmin(bytes32)": "248a9ca3",
					"grantRole(bytes32,address)": "2f2ff15d",
					"hasRole(bytes32,address)": "91d14854",
					"initialize(string,string,uint256,address,address,address,address)": "dea7f112",
					"lockShares(address,uint256)": "05fbf448",
					"lockedShares(address)": "e336ac44",
					"mint(address,uint256)": "40c10f19",
					"name()": "06fdde03",
					"proxiableUUID()": "52d1902d",
					"renounceRole(bytes32,address)": "36568abe",
					"revokeRole(bytes32,address)": "d547741f",
					"setWhitelisted(address,bool)": "9281aa0b",
					"supportsInterface(bytes4)": "01ffc9a7",
					"symbol()": "95d89b41",
					"tokensBridge()": "9081e644",
					"totalSupply()": "18160ddd",
					"transfer(address,uint256)": "a9059cbb",
					"transferCrossChain(uint64,address,uint256)": "a14d707c",
					"transferFrom(address,address,uint256)": "23b872dd",
					"unlockShares(address)": "c255f8c8",
					"updatePricingModel(uint256)": "8d898e34",
					"upgradeToAndCall(address,bytes)": "4f1ef286",
					"whitelisted(address)": "d936547e"
				}
			},
			"storageLayout": {
				"storage": [
					{
						"astId": 2844,
						"contract": "contracts/KFShares.sol:KFShares",
						"label": "aksToken",
						"offset": 0,
						"slot": "0",
						"type": "t_contract(IAKSStablecoin)2772"
					},
					{
						"astId": 2847,
						"contract": "contracts/KFShares.sol:KFShares",
						"label": "tokensBridge",
						"offset": 0,
						"slot": "1",
						"type": "t_contract(ITokensBridge)2815"
					},
					{
						"astId": 2849,
						"contract": "contracts/KFShares.sol:KFShares",
						"label": "basePricePerShare",
						"offset": 0,
						"slot": "2",
						"type": "t_uint256"
					},
					{
						"astId": 2853,
						"contract": "contracts/KFShares.sol:KFShares",
						"label": "lockedShares",
						"offset": 0,
						"slot": "3",
						"type": "t_mapping(t_address,t_uint256)"
					},
					{
						"astId": 2857,
						"contract": "contracts/KFShares.sol:KFShares",
						"label": "whitelisted",
						"offset": 0,
						"slot": "4",
						"type": "t_mapping(t_address,t_bool)"
					}
				],
				"types": {
					"t_address": {
						"encoding": "inplace",
						"label": "address",
						"numberOfBytes": "20"
					},
					"t_bool": {
						"encoding": "inplace",
						"label": "bool",
						"numberOfBytes": "1"
					},
					"t_contract(IAKSStablecoin)2772": {
						"encoding": "inplace",
						"label": "contract IAKSStablecoin",
						"numberOfBytes": "20"
					},
					"t_contract(ITokensBridge)2815": {
						"encoding": "inplace",
						"label": "contract ITokensBridge",
						"numberOfBytes": "20"
					},
					"t_mapping(t_address,t_bool)": {
						"encoding": "mapping",
						"key": "t_address",
						"label": "mapping(address => bool)",
						"numberOfBytes": "32",
						"value": "t_bool"
					},
					"t_mapping(t_address,t_uint256)": {
						"encoding": "mapping",
						"key": "t_address",
						"label": "mapping(address => uint256)",
						"numberOfBytes": "32",
						"value": "t_uint256"
					},
					"t_uint256": {
						"encoding": "inplace",
						"label": "uint256",
						"numberOfBytes": "32"
					}
				}
			},
			"userdoc": {
				"kind": "user",
				"methods": {},
				"version": 1
			}
		}
	}
}