{
	"contracts/GovernmentRegistry.sol": {
		"GovernmentRegistry": {
			"abi": [
				{
					"inputs": [],
					"stateMutability": "nonpayable",
					"type": "constructor"
				},
				{
					"inputs": [],
					"name": "AccessControlBadConfirmation",
					"type": "error"
				},
				{
					"inputs": [
						{
							"internalType": "address",
							"name": "account",
							"type": "address"
						},
						{
							"internalType": "bytes32",
							"name": "neededRole",
							"type": "bytes32"
						}
					],
					"name": "AccessControlUnauthorizedAccount",
					"type": "error"
				},
				{
					"anonymous": false,
					"inputs": [
						{
							"indexed": true,
							"internalType": "address",
							"name": "authority",
							"type": "address"
						},
						{
							"indexed": false,
							"internalType": "string",
							"name": "name",
							"type": "string"
						},
						{
							"indexed": false,
							"internalType": "string",
							"name": "jurisdiction",
							"type": "string"
						}
					],
					"name": "AuthorityAdded",
					"type": "event"
				},
				{
					"anonymous": false,
					"inputs": [
						{
							"indexed": true,
							"internalType": "address",
							"name": "authority",
							"type": "address"
						}
					],
					"name": "AuthorityDeactivated",
					"type": "event"
				},
				{
					"anonymous": false,
					"inputs": [
						{
							"indexed": true,
							"internalType": "address",
							"name": "authority",
							"type": "address"
						},
						{
							"indexed": false,
							"internalType": "string",
							"name": "newEndpoint",
							"type": "string"
						}
					],
					"name": "AuthorityUpdated",
					"type": "event"
				},
				{
					"anonymous": false,
					"inputs": [
						{
							"indexed": true,
							"internalType": "bytes32",
							"name": "role",
							"type": "bytes32"
						},
						{
							"indexed": true,
							"internalType": "bytes32",
							"name": "previousAdminRole",
							"type": "bytes32"
						},
						{
							"indexed": true,
							"internalType": "bytes32",
							"name": "newAdminRole",
							"type": "bytes32"
						}
					],
					"name": "RoleAdminChanged",
					"type": "event"
				},
				{
					"anonymous": false,
					"inputs": [
						{
							"indexed": true,
							"internalType": "bytes32",
							"name": "role",
							"type": "bytes32"
						},
						{
							"indexed": true,
							"internalType": "address",
							"name": "account",
							"type": "address"
						},
						{
							"indexed": true,
							"internalType": "address",
							"name": "sender",
							"type": "address"
						}
					],
					"name": "RoleGranted",
					"type": "event"
				},
				{
					"anonymous": false,
					"inputs": [
						{
							"indexed": true,
							"internalType": "bytes32",
							"name": "role",
							"type": "bytes32"
						},
						{
							"indexed": true,
							"internalType": "address",
							"name": "account",
							"type": "address"
						},
						{
							"indexed": true,
							"internalType": "address",
							"name": "sender",
							"type": "address"
						}
					],
					"name": "RoleRevoked",
					"type": "event"
				},
				{
					"inputs": [],
					"name": "DEFAULT_ADMIN_ROLE",
					"outputs": [
						{
							"internalType": "bytes32",
							"name": "",
							"type": "bytes32"
						}
					],
					"stateMutability": "view",
					"type": "function"
				},
				{
					"inputs": [],
					"name": "VERIFIER_ROLE",
					"outputs": [
						{
							"internalType": "bytes32",
							"name": "",
							"type": "bytes32"
						}
					],
					"stateMutability": "view",
					"type": "function"
				},
				{
					"inputs": [
						{
							"internalType": "address",
							"name": "authorityAddress",
							"type": "address"
						},
						{
							"internalType": "string",
							"name": "name",
							"type": "string"
						},
						{
							"internalType": "string",
							"name": "jurisdiction",
							"type": "string"
						},
						{
							"internalType": "string",
							"name": "apiEndpoint",
							"type": "string"
						}
					],
					"name": "addAuthority",
					"outputs": [],
					"stateMutability": "nonpayable",
					"type": "function"
				},
				{
					"inputs": [
						{
							"internalType": "address",
							"name": "",
							"type": "address"
						}
					],
					"name": "authorities",
					"outputs": [
						{
							"internalType": "string",
							"name": "name",
							"type": "string"
						},
						{
							"internalType": "string",
							"name": "jurisdiction",
							"type": "string"
						},
						{
							"internalType": "string",
							"name": "apiEndpoint",
							"type": "string"
						},
						{
							"internalType": "bool",
							"name": "isActive",
							"type": "bool"
						},
						{
							"internalType": "uint256",
							"name": "addedAt",
							"type": "uint256"
						}
					],
					"stateMutability": "view",
					"type": "function"
				},
				{
					"inputs": [
						{
							"internalType": "uint256",
							"name": "",
							"type": "uint256"
						}
					],
					"name": "authorityAddresses",
					"outputs": [
						{
							"internalType": "address",
							"name": "",
							"type": "address"
						}
					],
					"stateMutability": "view",
					"type": "function"
				},
				{
					"inputs": [
						{
							"internalType": "address",
							"name": "authorityAddress",
							"type": "address"
						}
					],
					"name": "deactivateAuthority",
					"outputs": [],
					"stateMutability": "nonpayable",
					"type": "function"
				},
				{
					"inputs": [],
					"name": "getActiveAuthorities",
					"outputs": [
						{
							"internalType": "address[]",
							"name": "",
							"type": "address[]"
						}
					],
					"stateMutability": "view",
					"type": "function"
				},
				{
					"inputs": [],
					"name": "getAllAuthorities",
					"outputs": [
						{
							"internalType": "address[]",
							"name": "",
							"type": "address[]"
						}
					],
					"stateMutability": "view",
					"type": "function"
				},
				{
					"inputs": [
						{
							"internalType": "address",
							"name": "authorityAddress",
							"type": "address"
						}
					],
					"name": "getAuthorityInfo",
					"outputs": [
						{
							"internalType": "string",
							"name": "name",
							"type": "string"
						},
						{
							"internalType": "string",
							"name": "jurisdiction",
							"type": "string"
						},
						{
							"internalType": "string",
							"name": "apiEndpoint",
							"type": "string"
						},
						{
							"internalType": "bool",
							"name": "isActive",
							"type": "bool"
						},
						{
							"internalType": "uint256",
							"name": "addedAt",
							"type": "uint256"
						}
					],
					"stateMutability": "view",
					"type": "function"
				},
				{
					"inputs": [
						{
							"internalType": "bytes32",
							"name": "role",
							"type": "bytes32"
						}
					],
					"name": "getRoleAdmin",
					"outputs": [
						{
							"internalType": "bytes32",
							"name": "",
							"type": "bytes32"
						}
					],
					"stateMutability": "view",
					"type": "function"
				},
				{
					"inputs": [
						{
							"internalType": "bytes32",
							"name": "role",
							"type": "bytes32"
						},
						{
							"internalType": "address",
							"name": "account",
							"type": "address"
						}
					],
					"name": "grantRole",
					"outputs": [],
					"stateMutability": "nonpayable",
					"type": "function"
				},
				{
					"inputs": [
						{
							"internalType": "bytes32",
							"name": "role",
							"type": "bytes32"
						},
						{
							"internalType": "address",
							"name": "account",
							"type": "address"
						}
					],
					"name": "hasRole",
					"outputs": [
						{
							"internalType": "bool",
							"name": "",
							"type": "bool"
						}
					],
					"stateMutability": "view",
					"type": "function"
				},
				{
					"inputs": [
						{
							"internalType": "address",
							"name": "authorityAddress",
							"type": "address"
						}
					],
					"name": "isVerifiedAuthority",
					"outputs": [
						{
							"internalType": "bool",
							"name": "",
							"type": "bool"
						}
					],
					"stateMutability": "view",
					"type": "function"
				},
				{
					"inputs": [
						{
							"internalType": "bytes32",
							"name": "role",
							"type": "bytes32"
						},
						{
							"internalType": "address",
							"name": "callerConfirmation",
							"type": "address"
						}
					],
					"name": "renounceRole",
					"outputs": [],
					"stateMutability": "nonpayable",
					"type": "function"
				},
				{
					"inputs": [
						{
							"internalType": "bytes32",
							"name": "role",
							"type": "bytes32"
						},
						{
							"internalType": "address",
							"name": "account",
							"type": "address"
						}
					],
					"name": "revokeRole",
					"outputs": [],
					"stateMutability": "nonpayable",
					"type": "function"
				},
				{
					"inputs": [
						{
							"internalType": "bytes4",
							"name": "interfaceId",
							"type": "bytes4"
						}
					],
					"name": "supportsInterface",
					"outputs": [
						{
							"internalType": "bool",
							"name": "",
							"type": "bool"
						}
					],
					"stateMutability": "view",
					"type": "function"
				},
				{
					"inputs": [
						{
							"internalType": "address",
							"name": "authorityAddress",
							"type": "address"
						},
						{
							"internalType": "string",
							"name": "newEndpoint",
							"type": "string"
						}
					],
					"name": "updateAuthorityEndpoint",
					"outputs": [],
					"stateMutability": "nonpayable",
					"type": "function"
				}
			],
			"devdoc": {
				"errors": {
					"AccessControlBadConfirmation()": [
						{
							"details": "The caller of a function is not the expected one. NOTE: Don't confuse with {AccessControlUnauthorizedAccount}."
						}
					],
					"AccessControlUnauthorizedAccount(address,bytes32)": [
						{
							"details": "The `account` is missing a role."
						}
					]
				},
				"events": {
					"RoleAdminChanged(bytes32,bytes32,bytes32)": {
						"details": "Emitted when `newAdminRole` is set as ``role``'s admin role, replacing `previousAdminRole` `DEFAULT_ADMIN_ROLE` is the starting admin for all roles, despite {RoleAdminChanged} not being emitted to signal this."
					},
					"RoleGranted(bytes32,address,address)": {
						"details": "Emitted when `account` is granted `role`. `sender` is the account that originated the contract call. This account bears the admin role (for the granted role). Expected in cases where the role was granted using the internal {AccessControl-_grantRole}."
					},
					"RoleRevoked(bytes32,address,address)": {
						"details": "Emitted when `account` is revoked `role`. `sender` is the account that originated the contract call:   - if using `revokeRole`, it is the admin role bearer   - if using `renounceRole`, it is the role bearer (i.e. `account`)"
					}
				},
				"kind": "dev",
				"methods": {
					"getRoleAdmin(bytes32)": {
						"details": "Returns the admin role that controls `role`. See {grantRole} and {revokeRole}. To change a role's admin, use {_setRoleAdmin}."
					},
					"grantRole(bytes32,address)": {
						"details": "Grants `role` to `account`. If `account` had not been already granted `role`, emits a {RoleGranted} event. Requirements: - the caller must have ``role``'s admin role. May emit a {RoleGranted} event."
					},
					"hasRole(bytes32,address)": {
						"details": "Returns `true` if `account` has been granted `role`."
					},
					"renounceRole(bytes32,address)": {
						"details": "Revokes `role` from the calling account. Roles are often managed via {grantRole} and {revokeRole}: this function's purpose is to provide a mechanism for accounts to lose their privileges if they are compromised (such as when a trusted device is misplaced). If the calling account had been revoked `role`, emits a {RoleRevoked} event. Requirements: - the caller must be `callerConfirmation`. May emit a {RoleRevoked} event."
					},
					"revokeRole(bytes32,address)": {
						"details": "Revokes `role` from `account`. If `account` had been granted `role`, emits a {RoleRevoked} event. Requirements: - the caller must have ``role``'s admin role. May emit a {RoleRevoked} event."
					},
					"supportsInterface(bytes4)": {
						"details": "See {IERC165-supportsInterface}."
					}
				},
				"version": 1
			},
			"evm": {
				"assembly": "    /* \"contracts/GovernmentRegistry.sol\":121:4050  contract GovernmentRegistry is AccessControl {... */\n  mstore(0x40, 0x80)\n    /* \"contracts/GovernmentRegistry.sol\":773:848  constructor() {... */\n  callvalue\n  dup1\n  iszero\n  tag_1\n  jumpi\n  revert(0x00, 0x00)\ntag_1:\n  pop\n    /* \"contracts/GovernmentRegistry.sol\":798:840  _grantRole(DEFAULT_ADMIN_ROLE, msg.sender) */\n  tag_4\n    /* \"@openzeppelin/contracts/access/AccessControl.sol\":2232:2236  0x00 */\n  0x00\n    /* \"contracts/GovernmentRegistry.sol\":809:827  DEFAULT_ADMIN_ROLE */\n  0x00\n  shl\n    /* \"contracts/GovernmentRegistry.sol\":829:839  msg.sender */\n  caller\n    /* \"contracts/GovernmentRegistry.sol\":798:808  _grantRole */\n  shl(0x20, tag_5)\n    /* \"contracts/GovernmentRegistry.sol\":798:840  _grantRole(DEFAULT_ADMIN_ROLE, msg.sender) */\n  0x20\n  shr\n  jump\t// in\ntag_4:\n  pop\n    /* \"contracts/GovernmentRegistry.sol\":121:4050  contract GovernmentRegistry is AccessControl {... */\n  jump(tag_6)\n    /* \"@openzeppelin/contracts/access/AccessControl.sol\":6179:6495  function _grantRole(bytes32 role, address account) internal virtual returns (bool) {... */\ntag_5:\n    /* \"@openzeppelin/contracts/access/AccessControl.sol\":6256:6260  bool */\n  0x00\n    /* \"@openzeppelin/contracts/access/AccessControl.sol\":6277:6299  hasRole(role, account) */\n  tag_8\n    /* \"@openzeppelin/contracts/access/AccessControl.sol\":6285:6289  role */\n  dup4\n    /* \"@openzeppelin/contracts/access/AccessControl.sol\":6291:6298  account */\n  dup4\n    /* \"@openzeppelin/contracts/access/AccessControl.sol\":6277:6284  hasRole */\n  shl(0x20, tag_9)\n    /* \"@openzeppelin/contracts/access/AccessControl.sol\":6277:6299  hasRole(role, account) */\n  0x20\n  shr\n  jump\t// in\ntag_8:\n    /* \"@openzeppelin/contracts/access/AccessControl.sol\":6272:6489  if (!hasRole(role, account)) {... */\n  tag_10\n  jumpi\n    /* \"@openzeppelin/contracts/access/AccessControl.sol\":6347:6351  true */\n  0x01\n    /* \"@openzeppelin/contracts/access/AccessControl.sol\":6315:6321  _roles */\n  0x00\n    /* \"@openzeppelin/contracts/access/AccessControl.sol\":6315:6327  _roles[role] */\n  0x00\n    /* \"@openzeppelin/contracts/access/AccessControl.sol\":6322:6326  role */\n  dup6\n    /* \"@openzeppelin/contracts/access/AccessControl.sol\":6315:6327  _roles[role] */\n  dup2\n  mstore\n  0x20\n  add\n  swap1\n  dup2\n  mstore\n  0x20\n  add\n  0x00\n  keccak256\n    /* \"@openzeppelin/contracts/access/AccessControl.sol\":6315:6335  _roles[role].hasRole */\n  0x00\n  add\n    /* \"@openzeppelin/contracts/access/AccessControl.sol\":6315:6344  _roles[role].hasRole[account] */\n  0x00\n    /* \"@openzeppelin/contracts/access/AccessControl.sol\":6336:6343  account */\n  dup5\n    /* \"@openzeppelin/contracts/access/AccessControl.sol\":6315:6344  _roles[role].hasRole[account] */\n  0xffffffffffffffffffffffffffffffffffffffff\n  and\n  0xffffffffffffffffffffffffffffffffffffffff\n  and\n  dup2\n  mstore\n  0x20\n  add\n  swap1\n  dup2\n  mstore\n  0x20\n  add\n  0x00\n  keccak256\n  0x00\n    /* \"@openzeppelin/contracts/access/AccessControl.sol\":6315:6351  _roles[role].hasRole[account] = true */\n  0x0100\n  exp\n  dup2\n  sload\n  dup2\n  0xff\n  mul\n  not\n  and\n  swap1\n  dup4\n  iszero\n  iszero\n  mul\n  or\n  swap1\n  sstore\n  pop\n    /* \"@openzeppelin/contracts/access/AccessControl.sol\":6397:6409  _msgSender() */\n  tag_11\n    /* \"@openzeppelin/contracts/access/AccessControl.sol\":6397:6407  _msgSender */\n  shl(0x20, tag_12)\n    /* \"@openzeppelin/contracts/access/AccessControl.sol\":6397:6409  _msgSender() */\n  0x20\n  shr\n  jump\t// in\ntag_11:\n    /* \"@openzeppelin/contracts/access/AccessControl.sol\":6370:6410  RoleGranted(role, account, _msgSender()) */\n  0xffffffffffffffffffffffffffffffffffffffff\n  and\n    /* \"@openzeppelin/contracts/access/AccessControl.sol\":6388:6395  account */\n  dup3\n    /* \"@openzeppelin/contracts/access/AccessControl.sol\":6370:6410  RoleGranted(role, account, _msgSender()) */\n  0xffffffffffffffffffffffffffffffffffffffff\n  and\n    /* \"@openzeppelin/contracts/access/AccessControl.sol\":6382:6386  role */\n  dup5\n    /* \"@openzeppelin/contracts/access/AccessControl.sol\":6370:6410  RoleGranted(role, account, _msgSender()) */\n  0x2f8788117e7eff1d82e926ec794901d17c78024a50270940304540a733656f0d\n  mload(0x40)\n  mload(0x40)\n  dup1\n  swap2\n  sub\n  swap1\n  log4\n    /* \"@openzeppelin/contracts/access/AccessControl.sol\":6431:6435  true */\n  0x01\n    /* \"@openzeppelin/contracts/access/AccessControl.sol\":6424:6435  return true */\n  swap1\n  pop\n  jump(tag_7)\n    /* \"@openzeppelin/contracts/access/AccessControl.sol\":6272:6489  if (!hasRole(role, account)) {... */\ntag_10:\n    /* \"@openzeppelin/contracts/access/AccessControl.sol\":6473:6478  false */\n  0x00\n    /* \"@openzeppelin/contracts/access/AccessControl.sol\":6466:6478  return false */\n  swap1\n  pop\n    /* \"@openzeppelin/contracts/access/AccessControl.sol\":6179:6495  function _grantRole(bytes32 role, address account) internal virtual returns (bool) {... */\ntag_7:\n  swap3\n  swap2\n  pop\n  pop\n  jump\t// out\n    /* \"@openzeppelin/contracts/access/AccessControl.sol\":2854:2990  function hasRole(bytes32 role, address account) public view virtual returns (bool) {... */\ntag_9:\n    /* \"@openzeppelin/contracts/access/AccessControl.sol\":2931:2935  bool */\n  0x00\n    /* \"@openzeppelin/contracts/access/AccessControl.sol\":2954:2960  _roles */\n  0x00\n    /* \"@openzeppelin/contracts/access/AccessControl.sol\":2954:2966  _roles[role] */\n  0x00\n    /* \"@openzeppelin/contracts/access/AccessControl.sol\":2961:2965  role */\n  dup5\n    /* \"@openzeppelin/contracts/access/AccessControl.sol\":2954:2966  _roles[role] */\n  dup2\n  mstore\n  0x20\n  add\n  swap1\n  dup2\n  mstore\n  0x20\n  add\n  0x00\n  keccak256\n    /* \"@openzeppelin/contracts/access/AccessControl.sol\":2954:2974  _roles[role].hasRole */\n  0x00\n  add\n    /* \"@openzeppelin/contracts/access/AccessControl.sol\":2954:2983  _roles[role].hasRole[account] */\n  0x00\n    /* \"@openzeppelin/contracts/access/AccessControl.sol\":2975:2982  account */\n  dup4\n    /* \"@openzeppelin/contracts/access/AccessControl.sol\":2954:2983  _roles[role].hasRole[account] */\n  0xffffffffffffffffffffffffffffffffffffffff\n  and\n  0xffffffffffffffffffffffffffffffffffffffff\n  and\n  dup2\n  mstore\n  0x20\n  add\n  swap1\n  dup2\n  mstore\n  0x20\n  add\n  0x00\n  keccak256\n  0x00\n  swap1\n  sload\n  swap1\n  0x0100\n  exp\n  swap1\n  div\n  0xff\n  and\n    /* \"@openzeppelin/contracts/access/AccessControl.sol\":2947:2983  return _roles[role].hasRole[account] */\n  swap1\n  pop\n    /* \"@openzeppelin/contracts/access/AccessControl.sol\":2854:2990  function hasRole(bytes32 role, address account) public view virtual returns (bool) {... */\n  swap3\n  swap2\n  pop\n  pop\n  jump\t// out\n    /* \"@openzeppelin/contracts/utils/Context.sol\":656:752  function _msgSender() internal view virtual returns (address) {... */\ntag_12:\n    /* \"@openzeppelin/contracts/utils/Context.sol\":709:716  address */\n  0x00\n    /* \"@openzeppelin/contracts/utils/Context.sol\":735:745  msg.sender */\n  caller\n    /* \"@openzeppelin/contracts/utils/Context.sol\":728:745  return msg.sender */\n  swap1\n  pop\n    /* \"@openzeppelin/contracts/utils/Context.sol\":656:752  function _msgSender() internal view virtual returns (address) {... */\n  swap1\n  jump\t// out\n    /* \"contracts/GovernmentRegistry.sol\":121:4050  contract GovernmentRegistry is AccessControl {... */\ntag_6:\n  dataSize(sub_0)\n  dup1\n  dataOffset(sub_0)\n  0x00\n  codecopy\n  0x00\n  return\nstop\n\nsub_0: assembly {\n        /* \"contracts/GovernmentRegistry.sol\":121:4050  contract GovernmentRegistry is AccessControl {... */\n      mstore(0x40, 0x80)\n      callvalue\n      dup1\n      iszero\n      tag_1\n      jumpi\n      revert(0x00, 0x00)\n    tag_1:\n      pop\n      jumpi(tag_2, lt(calldatasize, 0x04))\n      shr(0xe0, calldataload(0x00))\n      dup1\n      0x6a4cf7b8\n      gt\n      tag_20\n      jumpi\n      dup1\n      0xb69dab68\n      gt\n      tag_21\n      jumpi\n      dup1\n      0xb69dab68\n      eq\n      tag_15\n      jumpi\n      dup1\n      0xd1d6bc9c\n      eq\n      tag_16\n      jumpi\n      dup1\n      0xd547741f\n      eq\n      tag_17\n      jumpi\n      dup1\n      0xe7705db6\n      eq\n      tag_18\n      jumpi\n      dup1\n      0xfedf2c56\n      eq\n      tag_19\n      jumpi\n      jump(tag_2)\n    tag_21:\n      dup1\n      0x6a4cf7b8\n      eq\n      tag_11\n      jumpi\n      dup1\n      0x91223d69\n      eq\n      tag_12\n      jumpi\n      dup1\n      0x91d14854\n      eq\n      tag_13\n      jumpi\n      dup1\n      0xa217fddf\n      eq\n      tag_14\n      jumpi\n      jump(tag_2)\n    tag_20:\n      dup1\n      0x31a016b1\n      gt\n      tag_22\n      jumpi\n      dup1\n      0x31a016b1\n      eq\n      tag_7\n      jumpi\n      dup1\n      0x36568abe\n      eq\n      tag_8\n      jumpi\n      dup1\n      0x4e00dabb\n      eq\n      tag_9\n      jumpi\n      dup1\n      0x65e45025\n      eq\n      tag_10\n      jumpi\n      jump(tag_2)\n    tag_22:\n      dup1\n      0x01ffc9a7\n      eq\n      tag_3\n      jumpi\n      dup1\n      0x248a9ca3\n      eq\n      tag_4\n      jumpi\n      dup1\n      0x25d88b0b\n      eq\n      tag_5\n      jumpi\n      dup1\n      0x2f2ff15d\n      eq\n      tag_6\n      jumpi\n    tag_2:\n      revert(0x00, 0x00)\n        /* \"@openzeppelin/contracts/access/AccessControl.sol\":2565:2767  function supportsInterface(bytes4 interfaceId) public view virtual override returns (bool) {... */\n    tag_3:\n      tag_23\n      0x04\n      dup1\n      calldatasize\n      sub\n      dup2\n      add\n      swap1\n      tag_24\n      swap2\n      swap1\n      tag_25\n      jump\t// in\n    tag_24:\n      tag_26\n      jump\t// in\n    tag_23:\n      mload(0x40)\n      tag_27\n      swap2\n      swap1\n      tag_28\n      jump\t// in\n    tag_27:\n      mload(0x40)\n      dup1\n      swap2\n      sub\n      swap1\n      return\n        /* \"@openzeppelin/contracts/access/AccessControl.sol\":3810:3930  function getRoleAdmin(bytes32 role) public view virtual returns (bytes32) {... */\n    tag_4:\n      tag_29\n      0x04\n      dup1\n      calldatasize\n      sub\n      dup2\n      add\n      swap1\n      tag_30\n      swap2\n      swap1\n      tag_31\n      jump\t// in\n    tag_30:\n      tag_32\n      jump\t// in\n    tag_29:\n      mload(0x40)\n      tag_33\n      swap2\n      swap1\n      tag_34\n      jump\t// in\n    tag_33:\n      mload(0x40)\n      dup1\n      swap2\n      sub\n      swap1\n      return\n        /* \"contracts/GovernmentRegistry.sol\":2356:2565  function isVerifiedAuthority(address authorityAddress) external view returns (bool) {... */\n    tag_5:\n      tag_35\n      0x04\n      dup1\n      calldatasize\n      sub\n      dup2\n      add\n      swap1\n      tag_36\n      swap2\n      swap1\n      tag_37\n      jump\t// in\n    tag_36:\n      tag_38\n      jump\t// in\n    tag_35:\n      mload(0x40)\n      tag_39\n      swap2\n      swap1\n      tag_28\n      jump\t// in\n    tag_39:\n      mload(0x40)\n      dup1\n      swap2\n      sub\n      swap1\n      return\n        /* \"@openzeppelin/contracts/access/AccessControl.sol\":4226:4362  function grantRole(bytes32 role, address account) public virtual onlyRole(getRoleAdmin(role)) {... */\n    tag_6:\n      tag_40\n      0x04\n      dup1\n      calldatasize\n      sub\n      dup2\n      add\n      swap1\n      tag_41\n      swap2\n      swap1\n      tag_42\n      jump\t// in\n    tag_41:\n      tag_43\n      jump\t// in\n    tag_40:\n      stop\n        /* \"contracts/GovernmentRegistry.sol\":1626:1987  function updateAuthorityEndpoint(... */\n    tag_7:\n      tag_44\n      0x04\n      dup1\n      calldatasize\n      sub\n      dup2\n      add\n      swap1\n      tag_45\n      swap2\n      swap1\n      tag_46\n      jump\t// in\n    tag_45:\n      tag_47\n      jump\t// in\n    tag_44:\n      stop\n        /* \"@openzeppelin/contracts/access/AccessControl.sol\":5328:5573  function renounceRole(bytes32 role, address callerConfirmation) public virtual {... */\n    tag_8:\n      tag_48\n      0x04\n      dup1\n      calldatasize\n      sub\n      dup2\n      add\n      swap1\n      tag_49\n      swap2\n      swap1\n      tag_42\n      jump\t// in\n    tag_49:\n      tag_50\n      jump\t// in\n    tag_48:\n      stop\n        /* \"contracts/GovernmentRegistry.sol\":2703:3220  function getAuthorityInfo(address authorityAddress) external view returns (... */\n    tag_9:\n      tag_51\n      0x04\n      dup1\n      calldatasize\n      sub\n      dup2\n      add\n      swap1\n      tag_52\n      swap2\n      swap1\n      tag_37\n      jump\t// in\n    tag_52:\n      tag_53\n      jump\t// in\n    tag_51:\n      mload(0x40)\n      tag_54\n      swap6\n      swap5\n      swap4\n      swap3\n      swap2\n      swap1\n      tag_55\n      jump\t// in\n    tag_54:\n      mload(0x40)\n      dup1\n      swap2\n      sub\n      swap1\n      return\n        /* \"contracts/GovernmentRegistry.sol\":3232:4047  function getActiveAuthorities() external view returns (address[] memory) {... */\n    tag_10:\n      tag_56\n      tag_57\n      jump\t// in\n    tag_56:\n      mload(0x40)\n      tag_58\n      swap2\n      swap1\n      tag_59\n      jump\t// in\n    tag_58:\n      mload(0x40)\n      dup1\n      swap2\n      sub\n      swap1\n      return\n        /* \"contracts/GovernmentRegistry.sol\":1999:2344  function deactivateAuthority(address authorityAddress) external onlyRole(DEFAULT_ADMIN_ROLE) {... */\n    tag_11:\n      tag_60\n      0x04\n      dup1\n      calldatasize\n      sub\n      dup2\n      add\n      swap1\n      tag_61\n      swap2\n      swap1\n      tag_37\n      jump\t// in\n    tag_61:\n      tag_62\n      jump\t// in\n    tag_60:\n      stop\n        /* \"contracts/GovernmentRegistry.sol\":430:488  mapping(address => GovernmentAuthority) public authorities */\n    tag_12:\n      tag_63\n      0x04\n      dup1\n      calldatasize\n      sub\n      dup2\n      add\n      swap1\n      tag_64\n      swap2\n      swap1\n      tag_37\n      jump\t// in\n    tag_64:\n      tag_65\n      jump\t// in\n    tag_63:\n      mload(0x40)\n      tag_66\n      swap6\n      swap5\n      swap4\n      swap3\n      swap2\n      swap1\n      tag_55\n      jump\t// in\n    tag_66:\n      mload(0x40)\n      dup1\n      swap2\n      sub\n      swap1\n      return\n        /* \"@openzeppelin/contracts/access/AccessControl.sol\":2854:2990  function hasRole(bytes32 role, address account) public view virtual returns (bool) {... */\n    tag_13:\n      tag_67\n      0x04\n      dup1\n      calldatasize\n      sub\n      dup2\n      add\n      swap1\n      tag_68\n      swap2\n      swap1\n      tag_42\n      jump\t// in\n    tag_68:\n      tag_69\n      jump\t// in\n    tag_67:\n      mload(0x40)\n      tag_70\n      swap2\n      swap1\n      tag_28\n      jump\t// in\n    tag_70:\n      mload(0x40)\n      dup1\n      swap2\n      sub\n      swap1\n      return\n        /* \"@openzeppelin/contracts/access/AccessControl.sol\":2187:2236  bytes32 public constant DEFAULT_ADMIN_ROLE = 0x00 */\n    tag_14:\n      tag_71\n      tag_72\n      jump\t// in\n    tag_71:\n      mload(0x40)\n      tag_73\n      swap2\n      swap1\n      tag_34\n      jump\t// in\n    tag_73:\n      mload(0x40)\n      dup1\n      swap2\n      sub\n      swap1\n      return\n        /* \"contracts/GovernmentRegistry.sol\":495:530  address[] public authorityAddresses */\n    tag_15:\n      tag_74\n      0x04\n      dup1\n      calldatasize\n      sub\n      dup2\n      add\n      swap1\n      tag_75\n      swap2\n      swap1\n      tag_76\n      jump\t// in\n    tag_75:\n      tag_77\n      jump\t// in\n    tag_74:\n      mload(0x40)\n      tag_78\n      swap2\n      swap1\n      tag_79\n      jump\t// in\n    tag_78:\n      mload(0x40)\n      dup1\n      swap2\n      sub\n      swap1\n      return\n        /* \"contracts/GovernmentRegistry.sol\":860:1614  function addAuthority(... */\n    tag_16:\n      tag_80\n      0x04\n      dup1\n      calldatasize\n      sub\n      dup2\n      add\n      swap1\n      tag_81\n      swap2\n      swap1\n      tag_82\n      jump\t// in\n    tag_81:\n      tag_83\n      jump\t// in\n    tag_80:\n      stop\n        /* \"@openzeppelin/contracts/access/AccessControl.sol\":4642:4780  function revokeRole(bytes32 role, address account) public virtual onlyRole(getRoleAdmin(role)) {... */\n    tag_17:\n      tag_84\n      0x04\n      dup1\n      calldatasize\n      sub\n      dup2\n      add\n      swap1\n      tag_85\n      swap2\n      swap1\n      tag_42\n      jump\t// in\n    tag_85:\n      tag_86\n      jump\t// in\n    tag_84:\n      stop\n        /* \"contracts/GovernmentRegistry.sol\":173:239  bytes32 public constant VERIFIER_ROLE = keccak256(\"VERIFIER_ROLE\") */\n    tag_18:\n      tag_87\n      tag_88\n      jump\t// in\n    tag_87:\n      mload(0x40)\n      tag_89\n      swap2\n      swap1\n      tag_34\n      jump\t// in\n    tag_89:\n      mload(0x40)\n      dup1\n      swap2\n      sub\n      swap1\n      return\n        /* \"contracts/GovernmentRegistry.sol\":2577:2691  function getAllAuthorities() external view returns (address[] memory) {... */\n    tag_19:\n      tag_90\n      tag_91\n      jump\t// in\n    tag_90:\n      mload(0x40)\n      tag_92\n      swap2\n      swap1\n      tag_59\n      jump\t// in\n    tag_92:\n      mload(0x40)\n      dup1\n      swap2\n      sub\n      swap1\n      return\n        /* \"@openzeppelin/contracts/access/AccessControl.sol\":2565:2767  function supportsInterface(bytes4 interfaceId) public view virtual override returns (bool) {... */\n    tag_26:\n        /* \"@openzeppelin/contracts/access/AccessControl.sol\":2650:2654  bool */\n      0x00\n        /* \"@openzeppelin/contracts/access/AccessControl.sol\":2688:2720  type(IAccessControl).interfaceId */\n      0x7965db0b00000000000000000000000000000000000000000000000000000000\n        /* \"@openzeppelin/contracts/access/AccessControl.sol\":2673:2720  interfaceId == type(IAccessControl).interfaceId */\n      not(0xffffffffffffffffffffffffffffffffffffffffffffffffffffffff)\n      and\n        /* \"@openzeppelin/contracts/access/AccessControl.sol\":2673:2684  interfaceId */\n      dup3\n        /* \"@openzeppelin/contracts/access/AccessControl.sol\":2673:2720  interfaceId == type(IAccessControl).interfaceId */\n      not(0xffffffffffffffffffffffffffffffffffffffffffffffffffffffff)\n      and\n      eq\n        /* \"@openzeppelin/contracts/access/AccessControl.sol\":2673:2760  interfaceId == type(IAccessControl).interfaceId || super.supportsInterface(interfaceId) */\n      dup1\n      tag_94\n      jumpi\n      pop\n        /* \"@openzeppelin/contracts/access/AccessControl.sol\":2724:2760  super.supportsInterface(interfaceId) */\n      tag_95\n        /* \"@openzeppelin/contracts/access/AccessControl.sol\":2748:2759  interfaceId */\n      dup3\n        /* \"@openzeppelin/contracts/access/AccessControl.sol\":2724:2747  super.supportsInterface */\n      tag_96\n        /* \"@openzeppelin/contracts/access/AccessControl.sol\":2724:2760  super.supportsInterface(interfaceId) */\n      jump\t// in\n    tag_95:\n        /* \"@openzeppelin/contracts/access/AccessControl.sol\":2673:2760  interfaceId == type(IAccessControl).interfaceId || super.supportsInterface(interfaceId) */\n    tag_94:\n        /* \"@openzeppelin/contracts/access/AccessControl.sol\":2666:2760  return interfaceId == type(IAccessControl).interfaceId || super.supportsInterface(interfaceId) */\n      swap1\n      pop\n        /* \"@openzeppelin/contracts/access/AccessControl.sol\":2565:2767  function supportsInterface(bytes4 interfaceId) public view virtual override returns (bool) {... */\n      swap2\n      swap1\n      pop\n      jump\t// out\n        /* \"@openzeppelin/contracts/access/AccessControl.sol\":3810:3930  function getRoleAdmin(bytes32 role) public view virtual returns (bytes32) {... */\n    tag_32:\n        /* \"@openzeppelin/contracts/access/AccessControl.sol\":3875:3882  bytes32 */\n      0x00\n        /* \"@openzeppelin/contracts/access/AccessControl.sol\":3901:3907  _roles */\n      0x00\n        /* \"@openzeppelin/contracts/access/AccessControl.sol\":3901:3913  _roles[role] */\n      0x00\n        /* \"@openzeppelin/contracts/access/AccessControl.sol\":3908:3912  role */\n      dup4\n        /* \"@openzeppelin/contracts/access/AccessControl.sol\":3901:3913  _roles[role] */\n      dup2\n      mstore\n      0x20\n      add\n      swap1\n      dup2\n      mstore\n      0x20\n      add\n      0x00\n      keccak256\n        /* \"@openzeppelin/contracts/access/AccessControl.sol\":3901:3923  _roles[role].adminRole */\n      0x01\n      add\n      sload\n        /* \"@openzeppelin/contracts/access/AccessControl.sol\":3894:3923  return _roles[role].adminRole */\n      swap1\n      pop\n        /* \"@openzeppelin/contracts/access/AccessControl.sol\":3810:3930  function getRoleAdmin(bytes32 role) public view virtual returns (bytes32) {... */\n      swap2\n      swap1\n      pop\n      jump\t// out\n        /* \"contracts/GovernmentRegistry.sol\":2356:2565  function isVerifiedAuthority(address authorityAddress) external view returns (bool) {... */\n    tag_38:\n        /* \"contracts/GovernmentRegistry.sol\":2434:2438  bool */\n      0x00\n        /* \"contracts/GovernmentRegistry.sol\":2458:2469  authorities */\n      0x01\n        /* \"contracts/GovernmentRegistry.sol\":2458:2487  authorities[authorityAddress] */\n      0x00\n        /* \"contracts/GovernmentRegistry.sol\":2470:2486  authorityAddress */\n      dup4\n        /* \"contracts/GovernmentRegistry.sol\":2458:2487  authorities[authorityAddress] */\n      0xffffffffffffffffffffffffffffffffffffffff\n      and\n      0xffffffffffffffffffffffffffffffffffffffff\n      and\n      dup2\n      mstore\n      0x20\n      add\n      swap1\n      dup2\n      mstore\n      0x20\n      add\n      0x00\n      keccak256\n        /* \"contracts/GovernmentRegistry.sol\":2458:2496  authorities[authorityAddress].isActive */\n      0x03\n      add\n      0x00\n      swap1\n      sload\n      swap1\n      0x0100\n      exp\n      swap1\n      div\n      0xff\n      and\n        /* \"contracts/GovernmentRegistry.sol\":2458:2557  authorities[authorityAddress].isActive && ... */\n      dup1\n      iszero\n      tag_99\n      jumpi\n      pop\n        /* \"contracts/GovernmentRegistry.sol\":2517:2557  hasRole(VERIFIER_ROLE, authorityAddress) */\n      tag_100\n        /* \"contracts/GovernmentRegistry.sol\":213:239  keccak256(\"VERIFIER_ROLE\") */\n      0x0ce23c3e399818cfee81a7ab0880f714e53d7672b08df0fa62f2843416e1ea09\n        /* \"contracts/GovernmentRegistry.sol\":2540:2556  authorityAddress */\n      dup4\n        /* \"contracts/GovernmentRegistry.sol\":2517:2524  hasRole */\n      tag_69\n        /* \"contracts/GovernmentRegistry.sol\":2517:2557  hasRole(VERIFIER_ROLE, authorityAddress) */\n      jump\t// in\n    tag_100:\n        /* \"contracts/GovernmentRegistry.sol\":2458:2557  authorities[authorityAddress].isActive && ... */\n    tag_99:\n        /* \"contracts/GovernmentRegistry.sol\":2451:2557  return authorities[authorityAddress].isActive && ... */\n      swap1\n      pop\n        /* \"contracts/GovernmentRegistry.sol\":2356:2565  function isVerifiedAuthority(address authorityAddress) external view returns (bool) {... */\n      swap2\n      swap1\n      pop\n      jump\t// out\n        /* \"@openzeppelin/contracts/access/AccessControl.sol\":4226:4362  function grantRole(bytes32 role, address account) public virtual onlyRole(getRoleAdmin(role)) {... */\n    tag_43:\n        /* \"@openzeppelin/contracts/access/AccessControl.sol\":4300:4318  getRoleAdmin(role) */\n      tag_101\n        /* \"@openzeppelin/contracts/access/AccessControl.sol\":4313:4317  role */\n      dup3\n        /* \"@openzeppelin/contracts/access/AccessControl.sol\":4300:4312  getRoleAdmin */\n      tag_32\n        /* \"@openzeppelin/contracts/access/AccessControl.sol\":4300:4318  getRoleAdmin(role) */\n      jump\t// in\n    tag_101:\n        /* \"@openzeppelin/contracts/access/AccessControl.sol\":2464:2480  _checkRole(role) */\n      tag_103\n        /* \"@openzeppelin/contracts/access/AccessControl.sol\":2475:2479  role */\n      dup2\n        /* \"@openzeppelin/contracts/access/AccessControl.sol\":2464:2474  _checkRole */\n      tag_104\n        /* \"@openzeppelin/contracts/access/AccessControl.sol\":2464:2480  _checkRole(role) */\n      jump\t// in\n    tag_103:\n        /* \"@openzeppelin/contracts/access/AccessControl.sol\":4330:4355  _grantRole(role, account) */\n      tag_106\n        /* \"@openzeppelin/contracts/access/AccessControl.sol\":4341:4345  role */\n      dup4\n        /* \"@openzeppelin/contracts/access/AccessControl.sol\":4347:4354  account */\n      dup4\n        /* \"@openzeppelin/contracts/access/AccessControl.sol\":4330:4340  _grantRole */\n      tag_107\n        /* \"@openzeppelin/contracts/access/AccessControl.sol\":4330:4355  _grantRole(role, account) */\n      jump\t// in\n    tag_106:\n      pop\n        /* \"@openzeppelin/contracts/access/AccessControl.sol\":4226:4362  function grantRole(bytes32 role, address account) public virtual onlyRole(getRoleAdmin(role)) {... */\n      pop\n      pop\n      pop\n      jump\t// out\n        /* \"contracts/GovernmentRegistry.sol\":1626:1987  function updateAuthorityEndpoint(... */\n    tag_47:\n        /* \"contracts/GovernmentRegistry.sol\":213:239  keccak256(\"VERIFIER_ROLE\") */\n      0x0ce23c3e399818cfee81a7ab0880f714e53d7672b08df0fa62f2843416e1ea09\n        /* \"@openzeppelin/contracts/access/AccessControl.sol\":2464:2480  _checkRole(role) */\n      tag_109\n        /* \"@openzeppelin/contracts/access/AccessControl.sol\":2475:2479  role */\n      dup2\n        /* \"@openzeppelin/contracts/access/AccessControl.sol\":2464:2474  _checkRole */\n      tag_104\n        /* \"@openzeppelin/contracts/access/AccessControl.sol\":2464:2480  _checkRole(role) */\n      jump\t// in\n    tag_109:\n        /* \"contracts/GovernmentRegistry.sol\":1789:1800  authorities */\n      0x01\n        /* \"contracts/GovernmentRegistry.sol\":1789:1818  authorities[authorityAddress] */\n      0x00\n        /* \"contracts/GovernmentRegistry.sol\":1801:1817  authorityAddress */\n      dup5\n        /* \"contracts/GovernmentRegistry.sol\":1789:1818  authorities[authorityAddress] */\n      0xffffffffffffffffffffffffffffffffffffffff\n      and\n      0xffffffffffffffffffffffffffffffffffffffff\n      and\n      dup2\n      mstore\n      0x20\n      add\n      swap1\n      dup2\n      mstore\n      0x20\n      add\n      0x00\n      keccak256\n        /* \"contracts/GovernmentRegistry.sol\":1789:1827  authorities[authorityAddress].isActive */\n      0x03\n      add\n      0x00\n      swap1\n      sload\n      swap1\n      0x0100\n      exp\n      swap1\n      div\n      0xff\n      and\n        /* \"contracts/GovernmentRegistry.sol\":1781:1850  require(authorities[authorityAddress].isActive, \"Authority inactive\") */\n      tag_111\n      jumpi\n      mload(0x40)\n      0x08c379a000000000000000000000000000000000000000000000000000000000\n      dup2\n      mstore\n      0x04\n      add\n      tag_112\n      swap1\n      tag_113\n      jump\t// in\n    tag_112:\n      mload(0x40)\n      dup1\n      swap2\n      sub\n      swap1\n      revert\n    tag_111:\n        /* \"contracts/GovernmentRegistry.sol\":1905:1916  newEndpoint */\n      dup2\n        /* \"contracts/GovernmentRegistry.sol\":1861:1872  authorities */\n      0x01\n        /* \"contracts/GovernmentRegistry.sol\":1861:1890  authorities[authorityAddress] */\n      0x00\n        /* \"contracts/GovernmentRegistry.sol\":1873:1889  authorityAddress */\n      dup6\n        /* \"contracts/GovernmentRegistry.sol\":1861:1890  authorities[authorityAddress] */\n      0xffffffffffffffffffffffffffffffffffffffff\n      and\n      0xffffffffffffffffffffffffffffffffffffffff\n      and\n      dup2\n      mstore\n      0x20\n      add\n      swap1\n      dup2\n      mstore\n      0x20\n      add\n      0x00\n      keccak256\n        /* \"contracts/GovernmentRegistry.sol\":1861:1902  authorities[authorityAddress].apiEndpoint */\n      0x02\n      add\n        /* \"contracts/GovernmentRegistry.sol\":1861:1916  authorities[authorityAddress].apiEndpoint = newEndpoint */\n      swap1\n      dup2\n      tag_114\n      swap2\n      swap1\n      tag_115\n      jump\t// in\n    tag_114:\n      pop\n        /* \"contracts/GovernmentRegistry.sol\":1949:1965  authorityAddress */\n      dup3\n        /* \"contracts/GovernmentRegistry.sol\":1932:1979  AuthorityUpdated(authorityAddress, newEndpoint) */\n      0xffffffffffffffffffffffffffffffffffffffff\n      and\n      0x8d23165fad430bba8f4b7860e8e456561f04b8811e473e96f002f7a5cf763c8a\n        /* \"contracts/GovernmentRegistry.sol\":1967:1978  newEndpoint */\n      dup4\n        /* \"contracts/GovernmentRegistry.sol\":1932:1979  AuthorityUpdated(authorityAddress, newEndpoint) */\n      mload(0x40)\n      tag_116\n      swap2\n      swap1\n      tag_117\n      jump\t// in\n    tag_116:\n      mload(0x40)\n      dup1\n      swap2\n      sub\n      swap1\n      log2\n        /* \"contracts/GovernmentRegistry.sol\":1626:1987  function updateAuthorityEndpoint(... */\n      pop\n      pop\n      pop\n      jump\t// out\n        /* \"@openzeppelin/contracts/access/AccessControl.sol\":5328:5573  function renounceRole(bytes32 role, address callerConfirmation) public virtual {... */\n    tag_50:\n        /* \"@openzeppelin/contracts/access/AccessControl.sol\":5443:5455  _msgSender() */\n      tag_119\n        /* \"@openzeppelin/contracts/access/AccessControl.sol\":5443:5453  _msgSender */\n      tag_120\n        /* \"@openzeppelin/contracts/access/AccessControl.sol\":5443:5455  _msgSender() */\n      jump\t// in\n    tag_119:\n        /* \"@openzeppelin/contracts/access/AccessControl.sol\":5421:5455  callerConfirmation != _msgSender() */\n      0xffffffffffffffffffffffffffffffffffffffff\n      and\n        /* \"@openzeppelin/contracts/access/AccessControl.sol\":5421:5439  callerConfirmation */\n      dup2\n        /* \"@openzeppelin/contracts/access/AccessControl.sol\":5421:5455  callerConfirmation != _msgSender() */\n      0xffffffffffffffffffffffffffffffffffffffff\n      and\n      eq\n        /* \"@openzeppelin/contracts/access/AccessControl.sol\":5417:5519  if (callerConfirmation != _msgSender()) {... */\n      tag_121\n      jumpi\n        /* \"@openzeppelin/contracts/access/AccessControl.sol\":5478:5508  AccessControlBadConfirmation() */\n      mload(0x40)\n      0x6697b23200000000000000000000000000000000000000000000000000000000\n      dup2\n      mstore\n      0x04\n      add\n      mload(0x40)\n      dup1\n      swap2\n      sub\n      swap1\n      revert\n        /* \"@openzeppelin/contracts/access/AccessControl.sol\":5417:5519  if (callerConfirmation != _msgSender()) {... */\n    tag_121:\n        /* \"@openzeppelin/contracts/access/AccessControl.sol\":5529:5566  _revokeRole(role, callerConfirmation) */\n      tag_122\n        /* \"@openzeppelin/contracts/access/AccessControl.sol\":5541:5545  role */\n      dup3\n        /* \"@openzeppelin/contracts/access/AccessControl.sol\":5547:5565  callerConfirmation */\n      dup3\n        /* \"@openzeppelin/contracts/access/AccessControl.sol\":5529:5540  _revokeRole */\n      tag_123\n        /* \"@openzeppelin/contracts/access/AccessControl.sol\":5529:5566  _revokeRole(role, callerConfirmation) */\n      jump\t// in\n    tag_122:\n      pop\n        /* \"@openzeppelin/contracts/access/AccessControl.sol\":5328:5573  function renounceRole(bytes32 role, address callerConfirmation) public virtual {... */\n      pop\n      pop\n      jump\t// out\n        /* \"contracts/GovernmentRegistry.sol\":2703:3220  function getAuthorityInfo(address authorityAddress) external view returns (... */\n    tag_53:\n        /* \"contracts/GovernmentRegistry.sol\":2788:2806  string memory name */\n      0x60\n        /* \"contracts/GovernmentRegistry.sol\":2817:2843  string memory jurisdiction */\n      dup1\n        /* \"contracts/GovernmentRegistry.sol\":2854:2879  string memory apiEndpoint */\n      0x60\n        /* \"contracts/GovernmentRegistry.sol\":2890:2903  bool isActive */\n      0x00\n        /* \"contracts/GovernmentRegistry.sol\":2914:2929  uint256 addedAt */\n      0x00\n        /* \"contracts/GovernmentRegistry.sol\":2948:2984  GovernmentAuthority memory authority */\n      0x00\n        /* \"contracts/GovernmentRegistry.sol\":2987:2998  authorities */\n      0x01\n        /* \"contracts/GovernmentRegistry.sol\":2987:3016  authorities[authorityAddress] */\n      0x00\n        /* \"contracts/GovernmentRegistry.sol\":2999:3015  authorityAddress */\n      dup9\n        /* \"contracts/GovernmentRegistry.sol\":2987:3016  authorities[authorityAddress] */\n      0xffffffffffffffffffffffffffffffffffffffff\n      and\n      0xffffffffffffffffffffffffffffffffffffffff\n      and\n      dup2\n      mstore\n      0x20\n      add\n      swap1\n      dup2\n      mstore\n      0x20\n      add\n      0x00\n      keccak256\n        /* \"contracts/GovernmentRegistry.sol\":2948:3016  GovernmentAuthority memory authority = authorities[authorityAddress] */\n      mload(0x40)\n      dup1\n      0xa0\n      add\n      0x40\n      mstore\n      swap1\n      dup2\n      0x00\n      dup3\n      add\n      dup1\n      sload\n      tag_125\n      swap1\n      tag_126\n      jump\t// in\n    tag_125:\n      dup1\n      0x1f\n      add\n      0x20\n      dup1\n      swap2\n      div\n      mul\n      0x20\n      add\n      mload(0x40)\n      swap1\n      dup2\n      add\n      0x40\n      mstore\n      dup1\n      swap3\n      swap2\n      swap1\n      dup2\n      dup2\n      mstore\n      0x20\n      add\n      dup3\n      dup1\n      sload\n      tag_127\n      swap1\n      tag_126\n      jump\t// in\n    tag_127:\n      dup1\n      iszero\n      tag_128\n      jumpi\n      dup1\n      0x1f\n      lt\n      tag_129\n      jumpi\n      0x0100\n      dup1\n      dup4\n      sload\n      div\n      mul\n      dup4\n      mstore\n      swap2\n      0x20\n      add\n      swap2\n      jump(tag_128)\n    tag_129:\n      dup3\n      add\n      swap2\n      swap1\n      0x00\n      mstore\n      keccak256(0x00, 0x20)\n      swap1\n    tag_130:\n      dup2\n      sload\n      dup2\n      mstore\n      swap1\n      0x01\n      add\n      swap1\n      0x20\n      add\n      dup1\n      dup4\n      gt\n      tag_130\n      jumpi\n      dup3\n      swap1\n      sub\n      0x1f\n      and\n      dup3\n      add\n      swap2\n    tag_128:\n      pop\n      pop\n      pop\n      pop\n      pop\n      dup2\n      mstore\n      0x20\n      add\n      0x01\n      dup3\n      add\n      dup1\n      sload\n      tag_131\n      swap1\n      tag_126\n      jump\t// in\n    tag_131:\n      dup1\n      0x1f\n      add\n      0x20\n      dup1\n      swap2\n      div\n      mul\n      0x20\n      add\n      mload(0x40)\n      swap1\n      dup2\n      add\n      0x40\n      mstore\n      dup1\n      swap3\n      swap2\n      swap1\n      dup2\n      dup2\n      mstore\n      0x20\n      add\n      dup3\n      dup1\n      sload\n      tag_132\n      swap1\n      tag_126\n      jump\t// in\n    tag_132:\n      dup1\n      iszero\n      tag_133\n      jumpi\n      dup1\n      0x1f\n      lt\n      tag_134\n      jumpi\n      0x0100\n      dup1\n      dup4\n      sload\n      div\n      mul\n      dup4\n      mstore\n      swap2\n      0x20\n      add\n      swap2\n      jump(tag_133)\n    tag_134:\n      dup3\n      add\n      swap2\n      swap1\n      0x00\n      mstore\n      keccak256(0x00, 0x20)\n      swap1\n    tag_135:\n      dup2\n      sload\n      dup2\n      mstore\n      swap1\n      0x01\n      add\n      swap1\n      0x20\n      add\n      dup1\n      dup4\n      gt\n      tag_135\n      jumpi\n      dup3\n      swap1\n      sub\n      0x1f\n      and\n      dup3\n      add\n      swap2\n    tag_133:\n      pop\n      pop\n      pop\n      pop\n      pop\n      dup2\n      mstore\n      0x20\n      add\n      0x02\n      dup3\n      add\n      dup1\n      sload\n      tag_136\n      swap1\n      tag_126\n      jump\t// in\n    tag_136:\n      dup1\n      0x1f\n      add\n      0x20\n      dup1\n      swap2\n      div\n      mul\n      0x20\n      add\n      mload(0x40)\n      swap1\n      dup2\n      add\n      0x40\n      mstore\n      dup1\n      swap3\n      swap2\n      swap1\n      dup2\n      dup2\n      mstore\n      0x20\n      add\n      dup3\n      dup1\n      sload\n      tag_137\n      swap1\n      tag_126\n      jump\t// in\n    tag_137:\n      dup1\n      iszero\n      tag_138\n      jumpi\n      dup1\n      0x1f\n      lt\n      tag_139\n      jumpi\n      0x0100\n      dup1\n      dup4\n      sload\n      div\n      mul\n      dup4\n      mstore\n      swap2\n      0x20\n      add\n      swap2\n      jump(tag_138)\n    tag_139:\n      dup3\n      add\n      swap2\n      swap1\n      0x00\n      mstore\n      keccak256(0x00, 0x20)\n      swap1\n    tag_140:\n      dup2\n      sload\n      dup2\n      mstore\n      swap1\n      0x01\n      add\n      swap1\n      0x20\n      add\n      dup1\n      dup4\n      gt\n      tag_140\n      jumpi\n      dup3\n      swap1\n      sub\n      0x1f\n      and\n      dup3\n      add\n      swap2\n    tag_138:\n      pop\n      pop\n      pop\n      pop\n      pop\n      dup2\n      mstore\n      0x20\n      add\n      0x03\n      dup3\n      add\n      0x00\n      swap1\n      sload\n      swap1\n      0x0100\n      exp\n      swap1\n      div\n      0xff\n      and\n      iszero\n      iszero\n      iszero\n      iszero\n      dup2\n      mstore\n      0x20\n      add\n      0x04\n      dup3\n      add\n      sload\n      dup2\n      mstore\n      pop\n      pop\n      swap1\n      pop\n        /* \"contracts/GovernmentRegistry.sol\":3049:3058  authority */\n      dup1\n        /* \"contracts/GovernmentRegistry.sol\":3049:3063  authority.name */\n      0x00\n      add\n      mload\n        /* \"contracts/GovernmentRegistry.sol\":3078:3087  authority */\n      dup2\n        /* \"contracts/GovernmentRegistry.sol\":3078:3100  authority.jurisdiction */\n      0x20\n      add\n      mload\n        /* \"contracts/GovernmentRegistry.sol\":3115:3124  authority */\n      dup3\n        /* \"contracts/GovernmentRegistry.sol\":3115:3136  authority.apiEndpoint */\n      0x40\n      add\n      mload\n        /* \"contracts/GovernmentRegistry.sol\":3151:3160  authority */\n      dup4\n        /* \"contracts/GovernmentRegistry.sol\":3151:3169  authority.isActive */\n      0x60\n      add\n      mload\n        /* \"contracts/GovernmentRegistry.sol\":3184:3193  authority */\n      dup5\n        /* \"contracts/GovernmentRegistry.sol\":3184:3201  authority.addedAt */\n      0x80\n      add\n      mload\n        /* \"contracts/GovernmentRegistry.sol\":3027:3212  return (... */\n      swap6\n      pop\n      swap6\n      pop\n      swap6\n      pop\n      swap6\n      pop\n      swap6\n      pop\n      pop\n        /* \"contracts/GovernmentRegistry.sol\":2703:3220  function getAuthorityInfo(address authorityAddress) external view returns (... */\n      swap2\n      swap4\n      swap6\n      swap1\n      swap3\n      swap5\n      pop\n      jump\t// out\n        /* \"contracts/GovernmentRegistry.sol\":3232:4047  function getActiveAuthorities() external view returns (address[] memory) {... */\n    tag_57:\n        /* \"contracts/GovernmentRegistry.sol\":3287:3303  address[] memory */\n      0x60\n        /* \"contracts/GovernmentRegistry.sol\":3316:3335  uint256 activeCount */\n      0x00\n        /* \"contracts/GovernmentRegistry.sol\":3338:3339  0 */\n      0x00\n        /* \"contracts/GovernmentRegistry.sol\":3316:3339  uint256 activeCount = 0 */\n      swap1\n      pop\n        /* \"contracts/GovernmentRegistry.sol\":3402:3411  uint256 i */\n      0x00\n        /* \"contracts/GovernmentRegistry.sol\":3414:3415  0 */\n      0x00\n        /* \"contracts/GovernmentRegistry.sol\":3402:3415  uint256 i = 0 */\n      swap1\n      pop\n        /* \"contracts/GovernmentRegistry.sol\":3397:3576  for (uint256 i = 0; i < authorityAddresses.length; i++) {... */\n    tag_142:\n        /* \"contracts/GovernmentRegistry.sol\":3421:3439  authorityAddresses */\n      0x02\n        /* \"contracts/GovernmentRegistry.sol\":3421:3446  authorityAddresses.length */\n      dup1\n      sload\n      swap1\n      pop\n        /* \"contracts/GovernmentRegistry.sol\":3417:3418  i */\n      dup2\n        /* \"contracts/GovernmentRegistry.sol\":3417:3446  i < authorityAddresses.length */\n      lt\n        /* \"contracts/GovernmentRegistry.sol\":3397:3576  for (uint256 i = 0; i < authorityAddresses.length; i++) {... */\n      iszero\n      tag_143\n      jumpi\n        /* \"contracts/GovernmentRegistry.sol\":3472:3483  authorities */\n      0x01\n        /* \"contracts/GovernmentRegistry.sol\":3472:3506  authorities[authorityAddresses[i]] */\n      0x00\n        /* \"contracts/GovernmentRegistry.sol\":3484:3502  authorityAddresses */\n      0x02\n        /* \"contracts/GovernmentRegistry.sol\":3503:3504  i */\n      dup4\n        /* \"contracts/GovernmentRegistry.sol\":3484:3505  authorityAddresses[i] */\n      dup2\n      sload\n      dup2\n      lt\n      tag_145\n      jumpi\n      tag_146\n      tag_147\n      jump\t// in\n    tag_146:\n    tag_145:\n      swap1\n      0x00\n      mstore\n      keccak256(0x00, 0x20)\n      add\n      0x00\n      swap1\n      sload\n      swap1\n      0x0100\n      exp\n      swap1\n      div\n      0xffffffffffffffffffffffffffffffffffffffff\n      and\n        /* \"contracts/GovernmentRegistry.sol\":3472:3506  authorities[authorityAddresses[i]] */\n      0xffffffffffffffffffffffffffffffffffffffff\n      and\n      0xffffffffffffffffffffffffffffffffffffffff\n      and\n      dup2\n      mstore\n      0x20\n      add\n      swap1\n      dup2\n      mstore\n      0x20\n      add\n      0x00\n      keccak256\n        /* \"contracts/GovernmentRegistry.sol\":3472:3515  authorities[authorityAddresses[i]].isActive */\n      0x03\n      add\n      0x00\n      swap1\n      sload\n      swap1\n      0x0100\n      exp\n      swap1\n      div\n      0xff\n      and\n        /* \"contracts/GovernmentRegistry.sol\":3468:3565  if (authorities[authorityAddresses[i]].isActive) {... */\n      iszero\n      tag_149\n      jumpi\n        /* \"contracts/GovernmentRegistry.sol\":3536:3549  activeCount++ */\n      dup2\n      dup1\n      tag_150\n      swap1\n      tag_151\n      jump\t// in\n    tag_150:\n      swap3\n      pop\n      pop\n        /* \"contracts/GovernmentRegistry.sol\":3468:3565  if (authorities[authorityAddresses[i]].isActive) {... */\n    tag_149:\n        /* \"contracts/GovernmentRegistry.sol\":3448:3451  i++ */\n      dup1\n      dup1\n      0x01\n      add\n      swap2\n      pop\n      pop\n        /* \"contracts/GovernmentRegistry.sol\":3397:3576  for (uint256 i = 0; i < authorityAddresses.length; i++) {... */\n      jump(tag_142)\n    tag_143:\n      pop\n        /* \"contracts/GovernmentRegistry.sol\":3643:3677  address[] memory activeAuthorities */\n      0x00\n        /* \"contracts/GovernmentRegistry.sol\":3694:3705  activeCount */\n      dup2\n        /* \"contracts/GovernmentRegistry.sol\":3680:3706  new address[](activeCount) */\n      0xffffffffffffffff\n      dup2\n      gt\n      iszero\n      tag_152\n      jumpi\n      tag_153\n      tag_154\n      jump\t// in\n    tag_153:\n    tag_152:\n      mload(0x40)\n      swap1\n      dup1\n      dup3\n      mstore\n      dup1\n      0x20\n      mul\n      0x20\n      add\n      dup3\n      add\n      0x40\n      mstore\n      dup1\n      iszero\n      tag_155\n      jumpi\n      dup2\n      0x20\n      add\n      0x20\n      dup3\n      mul\n      dup1\n      calldatasize\n      dup4\n      calldatacopy\n      dup1\n      dup3\n      add\n      swap2\n      pop\n      pop\n      swap1\n      pop\n    tag_155:\n      pop\n        /* \"contracts/GovernmentRegistry.sol\":3643:3706  address[] memory activeAuthorities = new address[](activeCount) */\n      swap1\n      pop\n        /* \"contracts/GovernmentRegistry.sol\":3717:3730  uint256 index */\n      0x00\n        /* \"contracts/GovernmentRegistry.sol\":3733:3734  0 */\n      0x00\n        /* \"contracts/GovernmentRegistry.sol\":3717:3734  uint256 index = 0 */\n      swap1\n      pop\n        /* \"contracts/GovernmentRegistry.sol\":3760:3769  uint256 i */\n      0x00\n        /* \"contracts/GovernmentRegistry.sol\":3772:3773  0 */\n      0x00\n        /* \"contracts/GovernmentRegistry.sol\":3760:3773  uint256 i = 0 */\n      swap1\n      pop\n        /* \"contracts/GovernmentRegistry.sol\":3755:3995  for (uint256 i = 0; i < authorityAddresses.length; i++) {... */\n    tag_156:\n        /* \"contracts/GovernmentRegistry.sol\":3779:3797  authorityAddresses */\n      0x02\n        /* \"contracts/GovernmentRegistry.sol\":3779:3804  authorityAddresses.length */\n      dup1\n      sload\n      swap1\n      pop\n        /* \"contracts/GovernmentRegistry.sol\":3775:3776  i */\n      dup2\n        /* \"contracts/GovernmentRegistry.sol\":3775:3804  i < authorityAddresses.length */\n      lt\n        /* \"contracts/GovernmentRegistry.sol\":3755:3995  for (uint256 i = 0; i < authorityAddresses.length; i++) {... */\n      iszero\n      tag_157\n      jumpi\n        /* \"contracts/GovernmentRegistry.sol\":3830:3841  authorities */\n      0x01\n        /* \"contracts/GovernmentRegistry.sol\":3830:3864  authorities[authorityAddresses[i]] */\n      0x00\n        /* \"contracts/GovernmentRegistry.sol\":3842:3860  authorityAddresses */\n      0x02\n        /* \"contracts/GovernmentRegistry.sol\":3861:3862  i */\n      dup4\n        /* \"contracts/GovernmentRegistry.sol\":3842:3863  authorityAddresses[i] */\n      dup2\n      sload\n      dup2\n      lt\n      tag_159\n      jumpi\n      tag_160\n      tag_147\n      jump\t// in\n    tag_160:\n    tag_159:\n      swap1\n      0x00\n      mstore\n      keccak256(0x00, 0x20)\n      add\n      0x00\n      swap1\n      sload\n      swap1\n      0x0100\n      exp\n      swap1\n      div\n      0xffffffffffffffffffffffffffffffffffffffff\n      and\n        /* \"contracts/GovernmentRegistry.sol\":3830:3864  authorities[authorityAddresses[i]] */\n      0xffffffffffffffffffffffffffffffffffffffff\n      and\n      0xffffffffffffffffffffffffffffffffffffffff\n      and\n      dup2\n      mstore\n      0x20\n      add\n      swap1\n      dup2\n      mstore\n      0x20\n      add\n      0x00\n      keccak256\n        /* \"contracts/GovernmentRegistry.sol\":3830:3873  authorities[authorityAddresses[i]].isActive */\n      0x03\n      add\n      0x00\n      swap1\n      sload\n      swap1\n      0x0100\n      exp\n      swap1\n      div\n      0xff\n      and\n        /* \"contracts/GovernmentRegistry.sol\":3826:3984  if (authorities[authorityAddresses[i]].isActive) {... */\n      iszero\n      tag_162\n      jumpi\n        /* \"contracts/GovernmentRegistry.sol\":3921:3939  authorityAddresses */\n      0x02\n        /* \"contracts/GovernmentRegistry.sol\":3940:3941  i */\n      dup2\n        /* \"contracts/GovernmentRegistry.sol\":3921:3942  authorityAddresses[i] */\n      dup2\n      sload\n      dup2\n      lt\n      tag_163\n      jumpi\n      tag_164\n      tag_147\n      jump\t// in\n    tag_164:\n    tag_163:\n      swap1\n      0x00\n      mstore\n      keccak256(0x00, 0x20)\n      add\n      0x00\n      swap1\n      sload\n      swap1\n      0x0100\n      exp\n      swap1\n      div\n      0xffffffffffffffffffffffffffffffffffffffff\n      and\n        /* \"contracts/GovernmentRegistry.sol\":3894:3911  activeAuthorities */\n      dup4\n        /* \"contracts/GovernmentRegistry.sol\":3912:3917  index */\n      dup4\n        /* \"contracts/GovernmentRegistry.sol\":3894:3918  activeAuthorities[index] */\n      dup2\n      mload\n      dup2\n      lt\n      tag_166\n      jumpi\n      tag_167\n      tag_147\n      jump\t// in\n    tag_167:\n    tag_166:\n      0x20\n      mul\n      0x20\n      add\n      add\n        /* \"contracts/GovernmentRegistry.sol\":3894:3942  activeAuthorities[index] = authorityAddresses[i] */\n      swap1\n      0xffffffffffffffffffffffffffffffffffffffff\n      and\n      swap1\n      dup2\n      0xffffffffffffffffffffffffffffffffffffffff\n      and\n      dup2\n      mstore\n      pop\n      pop\n        /* \"contracts/GovernmentRegistry.sol\":3961:3968  index++ */\n      dup2\n      dup1\n      tag_168\n      swap1\n      tag_151\n      jump\t// in\n    tag_168:\n      swap3\n      pop\n      pop\n        /* \"contracts/GovernmentRegistry.sol\":3826:3984  if (authorities[authorityAddresses[i]].isActive) {... */\n    tag_162:\n        /* \"contracts/GovernmentRegistry.sol\":3806:3809  i++ */\n      dup1\n      dup1\n      0x01\n      add\n      swap2\n      pop\n      pop\n        /* \"contracts/GovernmentRegistry.sol\":3755:3995  for (uint256 i = 0; i < authorityAddresses.length; i++) {... */\n      jump(tag_156)\n    tag_157:\n      pop\n        /* \"contracts/GovernmentRegistry.sol\":4022:4039  activeAuthorities */\n      dup2\n        /* \"contracts/GovernmentRegistry.sol\":4015:4039  return activeAuthorities */\n      swap4\n      pop\n      pop\n      pop\n      pop\n        /* \"contracts/GovernmentRegistry.sol\":3232:4047  function getActiveAuthorities() external view returns (address[] memory) {... */\n      swap1\n      jump\t// out\n        /* \"contracts/GovernmentRegistry.sol\":1999:2344  function deactivateAuthority(address authorityAddress) external onlyRole(DEFAULT_ADMIN_ROLE) {... */\n    tag_62:\n        /* \"@openzeppelin/contracts/access/AccessControl.sol\":2232:2236  0x00 */\n      0x00\n        /* \"contracts/GovernmentRegistry.sol\":2072:2090  DEFAULT_ADMIN_ROLE */\n      0x00\n      shl\n        /* \"@openzeppelin/contracts/access/AccessControl.sol\":2464:2480  _checkRole(role) */\n      tag_170\n        /* \"@openzeppelin/contracts/access/AccessControl.sol\":2475:2479  role */\n      dup2\n        /* \"@openzeppelin/contracts/access/AccessControl.sol\":2464:2474  _checkRole */\n      tag_104\n        /* \"@openzeppelin/contracts/access/AccessControl.sol\":2464:2480  _checkRole(role) */\n      jump\t// in\n    tag_170:\n        /* \"contracts/GovernmentRegistry.sol\":2111:2122  authorities */\n      0x01\n        /* \"contracts/GovernmentRegistry.sol\":2111:2140  authorities[authorityAddress] */\n      0x00\n        /* \"contracts/GovernmentRegistry.sol\":2123:2139  authorityAddress */\n      dup4\n        /* \"contracts/GovernmentRegistry.sol\":2111:2140  authorities[authorityAddress] */\n      0xffffffffffffffffffffffffffffffffffffffff\n      and\n      0xffffffffffffffffffffffffffffffffffffffff\n      and\n      dup2\n      mstore\n      0x20\n      add\n      swap1\n      dup2\n      mstore\n      0x20\n      add\n      0x00\n      keccak256\n        /* \"contracts/GovernmentRegistry.sol\":2111:2149  authorities[authorityAddress].isActive */\n      0x03\n      add\n      0x00\n      swap1\n      sload\n      swap1\n      0x0100\n      exp\n      swap1\n      div\n      0xff\n      and\n        /* \"contracts/GovernmentRegistry.sol\":2103:2170  require(authorities[authorityAddress].isActive, \"Already inactive\") */\n      tag_172\n      jumpi\n      mload(0x40)\n      0x08c379a000000000000000000000000000000000000000000000000000000000\n      dup2\n      mstore\n      0x04\n      add\n      tag_173\n      swap1\n      tag_174\n      jump\t// in\n    tag_173:\n      mload(0x40)\n      dup1\n      swap2\n      sub\n      swap1\n      revert\n    tag_172:\n        /* \"contracts/GovernmentRegistry.sol\":2222:2227  false */\n      0x00\n        /* \"contracts/GovernmentRegistry.sol\":2181:2192  authorities */\n      0x01\n        /* \"contracts/GovernmentRegistry.sol\":2181:2210  authorities[authorityAddress] */\n      0x00\n        /* \"contracts/GovernmentRegistry.sol\":2193:2209  authorityAddress */\n      dup5\n        /* \"contracts/GovernmentRegistry.sol\":2181:2210  authorities[authorityAddress] */\n      0xffffffffffffffffffffffffffffffffffffffff\n      and\n      0xffffffffffffffffffffffffffffffffffffffff\n      and\n      dup2\n      mstore\n      0x20\n      add\n      swap1\n      dup2\n      mstore\n      0x20\n      add\n      0x00\n      keccak256\n        /* \"contracts/GovernmentRegistry.sol\":2181:2219  authorities[authorityAddress].isActive */\n      0x03\n      add\n      0x00\n        /* \"contracts/GovernmentRegistry.sol\":2181:2227  authorities[authorityAddress].isActive = false */\n      0x0100\n      exp\n      dup2\n      sload\n      dup2\n      0xff\n      mul\n      not\n      and\n      swap1\n      dup4\n      iszero\n      iszero\n      mul\n      or\n      swap1\n      sstore\n      pop\n        /* \"contracts/GovernmentRegistry.sol\":2238:2282  _revokeRole(VERIFIER_ROLE, authorityAddress) */\n      tag_175\n        /* \"contracts/GovernmentRegistry.sol\":213:239  keccak256(\"VERIFIER_ROLE\") */\n      0x0ce23c3e399818cfee81a7ab0880f714e53d7672b08df0fa62f2843416e1ea09\n        /* \"contracts/GovernmentRegistry.sol\":2265:2281  authorityAddress */\n      dup4\n        /* \"contracts/GovernmentRegistry.sol\":2238:2249  _revokeRole */\n      tag_123\n        /* \"contracts/GovernmentRegistry.sol\":2238:2282  _revokeRole(VERIFIER_ROLE, authorityAddress) */\n      jump\t// in\n    tag_175:\n      pop\n        /* \"contracts/GovernmentRegistry.sol\":2319:2335  authorityAddress */\n      dup2\n        /* \"contracts/GovernmentRegistry.sol\":2298:2336  AuthorityDeactivated(authorityAddress) */\n      0xffffffffffffffffffffffffffffffffffffffff\n      and\n      0x851e07aeafcca1b4966b2d71fd2c7cfbebd70c9992a23cb811ef972e6b1239f5\n      mload(0x40)\n      mload(0x40)\n      dup1\n      swap2\n      sub\n      swap1\n      log2\n        /* \"contracts/GovernmentRegistry.sol\":1999:2344  function deactivateAuthority(address authorityAddress) external onlyRole(DEFAULT_ADMIN_ROLE) {... */\n      pop\n      pop\n      jump\t// out\n        /* \"contracts/GovernmentRegistry.sol\":430:488  mapping(address => GovernmentAuthority) public authorities */\n    tag_65:\n      mstore(0x20, 0x01)\n      dup1\n      0x00\n      mstore\n      keccak256(0x00, 0x40)\n      0x00\n      swap2\n      pop\n      swap1\n      pop\n      dup1\n      0x00\n      add\n      dup1\n      sload\n      tag_176\n      swap1\n      tag_126\n      jump\t// in\n    tag_176:\n      dup1\n      0x1f\n      add\n      0x20\n      dup1\n      swap2\n      div\n      mul\n      0x20\n      add\n      mload(0x40)\n      swap1\n      dup2\n      add\n      0x40\n      mstore\n      dup1\n      swap3\n      swap2\n      swap1\n      dup2\n      dup2\n      mstore\n      0x20\n      add\n      dup3\n      dup1\n      sload\n      tag_177\n      swap1\n      tag_126\n      jump\t// in\n    tag_177:\n      dup1\n      iszero\n      tag_178\n      jumpi\n      dup1\n      0x1f\n      lt\n      tag_179\n      jumpi\n      0x0100\n      dup1\n      dup4\n      sload\n      div\n      mul\n      dup4\n      mstore\n      swap2\n      0x20\n      add\n      swap2\n      jump(tag_178)\n    tag_179:\n      dup3\n      add\n      swap2\n      swap1\n      0x00\n      mstore\n      keccak256(0x00, 0x20)\n      swap1\n    tag_180:\n      dup2\n      sload\n      dup2\n      mstore\n      swap1\n      0x01\n      add\n      swap1\n      0x20\n      add\n      dup1\n      dup4\n      gt\n      tag_180\n      jumpi\n      dup3\n      swap1\n      sub\n      0x1f\n      and\n      dup3\n      add\n      swap2\n    tag_178:\n      pop\n      pop\n      pop\n      pop\n      pop\n      swap1\n      dup1\n      0x01\n      add\n      dup1\n      sload\n      tag_181\n      swap1\n      tag_126\n      jump\t// in\n    tag_181:\n      dup1\n      0x1f\n      add\n      0x20\n      dup1\n      swap2\n      div\n      mul\n      0x20\n      add\n      mload(0x40)\n      swap1\n      dup2\n      add\n      0x40\n      mstore\n      dup1\n      swap3\n      swap2\n      swap1\n      dup2\n      dup2\n      mstore\n      0x20\n      add\n      dup3\n      dup1\n      sload\n      tag_182\n      swap1\n      tag_126\n      jump\t// in\n    tag_182:\n      dup1\n      iszero\n      tag_183\n      jumpi\n      dup1\n      0x1f\n      lt\n      tag_184\n      jumpi\n      0x0100\n      dup1\n      dup4\n      sload\n      div\n      mul\n      dup4\n      mstore\n      swap2\n      0x20\n      add\n      swap2\n      jump(tag_183)\n    tag_184:\n      dup3\n      add\n      swap2\n      swap1\n      0x00\n      mstore\n      keccak256(0x00, 0x20)\n      swap1\n    tag_185:\n      dup2\n      sload\n      dup2\n      mstore\n      swap1\n      0x01\n      add\n      swap1\n      0x20\n      add\n      dup1\n      dup4\n      gt\n      tag_185\n      jumpi\n      dup3\n      swap1\n      sub\n      0x1f\n      and\n      dup3\n      add\n      swap2\n    tag_183:\n      pop\n      pop\n      pop\n      pop\n      pop\n      swap1\n      dup1\n      0x02\n      add\n      dup1\n      sload\n      tag_186\n      swap1\n      tag_126\n      jump\t// in\n    tag_186:\n      dup1\n      0x1f\n      add\n      0x20\n      dup1\n      swap2\n      div\n      mul\n      0x20\n      add\n      mload(0x40)\n      swap1\n      dup2\n      add\n      0x40\n      mstore\n      dup1\n      swap3\n      swap2\n      swap1\n      dup2\n      dup2\n      mstore\n      0x20\n      add\n      dup3\n      dup1\n      sload\n      tag_187\n      swap1\n      tag_126\n      jump\t// in\n    tag_187:\n      dup1\n      iszero\n      tag_188\n      jumpi\n      dup1\n      0x1f\n      lt\n      tag_189\n      jumpi\n      0x0100\n      dup1\n      dup4\n      sload\n      div\n      mul\n      dup4\n      mstore\n      swap2\n      0x20\n      add\n      swap2\n      jump(tag_188)\n    tag_189:\n      dup3\n      add\n      swap2\n      swap1\n      0x00\n      mstore\n      keccak256(0x00, 0x20)\n      swap1\n    tag_190:\n      dup2\n      sload\n      dup2\n      mstore\n      swap1\n      0x01\n      add\n      swap1\n      0x20\n      add\n      dup1\n      dup4\n      gt\n      tag_190\n      jumpi\n      dup3\n      swap1\n      sub\n      0x1f\n      and\n      dup3\n      add\n      swap2\n    tag_188:\n      pop\n      pop\n      pop\n      pop\n      pop\n      swap1\n      dup1\n      0x03\n      add\n      0x00\n      swap1\n      sload\n      swap1\n      0x0100\n      exp\n      swap1\n      div\n      0xff\n      and\n      swap1\n      dup1\n      0x04\n      add\n      sload\n      swap1\n      pop\n      dup6\n      jump\t// out\n        /* \"@openzeppelin/contracts/access/AccessControl.sol\":2854:2990  function hasRole(bytes32 role, address account) public view virtual returns (bool) {... */\n    tag_69:\n        /* \"@openzeppelin/contracts/access/AccessControl.sol\":2931:2935  bool */\n      0x00\n        /* \"@openzeppelin/contracts/access/AccessControl.sol\":2954:2960  _roles */\n      0x00\n        /* \"@openzeppelin/contracts/access/AccessControl.sol\":2954:2966  _roles[role] */\n      0x00\n        /* \"@openzeppelin/contracts/access/AccessControl.sol\":2961:2965  role */\n      dup5\n        /* \"@openzeppelin/contracts/access/AccessControl.sol\":2954:2966  _roles[role] */\n      dup2\n      mstore\n      0x20\n      add\n      swap1\n      dup2\n      mstore\n      0x20\n      add\n      0x00\n      keccak256\n        /* \"@openzeppelin/contracts/access/AccessControl.sol\":2954:2974  _roles[role].hasRole */\n      0x00\n      add\n        /* \"@openzeppelin/contracts/access/AccessControl.sol\":2954:2983  _roles[role].hasRole[account] */\n      0x00\n        /* \"@openzeppelin/contracts/access/AccessControl.sol\":2975:2982  account */\n      dup4\n        /* \"@openzeppelin/contracts/access/AccessControl.sol\":2954:2983  _roles[role].hasRole[account] */\n      0xffffffffffffffffffffffffffffffffffffffff\n      and\n      0xffffffffffffffffffffffffffffffffffffffff\n      and\n      dup2\n      mstore\n      0x20\n      add\n      swap1\n      dup2\n      mstore\n      0x20\n      add\n      0x00\n      keccak256\n      0x00\n      swap1\n      sload\n      swap1\n      0x0100\n      exp\n      swap1\n      div\n      0xff\n      and\n        /* \"@openzeppelin/contracts/access/AccessControl.sol\":2947:2983  return _roles[role].hasRole[account] */\n      swap1\n      pop\n        /* \"@openzeppelin/contracts/access/AccessControl.sol\":2854:2990  function hasRole(bytes32 role, address account) public view virtual returns (bool) {... */\n      swap3\n      swap2\n      pop\n      pop\n      jump\t// out\n        /* \"@openzeppelin/contracts/access/AccessControl.sol\":2187:2236  bytes32 public constant DEFAULT_ADMIN_ROLE = 0x00 */\n    tag_72:\n        /* \"@openzeppelin/contracts/access/AccessControl.sol\":2232:2236  0x00 */\n      0x00\n        /* \"@openzeppelin/contracts/access/AccessControl.sol\":2187:2236  bytes32 public constant DEFAULT_ADMIN_ROLE = 0x00 */\n      0x00\n      shl\n      dup2\n      jump\t// out\n        /* \"contracts/GovernmentRegistry.sol\":495:530  address[] public authorityAddresses */\n    tag_77:\n      0x02\n      dup2\n      dup2\n      sload\n      dup2\n      lt\n      tag_192\n      jumpi\n      0x00\n      dup1\n      revert\n    tag_192:\n      swap1\n      0x00\n      mstore\n      keccak256(0x00, 0x20)\n      add\n      0x00\n      swap2\n      pop\n      sload\n      swap1\n      0x0100\n      exp\n      swap1\n      div\n      0xffffffffffffffffffffffffffffffffffffffff\n      and\n      dup2\n      jump\t// out\n        /* \"contracts/GovernmentRegistry.sol\":860:1614  function addAuthority(... */\n    tag_83:\n        /* \"@openzeppelin/contracts/access/AccessControl.sol\":2232:2236  0x00 */\n      0x00\n        /* \"contracts/GovernmentRegistry.sol\":1044:1062  DEFAULT_ADMIN_ROLE */\n      0x00\n      shl\n        /* \"@openzeppelin/contracts/access/AccessControl.sol\":2464:2480  _checkRole(role) */\n      tag_195\n        /* \"@openzeppelin/contracts/access/AccessControl.sol\":2475:2479  role */\n      dup2\n        /* \"@openzeppelin/contracts/access/AccessControl.sol\":2464:2474  _checkRole */\n      tag_104\n        /* \"@openzeppelin/contracts/access/AccessControl.sol\":2464:2480  _checkRole(role) */\n      jump\t// in\n    tag_195:\n        /* \"contracts/GovernmentRegistry.sol\":1124:1125  0 */\n      0x00\n        /* \"contracts/GovernmentRegistry.sol\":1083:1094  authorities */\n      0x01\n        /* \"contracts/GovernmentRegistry.sol\":1083:1112  authorities[authorityAddress] */\n      0x00\n        /* \"contracts/GovernmentRegistry.sol\":1095:1111  authorityAddress */\n      dup8\n        /* \"contracts/GovernmentRegistry.sol\":1083:1112  authorities[authorityAddress] */\n      0xffffffffffffffffffffffffffffffffffffffff\n      and\n      0xffffffffffffffffffffffffffffffffffffffff\n      and\n      dup2\n      mstore\n      0x20\n      add\n      swap1\n      dup2\n      mstore\n      0x20\n      add\n      0x00\n      keccak256\n        /* \"contracts/GovernmentRegistry.sol\":1083:1120  authorities[authorityAddress].addedAt */\n      0x04\n      add\n      sload\n        /* \"contracts/GovernmentRegistry.sol\":1083:1125  authorities[authorityAddress].addedAt == 0 */\n      eq\n        /* \"contracts/GovernmentRegistry.sol\":1075:1154  require(authorities[authorityAddress].addedAt == 0, \"Authority already exists\") */\n      tag_197\n      jumpi\n      mload(0x40)\n      0x08c379a000000000000000000000000000000000000000000000000000000000\n      dup2\n      mstore\n      0x04\n      add\n      tag_198\n      swap1\n      tag_199\n      jump\t// in\n    tag_198:\n      mload(0x40)\n      dup1\n      swap2\n      sub\n      swap1\n      revert\n    tag_197:\n        /* \"contracts/GovernmentRegistry.sol\":1207:1412  GovernmentAuthority({... */\n      mload(0x40)\n      dup1\n      0xa0\n      add\n      0x40\n      mstore\n      dup1\n        /* \"contracts/GovernmentRegistry.sol\":1248:1252  name */\n      dup6\n        /* \"contracts/GovernmentRegistry.sol\":1207:1412  GovernmentAuthority({... */\n      dup2\n      mstore\n      0x20\n      add\n        /* \"contracts/GovernmentRegistry.sol\":1281:1293  jurisdiction */\n      dup5\n        /* \"contracts/GovernmentRegistry.sol\":1207:1412  GovernmentAuthority({... */\n      dup2\n      mstore\n      0x20\n      add\n        /* \"contracts/GovernmentRegistry.sol\":1321:1332  apiEndpoint */\n      dup4\n        /* \"contracts/GovernmentRegistry.sol\":1207:1412  GovernmentAuthority({... */\n      dup2\n      mstore\n      0x20\n      add\n        /* \"contracts/GovernmentRegistry.sol\":1357:1361  true */\n      0x01\n        /* \"contracts/GovernmentRegistry.sol\":1207:1412  GovernmentAuthority({... */\n      iszero\n      iszero\n      dup2\n      mstore\n      0x20\n      add\n        /* \"contracts/GovernmentRegistry.sol\":1385:1400  block.timestamp */\n      timestamp\n        /* \"contracts/GovernmentRegistry.sol\":1207:1412  GovernmentAuthority({... */\n      dup2\n      mstore\n      pop\n        /* \"contracts/GovernmentRegistry.sol\":1175:1186  authorities */\n      0x01\n        /* \"contracts/GovernmentRegistry.sol\":1175:1204  authorities[authorityAddress] */\n      0x00\n        /* \"contracts/GovernmentRegistry.sol\":1187:1203  authorityAddress */\n      dup8\n        /* \"contracts/GovernmentRegistry.sol\":1175:1204  authorities[authorityAddress] */\n      0xffffffffffffffffffffffffffffffffffffffff\n      and\n      0xffffffffffffffffffffffffffffffffffffffff\n      and\n      dup2\n      mstore\n      0x20\n      add\n      swap1\n      dup2\n      mstore\n      0x20\n      add\n      0x00\n      keccak256\n        /* \"contracts/GovernmentRegistry.sol\":1175:1412  authorities[authorityAddress] = GovernmentAuthority({... */\n      0x00\n      dup3\n      add\n      mload\n      dup2\n      0x00\n      add\n      swap1\n      dup2\n      tag_200\n      swap2\n      swap1\n      tag_115\n      jump\t// in\n    tag_200:\n      pop\n      0x20\n      dup3\n      add\n      mload\n      dup2\n      0x01\n      add\n      swap1\n      dup2\n      tag_201\n      swap2\n      swap1\n      tag_115\n      jump\t// in\n    tag_201:\n      pop\n      0x40\n      dup3\n      add\n      mload\n      dup2\n      0x02\n      add\n      swap1\n      dup2\n      tag_202\n      swap2\n      swap1\n      tag_115\n      jump\t// in\n    tag_202:\n      pop\n      0x60\n      dup3\n      add\n      mload\n      dup2\n      0x03\n      add\n      exp(0x0100, 0x00)\n      dup2\n      sload\n      dup2\n      0xff\n      mul\n      not\n      and\n      swap1\n      dup4\n      iszero\n      iszero\n      mul\n      or\n      swap1\n      sstore\n      pop\n      0x80\n      dup3\n      add\n      mload\n      dup2\n      0x04\n      add\n      sstore\n      swap1\n      pop\n      pop\n        /* \"contracts/GovernmentRegistry.sol\":1433:1451  authorityAddresses */\n      0x02\n        /* \"contracts/GovernmentRegistry.sol\":1457:1473  authorityAddress */\n      dup6\n        /* \"contracts/GovernmentRegistry.sol\":1433:1474  authorityAddresses.push(authorityAddress) */\n      swap1\n      dup1\n      0x01\n      dup2\n      sload\n      add\n      dup1\n      dup3\n      sstore\n      dup1\n      swap2\n      pop\n      pop\n      0x01\n      swap1\n      sub\n      swap1\n      0x00\n      mstore\n      keccak256(0x00, 0x20)\n      add\n      0x00\n      swap1\n      swap2\n      swap1\n      swap2\n      swap1\n      swap2\n      0x0100\n      exp\n      dup2\n      sload\n      dup2\n      0xffffffffffffffffffffffffffffffffffffffff\n      mul\n      not\n      and\n      swap1\n      dup4\n      0xffffffffffffffffffffffffffffffffffffffff\n      and\n      mul\n      or\n      swap1\n      sstore\n      pop\n        /* \"contracts/GovernmentRegistry.sol\":1485:1528  _grantRole(VERIFIER_ROLE, authorityAddress) */\n      tag_204\n        /* \"contracts/GovernmentRegistry.sol\":213:239  keccak256(\"VERIFIER_ROLE\") */\n      0x0ce23c3e399818cfee81a7ab0880f714e53d7672b08df0fa62f2843416e1ea09\n        /* \"contracts/GovernmentRegistry.sol\":1511:1527  authorityAddress */\n      dup7\n        /* \"contracts/GovernmentRegistry.sol\":1485:1495  _grantRole */\n      tag_107\n        /* \"contracts/GovernmentRegistry.sol\":1485:1528  _grantRole(VERIFIER_ROLE, authorityAddress) */\n      jump\t// in\n    tag_204:\n      pop\n        /* \"contracts/GovernmentRegistry.sol\":1569:1585  authorityAddress */\n      dup5\n        /* \"contracts/GovernmentRegistry.sol\":1554:1606  AuthorityAdded(authorityAddress, name, jurisdiction) */\n      0xffffffffffffffffffffffffffffffffffffffff\n      and\n      0x6c8bb1ef46bb6f1c47c35d06f09c4eed102353449280d18cc58aabab0ec0842b\n        /* \"contracts/GovernmentRegistry.sol\":1587:1591  name */\n      dup6\n        /* \"contracts/GovernmentRegistry.sol\":1593:1605  jurisdiction */\n      dup6\n        /* \"contracts/GovernmentRegistry.sol\":1554:1606  AuthorityAdded(authorityAddress, name, jurisdiction) */\n      mload(0x40)\n      tag_205\n      swap3\n      swap2\n      swap1\n      tag_206\n      jump\t// in\n    tag_205:\n      mload(0x40)\n      dup1\n      swap2\n      sub\n      swap1\n      log2\n        /* \"contracts/GovernmentRegistry.sol\":860:1614  function addAuthority(... */\n      pop\n      pop\n      pop\n      pop\n      pop\n      jump\t// out\n        /* \"@openzeppelin/contracts/access/AccessControl.sol\":4642:4780  function revokeRole(bytes32 role, address account) public virtual onlyRole(getRoleAdmin(role)) {... */\n    tag_86:\n        /* \"@openzeppelin/contracts/access/AccessControl.sol\":4717:4735  getRoleAdmin(role) */\n      tag_207\n        /* \"@openzeppelin/contracts/access/AccessControl.sol\":4730:4734  role */\n      dup3\n        /* \"@openzeppelin/contracts/access/AccessControl.sol\":4717:4729  getRoleAdmin */\n      tag_32\n        /* \"@openzeppelin/contracts/access/AccessControl.sol\":4717:4735  getRoleAdmin(role) */\n      jump\t// in\n    tag_207:\n        /* \"@openzeppelin/contracts/access/AccessControl.sol\":2464:2480  _checkRole(role) */\n      tag_209\n        /* \"@openzeppelin/contracts/access/AccessControl.sol\":2475:2479  role */\n      dup2\n        /* \"@openzeppelin/contracts/access/AccessControl.sol\":2464:2474  _checkRole */\n      tag_104\n        /* \"@openzeppelin/contracts/access/AccessControl.sol\":2464:2480  _checkRole(role) */\n      jump\t// in\n    tag_209:\n        /* \"@openzeppelin/contracts/access/AccessControl.sol\":4747:4773  _revokeRole(role, account) */\n      tag_211\n        /* \"@openzeppelin/contracts/access/AccessControl.sol\":4759:4763  role */\n      dup4\n        /* \"@openzeppelin/contracts/access/AccessControl.sol\":4765:4772  account */\n      dup4\n        /* \"@openzeppelin/contracts/access/AccessControl.sol\":4747:4758  _revokeRole */\n      tag_123\n        /* \"@openzeppelin/contracts/access/AccessControl.sol\":4747:4773  _revokeRole(role, account) */\n      jump\t// in\n    tag_211:\n      pop\n        /* \"@openzeppelin/contracts/access/AccessControl.sol\":4642:4780  function revokeRole(bytes32 role, address account) public virtual onlyRole(getRoleAdmin(role)) {... */\n      pop\n      pop\n      pop\n      jump\t// out\n        /* \"contracts/GovernmentRegistry.sol\":173:239  bytes32 public constant VERIFIER_ROLE = keccak256(\"VERIFIER_ROLE\") */\n    tag_88:\n        /* \"contracts/GovernmentRegistry.sol\":213:239  keccak256(\"VERIFIER_ROLE\") */\n      0x0ce23c3e399818cfee81a7ab0880f714e53d7672b08df0fa62f2843416e1ea09\n        /* \"contracts/GovernmentRegistry.sol\":173:239  bytes32 public constant VERIFIER_ROLE = keccak256(\"VERIFIER_ROLE\") */\n      dup2\n      jump\t// out\n        /* \"contracts/GovernmentRegistry.sol\":2577:2691  function getAllAuthorities() external view returns (address[] memory) {... */\n    tag_91:\n        /* \"contracts/GovernmentRegistry.sol\":2629:2645  address[] memory */\n      0x60\n        /* \"contracts/GovernmentRegistry.sol\":2665:2683  authorityAddresses */\n      0x02\n        /* \"contracts/GovernmentRegistry.sol\":2658:2683  return authorityAddresses */\n      dup1\n      sload\n      dup1\n      0x20\n      mul\n      0x20\n      add\n      mload(0x40)\n      swap1\n      dup2\n      add\n      0x40\n      mstore\n      dup1\n      swap3\n      swap2\n      swap1\n      dup2\n      dup2\n      mstore\n      0x20\n      add\n      dup3\n      dup1\n      sload\n      dup1\n      iszero\n      tag_213\n      jumpi\n      0x20\n      mul\n      dup3\n      add\n      swap2\n      swap1\n      0x00\n      mstore\n      keccak256(0x00, 0x20)\n      swap1\n    tag_214:\n      dup2\n      0x00\n      swap1\n      sload\n      swap1\n      0x0100\n      exp\n      swap1\n      div\n      0xffffffffffffffffffffffffffffffffffffffff\n      and\n      0xffffffffffffffffffffffffffffffffffffffff\n      and\n      dup2\n      mstore\n      0x20\n      add\n      swap1\n      0x01\n      add\n      swap1\n      dup1\n      dup4\n      gt\n      tag_214\n      jumpi\n    tag_213:\n      pop\n      pop\n      pop\n      pop\n      pop\n      swap1\n      pop\n        /* \"contracts/GovernmentRegistry.sol\":2577:2691  function getAllAuthorities() external view returns (address[] memory) {... */\n      swap1\n      jump\t// out\n        /* \"@openzeppelin/contracts/utils/introspection/ERC165.sol\":763:909  function supportsInterface(bytes4 interfaceId) public view virtual returns (bool) {... */\n    tag_96:\n        /* \"@openzeppelin/contracts/utils/introspection/ERC165.sol\":839:843  bool */\n      0x00\n        /* \"@openzeppelin/contracts/utils/introspection/ERC165.sol\":877:902  type(IERC165).interfaceId */\n      0x01ffc9a700000000000000000000000000000000000000000000000000000000\n        /* \"@openzeppelin/contracts/utils/introspection/ERC165.sol\":862:902  interfaceId == type(IERC165).interfaceId */\n      not(0xffffffffffffffffffffffffffffffffffffffffffffffffffffffff)\n      and\n        /* \"@openzeppelin/contracts/utils/introspection/ERC165.sol\":862:873  interfaceId */\n      dup3\n        /* \"@openzeppelin/contracts/utils/introspection/ERC165.sol\":862:902  interfaceId == type(IERC165).interfaceId */\n      not(0xffffffffffffffffffffffffffffffffffffffffffffffffffffffff)\n      and\n      eq\n        /* \"@openzeppelin/contracts/utils/introspection/ERC165.sol\":855:902  return interfaceId == type(IERC165).interfaceId */\n      swap1\n      pop\n        /* \"@openzeppelin/contracts/utils/introspection/ERC165.sol\":763:909  function supportsInterface(bytes4 interfaceId) public view virtual returns (bool) {... */\n      swap2\n      swap1\n      pop\n      jump\t// out\n        /* \"@openzeppelin/contracts/access/AccessControl.sol\":3199:3302  function _checkRole(bytes32 role) internal view virtual {... */\n    tag_104:\n        /* \"@openzeppelin/contracts/access/AccessControl.sol\":3265:3295  _checkRole(role, _msgSender()) */\n      tag_217\n        /* \"@openzeppelin/contracts/access/AccessControl.sol\":3276:3280  role */\n      dup2\n        /* \"@openzeppelin/contracts/access/AccessControl.sol\":3282:3294  _msgSender() */\n      tag_218\n        /* \"@openzeppelin/contracts/access/AccessControl.sol\":3282:3292  _msgSender */\n      tag_120\n        /* \"@openzeppelin/contracts/access/AccessControl.sol\":3282:3294  _msgSender() */\n      jump\t// in\n    tag_218:\n        /* \"@openzeppelin/contracts/access/AccessControl.sol\":3265:3275  _checkRole */\n      tag_219\n        /* \"@openzeppelin/contracts/access/AccessControl.sol\":3265:3295  _checkRole(role, _msgSender()) */\n      jump\t// in\n    tag_217:\n        /* \"@openzeppelin/contracts/access/AccessControl.sol\":3199:3302  function _checkRole(bytes32 role) internal view virtual {... */\n      pop\n      jump\t// out\n        /* \"@openzeppelin/contracts/access/AccessControl.sol\":6179:6495  function _grantRole(bytes32 role, address account) internal virtual returns (bool) {... */\n    tag_107:\n        /* \"@openzeppelin/contracts/access/AccessControl.sol\":6256:6260  bool */\n      0x00\n        /* \"@openzeppelin/contracts/access/AccessControl.sol\":6277:6299  hasRole(role, account) */\n      tag_221\n        /* \"@openzeppelin/contracts/access/AccessControl.sol\":6285:6289  role */\n      dup4\n        /* \"@openzeppelin/contracts/access/AccessControl.sol\":6291:6298  account */\n      dup4\n        /* \"@openzeppelin/contracts/access/AccessControl.sol\":6277:6284  hasRole */\n      tag_69\n        /* \"@openzeppelin/contracts/access/AccessControl.sol\":6277:6299  hasRole(role, account) */\n      jump\t// in\n    tag_221:\n        /* \"@openzeppelin/contracts/access/AccessControl.sol\":6272:6489  if (!hasRole(role, account)) {... */\n      tag_222\n      jumpi\n        /* \"@openzeppelin/contracts/access/AccessControl.sol\":6347:6351  true */\n      0x01\n        /* \"@openzeppelin/contracts/access/AccessControl.sol\":6315:6321  _roles */\n      0x00\n        /* \"@openzeppelin/contracts/access/AccessControl.sol\":6315:6327  _roles[role] */\n      0x00\n        /* \"@openzeppelin/contracts/access/AccessControl.sol\":6322:6326  role */\n      dup6\n        /* \"@openzeppelin/contracts/access/AccessControl.sol\":6315:6327  _roles[role] */\n      dup2\n      mstore\n      0x20\n      add\n      swap1\n      dup2\n      mstore\n      0x20\n      add\n      0x00\n      keccak256\n        /* \"@openzeppelin/contracts/access/AccessControl.sol\":6315:6335  _roles[role].hasRole */\n      0x00\n      add\n        /* \"@openzeppelin/contracts/access/AccessControl.sol\":6315:6344  _roles[role].hasRole[account] */\n      0x00\n        /* \"@openzeppelin/contracts/access/AccessControl.sol\":6336:6343  account */\n      dup5\n        /* \"@openzeppelin/contracts/access/AccessControl.sol\":6315:6344  _roles[role].hasRole[account] */\n      0xffffffffffffffffffffffffffffffffffffffff\n      and\n      0xffffffffffffffffffffffffffffffffffffffff\n      and\n      dup2\n      mstore\n      0x20\n      add\n      swap1\n      dup2\n      mstore\n      0x20\n      add\n      0x00\n      keccak256\n      0x00\n        /* \"@openzeppelin/contracts/access/AccessControl.sol\":6315:6351  _roles[role].hasRole[account] = true */\n      0x0100\n      exp\n      dup2\n      sload\n      dup2\n      0xff\n      mul\n      not\n      and\n      swap1\n      dup4\n      iszero\n      iszero\n      mul\n      or\n      swap1\n      sstore\n      pop\n        /* \"@openzeppelin/contracts/access/AccessControl.sol\":6397:6409  _msgSender() */\n      tag_223\n        /* \"@openzeppelin/contracts/access/AccessControl.sol\":6397:6407  _msgSender */\n      tag_120\n        /* \"@openzeppelin/contracts/access/AccessControl.sol\":6397:6409  _msgSender() */\n      jump\t// in\n    tag_223:\n        /* \"@openzeppelin/contracts/access/AccessControl.sol\":6370:6410  RoleGranted(role, account, _msgSender()) */\n      0xffffffffffffffffffffffffffffffffffffffff\n      and\n        /* \"@openzeppelin/contracts/access/AccessControl.sol\":6388:6395  account */\n      dup3\n        /* \"@openzeppelin/contracts/access/AccessControl.sol\":6370:6410  RoleGranted(role, account, _msgSender()) */\n      0xffffffffffffffffffffffffffffffffffffffff\n      and\n        /* \"@openzeppelin/contracts/access/AccessControl.sol\":6382:6386  role */\n      dup5\n        /* \"@openzeppelin/contracts/access/AccessControl.sol\":6370:6410  RoleGranted(role, account, _msgSender()) */\n      0x2f8788117e7eff1d82e926ec794901d17c78024a50270940304540a733656f0d\n      mload(0x40)\n      mload(0x40)\n      dup1\n      swap2\n      sub\n      swap1\n      log4\n        /* \"@openzeppelin/contracts/access/AccessControl.sol\":6431:6435  true */\n      0x01\n        /* \"@openzeppelin/contracts/access/AccessControl.sol\":6424:6435  return true */\n      swap1\n      pop\n      jump(tag_220)\n        /* \"@openzeppelin/contracts/access/AccessControl.sol\":6272:6489  if (!hasRole(role, account)) {... */\n    tag_222:\n        /* \"@openzeppelin/contracts/access/AccessControl.sol\":6473:6478  false */\n      0x00\n        /* \"@openzeppelin/contracts/access/AccessControl.sol\":6466:6478  return false */\n      swap1\n      pop\n        /* \"@openzeppelin/contracts/access/AccessControl.sol\":6179:6495  function _grantRole(bytes32 role, address account) internal virtual returns (bool) {... */\n    tag_220:\n      swap3\n      swap2\n      pop\n      pop\n      jump\t// out\n        /* \"@openzeppelin/contracts/utils/Context.sol\":656:752  function _msgSender() internal view virtual returns (address) {... */\n    tag_120:\n        /* \"@openzeppelin/contracts/utils/Context.sol\":709:716  address */\n      0x00\n        /* \"@openzeppelin/contracts/utils/Context.sol\":735:745  msg.sender */\n      caller\n        /* \"@openzeppelin/contracts/utils/Context.sol\":728:745  return msg.sender */\n      swap1\n      pop\n        /* \"@openzeppelin/contracts/utils/Context.sol\":656:752  function _msgSender() internal view virtual returns (address) {... */\n      swap1\n      jump\t// out\n        /* \"@openzeppelin/contracts/access/AccessControl.sol\":6732:7049  function _revokeRole(bytes32 role, address account) internal virtual returns (bool) {... */\n    tag_123:\n        /* \"@openzeppelin/contracts/access/AccessControl.sol\":6810:6814  bool */\n      0x00\n        /* \"@openzeppelin/contracts/access/AccessControl.sol\":6830:6852  hasRole(role, account) */\n      tag_227\n        /* \"@openzeppelin/contracts/access/AccessControl.sol\":6838:6842  role */\n      dup4\n        /* \"@openzeppelin/contracts/access/AccessControl.sol\":6844:6851  account */\n      dup4\n        /* \"@openzeppelin/contracts/access/AccessControl.sol\":6830:6837  hasRole */\n      tag_69\n        /* \"@openzeppelin/contracts/access/AccessControl.sol\":6830:6852  hasRole(role, account) */\n      jump\t// in\n    tag_227:\n        /* \"@openzeppelin/contracts/access/AccessControl.sol\":6826:7043  if (hasRole(role, account)) {... */\n      iszero\n      tag_228\n      jumpi\n        /* \"@openzeppelin/contracts/access/AccessControl.sol\":6900:6905  false */\n      0x00\n        /* \"@openzeppelin/contracts/access/AccessControl.sol\":6868:6874  _roles */\n      0x00\n        /* \"@openzeppelin/contracts/access/AccessControl.sol\":6868:6880  _roles[role] */\n      0x00\n        /* \"@openzeppelin/contracts/access/AccessControl.sol\":6875:6879  role */\n      dup6\n        /* \"@openzeppelin/contracts/access/AccessControl.sol\":6868:6880  _roles[role] */\n      dup2\n      mstore\n      0x20\n      add\n      swap1\n      dup2\n      mstore\n      0x20\n      add\n      0x00\n      keccak256\n        /* \"@openzeppelin/contracts/access/AccessControl.sol\":6868:6888  _roles[role].hasRole */\n      0x00\n      add\n        /* \"@openzeppelin/contracts/access/AccessControl.sol\":6868:6897  _roles[role].hasRole[account] */\n      0x00\n        /* \"@openzeppelin/contracts/access/AccessControl.sol\":6889:6896  account */\n      dup5\n        /* \"@openzeppelin/contracts/access/AccessControl.sol\":6868:6897  _roles[role].hasRole[account] */\n      0xffffffffffffffffffffffffffffffffffffffff\n      and\n      0xffffffffffffffffffffffffffffffffffffffff\n      and\n      dup2\n      mstore\n      0x20\n      add\n      swap1\n      dup2\n      mstore\n      0x20\n      add\n      0x00\n      keccak256\n      0x00\n        /* \"@openzeppelin/contracts/access/AccessControl.sol\":6868:6905  _roles[role].hasRole[account] = false */\n      0x0100\n      exp\n      dup2\n      sload\n      dup2\n      0xff\n      mul\n      not\n      and\n      swap1\n      dup4\n      iszero\n      iszero\n      mul\n      or\n      swap1\n      sstore\n      pop\n        /* \"@openzeppelin/contracts/access/AccessControl.sol\":6951:6963  _msgSender() */\n      tag_229\n        /* \"@openzeppelin/contracts/access/AccessControl.sol\":6951:6961  _msgSender */\n      tag_120\n        /* \"@openzeppelin/contracts/access/AccessControl.sol\":6951:6963  _msgSender() */\n      jump\t// in\n    tag_229:\n        /* \"@openzeppelin/contracts/access/AccessControl.sol\":6924:6964  RoleRevoked(role, account, _msgSender()) */\n      0xffffffffffffffffffffffffffffffffffffffff\n      and\n        /* \"@openzeppelin/contracts/access/AccessControl.sol\":6942:6949  account */\n      dup3\n        /* \"@openzeppelin/contracts/access/AccessControl.sol\":6924:6964  RoleRevoked(role, account, _msgSender()) */\n      0xffffffffffffffffffffffffffffffffffffffff\n      and\n        /* \"@openzeppelin/contracts/access/AccessControl.sol\":6936:6940  role */\n      dup5\n        /* \"@openzeppelin/contracts/access/AccessControl.sol\":6924:6964  RoleRevoked(role, account, _msgSender()) */\n      0xf6391f5c32d9c69d2a47ea670b442974b53935d1edc7fd64eb21e047a839171b\n      mload(0x40)\n      mload(0x40)\n      dup1\n      swap2\n      sub\n      swap1\n      log4\n        /* \"@openzeppelin/contracts/access/AccessControl.sol\":6985:6989  true */\n      0x01\n        /* \"@openzeppelin/contracts/access/AccessControl.sol\":6978:6989  return true */\n      swap1\n      pop\n      jump(tag_226)\n        /* \"@openzeppelin/contracts/access/AccessControl.sol\":6826:7043  if (hasRole(role, account)) {... */\n    tag_228:\n        /* \"@openzeppelin/contracts/access/AccessControl.sol\":7027:7032  false */\n      0x00\n        /* \"@openzeppelin/contracts/access/AccessControl.sol\":7020:7032  return false */\n      swap1\n      pop\n        /* \"@openzeppelin/contracts/access/AccessControl.sol\":6732:7049  function _revokeRole(bytes32 role, address account) internal virtual returns (bool) {... */\n    tag_226:\n      swap3\n      swap2\n      pop\n      pop\n      jump\t// out\n        /* \"@openzeppelin/contracts/access/AccessControl.sol\":3432:3629  function _checkRole(bytes32 role, address account) internal view virtual {... */\n    tag_219:\n        /* \"@openzeppelin/contracts/access/AccessControl.sol\":3520:3542  hasRole(role, account) */\n      tag_232\n        /* \"@openzeppelin/contracts/access/AccessControl.sol\":3528:3532  role */\n      dup3\n        /* \"@openzeppelin/contracts/access/AccessControl.sol\":3534:3541  account */\n      dup3\n        /* \"@openzeppelin/contracts/access/AccessControl.sol\":3520:3527  hasRole */\n      tag_69\n        /* \"@openzeppelin/contracts/access/AccessControl.sol\":3520:3542  hasRole(role, account) */\n      jump\t// in\n    tag_232:\n        /* \"@openzeppelin/contracts/access/AccessControl.sol\":3515:3623  if (!hasRole(role, account)) {... */\n      tag_233\n      jumpi\n        /* \"@openzeppelin/contracts/access/AccessControl.sol\":3598:3605  account */\n      dup1\n        /* \"@openzeppelin/contracts/access/AccessControl.sol\":3607:3611  role */\n      dup3\n        /* \"@openzeppelin/contracts/access/AccessControl.sol\":3565:3612  AccessControlUnauthorizedAccount(account, role) */\n      mload(0x40)\n      0xe2517d3f00000000000000000000000000000000000000000000000000000000\n      dup2\n      mstore\n      0x04\n      add\n      tag_234\n      swap3\n      swap2\n      swap1\n      tag_235\n      jump\t// in\n    tag_234:\n      mload(0x40)\n      dup1\n      swap2\n      sub\n      swap1\n      revert\n        /* \"@openzeppelin/contracts/access/AccessControl.sol\":3515:3623  if (!hasRole(role, account)) {... */\n    tag_233:\n        /* \"@openzeppelin/contracts/access/AccessControl.sol\":3432:3629  function _checkRole(bytes32 role, address account) internal view virtual {... */\n      pop\n      pop\n      jump\t// out\n        /* \"#utility.yul\":7:82   */\n    tag_236:\n        /* \"#utility.yul\":40:46   */\n      0x00\n        /* \"#utility.yul\":73:75   */\n      0x40\n        /* \"#utility.yul\":67:76   */\n      mload\n        /* \"#utility.yul\":57:76   */\n      swap1\n      pop\n        /* \"#utility.yul\":7:82   */\n      swap1\n      jump\t// out\n        /* \"#utility.yul\":88:205   */\n    tag_237:\n        /* \"#utility.yul\":197:198   */\n      0x00\n        /* \"#utility.yul\":194:195   */\n      0x00\n        /* \"#utility.yul\":187:199   */\n      revert\n        /* \"#utility.yul\":211:328   */\n    tag_238:\n        /* \"#utility.yul\":320:321   */\n      0x00\n        /* \"#utility.yul\":317:318   */\n      0x00\n        /* \"#utility.yul\":310:322   */\n      revert\n        /* \"#utility.yul\":334:483   */\n    tag_239:\n        /* \"#utility.yul\":370:377   */\n      0x00\n        /* \"#utility.yul\":410:476   */\n      0xffffffff00000000000000000000000000000000000000000000000000000000\n        /* \"#utility.yul\":403:408   */\n      dup3\n        /* \"#utility.yul\":399:477   */\n      and\n        /* \"#utility.yul\":388:477   */\n      swap1\n      pop\n        /* \"#utility.yul\":334:483   */\n      swap2\n      swap1\n      pop\n      jump\t// out\n        /* \"#utility.yul\":489:609   */\n    tag_240:\n        /* \"#utility.yul\":561:584   */\n      tag_306\n        /* \"#utility.yul\":578:583   */\n      dup2\n        /* \"#utility.yul\":561:584   */\n      tag_239\n      jump\t// in\n    tag_306:\n        /* \"#utility.yul\":554:559   */\n      dup2\n        /* \"#utility.yul\":551:585   */\n      eq\n        /* \"#utility.yul\":541:603   */\n      tag_307\n      jumpi\n        /* \"#utility.yul\":599:600   */\n      0x00\n        /* \"#utility.yul\":596:597   */\n      0x00\n        /* \"#utility.yul\":589:601   */\n      revert\n        /* \"#utility.yul\":541:603   */\n    tag_307:\n        /* \"#utility.yul\":489:609   */\n      pop\n      jump\t// out\n        /* \"#utility.yul\":615:752   */\n    tag_241:\n        /* \"#utility.yul\":660:665   */\n      0x00\n        /* \"#utility.yul\":698:704   */\n      dup2\n        /* \"#utility.yul\":685:705   */\n      calldataload\n        /* \"#utility.yul\":676:705   */\n      swap1\n      pop\n        /* \"#utility.yul\":714:746   */\n      tag_309\n        /* \"#utility.yul\":740:745   */\n      dup2\n        /* \"#utility.yul\":714:746   */\n      tag_240\n      jump\t// in\n    tag_309:\n        /* \"#utility.yul\":615:752   */\n      swap3\n      swap2\n      pop\n      pop\n      jump\t// out\n        /* \"#utility.yul\":758:1085   */\n    tag_25:\n        /* \"#utility.yul\":816:822   */\n      0x00\n        /* \"#utility.yul\":865:867   */\n      0x20\n        /* \"#utility.yul\":853:862   */\n      dup3\n        /* \"#utility.yul\":844:851   */\n      dup5\n        /* \"#utility.yul\":840:863   */\n      sub\n        /* \"#utility.yul\":836:868   */\n      slt\n        /* \"#utility.yul\":833:952   */\n      iszero\n      tag_311\n      jumpi\n        /* \"#utility.yul\":871:950   */\n      tag_312\n      tag_237\n      jump\t// in\n    tag_312:\n        /* \"#utility.yul\":833:952   */\n    tag_311:\n        /* \"#utility.yul\":991:992   */\n      0x00\n        /* \"#utility.yul\":1016:1068   */\n      tag_313\n        /* \"#utility.yul\":1060:1067   */\n      dup5\n        /* \"#utility.yul\":1051:1057   */\n      dup3\n        /* \"#utility.yul\":1040:1049   */\n      dup6\n        /* \"#utility.yul\":1036:1058   */\n      add\n        /* \"#utility.yul\":1016:1068   */\n      tag_241\n      jump\t// in\n    tag_313:\n        /* \"#utility.yul\":1006:1068   */\n      swap2\n      pop\n        /* \"#utility.yul\":962:1078   */\n      pop\n        /* \"#utility.yul\":758:1085   */\n      swap3\n      swap2\n      pop\n      pop\n      jump\t// out\n        /* \"#utility.yul\":1091:1181   */\n    tag_242:\n        /* \"#utility.yul\":1125:1132   */\n      0x00\n        /* \"#utility.yul\":1168:1173   */\n      dup2\n        /* \"#utility.yul\":1161:1174   */\n      iszero\n        /* \"#utility.yul\":1154:1175   */\n      iszero\n        /* \"#utility.yul\":1143:1175   */\n      swap1\n      pop\n        /* \"#utility.yul\":1091:1181   */\n      swap2\n      swap1\n      pop\n      jump\t// out\n        /* \"#utility.yul\":1187:1296   */\n    tag_243:\n        /* \"#utility.yul\":1268:1289   */\n      tag_316\n        /* \"#utility.yul\":1283:1288   */\n      dup2\n        /* \"#utility.yul\":1268:1289   */\n      tag_242\n      jump\t// in\n    tag_316:\n        /* \"#utility.yul\":1263:1266   */\n      dup3\n        /* \"#utility.yul\":1256:1290   */\n      mstore\n        /* \"#utility.yul\":1187:1296   */\n      pop\n      pop\n      jump\t// out\n        /* \"#utility.yul\":1302:1512   */\n    tag_28:\n        /* \"#utility.yul\":1389:1393   */\n      0x00\n        /* \"#utility.yul\":1427:1429   */\n      0x20\n        /* \"#utility.yul\":1416:1425   */\n      dup3\n        /* \"#utility.yul\":1412:1430   */\n      add\n        /* \"#utility.yul\":1404:1430   */\n      swap1\n      pop\n        /* \"#utility.yul\":1440:1505   */\n      tag_318\n        /* \"#utility.yul\":1502:1503   */\n      0x00\n        /* \"#utility.yul\":1491:1500   */\n      dup4\n        /* \"#utility.yul\":1487:1504   */\n      add\n        /* \"#utility.yul\":1478:1484   */\n      dup5\n        /* \"#utility.yul\":1440:1505   */\n      tag_243\n      jump\t// in\n    tag_318:\n        /* \"#utility.yul\":1302:1512   */\n      swap3\n      swap2\n      pop\n      pop\n      jump\t// out\n        /* \"#utility.yul\":1518:1595   */\n    tag_244:\n        /* \"#utility.yul\":1555:1562   */\n      0x00\n        /* \"#utility.yul\":1584:1589   */\n      dup2\n        /* \"#utility.yul\":1573:1589   */\n      swap1\n      pop\n        /* \"#utility.yul\":1518:1595   */\n      swap2\n      swap1\n      pop\n      jump\t// out\n        /* \"#utility.yul\":1601:1723   */\n    tag_245:\n        /* \"#utility.yul\":1674:1698   */\n      tag_321\n        /* \"#utility.yul\":1692:1697   */\n      dup2\n        /* \"#utility.yul\":1674:1698   */\n      tag_244\n      jump\t// in\n    tag_321:\n        /* \"#utility.yul\":1667:1672   */\n      dup2\n        /* \"#utility.yul\":1664:1699   */\n      eq\n        /* \"#utility.yul\":1654:1717   */\n      tag_322\n      jumpi\n        /* \"#utility.yul\":1713:1714   */\n      0x00\n        /* \"#utility.yul\":1710:1711   */\n      0x00\n        /* \"#utility.yul\":1703:1715   */\n      revert\n        /* \"#utility.yul\":1654:1717   */\n    tag_322:\n        /* \"#utility.yul\":1601:1723   */\n      pop\n      jump\t// out\n        /* \"#utility.yul\":1729:1868   */\n    tag_246:\n        /* \"#utility.yul\":1775:1780   */\n      0x00\n        /* \"#utility.yul\":1813:1819   */\n      dup2\n        /* \"#utility.yul\":1800:1820   */\n      calldataload\n        /* \"#utility.yul\":1791:1820   */\n      swap1\n      pop\n        /* \"#utility.yul\":1829:1862   */\n      tag_324\n        /* \"#utility.yul\":1856:1861   */\n      dup2\n        /* \"#utility.yul\":1829:1862   */\n      tag_245\n      jump\t// in\n    tag_324:\n        /* \"#utility.yul\":1729:1868   */\n      swap3\n      swap2\n      pop\n      pop\n      jump\t// out\n        /* \"#utility.yul\":1874:2203   */\n    tag_31:\n        /* \"#utility.yul\":1933:1939   */\n      0x00\n        /* \"#utility.yul\":1982:1984   */\n      0x20\n        /* \"#utility.yul\":1970:1979   */\n      dup3\n        /* \"#utility.yul\":1961:1968   */\n      dup5\n        /* \"#utility.yul\":1957:1980   */\n      sub\n        /* \"#utility.yul\":1953:1985   */\n      slt\n        /* \"#utility.yul\":1950:2069   */\n      iszero\n      tag_326\n      jumpi\n        /* \"#utility.yul\":1988:2067   */\n      tag_327\n      tag_237\n      jump\t// in\n    tag_327:\n        /* \"#utility.yul\":1950:2069   */\n    tag_326:\n        /* \"#utility.yul\":2108:2109   */\n      0x00\n        /* \"#utility.yul\":2133:2186   */\n      tag_328\n        /* \"#utility.yul\":2178:2185   */\n      dup5\n        /* \"#utility.yul\":2169:2175   */\n      dup3\n        /* \"#utility.yul\":2158:2167   */\n      dup6\n        /* \"#utility.yul\":2154:2176   */\n      add\n        /* \"#utility.yul\":2133:2186   */\n      tag_246\n      jump\t// in\n    tag_328:\n        /* \"#utility.yul\":2123:2186   */\n      swap2\n      pop\n        /* \"#utility.yul\":2079:2196   */\n      pop\n        /* \"#utility.yul\":1874:2203   */\n      swap3\n      swap2\n      pop\n      pop\n      jump\t// out\n        /* \"#utility.yul\":2209:2327   */\n    tag_247:\n        /* \"#utility.yul\":2296:2320   */\n      tag_330\n        /* \"#utility.yul\":2314:2319   */\n      dup2\n        /* \"#utility.yul\":2296:2320   */\n      tag_244\n      jump\t// in\n    tag_330:\n        /* \"#utility.yul\":2291:2294   */\n      dup3\n        /* \"#utility.yul\":2284:2321   */\n      mstore\n        /* \"#utility.yul\":2209:2327   */\n      pop\n      pop\n      jump\t// out\n        /* \"#utility.yul\":2333:2555   */\n    tag_34:\n        /* \"#utility.yul\":2426:2430   */\n      0x00\n        /* \"#utility.yul\":2464:2466   */\n      0x20\n        /* \"#utility.yul\":2453:2462   */\n      dup3\n        /* \"#utility.yul\":2449:2467   */\n      add\n        /* \"#utility.yul\":2441:2467   */\n      swap1\n      pop\n        /* \"#utility.yul\":2477:2548   */\n      tag_332\n        /* \"#utility.yul\":2545:2546   */\n      0x00\n        /* \"#utility.yul\":2534:2543   */\n      dup4\n        /* \"#utility.yul\":2530:2547   */\n      add\n        /* \"#utility.yul\":2521:2527   */\n      dup5\n        /* \"#utility.yul\":2477:2548   */\n      tag_247\n      jump\t// in\n    tag_332:\n        /* \"#utility.yul\":2333:2555   */\n      swap3\n      swap2\n      pop\n      pop\n      jump\t// out\n        /* \"#utility.yul\":2561:2687   */\n    tag_248:\n        /* \"#utility.yul\":2598:2605   */\n      0x00\n        /* \"#utility.yul\":2638:2680   */\n      0xffffffffffffffffffffffffffffffffffffffff\n        /* \"#utility.yul\":2631:2636   */\n      dup3\n        /* \"#utility.yul\":2627:2681   */\n      and\n        /* \"#utility.yul\":2616:2681   */\n      swap1\n      pop\n        /* \"#utility.yul\":2561:2687   */\n      swap2\n      swap1\n      pop\n      jump\t// out\n        /* \"#utility.yul\":2693:2789   */\n    tag_249:\n        /* \"#utility.yul\":2730:2737   */\n      0x00\n        /* \"#utility.yul\":2759:2783   */\n      tag_335\n        /* \"#utility.yul\":2777:2782   */\n      dup3\n        /* \"#utility.yul\":2759:2783   */\n      tag_248\n      jump\t// in\n    tag_335:\n        /* \"#utility.yul\":2748:2783   */\n      swap1\n      pop\n        /* \"#utility.yul\":2693:2789   */\n      swap2\n      swap1\n      pop\n      jump\t// out\n        /* \"#utility.yul\":2795:2917   */\n    tag_250:\n        /* \"#utility.yul\":2868:2892   */\n      tag_337\n        /* \"#utility.yul\":2886:2891   */\n      dup2\n        /* \"#utility.yul\":2868:2892   */\n      tag_249\n      jump\t// in\n    tag_337:\n        /* \"#utility.yul\":2861:2866   */\n      dup2\n        /* \"#utility.yul\":2858:2893   */\n      eq\n        /* \"#utility.yul\":2848:2911   */\n      tag_338\n      jumpi\n        /* \"#utility.yul\":2907:2908   */\n      0x00\n        /* \"#utility.yul\":2904:2905   */\n      0x00\n        /* \"#utility.yul\":2897:2909   */\n      revert\n        /* \"#utility.yul\":2848:2911   */\n    tag_338:\n        /* \"#utility.yul\":2795:2917   */\n      pop\n      jump\t// out\n        /* \"#utility.yul\":2923:3062   */\n    tag_251:\n        /* \"#utility.yul\":2969:2974   */\n      0x00\n        /* \"#utility.yul\":3007:3013   */\n      dup2\n        /* \"#utility.yul\":2994:3014   */\n      calldataload\n        /* \"#utility.yul\":2985:3014   */\n      swap1\n      pop\n        /* \"#utility.yul\":3023:3056   */\n      tag_340\n        /* \"#utility.yul\":3050:3055   */\n      dup2\n        /* \"#utility.yul\":3023:3056   */\n      tag_250\n      jump\t// in\n    tag_340:\n        /* \"#utility.yul\":2923:3062   */\n      swap3\n      swap2\n      pop\n      pop\n      jump\t// out\n        /* \"#utility.yul\":3068:3397   */\n    tag_37:\n        /* \"#utility.yul\":3127:3133   */\n      0x00\n        /* \"#utility.yul\":3176:3178   */\n      0x20\n        /* \"#utility.yul\":3164:3173   */\n      dup3\n        /* \"#utility.yul\":3155:3162   */\n      dup5\n        /* \"#utility.yul\":3151:3174   */\n      sub\n        /* \"#utility.yul\":3147:3179   */\n      slt\n        /* \"#utility.yul\":3144:3263   */\n      iszero\n      tag_342\n      jumpi\n        /* \"#utility.yul\":3182:3261   */\n      tag_343\n      tag_237\n      jump\t// in\n    tag_343:\n        /* \"#utility.yul\":3144:3263   */\n    tag_342:\n        /* \"#utility.yul\":3302:3303   */\n      0x00\n        /* \"#utility.yul\":3327:3380   */\n      tag_344\n        /* \"#utility.yul\":3372:3379   */\n      dup5\n        /* \"#utility.yul\":3363:3369   */\n      dup3\n        /* \"#utility.yul\":3352:3361   */\n      dup6\n        /* \"#utility.yul\":3348:3370   */\n      add\n        /* \"#utility.yul\":3327:3380   */\n      tag_251\n      jump\t// in\n    tag_344:\n        /* \"#utility.yul\":3317:3380   */\n      swap2\n      pop\n        /* \"#utility.yul\":3273:3390   */\n      pop\n        /* \"#utility.yul\":3068:3397   */\n      swap3\n      swap2\n      pop\n      pop\n      jump\t// out\n        /* \"#utility.yul\":3403:3877   */\n    tag_42:\n        /* \"#utility.yul\":3471:3477   */\n      0x00\n        /* \"#utility.yul\":3479:3485   */\n      0x00\n        /* \"#utility.yul\":3528:3530   */\n      0x40\n        /* \"#utility.yul\":3516:3525   */\n      dup4\n        /* \"#utility.yul\":3507:3514   */\n      dup6\n        /* \"#utility.yul\":3503:3526   */\n      sub\n        /* \"#utility.yul\":3499:3531   */\n      slt\n        /* \"#utility.yul\":3496:3615   */\n      iszero\n      tag_346\n      jumpi\n        /* \"#utility.yul\":3534:3613   */\n      tag_347\n      tag_237\n      jump\t// in\n    tag_347:\n        /* \"#utility.yul\":3496:3615   */\n    tag_346:\n        /* \"#utility.yul\":3654:3655   */\n      0x00\n        /* \"#utility.yul\":3679:3732   */\n      tag_348\n        /* \"#utility.yul\":3724:3731   */\n      dup6\n        /* \"#utility.yul\":3715:3721   */\n      dup3\n        /* \"#utility.yul\":3704:3713   */\n      dup7\n        /* \"#utility.yul\":3700:3722   */\n      add\n        /* \"#utility.yul\":3679:3732   */\n      tag_246\n      jump\t// in\n    tag_348:\n        /* \"#utility.yul\":3669:3732   */\n      swap3\n      pop\n        /* \"#utility.yul\":3625:3742   */\n      pop\n        /* \"#utility.yul\":3781:3783   */\n      0x20\n        /* \"#utility.yul\":3807:3860   */\n      tag_349\n        /* \"#utility.yul\":3852:3859   */\n      dup6\n        /* \"#utility.yul\":3843:3849   */\n      dup3\n        /* \"#utility.yul\":3832:3841   */\n      dup7\n        /* \"#utility.yul\":3828:3850   */\n      add\n        /* \"#utility.yul\":3807:3860   */\n      tag_251\n      jump\t// in\n    tag_349:\n        /* \"#utility.yul\":3797:3860   */\n      swap2\n      pop\n        /* \"#utility.yul\":3752:3870   */\n      pop\n        /* \"#utility.yul\":3403:3877   */\n      swap3\n      pop\n      swap3\n      swap1\n      pop\n      jump\t// out\n        /* \"#utility.yul\":3883:4000   */\n    tag_252:\n        /* \"#utility.yul\":3992:3993   */\n      0x00\n        /* \"#utility.yul\":3989:3990   */\n      0x00\n        /* \"#utility.yul\":3982:3994   */\n      revert\n        /* \"#utility.yul\":4006:4123   */\n    tag_253:\n        /* \"#utility.yul\":4115:4116   */\n      0x00\n        /* \"#utility.yul\":4112:4113   */\n      0x00\n        /* \"#utility.yul\":4105:4117   */\n      revert\n        /* \"#utility.yul\":4129:4231   */\n    tag_254:\n        /* \"#utility.yul\":4170:4176   */\n      0x00\n        /* \"#utility.yul\":4221:4223   */\n      0x1f\n        /* \"#utility.yul\":4217:4224   */\n      not\n        /* \"#utility.yul\":4212:4214   */\n      0x1f\n        /* \"#utility.yul\":4205:4210   */\n      dup4\n        /* \"#utility.yul\":4201:4215   */\n      add\n        /* \"#utility.yul\":4197:4225   */\n      and\n        /* \"#utility.yul\":4187:4225   */\n      swap1\n      pop\n        /* \"#utility.yul\":4129:4231   */\n      swap2\n      swap1\n      pop\n      jump\t// out\n        /* \"#utility.yul\":4237:4417   */\n    tag_154:\n        /* \"#utility.yul\":4285:4362   */\n      0x4e487b7100000000000000000000000000000000000000000000000000000000\n        /* \"#utility.yul\":4282:4283   */\n      0x00\n        /* \"#utility.yul\":4275:4363   */\n      mstore\n        /* \"#utility.yul\":4382:4386   */\n      0x41\n        /* \"#utility.yul\":4379:4380   */\n      0x04\n        /* \"#utility.yul\":4372:4387   */\n      mstore\n        /* \"#utility.yul\":4406:4410   */\n      0x24\n        /* \"#utility.yul\":4403:4404   */\n      0x00\n        /* \"#utility.yul\":4396:4411   */\n      revert\n        /* \"#utility.yul\":4423:4704   */\n    tag_255:\n        /* \"#utility.yul\":4506:4533   */\n      tag_355\n        /* \"#utility.yul\":4528:4532   */\n      dup3\n        /* \"#utility.yul\":4506:4533   */\n      tag_254\n      jump\t// in\n    tag_355:\n        /* \"#utility.yul\":4498:4504   */\n      dup2\n        /* \"#utility.yul\":4494:4534   */\n      add\n        /* \"#utility.yul\":4636:4642   */\n      dup2\n        /* \"#utility.yul\":4624:4634   */\n      dup2\n        /* \"#utility.yul\":4621:4643   */\n      lt\n        /* \"#utility.yul\":4600:4618   */\n      0xffffffffffffffff\n        /* \"#utility.yul\":4588:4598   */\n      dup3\n        /* \"#utility.yul\":4585:4619   */\n      gt\n        /* \"#utility.yul\":4582:4644   */\n      or\n        /* \"#utility.yul\":4579:4667   */\n      iszero\n      tag_356\n      jumpi\n        /* \"#utility.yul\":4647:4665   */\n      tag_357\n      tag_154\n      jump\t// in\n    tag_357:\n        /* \"#utility.yul\":4579:4667   */\n    tag_356:\n        /* \"#utility.yul\":4687:4697   */\n      dup1\n        /* \"#utility.yul\":4683:4685   */\n      0x40\n        /* \"#utility.yul\":4676:4698   */\n      mstore\n        /* \"#utility.yul\":4466:4704   */\n      pop\n        /* \"#utility.yul\":4423:4704   */\n      pop\n      pop\n      jump\t// out\n        /* \"#utility.yul\":4710:4839   */\n    tag_256:\n        /* \"#utility.yul\":4744:4750   */\n      0x00\n        /* \"#utility.yul\":4771:4791   */\n      tag_359\n      tag_236\n      jump\t// in\n    tag_359:\n        /* \"#utility.yul\":4761:4791   */\n      swap1\n      pop\n        /* \"#utility.yul\":4800:4833   */\n      tag_360\n        /* \"#utility.yul\":4828:4832   */\n      dup3\n        /* \"#utility.yul\":4820:4826   */\n      dup3\n        /* \"#utility.yul\":4800:4833   */\n      tag_255\n      jump\t// in\n    tag_360:\n        /* \"#utility.yul\":4710:4839   */\n      swap2\n      swap1\n      pop\n      jump\t// out\n        /* \"#utility.yul\":4845:5153   */\n    tag_257:\n        /* \"#utility.yul\":4907:4911   */\n      0x00\n        /* \"#utility.yul\":4997:5015   */\n      0xffffffffffffffff\n        /* \"#utility.yul\":4989:4995   */\n      dup3\n        /* \"#utility.yul\":4986:5016   */\n      gt\n        /* \"#utility.yul\":4983:5039   */\n      iszero\n      tag_362\n      jumpi\n        /* \"#utility.yul\":5019:5037   */\n      tag_363\n      tag_154\n      jump\t// in\n    tag_363:\n        /* \"#utility.yul\":4983:5039   */\n    tag_362:\n        /* \"#utility.yul\":5057:5086   */\n      tag_364\n        /* \"#utility.yul\":5079:5085   */\n      dup3\n        /* \"#utility.yul\":5057:5086   */\n      tag_254\n      jump\t// in\n    tag_364:\n        /* \"#utility.yul\":5049:5086   */\n      swap1\n      pop\n        /* \"#utility.yul\":5141:5145   */\n      0x20\n        /* \"#utility.yul\":5135:5139   */\n      dup2\n        /* \"#utility.yul\":5131:5146   */\n      add\n        /* \"#utility.yul\":5123:5146   */\n      swap1\n      pop\n        /* \"#utility.yul\":4845:5153   */\n      swap2\n      swap1\n      pop\n      jump\t// out\n        /* \"#utility.yul\":5159:5307   */\n    tag_258:\n        /* \"#utility.yul\":5257:5263   */\n      dup3\n        /* \"#utility.yul\":5252:5255   */\n      dup2\n        /* \"#utility.yul\":5247:5250   */\n      dup4\n        /* \"#utility.yul\":5234:5264   */\n      calldatacopy\n        /* \"#utility.yul\":5298:5299   */\n      0x00\n        /* \"#utility.yul\":5289:5295   */\n      dup4\n        /* \"#utility.yul\":5284:5287   */\n      dup4\n        /* \"#utility.yul\":5280:5296   */\n      add\n        /* \"#utility.yul\":5273:5300   */\n      mstore\n        /* \"#utility.yul\":5159:5307   */\n      pop\n      pop\n      pop\n      jump\t// out\n        /* \"#utility.yul\":5313:5738   */\n    tag_259:\n        /* \"#utility.yul\":5391:5396   */\n      0x00\n        /* \"#utility.yul\":5416:5482   */\n      tag_367\n        /* \"#utility.yul\":5432:5481   */\n      tag_368\n        /* \"#utility.yul\":5474:5480   */\n      dup5\n        /* \"#utility.yul\":5432:5481   */\n      tag_257\n      jump\t// in\n    tag_368:\n        /* \"#utility.yul\":5416:5482   */\n      tag_256\n      jump\t// in\n    tag_367:\n        /* \"#utility.yul\":5407:5482   */\n      swap1\n      pop\n        /* \"#utility.yul\":5505:5511   */\n      dup3\n        /* \"#utility.yul\":5498:5503   */\n      dup2\n        /* \"#utility.yul\":5491:5512   */\n      mstore\n        /* \"#utility.yul\":5543:5547   */\n      0x20\n        /* \"#utility.yul\":5536:5541   */\n      dup2\n        /* \"#utility.yul\":5532:5548   */\n      add\n        /* \"#utility.yul\":5581:5584   */\n      dup5\n        /* \"#utility.yul\":5572:5578   */\n      dup5\n        /* \"#utility.yul\":5567:5570   */\n      dup5\n        /* \"#utility.yul\":5563:5579   */\n      add\n        /* \"#utility.yul\":5560:5585   */\n      gt\n        /* \"#utility.yul\":5557:5669   */\n      iszero\n      tag_369\n      jumpi\n        /* \"#utility.yul\":5588:5667   */\n      tag_370\n      tag_253\n      jump\t// in\n    tag_370:\n        /* \"#utility.yul\":5557:5669   */\n    tag_369:\n        /* \"#utility.yul\":5678:5732   */\n      tag_371\n        /* \"#utility.yul\":5725:5731   */\n      dup5\n        /* \"#utility.yul\":5720:5723   */\n      dup3\n        /* \"#utility.yul\":5715:5718   */\n      dup6\n        /* \"#utility.yul\":5678:5732   */\n      tag_258\n      jump\t// in\n    tag_371:\n        /* \"#utility.yul\":5397:5738   */\n      pop\n        /* \"#utility.yul\":5313:5738   */\n      swap4\n      swap3\n      pop\n      pop\n      pop\n      jump\t// out\n        /* \"#utility.yul\":5758:6098   */\n    tag_260:\n        /* \"#utility.yul\":5814:5819   */\n      0x00\n        /* \"#utility.yul\":5863:5866   */\n      dup3\n        /* \"#utility.yul\":5856:5860   */\n      0x1f\n        /* \"#utility.yul\":5848:5854   */\n      dup4\n        /* \"#utility.yul\":5844:5861   */\n      add\n        /* \"#utility.yul\":5840:5867   */\n      slt\n        /* \"#utility.yul\":5830:5952   */\n      tag_373\n      jumpi\n        /* \"#utility.yul\":5871:5950   */\n      tag_374\n      tag_252\n      jump\t// in\n    tag_374:\n        /* \"#utility.yul\":5830:5952   */\n    tag_373:\n        /* \"#utility.yul\":5988:5994   */\n      dup2\n        /* \"#utility.yul\":5975:5995   */\n      calldataload\n        /* \"#utility.yul\":6013:6092   */\n      tag_375\n        /* \"#utility.yul\":6088:6091   */\n      dup5\n        /* \"#utility.yul\":6080:6086   */\n      dup3\n        /* \"#utility.yul\":6073:6077   */\n      0x20\n        /* \"#utility.yul\":6065:6071   */\n      dup7\n        /* \"#utility.yul\":6061:6078   */\n      add\n        /* \"#utility.yul\":6013:6092   */\n      tag_259\n      jump\t// in\n    tag_375:\n        /* \"#utility.yul\":6004:6092   */\n      swap2\n      pop\n        /* \"#utility.yul\":5820:6098   */\n      pop\n        /* \"#utility.yul\":5758:6098   */\n      swap3\n      swap2\n      pop\n      pop\n      jump\t// out\n        /* \"#utility.yul\":6104:6758   */\n    tag_46:\n        /* \"#utility.yul\":6182:6188   */\n      0x00\n        /* \"#utility.yul\":6190:6196   */\n      0x00\n        /* \"#utility.yul\":6239:6241   */\n      0x40\n        /* \"#utility.yul\":6227:6236   */\n      dup4\n        /* \"#utility.yul\":6218:6225   */\n      dup6\n        /* \"#utility.yul\":6214:6237   */\n      sub\n        /* \"#utility.yul\":6210:6242   */\n      slt\n        /* \"#utility.yul\":6207:6326   */\n      iszero\n      tag_377\n      jumpi\n        /* \"#utility.yul\":6245:6324   */\n      tag_378\n      tag_237\n      jump\t// in\n    tag_378:\n        /* \"#utility.yul\":6207:6326   */\n    tag_377:\n        /* \"#utility.yul\":6365:6366   */\n      0x00\n        /* \"#utility.yul\":6390:6443   */\n      tag_379\n        /* \"#utility.yul\":6435:6442   */\n      dup6\n        /* \"#utility.yul\":6426:6432   */\n      dup3\n        /* \"#utility.yul\":6415:6424   */\n      dup7\n        /* \"#utility.yul\":6411:6433   */\n      add\n        /* \"#utility.yul\":6390:6443   */\n      tag_251\n      jump\t// in\n    tag_379:\n        /* \"#utility.yul\":6380:6443   */\n      swap3\n      pop\n        /* \"#utility.yul\":6336:6453   */\n      pop\n        /* \"#utility.yul\":6520:6522   */\n      0x20\n        /* \"#utility.yul\":6509:6518   */\n      dup4\n        /* \"#utility.yul\":6505:6523   */\n      add\n        /* \"#utility.yul\":6492:6524   */\n      calldataload\n        /* \"#utility.yul\":6551:6569   */\n      0xffffffffffffffff\n        /* \"#utility.yul\":6543:6549   */\n      dup2\n        /* \"#utility.yul\":6540:6570   */\n      gt\n        /* \"#utility.yul\":6537:6654   */\n      iszero\n      tag_380\n      jumpi\n        /* \"#utility.yul\":6573:6652   */\n      tag_381\n      tag_238\n      jump\t// in\n    tag_381:\n        /* \"#utility.yul\":6537:6654   */\n    tag_380:\n        /* \"#utility.yul\":6678:6741   */\n      tag_382\n        /* \"#utility.yul\":6733:6740   */\n      dup6\n        /* \"#utility.yul\":6724:6730   */\n      dup3\n        /* \"#utility.yul\":6713:6722   */\n      dup7\n        /* \"#utility.yul\":6709:6731   */\n      add\n        /* \"#utility.yul\":6678:6741   */\n      tag_260\n      jump\t// in\n    tag_382:\n        /* \"#utility.yul\":6668:6741   */\n      swap2\n      pop\n        /* \"#utility.yul\":6463:6751   */\n      pop\n        /* \"#utility.yul\":6104:6758   */\n      swap3\n      pop\n      swap3\n      swap1\n      pop\n      jump\t// out\n        /* \"#utility.yul\":6764:6863   */\n    tag_261:\n        /* \"#utility.yul\":6816:6822   */\n      0x00\n        /* \"#utility.yul\":6850:6855   */\n      dup2\n        /* \"#utility.yul\":6844:6856   */\n      mload\n        /* \"#utility.yul\":6834:6856   */\n      swap1\n      pop\n        /* \"#utility.yul\":6764:6863   */\n      swap2\n      swap1\n      pop\n      jump\t// out\n        /* \"#utility.yul\":6869:7038   */\n    tag_262:\n        /* \"#utility.yul\":6953:6964   */\n      0x00\n        /* \"#utility.yul\":6987:6993   */\n      dup3\n        /* \"#utility.yul\":6982:6985   */\n      dup3\n        /* \"#utility.yul\":6975:6994   */\n      mstore\n        /* \"#utility.yul\":7027:7031   */\n      0x20\n        /* \"#utility.yul\":7022:7025   */\n      dup3\n        /* \"#utility.yul\":7018:7032   */\n      add\n        /* \"#utility.yul\":7003:7032   */\n      swap1\n      pop\n        /* \"#utility.yul\":6869:7038   */\n      swap3\n      swap2\n      pop\n      pop\n      jump\t// out\n        /* \"#utility.yul\":7044:7183   */\n    tag_263:\n        /* \"#utility.yul\":7133:7139   */\n      dup3\n        /* \"#utility.yul\":7128:7131   */\n      dup2\n        /* \"#utility.yul\":7123:7126   */\n      dup4\n        /* \"#utility.yul\":7117:7140   */\n      mcopy\n        /* \"#utility.yul\":7174:7175   */\n      0x00\n        /* \"#utility.yul\":7165:7171   */\n      dup4\n        /* \"#utility.yul\":7160:7163   */\n      dup4\n        /* \"#utility.yul\":7156:7172   */\n      add\n        /* \"#utility.yul\":7149:7176   */\n      mstore\n        /* \"#utility.yul\":7044:7183   */\n      pop\n      pop\n      pop\n      jump\t// out\n        /* \"#utility.yul\":7189:7566   */\n    tag_264:\n        /* \"#utility.yul\":7277:7280   */\n      0x00\n        /* \"#utility.yul\":7305:7344   */\n      tag_387\n        /* \"#utility.yul\":7338:7343   */\n      dup3\n        /* \"#utility.yul\":7305:7344   */\n      tag_261\n      jump\t// in\n    tag_387:\n        /* \"#utility.yul\":7360:7431   */\n      tag_388\n        /* \"#utility.yul\":7424:7430   */\n      dup2\n        /* \"#utility.yul\":7419:7422   */\n      dup6\n        /* \"#utility.yul\":7360:7431   */\n      tag_262\n      jump\t// in\n    tag_388:\n        /* \"#utility.yul\":7353:7431   */\n      swap4\n      pop\n        /* \"#utility.yul\":7440:7505   */\n      tag_389\n        /* \"#utility.yul\":7498:7504   */\n      dup2\n        /* \"#utility.yul\":7493:7496   */\n      dup6\n        /* \"#utility.yul\":7486:7490   */\n      0x20\n        /* \"#utility.yul\":7479:7484   */\n      dup7\n        /* \"#utility.yul\":7475:7491   */\n      add\n        /* \"#utility.yul\":7440:7505   */\n      tag_263\n      jump\t// in\n    tag_389:\n        /* \"#utility.yul\":7530:7559   */\n      tag_390\n        /* \"#utility.yul\":7552:7558   */\n      dup2\n        /* \"#utility.yul\":7530:7559   */\n      tag_254\n      jump\t// in\n    tag_390:\n        /* \"#utility.yul\":7525:7528   */\n      dup5\n        /* \"#utility.yul\":7521:7560   */\n      add\n        /* \"#utility.yul\":7514:7560   */\n      swap2\n      pop\n        /* \"#utility.yul\":7281:7566   */\n      pop\n        /* \"#utility.yul\":7189:7566   */\n      swap3\n      swap2\n      pop\n      pop\n      jump\t// out\n        /* \"#utility.yul\":7572:7649   */\n    tag_265:\n        /* \"#utility.yul\":7609:7616   */\n      0x00\n        /* \"#utility.yul\":7638:7643   */\n      dup2\n        /* \"#utility.yul\":7627:7643   */\n      swap1\n      pop\n        /* \"#utility.yul\":7572:7649   */\n      swap2\n      swap1\n      pop\n      jump\t// out\n        /* \"#utility.yul\":7655:7773   */\n    tag_266:\n        /* \"#utility.yul\":7742:7766   */\n      tag_393\n        /* \"#utility.yul\":7760:7765   */\n      dup2\n        /* \"#utility.yul\":7742:7766   */\n      tag_265\n      jump\t// in\n    tag_393:\n        /* \"#utility.yul\":7737:7740   */\n      dup3\n        /* \"#utility.yul\":7730:7767   */\n      mstore\n        /* \"#utility.yul\":7655:7773   */\n      pop\n      pop\n      jump\t// out\n        /* \"#utility.yul\":7779:8704   */\n    tag_55:\n        /* \"#utility.yul\":8038:8042   */\n      0x00\n        /* \"#utility.yul\":8076:8079   */\n      0xa0\n        /* \"#utility.yul\":8065:8074   */\n      dup3\n        /* \"#utility.yul\":8061:8080   */\n      add\n        /* \"#utility.yul\":8053:8080   */\n      swap1\n      pop\n        /* \"#utility.yul\":8126:8135   */\n      dup2\n        /* \"#utility.yul\":8120:8124   */\n      dup2\n        /* \"#utility.yul\":8116:8136   */\n      sub\n        /* \"#utility.yul\":8112:8113   */\n      0x00\n        /* \"#utility.yul\":8101:8110   */\n      dup4\n        /* \"#utility.yul\":8097:8114   */\n      add\n        /* \"#utility.yul\":8090:8137   */\n      mstore\n        /* \"#utility.yul\":8154:8232   */\n      tag_395\n        /* \"#utility.yul\":8227:8231   */\n      dup2\n        /* \"#utility.yul\":8218:8224   */\n      dup9\n        /* \"#utility.yul\":8154:8232   */\n      tag_264\n      jump\t// in\n    tag_395:\n        /* \"#utility.yul\":8146:8232   */\n      swap1\n      pop\n        /* \"#utility.yul\":8279:8288   */\n      dup2\n        /* \"#utility.yul\":8273:8277   */\n      dup2\n        /* \"#utility.yul\":8269:8289   */\n      sub\n        /* \"#utility.yul\":8264:8266   */\n      0x20\n        /* \"#utility.yul\":8253:8262   */\n      dup4\n        /* \"#utility.yul\":8249:8267   */\n      add\n        /* \"#utility.yul\":8242:8290   */\n      mstore\n        /* \"#utility.yul\":8307:8385   */\n      tag_396\n        /* \"#utility.yul\":8380:8384   */\n      dup2\n        /* \"#utility.yul\":8371:8377   */\n      dup8\n        /* \"#utility.yul\":8307:8385   */\n      tag_264\n      jump\t// in\n    tag_396:\n        /* \"#utility.yul\":8299:8385   */\n      swap1\n      pop\n        /* \"#utility.yul\":8432:8441   */\n      dup2\n        /* \"#utility.yul\":8426:8430   */\n      dup2\n        /* \"#utility.yul\":8422:8442   */\n      sub\n        /* \"#utility.yul\":8417:8419   */\n      0x40\n        /* \"#utility.yul\":8406:8415   */\n      dup4\n        /* \"#utility.yul\":8402:8420   */\n      add\n        /* \"#utility.yul\":8395:8443   */\n      mstore\n        /* \"#utility.yul\":8460:8538   */\n      tag_397\n        /* \"#utility.yul\":8533:8537   */\n      dup2\n        /* \"#utility.yul\":8524:8530   */\n      dup7\n        /* \"#utility.yul\":8460:8538   */\n      tag_264\n      jump\t// in\n    tag_397:\n        /* \"#utility.yul\":8452:8538   */\n      swap1\n      pop\n        /* \"#utility.yul\":8548:8614   */\n      tag_398\n        /* \"#utility.yul\":8610:8612   */\n      0x60\n        /* \"#utility.yul\":8599:8608   */\n      dup4\n        /* \"#utility.yul\":8595:8613   */\n      add\n        /* \"#utility.yul\":8586:8592   */\n      dup6\n        /* \"#utility.yul\":8548:8614   */\n      tag_243\n      jump\t// in\n    tag_398:\n        /* \"#utility.yul\":8624:8697   */\n      tag_399\n        /* \"#utility.yul\":8692:8695   */\n      0x80\n        /* \"#utility.yul\":8681:8690   */\n      dup4\n        /* \"#utility.yul\":8677:8696   */\n      add\n        /* \"#utility.yul\":8668:8674   */\n      dup5\n        /* \"#utility.yul\":8624:8697   */\n      tag_266\n      jump\t// in\n    tag_399:\n        /* \"#utility.yul\":7779:8704   */\n      swap7\n      swap6\n      pop\n      pop\n      pop\n      pop\n      pop\n      pop\n      jump\t// out\n        /* \"#utility.yul\":8710:8824   */\n    tag_267:\n        /* \"#utility.yul\":8777:8783   */\n      0x00\n        /* \"#utility.yul\":8811:8816   */\n      dup2\n        /* \"#utility.yul\":8805:8817   */\n      mload\n        /* \"#utility.yul\":8795:8817   */\n      swap1\n      pop\n        /* \"#utility.yul\":8710:8824   */\n      swap2\n      swap1\n      pop\n      jump\t// out\n        /* \"#utility.yul\":8830:9014   */\n    tag_268:\n        /* \"#utility.yul\":8929:8940   */\n      0x00\n        /* \"#utility.yul\":8963:8969   */\n      dup3\n        /* \"#utility.yul\":8958:8961   */\n      dup3\n        /* \"#utility.yul\":8951:8970   */\n      mstore\n        /* \"#utility.yul\":9003:9007   */\n      0x20\n        /* \"#utility.yul\":8998:9001   */\n      dup3\n        /* \"#utility.yul\":8994:9008   */\n      add\n        /* \"#utility.yul\":8979:9008   */\n      swap1\n      pop\n        /* \"#utility.yul\":8830:9014   */\n      swap3\n      swap2\n      pop\n      pop\n      jump\t// out\n        /* \"#utility.yul\":9020:9152   */\n    tag_269:\n        /* \"#utility.yul\":9087:9091   */\n      0x00\n        /* \"#utility.yul\":9110:9113   */\n      dup2\n        /* \"#utility.yul\":9102:9113   */\n      swap1\n      pop\n        /* \"#utility.yul\":9140:9144   */\n      0x20\n        /* \"#utility.yul\":9135:9138   */\n      dup3\n        /* \"#utility.yul\":9131:9145   */\n      add\n        /* \"#utility.yul\":9123:9145   */\n      swap1\n      pop\n        /* \"#utility.yul\":9020:9152   */\n      swap2\n      swap1\n      pop\n      jump\t// out\n        /* \"#utility.yul\":9158:9266   */\n    tag_270:\n        /* \"#utility.yul\":9235:9259   */\n      tag_404\n        /* \"#utility.yul\":9253:9258   */\n      dup2\n        /* \"#utility.yul\":9235:9259   */\n      tag_249\n      jump\t// in\n    tag_404:\n        /* \"#utility.yul\":9230:9233   */\n      dup3\n        /* \"#utility.yul\":9223:9260   */\n      mstore\n        /* \"#utility.yul\":9158:9266   */\n      pop\n      pop\n      jump\t// out\n        /* \"#utility.yul\":9272:9451   */\n    tag_271:\n        /* \"#utility.yul\":9341:9351   */\n      0x00\n        /* \"#utility.yul\":9362:9408   */\n      tag_406\n        /* \"#utility.yul\":9404:9407   */\n      dup4\n        /* \"#utility.yul\":9396:9402   */\n      dup4\n        /* \"#utility.yul\":9362:9408   */\n      tag_270\n      jump\t// in\n    tag_406:\n        /* \"#utility.yul\":9440:9444   */\n      0x20\n        /* \"#utility.yul\":9435:9438   */\n      dup4\n        /* \"#utility.yul\":9431:9445   */\n      add\n        /* \"#utility.yul\":9417:9445   */\n      swap1\n      pop\n        /* \"#utility.yul\":9272:9451   */\n      swap3\n      swap2\n      pop\n      pop\n      jump\t// out\n        /* \"#utility.yul\":9457:9570   */\n    tag_272:\n        /* \"#utility.yul\":9527:9531   */\n      0x00\n        /* \"#utility.yul\":9559:9563   */\n      0x20\n        /* \"#utility.yul\":9554:9557   */\n      dup3\n        /* \"#utility.yul\":9550:9564   */\n      add\n        /* \"#utility.yul\":9542:9564   */\n      swap1\n      pop\n        /* \"#utility.yul\":9457:9570   */\n      swap2\n      swap1\n      pop\n      jump\t// out\n        /* \"#utility.yul\":9606:10338   */\n    tag_273:\n        /* \"#utility.yul\":9725:9728   */\n      0x00\n        /* \"#utility.yul\":9754:9808   */\n      tag_409\n        /* \"#utility.yul\":9802:9807   */\n      dup3\n        /* \"#utility.yul\":9754:9808   */\n      tag_267\n      jump\t// in\n    tag_409:\n        /* \"#utility.yul\":9824:9910   */\n      tag_410\n        /* \"#utility.yul\":9903:9909   */\n      dup2\n        /* \"#utility.yul\":9898:9901   */\n      dup6\n        /* \"#utility.yul\":9824:9910   */\n      tag_268\n      jump\t// in\n    tag_410:\n        /* \"#utility.yul\":9817:9910   */\n      swap4\n      pop\n        /* \"#utility.yul\":9934:9990   */\n      tag_411\n        /* \"#utility.yul\":9984:9989   */\n      dup4\n        /* \"#utility.yul\":9934:9990   */\n      tag_269\n      jump\t// in\n    tag_411:\n        /* \"#utility.yul\":10013:10020   */\n      dup1\n        /* \"#utility.yul\":10044:10045   */\n      0x00\n        /* \"#utility.yul\":10029:10313   */\n    tag_412:\n        /* \"#utility.yul\":10054:10060   */\n      dup4\n        /* \"#utility.yul\":10051:10052   */\n      dup2\n        /* \"#utility.yul\":10048:10061   */\n      lt\n        /* \"#utility.yul\":10029:10313   */\n      iszero\n      tag_414\n      jumpi\n        /* \"#utility.yul\":10130:10136   */\n      dup2\n        /* \"#utility.yul\":10124:10137   */\n      mload\n        /* \"#utility.yul\":10157:10220   */\n      tag_415\n        /* \"#utility.yul\":10216:10219   */\n      dup9\n        /* \"#utility.yul\":10201:10214   */\n      dup3\n        /* \"#utility.yul\":10157:10220   */\n      tag_271\n      jump\t// in\n    tag_415:\n        /* \"#utility.yul\":10150:10220   */\n      swap8\n      pop\n        /* \"#utility.yul\":10243:10303   */\n      tag_416\n        /* \"#utility.yul\":10296:10302   */\n      dup4\n        /* \"#utility.yul\":10243:10303   */\n      tag_272\n      jump\t// in\n    tag_416:\n        /* \"#utility.yul\":10233:10303   */\n      swap3\n      pop\n        /* \"#utility.yul\":10089:10313   */\n      pop\n        /* \"#utility.yul\":10076:10077   */\n      0x01\n        /* \"#utility.yul\":10073:10074   */\n      dup2\n        /* \"#utility.yul\":10069:10078   */\n      add\n        /* \"#utility.yul\":10064:10078   */\n      swap1\n      pop\n        /* \"#utility.yul\":10029:10313   */\n      jump(tag_412)\n    tag_414:\n        /* \"#utility.yul\":10033:10047   */\n      pop\n        /* \"#utility.yul\":10329:10332   */\n      dup6\n        /* \"#utility.yul\":10322:10332   */\n      swap4\n      pop\n        /* \"#utility.yul\":9730:10338   */\n      pop\n      pop\n      pop\n        /* \"#utility.yul\":9606:10338   */\n      swap3\n      swap2\n      pop\n      pop\n      jump\t// out\n        /* \"#utility.yul\":10344:10717   */\n    tag_59:\n        /* \"#utility.yul\":10487:10491   */\n      0x00\n        /* \"#utility.yul\":10525:10527   */\n      0x20\n        /* \"#utility.yul\":10514:10523   */\n      dup3\n        /* \"#utility.yul\":10510:10528   */\n      add\n        /* \"#utility.yul\":10502:10528   */\n      swap1\n      pop\n        /* \"#utility.yul\":10574:10583   */\n      dup2\n        /* \"#utility.yul\":10568:10572   */\n      dup2\n        /* \"#utility.yul\":10564:10584   */\n      sub\n        /* \"#utility.yul\":10560:10561   */\n      0x00\n        /* \"#utility.yul\":10549:10558   */\n      dup4\n        /* \"#utility.yul\":10545:10562   */\n      add\n        /* \"#utility.yul\":10538:10585   */\n      mstore\n        /* \"#utility.yul\":10602:10710   */\n      tag_418\n        /* \"#utility.yul\":10705:10709   */\n      dup2\n        /* \"#utility.yul\":10696:10702   */\n      dup5\n        /* \"#utility.yul\":10602:10710   */\n      tag_273\n      jump\t// in\n    tag_418:\n        /* \"#utility.yul\":10594:10710   */\n      swap1\n      pop\n        /* \"#utility.yul\":10344:10717   */\n      swap3\n      swap2\n      pop\n      pop\n      jump\t// out\n        /* \"#utility.yul\":10723:10845   */\n    tag_274:\n        /* \"#utility.yul\":10796:10820   */\n      tag_420\n        /* \"#utility.yul\":10814:10819   */\n      dup2\n        /* \"#utility.yul\":10796:10820   */\n      tag_265\n      jump\t// in\n    tag_420:\n        /* \"#utility.yul\":10789:10794   */\n      dup2\n        /* \"#utility.yul\":10786:10821   */\n      eq\n        /* \"#utility.yul\":10776:10839   */\n      tag_421\n      jumpi\n        /* \"#utility.yul\":10835:10836   */\n      0x00\n        /* \"#utility.yul\":10832:10833   */\n      0x00\n        /* \"#utility.yul\":10825:10837   */\n      revert\n        /* \"#utility.yul\":10776:10839   */\n    tag_421:\n        /* \"#utility.yul\":10723:10845   */\n      pop\n      jump\t// out\n        /* \"#utility.yul\":10851:10990   */\n    tag_275:\n        /* \"#utility.yul\":10897:10902   */\n      0x00\n        /* \"#utility.yul\":10935:10941   */\n      dup2\n        /* \"#utility.yul\":10922:10942   */\n      calldataload\n        /* \"#utility.yul\":10913:10942   */\n      swap1\n      pop\n        /* \"#utility.yul\":10951:10984   */\n      tag_423\n        /* \"#utility.yul\":10978:10983   */\n      dup2\n        /* \"#utility.yul\":10951:10984   */\n      tag_274\n      jump\t// in\n    tag_423:\n        /* \"#utility.yul\":10851:10990   */\n      swap3\n      swap2\n      pop\n      pop\n      jump\t// out\n        /* \"#utility.yul\":10996:11325   */\n    tag_76:\n        /* \"#utility.yul\":11055:11061   */\n      0x00\n        /* \"#utility.yul\":11104:11106   */\n      0x20\n        /* \"#utility.yul\":11092:11101   */\n      dup3\n        /* \"#utility.yul\":11083:11090   */\n      dup5\n        /* \"#utility.yul\":11079:11102   */\n      sub\n        /* \"#utility.yul\":11075:11107   */\n      slt\n        /* \"#utility.yul\":11072:11191   */\n      iszero\n      tag_425\n      jumpi\n        /* \"#utility.yul\":11110:11189   */\n      tag_426\n      tag_237\n      jump\t// in\n    tag_426:\n        /* \"#utility.yul\":11072:11191   */\n    tag_425:\n        /* \"#utility.yul\":11230:11231   */\n      0x00\n        /* \"#utility.yul\":11255:11308   */\n      tag_427\n        /* \"#utility.yul\":11300:11307   */\n      dup5\n        /* \"#utility.yul\":11291:11297   */\n      dup3\n        /* \"#utility.yul\":11280:11289   */\n      dup6\n        /* \"#utility.yul\":11276:11298   */\n      add\n        /* \"#utility.yul\":11255:11308   */\n      tag_275\n      jump\t// in\n    tag_427:\n        /* \"#utility.yul\":11245:11308   */\n      swap2\n      pop\n        /* \"#utility.yul\":11201:11318   */\n      pop\n        /* \"#utility.yul\":10996:11325   */\n      swap3\n      swap2\n      pop\n      pop\n      jump\t// out\n        /* \"#utility.yul\":11331:11449   */\n    tag_276:\n        /* \"#utility.yul\":11418:11442   */\n      tag_429\n        /* \"#utility.yul\":11436:11441   */\n      dup2\n        /* \"#utility.yul\":11418:11442   */\n      tag_249\n      jump\t// in\n    tag_429:\n        /* \"#utility.yul\":11413:11416   */\n      dup3\n        /* \"#utility.yul\":11406:11443   */\n      mstore\n        /* \"#utility.yul\":11331:11449   */\n      pop\n      pop\n      jump\t// out\n        /* \"#utility.yul\":11455:11677   */\n    tag_79:\n        /* \"#utility.yul\":11548:11552   */\n      0x00\n        /* \"#utility.yul\":11586:11588   */\n      0x20\n        /* \"#utility.yul\":11575:11584   */\n      dup3\n        /* \"#utility.yul\":11571:11589   */\n      add\n        /* \"#utility.yul\":11563:11589   */\n      swap1\n      pop\n        /* \"#utility.yul\":11599:11670   */\n      tag_431\n        /* \"#utility.yul\":11667:11668   */\n      0x00\n        /* \"#utility.yul\":11656:11665   */\n      dup4\n        /* \"#utility.yul\":11652:11669   */\n      add\n        /* \"#utility.yul\":11643:11649   */\n      dup5\n        /* \"#utility.yul\":11599:11670   */\n      tag_276\n      jump\t// in\n    tag_431:\n        /* \"#utility.yul\":11455:11677   */\n      swap3\n      swap2\n      pop\n      pop\n      jump\t// out\n        /* \"#utility.yul\":11683:12988   */\n    tag_82:\n        /* \"#utility.yul\":11799:11805   */\n      0x00\n        /* \"#utility.yul\":11807:11813   */\n      0x00\n        /* \"#utility.yul\":11815:11821   */\n      0x00\n        /* \"#utility.yul\":11823:11829   */\n      0x00\n        /* \"#utility.yul\":11872:11875   */\n      0x80\n        /* \"#utility.yul\":11860:11869   */\n      dup6\n        /* \"#utility.yul\":11851:11858   */\n      dup8\n        /* \"#utility.yul\":11847:11870   */\n      sub\n        /* \"#utility.yul\":11843:11876   */\n      slt\n        /* \"#utility.yul\":11840:11960   */\n      iszero\n      tag_433\n      jumpi\n        /* \"#utility.yul\":11879:11958   */\n      tag_434\n      tag_237\n      jump\t// in\n    tag_434:\n        /* \"#utility.yul\":11840:11960   */\n    tag_433:\n        /* \"#utility.yul\":11999:12000   */\n      0x00\n        /* \"#utility.yul\":12024:12077   */\n      tag_435\n        /* \"#utility.yul\":12069:12076   */\n      dup8\n        /* \"#utility.yul\":12060:12066   */\n      dup3\n        /* \"#utility.yul\":12049:12058   */\n      dup9\n        /* \"#utility.yul\":12045:12067   */\n      add\n        /* \"#utility.yul\":12024:12077   */\n      tag_251\n      jump\t// in\n    tag_435:\n        /* \"#utility.yul\":12014:12077   */\n      swap5\n      pop\n        /* \"#utility.yul\":11970:12087   */\n      pop\n        /* \"#utility.yul\":12154:12156   */\n      0x20\n        /* \"#utility.yul\":12143:12152   */\n      dup6\n        /* \"#utility.yul\":12139:12157   */\n      add\n        /* \"#utility.yul\":12126:12158   */\n      calldataload\n        /* \"#utility.yul\":12185:12203   */\n      0xffffffffffffffff\n        /* \"#utility.yul\":12177:12183   */\n      dup2\n        /* \"#utility.yul\":12174:12204   */\n      gt\n        /* \"#utility.yul\":12171:12288   */\n      iszero\n      tag_436\n      jumpi\n        /* \"#utility.yul\":12207:12286   */\n      tag_437\n      tag_238\n      jump\t// in\n    tag_437:\n        /* \"#utility.yul\":12171:12288   */\n    tag_436:\n        /* \"#utility.yul\":12312:12375   */\n      tag_438\n        /* \"#utility.yul\":12367:12374   */\n      dup8\n        /* \"#utility.yul\":12358:12364   */\n      dup3\n        /* \"#utility.yul\":12347:12356   */\n      dup9\n        /* \"#utility.yul\":12343:12365   */\n      add\n        /* \"#utility.yul\":12312:12375   */\n      tag_260\n      jump\t// in\n    tag_438:\n        /* \"#utility.yul\":12302:12375   */\n      swap4\n      pop\n        /* \"#utility.yul\":12097:12385   */\n      pop\n        /* \"#utility.yul\":12452:12454   */\n      0x40\n        /* \"#utility.yul\":12441:12450   */\n      dup6\n        /* \"#utility.yul\":12437:12455   */\n      add\n        /* \"#utility.yul\":12424:12456   */\n      calldataload\n        /* \"#utility.yul\":12483:12501   */\n      0xffffffffffffffff\n        /* \"#utility.yul\":12475:12481   */\n      dup2\n        /* \"#utility.yul\":12472:12502   */\n      gt\n        /* \"#utility.yul\":12469:12586   */\n      iszero\n      tag_439\n      jumpi\n        /* \"#utility.yul\":12505:12584   */\n      tag_440\n      tag_238\n      jump\t// in\n    tag_440:\n        /* \"#utility.yul\":12469:12586   */\n    tag_439:\n        /* \"#utility.yul\":12610:12673   */\n      tag_441\n        /* \"#utility.yul\":12665:12672   */\n      dup8\n        /* \"#utility.yul\":12656:12662   */\n      dup3\n        /* \"#utility.yul\":12645:12654   */\n      dup9\n        /* \"#utility.yul\":12641:12663   */\n      add\n        /* \"#utility.yul\":12610:12673   */\n      tag_260\n      jump\t// in\n    tag_441:\n        /* \"#utility.yul\":12600:12673   */\n      swap3\n      pop\n        /* \"#utility.yul\":12395:12683   */\n      pop\n        /* \"#utility.yul\":12750:12752   */\n      0x60\n        /* \"#utility.yul\":12739:12748   */\n      dup6\n        /* \"#utility.yul\":12735:12753   */\n      add\n        /* \"#utility.yul\":12722:12754   */\n      calldataload\n        /* \"#utility.yul\":12781:12799   */\n      0xffffffffffffffff\n        /* \"#utility.yul\":12773:12779   */\n      dup2\n        /* \"#utility.yul\":12770:12800   */\n      gt\n        /* \"#utility.yul\":12767:12884   */\n      iszero\n      tag_442\n      jumpi\n        /* \"#utility.yul\":12803:12882   */\n      tag_443\n      tag_238\n      jump\t// in\n    tag_443:\n        /* \"#utility.yul\":12767:12884   */\n    tag_442:\n        /* \"#utility.yul\":12908:12971   */\n      tag_444\n        /* \"#utility.yul\":12963:12970   */\n      dup8\n        /* \"#utility.yul\":12954:12960   */\n      dup3\n        /* \"#utility.yul\":12943:12952   */\n      dup9\n        /* \"#utility.yul\":12939:12961   */\n      add\n        /* \"#utility.yul\":12908:12971   */\n      tag_260\n      jump\t// in\n    tag_444:\n        /* \"#utility.yul\":12898:12971   */\n      swap2\n      pop\n        /* \"#utility.yul\":12693:12981   */\n      pop\n        /* \"#utility.yul\":11683:12988   */\n      swap3\n      swap6\n      swap2\n      swap5\n      pop\n      swap3\n      pop\n      jump\t// out\n        /* \"#utility.yul\":12994:13162   */\n    tag_277:\n        /* \"#utility.yul\":13134:13154   */\n      0x417574686f7269747920696e6163746976650000000000000000000000000000\n        /* \"#utility.yul\":13130:13131   */\n      0x00\n        /* \"#utility.yul\":13122:13128   */\n      dup3\n        /* \"#utility.yul\":13118:13132   */\n      add\n        /* \"#utility.yul\":13111:13155   */\n      mstore\n        /* \"#utility.yul\":12994:13162   */\n      pop\n      jump\t// out\n        /* \"#utility.yul\":13168:13534   */\n    tag_278:\n        /* \"#utility.yul\":13310:13313   */\n      0x00\n        /* \"#utility.yul\":13331:13398   */\n      tag_447\n        /* \"#utility.yul\":13395:13397   */\n      0x12\n        /* \"#utility.yul\":13390:13393   */\n      dup4\n        /* \"#utility.yul\":13331:13398   */\n      tag_262\n      jump\t// in\n    tag_447:\n        /* \"#utility.yul\":13324:13398   */\n      swap2\n      pop\n        /* \"#utility.yul\":13407:13500   */\n      tag_448\n        /* \"#utility.yul\":13496:13499   */\n      dup3\n        /* \"#utility.yul\":13407:13500   */\n      tag_277\n      jump\t// in\n    tag_448:\n        /* \"#utility.yul\":13525:13527   */\n      0x20\n        /* \"#utility.yul\":13520:13523   */\n      dup3\n        /* \"#utility.yul\":13516:13528   */\n      add\n        /* \"#utility.yul\":13509:13528   */\n      swap1\n      pop\n        /* \"#utility.yul\":13168:13534   */\n      swap2\n      swap1\n      pop\n      jump\t// out\n        /* \"#utility.yul\":13540:13959   */\n    tag_113:\n        /* \"#utility.yul\":13706:13710   */\n      0x00\n        /* \"#utility.yul\":13744:13746   */\n      0x20\n        /* \"#utility.yul\":13733:13742   */\n      dup3\n        /* \"#utility.yul\":13729:13747   */\n      add\n        /* \"#utility.yul\":13721:13747   */\n      swap1\n      pop\n        /* \"#utility.yul\":13793:13802   */\n      dup2\n        /* \"#utility.yul\":13787:13791   */\n      dup2\n        /* \"#utility.yul\":13783:13803   */\n      sub\n        /* \"#utility.yul\":13779:13780   */\n      0x00\n        /* \"#utility.yul\":13768:13777   */\n      dup4\n        /* \"#utility.yul\":13764:13781   */\n      add\n        /* \"#utility.yul\":13757:13804   */\n      mstore\n        /* \"#utility.yul\":13821:13952   */\n      tag_450\n        /* \"#utility.yul\":13947:13951   */\n      dup2\n        /* \"#utility.yul\":13821:13952   */\n      tag_278\n      jump\t// in\n    tag_450:\n        /* \"#utility.yul\":13813:13952   */\n      swap1\n      pop\n        /* \"#utility.yul\":13540:13959   */\n      swap2\n      swap1\n      pop\n      jump\t// out\n        /* \"#utility.yul\":13965:14145   */\n    tag_279:\n        /* \"#utility.yul\":14013:14090   */\n      0x4e487b7100000000000000000000000000000000000000000000000000000000\n        /* \"#utility.yul\":14010:14011   */\n      0x00\n        /* \"#utility.yul\":14003:14091   */\n      mstore\n        /* \"#utility.yul\":14110:14114   */\n      0x22\n        /* \"#utility.yul\":14107:14108   */\n      0x04\n        /* \"#utility.yul\":14100:14115   */\n      mstore\n        /* \"#utility.yul\":14134:14138   */\n      0x24\n        /* \"#utility.yul\":14131:14132   */\n      0x00\n        /* \"#utility.yul\":14124:14139   */\n      revert\n        /* \"#utility.yul\":14151:14471   */\n    tag_126:\n        /* \"#utility.yul\":14195:14201   */\n      0x00\n        /* \"#utility.yul\":14232:14233   */\n      0x02\n        /* \"#utility.yul\":14226:14230   */\n      dup3\n        /* \"#utility.yul\":14222:14234   */\n      div\n        /* \"#utility.yul\":14212:14234   */\n      swap1\n      pop\n        /* \"#utility.yul\":14279:14280   */\n      0x01\n        /* \"#utility.yul\":14273:14277   */\n      dup3\n        /* \"#utility.yul\":14269:14281   */\n      and\n        /* \"#utility.yul\":14300:14318   */\n      dup1\n        /* \"#utility.yul\":14290:14371   */\n      tag_453\n      jumpi\n        /* \"#utility.yul\":14356:14360   */\n      0x7f\n        /* \"#utility.yul\":14348:14354   */\n      dup3\n        /* \"#utility.yul\":14344:14361   */\n      and\n        /* \"#utility.yul\":14334:14361   */\n      swap2\n      pop\n        /* \"#utility.yul\":14290:14371   */\n    tag_453:\n        /* \"#utility.yul\":14418:14420   */\n      0x20\n        /* \"#utility.yul\":14410:14416   */\n      dup3\n        /* \"#utility.yul\":14407:14421   */\n      lt\n        /* \"#utility.yul\":14387:14405   */\n      dup2\n        /* \"#utility.yul\":14384:14422   */\n      sub\n        /* \"#utility.yul\":14381:14465   */\n      tag_454\n      jumpi\n        /* \"#utility.yul\":14437:14455   */\n      tag_455\n      tag_279\n      jump\t// in\n    tag_455:\n        /* \"#utility.yul\":14381:14465   */\n    tag_454:\n        /* \"#utility.yul\":14202:14471   */\n      pop\n        /* \"#utility.yul\":14151:14471   */\n      swap2\n      swap1\n      pop\n      jump\t// out\n        /* \"#utility.yul\":14477:14618   */\n    tag_280:\n        /* \"#utility.yul\":14526:14530   */\n      0x00\n        /* \"#utility.yul\":14549:14552   */\n      dup2\n        /* \"#utility.yul\":14541:14552   */\n      swap1\n      pop\n        /* \"#utility.yul\":14572:14575   */\n      dup2\n        /* \"#utility.yul\":14569:14570   */\n      0x00\n        /* \"#utility.yul\":14562:14576   */\n      mstore\n        /* \"#utility.yul\":14606:14610   */\n      0x20\n        /* \"#utility.yul\":14603:14604   */\n      0x00\n        /* \"#utility.yul\":14593:14611   */\n      keccak256\n        /* \"#utility.yul\":14585:14611   */\n      swap1\n      pop\n        /* \"#utility.yul\":14477:14618   */\n      swap2\n      swap1\n      pop\n      jump\t// out\n        /* \"#utility.yul\":14624:14717   */\n    tag_281:\n        /* \"#utility.yul\":14661:14667   */\n      0x00\n        /* \"#utility.yul\":14708:14710   */\n      0x20\n        /* \"#utility.yul\":14703:14705   */\n      0x1f\n        /* \"#utility.yul\":14696:14701   */\n      dup4\n        /* \"#utility.yul\":14692:14706   */\n      add\n        /* \"#utility.yul\":14688:14711   */\n      div\n        /* \"#utility.yul\":14678:14711   */\n      swap1\n      pop\n        /* \"#utility.yul\":14624:14717   */\n      swap2\n      swap1\n      pop\n      jump\t// out\n        /* \"#utility.yul\":14723:14830   */\n    tag_282:\n        /* \"#utility.yul\":14767:14775   */\n      0x00\n        /* \"#utility.yul\":14817:14822   */\n      dup3\n        /* \"#utility.yul\":14811:14815   */\n      dup3\n        /* \"#utility.yul\":14807:14823   */\n      shl\n        /* \"#utility.yul\":14786:14823   */\n      swap1\n      pop\n        /* \"#utility.yul\":14723:14830   */\n      swap3\n      swap2\n      pop\n      pop\n      jump\t// out\n        /* \"#utility.yul\":14836:15229   */\n    tag_283:\n        /* \"#utility.yul\":14905:14911   */\n      0x00\n        /* \"#utility.yul\":14955:14956   */\n      0x08\n        /* \"#utility.yul\":14943:14953   */\n      dup4\n        /* \"#utility.yul\":14939:14957   */\n      mul\n        /* \"#utility.yul\":14978:15075   */\n      tag_460\n        /* \"#utility.yul\":15008:15074   */\n      0xffffffffffffffffffffffffffffffffffffffffffffffffffffffffffffffff\n        /* \"#utility.yul\":14997:15006   */\n      dup3\n        /* \"#utility.yul\":14978:15075   */\n      tag_282\n      jump\t// in\n    tag_460:\n        /* \"#utility.yul\":15096:15135   */\n      tag_461\n        /* \"#utility.yul\":15126:15134   */\n      dup7\n        /* \"#utility.yul\":15115:15124   */\n      dup4\n        /* \"#utility.yul\":15096:15135   */\n      tag_282\n      jump\t// in\n    tag_461:\n        /* \"#utility.yul\":15084:15135   */\n      swap6\n      pop\n        /* \"#utility.yul\":15168:15172   */\n      dup1\n        /* \"#utility.yul\":15164:15173   */\n      not\n        /* \"#utility.yul\":15157:15162   */\n      dup5\n        /* \"#utility.yul\":15153:15174   */\n      and\n        /* \"#utility.yul\":15144:15174   */\n      swap4\n      pop\n        /* \"#utility.yul\":15217:15221   */\n      dup1\n        /* \"#utility.yul\":15207:15215   */\n      dup7\n        /* \"#utility.yul\":15203:15222   */\n      and\n        /* \"#utility.yul\":15196:15201   */\n      dup5\n        /* \"#utility.yul\":15193:15223   */\n      or\n        /* \"#utility.yul\":15183:15223   */\n      swap3\n      pop\n        /* \"#utility.yul\":14912:15229   */\n      pop\n      pop\n        /* \"#utility.yul\":14836:15229   */\n      swap4\n      swap3\n      pop\n      pop\n      pop\n      jump\t// out\n        /* \"#utility.yul\":15235:15295   */\n    tag_284:\n        /* \"#utility.yul\":15263:15266   */\n      0x00\n        /* \"#utility.yul\":15284:15289   */\n      dup2\n        /* \"#utility.yul\":15277:15289   */\n      swap1\n      pop\n        /* \"#utility.yul\":15235:15295   */\n      swap2\n      swap1\n      pop\n      jump\t// out\n        /* \"#utility.yul\":15301:15443   */\n    tag_285:\n        /* \"#utility.yul\":15351:15360   */\n      0x00\n        /* \"#utility.yul\":15384:15437   */\n      tag_464\n        /* \"#utility.yul\":15402:15436   */\n      tag_465\n        /* \"#utility.yul\":15411:15435   */\n      tag_466\n        /* \"#utility.yul\":15429:15434   */\n      dup5\n        /* \"#utility.yul\":15411:15435   */\n      tag_265\n      jump\t// in\n    tag_466:\n        /* \"#utility.yul\":15402:15436   */\n      tag_284\n      jump\t// in\n    tag_465:\n        /* \"#utility.yul\":15384:15437   */\n      tag_265\n      jump\t// in\n    tag_464:\n        /* \"#utility.yul\":15371:15437   */\n      swap1\n      pop\n        /* \"#utility.yul\":15301:15443   */\n      swap2\n      swap1\n      pop\n      jump\t// out\n        /* \"#utility.yul\":15449:15524   */\n    tag_286:\n        /* \"#utility.yul\":15492:15495   */\n      0x00\n        /* \"#utility.yul\":15513:15518   */\n      dup2\n        /* \"#utility.yul\":15506:15518   */\n      swap1\n      pop\n        /* \"#utility.yul\":15449:15524   */\n      swap2\n      swap1\n      pop\n      jump\t// out\n        /* \"#utility.yul\":15530:15799   */\n    tag_287:\n        /* \"#utility.yul\":15640:15679   */\n      tag_469\n        /* \"#utility.yul\":15671:15678   */\n      dup4\n        /* \"#utility.yul\":15640:15679   */\n      tag_285\n      jump\t// in\n    tag_469:\n        /* \"#utility.yul\":15701:15792   */\n      tag_470\n        /* \"#utility.yul\":15750:15791   */\n      tag_471\n        /* \"#utility.yul\":15774:15790   */\n      dup3\n        /* \"#utility.yul\":15750:15791   */\n      tag_286\n      jump\t// in\n    tag_471:\n        /* \"#utility.yul\":15742:15748   */\n      dup5\n        /* \"#utility.yul\":15735:15739   */\n      dup5\n        /* \"#utility.yul\":15729:15740   */\n      sload\n        /* \"#utility.yul\":15701:15792   */\n      tag_283\n      jump\t// in\n    tag_470:\n        /* \"#utility.yul\":15695:15699   */\n      dup3\n        /* \"#utility.yul\":15688:15793   */\n      sstore\n        /* \"#utility.yul\":15606:15799   */\n      pop\n        /* \"#utility.yul\":15530:15799   */\n      pop\n      pop\n      pop\n      jump\t// out\n        /* \"#utility.yul\":15805:15878   */\n    tag_288:\n        /* \"#utility.yul\":15850:15853   */\n      0x00\n        /* \"#utility.yul\":15871:15872   */\n      0x00\n        /* \"#utility.yul\":15864:15872   */\n      swap1\n      pop\n        /* \"#utility.yul\":15805:15878   */\n      swap1\n      jump\t// out\n        /* \"#utility.yul\":15884:16073   */\n    tag_289:\n        /* \"#utility.yul\":15961:15993   */\n      tag_474\n      tag_288\n      jump\t// in\n    tag_474:\n        /* \"#utility.yul\":16002:16067   */\n      tag_475\n        /* \"#utility.yul\":16060:16066   */\n      dup2\n        /* \"#utility.yul\":16052:16058   */\n      dup5\n        /* \"#utility.yul\":16046:16050   */\n      dup5\n        /* \"#utility.yul\":16002:16067   */\n      tag_287\n      jump\t// in\n    tag_475:\n        /* \"#utility.yul\":15937:16073   */\n      pop\n        /* \"#utility.yul\":15884:16073   */\n      pop\n      pop\n      jump\t// out\n        /* \"#utility.yul\":16079:16265   */\n    tag_290:\n        /* \"#utility.yul\":16139:16259   */\n    tag_477:\n        /* \"#utility.yul\":16156:16159   */\n      dup2\n        /* \"#utility.yul\":16149:16154   */\n      dup2\n        /* \"#utility.yul\":16146:16160   */\n      lt\n        /* \"#utility.yul\":16139:16259   */\n      iszero\n      tag_479\n      jumpi\n        /* \"#utility.yul\":16210:16249   */\n      tag_480\n        /* \"#utility.yul\":16247:16248   */\n      0x00\n        /* \"#utility.yul\":16240:16245   */\n      dup3\n        /* \"#utility.yul\":16210:16249   */\n      tag_289\n      jump\t// in\n    tag_480:\n        /* \"#utility.yul\":16183:16184   */\n      0x01\n        /* \"#utility.yul\":16176:16181   */\n      dup2\n        /* \"#utility.yul\":16172:16185   */\n      add\n        /* \"#utility.yul\":16163:16185   */\n      swap1\n      pop\n        /* \"#utility.yul\":16139:16259   */\n      jump(tag_477)\n    tag_479:\n        /* \"#utility.yul\":16079:16265   */\n      pop\n      pop\n      jump\t// out\n        /* \"#utility.yul\":16271:16814   */\n    tag_291:\n        /* \"#utility.yul\":16372:16374   */\n      0x1f\n        /* \"#utility.yul\":16367:16370   */\n      dup3\n        /* \"#utility.yul\":16364:16375   */\n      gt\n        /* \"#utility.yul\":16361:16807   */\n      iszero\n      tag_482\n      jumpi\n        /* \"#utility.yul\":16406:16444   */\n      tag_483\n        /* \"#utility.yul\":16438:16443   */\n      dup2\n        /* \"#utility.yul\":16406:16444   */\n      tag_280\n      jump\t// in\n    tag_483:\n        /* \"#utility.yul\":16490:16519   */\n      tag_484\n        /* \"#utility.yul\":16508:16518   */\n      dup5\n        /* \"#utility.yul\":16490:16519   */\n      tag_281\n      jump\t// in\n    tag_484:\n        /* \"#utility.yul\":16480:16488   */\n      dup2\n        /* \"#utility.yul\":16476:16520   */\n      add\n        /* \"#utility.yul\":16673:16675   */\n      0x20\n        /* \"#utility.yul\":16661:16671   */\n      dup6\n        /* \"#utility.yul\":16658:16676   */\n      lt\n        /* \"#utility.yul\":16655:16704   */\n      iszero\n      tag_485\n      jumpi\n        /* \"#utility.yul\":16694:16702   */\n      dup2\n        /* \"#utility.yul\":16679:16702   */\n      swap1\n      pop\n        /* \"#utility.yul\":16655:16704   */\n    tag_485:\n        /* \"#utility.yul\":16717:16797   */\n      tag_486\n        /* \"#utility.yul\":16773:16795   */\n      tag_487\n        /* \"#utility.yul\":16791:16794   */\n      dup6\n        /* \"#utility.yul\":16773:16795   */\n      tag_281\n      jump\t// in\n    tag_487:\n        /* \"#utility.yul\":16763:16771   */\n      dup4\n        /* \"#utility.yul\":16759:16796   */\n      add\n        /* \"#utility.yul\":16746:16757   */\n      dup3\n        /* \"#utility.yul\":16717:16797   */\n      tag_290\n      jump\t// in\n    tag_486:\n        /* \"#utility.yul\":16376:16807   */\n      pop\n      pop\n        /* \"#utility.yul\":16361:16807   */\n    tag_482:\n        /* \"#utility.yul\":16271:16814   */\n      pop\n      pop\n      pop\n      jump\t// out\n        /* \"#utility.yul\":16820:16937   */\n    tag_292:\n        /* \"#utility.yul\":16874:16882   */\n      0x00\n        /* \"#utility.yul\":16924:16929   */\n      dup3\n        /* \"#utility.yul\":16918:16922   */\n      dup3\n        /* \"#utility.yul\":16914:16930   */\n      shr\n        /* \"#utility.yul\":16893:16930   */\n      swap1\n      pop\n        /* \"#utility.yul\":16820:16937   */\n      swap3\n      swap2\n      pop\n      pop\n      jump\t// out\n        /* \"#utility.yul\":16943:17112   */\n    tag_293:\n        /* \"#utility.yul\":16987:16993   */\n      0x00\n        /* \"#utility.yul\":17020:17071   */\n      tag_490\n        /* \"#utility.yul\":17068:17069   */\n      0x00\n        /* \"#utility.yul\":17064:17070   */\n      not\n        /* \"#utility.yul\":17056:17061   */\n      dup5\n        /* \"#utility.yul\":17053:17054   */\n      0x08\n        /* \"#utility.yul\":17049:17062   */\n      mul\n        /* \"#utility.yul\":17020:17071   */\n      tag_292\n      jump\t// in\n    tag_490:\n        /* \"#utility.yul\":17016:17072   */\n      not\n        /* \"#utility.yul\":17101:17105   */\n      dup1\n        /* \"#utility.yul\":17095:17099   */\n      dup4\n        /* \"#utility.yul\":17091:17106   */\n      and\n        /* \"#utility.yul\":17081:17106   */\n      swap2\n      pop\n        /* \"#utility.yul\":16994:17112   */\n      pop\n        /* \"#utility.yul\":16943:17112   */\n      swap3\n      swap2\n      pop\n      pop\n      jump\t// out\n        /* \"#utility.yul\":17117:17412   */\n    tag_294:\n        /* \"#utility.yul\":17193:17197   */\n      0x00\n        /* \"#utility.yul\":17339:17368   */\n      tag_492\n        /* \"#utility.yul\":17364:17367   */\n      dup4\n        /* \"#utility.yul\":17358:17362   */\n      dup4\n        /* \"#utility.yul\":17339:17368   */\n      tag_293\n      jump\t// in\n    tag_492:\n        /* \"#utility.yul\":17331:17368   */\n      swap2\n      pop\n        /* \"#utility.yul\":17401:17404   */\n      dup3\n        /* \"#utility.yul\":17398:17399   */\n      0x02\n        /* \"#utility.yul\":17394:17405   */\n      mul\n        /* \"#utility.yul\":17388:17392   */\n      dup3\n        /* \"#utility.yul\":17385:17406   */\n      or\n        /* \"#utility.yul\":17377:17406   */\n      swap1\n      pop\n        /* \"#utility.yul\":17117:17412   */\n      swap3\n      swap2\n      pop\n      pop\n      jump\t// out\n        /* \"#utility.yul\":17417:18812   */\n    tag_115:\n        /* \"#utility.yul\":17534:17571   */\n      tag_494\n        /* \"#utility.yul\":17567:17570   */\n      dup3\n        /* \"#utility.yul\":17534:17571   */\n      tag_261\n      jump\t// in\n    tag_494:\n        /* \"#utility.yul\":17636:17654   */\n      0xffffffffffffffff\n        /* \"#utility.yul\":17628:17634   */\n      dup2\n        /* \"#utility.yul\":17625:17655   */\n      gt\n        /* \"#utility.yul\":17622:17678   */\n      iszero\n      tag_495\n      jumpi\n        /* \"#utility.yul\":17658:17676   */\n      tag_496\n      tag_154\n      jump\t// in\n    tag_496:\n        /* \"#utility.yul\":17622:17678   */\n    tag_495:\n        /* \"#utility.yul\":17702:17740   */\n      tag_497\n        /* \"#utility.yul\":17734:17738   */\n      dup3\n        /* \"#utility.yul\":17728:17739   */\n      sload\n        /* \"#utility.yul\":17702:17740   */\n      tag_126\n      jump\t// in\n    tag_497:\n        /* \"#utility.yul\":17787:17854   */\n      tag_498\n        /* \"#utility.yul\":17847:17853   */\n      dup3\n        /* \"#utility.yul\":17839:17845   */\n      dup3\n        /* \"#utility.yul\":17833:17837   */\n      dup6\n        /* \"#utility.yul\":17787:17854   */\n      tag_291\n      jump\t// in\n    tag_498:\n        /* \"#utility.yul\":17881:17882   */\n      0x00\n        /* \"#utility.yul\":17905:17909   */\n      0x20\n        /* \"#utility.yul\":17892:17909   */\n      swap1\n      pop\n        /* \"#utility.yul\":17937:17939   */\n      0x1f\n        /* \"#utility.yul\":17929:17935   */\n      dup4\n        /* \"#utility.yul\":17926:17940   */\n      gt\n        /* \"#utility.yul\":17954:17955   */\n      0x01\n        /* \"#utility.yul\":17949:18567   */\n      dup2\n      eq\n      tag_500\n      jumpi\n        /* \"#utility.yul\":18611:18612   */\n      0x00\n        /* \"#utility.yul\":18628:18634   */\n      dup5\n        /* \"#utility.yul\":18625:18702   */\n      iszero\n      tag_501\n      jumpi\n        /* \"#utility.yul\":18677:18686   */\n      dup3\n        /* \"#utility.yul\":18672:18675   */\n      dup8\n        /* \"#utility.yul\":18668:18687   */\n      add\n        /* \"#utility.yul\":18662:18688   */\n      mload\n        /* \"#utility.yul\":18653:18688   */\n      swap1\n      pop\n        /* \"#utility.yul\":18625:18702   */\n    tag_501:\n        /* \"#utility.yul\":18728:18795   */\n      tag_502\n        /* \"#utility.yul\":18788:18794   */\n      dup6\n        /* \"#utility.yul\":18781:18786   */\n      dup3\n        /* \"#utility.yul\":18728:18795   */\n      tag_294\n      jump\t// in\n    tag_502:\n        /* \"#utility.yul\":18722:18726   */\n      dup7\n        /* \"#utility.yul\":18715:18796   */\n      sstore\n        /* \"#utility.yul\":18584:18806   */\n      pop\n        /* \"#utility.yul\":17919:18806   */\n      jump(tag_499)\n        /* \"#utility.yul\":17949:18567   */\n    tag_500:\n        /* \"#utility.yul\":18001:18005   */\n      0x1f\n        /* \"#utility.yul\":17997:18006   */\n      not\n        /* \"#utility.yul\":17989:17995   */\n      dup5\n        /* \"#utility.yul\":17985:18007   */\n      and\n        /* \"#utility.yul\":18035:18072   */\n      tag_503\n        /* \"#utility.yul\":18067:18071   */\n      dup7\n        /* \"#utility.yul\":18035:18072   */\n      tag_280\n      jump\t// in\n    tag_503:\n        /* \"#utility.yul\":18094:18095   */\n      0x00\n        /* \"#utility.yul\":18108:18316   */\n    tag_504:\n        /* \"#utility.yul\":18122:18129   */\n      dup3\n        /* \"#utility.yul\":18119:18120   */\n      dup2\n        /* \"#utility.yul\":18116:18130   */\n      lt\n        /* \"#utility.yul\":18108:18316   */\n      iszero\n      tag_506\n      jumpi\n        /* \"#utility.yul\":18201:18210   */\n      dup5\n        /* \"#utility.yul\":18196:18199   */\n      dup10\n        /* \"#utility.yul\":18192:18211   */\n      add\n        /* \"#utility.yul\":18186:18212   */\n      mload\n        /* \"#utility.yul\":18178:18184   */\n      dup3\n        /* \"#utility.yul\":18171:18213   */\n      sstore\n        /* \"#utility.yul\":18252:18253   */\n      0x01\n        /* \"#utility.yul\":18244:18250   */\n      dup3\n        /* \"#utility.yul\":18240:18254   */\n      add\n        /* \"#utility.yul\":18230:18254   */\n      swap2\n      pop\n        /* \"#utility.yul\":18299:18301   */\n      0x20\n        /* \"#utility.yul\":18288:18297   */\n      dup6\n        /* \"#utility.yul\":18284:18302   */\n      add\n        /* \"#utility.yul\":18271:18302   */\n      swap5\n      pop\n        /* \"#utility.yul\":18145:18149   */\n      0x20\n        /* \"#utility.yul\":18142:18143   */\n      dup2\n        /* \"#utility.yul\":18138:18150   */\n      add\n        /* \"#utility.yul\":18133:18150   */\n      swap1\n      pop\n        /* \"#utility.yul\":18108:18316   */\n      jump(tag_504)\n    tag_506:\n        /* \"#utility.yul\":18344:18350   */\n      dup7\n        /* \"#utility.yul\":18335:18342   */\n      dup4\n        /* \"#utility.yul\":18332:18351   */\n      lt\n        /* \"#utility.yul\":18329:18508   */\n      iszero\n      tag_507\n      jumpi\n        /* \"#utility.yul\":18402:18411   */\n      dup5\n        /* \"#utility.yul\":18397:18400   */\n      dup10\n        /* \"#utility.yul\":18393:18412   */\n      add\n        /* \"#utility.yul\":18387:18413   */\n      mload\n        /* \"#utility.yul\":18445:18493   */\n      tag_508\n        /* \"#utility.yul\":18487:18491   */\n      0x1f\n        /* \"#utility.yul\":18479:18485   */\n      dup10\n        /* \"#utility.yul\":18475:18492   */\n      and\n        /* \"#utility.yul\":18464:18473   */\n      dup3\n        /* \"#utility.yul\":18445:18493   */\n      tag_293\n      jump\t// in\n    tag_508:\n        /* \"#utility.yul\":18437:18443   */\n      dup4\n        /* \"#utility.yul\":18430:18494   */\n      sstore\n        /* \"#utility.yul\":18352:18508   */\n      pop\n        /* \"#utility.yul\":18329:18508   */\n    tag_507:\n        /* \"#utility.yul\":18554:18555   */\n      0x01\n        /* \"#utility.yul\":18550:18551   */\n      0x02\n        /* \"#utility.yul\":18542:18548   */\n      dup9\n        /* \"#utility.yul\":18538:18552   */\n      mul\n        /* \"#utility.yul\":18534:18556   */\n      add\n        /* \"#utility.yul\":18528:18532   */\n      dup9\n        /* \"#utility.yul\":18521:18557   */\n      sstore\n        /* \"#utility.yul\":17956:18567   */\n      pop\n      pop\n      pop\n        /* \"#utility.yul\":17919:18806   */\n    tag_499:\n      pop\n        /* \"#utility.yul\":17509:18812   */\n      pop\n      pop\n      pop\n        /* \"#utility.yul\":17417:18812   */\n      pop\n      pop\n      jump\t// out\n        /* \"#utility.yul\":18818:19131   */\n    tag_117:\n        /* \"#utility.yul\":18931:18935   */\n      0x00\n        /* \"#utility.yul\":18969:18971   */\n      0x20\n        /* \"#utility.yul\":18958:18967   */\n      dup3\n        /* \"#utility.yul\":18954:18972   */\n      add\n        /* \"#utility.yul\":18946:18972   */\n      swap1\n      pop\n        /* \"#utility.yul\":19018:19027   */\n      dup2\n        /* \"#utility.yul\":19012:19016   */\n      dup2\n        /* \"#utility.yul\":19008:19028   */\n      sub\n        /* \"#utility.yul\":19004:19005   */\n      0x00\n        /* \"#utility.yul\":18993:19002   */\n      dup4\n        /* \"#utility.yul\":18989:19006   */\n      add\n        /* \"#utility.yul\":18982:19029   */\n      mstore\n        /* \"#utility.yul\":19046:19124   */\n      tag_510\n        /* \"#utility.yul\":19119:19123   */\n      dup2\n        /* \"#utility.yul\":19110:19116   */\n      dup5\n        /* \"#utility.yul\":19046:19124   */\n      tag_264\n      jump\t// in\n    tag_510:\n        /* \"#utility.yul\":19038:19124   */\n      swap1\n      pop\n        /* \"#utility.yul\":18818:19131   */\n      swap3\n      swap2\n      pop\n      pop\n      jump\t// out\n        /* \"#utility.yul\":19137:19317   */\n    tag_147:\n        /* \"#utility.yul\":19185:19262   */\n      0x4e487b7100000000000000000000000000000000000000000000000000000000\n        /* \"#utility.yul\":19182:19183   */\n      0x00\n        /* \"#utility.yul\":19175:19263   */\n      mstore\n        /* \"#utility.yul\":19282:19286   */\n      0x32\n        /* \"#utility.yul\":19279:19280   */\n      0x04\n        /* \"#utility.yul\":19272:19287   */\n      mstore\n        /* \"#utility.yul\":19306:19310   */\n      0x24\n        /* \"#utility.yul\":19303:19304   */\n      0x00\n        /* \"#utility.yul\":19296:19311   */\n      revert\n        /* \"#utility.yul\":19323:19503   */\n    tag_295:\n        /* \"#utility.yul\":19371:19448   */\n      0x4e487b7100000000000000000000000000000000000000000000000000000000\n        /* \"#utility.yul\":19368:19369   */\n      0x00\n        /* \"#utility.yul\":19361:19449   */\n      mstore\n        /* \"#utility.yul\":19468:19472   */\n      0x11\n        /* \"#utility.yul\":19465:19466   */\n      0x04\n        /* \"#utility.yul\":19458:19473   */\n      mstore\n        /* \"#utility.yul\":19492:19496   */\n      0x24\n        /* \"#utility.yul\":19489:19490   */\n      0x00\n        /* \"#utility.yul\":19482:19497   */\n      revert\n        /* \"#utility.yul\":19509:19742   */\n    tag_151:\n        /* \"#utility.yul\":19548:19551   */\n      0x00\n        /* \"#utility.yul\":19571:19595   */\n      tag_514\n        /* \"#utility.yul\":19589:19594   */\n      dup3\n        /* \"#utility.yul\":19571:19595   */\n      tag_265\n      jump\t// in\n    tag_514:\n        /* \"#utility.yul\":19562:19595   */\n      swap2\n      pop\n        /* \"#utility.yul\":19617:19683   */\n      0xffffffffffffffffffffffffffffffffffffffffffffffffffffffffffffffff\n        /* \"#utility.yul\":19610:19615   */\n      dup3\n        /* \"#utility.yul\":19607:19684   */\n      sub\n        /* \"#utility.yul\":19604:19707   */\n      tag_515\n      jumpi\n        /* \"#utility.yul\":19687:19705   */\n      tag_516\n      tag_295\n      jump\t// in\n    tag_516:\n        /* \"#utility.yul\":19604:19707   */\n    tag_515:\n        /* \"#utility.yul\":19734:19735   */\n      0x01\n        /* \"#utility.yul\":19727:19732   */\n      dup3\n        /* \"#utility.yul\":19723:19736   */\n      add\n        /* \"#utility.yul\":19716:19736   */\n      swap1\n      pop\n        /* \"#utility.yul\":19509:19742   */\n      swap2\n      swap1\n      pop\n      jump\t// out\n        /* \"#utility.yul\":19748:19914   */\n    tag_296:\n        /* \"#utility.yul\":19888:19906   */\n      0x416c726561647920696e61637469766500000000000000000000000000000000\n        /* \"#utility.yul\":19884:19885   */\n      0x00\n        /* \"#utility.yul\":19876:19882   */\n      dup3\n        /* \"#utility.yul\":19872:19886   */\n      add\n        /* \"#utility.yul\":19865:19907   */\n      mstore\n        /* \"#utility.yul\":19748:19914   */\n      pop\n      jump\t// out\n        /* \"#utility.yul\":19920:20286   */\n    tag_297:\n        /* \"#utility.yul\":20062:20065   */\n      0x00\n        /* \"#utility.yul\":20083:20150   */\n      tag_519\n        /* \"#utility.yul\":20147:20149   */\n      0x10\n        /* \"#utility.yul\":20142:20145   */\n      dup4\n        /* \"#utility.yul\":20083:20150   */\n      tag_262\n      jump\t// in\n    tag_519:\n        /* \"#utility.yul\":20076:20150   */\n      swap2\n      pop\n        /* \"#utility.yul\":20159:20252   */\n      tag_520\n        /* \"#utility.yul\":20248:20251   */\n      dup3\n        /* \"#utility.yul\":20159:20252   */\n      tag_296\n      jump\t// in\n    tag_520:\n        /* \"#utility.yul\":20277:20279   */\n      0x20\n        /* \"#utility.yul\":20272:20275   */\n      dup3\n        /* \"#utility.yul\":20268:20280   */\n      add\n        /* \"#utility.yul\":20261:20280   */\n      swap1\n      pop\n        /* \"#utility.yul\":19920:20286   */\n      swap2\n      swap1\n      pop\n      jump\t// out\n        /* \"#utility.yul\":20292:20711   */\n    tag_174:\n        /* \"#utility.yul\":20458:20462   */\n      0x00\n        /* \"#utility.yul\":20496:20498   */\n      0x20\n        /* \"#utility.yul\":20485:20494   */\n      dup3\n        /* \"#utility.yul\":20481:20499   */\n      add\n        /* \"#utility.yul\":20473:20499   */\n      swap1\n      pop\n        /* \"#utility.yul\":20545:20554   */\n      dup2\n        /* \"#utility.yul\":20539:20543   */\n      dup2\n        /* \"#utility.yul\":20535:20555   */\n      sub\n        /* \"#utility.yul\":20531:20532   */\n      0x00\n        /* \"#utility.yul\":20520:20529   */\n      dup4\n        /* \"#utility.yul\":20516:20533   */\n      add\n        /* \"#utility.yul\":20509:20556   */\n      mstore\n        /* \"#utility.yul\":20573:20704   */\n      tag_522\n        /* \"#utility.yul\":20699:20703   */\n      dup2\n        /* \"#utility.yul\":20573:20704   */\n      tag_297\n      jump\t// in\n    tag_522:\n        /* \"#utility.yul\":20565:20704   */\n      swap1\n      pop\n        /* \"#utility.yul\":20292:20711   */\n      swap2\n      swap1\n      pop\n      jump\t// out\n        /* \"#utility.yul\":20717:20891   */\n    tag_298:\n        /* \"#utility.yul\":20857:20883   */\n      0x417574686f7269747920616c7265616479206578697374730000000000000000\n        /* \"#utility.yul\":20853:20854   */\n      0x00\n        /* \"#utility.yul\":20845:20851   */\n      dup3\n        /* \"#utility.yul\":20841:20855   */\n      add\n        /* \"#utility.yul\":20834:20884   */\n      mstore\n        /* \"#utility.yul\":20717:20891   */\n      pop\n      jump\t// out\n        /* \"#utility.yul\":20897:21263   */\n    tag_299:\n        /* \"#utility.yul\":21039:21042   */\n      0x00\n        /* \"#utility.yul\":21060:21127   */\n      tag_525\n        /* \"#utility.yul\":21124:21126   */\n      0x18\n        /* \"#utility.yul\":21119:21122   */\n      dup4\n        /* \"#utility.yul\":21060:21127   */\n      tag_262\n      jump\t// in\n    tag_525:\n        /* \"#utility.yul\":21053:21127   */\n      swap2\n      pop\n        /* \"#utility.yul\":21136:21229   */\n      tag_526\n        /* \"#utility.yul\":21225:21228   */\n      dup3\n        /* \"#utility.yul\":21136:21229   */\n      tag_298\n      jump\t// in\n    tag_526:\n        /* \"#utility.yul\":21254:21256   */\n      0x20\n        /* \"#utility.yul\":21249:21252   */\n      dup3\n        /* \"#utility.yul\":21245:21257   */\n      add\n        /* \"#utility.yul\":21238:21257   */\n      swap1\n      pop\n        /* \"#utility.yul\":20897:21263   */\n      swap2\n      swap1\n      pop\n      jump\t// out\n        /* \"#utility.yul\":21269:21688   */\n    tag_199:\n        /* \"#utility.yul\":21435:21439   */\n      0x00\n        /* \"#utility.yul\":21473:21475   */\n      0x20\n        /* \"#utility.yul\":21462:21471   */\n      dup3\n        /* \"#utility.yul\":21458:21476   */\n      add\n        /* \"#utility.yul\":21450:21476   */\n      swap1\n      pop\n        /* \"#utility.yul\":21522:21531   */\n      dup2\n        /* \"#utility.yul\":21516:21520   */\n      dup2\n        /* \"#utility.yul\":21512:21532   */\n      sub\n        /* \"#utility.yul\":21508:21509   */\n      0x00\n        /* \"#utility.yul\":21497:21506   */\n      dup4\n        /* \"#utility.yul\":21493:21510   */\n      add\n        /* \"#utility.yul\":21486:21533   */\n      mstore\n        /* \"#utility.yul\":21550:21681   */\n      tag_528\n        /* \"#utility.yul\":21676:21680   */\n      dup2\n        /* \"#utility.yul\":21550:21681   */\n      tag_299\n      jump\t// in\n    tag_528:\n        /* \"#utility.yul\":21542:21681   */\n      swap1\n      pop\n        /* \"#utility.yul\":21269:21688   */\n      swap2\n      swap1\n      pop\n      jump\t// out\n        /* \"#utility.yul\":21694:22208   */\n    tag_206:\n        /* \"#utility.yul\":21855:21859   */\n      0x00\n        /* \"#utility.yul\":21893:21895   */\n      0x40\n        /* \"#utility.yul\":21882:21891   */\n      dup3\n        /* \"#utility.yul\":21878:21896   */\n      add\n        /* \"#utility.yul\":21870:21896   */\n      swap1\n      pop\n        /* \"#utility.yul\":21942:21951   */\n      dup2\n        /* \"#utility.yul\":21936:21940   */\n      dup2\n        /* \"#utility.yul\":21932:21952   */\n      sub\n        /* \"#utility.yul\":21928:21929   */\n      0x00\n        /* \"#utility.yul\":21917:21926   */\n      dup4\n        /* \"#utility.yul\":21913:21930   */\n      add\n        /* \"#utility.yul\":21906:21953   */\n      mstore\n        /* \"#utility.yul\":21970:22048   */\n      tag_530\n        /* \"#utility.yul\":22043:22047   */\n      dup2\n        /* \"#utility.yul\":22034:22040   */\n      dup6\n        /* \"#utility.yul\":21970:22048   */\n      tag_264\n      jump\t// in\n    tag_530:\n        /* \"#utility.yul\":21962:22048   */\n      swap1\n      pop\n        /* \"#utility.yul\":22095:22104   */\n      dup2\n        /* \"#utility.yul\":22089:22093   */\n      dup2\n        /* \"#utility.yul\":22085:22105   */\n      sub\n        /* \"#utility.yul\":22080:22082   */\n      0x20\n        /* \"#utility.yul\":22069:22078   */\n      dup4\n        /* \"#utility.yul\":22065:22083   */\n      add\n        /* \"#utility.yul\":22058:22106   */\n      mstore\n        /* \"#utility.yul\":22123:22201   */\n      tag_531\n        /* \"#utility.yul\":22196:22200   */\n      dup2\n        /* \"#utility.yul\":22187:22193   */\n      dup5\n        /* \"#utility.yul\":22123:22201   */\n      tag_264\n      jump\t// in\n    tag_531:\n        /* \"#utility.yul\":22115:22201   */\n      swap1\n      pop\n        /* \"#utility.yul\":21694:22208   */\n      swap4\n      swap3\n      pop\n      pop\n      pop\n      jump\t// out\n        /* \"#utility.yul\":22214:22546   */\n    tag_235:\n        /* \"#utility.yul\":22335:22339   */\n      0x00\n        /* \"#utility.yul\":22373:22375   */\n      0x40\n        /* \"#utility.yul\":22362:22371   */\n      dup3\n        /* \"#utility.yul\":22358:22376   */\n      add\n        /* \"#utility.yul\":22350:22376   */\n      swap1\n      pop\n        /* \"#utility.yul\":22386:22457   */\n      tag_533\n        /* \"#utility.yul\":22454:22455   */\n      0x00\n        /* \"#utility.yul\":22443:22452   */\n      dup4\n        /* \"#utility.yul\":22439:22456   */\n      add\n        /* \"#utility.yul\":22430:22436   */\n      dup6\n        /* \"#utility.yul\":22386:22457   */\n      tag_276\n      jump\t// in\n    tag_533:\n        /* \"#utility.yul\":22467:22539   */\n      tag_534\n        /* \"#utility.yul\":22535:22537   */\n      0x20\n        /* \"#utility.yul\":22524:22533   */\n      dup4\n        /* \"#utility.yul\":22520:22538   */\n      add\n        /* \"#utility.yul\":22511:22517   */\n      dup5\n        /* \"#utility.yul\":22467:22539   */\n      tag_247\n      jump\t// in\n    tag_534:\n        /* \"#utility.yul\":22214:22546   */\n      swap4\n      swap3\n      pop\n      pop\n      pop\n      jump\t// out\n\n    auxdata: 0xa2646970667358221220fe7053ed940e9e76599462e1c4f4e4987f2f37c6e098d091521962cf723e580564736f6c634300081e0033\n}\n",
				"bytecode": {
					"linkReferences": {},
					"object": "608060405234801561000f575f5ffd5b506100225f5f1b3361002860201b60201c565b50610187565b5f610039838361011d60201b60201c565b6101135760015f5f8581526020019081526020015f205f015f8473ffffffffffffffffffffffffffffffffffffffff1673ffffffffffffffffffffffffffffffffffffffff1681526020019081526020015f205f6101000a81548160ff0219169083151502179055506100b061018060201b60201c565b73ffffffffffffffffffffffffffffffffffffffff168273ffffffffffffffffffffffffffffffffffffffff16847f2f8788117e7eff1d82e926ec794901d17c78024a50270940304540a733656f0d60405160405180910390a460019050610117565b5f90505b92915050565b5f5f5f8481526020019081526020015f205f015f8373ffffffffffffffffffffffffffffffffffffffff1673ffffffffffffffffffffffffffffffffffffffff1681526020019081526020015f205f9054906101000a900460ff16905092915050565b5f33905090565b6120ba806101945f395ff3fe608060405234801561000f575f5ffd5b5060043610610109575f3560e01c80636a4cf7b8116100a0578063b69dab681161006f578063b69dab68146102e1578063d1d6bc9c14610311578063d547741f1461032d578063e7705db614610349578063fedf2c561461036757610109565b80636a4cf7b81461024357806391223d691461025f57806391d1485414610293578063a217fddf146102c357610109565b806331a016b1116100dc57806331a016b1146101b957806336568abe146101d55780634e00dabb146101f157806365e450251461022557610109565b806301ffc9a71461010d578063248a9ca31461013d57806325d88b0b1461016d5780632f2ff15d1461019d575b5f5ffd5b6101276004803603810190610122919061153c565b610385565b6040516101349190611581565b60405180910390f35b610157600480360381019061015291906115cd565b6103fe565b6040516101649190611607565b60405180910390f35b6101876004803603810190610182919061167a565b61041a565b6040516101949190611581565b60405180910390f35b6101b760048036038101906101b291906116a5565b6104a1565b005b6101d360048036038101906101ce919061181f565b6104c3565b005b6101ef60048036038101906101ea91906116a5565b61061a565b005b61020b6004803603810190610206919061167a565b610695565b60405161021c9594939291906118f1565b60405180910390f35b61022d6108e6565b60405161023a9190611a0e565b60405180910390f35b61025d6004803603810190610258919061167a565b610b46565b005b6102796004803603810190610274919061167a565b610ca7565b60405161028a9594939291906118f1565b60405180910390f35b6102ad60048036038101906102a891906116a5565b610e77565b6040516102ba9190611581565b60405180910390f35b6102cb610eda565b6040516102d89190611607565b60405180910390f35b6102fb60048036038101906102f69190611a58565b610ee0565b6040516103089190611a92565b60405180910390f35b61032b60048036038101906103269190611aab565b610f1b565b005b610347600480360381019061034291906116a5565b61115e565b005b610351611180565b60405161035e9190611607565b60405180910390f35b61036f6111a4565b60405161037c9190611a0e565b60405180910390f35b5f7f7965db0b000000000000000000000000000000000000000000000000000000007bffffffffffffffffffffffffffffffffffffffffffffffffffffffff1916827bffffffffffffffffffffffffffffffffffffffffffffffffffffffff191614806103f757506103f68261122f565b5b9050919050565b5f5f5f8381526020019081526020015f20600101549050919050565b5f60015f8373ffffffffffffffffffffffffffffffffffffffff1673ffffffffffffffffffffffffffffffffffffffff1681526020019081526020015f206003015f9054906101000a900460ff16801561049a57506104997f0ce23c3e399818cfee81a7ab0880f714e53d7672b08df0fa62f2843416e1ea0983610e77565b5b9050919050565b6104aa826103fe565b6104b381611298565b6104bd83836112ac565b50505050565b7f0ce23c3e399818cfee81a7ab0880f714e53d7672b08df0fa62f2843416e1ea096104ed81611298565b60015f8473ffffffffffffffffffffffffffffffffffffffff1673ffffffffffffffffffffffffffffffffffffffff1681526020019081526020015f206003015f9054906101000a900460ff16610579576040517f08c379a000000000000000000000000000000000000000000000000000000000815260040161057090611bad565b60405180910390fd5b8160015f8573ffffffffffffffffffffffffffffffffffffffff1673ffffffffffffffffffffffffffffffffffffffff1681526020019081526020015f2060020190816105c69190611dc8565b508273ffffffffffffffffffffffffffffffffffffffff167f8d23165fad430bba8f4b7860e8e456561f04b8811e473e96f002f7a5cf763c8a8360405161060d9190611e97565b60405180910390a2505050565b610622611395565b73ffffffffffffffffffffffffffffffffffffffff168173ffffffffffffffffffffffffffffffffffffffff1614610686576040517f6697b23200000000000000000000000000000000000000000000000000000000815260040160405180910390fd5b610690828261139c565b505050565b60608060605f5f5f60015f8873ffffffffffffffffffffffffffffffffffffffff1673ffffffffffffffffffffffffffffffffffffffff1681526020019081526020015f206040518060a00160405290815f820180546106f490611bf8565b80601f016020809104026020016040519081016040528092919081815260200182805461072090611bf8565b801561076b5780601f106107425761010080835404028352916020019161076b565b820191905f5260205f20905b81548152906001019060200180831161074e57829003601f168201915b5050505050815260200160018201805461078490611bf8565b80601f01602080910402602001604051908101604052809291908181526020018280546107b090611bf8565b80156107fb5780601f106107d2576101008083540402835291602001916107fb565b820191905f5260205f20905b8154815290600101906020018083116107de57829003601f168201915b5050505050815260200160028201805461081490611bf8565b80601f016020809104026020016040519081016040528092919081815260200182805461084090611bf8565b801561088b5780601f106108625761010080835404028352916020019161088b565b820191905f5260205f20905b81548152906001019060200180831161086e57829003601f168201915b50505050508152602001600382015f9054906101000a900460ff161515151581526020016004820154815250509050805f01518160200151826040015183606001518460800151955095509550955095505091939590929450565b60605f5f90505f5f90505b6002805490508110156109a75760015f6002838154811061091557610914611eb7565b5b905f5260205f20015f9054906101000a900473ffffffffffffffffffffffffffffffffffffffff1673ffffffffffffffffffffffffffffffffffffffff1673ffffffffffffffffffffffffffffffffffffffff1681526020019081526020015f206003015f9054906101000a900460ff161561099a57818061099690611f11565b9250505b80806001019150506108f1565b505f8167ffffffffffffffff8111156109c3576109c26116fb565b5b6040519080825280602002602001820160405280156109f15781602001602082028036833780820191505090505b5090505f5f90505f5f90505b600280549050811015610b3c5760015f60028381548110610a2157610a20611eb7565b5b905f5260205f20015f9054906101000a900473ffffffffffffffffffffffffffffffffffffffff1673ffffffffffffffffffffffffffffffffffffffff1673ffffffffffffffffffffffffffffffffffffffff1681526020019081526020015f206003015f9054906101000a900460ff1615610b2f5760028181548110610aab57610aaa611eb7565b5b905f5260205f20015f9054906101000a900473ffffffffffffffffffffffffffffffffffffffff16838381518110610ae657610ae5611eb7565b5b602002602001019073ffffffffffffffffffffffffffffffffffffffff16908173ffffffffffffffffffffffffffffffffffffffff16815250508180610b2b90611f11565b9250505b80806001019150506109fd565b5081935050505090565b5f5f1b610b5281611298565b60015f8373ffffffffffffffffffffffffffffffffffffffff1673ffffffffffffffffffffffffffffffffffffffff1681526020019081526020015f206003015f9054906101000a900460ff16610bde576040517f08c379a0000000000000000000000000000000000000000000000000000000008152600401610bd590611fa2565b60405180910390fd5b5f60015f8473ffffffffffffffffffffffffffffffffffffffff1673ffffffffffffffffffffffffffffffffffffffff1681526020019081526020015f206003015f6101000a81548160ff021916908315150217905550610c5f7f0ce23c3e399818cfee81a7ab0880f714e53d7672b08df0fa62f2843416e1ea098361139c565b508173ffffffffffffffffffffffffffffffffffffffff167f851e07aeafcca1b4966b2d71fd2c7cfbebd70c9992a23cb811ef972e6b1239f560405160405180910390a25050565b6001602052805f5260405f205f91509050805f018054610cc690611bf8565b80601f0160208091040260200160405190810160405280929190818152602001828054610cf290611bf8565b8015610d3d5780601f10610d1457610100808354040283529160200191610d3d565b820191905f5260205f20905b815481529060010190602001808311610d2057829003601f168201915b505050505090806001018054610d5290611bf8565b80601f0160208091040260200160405190810160405280929190818152602001828054610d7e90611bf8565b8015610dc95780601f10610da057610100808354040283529160200191610dc9565b820191905f5260205f20905b815481529060010190602001808311610dac57829003601f168201915b505050505090806002018054610dde90611bf8565b80601f0160208091040260200160405190810160405280929190818152602001828054610e0a90611bf8565b8015610e555780601f10610e2c57610100808354040283529160200191610e55565b820191905f5260205f20905b815481529060010190602001808311610e3857829003601f168201915b505050505090806003015f9054906101000a900460ff16908060040154905085565b5f5f5f8481526020019081526020015f205f015f8373ffffffffffffffffffffffffffffffffffffffff1673ffffffffffffffffffffffffffffffffffffffff1681526020019081526020015f205f9054906101000a900460ff16905092915050565b5f5f1b81565b60028181548110610eef575f80fd5b905f5260205f20015f915054906101000a900473ffffffffffffffffffffffffffffffffffffffff1681565b5f5f1b610f2781611298565b5f60015f8773ffffffffffffffffffffffffffffffffffffffff1673ffffffffffffffffffffffffffffffffffffffff1681526020019081526020015f206004015414610fa9576040517f08c379a0000000000000000000000000000000000000000000000000000000008152600401610fa09061200a565b60405180910390fd5b6040518060a001604052808581526020018481526020018381526020016001151581526020014281525060015f8773ffffffffffffffffffffffffffffffffffffffff1673ffffffffffffffffffffffffffffffffffffffff1681526020019081526020015f205f820151815f0190816110239190611dc8565b5060208201518160010190816110399190611dc8565b50604082015181600201908161104f9190611dc8565b506060820151816003015f6101000a81548160ff02191690831515021790555060808201518160040155905050600285908060018154018082558091505060019003905f5260205f20015f9091909190916101000a81548173ffffffffffffffffffffffffffffffffffffffff021916908373ffffffffffffffffffffffffffffffffffffffff1602179055506111067f0ce23c3e399818cfee81a7ab0880f714e53d7672b08df0fa62f2843416e1ea09866112ac565b508473ffffffffffffffffffffffffffffffffffffffff167f6c8bb1ef46bb6f1c47c35d06f09c4eed102353449280d18cc58aabab0ec0842b858560405161114f929190612028565b60405180910390a25050505050565b611167826103fe565b61117081611298565b61117a838361139c565b50505050565b7f0ce23c3e399818cfee81a7ab0880f714e53d7672b08df0fa62f2843416e1ea0981565b6060600280548060200260200160405190810160405280929190818152602001828054801561122557602002820191905f5260205f20905b815f9054906101000a900473ffffffffffffffffffffffffffffffffffffffff1673ffffffffffffffffffffffffffffffffffffffff16815260200190600101908083116111dc575b5050505050905090565b5f7f01ffc9a7000000000000000000000000000000000000000000000000000000007bffffffffffffffffffffffffffffffffffffffffffffffffffffffff1916827bffffffffffffffffffffffffffffffffffffffffffffffffffffffff1916149050919050565b6112a9816112a4611395565b611485565b50565b5f6112b78383610e77565b61138b5760015f5f8581526020019081526020015f205f015f8473ffffffffffffffffffffffffffffffffffffffff1673ffffffffffffffffffffffffffffffffffffffff1681526020019081526020015f205f6101000a81548160ff021916908315150217905550611328611395565b73ffffffffffffffffffffffffffffffffffffffff168273ffffffffffffffffffffffffffffffffffffffff16847f2f8788117e7eff1d82e926ec794901d17c78024a50270940304540a733656f0d60405160405180910390a46001905061138f565b5f90505b92915050565b5f33905090565b5f6113a78383610e77565b1561147b575f5f5f8581526020019081526020015f205f015f8473ffffffffffffffffffffffffffffffffffffffff1673ffffffffffffffffffffffffffffffffffffffff1681526020019081526020015f205f6101000a81548160ff021916908315150217905550611418611395565b73ffffffffffffffffffffffffffffffffffffffff168273ffffffffffffffffffffffffffffffffffffffff16847ff6391f5c32d9c69d2a47ea670b442974b53935d1edc7fd64eb21e047a839171b60405160405180910390a46001905061147f565b5f90505b92915050565b61148f8282610e77565b6114d25780826040517fe2517d3f0000000000000000000000000000000000000000000000000000000081526004016114c992919061205d565b60405180910390fd5b5050565b5f604051905090565b5f5ffd5b5f5ffd5b5f7fffffffff0000000000000000000000000000000000000000000000000000000082169050919050565b61151b816114e7565b8114611525575f5ffd5b50565b5f8135905061153681611512565b92915050565b5f60208284031215611551576115506114df565b5b5f61155e84828501611528565b91505092915050565b5f8115159050919050565b61157b81611567565b82525050565b5f6020820190506115945f830184611572565b92915050565b5f819050919050565b6115ac8161159a565b81146115b6575f5ffd5b50565b5f813590506115c7816115a3565b92915050565b5f602082840312156115e2576115e16114df565b5b5f6115ef848285016115b9565b91505092915050565b6116018161159a565b82525050565b5f60208201905061161a5f8301846115f8565b92915050565b5f73ffffffffffffffffffffffffffffffffffffffff82169050919050565b5f61164982611620565b9050919050565b6116598161163f565b8114611663575f5ffd5b50565b5f8135905061167481611650565b92915050565b5f6020828403121561168f5761168e6114df565b5b5f61169c84828501611666565b91505092915050565b5f5f604083850312156116bb576116ba6114df565b5b5f6116c8858286016115b9565b92505060206116d985828601611666565b9150509250929050565b5f5ffd5b5f5ffd5b5f601f19601f8301169050919050565b7f4e487b71000000000000000000000000000000000000000000000000000000005f52604160045260245ffd5b611731826116eb565b810181811067ffffffffffffffff821117156117505761174f6116fb565b5b80604052505050565b5f6117626114d6565b905061176e8282611728565b919050565b5f67ffffffffffffffff82111561178d5761178c6116fb565b5b611796826116eb565b9050602081019050919050565b828183375f83830152505050565b5f6117c36117be84611773565b611759565b9050828152602081018484840111156117df576117de6116e7565b5b6117ea8482856117a3565b509392505050565b5f82601f830112611806576118056116e3565b5b81356118168482602086016117b1565b91505092915050565b5f5f60408385031215611835576118346114df565b5b5f61184285828601611666565b925050602083013567ffffffffffffffff811115611863576118626114e3565b5b61186f858286016117f2565b9150509250929050565b5f81519050919050565b5f82825260208201905092915050565b8281835e5f83830152505050565b5f6118ab82611879565b6118b58185611883565b93506118c5818560208601611893565b6118ce816116eb565b840191505092915050565b5f819050919050565b6118eb816118d9565b82525050565b5f60a0820190508181035f83015261190981886118a1565b9050818103602083015261191d81876118a1565b9050818103604083015261193181866118a1565b90506119406060830185611572565b61194d60808301846118e2565b9695505050505050565b5f81519050919050565b5f82825260208201905092915050565b5f819050602082019050919050565b6119898161163f565b82525050565b5f61199a8383611980565b60208301905092915050565b5f602082019050919050565b5f6119bc82611957565b6119c68185611961565b93506119d183611971565b805f5b83811015611a015781516119e8888261198f565b97506119f3836119a6565b9250506001810190506119d4565b5085935050505092915050565b5f6020820190508181035f830152611a2681846119b2565b905092915050565b611a37816118d9565b8114611a41575f5ffd5b50565b5f81359050611a5281611a2e565b92915050565b5f60208284031215611a6d57611a6c6114df565b5b5f611a7a84828501611a44565b91505092915050565b611a8c8161163f565b82525050565b5f602082019050611aa55f830184611a83565b92915050565b5f5f5f5f60808587031215611ac357611ac26114df565b5b5f611ad087828801611666565b945050602085013567ffffffffffffffff811115611af157611af06114e3565b5b611afd878288016117f2565b935050604085013567ffffffffffffffff811115611b1e57611b1d6114e3565b5b611b2a878288016117f2565b925050606085013567ffffffffffffffff811115611b4b57611b4a6114e3565b5b611b57878288016117f2565b91505092959194509250565b7f417574686f7269747920696e61637469766500000000000000000000000000005f82015250565b5f611b97601283611883565b9150611ba282611b63565b602082019050919050565b5f6020820190508181035f830152611bc481611b8b565b9050919050565b7f4e487b71000000000000000000000000000000000000000000000000000000005f52602260045260245ffd5b5f6002820490506001821680611c0f57607f821691505b602082108103611c2257611c21611bcb565b5b50919050565b5f819050815f5260205f209050919050565b5f6020601f8301049050919050565b5f82821b905092915050565b5f60088302611c847fffffffffffffffffffffffffffffffffffffffffffffffffffffffffffffffff82611c49565b611c8e8683611c49565b95508019841693508086168417925050509392505050565b5f819050919050565b5f611cc9611cc4611cbf846118d9565b611ca6565b6118d9565b9050919050565b5f819050919050565b611ce283611caf565b611cf6611cee82611cd0565b848454611c55565b825550505050565b5f5f905090565b611d0d611cfe565b611d18818484611cd9565b505050565b5b81811015611d3b57611d305f82611d05565b600181019050611d1e565b5050565b601f821115611d8057611d5181611c28565b611d5a84611c3a565b81016020851015611d69578190505b611d7d611d7585611c3a565b830182611d1d565b50505b505050565b5f82821c905092915050565b5f611da05f1984600802611d85565b1980831691505092915050565b5f611db88383611d91565b9150826002028217905092915050565b611dd182611879565b67ffffffffffffffff811115611dea57611de96116fb565b5b611df48254611bf8565b611dff828285611d3f565b5f60209050601f831160018114611e30575f8415611e1e578287015190505b611e288582611dad565b865550611e8f565b601f198416611e3e86611c28565b5f5b82811015611e6557848901518255600182019150602085019450602081019050611e40565b86831015611e825784890151611e7e601f891682611d91565b8355505b6001600288020188555050505b505050505050565b5f6020820190508181035f830152611eaf81846118a1565b905092915050565b7f4e487b71000000000000000000000000000000000000000000000000000000005f52603260045260245ffd5b7f4e487b71000000000000000000000000000000000000000000000000000000005f52601160045260245ffd5b5f611f1b826118d9565b91507fffffffffffffffffffffffffffffffffffffffffffffffffffffffffffffffff8203611f4d57611f4c611ee4565b5b600182019050919050565b7f416c726561647920696e616374697665000000000000000000000000000000005f82015250565b5f611f8c601083611883565b9150611f9782611f58565b602082019050919050565b5f6020820190508181035f830152611fb981611f80565b9050919050565b7f417574686f7269747920616c72656164792065786973747300000000000000005f82015250565b5f611ff4601883611883565b9150611fff82611fc0565b602082019050919050565b5f6020820190508181035f83015261202181611fe8565b9050919050565b5f6040820190508181035f83015261204081856118a1565b9050818103602083015261205481846118a1565b90509392505050565b5f6040820190506120705f830185611a83565b61207d60208301846115f8565b939250505056fea2646970667358221220fe7053ed940e9e76599462e1c4f4e4987f2f37c6e098d091521962cf723e580564736f6c634300081e0033",
					"opcodes": "PUSH1 0x80 PUSH1 0x40 MSTORE CALLVALUE DUP1 ISZERO PUSH2 0xF JUMPI PUSH0 PUSH0 REVERT JUMPDEST POP PUSH2 0x22 PUSH0 PUSH0 SHL CALLER PUSH2 0x28 PUSH1 0x20 SHL PUSH1 0x20 SHR JUMP JUMPDEST POP PUSH2 0x187 JUMP JUMPDEST PUSH0 PUSH2 0x39 DUP4 DUP4 PUSH2 0x11D PUSH1 0x20 SHL PUSH1 0x20 SHR JUMP JUMPDEST PUSH2 0x113 JUMPI PUSH1 0x1 PUSH0 PUSH0 DUP6 DUP2 MSTORE PUSH1 0x20 ADD SWAP1 DUP2 MSTORE PUSH1 0x20 ADD PUSH0 KECCAK256 PUSH0 ADD PUSH0 DUP5 PUSH20 0xFFFFFFFFFFFFFFFFFFFFFFFFFFFFFFFFFFFFFFFF AND PUSH20 0xFFFFFFFFFFFFFFFFFFFFFFFFFFFFFFFFFFFFFFFF AND DUP2 MSTORE PUSH1 0x20 ADD SWAP1 DUP2 MSTORE PUSH1 0x20 ADD PUSH0 KECCAK256 PUSH0 PUSH2 0x100 EXP DUP2 SLOAD DUP2 PUSH1 0xFF MUL NOT AND SWAP1 DUP4 ISZERO ISZERO MUL OR SWAP1 SSTORE POP PUSH2 0xB0 PUSH2 0x180 PUSH1 0x20 SHL PUSH1 0x20 SHR JUMP JUMPDEST PUSH20 0xFFFFFFFFFFFFFFFFFFFFFFFFFFFFFFFFFFFFFFFF AND DUP3 PUSH20 0xFFFFFFFFFFFFFFFFFFFFFFFFFFFFFFFFFFFFFFFF AND DUP5 PUSH32 0x2F8788117E7EFF1D82E926EC794901D17C78024A50270940304540A733656F0D PUSH1 0x40 MLOAD PUSH1 0x40 MLOAD DUP1 SWAP2 SUB SWAP1 LOG4 PUSH1 0x1 SWAP1 POP PUSH2 0x117 JUMP JUMPDEST PUSH0 SWAP1 POP JUMPDEST SWAP3 SWAP2 POP POP JUMP JUMPDEST PUSH0 PUSH0 PUSH0 DUP5 DUP2 MSTORE PUSH1 0x20 ADD SWAP1 DUP2 MSTORE PUSH1 0x20 ADD PUSH0 KECCAK256 PUSH0 ADD PUSH0 DUP4 PUSH20 0xFFFFFFFFFFFFFFFFFFFFFFFFFFFFFFFFFFFFFFFF AND PUSH20 0xFFFFFFFFFFFFFFFFFFFFFFFFFFFFFFFFFFFFFFFF AND DUP2 MSTORE PUSH1 0x20 ADD SWAP1 DUP2 MSTORE PUSH1 0x20 ADD PUSH0 KECCAK256 PUSH0 SWAP1 SLOAD SWAP1 PUSH2 0x100 EXP SWAP1 DIV PUSH1 0xFF AND SWAP1 POP SWAP3 SWAP2 POP POP JUMP JUMPDEST PUSH0 CALLER SWAP1 POP SWAP1 JUMP JUMPDEST PUSH2 0x20BA DUP1 PUSH2 0x194 PUSH0 CODECOPY PUSH0 RETURN INVALID PUSH1 0x80 PUSH1 0x40 MSTORE CALLVALUE DUP1 ISZERO PUSH2 0xF JUMPI PUSH0 PUSH0 REVERT JUMPDEST POP PUSH1 0x4 CALLDATASIZE LT PUSH2 0x109 JUMPI PUSH0 CALLDATALOAD PUSH1 0xE0 SHR DUP1 PUSH4 0x6A4CF7B8 GT PUSH2 0xA0 JUMPI DUP1 PUSH4 0xB69DAB68 GT PUSH2 0x6F JUMPI DUP1 PUSH4 0xB69DAB68 EQ PUSH2 0x2E1 JUMPI DUP1 PUSH4 0xD1D6BC9C EQ PUSH2 0x311 JUMPI DUP1 PUSH4 0xD547741F EQ PUSH2 0x32D JUMPI DUP1 PUSH4 0xE7705DB6 EQ PUSH2 0x349 JUMPI DUP1 PUSH4 0xFEDF2C56 EQ PUSH2 0x367 JUMPI PUSH2 0x109 JUMP JUMPDEST DUP1 PUSH4 0x6A4CF7B8 EQ PUSH2 0x243 JUMPI DUP1 PUSH4 0x91223D69 EQ PUSH2 0x25F JUMPI DUP1 PUSH4 0x91D14854 EQ PUSH2 0x293 JUMPI DUP1 PUSH4 0xA217FDDF EQ PUSH2 0x2C3 JUMPI PUSH2 0x109 JUMP JUMPDEST DUP1 PUSH4 0x31A016B1 GT PUSH2 0xDC JUMPI DUP1 PUSH4 0x31A016B1 EQ PUSH2 0x1B9 JUMPI DUP1 PUSH4 0x36568ABE EQ PUSH2 0x1D5 JUMPI DUP1 PUSH4 0x4E00DABB EQ PUSH2 0x1F1 JUMPI DUP1 PUSH4 0x65E45025 EQ PUSH2 0x225 JUMPI PUSH2 0x109 JUMP JUMPDEST DUP1 PUSH4 0x1FFC9A7 EQ PUSH2 0x10D JUMPI DUP1 PUSH4 0x248A9CA3 EQ PUSH2 0x13D JUMPI DUP1 PUSH4 0x25D88B0B EQ PUSH2 0x16D JUMPI DUP1 PUSH4 0x2F2FF15D EQ PUSH2 0x19D JUMPI JUMPDEST PUSH0 PUSH0 REVERT JUMPDEST PUSH2 0x127 PUSH1 0x4 DUP1 CALLDATASIZE SUB DUP2 ADD SWAP1 PUSH2 0x122 SWAP2 SWAP1 PUSH2 0x153C JUMP JUMPDEST PUSH2 0x385 JUMP JUMPDEST PUSH1 0x40 MLOAD PUSH2 0x134 SWAP2 SWAP1 PUSH2 0x1581 JUMP JUMPDEST PUSH1 0x40 MLOAD DUP1 SWAP2 SUB SWAP1 RETURN JUMPDEST PUSH2 0x157 PUSH1 0x4 DUP1 CALLDATASIZE SUB DUP2 ADD SWAP1 PUSH2 0x152 SWAP2 SWAP1 PUSH2 0x15CD JUMP JUMPDEST PUSH2 0x3FE JUMP JUMPDEST PUSH1 0x40 MLOAD PUSH2 0x164 SWAP2 SWAP1 PUSH2 0x1607 JUMP JUMPDEST PUSH1 0x40 MLOAD DUP1 SWAP2 SUB SWAP1 RETURN JUMPDEST PUSH2 0x187 PUSH1 0x4 DUP1 CALLDATASIZE SUB DUP2 ADD SWAP1 PUSH2 0x182 SWAP2 SWAP1 PUSH2 0x167A JUMP JUMPDEST PUSH2 0x41A JUMP JUMPDEST PUSH1 0x40 MLOAD PUSH2 0x194 SWAP2 SWAP1 PUSH2 0x1581 JUMP JUMPDEST PUSH1 0x40 MLOAD DUP1 SWAP2 SUB SWAP1 RETURN JUMPDEST PUSH2 0x1B7 PUSH1 0x4 DUP1 CALLDATASIZE SUB DUP2 ADD SWAP1 PUSH2 0x1B2 SWAP2 SWAP1 PUSH2 0x16A5 JUMP JUMPDEST PUSH2 0x4A1 JUMP JUMPDEST STOP JUMPDEST PUSH2 0x1D3 PUSH1 0x4 DUP1 CALLDATASIZE SUB DUP2 ADD SWAP1 PUSH2 0x1CE SWAP2 SWAP1 PUSH2 0x181F JUMP JUMPDEST PUSH2 0x4C3 JUMP JUMPDEST STOP JUMPDEST PUSH2 0x1EF PUSH1 0x4 DUP1 CALLDATASIZE SUB DUP2 ADD SWAP1 PUSH2 0x1EA SWAP2 SWAP1 PUSH2 0x16A5 JUMP JUMPDEST PUSH2 0x61A JUMP JUMPDEST STOP JUMPDEST PUSH2 0x20B PUSH1 0x4 DUP1 CALLDATASIZE SUB DUP2 ADD SWAP1 PUSH2 0x206 SWAP2 SWAP1 PUSH2 0x167A JUMP JUMPDEST PUSH2 0x695 JUMP JUMPDEST PUSH1 0x40 MLOAD PUSH2 0x21C SWAP6 SWAP5 SWAP4 SWAP3 SWAP2 SWAP1 PUSH2 0x18F1 JUMP JUMPDEST PUSH1 0x40 MLOAD DUP1 SWAP2 SUB SWAP1 RETURN JUMPDEST PUSH2 0x22D PUSH2 0x8E6 JUMP JUMPDEST PUSH1 0x40 MLOAD PUSH2 0x23A SWAP2 SWAP1 PUSH2 0x1A0E JUMP JUMPDEST PUSH1 0x40 MLOAD DUP1 SWAP2 SUB SWAP1 RETURN JUMPDEST PUSH2 0x25D PUSH1 0x4 DUP1 CALLDATASIZE SUB DUP2 ADD SWAP1 PUSH2 0x258 SWAP2 SWAP1 PUSH2 0x167A JUMP JUMPDEST PUSH2 0xB46 JUMP JUMPDEST STOP JUMPDEST PUSH2 0x279 PUSH1 0x4 DUP1 CALLDATASIZE SUB DUP2 ADD SWAP1 PUSH2 0x274 SWAP2 SWAP1 PUSH2 0x167A JUMP JUMPDEST PUSH2 0xCA7 JUMP JUMPDEST PUSH1 0x40 MLOAD PUSH2 0x28A SWAP6 SWAP5 SWAP4 SWAP3 SWAP2 SWAP1 PUSH2 0x18F1 JUMP JUMPDEST PUSH1 0x40 MLOAD DUP1 SWAP2 SUB SWAP1 RETURN JUMPDEST PUSH2 0x2AD PUSH1 0x4 DUP1 CALLDATASIZE SUB DUP2 ADD SWAP1 PUSH2 0x2A8 SWAP2 SWAP1 PUSH2 0x16A5 JUMP JUMPDEST PUSH2 0xE77 JUMP JUMPDEST PUSH1 0x40 MLOAD PUSH2 0x2BA SWAP2 SWAP1 PUSH2 0x1581 JUMP JUMPDEST PUSH1 0x40 MLOAD DUP1 SWAP2 SUB SWAP1 RETURN JUMPDEST PUSH2 0x2CB PUSH2 0xEDA JUMP JUMPDEST PUSH1 0x40 MLOAD PUSH2 0x2D8 SWAP2 SWAP1 PUSH2 0x1607 JUMP JUMPDEST PUSH1 0x40 MLOAD DUP1 SWAP2 SUB SWAP1 RETURN JUMPDEST PUSH2 0x2FB PUSH1 0x4 DUP1 CALLDATASIZE SUB DUP2 ADD SWAP1 PUSH2 0x2F6 SWAP2 SWAP1 PUSH2 0x1A58 JUMP JUMPDEST PUSH2 0xEE0 JUMP JUMPDEST PUSH1 0x40 MLOAD PUSH2 0x308 SWAP2 SWAP1 PUSH2 0x1A92 JUMP JUMPDEST PUSH1 0x40 MLOAD DUP1 SWAP2 SUB SWAP1 RETURN JUMPDEST PUSH2 0x32B PUSH1 0x4 DUP1 CALLDATASIZE SUB DUP2 ADD SWAP1 PUSH2 0x326 SWAP2 SWAP1 PUSH2 0x1AAB JUMP JUMPDEST PUSH2 0xF1B JUMP JUMPDEST STOP JUMPDEST PUSH2 0x347 PUSH1 0x4 DUP1 CALLDATASIZE SUB DUP2 ADD SWAP1 PUSH2 0x342 SWAP2 SWAP1 PUSH2 0x16A5 JUMP JUMPDEST PUSH2 0x115E JUMP JUMPDEST STOP JUMPDEST PUSH2 0x351 PUSH2 0x1180 JUMP JUMPDEST PUSH1 0x40 MLOAD PUSH2 0x35E SWAP2 SWAP1 PUSH2 0x1607 JUMP JUMPDEST PUSH1 0x40 MLOAD DUP1 SWAP2 SUB SWAP1 RETURN JUMPDEST PUSH2 0x36F PUSH2 0x11A4 JUMP JUMPDEST PUSH1 0x40 MLOAD PUSH2 0x37C SWAP2 SWAP1 PUSH2 0x1A0E JUMP JUMPDEST PUSH1 0x40 MLOAD DUP1 SWAP2 SUB SWAP1 RETURN JUMPDEST PUSH0 PUSH32 0x7965DB0B00000000000000000000000000000000000000000000000000000000 PUSH28 0xFFFFFFFFFFFFFFFFFFFFFFFFFFFFFFFFFFFFFFFFFFFFFFFFFFFFFFFF NOT AND DUP3 PUSH28 0xFFFFFFFFFFFFFFFFFFFFFFFFFFFFFFFFFFFFFFFFFFFFFFFFFFFFFFFF NOT AND EQ DUP1 PUSH2 0x3F7 JUMPI POP PUSH2 0x3F6 DUP3 PUSH2 0x122F JUMP JUMPDEST JUMPDEST SWAP1 POP SWAP2 SWAP1 POP JUMP JUMPDEST PUSH0 PUSH0 PUSH0 DUP4 DUP2 MSTORE PUSH1 0x20 ADD SWAP1 DUP2 MSTORE PUSH1 0x20 ADD PUSH0 KECCAK256 PUSH1 0x1 ADD SLOAD SWAP1 POP SWAP2 SWAP1 POP JUMP JUMPDEST PUSH0 PUSH1 0x1 PUSH0 DUP4 PUSH20 0xFFFFFFFFFFFFFFFFFFFFFFFFFFFFFFFFFFFFFFFF AND PUSH20 0xFFFFFFFFFFFFFFFFFFFFFFFFFFFFFFFFFFFFFFFF AND DUP2 MSTORE PUSH1 0x20 ADD SWAP1 DUP2 MSTORE PUSH1 0x20 ADD PUSH0 KECCAK256 PUSH1 0x3 ADD PUSH0 SWAP1 SLOAD SWAP1 PUSH2 0x100 EXP SWAP1 DIV PUSH1 0xFF AND DUP1 ISZERO PUSH2 0x49A JUMPI POP PUSH2 0x499 PUSH32 0xCE23C3E399818CFEE81A7AB0880F714E53D7672B08DF0FA62F2843416E1EA09 DUP4 PUSH2 0xE77 JUMP JUMPDEST JUMPDEST SWAP1 POP SWAP2 SWAP1 POP JUMP JUMPDEST PUSH2 0x4AA DUP3 PUSH2 0x3FE JUMP JUMPDEST PUSH2 0x4B3 DUP2 PUSH2 0x1298 JUMP JUMPDEST PUSH2 0x4BD DUP4 DUP4 PUSH2 0x12AC JUMP JUMPDEST POP POP POP POP JUMP JUMPDEST PUSH32 0xCE23C3E399818CFEE81A7AB0880F714E53D7672B08DF0FA62F2843416E1EA09 PUSH2 0x4ED DUP2 PUSH2 0x1298 JUMP JUMPDEST PUSH1 0x1 PUSH0 DUP5 PUSH20 0xFFFFFFFFFFFFFFFFFFFFFFFFFFFFFFFFFFFFFFFF AND PUSH20 0xFFFFFFFFFFFFFFFFFFFFFFFFFFFFFFFFFFFFFFFF AND DUP2 MSTORE PUSH1 0x20 ADD SWAP1 DUP2 MSTORE PUSH1 0x20 ADD PUSH0 KECCAK256 PUSH1 0x3 ADD PUSH0 SWAP1 SLOAD SWAP1 PUSH2 0x100 EXP SWAP1 DIV PUSH1 0xFF AND PUSH2 0x579 JUMPI PUSH1 0x40 MLOAD PUSH32 0x8C379A000000000000000000000000000000000000000000000000000000000 DUP2 MSTORE PUSH1 0x4 ADD PUSH2 0x570 SWAP1 PUSH2 0x1BAD JUMP JUMPDEST PUSH1 0x40 MLOAD DUP1 SWAP2 SUB SWAP1 REVERT JUMPDEST DUP2 PUSH1 0x1 PUSH0 DUP6 PUSH20 0xFFFFFFFFFFFFFFFFFFFFFFFFFFFFFFFFFFFFFFFF AND PUSH20 0xFFFFFFFFFFFFFFFFFFFFFFFFFFFFFFFFFFFFFFFF AND DUP2 MSTORE PUSH1 0x20 ADD SWAP1 DUP2 MSTORE PUSH1 0x20 ADD PUSH0 KECCAK256 PUSH1 0x2 ADD SWAP1 DUP2 PUSH2 0x5C6 SWAP2 SWAP1 PUSH2 0x1DC8 JUMP JUMPDEST POP DUP3 PUSH20 0xFFFFFFFFFFFFFFFFFFFFFFFFFFFFFFFFFFFFFFFF AND PUSH32 0x8D23165FAD430BBA8F4B7860E8E456561F04B8811E473E96F002F7A5CF763C8A DUP4 PUSH1 0x40 MLOAD PUSH2 0x60D SWAP2 SWAP1 PUSH2 0x1E97 JUMP JUMPDEST PUSH1 0x40 MLOAD DUP1 SWAP2 SUB SWAP1 LOG2 POP POP POP JUMP JUMPDEST PUSH2 0x622 PUSH2 0x1395 JUMP JUMPDEST PUSH20 0xFFFFFFFFFFFFFFFFFFFFFFFFFFFFFFFFFFFFFFFF AND DUP2 PUSH20 0xFFFFFFFFFFFFFFFFFFFFFFFFFFFFFFFFFFFFFFFF AND EQ PUSH2 0x686 JUMPI PUSH1 0x40 MLOAD PUSH32 0x6697B23200000000000000000000000000000000000000000000000000000000 DUP2 MSTORE PUSH1 0x4 ADD PUSH1 0x40 MLOAD DUP1 SWAP2 SUB SWAP1 REVERT JUMPDEST PUSH2 0x690 DUP3 DUP3 PUSH2 0x139C JUMP JUMPDEST POP POP POP JUMP JUMPDEST PUSH1 0x60 DUP1 PUSH1 0x60 PUSH0 PUSH0 PUSH0 PUSH1 0x1 PUSH0 DUP9 PUSH20 0xFFFFFFFFFFFFFFFFFFFFFFFFFFFFFFFFFFFFFFFF AND PUSH20 0xFFFFFFFFFFFFFFFFFFFFFFFFFFFFFFFFFFFFFFFF AND DUP2 MSTORE PUSH1 0x20 ADD SWAP1 DUP2 MSTORE PUSH1 0x20 ADD PUSH0 KECCAK256 PUSH1 0x40 MLOAD DUP1 PUSH1 0xA0 ADD PUSH1 0x40 MSTORE SWAP1 DUP2 PUSH0 DUP3 ADD DUP1 SLOAD PUSH2 0x6F4 SWAP1 PUSH2 0x1BF8 JUMP JUMPDEST DUP1 PUSH1 0x1F ADD PUSH1 0x20 DUP1 SWAP2 DIV MUL PUSH1 0x20 ADD PUSH1 0x40 MLOAD SWAP1 DUP2 ADD PUSH1 0x40 MSTORE DUP1 SWAP3 SWAP2 SWAP1 DUP2 DUP2 MSTORE PUSH1 0x20 ADD DUP3 DUP1 SLOAD PUSH2 0x720 SWAP1 PUSH2 0x1BF8 JUMP JUMPDEST DUP1 ISZERO PUSH2 0x76B JUMPI DUP1 PUSH1 0x1F LT PUSH2 0x742 JUMPI PUSH2 0x100 DUP1 DUP4 SLOAD DIV MUL DUP4 MSTORE SWAP2 PUSH1 0x20 ADD SWAP2 PUSH2 0x76B JUMP JUMPDEST DUP3 ADD SWAP2 SWAP1 PUSH0 MSTORE PUSH1 0x20 PUSH0 KECCAK256 SWAP1 JUMPDEST DUP2 SLOAD DUP2 MSTORE SWAP1 PUSH1 0x1 ADD SWAP1 PUSH1 0x20 ADD DUP1 DUP4 GT PUSH2 0x74E JUMPI DUP3 SWAP1 SUB PUSH1 0x1F AND DUP3 ADD SWAP2 JUMPDEST POP POP POP POP POP DUP2 MSTORE PUSH1 0x20 ADD PUSH1 0x1 DUP3 ADD DUP1 SLOAD PUSH2 0x784 SWAP1 PUSH2 0x1BF8 JUMP JUMPDEST DUP1 PUSH1 0x1F ADD PUSH1 0x20 DUP1 SWAP2 DIV MUL PUSH1 0x20 ADD PUSH1 0x40 MLOAD SWAP1 DUP2 ADD PUSH1 0x40 MSTORE DUP1 SWAP3 SWAP2 SWAP1 DUP2 DUP2 MSTORE PUSH1 0x20 ADD DUP3 DUP1 SLOAD PUSH2 0x7B0 SWAP1 PUSH2 0x1BF8 JUMP JUMPDEST DUP1 ISZERO PUSH2 0x7FB JUMPI DUP1 PUSH1 0x1F LT PUSH2 0x7D2 JUMPI PUSH2 0x100 DUP1 DUP4 SLOAD DIV MUL DUP4 MSTORE SWAP2 PUSH1 0x20 ADD SWAP2 PUSH2 0x7FB JUMP JUMPDEST DUP3 ADD SWAP2 SWAP1 PUSH0 MSTORE PUSH1 0x20 PUSH0 KECCAK256 SWAP1 JUMPDEST DUP2 SLOAD DUP2 MSTORE SWAP1 PUSH1 0x1 ADD SWAP1 PUSH1 0x20 ADD DUP1 DUP4 GT PUSH2 0x7DE JUMPI DUP3 SWAP1 SUB PUSH1 0x1F AND DUP3 ADD SWAP2 JUMPDEST POP POP POP POP POP DUP2 MSTORE PUSH1 0x20 ADD PUSH1 0x2 DUP3 ADD DUP1 SLOAD PUSH2 0x814 SWAP1 PUSH2 0x1BF8 JUMP JUMPDEST DUP1 PUSH1 0x1F ADD PUSH1 0x20 DUP1 SWAP2 DIV MUL PUSH1 0x20 ADD PUSH1 0x40 MLOAD SWAP1 DUP2 ADD PUSH1 0x40 MSTORE DUP1 SWAP3 SWAP2 SWAP1 DUP2 DUP2 MSTORE PUSH1 0x20 ADD DUP3 DUP1 SLOAD PUSH2 0x840 SWAP1 PUSH2 0x1BF8 JUMP JUMPDEST DUP1 ISZERO PUSH2 0x88B JUMPI DUP1 PUSH1 0x1F LT PUSH2 0x862 JUMPI PUSH2 0x100 DUP1 DUP4 SLOAD DIV MUL DUP4 MSTORE SWAP2 PUSH1 0x20 ADD SWAP2 PUSH2 0x88B JUMP JUMPDEST DUP3 ADD SWAP2 SWAP1 PUSH0 MSTORE PUSH1 0x20 PUSH0 KECCAK256 SWAP1 JUMPDEST DUP2 SLOAD DUP2 MSTORE SWAP1 PUSH1 0x1 ADD SWAP1 PUSH1 0x20 ADD DUP1 DUP4 GT PUSH2 0x86E JUMPI DUP3 SWAP1 SUB PUSH1 0x1F AND DUP3 ADD SWAP2 JUMPDEST POP POP POP POP POP DUP2 MSTORE PUSH1 0x20 ADD PUSH1 0x3 DUP3 ADD PUSH0 SWAP1 SLOAD SWAP1 PUSH2 0x100 EXP SWAP1 DIV PUSH1 0xFF AND ISZERO ISZERO ISZERO ISZERO DUP2 MSTORE PUSH1 0x20 ADD PUSH1 0x4 DUP3 ADD SLOAD DUP2 MSTORE POP POP SWAP1 POP DUP1 PUSH0 ADD MLOAD DUP2 PUSH1 0x20 ADD MLOAD DUP3 PUSH1 0x40 ADD MLOAD DUP4 PUSH1 0x60 ADD MLOAD DUP5 PUSH1 0x80 ADD MLOAD SWAP6 POP SWAP6 POP SWAP6 POP SWAP6 POP SWAP6 POP POP SWAP2 SWAP4 SWAP6 SWAP1 SWAP3 SWAP5 POP JUMP JUMPDEST PUSH1 0x60 PUSH0 PUSH0 SWAP1 POP PUSH0 PUSH0 SWAP1 POP JUMPDEST PUSH1 0x2 DUP1 SLOAD SWAP1 POP DUP2 LT ISZERO PUSH2 0x9A7 JUMPI PUSH1 0x1 PUSH0 PUSH1 0x2 DUP4 DUP2 SLOAD DUP2 LT PUSH2 0x915 JUMPI PUSH2 0x914 PUSH2 0x1EB7 JUMP JUMPDEST JUMPDEST SWAP1 PUSH0 MSTORE PUSH1 0x20 PUSH0 KECCAK256 ADD PUSH0 SWAP1 SLOAD SWAP1 PUSH2 0x100 EXP SWAP1 DIV PUSH20 0xFFFFFFFFFFFFFFFFFFFFFFFFFFFFFFFFFFFFFFFF AND PUSH20 0xFFFFFFFFFFFFFFFFFFFFFFFFFFFFFFFFFFFFFFFF AND PUSH20 0xFFFFFFFFFFFFFFFFFFFFFFFFFFFFFFFFFFFFFFFF AND DUP2 MSTORE PUSH1 0x20 ADD SWAP1 DUP2 MSTORE PUSH1 0x20 ADD PUSH0 KECCAK256 PUSH1 0x3 ADD PUSH0 SWAP1 SLOAD SWAP1 PUSH2 0x100 EXP SWAP1 DIV PUSH1 0xFF AND ISZERO PUSH2 0x99A JUMPI DUP2 DUP1 PUSH2 0x996 SWAP1 PUSH2 0x1F11 JUMP JUMPDEST SWAP3 POP POP JUMPDEST DUP1 DUP1 PUSH1 0x1 ADD SWAP2 POP POP PUSH2 0x8F1 JUMP JUMPDEST POP PUSH0 DUP2 PUSH8 0xFFFFFFFFFFFFFFFF DUP2 GT ISZERO PUSH2 0x9C3 JUMPI PUSH2 0x9C2 PUSH2 0x16FB JUMP JUMPDEST JUMPDEST PUSH1 0x40 MLOAD SWAP1 DUP1 DUP3 MSTORE DUP1 PUSH1 0x20 MUL PUSH1 0x20 ADD DUP3 ADD PUSH1 0x40 MSTORE DUP1 ISZERO PUSH2 0x9F1 JUMPI DUP2 PUSH1 0x20 ADD PUSH1 0x20 DUP3 MUL DUP1 CALLDATASIZE DUP4 CALLDATACOPY DUP1 DUP3 ADD SWAP2 POP POP SWAP1 POP JUMPDEST POP SWAP1 POP PUSH0 PUSH0 SWAP1 POP PUSH0 PUSH0 SWAP1 POP JUMPDEST PUSH1 0x2 DUP1 SLOAD SWAP1 POP DUP2 LT ISZERO PUSH2 0xB3C JUMPI PUSH1 0x1 PUSH0 PUSH1 0x2 DUP4 DUP2 SLOAD DUP2 LT PUSH2 0xA21 JUMPI PUSH2 0xA20 PUSH2 0x1EB7 JUMP JUMPDEST JUMPDEST SWAP1 PUSH0 MSTORE PUSH1 0x20 PUSH0 KECCAK256 ADD PUSH0 SWAP1 SLOAD SWAP1 PUSH2 0x100 EXP SWAP1 DIV PUSH20 0xFFFFFFFFFFFFFFFFFFFFFFFFFFFFFFFFFFFFFFFF AND PUSH20 0xFFFFFFFFFFFFFFFFFFFFFFFFFFFFFFFFFFFFFFFF AND PUSH20 0xFFFFFFFFFFFFFFFFFFFFFFFFFFFFFFFFFFFFFFFF AND DUP2 MSTORE PUSH1 0x20 ADD SWAP1 DUP2 MSTORE PUSH1 0x20 ADD PUSH0 KECCAK256 PUSH1 0x3 ADD PUSH0 SWAP1 SLOAD SWAP1 PUSH2 0x100 EXP SWAP1 DIV PUSH1 0xFF AND ISZERO PUSH2 0xB2F JUMPI PUSH1 0x2 DUP2 DUP2 SLOAD DUP2 LT PUSH2 0xAAB JUMPI PUSH2 0xAAA PUSH2 0x1EB7 JUMP JUMPDEST JUMPDEST SWAP1 PUSH0 MSTORE PUSH1 0x20 PUSH0 KECCAK256 ADD PUSH0 SWAP1 SLOAD SWAP1 PUSH2 0x100 EXP SWAP1 DIV PUSH20 0xFFFFFFFFFFFFFFFFFFFFFFFFFFFFFFFFFFFFFFFF AND DUP4 DUP4 DUP2 MLOAD DUP2 LT PUSH2 0xAE6 JUMPI PUSH2 0xAE5 PUSH2 0x1EB7 JUMP JUMPDEST JUMPDEST PUSH1 0x20 MUL PUSH1 0x20 ADD ADD SWAP1 PUSH20 0xFFFFFFFFFFFFFFFFFFFFFFFFFFFFFFFFFFFFFFFF AND SWAP1 DUP2 PUSH20 0xFFFFFFFFFFFFFFFFFFFFFFFFFFFFFFFFFFFFFFFF AND DUP2 MSTORE POP POP DUP2 DUP1 PUSH2 0xB2B SWAP1 PUSH2 0x1F11 JUMP JUMPDEST SWAP3 POP POP JUMPDEST DUP1 DUP1 PUSH1 0x1 ADD SWAP2 POP POP PUSH2 0x9FD JUMP JUMPDEST POP DUP2 SWAP4 POP POP POP POP SWAP1 JUMP JUMPDEST PUSH0 PUSH0 SHL PUSH2 0xB52 DUP2 PUSH2 0x1298 JUMP JUMPDEST PUSH1 0x1 PUSH0 DUP4 PUSH20 0xFFFFFFFFFFFFFFFFFFFFFFFFFFFFFFFFFFFFFFFF AND PUSH20 0xFFFFFFFFFFFFFFFFFFFFFFFFFFFFFFFFFFFFFFFF AND DUP2 MSTORE PUSH1 0x20 ADD SWAP1 DUP2 MSTORE PUSH1 0x20 ADD PUSH0 KECCAK256 PUSH1 0x3 ADD PUSH0 SWAP1 SLOAD SWAP1 PUSH2 0x100 EXP SWAP1 DIV PUSH1 0xFF AND PUSH2 0xBDE JUMPI PUSH1 0x40 MLOAD PUSH32 0x8C379A000000000000000000000000000000000000000000000000000000000 DUP2 MSTORE PUSH1 0x4 ADD PUSH2 0xBD5 SWAP1 PUSH2 0x1FA2 JUMP JUMPDEST PUSH1 0x40 MLOAD DUP1 SWAP2 SUB SWAP1 REVERT JUMPDEST PUSH0 PUSH1 0x1 PUSH0 DUP5 PUSH20 0xFFFFFFFFFFFFFFFFFFFFFFFFFFFFFFFFFFFFFFFF AND PUSH20 0xFFFFFFFFFFFFFFFFFFFFFFFFFFFFFFFFFFFFFFFF AND DUP2 MSTORE PUSH1 0x20 ADD SWAP1 DUP2 MSTORE PUSH1 0x20 ADD PUSH0 KECCAK256 PUSH1 0x3 ADD PUSH0 PUSH2 0x100 EXP DUP2 SLOAD DUP2 PUSH1 0xFF MUL NOT AND SWAP1 DUP4 ISZERO ISZERO MUL OR SWAP1 SSTORE POP PUSH2 0xC5F PUSH32 0xCE23C3E399818CFEE81A7AB0880F714E53D7672B08DF0FA62F2843416E1EA09 DUP4 PUSH2 0x139C JUMP JUMPDEST POP DUP2 PUSH20 0xFFFFFFFFFFFFFFFFFFFFFFFFFFFFFFFFFFFFFFFF AND PUSH32 0x851E07AEAFCCA1B4966B2D71FD2C7CFBEBD70C9992A23CB811EF972E6B1239F5 PUSH1 0x40 MLOAD PUSH1 0x40 MLOAD DUP1 SWAP2 SUB SWAP1 LOG2 POP POP JUMP JUMPDEST PUSH1 0x1 PUSH1 0x20 MSTORE DUP1 PUSH0 MSTORE PUSH1 0x40 PUSH0 KECCAK256 PUSH0 SWAP2 POP SWAP1 POP DUP1 PUSH0 ADD DUP1 SLOAD PUSH2 0xCC6 SWAP1 PUSH2 0x1BF8 JUMP JUMPDEST DUP1 PUSH1 0x1F ADD PUSH1 0x20 DUP1 SWAP2 DIV MUL PUSH1 0x20 ADD PUSH1 0x40 MLOAD SWAP1 DUP2 ADD PUSH1 0x40 MSTORE DUP1 SWAP3 SWAP2 SWAP1 DUP2 DUP2 MSTORE PUSH1 0x20 ADD DUP3 DUP1 SLOAD PUSH2 0xCF2 SWAP1 PUSH2 0x1BF8 JUMP JUMPDEST DUP1 ISZERO PUSH2 0xD3D JUMPI DUP1 PUSH1 0x1F LT PUSH2 0xD14 JUMPI PUSH2 0x100 DUP1 DUP4 SLOAD DIV MUL DUP4 MSTORE SWAP2 PUSH1 0x20 ADD SWAP2 PUSH2 0xD3D JUMP JUMPDEST DUP3 ADD SWAP2 SWAP1 PUSH0 MSTORE PUSH1 0x20 PUSH0 KECCAK256 SWAP1 JUMPDEST DUP2 SLOAD DUP2 MSTORE SWAP1 PUSH1 0x1 ADD SWAP1 PUSH1 0x20 ADD DUP1 DUP4 GT PUSH2 0xD20 JUMPI DUP3 SWAP1 SUB PUSH1 0x1F AND DUP3 ADD SWAP2 JUMPDEST POP POP POP POP POP SWAP1 DUP1 PUSH1 0x1 ADD DUP1 SLOAD PUSH2 0xD52 SWAP1 PUSH2 0x1BF8 JUMP JUMPDEST DUP1 PUSH1 0x1F ADD PUSH1 0x20 DUP1 SWAP2 DIV MUL PUSH1 0x20 ADD PUSH1 0x40 MLOAD SWAP1 DUP2 ADD PUSH1 0x40 MSTORE DUP1 SWAP3 SWAP2 SWAP1 DUP2 DUP2 MSTORE PUSH1 0x20 ADD DUP3 DUP1 SLOAD PUSH2 0xD7E SWAP1 PUSH2 0x1BF8 JUMP JUMPDEST DUP1 ISZERO PUSH2 0xDC9 JUMPI DUP1 PUSH1 0x1F LT PUSH2 0xDA0 JUMPI PUSH2 0x100 DUP1 DUP4 SLOAD DIV MUL DUP4 MSTORE SWAP2 PUSH1 0x20 ADD SWAP2 PUSH2 0xDC9 JUMP JUMPDEST DUP3 ADD SWAP2 SWAP1 PUSH0 MSTORE PUSH1 0x20 PUSH0 KECCAK256 SWAP1 JUMPDEST DUP2 SLOAD DUP2 MSTORE SWAP1 PUSH1 0x1 ADD SWAP1 PUSH1 0x20 ADD DUP1 DUP4 GT PUSH2 0xDAC JUMPI DUP3 SWAP1 SUB PUSH1 0x1F AND DUP3 ADD SWAP2 JUMPDEST POP POP POP POP POP SWAP1 DUP1 PUSH1 0x2 ADD DUP1 SLOAD PUSH2 0xDDE SWAP1 PUSH2 0x1BF8 JUMP JUMPDEST DUP1 PUSH1 0x1F ADD PUSH1 0x20 DUP1 SWAP2 DIV MUL PUSH1 0x20 ADD PUSH1 0x40 MLOAD SWAP1 DUP2 ADD PUSH1 0x40 MSTORE DUP1 SWAP3 SWAP2 SWAP1 DUP2 DUP2 MSTORE PUSH1 0x20 ADD DUP3 DUP1 SLOAD PUSH2 0xE0A SWAP1 PUSH2 0x1BF8 JUMP JUMPDEST DUP1 ISZERO PUSH2 0xE55 JUMPI DUP1 PUSH1 0x1F LT PUSH2 0xE2C JUMPI PUSH2 0x100 DUP1 DUP4 SLOAD DIV MUL DUP4 MSTORE SWAP2 PUSH1 0x20 ADD SWAP2 PUSH2 0xE55 JUMP JUMPDEST DUP3 ADD SWAP2 SWAP1 PUSH0 MSTORE PUSH1 0x20 PUSH0 KECCAK256 SWAP1 JUMPDEST DUP2 SLOAD DUP2 MSTORE SWAP1 PUSH1 0x1 ADD SWAP1 PUSH1 0x20 ADD DUP1 DUP4 GT PUSH2 0xE38 JUMPI DUP3 SWAP1 SUB PUSH1 0x1F AND DUP3 ADD SWAP2 JUMPDEST POP POP POP POP POP SWAP1 DUP1 PUSH1 0x3 ADD PUSH0 SWAP1 SLOAD SWAP1 PUSH2 0x100 EXP SWAP1 DIV PUSH1 0xFF AND SWAP1 DUP1 PUSH1 0x4 ADD SLOAD SWAP1 POP DUP6 JUMP JUMPDEST PUSH0 PUSH0 PUSH0 DUP5 DUP2 MSTORE PUSH1 0x20 ADD SWAP1 DUP2 MSTORE PUSH1 0x20 ADD PUSH0 KECCAK256 PUSH0 ADD PUSH0 DUP4 PUSH20 0xFFFFFFFFFFFFFFFFFFFFFFFFFFFFFFFFFFFFFFFF AND PUSH20 0xFFFFFFFFFFFFFFFFFFFFFFFFFFFFFFFFFFFFFFFF AND DUP2 MSTORE PUSH1 0x20 ADD SWAP1 DUP2 MSTORE PUSH1 0x20 ADD PUSH0 KECCAK256 PUSH0 SWAP1 SLOAD SWAP1 PUSH2 0x100 EXP SWAP1 DIV PUSH1 0xFF AND SWAP1 POP SWAP3 SWAP2 POP POP JUMP JUMPDEST PUSH0 PUSH0 SHL DUP2 JUMP JUMPDEST PUSH1 0x2 DUP2 DUP2 SLOAD DUP2 LT PUSH2 0xEEF JUMPI PUSH0 DUP1 REVERT JUMPDEST SWAP1 PUSH0 MSTORE PUSH1 0x20 PUSH0 KECCAK256 ADD PUSH0 SWAP2 POP SLOAD SWAP1 PUSH2 0x100 EXP SWAP1 DIV PUSH20 0xFFFFFFFFFFFFFFFFFFFFFFFFFFFFFFFFFFFFFFFF AND DUP2 JUMP JUMPDEST PUSH0 PUSH0 SHL PUSH2 0xF27 DUP2 PUSH2 0x1298 JUMP JUMPDEST PUSH0 PUSH1 0x1 PUSH0 DUP8 PUSH20 0xFFFFFFFFFFFFFFFFFFFFFFFFFFFFFFFFFFFFFFFF AND PUSH20 0xFFFFFFFFFFFFFFFFFFFFFFFFFFFFFFFFFFFFFFFF AND DUP2 MSTORE PUSH1 0x20 ADD SWAP1 DUP2 MSTORE PUSH1 0x20 ADD PUSH0 KECCAK256 PUSH1 0x4 ADD SLOAD EQ PUSH2 0xFA9 JUMPI PUSH1 0x40 MLOAD PUSH32 0x8C379A000000000000000000000000000000000000000000000000000000000 DUP2 MSTORE PUSH1 0x4 ADD PUSH2 0xFA0 SWAP1 PUSH2 0x200A JUMP JUMPDEST PUSH1 0x40 MLOAD DUP1 SWAP2 SUB SWAP1 REVERT JUMPDEST PUSH1 0x40 MLOAD DUP1 PUSH1 0xA0 ADD PUSH1 0x40 MSTORE DUP1 DUP6 DUP2 MSTORE PUSH1 0x20 ADD DUP5 DUP2 MSTORE PUSH1 0x20 ADD DUP4 DUP2 MSTORE PUSH1 0x20 ADD PUSH1 0x1 ISZERO ISZERO DUP2 MSTORE PUSH1 0x20 ADD TIMESTAMP DUP2 MSTORE POP PUSH1 0x1 PUSH0 DUP8 PUSH20 0xFFFFFFFFFFFFFFFFFFFFFFFFFFFFFFFFFFFFFFFF AND PUSH20 0xFFFFFFFFFFFFFFFFFFFFFFFFFFFFFFFFFFFFFFFF AND DUP2 MSTORE PUSH1 0x20 ADD SWAP1 DUP2 MSTORE PUSH1 0x20 ADD PUSH0 KECCAK256 PUSH0 DUP3 ADD MLOAD DUP2 PUSH0 ADD SWAP1 DUP2 PUSH2 0x1023 SWAP2 SWAP1 PUSH2 0x1DC8 JUMP JUMPDEST POP PUSH1 0x20 DUP3 ADD MLOAD DUP2 PUSH1 0x1 ADD SWAP1 DUP2 PUSH2 0x1039 SWAP2 SWAP1 PUSH2 0x1DC8 JUMP JUMPDEST POP PUSH1 0x40 DUP3 ADD MLOAD DUP2 PUSH1 0x2 ADD SWAP1 DUP2 PUSH2 0x104F SWAP2 SWAP1 PUSH2 0x1DC8 JUMP JUMPDEST POP PUSH1 0x60 DUP3 ADD MLOAD DUP2 PUSH1 0x3 ADD PUSH0 PUSH2 0x100 EXP DUP2 SLOAD DUP2 PUSH1 0xFF MUL NOT AND SWAP1 DUP4 ISZERO ISZERO MUL OR SWAP1 SSTORE POP PUSH1 0x80 DUP3 ADD MLOAD DUP2 PUSH1 0x4 ADD SSTORE SWAP1 POP POP PUSH1 0x2 DUP6 SWAP1 DUP1 PUSH1 0x1 DUP2 SLOAD ADD DUP1 DUP3 SSTORE DUP1 SWAP2 POP POP PUSH1 0x1 SWAP1 SUB SWAP1 PUSH0 MSTORE PUSH1 0x20 PUSH0 KECCAK256 ADD PUSH0 SWAP1 SWAP2 SWAP1 SWAP2 SWAP1 SWAP2 PUSH2 0x100 EXP DUP2 SLOAD DUP2 PUSH20 0xFFFFFFFFFFFFFFFFFFFFFFFFFFFFFFFFFFFFFFFF MUL NOT AND SWAP1 DUP4 PUSH20 0xFFFFFFFFFFFFFFFFFFFFFFFFFFFFFFFFFFFFFFFF AND MUL OR SWAP1 SSTORE POP PUSH2 0x1106 PUSH32 0xCE23C3E399818CFEE81A7AB0880F714E53D7672B08DF0FA62F2843416E1EA09 DUP7 PUSH2 0x12AC JUMP JUMPDEST POP DUP5 PUSH20 0xFFFFFFFFFFFFFFFFFFFFFFFFFFFFFFFFFFFFFFFF AND PUSH32 0x6C8BB1EF46BB6F1C47C35D06F09C4EED102353449280D18CC58AABAB0EC0842B DUP6 DUP6 PUSH1 0x40 MLOAD PUSH2 0x114F SWAP3 SWAP2 SWAP1 PUSH2 0x2028 JUMP JUMPDEST PUSH1 0x40 MLOAD DUP1 SWAP2 SUB SWAP1 LOG2 POP POP POP POP POP JUMP JUMPDEST PUSH2 0x1167 DUP3 PUSH2 0x3FE JUMP JUMPDEST PUSH2 0x1170 DUP2 PUSH2 0x1298 JUMP JUMPDEST PUSH2 0x117A DUP4 DUP4 PUSH2 0x139C JUMP JUMPDEST POP POP POP POP JUMP JUMPDEST PUSH32 0xCE23C3E399818CFEE81A7AB0880F714E53D7672B08DF0FA62F2843416E1EA09 DUP2 JUMP JUMPDEST PUSH1 0x60 PUSH1 0x2 DUP1 SLOAD DUP1 PUSH1 0x20 MUL PUSH1 0x20 ADD PUSH1 0x40 MLOAD SWAP1 DUP2 ADD PUSH1 0x40 MSTORE DUP1 SWAP3 SWAP2 SWAP1 DUP2 DUP2 MSTORE PUSH1 0x20 ADD DUP3 DUP1 SLOAD DUP1 ISZERO PUSH2 0x1225 JUMPI PUSH1 0x20 MUL DUP3 ADD SWAP2 SWAP1 PUSH0 MSTORE PUSH1 0x20 PUSH0 KECCAK256 SWAP1 JUMPDEST DUP2 PUSH0 SWAP1 SLOAD SWAP1 PUSH2 0x100 EXP SWAP1 DIV PUSH20 0xFFFFFFFFFFFFFFFFFFFFFFFFFFFFFFFFFFFFFFFF AND PUSH20 0xFFFFFFFFFFFFFFFFFFFFFFFFFFFFFFFFFFFFFFFF AND DUP2 MSTORE PUSH1 0x20 ADD SWAP1 PUSH1 0x1 ADD SWAP1 DUP1 DUP4 GT PUSH2 0x11DC JUMPI JUMPDEST POP POP POP POP POP SWAP1 POP SWAP1 JUMP JUMPDEST PUSH0 PUSH32 0x1FFC9A700000000000000000000000000000000000000000000000000000000 PUSH28 0xFFFFFFFFFFFFFFFFFFFFFFFFFFFFFFFFFFFFFFFFFFFFFFFFFFFFFFFF NOT AND DUP3 PUSH28 0xFFFFFFFFFFFFFFFFFFFFFFFFFFFFFFFFFFFFFFFFFFFFFFFFFFFFFFFF NOT AND EQ SWAP1 POP SWAP2 SWAP1 POP JUMP JUMPDEST PUSH2 0x12A9 DUP2 PUSH2 0x12A4 PUSH2 0x1395 JUMP JUMPDEST PUSH2 0x1485 JUMP JUMPDEST POP JUMP JUMPDEST PUSH0 PUSH2 0x12B7 DUP4 DUP4 PUSH2 0xE77 JUMP JUMPDEST PUSH2 0x138B JUMPI PUSH1 0x1 PUSH0 PUSH0 DUP6 DUP2 MSTORE PUSH1 0x20 ADD SWAP1 DUP2 MSTORE PUSH1 0x20 ADD PUSH0 KECCAK256 PUSH0 ADD PUSH0 DUP5 PUSH20 0xFFFFFFFFFFFFFFFFFFFFFFFFFFFFFFFFFFFFFFFF AND PUSH20 0xFFFFFFFFFFFFFFFFFFFFFFFFFFFFFFFFFFFFFFFF AND DUP2 MSTORE PUSH1 0x20 ADD SWAP1 DUP2 MSTORE PUSH1 0x20 ADD PUSH0 KECCAK256 PUSH0 PUSH2 0x100 EXP DUP2 SLOAD DUP2 PUSH1 0xFF MUL NOT AND SWAP1 DUP4 ISZERO ISZERO MUL OR SWAP1 SSTORE POP PUSH2 0x1328 PUSH2 0x1395 JUMP JUMPDEST PUSH20 0xFFFFFFFFFFFFFFFFFFFFFFFFFFFFFFFFFFFFFFFF AND DUP3 PUSH20 0xFFFFFFFFFFFFFFFFFFFFFFFFFFFFFFFFFFFFFFFF AND DUP5 PUSH32 0x2F8788117E7EFF1D82E926EC794901D17C78024A50270940304540A733656F0D PUSH1 0x40 MLOAD PUSH1 0x40 MLOAD DUP1 SWAP2 SUB SWAP1 LOG4 PUSH1 0x1 SWAP1 POP PUSH2 0x138F JUMP JUMPDEST PUSH0 SWAP1 POP JUMPDEST SWAP3 SWAP2 POP POP JUMP JUMPDEST PUSH0 CALLER SWAP1 POP SWAP1 JUMP JUMPDEST PUSH0 PUSH2 0x13A7 DUP4 DUP4 PUSH2 0xE77 JUMP JUMPDEST ISZERO PUSH2 0x147B JUMPI PUSH0 PUSH0 PUSH0 DUP6 DUP2 MSTORE PUSH1 0x20 ADD SWAP1 DUP2 MSTORE PUSH1 0x20 ADD PUSH0 KECCAK256 PUSH0 ADD PUSH0 DUP5 PUSH20 0xFFFFFFFFFFFFFFFFFFFFFFFFFFFFFFFFFFFFFFFF AND PUSH20 0xFFFFFFFFFFFFFFFFFFFFFFFFFFFFFFFFFFFFFFFF AND DUP2 MSTORE PUSH1 0x20 ADD SWAP1 DUP2 MSTORE PUSH1 0x20 ADD PUSH0 KECCAK256 PUSH0 PUSH2 0x100 EXP DUP2 SLOAD DUP2 PUSH1 0xFF MUL NOT AND SWAP1 DUP4 ISZERO ISZERO MUL OR SWAP1 SSTORE POP PUSH2 0x1418 PUSH2 0x1395 JUMP JUMPDEST PUSH20 0xFFFFFFFFFFFFFFFFFFFFFFFFFFFFFFFFFFFFFFFF AND DUP3 PUSH20 0xFFFFFFFFFFFFFFFFFFFFFFFFFFFFFFFFFFFFFFFF AND DUP5 PUSH32 0xF6391F5C32D9C69D2A47EA670B442974B53935D1EDC7FD64EB21E047A839171B PUSH1 0x40 MLOAD PUSH1 0x40 MLOAD DUP1 SWAP2 SUB SWAP1 LOG4 PUSH1 0x1 SWAP1 POP PUSH2 0x147F JUMP JUMPDEST PUSH0 SWAP1 POP JUMPDEST SWAP3 SWAP2 POP POP JUMP JUMPDEST PUSH2 0x148F DUP3 DUP3 PUSH2 0xE77 JUMP JUMPDEST PUSH2 0x14D2 JUMPI DUP1 DUP3 PUSH1 0x40 MLOAD PUSH32 0xE2517D3F00000000000000000000000000000000000000000000000000000000 DUP2 MSTORE PUSH1 0x4 ADD PUSH2 0x14C9 SWAP3 SWAP2 SWAP1 PUSH2 0x205D JUMP JUMPDEST PUSH1 0x40 MLOAD DUP1 SWAP2 SUB SWAP1 REVERT JUMPDEST POP POP JUMP JUMPDEST PUSH0 PUSH1 0x40 MLOAD SWAP1 POP SWAP1 JUMP JUMPDEST PUSH0 PUSH0 REVERT JUMPDEST PUSH0 PUSH0 REVERT JUMPDEST PUSH0 PUSH32 0xFFFFFFFF00000000000000000000000000000000000000000000000000000000 DUP3 AND SWAP1 POP SWAP2 SWAP1 POP JUMP JUMPDEST PUSH2 0x151B DUP2 PUSH2 0x14E7 JUMP JUMPDEST DUP2 EQ PUSH2 0x1525 JUMPI PUSH0 PUSH0 REVERT JUMPDEST POP JUMP JUMPDEST PUSH0 DUP2 CALLDATALOAD SWAP1 POP PUSH2 0x1536 DUP2 PUSH2 0x1512 JUMP JUMPDEST SWAP3 SWAP2 POP POP JUMP JUMPDEST PUSH0 PUSH1 0x20 DUP3 DUP5 SUB SLT ISZERO PUSH2 0x1551 JUMPI PUSH2 0x1550 PUSH2 0x14DF JUMP JUMPDEST JUMPDEST PUSH0 PUSH2 0x155E DUP5 DUP3 DUP6 ADD PUSH2 0x1528 JUMP JUMPDEST SWAP2 POP POP SWAP3 SWAP2 POP POP JUMP JUMPDEST PUSH0 DUP2 ISZERO ISZERO SWAP1 POP SWAP2 SWAP1 POP JUMP JUMPDEST PUSH2 0x157B DUP2 PUSH2 0x1567 JUMP JUMPDEST DUP3 MSTORE POP POP JUMP JUMPDEST PUSH0 PUSH1 0x20 DUP3 ADD SWAP1 POP PUSH2 0x1594 PUSH0 DUP4 ADD DUP5 PUSH2 0x1572 JUMP JUMPDEST SWAP3 SWAP2 POP POP JUMP JUMPDEST PUSH0 DUP2 SWAP1 POP SWAP2 SWAP1 POP JUMP JUMPDEST PUSH2 0x15AC DUP2 PUSH2 0x159A JUMP JUMPDEST DUP2 EQ PUSH2 0x15B6 JUMPI PUSH0 PUSH0 REVERT JUMPDEST POP JUMP JUMPDEST PUSH0 DUP2 CALLDATALOAD SWAP1 POP PUSH2 0x15C7 DUP2 PUSH2 0x15A3 JUMP JUMPDEST SWAP3 SWAP2 POP POP JUMP JUMPDEST PUSH0 PUSH1 0x20 DUP3 DUP5 SUB SLT ISZERO PUSH2 0x15E2 JUMPI PUSH2 0x15E1 PUSH2 0x14DF JUMP JUMPDEST JUMPDEST PUSH0 PUSH2 0x15EF DUP5 DUP3 DUP6 ADD PUSH2 0x15B9 JUMP JUMPDEST SWAP2 POP POP SWAP3 SWAP2 POP POP JUMP JUMPDEST PUSH2 0x1601 DUP2 PUSH2 0x159A JUMP JUMPDEST DUP3 MSTORE POP POP JUMP JUMPDEST PUSH0 PUSH1 0x20 DUP3 ADD SWAP1 POP PUSH2 0x161A PUSH0 DUP4 ADD DUP5 PUSH2 0x15F8 JUMP JUMPDEST SWAP3 SWAP2 POP POP JUMP JUMPDEST PUSH0 PUSH20 0xFFFFFFFFFFFFFFFFFFFFFFFFFFFFFFFFFFFFFFFF DUP3 AND SWAP1 POP SWAP2 SWAP1 POP JUMP JUMPDEST PUSH0 PUSH2 0x1649 DUP3 PUSH2 0x1620 JUMP JUMPDEST SWAP1 POP SWAP2 SWAP1 POP JUMP JUMPDEST PUSH2 0x1659 DUP2 PUSH2 0x163F JUMP JUMPDEST DUP2 EQ PUSH2 0x1663 JUMPI PUSH0 PUSH0 REVERT JUMPDEST POP JUMP JUMPDEST PUSH0 DUP2 CALLDATALOAD SWAP1 POP PUSH2 0x1674 DUP2 PUSH2 0x1650 JUMP JUMPDEST SWAP3 SWAP2 POP POP JUMP JUMPDEST PUSH0 PUSH1 0x20 DUP3 DUP5 SUB SLT ISZERO PUSH2 0x168F JUMPI PUSH2 0x168E PUSH2 0x14DF JUMP JUMPDEST JUMPDEST PUSH0 PUSH2 0x169C DUP5 DUP3 DUP6 ADD PUSH2 0x1666 JUMP JUMPDEST SWAP2 POP POP SWAP3 SWAP2 POP POP JUMP JUMPDEST PUSH0 PUSH0 PUSH1 0x40 DUP4 DUP6 SUB SLT ISZERO PUSH2 0x16BB JUMPI PUSH2 0x16BA PUSH2 0x14DF JUMP JUMPDEST JUMPDEST PUSH0 PUSH2 0x16C8 DUP6 DUP3 DUP7 ADD PUSH2 0x15B9 JUMP JUMPDEST SWAP3 POP POP PUSH1 0x20 PUSH2 0x16D9 DUP6 DUP3 DUP7 ADD PUSH2 0x1666 JUMP JUMPDEST SWAP2 POP POP SWAP3 POP SWAP3 SWAP1 POP JUMP JUMPDEST PUSH0 PUSH0 REVERT JUMPDEST PUSH0 PUSH0 REVERT JUMPDEST PUSH0 PUSH1 0x1F NOT PUSH1 0x1F DUP4 ADD AND SWAP1 POP SWAP2 SWAP1 POP JUMP JUMPDEST PUSH32 0x4E487B7100000000000000000000000000000000000000000000000000000000 PUSH0 MSTORE PUSH1 0x41 PUSH1 0x4 MSTORE PUSH1 0x24 PUSH0 REVERT JUMPDEST PUSH2 0x1731 DUP3 PUSH2 0x16EB JUMP JUMPDEST DUP2 ADD DUP2 DUP2 LT PUSH8 0xFFFFFFFFFFFFFFFF DUP3 GT OR ISZERO PUSH2 0x1750 JUMPI PUSH2 0x174F PUSH2 0x16FB JUMP JUMPDEST JUMPDEST DUP1 PUSH1 0x40 MSTORE POP POP POP JUMP JUMPDEST PUSH0 PUSH2 0x1762 PUSH2 0x14D6 JUMP JUMPDEST SWAP1 POP PUSH2 0x176E DUP3 DUP3 PUSH2 0x1728 JUMP JUMPDEST SWAP2 SWAP1 POP JUMP JUMPDEST PUSH0 PUSH8 0xFFFFFFFFFFFFFFFF DUP3 GT ISZERO PUSH2 0x178D JUMPI PUSH2 0x178C PUSH2 0x16FB JUMP JUMPDEST JUMPDEST PUSH2 0x1796 DUP3 PUSH2 0x16EB JUMP JUMPDEST SWAP1 POP PUSH1 0x20 DUP2 ADD SWAP1 POP SWAP2 SWAP1 POP JUMP JUMPDEST DUP3 DUP2 DUP4 CALLDATACOPY PUSH0 DUP4 DUP4 ADD MSTORE POP POP POP JUMP JUMPDEST PUSH0 PUSH2 0x17C3 PUSH2 0x17BE DUP5 PUSH2 0x1773 JUMP JUMPDEST PUSH2 0x1759 JUMP JUMPDEST SWAP1 POP DUP3 DUP2 MSTORE PUSH1 0x20 DUP2 ADD DUP5 DUP5 DUP5 ADD GT ISZERO PUSH2 0x17DF JUMPI PUSH2 0x17DE PUSH2 0x16E7 JUMP JUMPDEST JUMPDEST PUSH2 0x17EA DUP5 DUP3 DUP6 PUSH2 0x17A3 JUMP JUMPDEST POP SWAP4 SWAP3 POP POP POP JUMP JUMPDEST PUSH0 DUP3 PUSH1 0x1F DUP4 ADD SLT PUSH2 0x1806 JUMPI PUSH2 0x1805 PUSH2 0x16E3 JUMP JUMPDEST JUMPDEST DUP2 CALLDATALOAD PUSH2 0x1816 DUP5 DUP3 PUSH1 0x20 DUP7 ADD PUSH2 0x17B1 JUMP JUMPDEST SWAP2 POP POP SWAP3 SWAP2 POP POP JUMP JUMPDEST PUSH0 PUSH0 PUSH1 0x40 DUP4 DUP6 SUB SLT ISZERO PUSH2 0x1835 JUMPI PUSH2 0x1834 PUSH2 0x14DF JUMP JUMPDEST JUMPDEST PUSH0 PUSH2 0x1842 DUP6 DUP3 DUP7 ADD PUSH2 0x1666 JUMP JUMPDEST SWAP3 POP POP PUSH1 0x20 DUP4 ADD CALLDATALOAD PUSH8 0xFFFFFFFFFFFFFFFF DUP2 GT ISZERO PUSH2 0x1863 JUMPI PUSH2 0x1862 PUSH2 0x14E3 JUMP JUMPDEST JUMPDEST PUSH2 0x186F DUP6 DUP3 DUP7 ADD PUSH2 0x17F2 JUMP JUMPDEST SWAP2 POP POP SWAP3 POP SWAP3 SWAP1 POP JUMP JUMPDEST PUSH0 DUP2 MLOAD SWAP1 POP SWAP2 SWAP1 POP JUMP JUMPDEST PUSH0 DUP3 DUP3 MSTORE PUSH1 0x20 DUP3 ADD SWAP1 POP SWAP3 SWAP2 POP POP JUMP JUMPDEST DUP3 DUP2 DUP4 MCOPY PUSH0 DUP4 DUP4 ADD MSTORE POP POP POP JUMP JUMPDEST PUSH0 PUSH2 0x18AB DUP3 PUSH2 0x1879 JUMP JUMPDEST PUSH2 0x18B5 DUP2 DUP6 PUSH2 0x1883 JUMP JUMPDEST SWAP4 POP PUSH2 0x18C5 DUP2 DUP6 PUSH1 0x20 DUP7 ADD PUSH2 0x1893 JUMP JUMPDEST PUSH2 0x18CE DUP2 PUSH2 0x16EB JUMP JUMPDEST DUP5 ADD SWAP2 POP POP SWAP3 SWAP2 POP POP JUMP JUMPDEST PUSH0 DUP2 SWAP1 POP SWAP2 SWAP1 POP JUMP JUMPDEST PUSH2 0x18EB DUP2 PUSH2 0x18D9 JUMP JUMPDEST DUP3 MSTORE POP POP JUMP JUMPDEST PUSH0 PUSH1 0xA0 DUP3 ADD SWAP1 POP DUP2 DUP2 SUB PUSH0 DUP4 ADD MSTORE PUSH2 0x1909 DUP2 DUP9 PUSH2 0x18A1 JUMP JUMPDEST SWAP1 POP DUP2 DUP2 SUB PUSH1 0x20 DUP4 ADD MSTORE PUSH2 0x191D DUP2 DUP8 PUSH2 0x18A1 JUMP JUMPDEST SWAP1 POP DUP2 DUP2 SUB PUSH1 0x40 DUP4 ADD MSTORE PUSH2 0x1931 DUP2 DUP7 PUSH2 0x18A1 JUMP JUMPDEST SWAP1 POP PUSH2 0x1940 PUSH1 0x60 DUP4 ADD DUP6 PUSH2 0x1572 JUMP JUMPDEST PUSH2 0x194D PUSH1 0x80 DUP4 ADD DUP5 PUSH2 0x18E2 JUMP JUMPDEST SWAP7 SWAP6 POP POP POP POP POP POP JUMP JUMPDEST PUSH0 DUP2 MLOAD SWAP1 POP SWAP2 SWAP1 POP JUMP JUMPDEST PUSH0 DUP3 DUP3 MSTORE PUSH1 0x20 DUP3 ADD SWAP1 POP SWAP3 SWAP2 POP POP JUMP JUMPDEST PUSH0 DUP2 SWAP1 POP PUSH1 0x20 DUP3 ADD SWAP1 POP SWAP2 SWAP1 POP JUMP JUMPDEST PUSH2 0x1989 DUP2 PUSH2 0x163F JUMP JUMPDEST DUP3 MSTORE POP POP JUMP JUMPDEST PUSH0 PUSH2 0x199A DUP4 DUP4 PUSH2 0x1980 JUMP JUMPDEST PUSH1 0x20 DUP4 ADD SWAP1 POP SWAP3 SWAP2 POP POP JUMP JUMPDEST PUSH0 PUSH1 0x20 DUP3 ADD SWAP1 POP SWAP2 SWAP1 POP JUMP JUMPDEST PUSH0 PUSH2 0x19BC DUP3 PUSH2 0x1957 JUMP JUMPDEST PUSH2 0x19C6 DUP2 DUP6 PUSH2 0x1961 JUMP JUMPDEST SWAP4 POP PUSH2 0x19D1 DUP4 PUSH2 0x1971 JUMP JUMPDEST DUP1 PUSH0 JUMPDEST DUP4 DUP2 LT ISZERO PUSH2 0x1A01 JUMPI DUP2 MLOAD PUSH2 0x19E8 DUP9 DUP3 PUSH2 0x198F JUMP JUMPDEST SWAP8 POP PUSH2 0x19F3 DUP4 PUSH2 0x19A6 JUMP JUMPDEST SWAP3 POP POP PUSH1 0x1 DUP2 ADD SWAP1 POP PUSH2 0x19D4 JUMP JUMPDEST POP DUP6 SWAP4 POP POP POP POP SWAP3 SWAP2 POP POP JUMP JUMPDEST PUSH0 PUSH1 0x20 DUP3 ADD SWAP1 POP DUP2 DUP2 SUB PUSH0 DUP4 ADD MSTORE PUSH2 0x1A26 DUP2 DUP5 PUSH2 0x19B2 JUMP JUMPDEST SWAP1 POP SWAP3 SWAP2 POP POP JUMP JUMPDEST PUSH2 0x1A37 DUP2 PUSH2 0x18D9 JUMP JUMPDEST DUP2 EQ PUSH2 0x1A41 JUMPI PUSH0 PUSH0 REVERT JUMPDEST POP JUMP JUMPDEST PUSH0 DUP2 CALLDATALOAD SWAP1 POP PUSH2 0x1A52 DUP2 PUSH2 0x1A2E JUMP JUMPDEST SWAP3 SWAP2 POP POP JUMP JUMPDEST PUSH0 PUSH1 0x20 DUP3 DUP5 SUB SLT ISZERO PUSH2 0x1A6D JUMPI PUSH2 0x1A6C PUSH2 0x14DF JUMP JUMPDEST JUMPDEST PUSH0 PUSH2 0x1A7A DUP5 DUP3 DUP6 ADD PUSH2 0x1A44 JUMP JUMPDEST SWAP2 POP POP SWAP3 SWAP2 POP POP JUMP JUMPDEST PUSH2 0x1A8C DUP2 PUSH2 0x163F JUMP JUMPDEST DUP3 MSTORE POP POP JUMP JUMPDEST PUSH0 PUSH1 0x20 DUP3 ADD SWAP1 POP PUSH2 0x1AA5 PUSH0 DUP4 ADD DUP5 PUSH2 0x1A83 JUMP JUMPDEST SWAP3 SWAP2 POP POP JUMP JUMPDEST PUSH0 PUSH0 PUSH0 PUSH0 PUSH1 0x80 DUP6 DUP8 SUB SLT ISZERO PUSH2 0x1AC3 JUMPI PUSH2 0x1AC2 PUSH2 0x14DF JUMP JUMPDEST JUMPDEST PUSH0 PUSH2 0x1AD0 DUP8 DUP3 DUP9 ADD PUSH2 0x1666 JUMP JUMPDEST SWAP5 POP POP PUSH1 0x20 DUP6 ADD CALLDATALOAD PUSH8 0xFFFFFFFFFFFFFFFF DUP2 GT ISZERO PUSH2 0x1AF1 JUMPI PUSH2 0x1AF0 PUSH2 0x14E3 JUMP JUMPDEST JUMPDEST PUSH2 0x1AFD DUP8 DUP3 DUP9 ADD PUSH2 0x17F2 JUMP JUMPDEST SWAP4 POP POP PUSH1 0x40 DUP6 ADD CALLDATALOAD PUSH8 0xFFFFFFFFFFFFFFFF DUP2 GT ISZERO PUSH2 0x1B1E JUMPI PUSH2 0x1B1D PUSH2 0x14E3 JUMP JUMPDEST JUMPDEST PUSH2 0x1B2A DUP8 DUP3 DUP9 ADD PUSH2 0x17F2 JUMP JUMPDEST SWAP3 POP POP PUSH1 0x60 DUP6 ADD CALLDATALOAD PUSH8 0xFFFFFFFFFFFFFFFF DUP2 GT ISZERO PUSH2 0x1B4B JUMPI PUSH2 0x1B4A PUSH2 0x14E3 JUMP JUMPDEST JUMPDEST PUSH2 0x1B57 DUP8 DUP3 DUP9 ADD PUSH2 0x17F2 JUMP JUMPDEST SWAP2 POP POP SWAP3 SWAP6 SWAP2 SWAP5 POP SWAP3 POP JUMP JUMPDEST PUSH32 0x417574686F7269747920696E6163746976650000000000000000000000000000 PUSH0 DUP3 ADD MSTORE POP JUMP JUMPDEST PUSH0 PUSH2 0x1B97 PUSH1 0x12 DUP4 PUSH2 0x1883 JUMP JUMPDEST SWAP2 POP PUSH2 0x1BA2 DUP3 PUSH2 0x1B63 JUMP JUMPDEST PUSH1 0x20 DUP3 ADD SWAP1 POP SWAP2 SWAP1 POP JUMP JUMPDEST PUSH0 PUSH1 0x20 DUP3 ADD SWAP1 POP DUP2 DUP2 SUB PUSH0 DUP4 ADD MSTORE PUSH2 0x1BC4 DUP2 PUSH2 0x1B8B JUMP JUMPDEST SWAP1 POP SWAP2 SWAP1 POP JUMP JUMPDEST PUSH32 0x4E487B7100000000000000000000000000000000000000000000000000000000 PUSH0 MSTORE PUSH1 0x22 PUSH1 0x4 MSTORE PUSH1 0x24 PUSH0 REVERT JUMPDEST PUSH0 PUSH1 0x2 DUP3 DIV SWAP1 POP PUSH1 0x1 DUP3 AND DUP1 PUSH2 0x1C0F JUMPI PUSH1 0x7F DUP3 AND SWAP2 POP JUMPDEST PUSH1 0x20 DUP3 LT DUP2 SUB PUSH2 0x1C22 JUMPI PUSH2 0x1C21 PUSH2 0x1BCB JUMP JUMPDEST JUMPDEST POP SWAP2 SWAP1 POP JUMP JUMPDEST PUSH0 DUP2 SWAP1 POP DUP2 PUSH0 MSTORE PUSH1 0x20 PUSH0 KECCAK256 SWAP1 POP SWAP2 SWAP1 POP JUMP JUMPDEST PUSH0 PUSH1 0x20 PUSH1 0x1F DUP4 ADD DIV SWAP1 POP SWAP2 SWAP1 POP JUMP JUMPDEST PUSH0 DUP3 DUP3 SHL SWAP1 POP SWAP3 SWAP2 POP POP JUMP JUMPDEST PUSH0 PUSH1 0x8 DUP4 MUL PUSH2 0x1C84 PUSH32 0xFFFFFFFFFFFFFFFFFFFFFFFFFFFFFFFFFFFFFFFFFFFFFFFFFFFFFFFFFFFFFFFF DUP3 PUSH2 0x1C49 JUMP JUMPDEST PUSH2 0x1C8E DUP7 DUP4 PUSH2 0x1C49 JUMP JUMPDEST SWAP6 POP DUP1 NOT DUP5 AND SWAP4 POP DUP1 DUP7 AND DUP5 OR SWAP3 POP POP POP SWAP4 SWAP3 POP POP POP JUMP JUMPDEST PUSH0 DUP2 SWAP1 POP SWAP2 SWAP1 POP JUMP JUMPDEST PUSH0 PUSH2 0x1CC9 PUSH2 0x1CC4 PUSH2 0x1CBF DUP5 PUSH2 0x18D9 JUMP JUMPDEST PUSH2 0x1CA6 JUMP JUMPDEST PUSH2 0x18D9 JUMP JUMPDEST SWAP1 POP SWAP2 SWAP1 POP JUMP JUMPDEST PUSH0 DUP2 SWAP1 POP SWAP2 SWAP1 POP JUMP JUMPDEST PUSH2 0x1CE2 DUP4 PUSH2 0x1CAF JUMP JUMPDEST PUSH2 0x1CF6 PUSH2 0x1CEE DUP3 PUSH2 0x1CD0 JUMP JUMPDEST DUP5 DUP5 SLOAD PUSH2 0x1C55 JUMP JUMPDEST DUP3 SSTORE POP POP POP POP JUMP JUMPDEST PUSH0 PUSH0 SWAP1 POP SWAP1 JUMP JUMPDEST PUSH2 0x1D0D PUSH2 0x1CFE JUMP JUMPDEST PUSH2 0x1D18 DUP2 DUP5 DUP5 PUSH2 0x1CD9 JUMP JUMPDEST POP POP POP JUMP JUMPDEST JUMPDEST DUP2 DUP2 LT ISZERO PUSH2 0x1D3B JUMPI PUSH2 0x1D30 PUSH0 DUP3 PUSH2 0x1D05 JUMP JUMPDEST PUSH1 0x1 DUP2 ADD SWAP1 POP PUSH2 0x1D1E JUMP JUMPDEST POP POP JUMP JUMPDEST PUSH1 0x1F DUP3 GT ISZERO PUSH2 0x1D80 JUMPI PUSH2 0x1D51 DUP2 PUSH2 0x1C28 JUMP JUMPDEST PUSH2 0x1D5A DUP5 PUSH2 0x1C3A JUMP JUMPDEST DUP2 ADD PUSH1 0x20 DUP6 LT ISZERO PUSH2 0x1D69 JUMPI DUP2 SWAP1 POP JUMPDEST PUSH2 0x1D7D PUSH2 0x1D75 DUP6 PUSH2 0x1C3A JUMP JUMPDEST DUP4 ADD DUP3 PUSH2 0x1D1D JUMP JUMPDEST POP POP JUMPDEST POP POP POP JUMP JUMPDEST PUSH0 DUP3 DUP3 SHR SWAP1 POP SWAP3 SWAP2 POP POP JUMP JUMPDEST PUSH0 PUSH2 0x1DA0 PUSH0 NOT DUP5 PUSH1 0x8 MUL PUSH2 0x1D85 JUMP JUMPDEST NOT DUP1 DUP4 AND SWAP2 POP POP SWAP3 SWAP2 POP POP JUMP JUMPDEST PUSH0 PUSH2 0x1DB8 DUP4 DUP4 PUSH2 0x1D91 JUMP JUMPDEST SWAP2 POP DUP3 PUSH1 0x2 MUL DUP3 OR SWAP1 POP SWAP3 SWAP2 POP POP JUMP JUMPDEST PUSH2 0x1DD1 DUP3 PUSH2 0x1879 JUMP JUMPDEST PUSH8 0xFFFFFFFFFFFFFFFF DUP2 GT ISZERO PUSH2 0x1DEA JUMPI PUSH2 0x1DE9 PUSH2 0x16FB JUMP JUMPDEST JUMPDEST PUSH2 0x1DF4 DUP3 SLOAD PUSH2 0x1BF8 JUMP JUMPDEST PUSH2 0x1DFF DUP3 DUP3 DUP6 PUSH2 0x1D3F JUMP JUMPDEST PUSH0 PUSH1 0x20 SWAP1 POP PUSH1 0x1F DUP4 GT PUSH1 0x1 DUP2 EQ PUSH2 0x1E30 JUMPI PUSH0 DUP5 ISZERO PUSH2 0x1E1E JUMPI DUP3 DUP8 ADD MLOAD SWAP1 POP JUMPDEST PUSH2 0x1E28 DUP6 DUP3 PUSH2 0x1DAD JUMP JUMPDEST DUP7 SSTORE POP PUSH2 0x1E8F JUMP JUMPDEST PUSH1 0x1F NOT DUP5 AND PUSH2 0x1E3E DUP7 PUSH2 0x1C28 JUMP JUMPDEST PUSH0 JUMPDEST DUP3 DUP2 LT ISZERO PUSH2 0x1E65 JUMPI DUP5 DUP10 ADD MLOAD DUP3 SSTORE PUSH1 0x1 DUP3 ADD SWAP2 POP PUSH1 0x20 DUP6 ADD SWAP5 POP PUSH1 0x20 DUP2 ADD SWAP1 POP PUSH2 0x1E40 JUMP JUMPDEST DUP7 DUP4 LT ISZERO PUSH2 0x1E82 JUMPI DUP5 DUP10 ADD MLOAD PUSH2 0x1E7E PUSH1 0x1F DUP10 AND DUP3 PUSH2 0x1D91 JUMP JUMPDEST DUP4 SSTORE POP JUMPDEST PUSH1 0x1 PUSH1 0x2 DUP9 MUL ADD DUP9 SSTORE POP POP POP JUMPDEST POP POP POP POP POP POP JUMP JUMPDEST PUSH0 PUSH1 0x20 DUP3 ADD SWAP1 POP DUP2 DUP2 SUB PUSH0 DUP4 ADD MSTORE PUSH2 0x1EAF DUP2 DUP5 PUSH2 0x18A1 JUMP JUMPDEST SWAP1 POP SWAP3 SWAP2 POP POP JUMP JUMPDEST PUSH32 0x4E487B7100000000000000000000000000000000000000000000000000000000 PUSH0 MSTORE PUSH1 0x32 PUSH1 0x4 MSTORE PUSH1 0x24 PUSH0 REVERT JUMPDEST PUSH32 0x4E487B7100000000000000000000000000000000000000000000000000000000 PUSH0 MSTORE PUSH1 0x11 PUSH1 0x4 MSTORE PUSH1 0x24 PUSH0 REVERT JUMPDEST PUSH0 PUSH2 0x1F1B DUP3 PUSH2 0x18D9 JUMP JUMPDEST SWAP2 POP PUSH32 0xFFFFFFFFFFFFFFFFFFFFFFFFFFFFFFFFFFFFFFFFFFFFFFFFFFFFFFFFFFFFFFFF DUP3 SUB PUSH2 0x1F4D JUMPI PUSH2 0x1F4C PUSH2 0x1EE4 JUMP JUMPDEST JUMPDEST PUSH1 0x1 DUP3 ADD SWAP1 POP SWAP2 SWAP1 POP JUMP JUMPDEST PUSH32 0x416C726561647920696E61637469766500000000000000000000000000000000 PUSH0 DUP3 ADD MSTORE POP JUMP JUMPDEST PUSH0 PUSH2 0x1F8C PUSH1 0x10 DUP4 PUSH2 0x1883 JUMP JUMPDEST SWAP2 POP PUSH2 0x1F97 DUP3 PUSH2 0x1F58 JUMP JUMPDEST PUSH1 0x20 DUP3 ADD SWAP1 POP SWAP2 SWAP1 POP JUMP JUMPDEST PUSH0 PUSH1 0x20 DUP3 ADD SWAP1 POP DUP2 DUP2 SUB PUSH0 DUP4 ADD MSTORE PUSH2 0x1FB9 DUP2 PUSH2 0x1F80 JUMP JUMPDEST SWAP1 POP SWAP2 SWAP1 POP JUMP JUMPDEST PUSH32 0x417574686F7269747920616C7265616479206578697374730000000000000000 PUSH0 DUP3 ADD MSTORE POP JUMP JUMPDEST PUSH0 PUSH2 0x1FF4 PUSH1 0x18 DUP4 PUSH2 0x1883 JUMP JUMPDEST SWAP2 POP PUSH2 0x1FFF DUP3 PUSH2 0x1FC0 JUMP JUMPDEST PUSH1 0x20 DUP3 ADD SWAP1 POP SWAP2 SWAP1 POP JUMP JUMPDEST PUSH0 PUSH1 0x20 DUP3 ADD SWAP1 POP DUP2 DUP2 SUB PUSH0 DUP4 ADD MSTORE PUSH2 0x2021 DUP2 PUSH2 0x1FE8 JUMP JUMPDEST SWAP1 POP SWAP2 SWAP1 POP JUMP JUMPDEST PUSH0 PUSH1 0x40 DUP3 ADD SWAP1 POP DUP2 DUP2 SUB PUSH0 DUP4 ADD MSTORE PUSH2 0x2040 DUP2 DUP6 PUSH2 0x18A1 JUMP JUMPDEST SWAP1 POP DUP2 DUP2 SUB PUSH1 0x20 DUP4 ADD MSTORE PUSH2 0x2054 DUP2 DUP5 PUSH2 0x18A1 JUMP JUMPDEST SWAP1 POP SWAP4 SWAP3 POP POP POP JUMP JUMPDEST PUSH0 PUSH1 0x40 DUP3 ADD SWAP1 POP PUSH2 0x2070 PUSH0 DUP4 ADD DUP6 PUSH2 0x1A83 JUMP JUMPDEST PUSH2 0x207D PUSH1 0x20 DUP4 ADD DUP5 PUSH2 0x15F8 JUMP JUMPDEST SWAP4 SWAP3 POP POP POP JUMP INVALID LOG2 PUSH5 0x6970667358 0x22 SLT KECCAK256 INVALID PUSH17 0x53ED940E9E76599462E1C4F4E4987F2F37 0xC6 RJUMP 0x98D0 SWAP2 MSTORE NOT PUSH3 0xCF723E PC SDIV PUSH5 0x736F6C6343 STOP ADDMOD 0x1E STOP CALLER "
				},
				"gasEstimates": {
					"creation": {
						"codeDepositCost": "1675600",
						"executionCost": "infinite",
						"totalCost": "infinite"
					},
					"external": {
						"DEFAULT_ADMIN_ROLE()": "418",
						"VERIFIER_ROLE()": "413",
						"addAuthority(address,string,string,string)": "infinite",
						"authorities(address)": "infinite",
						"authorityAddresses(uint256)": "4966",
						"deactivateAuthority(address)": "infinite",
						"getActiveAuthorities()": "infinite",
						"getAllAuthorities()": "infinite",
						"getAuthorityInfo(address)": "infinite",
						"getRoleAdmin(bytes32)": "infinite",
						"grantRole(bytes32,address)": "infinite",
						"hasRole(bytes32,address)": "3187",
						"isVerifiedAuthority(address)": "5319",
						"renounceRole(bytes32,address)": "infinite",
						"revokeRole(bytes32,address)": "infinite",
						"supportsInterface(bytes4)": "741",
						"updateAuthorityEndpoint(address,string)": "infinite"
					}
				},
				"methodIdentifiers": {
					"DEFAULT_ADMIN_ROLE()": "a217fddf",
					"VERIFIER_ROLE()": "e7705db6",
					"addAuthority(address,string,string,string)": "d1d6bc9c",
					"authorities(address)": "91223d69",
					"authorityAddresses(uint256)": "b69dab68",
					"deactivateAuthority(address)": "6a4cf7b8",
					"getActiveAuthorities()": "65e45025",
					"getAllAuthorities()": "fedf2c56",
					"getAuthorityInfo(address)": "4e00dabb",
					"getRoleAdmin(bytes32)": "248a9ca3",
					"grantRole(bytes32,address)": "2f2ff15d",
					"hasRole(bytes32,address)": "91d14854",
					"isVerifiedAuthority(address)": "25d88b0b",
					"renounceRole(bytes32,address)": "36568abe",
					"revokeRole(bytes32,address)": "d547741f",
					"supportsInterface(bytes4)": "01ffc9a7",
					"updateAuthorityEndpoint(address,string)": "31a016b1"
				}
			},
			"storageLayout": {
				"storage": [
					{
						"astId": 26,
						"contract": "contracts/GovernmentRegistry.sol:GovernmentRegistry",
						"label": "_roles",
						"offset": 0,
						"slot": "0",
						"type": "t_mapping(t_bytes32,t_struct(RoleData)21_storage)"
					},
					{
						"astId": 470,
						"contract": "contracts/GovernmentRegistry.sol:GovernmentRegistry",
						"label": "authorities",
						"offset": 0,
						"slot": "1",
						"type": "t_mapping(t_address,t_struct(GovernmentAuthority)465_storage)"
					},
					{
						"astId": 473,
						"contract": "contracts/GovernmentRegistry.sol:GovernmentRegistry",
						"label": "authorityAddresses",
						"offset": 0,
						"slot": "2",
						"type": "t_array(t_address)dyn_storage"
					}
				],
				"types": {
					"t_address": {
						"encoding": "inplace",
						"label": "address",
						"numberOfBytes": "20"
					},
					"t_array(t_address)dyn_storage": {
						"base": "t_address",
						"encoding": "dynamic_array",
						"label": "address[]",
						"numberOfBytes": "32"
					},
					"t_bool": {
						"encoding": "inplace",
						"label": "bool",
						"numberOfBytes": "1"
					},
					"t_bytes32": {
						"encoding": "inplace",
						"label": "bytes32",
						"numberOfBytes": "32"
					},
					"t_mapping(t_address,t_bool)": {
						"encoding": "mapping",
						"key": "t_address",
						"label": "mapping(address => bool)",
						"numberOfBytes": "32",
						"value": "t_bool"
					},
					"t_mapping(t_address,t_struct(GovernmentAuthority)465_storage)": {
						"encoding": "mapping",
						"key": "t_address",
						"label": "mapping(address => struct GovernmentRegistry.GovernmentAuthority)",
						"numberOfBytes": "32",
						"value": "t_struct(GovernmentAuthority)465_storage"
					},
					"t_mapping(t_bytes32,t_struct(RoleData)21_storage)": {
						"encoding": "mapping",
						"key": "t_bytes32",
						"label": "mapping(bytes32 => struct AccessControl.RoleData)",
						"numberOfBytes": "32",
						"value": "t_struct(RoleData)21_storage"
					},
					"t_string_storage": {
						"encoding": "bytes",
						"label": "string",
						"numberOfBytes": "32"
					},
					"t_struct(GovernmentAuthority)465_storage": {
						"encoding": "inplace",
						"label": "struct GovernmentRegistry.GovernmentAuthority",
						"members": [
							{
								"astId": 456,
								"contract": "contracts/GovernmentRegistry.sol:GovernmentRegistry",
								"label": "name",
								"offset": 0,
								"slot": "0",
								"type": "t_string_storage"
							},
							{
								"astId": 458,
								"contract": "contracts/GovernmentRegistry.sol:GovernmentRegistry",
								"label": "jurisdiction",
								"offset": 0,
								"slot": "1",
								"type": "t_string_storage"
							},
							{
								"astId": 460,
								"contract": "contracts/GovernmentRegistry.sol:GovernmentRegistry",
								"label": "apiEndpoint",
								"offset": 0,
								"slot": "2",
								"type": "t_string_storage"
							},
							{
								"astId": 462,
								"contract": "contracts/GovernmentRegistry.sol:GovernmentRegistry",
								"label": "isActive",
								"offset": 0,
								"slot": "3",
								"type": "t_bool"
							},
							{
								"astId": 464,
								"contract": "contracts/GovernmentRegistry.sol:GovernmentRegistry",
								"label": "addedAt",
								"offset": 0,
								"slot": "4",
								"type": "t_uint256"
							}
						],
						"numberOfBytes": "160"
					},
					"t_struct(RoleData)21_storage": {
						"encoding": "inplace",
						"label": "struct AccessControl.RoleData",
						"members": [
							{
								"astId": 18,
								"contract": "contracts/GovernmentRegistry.sol:GovernmentRegistry",
								"label": "hasRole",
								"offset": 0,
								"slot": "0",
								"type": "t_mapping(t_address,t_bool)"
							},
							{
								"astId": 20,
								"contract": "contracts/GovernmentRegistry.sol:GovernmentRegistry",
								"label": "adminRole",
								"offset": 0,
								"slot": "1",
								"type": "t_bytes32"
							}
						],
						"numberOfBytes": "64"
					},
					"t_uint256": {
						"encoding": "inplace",
						"label": "uint256",
						"numberOfBytes": "32"
					}
				}
			},
			"userdoc": {
				"kind": "user",
				"methods": {},
				"version": 1
			}
		}
	}
}